:0200000460009A
:100000004643464200000156000000000103030081
:1000100000000000000000000000000000000000E0
:1000200000000000000000000000000000000000D0
:1000300000000000000000000000000000000000C0
:1000400000000000010408000000000000000000A3
:100050000000200000000000000000000000000080
:100060000000000000000000000000000000000090
:100070000000000000000000000000000000000080
:10008000EB04180A063204260000000000000000FD
:10009000050404240000000000000000000000002F
:1000A0000000000000000000000000000000000050
:1000B0000604000000000000000000000000000036
:1000C0000000000000000000000000000000000030
:1000D00020041808000000000000000000000000DC
:1000E0000000000000000000000000000000000010
:1000F0000000000000000000000000000000000000
:10010000D8041808000000000000000000000000F3
:100110000204180804200000000000000000000095
:1001200000000000000000000000000000000000CF
:10013000600400000000000000000000000000005B
:1001400000000000000000000000000000000000AF
:10015000000000000000000000000000000000009F
:10016000000000000000000000000000000000008F
:10017000000000000000000000000000000000007F
:10018000000000000000000000000000000000006F
:10019000000000000000000000000000000000005F
:1001A000000000000000000000000000000000004F
:1001B000000000000000000000000000000000003F
:1001C000000100000010000001000000000000001D
:1001D000000001000000000000000000000000001E
:1001E000000000000000000000000000000000000F
:1001F00000000000000000000000000000000000FF
:10020000FFFFFFFFFFFFFFFFFFFFFFFFFFFFFFFFFE
:10021000FFFFFFFFFFFFFFFFFFFFFFFFFFFFFFFFEE
:10100000D1002043491600600000000000000000ED
:10101000201000600010006000C0016000000000AF
:101020000000006000CC010000000000FFFFFFFF97
:10103000FFFFFFFFFFFFFFFFFFFFFFFFFFFFFFFFC0
:10104000FFFFFFFFFFFFFFFFFFFFFFFFFFFFFFFFB0
:10105000FFFFFFFFFFFFFFFFFFFFFFFFFFFFFFFFA0
:10106000FFFFFFFFFFFFFFFFFFFFFFFFFFFFFFFF90
:10140000814205D051F8043B40F8043B8242F9D8B0
:10141000704700BF044A05494FF0000342F8043BFF
:101420009142FBD8704700BFC03A0020204B0020FB
:101430002DE98848BFF34F8F00BF00BF00BF00BF3A
:1014400000F07AFA674B0822C3F8542100BF00BFAE
:1014500000BF00BF00BF00BF00BF00BF00BF00BF94
:1014600000BF00BF00BF00BF00BF00BF5E4A5F49B2
:101470005F48FFF7C5FF5F4A5F496048FFF7C0FF5D
:101480005F4CFFF7C7FF4FF470004FF0E0210023DF
:101490005C4AC1F8880D44F823200133B02BFAD1FF
:1014A000594B8021594A03F8011B9342FBD14FF05D
:1014B000E0254C4E4FF08039DFF880B1DFF880A195
:1014C0004FF0FF31C5F8084D0027C6F80491C6F863
:1014D00000B1C6F8F490C6F8F0A0D5F8243DDFF8C6
:1014E000648143F4E0234A4AC5F8243DD8F81C300F
:1014F00023F07F0343F04003C8F81C30D8F82430B1
:1015000023F07F0343F04003C8F824309166D1668E
:101510001167516700F018FA3E4B3F49A3633F4BF8
:10152000E36363236B610323AF612B613C4BC5F81D
:10153000203DD5F8FC3D43F08073C5F8FC3D394BA8
:101540001A6842F001021A605B680B6000F084FACE
:10155000C6F804913448C6F800B1C6F8F490C6F84D
:10156000F0A000F029FCD8F86C10304B304A41F460
:101570004051C8F86C101F60C3F80871C3F81871A7
:10158000C3F82871C3F83871936BDB0708D442F6AF
:101590001563284951651365936B43F00103936309
:1015A000234A254C936843F00113936000F0B8FB85
:1015B00000F0EEFB00F07EFA00F0C0F92368132B78
:1015C000FCD900F00FFB2368B3F5967FFBD300F046
:1015D000B9F900F0B5F900F0E7FB00F0E9FB30BF26
:1015E000FDE700BF00800D40B863010044200060AB
:1015F00000000000C03A00200084016000000020CC
:101600000038002081EC000000E400E0A0E400E0ED
:1016100000C00A40EDE10000A04A0020F1E1000016
:1016200000002020001000E00046C32300400840D6
:1016300000400D400000C056A44A00201B10182096
:101640000C0D111300C00F40054B4FF42A01054A41
:1016500005485A641864054A99639546FFF7E8FE01
:1016600000C00A40BFAAAAAA0700200000800620E6
:101670001BB9124B1B6F9B041ED400F03F000F4B95
:1016800022F0604221F0604140F489101867C3F8ED
:101690008010C3F890201A6F22F480521A671A6FD4
:1016A000002AFCDAD3F87011054A0A40C3F8702109
:1016B0001A6F22F480321A67704700BF00800D4015
:1016C000FF7F7FFF43690A4A03EB011010B4037ADE
:1016D000084C02EB0313D3E901321460C2681A60AC
:1016E00003690BB142691A605DF8044B704700BF93
:1016F000981C002061F801004369027E03EB02128E
:1017000092F808C08C451CD01A7AFF2A19D0914251
:1017100010B5044616D01A7EFF2A06D00121D3E95F
:10172000002312681A4201D1217610BD064B052212
:10173000204603EB0C135B681A60FFF7C3FF2176AA
:10174000F3E770470021EAE7981C002043690A4A42
:1017500003EB011010B490F82830084C02EB03138F
:10176000D3E901321460C26A1A60036B0BB1426B99
:101770001A605DF8044B7047981C002061F8010066
:101780004369427E03EB021292F828C08C451ED0BA
:1017900093F82820FF2A1AD0914210B5044617D09A
:1017A00093F83820FF2A06D00121D3E900231268DC
:1017B0001A4201D1617610BD064B0522204603EB8B
:1017C0000C135B681A60FFF7C1FF6176F3E770479F
:1017D0000021EAE7981C0020164942698B6B23F42C
:1017E0007C0343F4802370B58B630446124DD2E929
:1017F00000130A681A4303690A60022200211A6171
:101800000E4A19619A6401225A629D624FF4303582
:10181000DD624FF001159E6C1E6519629D651A61AF
:10182000017EFFF74FFF617E2046BDE87040FFF765
:101830008DBF00BF00C00F40B80B05053B3728190E
:10184000B1F5607FF0B50E468DB028BF4FF46076DD
:101850000F46054672B62E4B0024702218602146B2
:101860002C4B2D481C8000F08BFACFB121462A4822
:101870004FF0010C4A0901F01F03013150F82240DA
:101880000CFA03F38E4243EA040340F82230F1D805
:10189000284600234380013300F582709E42F9D828
:1018A0001E4C257815B162B60DB0F0BD082000F0D1
:1018B00073FA1B4B80220646009302A90693194B2C
:1018C0000271056008A8029300F05EFA06A9164AA4
:1018D000304600F079FA069B08A8DB689847009B21
:1018E00002A8DB6898472378002BDCD10F4B104A05
:1018F000C3F858210F49D0204FF0E023402281F84F
:101900004600C3F808210123237062B60DB0F0BD74
:1019100010450020C84A002018450020DB4A00205E
:101920008417002045DC00001B1001000038002057
:1019300051DC000000E400E0704700BF704700BFCA
:10194000704700BF00BF704710B44FF0E023002184
:1019500010243148C3F8941DC3F89C4D1124C3F8DA
:10196000A00D2E48C3F89C4D1224C3F8A00D2C489E
:10197000C3F89C4D2B4AC3F8A00D2B4C42F0150226
:101980002A48C3F89C4DC3F8A00D294C2948C3F838
:101990009C4DC3F8A00D284CC3F89C2D2748284A1D
:1019A000C3F8A04DC3F89C0DC3F8A02D02F5A022EA
:1019B000244C0C322448C3F89C4DC3F8A02D234A74
:1019C000C3F89C0D224CC3F8A02D02F14062C3F86D
:1019D0009C4D2048C3F8A02D0C32C3F89C0DC3F8D1
:1019E000A02D00BF00BF00BF00BF00BF0122C3F891
:1019F000942DBFF34F8FBFF36F8FC3F8501FBFF30A
:101A00004F8FBFF36F8FD3F8142D5DF8044B42F462
:101A10004032C3F8142D70473F000010250008071E
:101A200009001000204B00201300200021000207B5
:101A300014000020250008130900001016002020C3
:101A400027000B1317000040180000602F000B0741
:101A5000190000701A000080F0B4154A40274FF4B6
:101A600080314FF480564FF400554FF4404443F218
:101A70004200136913F0020F0ED113F4005F0FD070
:101A800013F4805F0ED0002BF3DA13F4803F0BD1F8
:101A90005B060BD5F0BC7047946151619061E8E73B
:101AA0005561E6E75661E4E79161E2E75761E0E7F7
:101AB00000800D403F4A03203F49F3EE095AD2F817
:101AC00080304FF0000C9FED3D6A23F001039FED45
:101AD0003C5A30B4C2F88030C2F89000D1F8E0101F
:101AE000384DCBB2384C39482B6007EE903A0B0D8D
:101AF000C1F30B21F8EEE77A06EE903A07EE101AE2
:101B0000334BB8EEC77A2160F8EEE66A314937EE1A
:101B1000C66A37EEC55A76EEC76A77EEE57A26EEE4
:101B2000266AC3ED006A25EE265AD2F8803067EEA9
:101B3000A64AC0ED007AC6EE275A274885EE276AE6
:101B4000C4EEA76A75EE875AFCEEE55A36EE076AD0
:101B500015EE904ABCEEC66A43EA045376EE877AE5
:101B6000C2F8803016EE103AD2F89041FCEEE77AD7
:101B700001EA0341214317EE903AC2F89011C3F3F2
:101B80000B03D2F890110B431449C2F89031D2F8EC
:101B9000803043F00203C2F88030114B80F840C01F
:101BA000C1F840314FF0E023012230BCC3F80821D6
:101BB000704700BF00810D4000441F400000AA4252
:101BC0000000B442904A00208C4A0020944A002031
:101BD000984A00200000FF0F00E400E000380020D9
:101BE0006DEE0000314B40F6617210B5C3F8202154
:101BF00040F2044400F0D4F82D4A2E49D2F8803047
:101C00002D4843F00303C2F880302C4BC1F86041EB
:101C100002681A4203D1D1F8A8319A071BD0254A8D
:101C20004FF00041244B5963D2F8403143F0020396
:101C3000C2F84031D2F840319B07FBD44FF400305A
:101C40004FF0E0211C4B4FF00042C1F88C021920EC
:101C50009A6300F0B5F8184A4FF08040154C002107
:101C600090630A20164B11604FF42072C4F8A8014B
:101C7000184600F085F84FF4800203464FF48100C7
:101C800040F243111860C4F858311A640D4B0E4AE3
:101C9000C4F84811C3F804224FF0E0224FF4003199
:101CA0000123C2F80C11C4F8403110BD00800D4072
:101CB00000C00F4000002E4000900D40001C1E0090
:101CC000000000200038002055F0000008B50E4B41
:101CD0001B6E9B0700D4FBBE72B60C4B00200C4A57
:101CE000C3F8400103F160430A49A3F55F2311647F
:101CF0009D46BFF34F8F4FF400130748074ADB6937
:101D000002609B68984700BF00441F4000002E40BF
:101D100000C00A400300200000802020000012EBD9
:101D2000104BA020104AD96E41F4403110B4D9664E
:101D300040F23764D96E41F44071D96654649064BE
:101D4000936C1B06FCD4094A40F23761A02351640E
:101D50009364936C13F08003FBD1054A13705DF814
:101D6000044B704700C00F4000400C4000800C4006
:101D7000E14A0020F8B500BFF8BC08BC9E46704799
:101D80005FF800F06D5401005FF800F0B9DC00006E
:101D90005FF800F069EB00005FF800F081EA0000F6
:101DA0005FF800F0C5F700005FF800F0ED560100A5
:101DB0005FF800F03DE900005FF800F069E4000022
:101DC0005FF800F059E700005FF800F0C5E200009E
:101DD000450000000D450000F9450000C146000027
:101DE000D54B0000ED4B0000054C00001D4C0000E1
:101DF000354C00004D4C0000654C00007D4C00004F
:101E0000954C0000AD4C0000C54C0000695100002D
:101E10008151000099510000B1510000C9510000EA
:101E2000E1510000F951000011520000455200003C
:101E3000755200008D520000A5520000BD520000F6
:0C1E4000D552000089650000C9E30000D5
:101E4C0080C00F40000000031900000010000000CB
:101E5C00E8841F4001000000FF000000FF000000AC
:101E6C00000000000000000018000000100000003E
:101E7C00E4841F4001000000FF000000FF00000090
:101E8C0000000000000000001F00000039DC000012
:101E9C0070C00F40000C0000110000001100000089
:101EAC00E0841F400200000024000000120000002B
:101EBC00E0841F4001000000100000001100000031
:101ECC00DC841F400200000025000000120000000E
:101EDC00DC841F40010000001E0000002DDC00000F
:101EEC0070C00F40C0000000120000001300000082
:101EFC00D0841F4001000000FF000000FF00000024
:101F0C00000000000000000013000000130000009F
:101F1C00CC841F4001000000FF000000FF00000007
:101F2C0000000000000000001C00000021DC00008C
:101F3C001603550053004200200053006500720048
:101F4C00690061006C000000180354006500650016
:101F5C006E00730079006400750069006E006F00FC
:101F6C000403090409026200030100C032080B00DB
:101F7C000202020100090400000102020100052412
:101F8C0000100105240101010424020605240600A9
:101F9C00010705820310001009040100020A000069
:101FAC0000070503024000000705840240000009F9
:101FBC0004020002FF6AFF000705810240000107CE
:101FCC00050102400001000009026200030100C08B
:101FDC0032080B0002020201000904000001020297
:101FEC00010005240010010524010101042402064E
:101FFC0005240600010705820310000509040100F1
:10200C00020A000000070503020002000705840213
:10201C000002000904020002FF6AC70007058102E2
:10202C000002010705010200020100000A0600027D
:08203C00EF0201400100000069
:10204400000000000000000000000000000000008C
:10205400000000000000000000000000000000007C
:102064000548064B1B1AD90F01EBA301491002D0F6
:10207400034B03B118477047C03A0020C03A002010
:102084000000000008B5054B1BB105490548AFF336
:102094000080BDE80840FFF7E3BF00BF0000000078
:1020A400FC49002000CC01604069704790ED020BB0
:1020B400704700BF0069704707EE901A9FED065BFA
:1020C400B8EE677B90ED026B27EE057B87EE060B7F
:1020D400B7EEC00B704700BF0000000000408F4007
:1020E40081657047806D704701657047006D70476A
:1020F40041657047406D704708B50368D3F88C306C
:10210400984700B1006808BD08B50368D3F88C305F
:10211400984700B1406808BD0023BFF35B8F80F887
:102124008430704700000000B0B582B004460D460C
:10213400002100AF84B06A4610467A6003F00EFDB9
:1021440023687A682946DB6C20469FED030B984789
:102154000837BD46B0BD00BF00000000000000000D
:10216400B0B582B004460D46002100AF84B06A4683
:1021740010467A6003F0E8FC23687A682946DB6C31
:1021840020469FED030B98470837BD46B0BD00BFFE
:102194000000000000000000F8B500AF8AB184B070
:1021A40004460D4600216E46304603F0E3FC2368E6
:1021B40032462946DB6C20469FED050B9847BD4609
:1021C400F8BD054B5321054A054812F02DFF00BF09
:1021D40000000000000000005C0E00206C0E0020D7
:1021E400B40E00204FF001028430D0E84F3FC0E825
:1021F400412F0029F9D1DBB2BFF35B8F002BF4D15F
:10220400704700BF4FF001028430D0E84F3FC0E870
:10221400412F0029F9D1D8B2BFF35B8F80F00100C0
:10222400704700BF183003F0CFBF00BF036810B57C
:10223400D3F88C301446984718B1214604F0F8F8C6
:10224400012010BD00000000DFED0B7A90ED025B71
:1022540087FE800AB7EEC00A9FED056B20EE050BE2
:1022640080EE067BFCEEC77B17EE900A704700BF3A
:102274000000000000408F4000000000F8B5DE8838
:1022840000F170051C46174604362846314603F013
:10229400AFFB60B10146E288204641F8047B03F0BD
:1022A4008FFC31462846BDE8F84003F0CFBB034B12
:1022B4001E21034A034812F0B7FE00BF8007002026
:1022C4004C080020B40E002010B50C1E82B00ADDAC
:1022D4005C30019003F07EFBA102019802B0BDE8DE
:1022E400104003F053BB034BB921034A034812F0D7
:1022F4009BFE00BFE4110020F4110020B40E002066
:1023040010B50C1E82B00ADD7030019003F062FB40
:10231400A102019802B0BDE8104003F037BB034BA3
:10232400BF21034A034812F07FFE00BF3012002091
:1023340040120020B40E002008B5034AE221034BEA
:10234400034812F071FE00BF440700203407002048
:10235400B40E002008B5034AEE21034B034812F0E3
:1023640063FE00BFA408002034070020B40E002040
:102374002DE9F04390461F46026D0E46294B00217D
:1023840083B09A42316046D1814600F1850C4FF00A
:10239400010EDCE84F4FCCE845EF002DF9D1E4B253
:1023A400BFF35B8F002CF4D109F17005284603F0CC
:1023B40015FBA8B101A92846019403F069FBC0B13B
:1023C400019A132A1BD997421FD301464046012480
:1023D40051F8043B33600EF0D9FA284603F05EFB53
:1023E40000232046BFF35B8F89F8853003B0BDE836
:1023F400F0830D4BCF210D4A0D4812F015FE0D4B05
:10240400D0210A4A0A4812F00FFE0B4BD121074A89
:10241400074812F009FE094BC721044A044812F088
:1024240003FE00BF3D020000700D0020200D0020BF
:10243400B40E0020B40D0020DC0D0020780C002028
:102444002DE9F84F2DED028B9FED338BB4EEC80BC5
:10245400F1EE10FA5ADB9046002A51D00368054683
:10246400314A0F469B6988FE008B046993423FD131
:1024740090ED020B9FED2A6B05F184034FF0010CE4
:1024840080EE067B27EE087BFCEEC77B17EE906A96
:102494002644D3E84F4FC3E84ECFBEF1000FF8D126
:1024A400E4B2BFF35B8F002CF3D1B8F806A005F1BA
:1024B4005C0B0AF1040A5846514603F099FA814626
:1024C400C0B10146B8F80620404641F8047B03F049
:1024D40077FB58465146C9F8046003F0B7FABFF3D6
:1024E4005B8F85F884400120BDEC028BBDE8F88F3A
:1024F4009847BFE70D4B83210D4A0E4812F094FD17
:102504000D4B74210A4A0B4812F08EFD0B4B7321BC
:10251400074A084812F088FD00000000000000008F
:102524000000000000408F406D000000600F00209C
:10253400000F0020B40E0020500F0020F00E0020E9
:102544002DE9F04F2DED068B9FED759B43EC182B79
:1025540085B0B4EEC98B00AFF1EE10FA3E6DC0F257
:10256400D680002E00F0CD8007F154028346304619
:102574000AEE101AFA6015F0E3FA8246002800F019
:10258400BA80C000DBF8102089FE089B0830ADEB50
:10259400000DDBF800008469E8466548844240F099
:1025A40087809BED020B29EE009B00245146404698
:1025B400013E4546A1469FED5C6B89EE067BBCEE71
:1025C400C77B17EE103A13441A4603F0B3FA16F811
:1025D400013F623B112B12D8DFE803F009111111FE
:1025E4005211411111111111111111111125B8F8C4
:1025F4000430A34267DD85F80890C5F80C900134D7
:102604000835A245E3DCDBF80040B0EE480B424657
:102614001AEE101A5846E36C98471437BD46BDECC1
:10262400068BBDE8F08FFB68B8F80420191D186804
:10263400A242F96041DD002857D04FF00203E86060
:10264400013408352B7015F07BFAB8F80630A24532
:1026540003F101031844A8F80600B8DCD3E7FB68CB
:10266400B8F80420191D1B68A242F96037DD013453
:10267400EB604FF003030835A2452B70A7DCC2E7DB
:10268400FB68073323F0070393ED007B0833FB60FB
:10269400B7EEC77BB8F80430A3421ADD01344FF01B
:1026A400010385ED037A0835A2452B708FDCAAE778
:1026B4007A605846A0477A6875E71E4B94211E4AF3
:1026C4001E4812F0B1FC1B4B69211D4A1B4812F035
:1026D400ABFC184B73211B4A184812F0A5FC154B90
:1026E4008221194A154812F09FFC184B9521124A71
:1026F400124812F099FC164B3A21164A0F4812F070
:1027040093FC154B5C21154A154812F08DFC154BB2
:102714005B21124A124812F087FC00BFAFF300801D
:1027240000000000000000000000000000408F4096
:102734006D00000008110020A4110020D01000201A
:10274400281100204C11002078110020D8110020FD
:10275400A0100020B01000208C10002034100020A5
:10276400B40E0020F00E0020B5EEC00B70B5F1EEF3
:1027740010FA1D46294B80ED020B036036DD00295B
:1027840046DD002A16463DDD002D35DB4FF0000303
:1027940004460361C0E915330CBF2B46204B1830A7
:1027A40083630023BFF35B8F80F86C30BFF35B8FD0
:1027B40080F86D30882340F8043C03F02BFC6369F7
:1027C400B102034404F15C00636103F0DFF8636960
:1027D4000246A90204F170001344636103F0D6F8C1
:1027E4006369024620461344636170BD0D4B272183
:1027F4000D4A0E4812F018FC0D4B2A210A4A0B48C8
:1028040012F012FC0B4B2921074A084812F00CFC69
:10281400094B2821044A054812F006FC90140020B4
:102824003D0200007C12002090120020B40E002013
:10283400D0120020E4110020C4120020084B10B56F
:10284400044640F8183B03F0FDFB04F15C0003F080
:10285400C1F804F1700003F0BDF8204610BD00BFBC
:102864009014002018B10368D3F88C30184710B5C1
:10287400FFF762FD28B1944618301A46634603F008
:1028840041BC10B5FFF766FD00487047EC0B002013
:1028940000207047022070470020704742B1002397
:1028A40000210448516011721060D36013615361B8
:1028B40000207047340B0020704700BFB0B51146AC
:1028C40000AF82B0056801EB83046A462D6CC2E94F
:1028D40000140021A847BD46B0BD00BF2DE9F84350
:1028E40000AF2BB316466A4600211D46A2EBC30275
:1028F4004FEA850995460268E846546C4246A0476B
:10290400002308EB85041A46002D09DD08EB83013A
:1029140006EB820C51F804EBA1424CF808EBF9D118
:102924002B444C440AB90122EEE7BD46BDE8F883C6
:10293400034B40F26951034A034812F075FB00BF90
:102944004C0B0020580B0020A00B002010B5064BA8
:10295400044600F50870236002F062FC2046FFF78D
:102964006DFF204610BD00BFC413002010B51146F2
:1029740082B00023054CB2EE040A0322CDE9001410
:10298400194602F0BDFA02B010BD00BF110C0000E0
:1029940010B5114682B00023054CB2EE040A02229F
:1029A400CDE90014194602F0ABFA02B010BD00BF25
:1029B400810C000010B5114682B00023054CB2EE24
:1029C400040A0322CDE90014194602F099FA02B070
:1029D40010BD00BF490C000010B5114682B00023A1
:1029E400054CB2EE040A0222CDE90014194602F0A5
:1029F40087FA02B010BD00BF8D0C000010B511465F
:102A040082B00023054C9FED060A0322CDE9001491
:102A1400194602F075FA02B010BD00BF590E00004D
:102A240000007A4410B5114682B00023054CB7EE7D
:102A3400000A1422CDE90014194602F061FA02B02A
:102A440010BD00BFC90D000010B5114682B00023AF
:102A5400054C9FED060A0322CDE90014194602F045
:102A64004FFA02B010BD00BF990E000000007A4476
:102A740010B5114682B00023054CB7EE000A1422AB
:102A8400CDE90014194602F03BFA02B010BD00BFB4
:102A9400E50D000010B5114682B00023054C9FEDF2
:102AA400060A0322CDE90014194602F029FA02B0FD
:102AB40010BD00BF390F000000007A4410B5114664
:102AC40082B00023054CB7EE000A1422CDE90014AD
:102AD400194602F015FA02B010BD00BF010E000045
:102AE40010B5114682B00023054C9FED060A03225F
:102AF400CDE90014194602F003FA02B010BD00BF7C
:102B0400790F000000007A4410B5114682B000230A
:102B1400054CB7EE000A1422CDE90014194602F060
:102B2400EFF902B010BD00BF1D0E000010B5114634
:102B340082B00023054CB2EE040A0322CDE900144E
:102B4400194602F0DDF902B010BD00BF2D0C0000E3
:102B540010B5114682B00023054CB3EE040A0222DC
:102B6400CDE90014194602F0CBF902B010BD00BF44
:102B7400990C000010B5114682B00023054CB2EE4A
:102B8400040A0322CDE90014194602F0B9F902B08F
:102B940010BD00BF650C000010B5114682B00023C3
:102BA400054CB3EE040A0222CDE90014194602F0E2
:102BB400A7F902B010BD00BFA50C000010B5114666
:102BC40082B00023054CB0EE000A0222CDE90014C5
:102BD400194602F095F902B010BD00BFB10C000017
:102BE40010B5054C82B0134600F5AE710122009475
:102BF40002F0E8FD02B010BDA526000010B5054C9A
:102C040082B0134600F5A2710022009402F0DAFDAE
:102C140002B010BDE529000010B5054C82B0134682
:102C240000F5A6710022009402F0CCFD02B010BDA4
:102C34003D2A000010B5054C82B0134600F5AA7178
:102C44000022009402F0BEFD02B010BD952A0000DF
:102C540010B5054C82B0134600F5B47100220094FF
:102C640002F0B0FD02B010BDB12B000010B5054C50
:102C740082B0134600F5C0710022009402F0A2FD58
:102C840002B010BDBD0B000010B5054C82B0134658
:102C940000F5C4710022009402F094FD02B010BD4E
:102CA400D90B000010B5054C82B0134600F5D07165
:102CB4000022009402F086FD02B010BDF50B000066
:102CC400014B132102F0AEBC2D090000014B13216E
:102CD40002F0A8BC75090000014B132102F0A2BC4C
:102CE400ED0A0000014B132102F09CBC350B0000DF
:102CF400014B132102F096BC990F000010B5134646
:102D040084B000220C49044603930091114602F05A
:102D140021F9002209492046039B0091114602F043
:102D240019F9002206492046039B0091114602F03E
:102D340011F904B010BD00BFF910000045210000D6
:102D4400F920000010B5134684B000220C49044653
:102D540003930091114602F0FDF800220949204630
:102D6400039B0091114602F0F5F800220649204623
:102D7400039B0091114602F0EDF804B010BD00BFB2
:102D84000111000091210000F120000010B513464C
:102D940084B000220C49044603930091114602F0CA
:102DA400D9F8002209492046039B0091114602F0FC
:102DB400D1F8002206492046039B0091114602F0F7
:102DC400C9F804B010BD00BF79080000E51F000079
:102DD400E920000010B5134684B0002208490446D7
:102DE40003930091114602F0B5F8002205492046EC
:102DF400039B0091114602F0ADF804B010BD00BF72
:102E0400FD100000F521000010B5054C82B01346FA
:102E140000F5D4710222009402F00EF902B010BD44
:102E2400991C000010B5054C82B0134600F5F071F2
:102E34000222009402F000F902B010BDDD2A000065
:102E440010B5054C82B0134600F5187102220094A7
:102E540002F0F2F802B010BDA928000010B5054C2C
:102E640082B0134600F526710222009402F0E4F8C1
:102E740002B010BD6D27000010B5064C82B00023CF
:102E840000F5EE71CDE90024022202F001F802B04F
:102E940010BD00BFE509000010B5064C82B0012347
:102EA40000F5EE71CDE90024022201F0F1FF02B039
:102EB40010BD00BFE509000010B5064C82B0002328
:102EC40000F50571CDE90024022201F0E1FF02B012
:102ED40010BD00BF310A000010B5064C82B00123BA
:102EE40000F50571CDE90024022201F0D1FF02B002
:102EF40010BD00BF310A000010B5064C82B000239B
:102F040000F50671CDE90024032201F0C1FF02B0EF
:102F140010BD00BFB90F000010B5064C82B00023ED
:102F240000F51471CDE90024022201F0B1FF02B0D2
:102F340010BD00BF0110000010B5064C82B0012383
:102F440000F51471CDE90024022201F0A1FF02B0C2
:102F540010BD00BF0110000010B5064C82B0002364
:102F640000F52571CDE90024022201F091FF02B0A1
:102F740010BD00BF7D0A000010B5064C82B00123CD
:102F840000F52571CDE90024022201F081FF02B091
:102F940010BD00BF7D0A000010B5064C82B00023AE
:102FA40000F53371CDE90024022201F071FF02B073
:102FB40010BD00BFC90A000010B5064C82B0012341
:102FC40000F53371CDE90024022201F061FF02B063
:102FD40010BD00BFC90A000010B5064C82B0012321
:102FE40000F54471CDE90024002201F051FF02B044
:102FF40010BD00BFC116000000F5077103F00EBA42
:1030040001B1704700F5137103F008BA01B17047BC
:1030140000F5177103F002BA01B1704700F516719B
:1030240003F0FCB910B5054C82B0134600F50871E5
:103034000022009402F0F8F802B010BDE52200006E
:1030440010B5054C82B0134600F5087101220094B6
:1030540002F0EAF802B010BDE522000008B5034A08
:103064007321034B034811F0DFFF00BF4C11002014
:1030740008110020D010002001B1704710B5054C94
:1030840082B0134600F5BA710122009402F06AF985
:1030940002B010BD5109000001B1704710B5054CD4
:1030A40082B0134600F5CA710122009402F05AF965
:1030B40002B010BD9909000001B1704710B5054C6C
:1030C40082B0134600F535710122009402F04AF9EA
:1030D40002B010BD110B000001B1704710B5054CD2
:1030E40082B0134600F539710122009402F03AF9D6
:1030F40002B010BD590B000001B1704710B5054C6A
:1031040082B0134600F53D710122009402F02AF9C1
:1031140002B010BD7D0B000001B1704713460A4692
:1031240000F1940103F020B901B1704713460A4637
:1031340000F1880103F018B9704700BF704700BF61
:10314400704700BF054B9446994200D07047044B2A
:1031540000226146183002F0D5BF00BF5BC65CCECA
:10316400392500002DE9F04FDFF868900446174632
:103174009846DFF864A000F15C06DFF860B02DED3E
:10318400068B83B004E051451CD0304602F086FC27
:10319400304602F023FC054610B3002501A9304651
:1031A400019502F075FC019B132B40F28782236882
:1031B40050F8041BD3F890304B45E4D00246204627
:1031C4009847E2E701465B462A4604F1180002F0FC
:1031D40099FFDAE7051100005BC65CCE39250000D3
:1031E40023682046F1499B6D9847B8F1000F266982
:1031F40040F36282F6EE008A9FEDEDAAB5EE008AF6
:10320400DFEDEC9A9FEDEC9A08EB0609DFEDEBAAF3
:10321400A069013678B104F1180A826813689E42E5
:1032240009D9D0E9033120469847504602F0B4FF4B
:10323400A0690028F1D1D4F88820F7EE006AD4F808
:1032440094E04FEA522CD4F88C304FEA5E211A44B1
:103254004CF07E5307EE103A41F07E53D4F8A010A0
:1032640007EE903A37EE667AD4F89830002977EE74
:10327400E67AC4F8882037EE687A734477EEE87A01
:10328400C4F89430B0EEC77AF0EEE77A37EE487AB5
:1032940077EEC87A27EE0A7A67EE8A7A27EE075A1B
:1032A40067EEA75A25EE076A65EEA76AA6EE297AA5
:1032B40026EE056AE6EEA97A66EEA56AA6EE097A16
:1032C400E6EE897A37EE873A67EE877AC0F2EF81C5
:1032D40094ED296AF0EE462AB7EE005AD4F8B0C04D
:1032E40094ED967A01394FEA5C23D4ED936AF0EEBB
:1032F400455AD4ED973A43F07E5394ED2E4AD4EDDB
:103304002A4AE7EE465A07EE103AD4F8BC2026EED5
:10331400066A37EE457AC4F8A01074EEA24A002A71
:1033240037EE687A65EEA75AC4ED294AF0EEC77AFB
:10333400E3EE055AB0EE667A77EEC87A67EE8A7ADB
:10334400A5EEA37A67EEA75A65EEA76A27EE047A7C
:10335400E6EEA97A66EEA56ABDEEC77A17EE103AD4
:10336400E6EE897A6344C4F8B03026EE276AC0F2E8
:103374009981D4ED306AB0EE667AD4ED317A013AAF
:10338400D4F8CCE077EE877AC4F8BC20BEF1000F05
:10339400C4ED307AC0F28181D4ED347AF0EE673A2C
:1033A400D4F8DCC0F7EE004A67EEAA7AD4ED395AB5
:1033B4004FEA5C22D4F8E81094ED355A0EF1FF3E42
:1033C40042F07E5267EEA55A4B0A94ED3C4A07EE52
:1033D400102AD4F8F420FDEEE55A43F07E5337EE7C
:1033E400647A002A07EE903AC4F8CCE015EE903ADD
:1033F40075EE235A37EE687A77EEE47A6344C4EDC7
:10340400345AB0EEC77AC4F8DC3077EEE87A37EE97
:10341400487AF0EEE77A27EE0A7A77EEC87A67EE12
:10342400073A67EE8A7A23EE875A67EEA74AA5EE33
:10343400297A65EE233A64EEA75AE5EEA97AA3EE5B
:10344400897A65EEA44AE4EE897A77EE266AB0EECC
:10345400475A66EEAA6AF0EE675A66EE846AFDEE93
:10346400E66A16EE903A0B44C4F8E830C0F21081D4
:10347400D4ED3E4AB0EE647AD4ED3F7A013AD4F802
:1034840004E177EE877AC4F8F420BEF1000FC4EDAE
:103494003E7AC0F2F880D4ED427AB0EE672AD4F8CE
:1034A40014C1B7EE003A77EEA56AD4F820214FEAAA
:1034B4005C21D4ED472A530AD4ED433A41F07E51BE
:1034C40066EEAA6A43F07E5373EE823A07EE901AD0
:1034D40094ED4A4A07EE103A66EEA26A77EEC37A92
:1034E4000EF1FF3337EE437AC4ED423AFDEEE66A5D
:1034F400C4F8043177EEE87AD4F82C1137EE687A00
:1035040016EE903A0029F0EEE77AB0EEC77A6344FB
:1035140077EEC87AC4F8143137EE487A67EE8A7ABF
:1035240027EE0A7A27EEA73A67EE072A63EE276AA0
:1035340062EE873AE6EEA97A26EE833AA3EEA97AFA
:1035440063EEA23AE3EE097AF0EE476AE3EE896AA3
:1035540077EEA44AB0EE677A64EEAA4A76EEA56ADC
:1035640064EE844AFDEEE44A14EE903A1344C4F83F
:103574002031C0F28380D4ED4C4AF0EE640AD4EDDD
:10358400877A37EE057AD4ED4D5A013964EEA77A7D
:103594009FED0B1A75EEA05ADFED0A1A9FED0A2A69
:1035A4004E4567EEA77ADFED093A19E0EBC021DD5D
:1035B400DB0FC940ABAA2ABE6257003C00007A4424
:1035C400E40FC940C1AA2A3E8380003CCDCC4C3EC6
:1035D4009A99993E000000009A99193FCDCCCC3DB0
:1035E4005FED052A1FED055A67EEA47A1FED063A32
:1035F4001FED064AFBFE670A77EEE07AD7E900235F
:1036040077EEE87AC4ED4C5A2A442B44C4F82C11C2
:1036140005F10405F0EEE77A77EEC87A67EE817A71
:1036240027EEA71A61EE275AE5EEE17A65EE815A94
:10363400E5EE827A67EEA47AF0EE675AE7EE237A33
:10364400E6EEA35AF0EE456AE6EE037AB0EE657A4A
:10365400A6EE227AE7EE046AB0EE457AA7EE847A03
:10366400C2ED006A83ED007A7FF4D3AD4046C4F81E
:10367400109003B0BDEC068BBDE8F08FD4ED4E4A3C
:10368400D4ED4C0A7BE7D4ED447A94ED422A06E764
:10369400D4ED404A94ED3E7AEEE6D4ED367AD4ED9C
:1036A400343A7DE6D4ED326A94ED307A65E694EDF1
:1036B4002B6AD4ED292A0FE6B146D7E7034B40F233
:1036C4007D41034A034811F0AFFC00BFB40D002054
:1036D400F40B0020A00B002010B5084B044600F5A5
:1036E4000870236001F09CFD2046FFF7A7F82046F0
:1036F4004FF446710DF0E6F9204610BDC4130020C6
:1037040070B5002182B005461046144602F0D0FA86
:103714000B4B01462046C91AB1FA81F1490902F05E
:10372400C7FAB0F17E5F01D002B070BD0022054E31
:10373400234628461146009601F00CFC02B070BDE9
:103744006E0ED606950D000090B52DED048B83B05A
:103754000446B0EE409B9FEDD18A02AFFFF704F818
:103764002046CF4BB0EE491BB0EE480A40F8883BE8
:1037740002F0E2FD6369B0EE491B0344B0EE480A6F
:1037840004F19400636102F0D7FD6369034404F11A
:10379400A000636102F060FD63690246B0EE490B6C
:1037A40004F1B0001344636102F0B2FD63690344A1
:1037B40004F1BC00636102F04FFD6369034404F14A
:1037C400CC00636102F048FD63690246B0EE490B28
:1037D40004F1DC001344636102F09AFD6369B0EE06
:1037E400490B034404F1E800636102F091FD63694D
:1037F400034404F1F400636102F02EFD63690344A1
:1038040004F58270636102F027FD63690246B0EE3D
:10381400490B04F58A701344636102F079FD63690E
:103824000246B0EE490B04F590701344636102F054
:103834006FFD6369024604F596701344636102F0F8
:103844000BFD63690246B0EE480A04F59E7013440A
:10385400636101F0AFFF63690246B0EE480A04F504
:10386400A2701344636101F0A5FF63690246B0EEE0
:10387400480A04F5A6701344636101F09BFF636971
:103884000246B0EE480A04F5AA701344636101F0DD
:1038940091FF63690246B7EE000A04F5AE70134463
:1038A400636101F087FF63690246B0EE480A04F5DC
:1038B400B4701344636101F07DFF63690246794982
:1038C40004F5BA701344636101F044FD6369012295
:1038D400034404F5BC701146636101F07FFD636924
:1038E4000246B0EE480A04F5C0701344636101F067
:1038F40061FF63690246B0EE480A04F5C4701344DC
:10390400636101F057FF63690246674904F5CA70B1
:103914001344636101F01EFD63690122034404F54D
:10392400CC701146636101F059FD63690246B0EE43
:10393400480A04F5D0701344636101F03BFF6369E6
:10394400024604F5D471B0EE480A2046134463617C
:1039540001F064FB636902469FED540A04F5E670C6
:103964001344636101F026FF63690246B0EE480A1E
:1039740004F5EE701344636101F084FA636902464E
:1039840004F5F071B0EE480A20461344636101F077
:1039940045FB636902469FED460A04F50170134432
:1039A400636101F007FF63690246B0EE480A04F55B
:1039B40005701344636101F065FA63690246B3EE6E
:1039C4000D0A04F506701344636101F05BFA636940
:1039D400F0EE480A00210344B0EE480A04F50770EB
:1039E400636102F015FD616900220023084402218D
:1039F400CDE90023606104F5087001F0BDFB636943
:103A0400012204211844606104F5097001F0E6FC08
:103A14006369012203211844606104F50B7001F00D
:103A2400DDFC6369012202211844606104F50D7014
:103A340001F0D4FC63690122034404F50F701146BC
:103A4400636101F0CBFC63690122002118446061C9
:103A540004F5117001F0C2FC6369F0EE480A00211C
:103A64000344B0EE480A04F51370636102F0D0FC1D
:103A740063690246B0EE480A04F5147013446361A6
:103A840001F000FA6369F0EE480A00210344B0EE45
:103A9400480A04F51670636110E000BF00000000DE
:103AA400C41300200807E85C83128F630000B4434A
:103AB4000000F0430000F0420000704302F0A8FC54
:103AC4006369F0EE480A00210344B0EE480A04F5A5
:103AD4001770636102F09CFC6369024604F5187177
:103AE400B0EE480A20461344636101F097FA636913
:103AF40002461FED100A04F521701344636101F0BE
:103B040059FE63690246B0EE480A04F52570134471
:103B1400636101F0B7F96369024604F52671B0EEFA
:103B2400480A20461344636101F078FA6369024647
:103B34001FED1F0A04F52F701344636101F03AFE70
:103B440063690246B0EE480A04F5337013446361B6
:103B540001F098F963690246294904F53570134464
:103B6400636101F0F7FB63690122034404F53670D5
:103B74001146636101F032FC63690246214904F590
:103B840039701344636101F0E5FB63690122034466
:103B940004F53A701146636101F020FC6369024642
:103BA400194904F53D701344636101F0D3FB636963
:103BB4000122034404F53E701146636101F00EFCDA
:103BC40063690246B0EE480A04F544701344636125
:103BD40001F058F9636984B00021034402A86361C9
:103BE40001F0BCFF094B0146002204F1180002F069
:103BF40089FA20460437BD46BDEC048B90BD00BF56
:103C0400561E4BDD6498B38DA7C939BD3925000014
:103C140070B50021054618461C4602F049F8114BC0
:103C240001462046C91AB1FA81F1490902F040F867
:103C34000D4B98420AD00D4E234605F5BA7128461D
:103C440004960022BDE8704001F08CBB084E234668
:103C540005F5BC71284604960022BDE8704001F0C9
:103C6400C3BB00BF6E0ED60601BD647E51090000C1
:103C74003910000070B50021054618461C4602F0B4
:103C840017F8114B01462046C91AB1FA81F14909C6
:103C940002F00EF80D4B98420AD00D4E234605F55E
:103CA400CA71284604960022BDE8704001F05ABB50
:103CB400084E234605F5CC71284604960022BDE83B
:103CC400704001F091BB00BF6E0ED60601BD647E4C
:103CD400990900005910000030B500F5D47585B07D
:103CE400044611462846039201F032FA084A039B1F
:103CF400294620460092002201F09EF90022039BEF
:103D0400204611460092FFF7B5FF05B030BD00BF55
:103D1400991C0000B0B582B00121054602AF84B001
:103D2400126802AC204601F005FFA38883B1E38842
:103D340002200A4A0A490B33E26000222072284614
:103D4400E38023460091114601F0CAFBBD46B0BD95
:103D5400044B9421044A054811F066F9D80B00205D
:103D6400BD09000008110020A4110020D01000207B
:103D7400F0B583B00121054602AF84B0126802ACED
:103D8400204601F0D7FEA38893B1E38802210B4AB1
:103D940028460B4E0633217205F5D471E2600022E9
:103DA400E3802346009601F047F90437BD46F0BD91
:103DB400044B9421044A054811F036F9E40B002021
:103DC400991C000008110020A4110020D01000202C
:103DD40070B50021054618461C4601F069FF0F4BDB
:103DE40001462046C91AB1FA81F1490901F060FF80
:103DF40060B10B4B984209D00A4E00222346284654
:103E040004961146BDE8704001F0A4B82246284645
:103E14000021BDE87040FFF7ABBF00BF6E0ED606B1
:103E24002D035B7AE91D000010B584B0002104461F
:103E34000392FFF79DFF09492046039B002200914E
:103E440004F5D47101F0F8F80022039B20461146D2
:103E54000092FFF70FFF04B010BD00BF991C0000D3
:103E6400B0B582B00121054602AF84B0126802AC3D
:103E7400204601F05FFEA38883B1E38802200A4A4A
:103E84000A490B33E260002220722846E38023466D
:103E94000091114601F024FBBD46B0BD044B9421B2
:103EA400044A054811F0C0F8D80B0020090A0000A4
:103EB40008110020A4110020D0100020F0B583B018
:103EC4000121054602AF84B0126802AC204601F01D
:103ED40031FEA38893B1E38802210B4A28460B4E96
:103EE4000633217205F5F071E2600022E380234677
:103EF400009601F0A1F80437BD46F0BD044B9421AF
:103F0400044A054811F090F8E40B0020DD2A000073
:103F140008110020A4110020D010002070B5002149
:103F2400054618461C4601F0C3FE0F4B01462046C9
:103F3400C91AB1FA81F1490901F0BAFE60B10B4B1B
:103F4400984209D00A4E0022234628460496114678
:103F5400BDE8704000F0FEBF224628460021BDE8BF
:103F64007040FFF7ABBF00BF6E0ED6062D035B7A21
:103F7400252B000070B50021054618461C4601F0AB
:103F840097FE134B01462046C91AB1FA81F149093B
:103F940001F08EFEB0F17E5F04D0B0F1804F15D0F9
:103FA40050B170BD0B4E002223462846049611469C
:103FB400BDE8704000F0CEBF074E234602460146DE
:103FC40004962846BDE8704000F0C4BF034EEAE7FB
:103FD4006E0ED606050D0000BD0C00004D0D000050
:103FE400B0B582B00121054602AF84B0126802ACBC
:103FF400204601F09FFDA38873B1012307480849B7
:104004000322E06028462372019105F506710094AD
:1040140000F03EFFBD46B0BDFFF720F866661042D3
:10402400B90F00000021FFF7DBBF00BF2DE9F04FFF
:1040340083B002211546064602AF86B0126802AC70
:10404400204601F077FDA388D3B34FF001094FF068
:104054007E524B4584F80890E26031D04FF000085E
:104064004FF0000B06F5967A234684F810904246EA
:10407400C4F814B05146CDF80080304602F0F6F88A
:1040840086B02A68022102AC204601F053FDBDF837
:104094000C30ABB12A46494643462046CDF814B00D
:1040A4008DF8109001F052FE2346424651463046A8
:1040B400CDF8008002F0DAF80437BD46BDE8F08F91
:1040C400FEF7CCFF0021FFF7B1BF00BFF0B583B00E
:1040D4000121054602AF84B0126802AC204601F00B
:1040E40029FDA388C3B101260C490D4A2346E1608A
:1040F4002846314626720092002200F02BFFDFF89A
:1041040024C02346002231462846CDF800C000F0E2
:1041140021FF0437BD46F0BDFEF7A0FF0000DC42DE
:1041240085200000B90E00000021FFF7CFBF00BFBB
:104134000021FFF7CBBF00BF0021FFF7C7BF00BFBF
:10414400B0B582B00121054602AF84B0126802AC5A
:10415400204601F0EFFCA38873B101230748084906
:104164000322E06028462372019105F5067100944C
:1041740000F08EFEBD46B0BDFEF770FF0000284182
:10418400B90F00000021FFF7DBBF00BFB0B582B05C
:104194000121054602AF84B0126802AC204601F04A
:1041A400C9FCA38873B10123074808490322E060CE
:1041B40028462372019105F50671009400F068FE0B
:1041C400BD46B0BDFEF74AFF9A994B42B90F0000B5
:1041D4000021FFF7DBBF00BFF0B583B00121054626
:1041E40002AF84B0126802AC204601F0A3FCA3889D
:1041F400CBB101264FF07E510C4A2346E16028469C
:10420400314626720092002200F0A4FEDFF820C09E
:104214002346002231462846CDF800C000F09AFE1D
:104224000437BD46F0BDFEF719FF00BFD90E0000EC
:10423400E50F00000021FFF7CFBF00BFF0B583B04A
:104244000121054602AF84B0126802AC204601F099
:1042540071FCA3888BB100230121094A2846094E29
:1042640021721946E26002229FED070ACDE9004659
:1042740000F046FE0437BD46F0BDFEF7EFFE00BF7A
:10428400CDCCCC3DF90E0000000016442DE9F04FD2
:1042940083B002211446064602AF86B0126802AD0E
:1042A400284601F047FC002322462846194601F01F
:1042B4004DFDAB88012B33D94FF000084FF00109B5
:1042C4004FF0000B06F1A00A2B4685F81090C5F8B4
:1042D40014B04246CDF800805146304601F0C6FF86
:1042E40086B02268022102AD284601F023FCBDF805
:1042F4000C30ABB122464B4649462846CDF814B0A3
:104304008DF8109001F022FD2B464246514630466E
:10431400CDF8008001F0AAFF0437BD46BDE8F08F58
:10432400FEF79CFE0021FFF7B1BF00BFF0B583B0DC
:104334000521054602AF8CB0126802AC204601F09C
:10434400F9FBA388002B49D001222549934222720C
:10435400E16043D02349022B227461613ED022499B
:10436400032B2276E16139D02049042B84F82020E4
:10437400616233D01E4923461E4884F82820002257
:10438400E16205F509710090284601F02DF81A48FC
:10439400234605F50B71009000222846174E01F0C4
:1043A40023F81748234605F50D710090002228468E
:1043B40001F01AF81348234605F50F710090002206
:1043C400284601F011F82346002205F5117128460C
:1043D400009601F009F80437BD46F0BDFEF73EFE35
:1043E400FC013B44AEE77F44AE62313E0010F6442C
:1043F4005CAF1046C10F0000CD0F0000E9100000B3
:10440400D90F0000D9100000B0B582B001210546D3
:1044140002AF84B0126802AC204601F08BFBA38883
:1044240083B1E38802200A4A0A490B33E26000227E
:1044340020722846E38023460091114601F050F88B
:10444400BD46B0BD044B9421044A054810F0ECFD70
:10445400D80B0020550A000008110020A4110020E8
:10446400D0100020F0B583B00121054602AF84B01E
:10447400126802AC204601F05DFBA38893B1E38887
:1044840002210B4A28460B4E0633217205F518719A
:10449400E2600022E3802346009600F0CDFD04375D
:1044A400BD46F0BD044B9421044A054810F0BCFD00
:1044B400E40B0020A928000008110020A41100200A
:1044C400D010002070B50021054618461C4601F0A6
:1044D400EFFB0F4B01462046C91AB1FA81F1490995
:1044E40001F0E6FB60B10B4B984209D00A4E002262
:1044F4002346284604961146BDE8704000F02ABDC4
:10450400224628460021BDE87040FFF7ABBF00BF3C
:104514006E0ED6062D035B7AF5280000B0B582B086
:104524000121054602AF84B0126802AC204601F0B6
:1045340001FBA38883B1E38802200A4A0A490B33AA
:10454400E260002220722846E3802346009111464F
:1045540000F0C6FFBD46B0BD044B9421044A054893
:1045640010F062FDD80B0020A10A00000811002001
:10457400A4110020D010002070B5002182B00446A0
:104584001546FFF7C7FB24492B462046009100221D
:1045940004F5E671214E01F015F92A462046002162
:1045A400FFF75EFC1E492B4620460091002204F5CD
:1045B400017101F007F92A4620460021FFF73EFE6B
:1045C4002A4620460021FFF7B1FE2A462046002154
:1045D400FFF71AFF13492B4620460091002204F5E9
:1045E400217101F0EFF82A4620460021FFF796FFDB
:1045F4000D492B4620460091002204F52F7101F04D
:10460400E1F82B46002204F5AE712046009601F035
:10461400D9F802B070BD00BF390E0000A526000015
:10462400790E0000190F0000590F0000F0B583B097
:104634000121054602AF84B0126802AC204601F0A5
:1046440079FAA38893B1E38802210B4A28460B4EDA
:104654000633217205F52671E2600022E3802346C9
:10466400009600F0E9FC0437BD46F0BD044B9421EC
:10467400044A054810F0D8FCE40B00206D27000024
:1046840008110020A4110020D010002070B50021D2
:10469400054618461C4601F00BFB0F4B014620460D
:1046A400C91AB1FA81F1490901F002FB60B10B4B5F
:1046B400984209D00A4E0022234628460496114601
:1046C400BDE8704000F046BC224628460021BDE803
:1046D4007040FFF7ABBF00BF6E0ED6062D035B7AAA
:1046E400A9270000002316499FED160A70B5154648
:1046F40082B01C46064601910C221946009500F032
:10470400FFFB2B462246214630460094FFF760FB10
:104714002B462246214630460094FFF7FFFB2B46EA
:104724002246214630460094FFF7CCFE2B46224613
:10473400214630460094FFF7A9FF02B070BD00BFC8
:10474400A10B00000000000070B5002105461846CA
:104754001C4601F0ADFA114B01462046C91AB1FAC4
:1047640081F1490901F0A4FA0D4B98420AD00D4E8B
:10477400234605F53571284604960022BDE87040AD
:1047840000F0F0BD084E234605F536712846049620
:104794000022BDE8704000F027BE00BF6E0ED606B2
:1047A40001BD647E110B00007910000030B500F5E6
:1047B400267585B0044611462846039200F0C8FCCD
:1047C400084A039B294620460092002200F034FC4C
:1047D4000022039B204611460092FFF7B5FF05B067
:1047E40030BD00BF6D27000010B584B00021044621
:1047F4000392FFF71BFF09492046039B0022009107
:1048040004F5267100F018FC0022039B2046114693
:104814000092FFF799FF04B010BD00BF6D270000A0
:1048240070B50021054618461C4601F041FA114BAB
:1048340001462046C91AB1FA81F1490901F038FA52
:104844000D4B98420AD00D4E234605F53971284682
:1048540004960022BDE8704000F084BD084E234653
:1048640005F53A71284604960022BDE8704000F030
:10487400BBBD00BF6E0ED60601BD647E590B0000A1
:104884009910000070B50021054618461C4601F039
:104894000FFA114B01462046C91AB1FA81F14909B0
:1048A40001F006FA0D4B98420AD00D4E234605F549
:1048B4003D71284604960022BDE8704000F052BDC8
:1048C400084E234605F53E71284604960022BDE8AD
:1048D400704000F089BD00BF6E0ED60601BD647E37
:1048E4007D0B0000B910000030B500F5187585B0D7
:1048F400044611462846039200F02AFC29460C4A35
:104904000025039B204600922A4600F095FB039B5A
:104914002A46294620460095FFF77AF9039B2A4642
:10492400294620460095FFF7ADFF05B030BD00BF16
:10493400A928000030B585B0002104460392FFF792
:1049440091FD00220C49039B20461546009104F575
:10495400187100F071FB039B2A46294620460095F6
:10496400FFF756F9039B2A46294620460095FFF790
:1049740089FF05B030BD00BFA9280000F0B583B0A1
:1049840002211546064602AF86B0126802AC2046E4
:1049940001F0D0F800232A462046194601F0D6F942
:1049A400A388012B0ED90022074901202346616107
:1049B40006F1F40120743046009201F057FC0437EC
:1049C400BD46F0BDFEF74AFB000020410021FFF781
:1049D400D5BF00BFF0B583B002211546064602AF2D
:1049E40086B0126802AC204601F0A4F800232A46DF
:1049F4002046194601F0AAF9A388012B0ED90022FA
:104A0400074901202346616106F58271207430460E
:104A1400009201F02BFC0437BD46F0BDFEF71EFBEF
:104A2400000020410021FFF7D5BF00BFF0B583B0DF
:104A340002211546064602AF86B0126802AC204633
:104A440001F078F800232A462046194601F07EF941
:104A5400A388012B0ED90022074901202346616156
:104A640006F1BC0120743046009201F0FFFB0437CC
:104A7400BD46F0BDFEF7F2FA000020410021FFF729
:104A8400D5BF00BFF0B583B002211546064602AF7C
:104A940086B0126802AC204601F04CF800232A4686
:104AA4002046194601F052F9A388012B0ED90022A1
:104AB400074901202346616106F1CC012074304688
:104AC400009201F0D3FB0437BD46F0BDFEF7C6FAF1
:104AD400000020410021FFF7D5BF00BFB0B582B070
:104AE4000121054602AF84B0126802AC204601F0F1
:104AF40021F8A3887BB100224FF07E514FF0010CC6
:104B04002346E1602846114684F808C00092FFF766
:104B140031FABD46B0BDFEF7A1FA00BF70B500F58D
:104B2400F07682B0044611463046154600F010FB7C
:104B340031460B4A00262B4620460092324600F0AE
:104B44007BFA3246314620462B460096FFF768FE34
:104B54002A463146204602B0BDE87040FFF7BEBF8A
:104B6400DD2A000070B5002182B004461546FFF727
:104B7400A5F900220B492B4616462046009104F560
:104B8400F07100F059FA3246314620462B46009621
:104B9400FFF746FE2A463146204602B0BDE8704083
:104BA400FFF79CBFDD2A0000F0B583B00121054664
:104BB40002AF84B0126802AC204600F0BBFFA388A9
:104BC4008BB100234FF07E520121084EE26028464B
:104BD40021721A4605F54471CDE9004600F058F9F2
:104BE4000437BD46F0BDFEF739FA00BFC116000018
:104BF40030B5094B83B01546044600F59E71009309
:104C040000222B4600F0DEFD2A460021204603B098
:104C1400BDE83040FFF7C8BF8D290000F0EE407AB0
:104C240017281ED8DFE810F02801250122011901F8
:104C34000701F300D200C400B600A8009A008C005B
:104C440081007600180069005D00510046003B00B9
:104C5400380035002E002000B5EE400AF1EE10FABF
:104C640050D19FED870A7047B5EE400AF1EE10FA75
:104C740004D1F5EE400AF1EE10FAF2D0B0EE670A74
:104C84000DF08EBAB5EEC00AF1EE10FAE9DD0EF0C1
:104C9400D3B880FE600A704780FE200A7047B4EEE5
:104CA400E00ADFED777AB7EE000AF1EE10FA20FEA3
:104CB400270A7047B4EEE00ADFED717AB7EE000A16
:104CC400F1EE10FA30FE270A7047B4EEE00ADFED89
:104CD4006C7AB7EE000AF1EE10FA88BFB0EE670AFC
:104CE4007047B4EEE00ADFED667AB7EE000AF1EE43
:104CF40010FA58BFB0EE670A7047B5EE400AF1EEFD
:104D040010FA04D1F5EE400AF1EE10FAA9D0B7EE8C
:104D1400000A7047B4EE600A9FED590AF7EE007A74
:104D2400F1EE10FA00FE270A7047B4EE600A9FED18
:104D3400540AF7EE007AF1EE10FA07FE800A704783
:104D4400BDEEC00AFDEEE00A10EE103A10EE902A15
:104D5400134300EE103AB8EEC00A7047BDEEC00A25
:104D6400FDEEE00A10EE103A10EE902A534000EEE9
:104D7400103AB8EEC00A7047BDEEC00AFDEEE00A74
:104D840010EE103A10EE902A134000EE103AB8EEEE
:104D9400C00A7047BDEEC00AFDEEE00A10EE103AFC
:104DA40010EE902A134100EE103AB8EEC00A704794
:104DB400BDEEC00AFDEEE00A10EE103A10EE902AA5
:104DC400934000EE103AB8EEC00A7047F5EE400A80
:104DD400F1EE10FA3FF445AFFDEEC07A17EE903ACB
:104DE400FDEEE07A17EE902A93FBF2F102FB113309
:104DF40007EE903AB8EEE70AB5EEC00AF1EE10FA03
:104E04007FF531AFF0EEE00A30EE200A7047BDEED8
:104E1400E07A17EE102A002A3FF423AFFDEEC07AA1
:104E240017EE903A93FBF2F102FB113307EE903A3E
:104E3400B8EEE70A7047BDEEE07A17EE103A002BA1
:104E44003FF40FAFBDEEC00A10EE102A92FBF3F34D
:104E540000EE103AB8EEC00A7047F5EE400AF1EEE3
:104E640010FA3FF4FEAE87EEA00A704720EE200A47
:104E7400704730EE600A704730EE200A704700BF7A
:104E8400000000000346002083ED000A704700BFC5
:104E9400F8B500AFBC692BB1012B01D1A388F3B9DC
:104EA400BD46F8BDA388002BFAD005461046227AE9
:104EB400012AF5D1012B19D184B0D1ED000A6E4637
:104EC40094ED030AFFF7AAFE2168304600F03CFE89
:104ED400324600212846FB699847BD46F8BD237A2F
:104EE400012BDDD1E3680B60BD46F8BD237C012BAB
:104EF400E2D1D4ED050A84B0C1ED000A6E46DFE7C5
:104F0400F8B500AFBD69AB880BB9BD46F8BD044622
:104F140010462A7A012AF8D1012B12D184B06E46A8
:104F2400F0EE400A95ED030AFFF778FE2968304653
:104F340000F00AFE324600212046FB699847BD4630
:104F4400F8BD2B7C012BE9D184B095ED050A6E46A2
:104F5400E6E700BFF0B5012983B0054600AF05D0F0
:104F6400022922D091B10C37BD46F0BD9A88002A9F
:104F7400F9D01A7A012AF6D184B0196893ED030A9C
:104F84006A4610467A6000F0DFFD06E084B01968D6
:104F94006A4610467A6000F0E1FD7A6800213B6AB7
:104FA400284698470C37BD46F0BD9A882AB31C7A28
:104FB400012C15D0022C0ED0002CD4D184B0196849
:104FC400114A6E46304600F0D5FD32462146284649
:104FD4003B6A9847C7E71A4600213B6A9847C2E7ED
:104FE40084B01968094A6C46204600F0C3FD224685
:104FF400002128463B6A9847B5E7054B6421054ADA
:10500400054810F011F800BF301B0020381B0020A9
:105014000811002038180020D010002010B50C46CC
:1050240000F082FC2022002144F8040B204612F0F8
:105034003DFA002010BD00BF012A2DE9F047DDF83C
:10504400209088461E4605D0022A144632D07AB1F2
:10505400BDE8F0879B88002BFAD0337A012BF7D177
:1050640096ED030A00F060FCC8F80000BDE8F08784
:105074000746314A2146184600F042FE60B34546D1
:1050840008F1200A55F8044F54B133682246002130
:1050940038462360C8474A462146384600F030FC6B
:1050A4005545EFD108F1040020220021BDE8F04766
:1050B40012F0FCB99B88002BCAD0337A012BC7D1DC
:1050C40096ED037ADFED1D7AC7FE877AFCEEE77A68
:1050D400C1ED007ABDE8F0870146194A304600F078
:1050E4000FFE60B1444608F1200554F8041F19B1BD
:1050F4004A46384600F004FCA542F6D1D2E73568AA
:105104004246D8F800302B44336052F8043F43B190
:105114000134082CF9D10B4B3D210B4A0B480FF0FD
:1051240083FF08EB84044A4638463146FDF7A2FB68
:10513400606035608CE700BF401B00200000000069
:10514400E40B0020481B0020B0180020B41B0020F2
:105154000023024610B452F8044F8C4205D00133A8
:10516400082BF8D15DF8044B704700EB8300002353
:105174005DF8044B436070470EB470B583B0079C70
:10518400002C37D0651C0646ED0028460FF06CFF56
:10519400306048B30022214600F0CCFC08AB002C60
:1051A400019315DD32684FF0000C0120918807331C
:1051B400614523F00703B3EC027BB7EEC77B0DD048
:1051C4000CF1010C107282ED037A08326445EED1C1
:1051D400284603B0BDE8704003B07047084B732104
:1051E400084A09480FF020FF084B1621084A0948CD
:1051F4000FF01AFF084B3A21084A03480FF014FF36
:1052040008110020F4180020D0100020F01B00200A
:1052140024190020081C0020A010002014190020CC
:1052240000680FF029BF00BF2DE9F04F0D6883B06F
:1052340014469A46DDF83090AA889B880190002C89
:1052440045D19A42A8BF1A46541EAAB30AEBC20516
:105254000E464FF00308043517E0023A012A0ED82F
:1052640037682146504600F023FDBA88A2425ADD31
:1052740007F1080303EB0B0203F80B805060013CB9
:10528400083D631C17D0BAF80430A34245DD15F875
:10529400042C4FEAC40B012ADFD1336829689888AB
:1052A400A04246DD0833013C083D03F80B205B4473
:1052B4005960631CE7D13568DAF800302A46019852
:1052C40000212B604B4603B0BDE8F04F184723B3D1
:1052D4009AF80830012B13D0023B012B0DD8002182
:1052E400504600F0E5FCAB889C421CDA08350322EA
:1052F40005EBC40305F83420586003B0BDE8F08F13
:105304009442DAF80C1014DA083505EBC40205F8F7
:105314003430516003B0BDE8F08F094B6421094A71
:1053240009480FF081FE064B8221084A06480FF017
:105334007BFE034B7321064A03480FF075FE00BF42
:1053440008110020C4180020D0100020E417002009
:10535400F4180020002903464FF0000008BF012183
:10536400196070472DE9F8430E4600AF994614467C
:1053740032B1012A01D19B880BBBBD46BDE8F8833D
:1053840005460968144884B06FF004020023A1FBA9
:105394000001E8460FF0CAFCD9F80010530A326045
:1053A400404600EE103ABAEEE40A00F0CDFB424665
:1053B400214628463B6A9847BD46BDE8F88399F8DC
:1053C4000830012BD9D1D9ED037AFCEEE77AC1ED8F
:1053D400007ABD46BDE8F883C160A81003460020EA
:1053E400C3E90012704700BF2DE9F043012A83B0DE
:1053F4000C4600AF06D0022A49D0DAB10C37BD46BC
:10540400BDE8F0839A88002AF8D0197A0129F5D1E9
:10541400D3ED037A012AFDEEE77AC4ED007AEDD0EC
:105424001A7C012AEAD1D3ED057AFDEEE77AC4EDC0
:10543400017AE3E70A68054699888A4237DA6068A0
:10544400891A002802DD8142A8BF014600293BD009
:105454004A1C99466B46D600A3EBC20359F8082BA5
:105464009D46E846404600F065FB2168A6F1080227
:1054740008F1080009EBC1010BF088FABB6A424647
:105484000021284698470C37BD46BDE8F0839A882A
:10549400002AB3D01A7A012AB0D1D3ED037A0C379B
:1054A400FDEEE77AC1ED017ABD46BDE8F08384B034
:1054B40019686A4610467A6000F050FB7A68012148
:1054C4002846BB6A984799E7024B3A21024A0348A7
:1054D4000FF0AAFDA0100020D0180020D01000204A
:1054E4002DE9F04182B00546464A002100AF84B060
:1054F40018461C466E4600F003FC98B12168284605
:10550400796000F0BFF97968B7EEC00B304600F05F
:105514001BFB3246002128463B6A98470837BD46A4
:10552400BDE8F0810146384A204600F0E9FB68B145
:1055340021682846796000F0BFF900EE100A796806
:105544003046B8EEC00A00F0FFFAE2E701462F4AFF
:10555400204600F0D5FB70B901462D4A204600F0E4
:10556400CFFB70B12168304607EE901AB8EE670A97
:1055740000F0EAFACDE721682846796000F0AEF938
:10558400DBE70146234A204600F0BAFB0028C5D0D9
:105594000121204600F08CFB01462846FDF762F904
:1055A40080460028BAD01C4A0221204600F0A8FBFD
:1055B40040B198ED010A30462168B8EE400A00F087
:1055C400C3FAA6E7154A0221204600F099FB40B130
:1055D40098ED020A30462168B8EE400A00F0B4FAA9
:1055E40097E70F4A0221204600F08AFB002895D055
:1055F40098ED040A30462168B8EE400A00F0A4FA97
:1056040087E700BFD80B0020441C0020581C002052
:105614006C1C0020781C0020801C0020881C0020AA
:10562400901C0020F0B583B01D46938800AF13B9D9
:105634000C37BD46F0BD137A1446012BF8D106464B
:10564400D2ED037A1429F3D8DFE801F01B20252AD0
:105654002F34393E43484D52575C5F67717F8D90BC
:105664000B00B8FE670A84B021686A4610467A6067
:1056740000F06AFA7A6800213046A8470C37BD4624
:10568400F0BDB0EE670A0CF05FFDECE7B0EE670A20
:105694000CF03CFEE7E7B0EE670A0CF005FDE2E72C
:1056A400B0EE670A0CF02CFDDDE7B0EE670A0CF0F3
:1056B40095FED8E7B0EE670A0CF074FDD3E7B0EEC0
:1056C400670A0DF049FDCEE7B0EE670A0CF0CEFD97
:1056D400C9E7B0EE670A0DF043FEC4E7B0EE670A0F
:1056E4000CF096FDBFE7B0EE670A0CF055FFBAE781
:1056F400B0EE670A0CF07AFFB5E7B0EE670A0DF07A
:10570400C3FAB0E7B0EEE70AADE7F5EEC07AF1EE22
:1057140010FA2EDC9FED1D0AA5E7F5EEC07AF1EE36
:1057240010FAF7DDB0EE670A0DF020FB9BE7F5EE0B
:10573400C07AF1EE10FAEDDDB0EE670A0DF016FB5B
:10574400DFED137A20EE270A8DE7F5EEC07AF1EE4D
:1057540010FADFDDB0EE670A0DF008FBDFED0D7A1D
:1057640020EE270A7FE7BAFE670A7CE7BBFE670ADA
:1057740079E7F5EE407AF1EE10FA02D4B1EEE70AD9
:1057840071E7B0EE670A0CF09FFD6CE700000000C3
:105794003BAAB83FD95BDE3E08B5034A6421034BFC
:1057A40003480FF041FC00BF4418002008110020FA
:1057B400D01000200346012200201A7083ED010A54
:1057C400704700BFF0B583B00D46144600AFA2B1D8
:1057D400012A0FD19A88002A4BD01A7A012A3AD08A
:1057E400023A012A06D80322002118462A7000F042
:1057F4005FFA68600C37BD46F0BD9A88002A38D03D
:105804001A7A012A2DD0064611D80A7884B0012AC2
:105814006C4630D0032AEDD14A682046196800F05E
:10582400C3F92246002130463B6A9847E2E7023A30
:10583400012ADFD80322214618467B602A7000F033
:1058440037FA7B68844621461A4630463B6AC5F8D7
:1058540004C09847CEE70A700C37DB684B60BD463E
:10586400F0BD0A701A46DE6821463B6A6E609847AE
:10587400C0E7FFF791FF91ED010A2046196800F097
:1058840063F9CEE740B10268074992698A4202D1BE
:1058940090ED020B70471047044B8821044A0548D9
:1058A40010B50FF0C1FB00BF6D00000034070020ED
:1058B4000C210020C421002010B10368DB681847C4
:1058C400034B8D21034A044810B50FF0ADFB00BF14
:1058D40034070020A4200020C421002010B1036854
:1058E4001B691847034B9221034A044810B50FF073
:1058F4009BFB00BF34070020D8200020C4210020D7
:1059040010B103681B6E1847034BF521034A044882
:1059140010B50FF089FB00BF3407002030200020B1
:10592400C421002000000000C0B102681249526A7C
:105934008A4212D19FED117A90ED026B87FE000A24
:10594400B7EEC07A9FED0A5B27EE067B87EE056B08
:10595400FCEEC67B17EE900A70471047084B4FF4D5
:105964008C71084A084810B50FF05EFBAFF3008055
:105974000000000000408F40090200000000000009
:10598400340700203C210020C421002038B50546FE
:105994000C46084631B92960C5E90100C5E903444C
:1059A400204638BD0FF060FB286038B10023C5E9FC
:1059B400010003602046C5E9034438BD024B312190
:1059C400024A03480FF030FB401F0020E01800207B
:1059D4005C1F002000680FF04FBB00BF83681B688A
:1059E4005A1C02D10268136882601846704700BFCF
:1059F40001F108020369934270B4D0E9014508D368
:105A0400043121448D4201D8A5421AD8201D70BC0E
:105A14007047C168914214D3A54294BF0023012367
:105A24007BB90668324495420ED346600161336007
:105A3400BFF35E8F00684FF0FF330430236070BC07
:105A44007047002070BC70471846F8E701F108025F
:105A540008B5036993420FD35B1A426801F1040C41
:105A6400043B036102EB0C034360002342F80C3057
:105A7400BFF35E8F116008BD024B6B21024A0348DD
:105A84000FF0D2FA941F0020501800205C1F002051
:105A9400806850F8043B0B60704700BF08B583680A
:105AA4001A681AB104321344836008BD024B7F2183
:105AB400024A03480FF0B8FA181F0020F01700201C
:105AC4005C1F002008B5034A3A21034B03480FF03A
:105AD400ABFA00BFA0180020A0100020D0100020B6
:105AE40008B5034A6921034B03480FF09DFA00BF30
:105AF4008418002008110020D010002008B5034AA3
:105B04006421034B03480FF08FFA00BF30190020C3
:105B140008110020D010002008B5034A9521034B3A
:105B240003480FF081FA00BF5C19002034240020E0
:105B3400D010002008B50260818019B10131C9007C
:105B4400C18008BDFFF7BEFF034A80ED030AC0E928
:105B5400001201220272704701001000002210B4EA
:105B6400034C0272C260C0E900145DF8044B704734
:105B74000100100070B50123044601601046A380A3
:105B8400164611F0DDFF0546022330461035E66067
:105B94002372ADB2E58011F0D3FF034620460133F2
:105BA4001D44E58070BD00BF10B4044CC260C0E960
:105BB400001403215DF8044B0172704701001000CA
:105BC4002DE9F04F838883B00192002B5FD001331D
:105BD400019AB2EBC30F4FEAC30952D30F46804672
:105BE4004A460146384607EB090B0AF0CFFEB8F8DF
:105BF4000420AAB30C25012406E0944204F1010315
:105C040005F108052CDA1C4618F834A0BAF1020F85
:105C1400F3D158F805100846009111F091FF461C85
:105C2400019BB144009999451FD83246584611F05A
:105C3400D5FC621EB9888A421DDA584607F834A09A
:105C440047F805B0B34411F07BFFFB88B8F8042093
:105C5400083501339442184404F10103F880D2DB7F
:105C6400A7F8069003B0BDE8F08F0A4B49210A4A11
:105C74000A480FF0D9F90A4B94210A4A0A480FF04E
:105C8400D3F90A4B4021044A04480FF0CDF9FFF739
:105C940019FF00BF002400203C190020C823002065
:105CA400081100205C190020D0100020B823002027
:105CB40008B58388994214DA083010F8313000EBC3
:105CC400C101032B13D8DFE803F00402070248687C
:105CD40008BD4FF0FF3008BD4868BDE8084000F03B
:105CE400DDBB044B9221044A04480FF09DF90020C7
:105CF40008BD00BF182400205C180020C823002021
:105D040038B51546828891421EDA0346083313F8E3
:105D1400312003EBC103022A0ED0032A01D0002054
:105D240038BDFFF7C5FF0446284600F0B7FB201A2C
:105D3400B0FA80F0400938BD2946586811F034FDA6
:105D4400B0FA80F0400938BDFFF7D8FE38B50D46EB
:105D540091888B4246DA02F10801044611F83300B7
:105D640001EBC30103280ED8DFE800F01D02280E62
:105D7400A3884A689D423FDA0834012104EBC50335
:105D840004F835105A6038BD19461046FFF790FFE5
:105D9400A3889D4238DA0834032204EBC50304F8CF
:105DA4003520586038BDA3889D422BDA083400237F
:105DB40004EBC50204F83530536038BDA388486845
:105DC4009D4213DA80B104F10803022103EBC502FA
:105DD40003F83510506011F0B3FEE3880133184422
:105DE400E08038BDFFF78AFEFFF796FE094B942149
:105DF400094A0A480FF018F9064B7321084A074864
:105E04000FF012F9FFF76CFE024B8221054A03489A
:105E14000FF00AF9081100205C190020D0100020AE
:105E2400901800205019002008B5034A3821034B6C
:105E340003480FF0F9F800BF68180020082200207A
:105E44001C22002038B504468D02284665600FF0F8
:105E54000BF9206058B100232846C4E90233C4E991
:105E64000433C4E90633C4E90833A36238BD034BE1
:105E74005721034A03480FF0D7F800BF3823002006
:105E8400EC1800201C22002070B504460025006890
:105E940004F120060FF0F0F8E068B8B1236901E0DE
:105EA400034610464268C0E90053002AF8D1E26074
:105EB400C0E9002300E0436823610FF0DDF82069A6
:105EC4000028F8D10834B442E6D170BD2069002816
:105ED400F1D10834B442DFD1F7E700BF38B50D463D
:105EE40020220021EB88013BB3FA83F3C3F11B03A7
:105EF40023EAE37300EBC3049A40284611F0D6FA70
:105F0400206930B143682361E368C0E90053E0606D
:105F140038BD08200FF0A8F80028F5D1FFF784FF5A
:105F2400CB88013BB3FA83F3C3F11B03032B2DE9A5
:105F3400F04F83B04BDC23EAE3724FF0200889462C
:105F4400824600EBC20508FA02F8EB681E46002BF5
:105F540033D1D0E9012404F5007B5A453DD35C4597
:105F640018D2016809E05A682A6144443246A345BC
:105F7400C3E900761E46EB600ED92B690F19002B7E
:105F8400F1D1082001910FF06FF80346E8B1EE68F3
:105F94000199EAE7D3E90072CAF808B04846EA6012
:105FA40042462969596000212B6119603946FFF77F
:105FB40007FE384603B0BDE8F08F596842464846AC
:105FC4001F68E96029695960EDE7FFF72DFF064B6B
:105FD4007921064A06480FF027F8064B8421034A24
:105FE40003480FF021F800BF58220020FC170020BE
:105FF4001C2200206022002008B5034A2921034BFB
:1060040003480FF011F800BF0C180020542300209F
:106014006C23002008B549B1034600220C309A6075
:10602400C3E90022BDE80840FFF70CBF024B14216E
:10603400024A03480EF0F8FFA8230020701800203D
:106044006C230020F8B50468054624B300F10C075E
:106054000026A1683846FFF741FF6368A660AA6876
:10606400C4E903662B602BB11E60C4E90062AC6016
:106074001C46EEE76B60C4E9003200E0626820462B
:10608400AA600EF0F9FFAC68002CF7D13846BDE8E1
:10609400F840FFF7F9BE846800F10C07002CEDD13D
:1060A4003846BDE8F840FFF7EFBE00BFF0B584689E
:1060B40083B0054617461E46B4B16368AB6005F16C
:1060C4000C00FFF72DFF00226B682761E660A060DB
:1060D400C4E9002223B15C6023606C6003B0F0BDAE
:1060E4002C606C6003B0F0BD142001910EF0BCFF75
:1060F4000199A86018B1234644600446DEE7FFF71F
:106104007BFF00BF2DE9F0410568002D35D085687F
:1061140004460E4690461F46002D32D06B68314629
:10612400A36004F10C00FFF7FBFE23683668A86047
:106134009A68C5F810801268EF60964206D2002271
:106144006B601D602A602560BDE8F081626891681B
:106154000968B14206D80023C5E90023556065608B
:10616400BDE8F08119465B689A681268B242F9D9B1
:106174004D60C5E900131D60E6E7BDE8F041FFF797
:1061840095BF14200EF070FFA06018B12B46456037
:106194000546C4E7FFF730FF38B505688DB10446FE
:1061A400A9680C30FFF79AFE00236A68AB60C5E962
:1061B4000333226032B11360A2680023C5E90032C0
:1061C400A56038BD6260F7E770B505688DB1AB684E
:1061D400064699420FD06C6824B90AE060682546E7
:1061E400044638B1A3688B42F8D16AB1E36893429C
:1061F4000AD0002070BD12B1EB689342F9D1304649
:10620400FFF7CAFF012070BD06F10C00FFF766FE20
:1062140072680023A242A360C4E903330AD063680E
:106224006B6063681D60B26800230120C4E900321A
:10623400B46070BD6B607560F5E700BF08B5034AD4
:106244007921034B03480EF0EFFE00BF281800200D
:1062540008110020D01000200346002200215A60BB
:10626400084619609A60DA60704700BF38B51D4669
:106274009B880C46A3B9254A00212846FFF740FD18
:1062840068B1D4ED017A002294ED027A00232260F1
:1062940077EE877AA360C4ED017AC4ED037A38BD42
:1062A4002A7A012AE7D1012B07D1EB6800210022C9
:1062B40021606360A260E36038BD2B7C012BF4D1C4
:1062C40095ED050AFFF730FB2368002B19DD94EDEB
:1062D400017AD4ED027A37EE277AAB8884ED017A1D
:1062E40020608BB1D5ED036A07EE900A36EEC77ACB
:1062F400C4ED036AF8EEE77AC7EE276AC4ED026AD2
:1063040038BD94ED037AE8E7FFF798FFC82400202E
:106314009FED076B0346002286EE007B1046C3E91F
:106324000022B7EEC77B83ED027A7047AFF300809B
:10633400000000000000F0419FED096BB7EEC00AB9
:106344000246002386EE017B1846136027EE007B8D
:10635400FDEEC77B17EE903AC2E90133704700BFE8
:10636400000000000000F04110B50C4699882DEDA6
:10637400028B11B9BDEC028B10BD197A0129F9D138
:1063840062B3012AF6D193ED037AB5EEC07AF1EE49
:1063940010FA08D5F7EE007A37EE277AB5EEC07A10
:1063A400F1EE10FAF8D4F7EE007AB4EEE77AF1EEF3
:1063B40010FA06DD37EE677AB4EEE77AF1EE10FAFA
:1063C400F8DCB7EEC77A9FED106BBDEC028B27EEBD
:1063D400067BBCEEC77B84ED007A10BD93ED038A87
:1063E400FFF750FA9FED085BB7EEC88A85EE007B95
:1063F40027EE087BBDEC028BFDEEC77B17EE903ACF
:10640400C4E9013310BD00BF000000000000F041EA
:106414000346002083ED000A704700BF938803B948
:106424007047137A012BFBD1D3680B60704700BF10
:106434002DE9F04185688D4221D001F1010804461F
:106444000E4600684FEA88010FF0DAF80746AD00FF
:10645400C0B1A068B04209D3A8EB0505A660C4F892
:106464000C80281FC4E90076BDE8F081A8EB000287
:10647400002107EB8000920011F018F8ECE70020EF
:10648400BDE8F081024B4621024A03480EF0CCFDE0
:106494001C20002004190020E81F002010B5044629
:1064A40048B311F04DFB032835D9A0F1040C024682
:1064B4001A492CF0030C0CF1040CA44454F8043BCA
:1064C40001FB02F201FB03F3644583EA136301FB5E
:1064D40003F382EA0302F1D100F0030002280FD093
:1064E400032809D001280FD082EA52320B4802FB5C
:1064F40000F080EAD03010BD9CF8023082EA0342FA
:106504009CF8013082EA03229CF80010034B4A40B5
:1065140003FB02F2E8E70246A446DFE795E9D15B14
:1065240010B5074C0C21074811F052FF204600F02B
:1065340029FA20464021BDE8104000F069BA00BFA6
:10654400BC49002000002020704700BF2E4A0023D1
:1065540070B511462D4D2E4E82B0D36041F8186BA4
:1065640011614FF40071C2E906332B681181002BCD
:1065740045D019465B69002BFBD14A610024254BA9
:106584002148136054615460947200F09FFD2249C5
:106594002B680E600C610C81CC60002B31D01A4644
:1065A4005B69002BFBD1516100241C4B1C484C61DE
:1065B4004C608C720B6009F057FC134B2246164951
:1065C4000094174809F0C4FC164A174914480EF001
:1065D400EBF9164809F048FC01220B4B00920E49D6
:1065E400124809F0B5FC0F4A0F4910480EF0DCF9C7
:1065F4000F4B10490A2219601A7202B070BD2A604A
:10660400BCE72960D0E700BFDC4900201445002026
:10661400841400202C1500203C4A0020381500204A
:10662400144A0020142E0020C5DF0000284A002050
:10663400BC490020DC15002010B50B4C02220A21B5
:10664400002320469FED060BFDF77EF82046074AFF
:106654000749BDE810400EF0A7B900BFAFF30080B2
:10666400000000008088E540E83C0020142E002053
:106674000D0900002DE9F04784B0824609F046FB7D
:1066840090B3804609F042FB814668B308F10204E6
:10669400851C08F58177164E01236A4602A9304607
:1066A400FCF71CF99DED007ADDED017ABEEEE87A87
:1066B400FEEEE87A17EE103A24F8023F17EE903A0D
:1066C400BC4225F8023FE7D100224146504609F07A
:1066D4009BFB01224946504609F096FB404609F0CF
:1066E4006BFB484609F068FB04B0BDE8F08700BFC7
:1066F400E83C002010B5044609F01AFD204610BD00
:10670400024A034903480EF04FB900BF142E00207B
:10671400B54600009C4600200020704700207047CA
:10672400F8B50127027A1E4C0D46BA40C1F3072181
:106734000646204684F8A52084F8307184F82F7129
:1067440009F030F8E9B2204609F02CF8002120467F
:1067540009F000F908B10020F8BD3B460222317A65
:10676400204609F077F90128F5D994F8A22094F885
:10677400A300824210D2531CA118DBB2897E984236
:106784004FEA012184F8A23006D923440232987ECC
:1067940084F8A2200843F8BD4FF0FF30F8BD00BFD5
:1067A400482A0020F8B50127037A144C242903FA57
:1067B40007F30D4608BFC2801646C1F307212046E1
:1067C40084F8A53084F8307184F82F7108F0EAFF5A
:1067D400E9B2204608F0E6FFC6F30721204608F098
:1067E400E1FF2046F1B208F0DDFF3946204609F00A
:1067F400B1F8B0FA80F04009F8BD00BF482A002083
:106804002DE9F0414FF001080F461546302144F2BE
:10681400600280F804800446FFF7C4FF064610B9FE
:106824003046BDE8F0816C2226212046FFF7BAFFEE
:106834004FF4F97228212046FFF7B4FF40F6227284
:106844002C212046FFF7AEFF44F246423C2120466D
:10685400FFF7A8FF40F2371224212046FFF7A2FFDA
:10686400002F6BD0454B342120469F428CBF4246BB
:106874000022FFF797FF07EE905A9FED417A3221ED
:10688400B8EE676A07EE907A2046F8EE676AB5FBC1
:10689400F7F2C6EE267A02F01F0206EE902AF8EE10
:1068A400E66A77EEE67A67EE877AFCEEE77A17EE29
:1068B400903AC3F30A0343EAC222FFF773FF44F298
:1068C400FF5230212046FFF76DFF7322022120463C
:1068D400FFF768FF4FF4C87009F05EFF41F61D52E0
:1068E4002E212046FFF75EFF072204212046FFF7F2
:1068F40059FFB02206212046FFF754FF10220A2137
:106904002046FFF74FFF00220E212046FFF74AFFE3
:1069140043F63C4210212046FFF744FF47F67F72BE
:1069240022212046FFF73EFF362224212046FFF78E
:1069340039FF012330466372BDE8F08144F2FF025F
:1069440030212046FFF72EFF732202212046FFF755
:1069540029FF4FF4C87009F01FFF41F61D522E2184
:106964002046FFF71FFF042220461146FFF71AFFB7
:10697400302206212046FFF715FFBFE740660301DA
:106984000000004510B50446084811F025FD052017
:1069940009F002FF06212046FFF7C2FE2046044A02
:1069A4000021BDE81040FFF72BBF00BF482A00209C
:1069B4000040C40A10B50446D1B1012901D0002019
:1069C40010BD40F273122A21FFF7ECFE0028F6D026
:1069D400882220212046FFF7E5FE0028EFD0E28838
:1069E4002046242122F00402BDE81040FFF7DABE5D
:1069F40055222021FFF7D6FE0028E0D0E288204669
:106A0400242142F00402BDE81040FFF7CBBE00BFD2
:106A140038B5054611B380290CD8C1F180042B790F
:106A240044EA042453B9224628462221BDE83840CA
:106A3400FFF7B8BE2B790024002BF4D0EA8800239A
:106A44002421284622F010022B71FFF7ABFE2246C8
:106A540028462221BDE83840FFF7A4BE012347F6AB
:106A64007F7222210371FFF79DFEEA8828462421C4
:106A740042F01002BDE83840FFF794BE9FED1F7A44
:106A8400DFED1F7AE0EE077A38B50546FCEEE77ACB
:106A940017EE904A14B3802C0CD8C4F180042B79DF
:106AA40044EA042453B9224628462221BDE838404A
:106AB400FFF778BE2B790024002BF4D0EA8800235A
:106AC4002421284622F010022B71FFF76BFE224688
:106AD40028462221BDE83840FFF764BE012347F66B
:106AE4007F7222210371FFF75DFEEA882846242184
:106AF40042F01002BDE83840FFF754BE00000143E5
:106B0400EE7CFF3E30B482B00C4602AB03E90600D3
:106B1400C37C002B30D072B6C37CDA0708D54FF0A3
:106B2400E0214569D1F880212A408262C1F88021A0
:106B34009D0708D54FF0E0218569D1F884212A40CA
:106B4400C262C1F88421590708D54FF0E021C56914
:106B5400D1F888212A400263C1F888211A0708D590
:106B64004FF0E021056AD1F88C212A404263C1F834
:106B74008C21DB062FD462B683689C4235D0224B2D
:106B840084609B69214AC3F30111C3F3826352F801
:106B940021100133B1FBF3F2CCB1944227D8B2FBFC
:106BA400F4F3B2FBF3F294422CD3B3F5817F20D3F8
:106BB400174CC460036803220020019918615A62CB
:106BC40001221C6419661A6102B030BC70479942F4
:106BD400EFD3531CE9E74FF0E022416AD2F8903139
:106BE4000B408363C2F89031C5E7C468E2E7002430
:106BF400DFE7022BFBD9023B5A08140244EA0244A1
:106C04001C43D6E71A46E4E700C00F40941700205F
:106C1400FF7F7F00024A034903480DF0C5BE00BF51
:106C2400142E0020B546000018460020024A0349ED
:106C340003480DF0B9BE00BF142E0020B546000075
