:0200000460009A
:100000004643464200000156000000000103030081
:1000100000000000000000000000000000000000E0
:1000200000000000000000000000000000000000D0
:1000300000000000000000000000000000000000C0
:1000400000000000010408000000000000000000A3
:100050000000200000000000000000000000000080
:100060000000000000000000000000000000000090
:100070000000000000000000000000000000000080
:10008000EB04180A063204260000000000000000FD
:10009000050404240000000000000000000000002F
:1000A0000000000000000000000000000000000050
:1000B0000604000000000000000000000000000036
:1000C0000000000000000000000000000000000030
:1000D00020041808000000000000000000000000DC
:1000E0000000000000000000000000000000000010
:1000F0000000000000000000000000000000000000
:10010000D8041808000000000000000000000000F3
:100110000204180804200000000000000000000095
:1001200000000000000000000000000000000000CF
:10013000600400000000000000000000000000005B
:1001400000000000000000000000000000000000AF
:10015000000000000000000000000000000000009F
:10016000000000000000000000000000000000008F
:10017000000000000000000000000000000000007F
:10018000000000000000000000000000000000006F
:10019000000000000000000000000000000000005F
:1001A000000000000000000000000000000000004F
:1001B000000000000000000000000000000000003F
:1001C000000100000010000001000000000000001D
:1001D000000001000000000000000000000000001E
:1001E000000000000000000000000000000000000F
:1001F00000000000000000000000000000000000FF
:10020000FFFFFFFFFFFFFFFFFFFFFFFFFFFFFFFFFE
:10021000FFFFFFFFFFFFFFFFFFFFFFFFFFFFFFFFEE
:10100000D1002043491600600000000000000000ED
:10101000201000600010006000D00160000000009F
:101020000000006000DC010000000000FFFFFFFF87
:10103000FFFFFFFFFFFFFFFFFFFFFFFFFFFFFFFFC0
:10104000FFFFFFFFFFFFFFFFFFFFFFFFFFFFFFFFB0
:10105000FFFFFFFFFFFFFFFFFFFFFFFFFFFFFFFFA0
:10106000FFFFFFFFFFFFFFFFFFFFFFFFFFFFFFFF90
:10140000814205D051F8043B40F8043B8242F9D8B0
:10141000704700BF044A05494FF0000342F8043BFF
:101420009142FBD8704700BFC03A0020404C0020DA
:101430002DE98848BFF34F8F00BF00BF00BF00BF3A
:1014400000F07AFA674B0822C3F8542100BF00BFAE
:1014500000BF00BF00BF00BF00BF00BF00BF00BF94
:1014600000BF00BF00BF00BF00BF00BF5E4A5F49B2
:101470005F48FFF7C5FF5F4A5F496048FFF7C0FF5D
:101480005F4CFFF7C7FF4FF470004FF0E0210023DF
:101490005C4AC1F8880D44F823200133B02BFAD1FF
:1014A000594B8021594A03F8011B9342FBD14FF05D
:1014B000E0254C4E4FF08039DFF880B1DFF880A195
:1014C0004FF0FF31C5F8084D0027C6F80491C6F863
:1014D00000B1C6F8F490C6F8F0A0D5F8243DDFF8C6
:1014E000648143F4E0234A4AC5F8243DD8F81C300F
:1014F00023F07F0343F04003C8F81C30D8F82430B1
:1015000023F07F0343F04003C8F824309166D1668E
:101510001167516700F018FA3E4B3F49A3633F4BF8
:10152000E36363236B610323AF612B613C4BC5F81D
:10153000203DD5F8FC3D43F08073C5F8FC3D394BA8
:101540001A6842F001021A605B680B6000F084FACE
:10155000C6F804913448C6F800B1C6F8F490C6F84D
:10156000F0A000F029FCD8F86C10304B304A41F460
:101570004051C8F86C101F60C3F80871C3F81871A7
:10158000C3F82871C3F83871936BDB0708D442F6AF
:101590001563284951651365936B43F00103936309
:1015A000234A254C936843F00113936000F0B8FB85
:1015B00000F0EAFB00F07EFA00F0C0F92368132B7C
:1015C000FCD900F00FFB2368B3F5967FFBD300F046
:1015D000B9F900F0B5F900F0E7FB00F0D9FB30BF36
:1015E000FDE700BF00800D40F8720100442000605C
:1015F00000000000C03A002040930160000000207D
:101600000038002069FB000000E400E0A0E400E0F6
:1016100000C00A40D5F00000C84B0020D9F00000FF
:1016200000002020001000E00046C32300400840D6
:1016300000400D400000C056CC4B00201B1018206D
:101640000C0D111300C00F40054B4FF42A01054A41
:1016500005485A641864054A99639546FFF7E8FE01
:1016600000C00A40BFAAAAAA0700200000800620E6
:101670001BB9124B1B6F9B041ED400F03F000F4B95
:1016800022F0604221F0604140F489101867C3F8ED
:101690008010C3F890201A6F22F480521A671A6FD4
:1016A000002AFCDAD3F87011054A0A40C3F8702109
:1016B0001A6F22F480321A67704700BF00800D4015
:1016C000FF7F7FFF43690A4A03EB011010B4037ADE
:1016D000084C02EB0313D3E901321460C2681A60AC
:1016E00003690BB142691A605DF8044B704700BF93
:1016F000501E002061F801004369027E03EB0212D4
:1017000092F808C08C451CD01A7AFF2A19D0914251
:1017100010B5044616D01A7EFF2A06D00121D3E95F
:10172000002312681A4201D1217610BD064B052212
:10173000204603EB0C135B681A60FFF7C3FF2176AA
:10174000F3E770470021EAE7501E002043690A4A88
:1017500003EB011010B490F82830084C02EB03138F
:10176000D3E901321460C26A1A60036B0BB1426B99
:101770001A605DF8044B7047501E002061F80100AC
:101780004369427E03EB021292F828C08C451ED0BA
:1017900093F82820FF2A1AD0914210B5044617D09A
:1017A00093F83820FF2A06D00121D3E900231268DC
:1017B0001A4201D1617610BD064B0522204603EB8B
:1017C0000C135B681A60FFF7C1FF6176F3E770479F
:1017D0000021EAE7501E0020164942698B6B23F472
:1017E0007C0343F4802370B58B630446124DD2E929
:1017F00000130A681A4303690A60022200211A6171
:101800000E4A19619A6401225A629D624FF4303582
:10181000DD624FF001159E6C1E6519629D651A61AF
:10182000017EFFF74FFF617E2046BDE87040FFF765
:101830008DBF00BF00C00F40B80B05053B3728190E
:10184000B1F5607FF0B50E468DB028BF4FF46076DD
:101850000F46054672B62E4B0024702218602146B2
:101860002C4B2D481C8000F08BFACFB121462A4822
:101870004FF0010C4A0901F01F03013150F82240DA
:101880000CFA03F38E4243EA040340F82230F1D805
:10189000284600234380013300F582709E42F9D828
:1018A0001E4C257815B162B60DB0F0BD082000F0D1
:1018B0007FFA1B4B80220646009302A90693194B20
:1018C0000271056008A8029300F06AFA06A9164A98
:1018D000304600F079FA069B08A8DB689847009B21
:1018E00002A8DB6898472378002BDCD10F4B104A05
:1018F000C3F858210F49D0204FF0E023402281F84F
:101900004600C3F808210123237062B60DB0F0BD74
:1019100038460020F04B002040460020034C0020B9
:10192000341900202DEB00001B10010000380020AE
:1019300039EB000000E400E0704700BF704700BFD3
:10194000704700BF00BF704710B44FF0E023002184
:1019500010243148C3F8941DC3F89C4D1124C3F8DA
:10196000A00D2E48C3F89C4D1224C3F8A00D2C489E
:10197000C3F89C4D2B4AC3F8A00D2B4C42F0150226
:101980002A48C3F89C4DC3F8A00D294C2948C3F838
:101990009C4DC3F8A00D284CC3F89C2D2748284A1D
:1019A000C3F8A04DC3F89C0DC3F8A02D02F5A022EA
:1019B000244C0C322448C3F89C4DC3F8A02D234A74
:1019C000C3F89C0D224CC3F8A02D02F14062C3F86D
:1019D0009C4D2048C3F8A02D0C32C3F89C0DC3F8D1
:1019E000A02D00BF00BF00BF00BF00BF0122C3F891
:1019F000942DBFF34F8FBFF36F8FC3F8501FBFF30A
:101A00004F8FBFF36F8FD3F8142D5DF8044B42F462
:101A10004032C3F8142D70473F000010250008071E
:101A200009001000404C0020130020002100020794
:101A300014000020250008130900001016002020C3
:101A400027000B1317000040180000602F000B0741
:101A5000190000701A000080F0B4154A40274FF4B6
:101A600080314FF480564FF400554FF4404443F218
:101A70004200136913F0020F0ED113F4005F0FD070
:101A800013F4805F0ED0002BF3DA13F4803F0BD1F8
:101A90005B060BD5F0BC7047946151619061E8E73B
:101AA0005561E6E75661E4E79161E2E75761E0E7F7
:101AB00000800D403F4A03203F49F3EE095AD2F817
:101AC00080304FF0000C9FED3D6A23F001039FED45
:101AD0003C5A30B4C2F88030C2F89000D1F8E0101F
:101AE000384DCBB2384C39482B6007EE903A0B0D8D
:101AF000C1F30B21F8EEE77A06EE903A07EE101AE2
:101B0000334BB8EEC77A2160F8EEE66A314937EE1A
:101B1000C66A37EEC55A76EEC76A77EEE57A26EEE4
:101B2000266AC3ED006A25EE265AD2F8803067EEA9
:101B3000A64AC0ED007AC6EE275A274885EE276AE6
:101B4000C4EEA76A75EE875AFCEEE55A36EE076AD0
:101B500015EE904ABCEEC66A43EA045376EE877AE5
:101B6000C2F8803016EE103AD2F89041FCEEE77AD7
:101B700001EA0341214317EE903AC2F89011C3F3F2
:101B80000B03D2F890110B431449C2F89031D2F8EC
:101B9000803043F00203C2F88030114B80F840C01F
:101BA000C1F840314FF0E023012230BCC3F80821D6
:101BB000704700BF00810D4000441F400000AA4252
:101BC0000000B442B84B0020B44B0020BC4B0020B6
:101BD000C04B00200000FF0F00E400E000380020B0
:101BE00055FD0000314B40F6617210B5C3F820215D
:101BF00040F2044400F0E4F82D4A2E49D2F8803037
:101C00002D4843F00303C2F880302C4BC1F86041EB
:101C100002681A4203D1D1F8A8319A071BD0254A8D
:101C20004FF00041244B5963D2F8403143F0020396
:101C3000C2F84031D2F840319B07FBD44FF400305A
:101C40004FF0E0211C4B4FF00042C1F88C021920EC
:101C50009A6300F0A1F8184A4FF08040154C00211B
:101C600090630A20164B11604FF42072C4F8A8014B
:101C7000184600F085F84FF4800203464FF48100C7
:101C800040F243111860C4F858311A640D4B0E4AE3
:101C9000C4F84811C3F804224FF0E0224FF4003199
:101CA0000123C2F80C11C4F8403110BD00800D4072
:101CB00000C00F4000002E4000900D40001C1E0090
:101CC00000000020003800203DFF000008B50E4B4A
:101CD0001B6E9B0700D4FBBE72B60C4B00200C4A57
:101CE000C3F8400103F160430A49A3F55F2311647F
:101CF0009D46BFF34F8F4FF400130748074ADB6937
:101D000002609B68984700BF00441F4000002E40BF
:101D100000C00A400300200000802020000012EBD9
:101D2000104BA020104AD96E41F4403110B4D9664E
:101D300040F23764D96E41F44071D96654649064BE
:101D4000936C1B06FCD4094A40F23761A02351640E
:101D50009364936C13F08003FBD1054A13705DF814
:101D6000044B704700C00F4000400C4000800C4006
:101D7000094C0020F8B500BFF8BC08BC9E4670476F
:101D80005FF800F0E56301005FF800F051FA000031
:101D90005FF800F025F800005FF800F041F6000061
:101DA0005FF800F0A1EB00005FF800F0656601004D
:101DB0005FF800F069F900005FF800F051F30000EF
:101DC0005FF800F0AD0601005FF800F0ADF1000033
:101DD00045000000E1530000D15400009955000077
:101DE000AD5A0000C55A0000DD5A0000F55A000047
:101DF0000D5B0000255B00003D5B0000555B0000B3
:101E00006D5B0000855B00009D5B00004160000091
:101E1000596000007160000089600000A16000004E
:101E2000B9600000D1600000E96000001D610000A1
:101E30004D610000656100007D610000956100005A
:0C1E4000AD61000071740000B1F2000000
:101E4C0080C00F40000000031900000010000000CB
:101E5C00E8841F4001000000FF000000FF000000AC
:101E6C00000000000000000018000000100000003E
:101E7C00E4841F4001000000FF000000FF00000090
:101E8C0000000000000000001F00000021EB00001B
:101E9C0070C00F40000C0000110000001100000089
:101EAC00E0841F400200000024000000120000002B
:101EBC00E0841F4001000000100000001100000031
:101ECC00DC841F400200000025000000120000000E
:101EDC00DC841F40010000001E00000015EB000018
:101EEC0070C00F40C0000000120000001300000082
:101EFC00D0841F4001000000FF000000FF00000024
:101F0C00000000000000000013000000130000009F
:101F1C00CC841F4001000000FF000000FF00000007
:101F2C0000000000000000001C00000009EB000095
:101F3C001603550053004200200053006500720048
:101F4C00690061006C000000180354006500650016
:101F5C006E00730079006400750069006E006F00FC
:101F6C000403090409026200030100C032080B00DB
:101F7C000202020100090400000102020100052412
:101F8C0000100105240101010424020605240600A9
:101F9C00010705820310001009040100020A000069
:101FAC0000070503024000000705840240000009F9
:101FBC0004020002FF6AFF000705810240000107CE
:101FCC00050102400001000009026200030100C08B
:101FDC0032080B0002020201000904000001020297
:101FEC00010005240010010524010101042402064E
:101FFC0005240600010705820310000509040100F1
:10200C00020A000000070503020002000705840213
:10201C000002000904020002FF6AC70007058102E2
:10202C000002010705010200020100000A0600027D
:08203C00EF0201400100000069
:10204400000000000000000000000000000000008C
:10205400000000000000000000000000000000007C
:102064000548064B1B1AD90F01EBA301491002D0F6
:10207400034B03B118477047C03A0020C03A002010
:102084000000000008B5054B1BB105490548AFF336
:102094000080BDE80840FFF7E3BF00BF0000000078
:1020A400244B002000DC01604069704790ED020B76
:1020B400704700BF0069704707EE901A9FED065BFA
:1020C400B8EE677B90ED026B27EE057B87EE060B7F
:1020D400B7EEC00B704700BF0000000000408F4007
:1020E40081657047806D704701657047006D70476A
:1020F40041657047406D704708B50368D3F88C306C
:10210400984700B1006808BD08B50368D3F88C305F
:10211400984700B1406808BD0023BFF35B8F80F887
:102124008430704700000000B0B582B004460D460C
:10213400002100AF84B06A4610467A6004F072FB56
:1021440023687A682946DB6C20469FED030B984789
:102154000837BD46B0BD00BF00000000000000000D
:10216400B0B582B004460D46002100AF84B06A4683
:1021740010467A6004F04CFB23687A682946DB6CCD
:1021840020469FED030B98470837BD46B0BD00BFFE
:102194000000000000000000F8B500AF8AB184B070
:1021A40004460D4600216E46304604F047FB236882
:1021B40032462946DB6C20469FED050B9847BD4609
:1021C400F8BD054B5321054A054813F0A1FE00BF95
:1021D4000000000000000000041000201410002083
:1021E4005C1000204FF001028430D0E84F3FC0E87B
:1021F400412F0029F9D1DBB2BFF35B8F002BF4D15F
:10220400704700BF4FF001028430D0E84F3FC0E870
:10221400412F0029F9D1D8B2BFF35B8F80F00100C0
:10222400704700BF183004F033BE00BF036810B518
:10223400D3F88C301446984718B1214605F01AF8A3
:10224400012010BD00000000DFED0B7A90ED025B71
:1022540087FE800AB7EEC00A9FED056B20EE050BE2
:1022640080EE067BFCEEC77B17EE900A704700BF3A
:102274000000000000408F4000000000F8B5DE8838
:1022840000F170051C46174604362846314604F012
:1022940013FA60B10146E288204641F8047B04F059
:1022A400F3FA31462846BDE8F84004F033BA034B4C
:1022B4001E21034A034813F02BFE00BF80070020B1
:1022C4004C0800205C10002010B50C1E82B00ADD02
:1022D4005C30019004F0E2F9A102019802B0BDE87B
:1022E400104004F0B7B9034BB921034A034813F073
:1022F4000FFE00BF8C1300209C1300205C100020F4
:1023040010B50C1E82B00ADD7030019004F0C6F9DD
:10231400A102019802B0BDE8104004F09BB9034B40
:10232400BF21034A034813F0F3FD00BFD813002074
:10233400E81300205C10002008B5034AE221034B97
:10234400034813F0E5FD00BF4407002034070020D4
:102354005C10002008B5034AEE21034B034813F038
:10236400D7FD00BFA4080020340700205C10002023
:102374002DE9F04390461F46026D0E46294B00217D
:1023840083B09A42316046D1814600F1850C4FF00A
:10239400010EDCE84F4FCCE845EF002DF9D1E4B253
:1023A400BFF35B8F002CF4D109F17005284604F0CB
:1023B40079F9A8B101A92846019404F0CDF9C0B176
:1023C400019A132A1BD997421FD301464046012480
:1023D40051F8043B33600FF04DFA284604F0C2F97B
:1023E40000232046BFF35B8F89F8853003B0BDE836
:1023F400F0830D4BCF210D4A0D4813F089FD0D4B91
:10240400D0210A4A0A4813F083FD0B4BD121074A15
:10241400074813F07DFD094BC721044A044813F013
:1024240077FD00BF3D020000180F0020C80E0020F9
:102434005C1000205C0F0020840F0020200E002080
:102444002DE9F84F2DED028B9FED338BB4EEC80BC5
:10245400F1EE10FA5ADB9046002A51D00368054683
:10246400314A0F469B6988FE008B046993423FD131
:1024740090ED020B9FED2A6B05F184034FF0010CE4
:1024840080EE067B27EE087BFCEEC77B17EE906A96
:102494002644D3E84F4FC3E84ECFBEF1000FF8D126
:1024A400E4B2BFF35B8F002CF3D1B8F806A005F1BA
:1024B4005C0B0AF1040A5846514604F0FDF88146C3
:1024C400C0B10146B8F80620404641F8047B04F048
:1024D400DBF958465146C9F8046004F01BF9BFF310
:1024E4005B8F85F884400120BDEC028BBDE8F88F3A
:1024F4009847BFE70D4B83210D4A0E4813F008FDA2
:102504000D4B74210A4A0B4813F002FD0B4B732147
:10251400074A084813F0FCFC00000000000000001B
:102524000000000000408F406D00000008110020F2
:10253400A81000205C100020F81000209810002043
:102544002DE9F04F2DED068B9FED759B43EC182B79
:1025540085B0B4EEC98B00AFF1EE10FA3E6DC0F257
:10256400D680002E00F0CD8007F154028346304619
:102574000AEE101AFA6016F083FA8246002800F078
:10258400BA80C000DBF8102089FE089B0830ADEB50
:10259400000DDBF800008469E8466548844240F099
:1025A40087809BED020B29EE009B00245146404698
:1025B400013E4546A1469FED5C6B89EE067BBCEE71
:1025C400C77B17EE103A13441A4604F017F916F8AD
:1025D400013F623B112B12D8DFE803F009111111FE
:1025E4005211411111111111111111111125B8F8C4
:1025F4000430A34267DD85F80890C5F80C900134D7
:102604000835A245E3DCDBF80040B0EE480B424657
:102614001AEE101A5846E36C98471437BD46BDECC1
:10262400068BBDE8F08FFB68B8F80420191D186804
:10263400A242F96041DD002857D04FF00203E86060
:10264400013408352B7016F01BFAB8F80630A24591
:1026540003F101031844A8F80600B8DCD3E7FB68CB
:10266400B8F80420191D1B68A242F96037DD013453
:10267400EB604FF003030835A2452B70A7DCC2E7DB
:10268400FB68073323F0070393ED007B0833FB60FB
:10269400B7EEC77BB8F80430A3421ADD01344FF01B
:1026A400010385ED037A0835A2452B708FDCAAE778
:1026B4007A605846A0477A6875E71E4B94211E4AF3
:1026C4001E4813F025FC1B4B69211D4A1B4813F0BF
:1026D4001FFC184B73211B4A184813F019FC154BA7
:1026E4008221194A154813F013FC184B9521124AFC
:1026F400124813F00DFC164B3A21164A0F4813F0FA
:1027040007FC154B5C21154A154813F001FC154BC9
:102714005B21124A124813F0FBFB00BFAFF30080A9
:1027240000000000000000000000000000408F4096
:102734006D000000B01200204C130020781200201D
:10274400D0120020F4120020201300208013002057
:10275400481200205812002034120020DC110020FE
:102764005C10002098100020B5EEC00B70B5F1EE9F
:1027740010FA1D46294B80ED020B036036DD00295B
:1027840046DD002A16463DDD002D35DB4FF0000303
:1027940004460361C0E915330CBF2B46204B1830A7
:1027A40083630023BFF35B8F80F86C30BFF35B8FD0
:1027B40080F86D30882340F8043C04F08FFA636994
:1027C400B102034404F15C00636103F043FF6369F5
:1027D4000246A90204F170001344636103F03AFF56
:1027E4006369024620461344636170BD0D4B272183
:1027F4000D4A0E4813F08CFB0D4B2A210A4A0B4854
:1028040013F086FB0B4B2921074A084813F080FB81
:10281400094B2821044A054813F07AFB3816002096
:102824003D02000024140020381400205C10002015
:10283400781400208C1300206C140020084B10B571
:10284400044640F8183B04F061FA04F15C0003F01C
:1028540025FF04F1700003F021FF204610BD00BFE6
:102864003816002018B10368D3F88C30184710B517
:10287400FFF762FD28B1944618301A46634604F007
:10288400A5BA10B5FFF766FD00487047180C002084
:102894000020704702207047064B994207D0064B30
:1028A400994202D100F5327070470020704700F55C
:1028B4004B707047315941756D99A8D542B10023C9
:1028C40000210448516011721060D3601361536198
:1028D40000207047340B0020704700BFB0B511468C
:1028E40000AF82B0056801EB83046A462D6CC2E92F
:1028F40000140021A847BD46B0BD00BF2DE9F84330
:1029040000AF2BB316466A4600211D46A2EBC30254
:102914004FEA850995460268E846546C4246A0474A
:10292400002308EB85041A46002D09DD08EB83011A
:1029340006EB820C51F804EBA1424CF808EBF9D1F8
:102944002B444C440AB90122EEE7BD46BDE8F883A6
:10295400034B40F27961034A034813F0D9FA00BFEC
:102964004C0B0020580B0020A00B002010B50C4B82
:10297400044600F50F70236003F0AAFA04F5107002
:1029840003F0A6FA04F5327004F070FC04F54B7001
:1029940004F06CFC2046FFF751FF204610BD00BF39
:1029A4006C150020014B132103F094BCFD2300009F
:1029B400014B132103F08EBC110E0000014B1321B7
:1029C40003F088BC2D0E0000014B132103F082BCE0
:1029D400490E0000014B132103F07CBC8D3700002D
:1029E40010B5114682B00023054C9FED060A022261
:1029F400CDE90014194603F0DBF802B010BD00BFA6
:102A0400650900000200004B10B5114682B0002396
:102A1400054CB7EE000A1522CDE90014194603F05F
:102A2400C7F802B010BD00BFED09000010B5114693
:102A340082B00023054C9FED060A1422CDE9001450
:102A4400194603F0B5F802B010BD00BFF91000003C
:102A54000000000010B5114682B00023054C9FED24
:102A6400060A1422CDE90014194603F0A1F802B0B5
:102A740010BD00BF3D0A00000000000030B5002377
:102A840083B014460B491A46B7EE000A0191194661
:102A94000094054603F08CF800230749BFEE000AB2
:102AA40002222846CDE90041194603F081F803B01B
:102AB40030BD00BFA10A00003D11000010B5114651
:102AC40082B00023054CB7EE000A1422CDE90014AD
:102AD400194603F06DF802B010BD00BFE90A00000A
:102AE40010B5114682B00023054CB6EE000A02224E
:102AF400CDE90014194603F05BF802B010BD00BF25
:102B04003511000010B5114682B00023054CB7EE14
:102B1400000A1522CDE90014194603F049F802B061
:102B240010BD00BF150A000010B5114682B0002385
:102B3400054C9FED060A0222CDE90014194603F064
:102B440037F802B010BD00BFAD0F0000E40FC9405C
:102B540010B5114682B00023054C9FED060A0322EE
:102B6400CDE90014194603F023F802B010BD00BFEC
:102B74007911000000007A4410B5114682B0002398
:102B8400054C9FED060A0322CDE90014194603F013
:102B94000FF802B010BD00BFBD11000000007A4460
:102BA40010B5114682B00023054C9FED060A03229E
:102BB400CDE90014194602F0FBFF02B010BD00BFBE
:102BC400890B000000007A4410B5114682B000233E
:102BD400054C9FED060A0222CDE90014194602F0C5
:102BE400E7FF02B010BD00BFB12A00000000484258
:102BF40010B5114682B00023054C9FED060A03224E
:102C0400CDE90014194602F0D3FF02B010BD00BF95
:102C1400D90B000000007A4410B5114682B000239D
:102C2400054C9FED060A0222CDE90014194602F074
:102C3400BFFF02B010BD00BF892C00000000484255
:102C440010B5114682B00023054C9FED060A1422EC
:102C5400CDE90014194602F0ABFF02B010BD00BF6D
:102C64003D2E00000000000010B5114682B0002384
:102C7400054C9FED060A1422CDE90014194602F012
:102C840097FF02B010BD00BFE52D0000000000005A
:102C940010B5114682B00023054C9FED060A14229C
:102CA400CDE90014194602F083FF02B010BD00BF45
:102CB400CD1200000000000010B5114682B00023C0
:102CC400054C9FED060A1522CDE90014194602F0C1
:102CD4006FFF02B010BD00BF010C000077BE7F3F44
:102CE40010B5114682B00023054C9FED060A03225D
:102CF400CDE90014194602F05BFF02B010BD00BF1D
:102D0400ED0F000000007A4410B5114682B0002394
:102D1400054CB7EE000A1422CDE90014194602F05E
:102D240047FF02B010BD00BF6913000010B5114683
:102D340082B00023054C9FED060A0322CDE900145E
:102D4400194602F035FF02B010BD00BF2D1000007F
:102D540000007A4410B5114682B00023054CB7EE4A
:102D6400000A1422CDE90014194602F021FF02B032
:102D740010BD00BF8513000010B5114682B00023BA
:102D8400054CB3EE000A0222CDE90014194602F004
:102D94000FFF02B010BD00BF7109000010B511464D
:102DA40082B00023054C9FED060A0222CDE90014EF
:102DB400194602F0FDFE02B010BD00BF7D090000FF
:102DC4000000F04210B5114682B00023054CB0EE6D
:102DD400080A0222CDE90014194602F0E9FE02B005
:102DE40010BD00BF8909000010B5114682B0002350
:102DF400054CB2EE020A0222CDE90014194602F093
:102E0400D7FE02B010BD00BF9509000010B5002325
:102E140082B0144605499FED060A1A46CDE90041E1
:102E2400194602F0C5FE02B010BD00BF810E0000BD
:102E34000000DC4210B5054C82B0134600F5D47195
:102E44000122009403F022FB02B010BD8132000085
:102E540010B5054C82B0134600F5E27100220094CF
:102E640003F014FB02B010BD9910000010B5054C1E
:102E740082B0134600F5DE710022009403F006FBD5
:102E840002B010BDB90E000010B5054C82B0134657
:102E940000F5DA710022009403F0F8FA02B010BDD4
:102EA4007124000010B5054C82B0134600F5FC7186
:102EB4000022009403F0EAFA02B010BD6138000069
:102EC40010B5054C82B0134600F50D710022009434
:102ED40003F0DCFA02B010BD4D10000010B5054C33
:102EE40082B0134600F559710022009403F0CEFA23
:102EF40002B010BD790C000030B5002383B0144635
:102F04001549B3EE0E0A02220191194600940546B2
:102F140002F04EFE1149284601230222CDE9004168
:102F240005F5856102F00CFE00230D4803221946C5
:102F34009FED0C0ACDE90040284602F039FE00233B
:102F44000949B2EE000A02222846CDE90041194699
:102F540002F02EFE03B030BD650E0000CD0D000062
:102F64009D0E00000000C842D511000010B5064CAB
:102F740082B0002300F5E671CDE90024032202F0BB
:102F8400DFFD02B010BD00BFF110000010B5064C0B
:102F940082B0002300F5EE71CDE90024022202F094
:102FA400CFFD02B010BD00BFC909000010B5064C2A
:102FB40082B0012300F5EE71CDE90024022202F073
:102FC400BFFD02B010BD00BFC909000010B5064C1A
:102FD40082B0012300F50B71CDE90024032202F035
:102FE400AFFD02B010BD00BFFD27000010B5064CB8
:102FF40082B0002300F50B71CDE90024032202F016
:103004009FFD02B010BD00BFFD27000010B5064CA7
:1030140082B0002300F56871CDE90024022202F099
:103024008FFD02B010BD00BFC90C000010B5064CE6
:1030340082B0012300F56871CDE90024022202F078
:103044007FFD02B010BD00BFC90C000010B5064CD6
:1030540082B0002300F57671CDE90024022202F04B
:103064006FFD02B010BD00BF150D000010B5064C79
:1030740082B0012300F57671CDE90024022202F02A
:103084005FFD02B010BD00BF150D000030B50F4B41
:1030940083B01546044600F5EA71009300222B46DE
:1030A40003F0F4F92B4604F188012046012203F0D1
:1030B400C7FF0023064915229FED060A2046CDE9E5
:1030C4000051194602F074FD03B030BD4D0F0000ED
:1030D400510C000000007A4430B5154683B000F16D
:1030E400880100222B46044603F0AAFF00230E4861
:1030F400B3EE000A19460322CDE90050204602F03F
:1031040057FD0A4A04F5856120460023CDE90052A3
:10311400022202F015FD2A4604F58761204603B019
:10312400BDE8304004F068B8CD110000CD0D0000BA
:1031340000F5E87104F060B830B5002383B015469B
:1031440009490446B7EE000A019101221946009587
:1031540002F02EFD2A4604F5FA71204603B0BDE8BC
:10316400304004F049B800BF2D11000000F5F271A1
:1031740004F042B800F50C7104F03EB800F5027199
:1031840004F03AB830B5002383B015460949044623
:10319400B7EE000A019101221946009502F008FDDC
:1031A4002A4604F51571204603B0BDE8304004F00A
:1031B40023B800BF8111000000F5167104F01CB89B
:1031C40000F5177104F018B830B5002383B0154624
:1031D40009490446B7EE000A0191012219460095F7
:1031E40002F0E6FC2A4604F51C71204603B0BDE853
:1031F400304004F001B800BFC511000000F51D7196
:1032040003F0FABF00F51E7103F0F6BF00F23C4173
:1032140003F0F2BF38B50446154600F2344103F01A
:10322400EBFF2A4604F587612046BDE8384003F0E9
:10323400E3BF00BF10B5134684B000220C49044616
:1032440003930091114602F0DDFC00220949204657
:10325400039B0091114602F0D5FC0022064920464A
:10326400039B0091114602F0CDFC04B010BD00BFD9
:1032740079150000792600008D25000010B513464D
:1032840084B000220C49044603930091114602F0D5
:10329400B9FC002209492046039B0091114602F023
:1032A400B1FC002206492046039B0091114602F01E
:1032B400A9FC04B010BD00BF751500002D26000048
:1032C4009525000010B5134684B000220C4904462D
:1032D40003930091114602F095FC0022094920460F
:1032E400039B0091114602F08DFC00220649204602
:1032F400039B0091114602F085FC04B010BD00BF91
:1033040099080000E12500008525000030B50A4930
:1033140085B013460446009100220121074D039312
:1033240002F070FC039B002201212046009502F06C
:1033340069FC05B030BD00BF9D140000811400007D
:1033440000B5134683B0002200F1C001009203F0DF
:10335400F7FD03B05DF804FB00B5134683B000220B
:1033640000F58271009203F0EBFD03B05DF804FBFD
:1033740010B5054C82B0134600F51F71002200946D
:1033840002F0B2FC02B010BDA113000010B5054C50
:1033940082B0134600F538710022009402F0A4FCB8
:1033A40002B010BDF513000010B5054C82B01346F1
:1033B40000F55B710222009402F096FC02B010BD8D
:1033C4002D33000010B5054C82B0134600F5697129
:1033D4000222009402F088FC02B010BDA135000066
:1033E40030B500F51F7585B0044611462846039292
:1033F40002F006FD0D4A039B04F528712046009255
:10340400002202F071FC0A4A039B294620460092DE
:103414000025002202F068FC039B012204F5A4713C
:103424002046009503F082FE05B030BD192B000044
:10343400A113000030B500F5387585B00446114677
:103444002846039202F0DCFC0D4A039B04F541710B
:1034540020460092002202F047FC0A4A039B2946B8
:10346400204600920025002202F03EFC039B01222C
:1034740004F5A8712046009503F058FE05B030BD50
:10348400F12C0000F513000010B5054C82B0134672
:1034940000F510710022009402F01EFD02B010BD70
:1034A4001913000010B5054C82B0134600F50F71D6
:1034B4000022009402F010FD02B010BD01130000C0
:1034C40010B5054C82B0134600F50F71012200942B
:1034D40002F002FD02B010BD0113000010B5054C4E
:1034E40082B0134600F510710122009402F0F4FC3E
:1034F40002B010BD1913000008B5034A7321034B31
:10350400034812F005FD00BFF4120020B0120020A1
:103514007812002001B1704710B5054C82B01346F3
:1035240000F5CC710122009402F074FD02B010BDCC
:10353400A109000001B1704710B5054C82B01346D3
:1035440000F578710122009402F064FD02B010BD10
:10355400390D000001B1704710B5054C82B0134617
:1035640000F57C710122009402F054FD02B010BDFC
:103574005D0D000001B1704710B5054C82B01346D3
:1035840000F580610122009402F044FD02B010BDF8
:10359400850D000001B1704710B5054C82B013468B
:1035A40000F582610122009402F034FD02B010BDE6
:1035B400A90D0000704700BF704700BF054B94463B
:1035C400994200D07047044B00226146183003F042
:1035D400FDBB00BF5BC65CCEA53000002DE9F04FFB
:1035E400DFF86880044617469946DFF864A000F1C6
:1035F4005C06DFF860B02DED0E8B85B004E051451C
:103604001CD0304603F0AEF8304603F04BF80546C4
:1036140010B3002503A93046039503F09DF8039BDE
:10362400132B40F24883236850F8041BD3F89030DE
:103634004345E4D0024620469847E2E701465B460C
:103644002A4604F1180003F0C1FBDAE77D150000F7
:103654005BC65CCEA530000023682046E8499B6D1C
:103664009847B9F1000F266940F31D83B7EE008A2D
:10367400DFEDE4AA9FEDE4AA09EB0608DFEDE39A87
:1036840004F2344A9FEDE29ADFEDE28AA069013642
:1036940078B104F1180B826813689E4209D9D0E905
:1036A400033120469847584603F0DAFBA069002806
:1036B400F1D1D4F8A43144F2A71ED4F888200193A0
:1036C400D4F88C30510A1A44019B41F07E510EFB10
:1036D40003F307EE901AC4F8882007EE103AC4F8F2
:1036E400A43177EEC87AB8EEC76A94ED257AB4EEC1
:1036F400E77AC4ED257A26EE2A6AF1EE10FA40F351
:10370400A982B0EE465A84ED266AF0EE466A94ED3C
:10371400274AD4ED824A94ED287AE4EE646AD4F818
:10372400A420D4ED8C5A002A36EEC77AC4ED276A59
:10373400C4ED286A27EE257AC0F29782D4ED2A6A6E
:10374400B0EE662AD4F8B41066EE876A27EE8A7A59
:10375400DAED002A4B0AB6EE003A36EE854AD4ED8D
:103764002F3A43F07E53F5EE004AD4ED2B5A013A3A
:1037740007EE903A24EE224A75EE825AD4F8C0C07D
:1037840077EEC87AC4F8A42027EE047ABCF1000FBF
:10379400C4ED2A5A77EEC37A27EE237AF0EEE77A5D
:1037A400BDEEC77A77EEE47A17EE103A67EEA97A9F
:1037B4000B44C4F8B43067EEA75A25EEA77AE7EEB7
:1037C400097A27EE257AE7EE287AB0EE672A77EEB3
:1037D400A64AC0F2458294ED317AF0EE472AD4F835
:1037E400D030D4ED963AD3ED047A0CF1FF3327EEC2
:1037F400237A94ED973AF8EE677ADFED8E3AD4EDBA
:10380400325A87FE437A87FE237A77EEC87AC4F861
:10381400C03075EEA25A77EEC77AC4ED315AD4EDB2
:10382400955ABBFE677AB4EEE37AF1EE10FA40F1F2
:103834000E82F4EE635AF1EE10FA00F0088277EE8D
:10384400255AD4F8D4C0DCF80020FDEEE55A15EE74
:10385400901A4B1C00F12982DCF80CC09C4540F204
:10386400248202EB8302D4F8E4C000294FEA8303E4
:10387400D2ED005ADCF80020C0F21782DCF80CC04C
:103884008C4540F212821A4477EEC77AD4F8F430A9
:1038940012ED017A002B75EEC75AA5EEA77AC0F295
:1038A400EE81D4ED3E3AB0EE633AD4ED3F7A5A1E3F
:1038B400D4F80431F0EE645A77EE837AC4F8F42035
:1038C400002BE7EE235AC4ED3E7AC0F2D38194ED87
:1038D400427AF0EE471AD4F81421013B94ED9D3A54
:1038E400D2ED047A27EE037AD4ED9E2AF8EE677AB5
:1038F4009FED503AD4ED433A87FE627A87FE037A0D
:1039040077EEC87AC4F8043173EEA13A77EEC77A39
:10391400C4ED423AD4ED9C3ABBFE677AB4EEC37A66
:10392400F1EE10FA40F19981F4EE433AF1EE10FA17
:1039340000F0938177EE233AD4F818C1DCF8002024
:10394400FDEEE33A13EE901A4B1C00F1AE81DCF865
:103954000CC09C4540F2A98102EB8302D4F828C133
:1039640000294FEA8303D2ED003ADCF80020C0F2CC
:103974009C81DCF80CC08C4540F297811A4477EEA8
:10398400C77AD4F8383112ED017A002B73EEC73AB6
:10399400A3EEA77AC0F27881D4ED4F3AB0EE633A41
:1039A400013BD4ED507AE3EEC75AC4F8383177EED0
:1039B400837AD4E952128B6802F1010BC4ED4F7A79
:1039C4009B4500F27F810B68D4F854E103EB82033A
:1039D400D4F850210EF1010CC3ED004AC4F84CB1E7
:1039E400C1F810B091688C4500F26C811368F6EE52
:1039F400001AF5EE002ADFED084A03EB8E031DE002
:103A0400EBC021DDF6FFFF2F00000043DB0FC940B0
:103A1400ABAA2ABE6257003CE40FC940C1AA2A3EA1
:103A24008380003C9A99193F9A99993FCDCCCC3D1B
:103A34000AD7233E00000000CDCC4C3DD4F858E119
:103A44001FED0A3A4FEA5E21C3ED005AD4F85C3107
:103A540041F07E51C4F854C1C2F810C0734407EE5B
:103A6400901AD4F864215FED123A37EEC87A002A2E
:103A7400C4F85831FBFE477A77EE677A77EEE17A3D
:103A8400F0EEE77A77EEE27A67EEA47A67EEA74A79
:103A940024EEA77AE7EE437A27EE247AE7EE237A38
:103AA400C0F2FC80D4ED5A3AF0EE631A04F23C43BF
:103AB400D4ED5D4A94ED793A63EEA73A93ED007A3A
:103AC400F2EE002A23EE643AD4ED7D4A26EE077A1C
:103AD400D4ED5B7A63EEA23AD4F878C1B1EE006A11
:103AE400013AA4EE873ABCF1000F77EEA17AC4F84C
:103AF400642173EE824AC4ED5A7AE6EE864A84ED76
:103B04005D3AC0F2C680D4ED5F2AB0EE62EAD4F822
:103B14008811F6EE00EA94ED746A72EE047A4B0AA8
:103B2400B5EE00DA22EE866A5FED45DA43F07E53A5
:103B34003A685FED46CAB0EE08BA26EE066A07EEAA
:103B4400103A04F587631FED4ACA37EE487A5FEDF1
:103B54004B0A26EE226A93ED004A7B68F0EE00BA27
:103B640037EE6E7A5FED501ABBFE462A36EE426A95
:103B7400A7EE845A1FED531AB0EEC77A1FED540A0C
:103B840076EE6E7A94ED606AD4ED64EA03EB050E8A
:103B940037EE4D7A1FED594AF0EEE77A1FED5A2AB7
:103BA40036EE0E6A0CF1FF3327EE297A2A4477EEBB
:103BB400CD7AC4F8783184ED5F6A25EE2E5A27EE6B
:103BC40007DA464567EEAD7A05F10405BDEEC55A40
:103BD4002DEE076A67EEA7DA15EE103AA6EE097A1B
:103BE40026EE0DDA0B442DEEA76AC4F88831E6EE12
:103BF4006C7A26EE2D6AADEE287AE6EE0C7A37EE74
:103C0400237AA6EEAB7A67EEA27A67EE8B7AE3EEBE
:103C1400207AA7EEA17AE7EEA14AF0EE477AE5EE24
:103C2400814AB0EE447AE5EE807AA4EE827AA7EE79
:103C3400824A82ED007A8EED004A7FF428AD484630
:103C4400C4F8108005B0BDEC0E8BBDE8F08FF0EE2B
:103C5400635AF4E594ED265A57E5F0EE433A69E6E3
:103C640094ED337AD4ED312AB9E5D4ED2C6A94ED90
:103C74002A2A67E594ED447AD4ED421A2BE6D4ED72
:103C8400403A94ED3E3A10E6D4ED513A94ED4F3A71
:103C940086E6D4ED612A94ED5FEA38E7D4ED5C3A28
:103CA400D4ED5A1A02E7B046C9E7094B4B21094A39
:103CB400094812F02DF9094B4FF4AF61084A09483D
:103CC40012F026F9084B2821084A094812F020F975
:103CD400580C0020980C0020CC0C00205C0F002015
:103CE400200C0020A00B00200C0D0020380D00201B
:103CF400680D002010B50E4B044600F50F702360CC
:103D040002F0E6F804F5107002F0E2F804F53270FF
:103D140003F0ACFA04F54B7003F0A8FA2046FEF762
:103D24008DFD20464FF488610DF040FE204610BD05
:103D34006C1500202DE9F0432DED048B83B004466F
:103D4400B0EE409B9FEDCE8A02AFFEF70DFD2046FC
:103D5400CC4BB0EE491BB0EE480A04F5327640F87D
:103D6400883B04F54B7503F053F963694FF0000881
:103D74004FF00009034404F19400636103F0C2F8B6
:103D84006369034404F19800636103F0B3F9636960
:103D9400034404F19C00636103F0A6F963690344DE
:103DA40004F1A000636103F0ADF86369034404F116
:103DB400A400636103F0BAF863690246B0EE490BEC
:103DC40004F1B4001344636103F00EF9636903441E
:103DD40004F1C000636103F0A9F863693146184433
:103DE400606104F1D00003F097F963693146002261
:103DF4001844606104F1D40003F082F9636900227D
:103E040031461844606104F1E40003F079F9636910
:103E14001844606104F1F40003F088F863691844FD
:103E2400606104F5827003F081F8636929461844DF
:103E3400606104F58A7003F06FF963692946002212
:103E44001844606104F58C7003F05AF96369002228
:103E540029461844606104F5947003F051F96369CC
:103E64001844606104F59C7003F060F8636931469E
:103E74001844606104F5A47003F052F9636929469B
:103E84001844606104F5A87003F04AF96369B0EE60
:103E9400491B9FED7D0A1844606104F5AC7003F082
:103EA400B7F863691844606104F5B27003F03EF832
:103EB40063691844606104F5BA7003F015F9636925
:103EC4001844606104F5BC7003F030F8636902467D
:103ED400B0EE490B04F5C4701344636103F084F835
:103EE40063696A491844606104F5CC7002F08AF889
:103EF4006369012218441146606104F5CE7002F032
:103F0400C5F863691844002360611A46194604F52C
:103F1400D27003F07BF96369B7EE000A034404F539
:103F2400D470636102F09EFA6369B0EE480A0344F8
:103F340004F5DA70636102F095FA6369B0EE480A39
:103F4400034404F5DE70636102F08CFA6369B0EE39
:103F5400480A034404F5E270636102F083FA63697A
:103F6400B3EE0D0A034404F5E670636101F0E2FD6B
:103F74006369F0EE480A00211844B0EE480A606113
:103F840004F5E87003F032F963699FED410A0344D4
:103F940004F5EA70636102F065FA6369B0EE480AF9
:103FA400034404F5EE70636101F0C4FD6369F0EE4F
:103FB400480A00211844B0EE480A606104F5F27022
:103FC40003F014F96369F0EE480A00211844B0EED6
:103FD400480A606104F5FA7003F008F96369B0EE09
:103FE400480A034404F5FC70636102F03BFA636918
:103FF400F0EE480A00211844B0EE480A606104F566
:10400400027003F0F3F863699FED220A034404F598
:104014000370636102F026FA6369B0EE480A034450
:1040240004F50B70636101F085FD6369F0EE480AE5
:1040340000211844B0EE480A606104F50C7003F0E6
:10404400D5F86369B0EE480A034404F50D70636162
:1040540002F008FA63694246022118444B46606143
:1040640004F50F70CDE9008901F0DEFE42464B46AF
:10407400CDE9008961690844022160610CE000BF58
:10408400000000006C15002000002F443CA150C526
:104094000044AC460000FA4504F5107001F0C4FE7B
:1040A4006369B2491844606104F5117002F0E2F9E1
:1040B4006369F0EE480A00211844B0EE480A6061D2
:1040C40004F5157003F092F86369F0EE480A0021D4
:1040D4001844B0EE480A606104F5167003F086F8DF
:1040E4006369F0EE480A00211844B0EE480A6061A2
:1040F40004F5177003F07AF863699D491844606108
:1041040004F5187002F0B6F96369F0EE480A00216C
:104114001844B0EE480A606104F51C7003F066F8B8
:104124006369F0EE480A00211844B0EE480A606161
:1041340004F51D7003F05AF86369F0EE480A002193
:104144001844B0EE480A606104F51E7003F04EF89E
:104154006369B0EE480A04F51F7118446061204693
:1041640001F0B4FD6369B0EE480A04F528711844FF
:104174006061204601F0AAFD636902464FF4807134
:1041840030461344636103F053F86369B0EE480AA0
:1041940004F5387118446061204601F097FD6369A5
:1041A400B0EE480A04F5417118446061204601F0FC
:1041B4008DFD636902464FF48071284613446361A0
:1041C40003F036F863690246B0EE480A04F5597004
:1041D4001344636102F046F96369024604F55B71B6
:1041E400B0EE480A20461344636101F06FFD636931
:1041F40002469FED600A04F564701344636102F0A3
:1042040031F963690246B0EE480A04F56870134454
:10421400636101F08FFC6369024604F56971B0EED5
:10422400480A20461344636101F050FD6369024665
:104234009FED510A04F572701344636102F012F9A0
:1042440063690246B0EE480A04F57670134463616C
:1042540001F070FC63690246484904F57870134420
:10426400636101F0CFFE63690122034404F57970B0
:104274001146636101F00AFF63690246404904F58F
:104284007C701344636101F0BDFE63690122034441
:1042940004F57D701146636101F0F8FE636902461E
:1042A400384904F580601344636101F0ABFE63692F
:1042B4000122034404F204401146636101F0E6FE66
:1042C40063690246304904F582601344636101F076
:1042D40099FE63690122034404F2144011466361A8
:1042E40001F0D4FE63690246B0EE480A04F5856025
:1042F4001344636101F01EFC6369F0EE480A002177
:104304000344B0EE480A04F23440636102F06EFFE5
:104314006369F0EE480A00210344B0EE480A04F54C
:104324008760636102F062FF6369F0EE480A00216E
:104334000344B0EE480A04F23C40636102F056FFC5
:10434400636984B00021034402A8636102F06AFA3D
:104354000E4B0146002204F1180002F037FD2046FE
:104364000437BD46BDEC048BBDE8F083A80D0020E6
:10437400BC0D00200000B4430000704302DF9DE345
:104384008E0A4C50B4B2696616AB79D0A5300000E1
:1043940070B50021054618461C4602F0EDFA114B93
:1043A40001462046C91AB1FA81F1490902F0E4FA3A
:1043B4000D4B98420AD00D4E234605F5CC71284684
:1043C40004960022BDE8704001F024BE084E234646
:1043D40005F5CE71284604960022BDE8704001F030
:1043E4005BBE00BF6E0ED60601BD647EA10900004F
:1043F400D5140000F8B500AF86B0022115466C460E
:1044040012680646204602F0F9F900232A4620469F
:10441400194602F0FFFAA388012B0CD94FF07E5302
:104424000125224606F5D27130462574636102F0F7
:10443400F1FEBD46F8BDFFF75FF800BF0021FFF7AE
:10444400D9BF00BF70B50021054618461C4602F0CE
:1044540093FA134B01462046C91AB1FA81F149096E
:1044640002F08AFAB0F17E5F04D0B0F1804F15D02B
:1044740050B170BD0B4E00222346284604961146C7
:10448400BDE8704001F0BEBB074E2346024601461C
:1044940004962846BDE8704001F0B4BB034EEAE739
:1044A4006E0ED6063D120000F511000085120000C4
:1044B4000021134600B583B00A460091FFF7C2FFFE
:1044C40003B05DF804FB00BF2DE9F04F83B0022177
:1044D4001546064602AF86B0126802AC204602F0CA
:1044E4008DF9A388D3B34FF001094FF07E524B45A9
:1044F40084F80890E26031D04FF000084FF0000BD0
:1045040006F5BC7A234684F810904246C4F814B0E9
:104514005146CDF80080304602F012FD86B02A687C
:10452400022102AC204602F069F9BDF80C30ABB1AF
:104534002A46494643462046CDF814B08DF81090DB
:1045440002F068FA2346424651463046CDF80080D0
:1045540002F0F6FC0437BD46BDE8F08FFEF7CCFF51
:104564000021FFF7B1BF00BFF0B583B001210546BC
:1045740002AF84B0126802AC204602F03FF9A3886F
:10458400C3B101260C490D4A2346E1602846314651
:1045940026720092002201F035FBDFF824C0234686
:1045A400002231462846CDF800C001F02BFB043729
:1045B400BD46F0BDFEF7A0FF0000DC42212500004F
:1045C4002D0F00000021FFF7CFBF00BF0021FFF730
:1045D400CBBF00BF0021FFF7C7BF00BFB0B582B09B
:1045E4000121054602AF84B0126802AC204602F0F5
:1045F40005F9A38873B10123074808490322E06041
:1046040028462372019105F5E671009401F098FAA9
:10461400BD46B0BDFEF770FF9A992141F11000002C
:104624000021FFF7DBBF00BFB0B582B00121054612
:1046340002AF84B0126802AC204602F0DFF8A3880F
:1046440073B10123074808490322E0602846237216
:10465400019105F5E671009401F072FABD46B0BD12
:10466400FEF74AFF3333A741F11000000021FFF7A2
:10467400DBBF00BFB0B582B00121054602AF84B0F4
:10468400126802AC204602F0B9F8A38873B1012382
:10469400074808490322E06028462372019105F582
:1046A400E671009401F04CFABD46B0BDFEF724FF5C
:1046B4000000B040F11000000021FFF7DBBF00BF95
:1046C400B0B582B00121054602AF84B0126802ACD5
:1046D400204602F093F8A38883B1E38802200A4AB3
:1046E4000A490B33E260002220722846E380234605
:1046F4000091114601F04CFDBD46B0BD044B942120
:10470400044A054811F004FCF40B0020392700008A
:10471400B01200204C13002078120020F0B583B0B2
:1047240002211546064602AF86B0126802AC204646
:1047340002F064F8A388B3B10C4801212A4600238F
:10474400E0602046217202F065F9094D00239FEDD7
:10475400090A032230461946CDE9004501F028FA3A
:104764000437BD46F0BDFEF7C7FE00BFE40FC940E5
:104774006D0F0000000000000021FFF7CFBF00BF55
:10478400B0B582B00121054602AF84B0126802AC14
:10479400204602F033F8A38883B1E38802200A4A52
:1047A4000A490B33E260002220722846E380234644
:1047B4000091114601F0ECFCBD46B0BD044B9421C0
:1047C400044A054811F0A4FBF40B00208D0F0000EF
:1047D400B01200204C130020781200202DE9F04183
:1047E40082B002211546064602AF86B0126802ACBA
:1047F400204602F003F8A388D3B14FF001084FF02C
:104804007E512A462046E1600023414684F8088010
:1048140002F000F90023074D42469FED070A304697
:104824001946CDE9004501F0C3F9BD46BDE8F08164
:10483400FEF762FEC50A0000000000000021FFF739
:10484400CDBF00BFB0B582B00121054602AF84B030
:10485400126802AC204601F0D1FFA38883B1E3883B
:1048640002200A4A0A490B33E260002220722846D9
:10487400E38023460091114601F08AFCBD46B0BD99
:10488400044B9421044A054811F042FBF40B002028
:10489400110B0000B01200204C13002078120020ED
:1048A4002DE9F04182B003211546064602AF88B0D7
:1048B400126802AC204601F0A1FFA3881BB3E38871
:1048C4004FF0020813492A4606332046E1600121CD
:1048D400E380002384F8088002F09CF8A388434511
:1048E40011D9E38830460C4A0C490533E2610022B1
:1048F400E380234684F818800091114601F048FCB7
:10490400BD46BDE8F081064B9421064A064811F0E5
:10491400FFFA00BFE40B0020EC0B0020451100005F
:10492400B01200204C130020781200200021FFF761
:10493400B7BF00BFB0B582B00121054602AF84B055
:10494400126802AC204601F059FFA38883B1E388C2
:1049540002200A4A0A490B33E260002220722846E8
:10496400E38023460091114601F012FCBD46B0BD20
:10497400044B9421044A054811F0CAFAF40B0020B0
:10498400390B0000B01200204C13002078120020D4
:104994002DE9F04182B003211546064602AF88B0E6
:1049A400126802AC204601F029FFA3881BB3E388F8
:1049B4004FF0020813492A4606332046E1600121DC
:1049C400E380002384F8088002F024F8A388434598
:1049D40011D9E38830460C4A0C490533E2610022C0
:1049E400E380234684F818800091114601F0D0FB3F
:1049F400BD46BDE8F081064B9421064A064811F0F5
:104A040087FA00BFE40B0020EC0B002089110000A2
:104A1400B01200204C130020781200200021FFF770
:104A2400B7BF00BFB0B582B00121054602AF84B064
:104A3400126802AC204601F0E1FEA38883B1E3884A
:104A440002200A4A0A490B33E260002220722846F7
:104A5400E38023460091114601F09AFBBD46B0BDA8
:104A6400044B9421044A054811F052FAF40B002037
:104A7400610B0000B01200204C13002078120020BB
:104A8400F0B583B002211546064602AF86B012681F
:104A940002AC204601F0B2FEA388C3B1E088022133
:104AA4000E4B2A4607300E4D21720121E36000238C
:104AB400E080204601F0AEFF2346002206F5327165
:104AC4003046009502F00CFC0437BD46F0BD054BA2
:104AD4009421054A054811F01BFA00BF000C002080
:104AE400812B0000B01200204C130020781200200B
:104AF4000021FFF7C5BF00BFF0B583B00121054613
:104B040002AF84B0126802AC204601F077FEA3889D
:104B140093B1E38802210B4A28460B4E07332172D6
:104B240005F53271E2600022E3802346009602F02C
:104B3400D7FB0437BD46F0BD044B9421044A054815
:104B440011F0E6F9080C0020812B0000B0120020BF
:104B54004C1300207812002010B5044682B0114690
:104B640000F52870019201F04BF9019A00212046CA
:104B740002B0BDE81040FFF7BFBF00BFF0B583B07F
:104B84000121054602AF84B0126802AC204601F050
:104B940035FEA38883B14FF07E520121074E234690
:104BA40021722846E26005F528710222009601F080
:104BB4009BF80437BD46F0BDFEF79EFC192B0000A0
:104BC40010B584B0002104460392FFF7D7FF0949CA
:104BD4002046039B0222009104F51F7101F084F822
:104BE400002205492046039B0091114601F00AF872
:104BF40004B010BDA113000031130000B0B582B0A1
:104C04000121054602AF84B0126802AC204601F0CF
:104C1400F5FDA38883B1E38802200A4A0A490B33CD
:104C2400E260002220722846E38023460091114668
:104C340001F0AEFABD46B0BD044B9421044A0548C8
:104C440011F066F9F40B0020B10B0000B012002043
:104C54004C13002078120020F0B583B002211546D1
:104C6400064602AF86B0126802AC204601F0C6FDCB
:104C7400A388C3B1E08802210E4B2A4607300E4DAB
:104C840021720121E3600023E080204601F0C2FE8E
:104C94002346002206F54B713046009502F020FBB6
:104CA4000437BD46F0BD054B9421054A054811F073
:104CB4002FF900BF000C0020592D0000B012002075
:104CC4004C130020781200200021FFF7C5BF00BF5D
:104CD400F0B583B00121054602AF84B0126802AC7E
:104CE400204601F08BFDA38893B1E38802210B4A8F
:104CF40028460B4E0733217205F54B71E260002202
:104D0400E3802346009602F0EBFA0437BD46F0BD7B
:104D1400044B9421044A054811F0FAF8080C0020C9
:104D2400592D0000B01200204C13002078120020EE
:104D340010B5044682B0114600F54170019201F0AD
:104D44005FF8019A0021204602B0BDE81040FFF749
:104D5400BFBF00BFF0B583B00121054602AF84B0E8
:104D6400126802AC204601F049FDA38883B14FF0DC
:104D74007E520121074E234621722846E26005F542
:104D840041710222009600F0AFFF0437BD46F0BD2A
:104D9400FEF7B2FBF12C000010B584B000210446EC
:104DA4000392FFF7D7FF09492046039B0222009193
:104DB40004F5387100F098FF002205492046039B52
:104DC4000091114600F01EFF04B010BDF513000061
:104DD4004D130000F0B583B002211546064602AF1C
:104DE40086B0126802AC204601F008FD00232A4672
:104DF4002046194601F00EFEA388012B0ED900228D
:104E0400074901202346616106F59C7120743046F0
:104E1400009202F095F80437BD46F0BDFEF76CFB36
:104E2400000020410021FFF7D5BF00BFF0B583B0DB
:104E340002211546064602AF86B0126802AC20462F
:104E440001F0DCFC00232A462046194601F0E2FD6D
:104E5400A388012B0ED90022074901202346616152
:104E640006F1F40120743046009202F069F8043728
:104E7400BD46F0BDFEF740FB000020410021FFF7D6
:104E8400D5BF00BFF0B583B00121054602AF84B0A1
:104E9400126802AC204601F0B1FCA3888BB1002358
:104EA400094A0121094EE2602846217215229FED2C
:104EB400080A1946CDE9004600F07AFE0437BD46DB
:104EC400F0BDFEF719FB00BF0000C84165140000E7
:104ED40000004842F0B583B00121054602AF84B01A
:104EE400126802AC204601F089FCA3888BB1002330
:104EF400094A0121094EE2602846217215229FEDDC
:104F0400080A1946CDE9004600F052FE0437BD46B2
:104F1400F0BDFEF7F1FA00BF0000C84149140000DB
:104F240000004842F0B583B00121054602AF84B0C9
:104F3400126802AC204601F061FCA3888BB1002307
:104F44000121094A2846094E21721946E2601522B8
:104F54009FED070ACDE9004600F02AFE0437BD465E
:104F6400F0BDFEF7C9FA00BF3333733F290C0000CC
:104F740077BE7F3FB0B582B00121054602AF84B051
:104F8400126802AC204601F039FCA38883B1E3889F
:104F940002200A4A0A490B33E260002220722846A2
:104FA400E38023460091114601F0F2F8BD46B0BDFE
:104FB400044B9421044A054810F0AAFFF40B002086
:104FC400A10C0000B01200204C1300207812002025
:104FD400F0B583B00121054602AF84B0126802AC7B
:104FE400204601F00BFCA38893B1E38802210B4A0D
:104FF40028460B4E0633217205F55B71E2600022F0
:10500400E3802346009600F06FFE0437BD46F0BDF2
:10501400044B9421044A054810F07AFFDC0B00206D
:105024002D330000B01200204C1300207812002011
:1050340070B50021054618461C4601F09DFC0F4B37
:1050440001462046C91AB1FA81F1490901F094FCDC
:1050540060B10B4B984209D00A4E002223462846E1
:1050640004961146BDE8704000F0CCBD22462846A7
:105074000021BDE87040FFF7ABBF00BF6E0ED6063F
:105084002D035B7AB9330000B0B582B00121054627
:1050940002AF84B0126802AC204601F0AFFBA388D3
:1050A40083B1E38802200A4A0A490B33E2600022F2
:1050B40020722846E38023460091114601F068F8E7
:1050C400BD46B0BD044B9421044A054810F020FFAE
:1050D400F40B0020ED0C0000B01200204C13002053
:1050E4007812002070B50446154682B000260021CF
:1050F400FFF798FC2A4620460021FFF77FFD2B4648
:105104003246314620460096FFF742F92A46314698
:105114002046FFF7D5FA354A2B4604F5EA712046B6
:105124000092324601F0B2F92A4631462046FFF792
:1051340027FB2F4A2B4604F5037120460092324682
:1051440001F0A4F92A4631462046FFF79BFE2A4681
:1051540031462046FFF7BEFE2A4631462046FFF779
:10516400E1FE2A4631462046FFF704FF214A2B463A
:1051740004F5647120460092324601F087F92A460C
:1051840031462046FFF780FF1B4A2B4604F5727117
:1051940020460092324601F079F9184A2B4604F56C
:1051A400D47120460092324601F070F9144A2B461D
:1051B40004F5117120460092324601F067F92A463F
:1051C40031462046FFF73EFB0E4A04F5187120468F
:1051D40000922B46324601F059F92A4631462046C0
:1051E40002B0BDE87040FFF7A5BB00BF4D0F000043
:1051F4007D0A0000CD0F00000D1000008132000078
:10520400ED280000DD290000F0B583B0012105463A
:1052140002AF84B0126802AC204601F0EFFAA38812
:1052240093B1E38802210B4A28460B4E06332172C0
:1052340005F56971E2600022E3802346009600F0E0
:1052440053FD0437BD46F0BD044B9421044A054880
:1052540010F05EFEDC0B0020A1350000B01200202F
:105264004C1300207812002070B500210546184622
:105274001C4601F081FB0F4B01462046C91AB1FAC6
:1052840081F1490901F078FB60B10B4B984209D0D8
:105294000A4E00222346284604961146BDE8704073
:1052A40000F0B0BC224628460021BDE87040FFF75C
:1052B400ABBF00BF6E0ED6062D035B7AED35000042
:1052C40000230F499FED0F0A70B5154682B01C46A6
:1052D400064601910C221946009500F069FC2B4604
:1052E4002246214630460094FFF7A2FE2B46224672
:1052F400214630460094FFF7B7FF02B070BD00BFEF
:10530400F50D00000000000070B5002105461846A8
:105314001C4601F031FB114B01462046C91AB1FA73
:1053240081F1490901F028FB0D4B98420AD00D4E3A
:10533400234605F57871284604960022BDE870409E
:1053440000F068BE084E234605F579712846049698
:105354000022BDE8704000F09FBE00BF6E0ED6066E
:1053640001BD647E390D0000F5140000F0B500F5B0
:105374005B7483B0054611462046164600F040FD96
:105384002146184A0024334628460092224600F05B
:10539400ABFC33462246214628460094FFF7B4FF6F
:1053A400114A334621462846009222460F4F00F008
:1053B40029FC0F4A3346214628460092224600F033
:1053C40021FC0C4A3346214628460092224600F02E
:1053D40019FC3346224621462846009700F012FC69
:1053E40003B0F0BD2D330000ED360000ED340000B5
:1053F4009936000035350000F0B5002183B005462C
:105404001646FFF7E5FD00221849334614462846A0
:10541400009105F55B7100F067FC33462246214696
:1054240028460094FFF770FF114A33462146284668
:10543400009222460F4F00F0E5FB0F4A3346214607
:1054440028460092224600F0DDFB0C4A33462146F2
:1054540028460092224600F0D5FB334622462146D8
:105464002846009700F0CEFB03B0F0BD2D330000BA
:10547400ED360000ED3400009936000035350000AB
:1054840070B50021054618461C4601F075FA114B0B
:1054940001462046C91AB1FA81F1490901F06CFAB2
:1054A4000D4B98420AD00D4E234605F57C712846D3
:1054B40004960022BDE8704000F0ACBD084E2346BF
:1054C40005F57D71284604960022BDE8704000F081
:1054D400E3BD00BF6E0ED60601BD647E5D0D000007
:1054E40015150000B0B582B00221054602AF86B0A2
:1054F400126802AC204601F081F9A38893B101211E
:1055040000228B422172E2600CD0074800222174F1
:105514002346606105F5B2712846009201F010FD42
:10552400BD46B0BDFDF7E8FF000020420021FFF7B3
:10553400D9BF00BFB0B582B00121054602AF84B027
:10554400126802AC204601F059F9A3886BB101201E
:1055540007490022234620722846E16005F5B2710E
:10556400009201F0EDFCBD46B0BDFDF7C5FF00BFE4
:10557400CDCCCC3D0021FFF7DDBF00BF70B50021CD
:10558400054618461C4601F0F7F9114B0146204622
:10559400C91AB1FA81F1490901F0EEF90D4B9842AB
:1055A4000AD00D4E234605F5806128460496002254
:1055B400BDE8704000F02EBD084E234605F20441BC
:1055C400284604960022BDE8704000F065BD00BF87
:1055D4006E0ED60601BD647E850D000035150000F3
:1055E40030B500F5697585B0044611462846039226
:1055F40000F006FC29460C4A0025039B2046009235
:105604002A4600F071FB039B2A4629462046009552
:10561400FFF736FF039B2A46294620460095FFF7ED
:10562400ADFF05B030BD00BFA135000030B585B079
:10563400002104460392FFF7E7FD00220C49039B77
:1056440020461546009104F5697100F04DFB039B5B
:105654002A46294620460095FFF712FF039B2A4657
:10566400294620460095FFF789FF05B030BD00BFED
:10567400A135000070B50021054618461C4601F00E
:105684007BF9114B01462046C91AB1FA81F1490947
:1056940001F072F90D4B98420AD00D4E234605F5E0
:1056A4008261284604960022BDE8704000F0B2BC36
:1056B400084E234605F21441284604960022BDE80C
:1056C400704000F0E9BC00BF6E0ED60601BD647EDA
:1056D400A90D0000551500000021134600B583B044
:1056E4000A460091FFF7C6FF03B05DF804FB00BF54
:1056F400B0B582B00121054602AF84B0126802AC95
:10570400204601F07BF8A38873B14FF07E5101204D
:105714000022234620722846E16005F1A40100928C
:1057240001F00EFCBD46B0BDFDF7E6FE0021FFF71B
:10573400DFBF00BFB0B582B00221054602AF86B01C
:10574400126802AC204601F059F8A38893B10121F4
:1057540000228B422172E2600CD00748002221749F
:105764002346606105F1A4012846009201F0E8FB9C
:10577400BD46B0BDFDF7C0FE0000A04170B50021DC
:10578400054618461C4601F0F7F80E4B0146204624
:10579400C91AB1FA81F1490901F0EEF8B0F17E5F5E
:1057A40006D0224628460021BDE87040FFF7C2BF5C
:1057B400054E00222346284604961146BDE8704053
:1057C40000F020BA6E0ED606ED3700000021134615
:1057D40000B583B00A460091FFF7D0FF03B05DF82F
:1057E40004FB00BFB0B582B00221054602AF86B00B
:1057F400126802AC204601F001F8A38893B101219C
:1058040000228B422172E2600CD0074800222174EE
:105814002346606105F1A4012846009201F090FB43
:10582400BD46B0BDFDF768FE0000A0420021FFF7B1
:10583400D9BF00BFB0B500AF86B0126802216C4674
:105844000546204600F0DAFFA288B2B1E3880220C0
:105854000E49012A03F105032072E160E38012D0AE
:105864004FF0010C0A4B22460021284684F810C050
:105874006361FEF7BFFDBD46B0BD064B9421064AE9
:10588400064810F045FBFDF737FE00BF100C002062
:105894000020F147B01200204C13002078120020A1
:1058A40030B5094B83B01546044600F5EA71009300
:1058B40000222B4600F0EAFD2A460021204603B0D0
:1058C400BDE83040FFF7B6BF4D0F0000F0EE407A60
:1058D40017281ED8DFE810F028012501220119013C
:1058E4000701F300D200C400B600A8009A008C009F
:1058F40081007600180069005D00510046003B00FD
:10590400380035002E002000B5EE400AF1EE10FA02
:1059140050D19FED870A7047B5EE400AF1EE10FAB8
:1059240004D1F5EE400AF1EE10FAF2D0B0EE670AB7
:105934000DF0AABBB5EEC00AF1EE10FAE9DD0EF0E7
:10594400EFB980FE600A704780FE200A7047B4EE0B
:10595400E00ADFED777AB7EE000AF1EE10FA20FEE6
:10596400270A7047B4EEE00ADFED717AB7EE000A59
:10597400F1EE10FA30FE270A7047B4EEE00ADFEDCC
:105984006C7AB7EE000AF1EE10FA88BFB0EE670A3F
:105994007047B4EEE00ADFED667AB7EE000AF1EE86
:1059A40010FA58BFB0EE670A7047B5EE400AF1EE40
:1059B40010FA04D1F5EE400AF1EE10FAA9D0B7EED0
:1059C400000A7047B4EE600A9FED590AF7EE007AB8
:1059D400F1EE10FA00FE270A7047B4EE600A9FED5C
:1059E400540AF7EE007AF1EE10FA07FE800A7047C7
:1059F400BDEEC00AFDEEE00A10EE103A10EE902A59
:105A0400134300EE103AB8EEC00A7047BDEEC00A68
:105A1400FDEEE00A10EE103A10EE902A534000EE2C
:105A2400103AB8EEC00A7047BDEEC00AFDEEE00AB7
:105A340010EE103A10EE902A134000EE103AB8EE31
:105A4400C00A7047BDEEC00AFDEEE00A10EE103A3F
:105A540010EE902A134100EE103AB8EEC00A7047D7
:105A6400BDEEC00AFDEEE00A10EE103A10EE902AE8
:105A7400934000EE103AB8EEC00A7047F5EE400AC3
:105A8400F1EE10FA3FF445AFFDEEC07A17EE903A0E
:105A9400FDEEE07A17EE902A93FBF2F102FB11334C
:105AA40007EE903AB8EEE70AB5EEC00AF1EE10FA46
:105AB4007FF531AFF0EEE00A30EE200A7047BDEE1C
:105AC400E07A17EE102A002A3FF423AFFDEEC07AE5
:105AD40017EE903A93FBF2F102FB113307EE903A82
:105AE400B8EEE70A7047BDEEE07A17EE103A002BE5
:105AF4003FF40FAFBDEEC00A10EE102A92FBF3F391
:105B040000EE103AB8EEC00A7047F5EE400AF1EE26
:105B140010FA3FF4FEAE87EEA00A704720EE200A8A
:105B2400704730EE600A704730EE200A704700BFBD
:105B3400000000000346002083ED000A704700BF08
:105B4400F8B500AFBC692BB1012B01D1A388F3B91F
:105B5400BD46F8BDA388002BFAD005461046227A2C
:105B6400012AF5D1012B19D184B0D1ED000A6E467A
:105B740094ED030AFFF7AAFE2168304600F048FEC0
:105B8400324600212846FB699847BD46F8BD237A72
:105B9400012BDDD1E3680B60BD46F8BD237C012BEE
:105BA400E2D1D4ED050A84B0C1ED000A6E46DFE708
:105BB400F8B500AFBD69AB880BB9BD46F8BD044666
:105BC40010462A7A012AF8D1012B12D184B06E46EC
:105BD400F0EE400A95ED030AFFF778FE2968304697
:105BE40000F016FE324600212046FB699847BD4668
:105BF400F8BD2B7C012BE9D184B095ED050A6E46E6
:105C0400E6E700BFF0B5012983B0054600AF05D033
:105C1400022922D091B10C37BD46F0BD9A88002AE2
:105C2400F9D01A7A012AF6D184B0196893ED030ADF
:105C34006A4610467A6000F0EBFD06E084B019680D
:105C44006A4610467A6000F0EDFD7A6800213B6AEE
:105C5400284698470C37BD46F0BD9A882AB31C7A6B
:105C6400012C15D0022C0ED0002CD4D184B019688C
:105C7400114A6E46304600F0E1FD32462146284680
:105C84003B6A9847C7E71A4600213B6A9847C2E730
:105C940084B01968094A6C46204600F0CFFD2246BC
:105CA400002128463B6A9847B5E7054B6421054A1D
:105CB400054810F02DF900BFF81C0020001D00203D
:105CC400B0120020E81900207812002010B50C460C
:105CD40000F08EFC2022002144F8040B204612F030
:105CE400A1FB002010BD00BF012A2DE9F047DDF81B
:105CF400209088461E4605D0022A144632D07AB136
:105D0400BDE8F0879B88002BFAD0337A012BF7D1BA
:105D140096ED030A00F06CFCC8F80000BDE8F087BB
:105D24000746314A2146184600F04EFE60B3454608
:105D340008F1200A55F8044F54B133682246002173
:105D440038462360C8474A462146384600F03CFCA2
:105D54005545EFD108F1040020220021BDE8F047A9
:105D640012F060BB9B88002BCAD0337A012BC7D1B9
:105D740096ED037ADFED1D7AC7FE877AFCEEE77AAB
:105D8400C1ED007ABDE8F0870146194A304600F0BB
:105D94001BFE60B1444608F1200554F8041F19B1F4
:105DA4004A46384600F010FCA542F6D1D2E73568E1
:105DB4004246D8F800302B44336052F8043F43B1D4
:105DC4000134082CF9D10B4B3D210B4A0B4810F040
:105DD4009FF808EB84044A4638463146FCF74AFDEE
:105DE400606035608CE700BF081D002000000000E3
:105DF400DC0B0020101D00206C1A00207C1D0020EC
:105E04000023024610B452F8044F8C4205D00133EB
:105E1400082BF8D15DF8044B704700EB8300002396
:105E24005DF8044B436070470EB470B583B0079CB3
:105E3400002C37D0651C0646ED00284610F0D0F83B
:105E4400306048B30022214600F0D8FC08AB002C97
:105E5400019315DD32684FF0000C0120918807335F
:105E6400614523F00703B3EC027BB7EEC77B0DD08B
:105E74000CF1010C107282ED037A08326445EED104
:105E8400284603B0BDE8704003B07047084B732147
:105E9400084A094810F03CF8084B1621084A0948FA
:105EA40010F036F8084B3A21084A034810F030F84D
:105EB400B0120020B01A002078120020B81D002073
:105EC400E01A0020D01D002048120020D01A002023
:105ED400006810F08DB800BF2DE9F04F0D6883B055
:105EE40014469A46DDF83090AA889B880190002CCD
:105EF40045D19A42A8BF1A46541EAAB30AEBC2055A
:105F04000E464FF00308043517E0023A012A0ED872
:105F140037682146504600F02FFDBA88A2425ADD68
:105F240007F1080303EB0B0203F80B805060013CFC
:105F3400083D631C17D0BAF80430A34245DD15F8B8
:105F4400042C4FEAC40B012ADFD1336829689888EE
:105F5400A04246DD0833013C083D03F80B205B44B6
:105F64005960631CE7D13568DAF800302A46019895
:105F740000212B604B4603B0BDE8F04F184723B314
:105F84009AF80830012B13D0023B012B0DD80021C5
:105F9400504600F0F1FCAB889C421CDA0835032221
:105FA40005EBC40305F83420586003B0BDE8F08F56
:105FB4009442DAF80C1014DA083505EBC40205F83B
:105FC4003430516003B0BDE8F08F094B6421094AB5
:105FD40009480FF09DFF064B8221084A06480FF03E
:105FE40097FF034B7321064A03480FF091FF00BF4C
:105FF400B0120020801A002078120020941900208A
:10600400B01A0020002903464FF0000008BF012108
:10601400196070472DE9F8430E4600AF99461446BF
:1060240032B1012A01D19B880BBBBD46BDE8F88380
:1060340005460968144884B06FF004020023A1FBEC
:106044000001E8460FF0E6FDD9F80010530A32606B
:10605400404600EE103ABAEEE40A00F0D9FB42469C
:10606400214628463B6A9847BD46BDE8F88399F81F
:106074000830012BD9D1D9ED037AFCEEE77AC1EDD2
:10608400007ABD46BDE8F883C160A810034600202D
:10609400C3E90012704700BF2DE9F043012A83B021
:1060A4000C4600AF06D0022A49D0DAB10C37BD46FF
:1060B400BDE8F0839A88002AF8D0197A0129F5D12D
:1060C400D3ED037A012AFDEEE77AC4ED007AEDD030
:1060D4001A7C012AEAD1D3ED057AFDEEE77AC4ED04
:1060E400017AE3E70A68054699888A4237DA6068E4
:1060F400891A002802DD8142A8BF014600293BD04D
:106104004A1C99466B46D600A3EBC20359F8082BE8
:106114009D46E846404600F071FB2168A6F108025E
:1061240008F1080009EBC1010BF0A4FBBB6A42466D
:106134000021284698470C37BD46BDE8F0839A886D
:10614400002AB3D01A7A012AB0D1D3ED037A0C37DE
:10615400FDEEE77AC1ED017ABD46BDE8F08384B077
:1061640019686A4610467A6000F05CFB7A6801217F
:106174002846BB6A984799E7024B3A21024A0348EA
:106184000FF0C6FE481200208C1A0020781200205E
:106194002DE9F04182B00546464A002100AF84B0A3
:1061A40018461C466E4600F00FFC98B1216828463C
:1061B400796000F0CBF97968B7EEC00B304600F097
:1061C40027FB3246002128463B6A98470837BD46DC
:1061D400BDE8F0810146384A204600F0F5FB68B17D
:1061E40021682846796000F0CBF900EE100A79683E
:1061F4003046B8EEC00A00F00BFBE2E701462F4A36
:10620400204600F0E1FB70B901462D4A204600F01B
:10621400DBFB70B12168304607EE901AB8EE670ACE
:1062240000F0F6FACDE721682846796000F0BAF963
:10623400DBE70146234A204600F0C6FB0028C5D010
:106244000121204600F098FB01462846FCF70AFB92
:1062540080460028BAD01C4A0221204600F0B4FB34
:1062640040B198ED010A30462168B8EE400A00F0CA
:10627400CFFAA6E7154A0221204600F0A5FB40B15B
:1062840098ED020A30462168B8EE400A00F0C0FAE0
:1062940097E70F4A0221204600F096FB002895D08C
:1062A40098ED040A30462168B8EE400A00F0B0FACE
:1062B40087E700BFF40B00200C1E0020201E0020E6
:1062C400341E0020E40B0020401E0020EC0B0020B4
:1062D400481E0020F0B583B01D46938800AF13B963
:1062E4000C37BD46F0BD137A1446012BF8D106468F
:1062F400D2ED037A1429F3D8DFE801F01B20252A14
:106304002F34393E43484D52575C5F67717F8D90FF
:106314000B00B8FE670A84B021686A4610467A60AA
:1063240000F076FA7A6800213046A8470C37BD465B
:10633400F0BDB0EE670A0CF07BFEECE7B0EE670A46
:106344000CF058FFE7E7B0EE670A0CF021FEE2E735
:10635400B0EE670A0CF048FEDDE7B0EE670A0CF019
:10636400B1FFD8E7B0EE670A0CF090FED3E7B0EEC9
:10637400670A0DF065FECEE7B0EE670A0CF0EAFEA0
:10638400C9E7B0EE670A0DF05FFFC4E7B0EE670A35
:106394000CF0B2FEBFE7B0EE670A0DF071F8BAE791
:1063A400B0EE670A0DF096F8B5E7B0EE670A0DF0A7
:1063B400DFFBB0E7B0EEE70AADE7F5EEC07AF1EE49
:1063C40010FA2EDC9FED1D0AA5E7F5EEC07AF1EE7A
:1063D40010FAF7DDB0EE670A0DF03CFC9BE7F5EE32
:1063E400C07AF1EE10FAEDDDB0EE670A0DF032FC82
:1063F400DFED137A20EE270A8DE7F5EEC07AF1EE91
:1064040010FADFDDB0EE670A0DF024FCDFED0D7A43
:1064140020EE270A7FE7BAFE670A7CE7BBFE670A1D
:1064240079E7F5EE407AF1EE10FA02D4B1EEE70A1C
:1064340071E7B0EE670A0CF0BBFE6CE700000000E9
:106444003BAAB83FD95BDE3E08B5034A6421034B3F
:1064540003480FF05DFD00BFF4190020B0120020C6
:10646400781200200346012200201A7083ED010AED
:10647400704700BF10B5032304460846237000F09C
:1064840077FF03460020636010BD00BFF0B583B002
:106494000D46144600AFA2B1012A0FD19A88002AF2
:1064A4004BD01A7A012A3AD0023A012A06D803229A
:1064B400002118462A7000F05FFA68600C37BD4668
:1064C400F0BD9A88002A38D01A7A012A2DD00646BF
:1064D40011D80A7884B0012A6C4630D0032AEDD151
:1064E4004A682046196800F0C3F922460021304664
:1064F4003B6A9847E2E7023A012ADFD803222146A1
:1065040018467B602A7000F037FA7B68844621467F
:106514001A4630463B6AC5F804C09847CEE70A706D
:106524000C37DB684B60BD46F0BD0A701A46DE6866
:1065340021463B6A6E609847C0E7FFF785FF91EDFF
:10654400010A2046196800F063F9CEE740B10268F9
:10655400074992698A4202D190ED020B70471047B5
:10656400044B8821044A054810B50FF0D1FC00BF44
:106574006D00000034070020CC220020842300207A
:1065840010B10368DB681847034B8D21034A0448A4
:1065940010B50FF0BDFC00BF3407002064220020BA
:1065A4008423002010B103681B691847034B922110
:1065B400034A044810B50FF0ABFC00BF34070020B9
:1065C400982200208423002010B103681B6E184712
:1065D400034BF521034A044810B50FF099FC00BFA2
:1065E40034070020F0210020842300200000000054
:1065F400C0B102681249526A8A4212D19FED117ADF
:1066040090ED026B87FE000AB7EEC07A9FED0A5B3D
:1066140027EE067B87EE056BFCEEC67B17EE900A31
:1066240070471047084B4FF48C71084A084810B55E
:106634000FF06EFCAFF300800000000000408F40BC
:10664400090200000000000034070020FC220020A2
:106654008423002038B505460C46084631B9296024
:10666400C5E90100C5E90344204638BD0FF0B8FC74
:10667400286038B10023C5E9010003602046C5E95C
:10668400034438BD024B3121024A03480FF040FC59
:10669400F82000209C1A00201421002000680FF02C
:1066A400A7BC00BF83681B685A1C02D10268136828
:1066B40082601846704700BF01F1080203699342E3
:1066C40070B4D0E9014508D3043121448D4201D886
:1066D400A5421AD8201D70BC7047C168914214D3DA
:1066E400A54294BF002301237BB906683244954236
:1066F4000ED3466001613360BFF35E8F00684FF0D4
:10670400FF330430236070BC7047002070BC7047B6
:106714001846F8E701F1080208B5036993420FD35C
:106724005B1A426801F1040C043B036102EB0C03A5
:106734004360002342F80C30BFF35E8F116008BD44
:10674400024B6B21024A03480FF0E2FB5021002068
:10675400001A002014210020806850F8043B0B60CC
:10676400704700BF08B583681A681AB1043213442D
:10677400836008BD024B7F21024A03480FF0C8FB27
:10678400D0200020A01900201421002008B5034ABD
:106794003A21034B03480FF0BBFB00BF5C1A0020F7
:1067A400481200207812002008B5034A6921034BDF
:1067B40003480FF0ADFB00BF401A0020B0120020C8
:1067C4007812002008B5034A6421034B03480FF0F4
:1067D4009FFB00BFF81A0020B0120020781200209E
:1067E40008B5034A9521034B03480FF091FB00BF02
:1067F400241B0020F42500207812002008B5026034
:10680400818019B10131C900C18008BDFFF7BEFF05
:10681400034A80ED030AC0E90012012202727047A4
:1068240001001000002210B4034C0272C260C0E9DF
:1068340000145DF8044B70470100100070B501238B
:10684400044601601046A380164612F019F9054665
:10685400022330461035E6602372ADB2E58012F0B3
:106864000FF90346204601331D44E58070BD00BF87
:1068740010B4044CC260C0E9001403215DF8044B59
:1068840001727047010010002DE9F04F838883B036
:106894000192002B5FD00133019AB2EBC30F4FEA90
:1068A400C30952D30F4680464A460146384607EB91
:1068B400090B0AF0DFFFB8F80420AAB30C25012461
:1068C40006E0944204F1010305F108052CDA1C46A4
:1068D40018F834A0BAF1020FF3D158F8051008469D
:1068E400009112F0CDF8461C019BB14400999945E2
:1068F4001FD83246584611F02DFE621EB9888A42CE
:106904001DDA584607F834A047F805B0B34412F02E
:10691400B7F8FB88B8F804200835013394421844CA
:1069240004F10103F880D2DBA7F8069003B0BDE8B8
:10693400F08F0A4B49210A4A0A480FF0E9FA0A4B38
:1069440094210A4A0A480FF0E3FA0A4B4021044A08
:1069540004480FF0DDFAFFF719FF00BFC02500203F
:10696400041B002088250020B0120020241B0020D6
:10697400781200207825002008B58388994214DA1B
:10698400083010F8313000EBC101032B13D8DFE8D5
:1069940003F004020702486808BD4FF0FF3008BD49
:1069A4004868BDE8084000F0E3BC044B9221044A67
:1069B40004480FF0ADFA002008BD00BFD825002020
:1069C4000C1A00208825002038B51546828891428B
:1069D4001EDA0346083313F8312003EBC103022AFD
:1069E4000ED0032A01D0002038BDFFF7C5FF0446AE
:1069F400284600F0BDFC201AB0FA80F0400938BDEA
:106A04002946586811F080FEB0FA80F0400938BD7C
:106A1400FFF7D8FE38B50D4691888B4246DA02F16D
:106A24000801044611F8330001EBC30103280ED812
:106A3400DFE800F01D02280EA3884A689D423FDA71
:106A44000834012104EBC50304F835105A6038BD3D
:106A540019461046FFF790FFA3889D4238DA0834A0
:106A6400032204EBC50304F83520586038BDA3881D
:106A74009D422BDA0834002304EBC50204F83530B8
:106A8400536038BDA38848689D4213DA80B104F18D
:106A94000803022103EBC50203F83510506011F01E
:106AA400EFFFE38801331844E08038BDFFF78AFE26
:106AB400FFF796FE094B9421094A0A480FF028FA79
:106AC400064B7321084A07480FF022FAFFF76CFEC1
:106AD400024B8221054A03480FF01AFAB012002033
:106AE400241B0020781200204C1A0020181B0020C0
:106AF40008B5034A3821034B03480FF009FA00BFD5
:106B0400181A0020C8230020DC23002038B50446CE
:106B14008D02284665600FF063FA206058B10023A7
:106B24002846C4E90233C4E90433C4E90633C4E99A
:106B34000833A36238BD034B5721034A03480FF0BF
:106B4400E7F900BFF8240020A81A0020DC23002065
:106B540070B504460025006804F120060FF048FAD9
:106B6400E068B8B1236901E0034610464268C0E911
:106B74000053002AF8D1E260C0E9002300E0436832
:106B840023610FF035FA20690028F8D10834B442A3
:106B9400E6D170BD20690028F1D10834B442DFD1B8
:106BA400F7E700BF38B50D4620220021EB88013BF2
:106BB400B3FA83F3C3F11B0323EAE37300EBC304C7
:106BC4009A40284611F02EFC206930B143682361B5
:106BD400E368C0E90053E06038BD08200FF000FA14
:106BE4000028F5D1FFF784FFCB88013BB3FA83F388
:106BF400C3F11B03032B2DE9F04F83B04BDC23EAD5
:106C0400E3724FF020088946824600EBC20508FA79
:106C140002F8EB681E46002B33D1D0E9012404F5B9
:106C2400007B5A453DD35C4518D2016809E05A6897
:106C34002A6144443246A345C3E900761E46EB600C
