:0200000460009A
:100000004643464200000156000000000103030081
:1000100000000000000000000000000000000000E0
:1000200000000000000000000000000000000000D0
:1000300000000000000000000000000000000000C0
:1000400000000000010408000000000000000000A3
:100050000000200000000000000000000000000080
:100060000000000000000000000000000000000090
:100070000000000000000000000000000000000080
:10008000EB04180A063204260000000000000000FD
:10009000050404240000000000000000000000002F
:1000A0000000000000000000000000000000000050
:1000B0000604000000000000000000000000000036
:1000C0000000000000000000000000000000000030
:1000D00020041808000000000000000000000000DC
:1000E0000000000000000000000000000000000010
:1000F0000000000000000000000000000000000000
:10010000D8041808000000000000000000000000F3
:100110000204180804200000000000000000000095
:1001200000000000000000000000000000000000CF
:10013000600400000000000000000000000000005B
:1001400000000000000000000000000000000000AF
:10015000000000000000000000000000000000009F
:10016000000000000000000000000000000000008F
:10017000000000000000000000000000000000007F
:10018000000000000000000000000000000000006F
:10019000000000000000000000000000000000005F
:1001A000000000000000000000000000000000004F
:1001B000000000000000000000000000000000003F
:1001C000000100000010000001000000000000001D
:1001D000000001000000000000000000000000001E
:1001E000000000000000000000000000000000000F
:1001F00000000000000000000000000000000000FF
:10020000FFFFFFFFFFFFFFFFFFFFFFFFFFFFFFFFFE
:10021000FFFFFFFFFFFFFFFFFFFFFFFFFFFFFFFFEE
:10100000D1002043491600600000000000000000ED
:10101000201000600010006000E801600000000087
:101020000000006000F4010000000000FFFFFFFF6F
:10103000FFFFFFFFFFFFFFFFFFFFFFFFFFFFFFFFC0
:10104000FFFFFFFFFFFFFFFFFFFFFFFFFFFFFFFFB0
:10105000FFFFFFFFFFFFFFFFFFFFFFFFFFFFFFFFA0
:10106000FFFFFFFFFFFFFFFFFFFFFFFFFFFFFFFF90
:10140000814205D051F8043B40F8043B8242F9D8B0
:10141000704700BF044A05494FF0000342F8043BFF
:101420009142FBD8704700BFC03A0020804E002098
:101430002DE98848BFF34F8F00BF00BF00BF00BF3A
:1014400000F07AFA674B0822C3F8542100BF00BFAE
:1014500000BF00BF00BF00BF00BF00BF00BF00BF94
:1014600000BF00BF00BF00BF00BF00BF5E4A5F49B2
:101470005F48FFF7C5FF5F4A5F496048FFF7C0FF5D
:101480005F4CFFF7C7FF4FF470004FF0E0210023DF
:101490005C4AC1F8880D44F823200133B02BFAD1FF
:1014A000594B8021594A03F8011B9342FBD14FF05D
:1014B000E0254C4E4FF08039DFF880B1DFF880A195
:1014C0004FF0FF31C5F8084D0027C6F80491C6F863
:1014D00000B1C6F8F490C6F8F0A0D5F8243DDFF8C6
:1014E000648143F4E0234A4AC5F8243DD8F81C300F
:1014F00023F07F0343F04003C8F81C30D8F82430B1
:1015000023F07F0343F04003C8F824309166D1668E
:101510001167516700F018FA3E4B3F49A3633F4BF8
:10152000E36363236B610323AF612B613C4BC5F81D
:10153000203DD5F8FC3D43F08073C5F8FC3D394BA8
:101540001A6842F001021A605B680B6000F084FACE
:10155000C6F804913448C6F800B1C6F8F490C6F84D
:10156000F0A000F019FCD8F86C10304B304A41F470
:101570004051C8F86C101F60C3F80871C3F81871A7
:10158000C3F82871C3F83871936BDB0708D442F6AF
:101590001563284951651365936B43F00103936309
:1015A000234A254C936843F00113936000F0B8FB85
:1015B00000F0EEFB00F07EFA00F0C0F92368132B78
:1015C000FCD900F00FFB2368B3F5967FFBD300F046
:1015D000B9F900F0B5F900F0E3FB00F0D1FB30BF42
:1015E000FDE700BF00800D40F88901004420006045
:1015F00000000000C03A002040AA01600000002066
:10160000003800203112010000E400E0A0E400E016
:1016100000C00A409D070100104E0020A1070100F4
:1016200000002020001000E00046C32300400840D6
:1016300000400D400000C056144E00201B10182022
:101640000C0D111300C00F40054B4FF42A01054A41
:1016500005485A641864054A99639546FFF7E8FE01
:1016600000C00A40FFAAAAAA070020000000062026
:101670001BB9124B1B6F9B041ED400F03F000F4B95
:1016800022F0604221F0604140F489101867C3F8ED
:101690008010C3F890201A6F22F480521A671A6FD4
:1016A000002AFCDAD3F87011054A0A40C3F8702109
:1016B0001A6F22F480321A67704700BF00800D4015
:1016C000FF7F7FFF43690A4A03EB011010B4037ADE
:1016D000084C02EB0313D3E901321460C2681A60AC
:1016E00003690BB142691A605DF8044B704700BF93
:1016F000441E002061F801004369027E03EB0212E0
:1017000092F808C08C451CD01A7AFF2A19D0914251
:1017100010B5044616D01A7EFF2A06D00121D3E95F
:10172000002312681A4201D1217610BD064B052212
:10173000204603EB0C135B681A60FFF7C3FF2176AA
:10174000F3E770470021EAE7441E002043690A4A94
:1017500003EB011010B490F82830084C02EB03138F
:10176000D3E901321460C26A1A60036B0BB1426B99
:101770001A605DF8044B7047441E002061F80100B8
:101780004369427E03EB021292F828C08C451ED0BA
:1017900093F82820FF2A1AD0914210B5044617D09A
:1017A00093F83820FF2A06D00121D3E900231268DC
:1017B0001A4201D1617610BD064B0522204603EB8B
:1017C0000C135B681A60FFF7C1FF6176F3E770479F
:1017D0000021EAE7441E0020164942698B6B23F47E
:1017E0007C0343F4802370B58B630446124DD2E929
:1017F00000130A681A4303690A60022200211A6171
:101800000E4A19619A6401225A629D624FF4303582
:10181000DD624FF001159E6C1E6519629D651A61AF
:10182000017EFFF74FFF617E2046BDE87040FFF765
:101830008DBF00BF00C00F40B80B05053B3728190E
:10184000B1F5607FF0B50E468DB028BF4FF46076DD
:101850000F46054672B62E4B0024702218602146B2
:101860002C4B2D481C8000F08FFACFB121462A481E
:101870004FF0010C4A0901F01F03013150F82240DA
:101880000CFA03F38E4243EA040340F82230F1D805
:10189000284600234380013300F582709E42F9D828
:1018A0001E4C257815B162B60DB0F0BD082000F0D1
:1018B0008BFA1B4B80220646009302A90693194B14
:1018C0000271056008A8029300F07AFA06A9164A88
:1018D000304600F06DFA069B08A8DB689847009B2D
:1018E00002A8DB6898472378002BDCD10F4B104A05
:1018F000C3F858210F49D0204FF0E023402281F84F
:101900004600C3F808210123237062B60DB0F0BD74
:1019100080480020384E0020884800204B4E002090
:1019200028190020F50101001B10010000380020DB
:101930000102010000E400E0704700BF704700BFF3
:10194000704700BF00BF704710B44FF0E023002184
:1019500010243148C3F8941DC3F89C4D1124C3F8DA
:10196000A00D2E48C3F89C4D1224C3F8A00D2C489E
:10197000C3F89C4D2B4AC3F8A00D2B4C42F0150226
:101980002A48C3F89C4DC3F8A00D294C2948C3F838
:101990009C4DC3F8A00D284CC3F89C2D2748284A1D
:1019A000C3F8A04DC3F89C0DC3F8A02D02F5A022EA
:1019B000244C0C322448C3F89C4DC3F8A02D234A74
:1019C000C3F89C0D224CC3F8A02D02F14062C3F86D
:1019D0009C4D2048C3F8A02D0C32C3F89C0DC3F8D1
:1019E000A02D00BF00BF00BF00BF00BF0122C3F891
:1019F000942DBFF34F8FBFF36F8FC3F8501FBFF30A
:101A00004F8FBFF36F8FD3F8142D5DF8044B42F462
:101A10004032C3F8142D70473F000010250008071E
:101A200009001000804E0020130020002100020752
:101A300014000020250008130900001016002020C3
:101A400027000B1317000040180000602F000B0741
:101A5000190000701A000080F0B4154A40274FF4B6
:101A600080314FF480564FF400554FF4404443F218
:101A70004200136913F0020F0ED113F4005F0FD070
:101A800013F4805F0ED0002BF3DA13F4803F0BD1F8
:101A90005B060BD5F0BC7047946151619061E8E73B
:101AA0005561E6E75661E4E79161E2E75761E0E7F7
:101AB00000800D403F4A03203F49F3EE095AD2F817
:101AC00080304FF0000C9FED3D6A23F001039FED45
:101AD0003C5A30B4C2F88030C2F89000D1F8E0101F
:101AE000384DCBB2384C39482B6007EE903A0B0D8D
:101AF000C1F30B21F8EEE77A06EE903A07EE101AE2
:101B0000334BB8EEC77A2160F8EEE66A314937EE1A
:101B1000C66A37EEC55A76EEC76A77EEE57A26EEE4
:101B2000266AC3ED006A25EE265AD2F8803067EEA9
:101B3000A64AC0ED007AC6EE275A274885EE276AE6
:101B4000C4EEA76A75EE875AFCEEE55A36EE076AD0
:101B500015EE904ABCEEC66A43EA045376EE877AE5
:101B6000C2F8803016EE103AD2F89041FCEEE77AD7
:101B700001EA0341214317EE903AC2F89011C3F3F2
:101B80000B03D2F890110B431449C2F89031D2F8EC
:101B9000803043F00203C2F88030114B80F840C01F
:101BA000C1F840314FF0E023012230BCC3F80821D6
:101BB000704700BF00810D4000441F400000AA4252
:101BC0000000B442004E0020FC4D0020044E0020D6
:101BD000084E00200000FF0F00E400E00038002065
:101BE0001D140100314B40F6617210B5C3F820217D
:101BF00040F2044400F0E0F82D4A2E49D2F880303B
:101C00002D4843F00303C2F880302C4BC1F86041EB
:101C100002681A4203D1D1F8A8319A071BD0254A8D
:101C20004FF00041244B5963D2F8403143F0020396
:101C3000C2F84031D2F840319B07FBD44FF400305A
:101C40004FF0E0211C4B4FF00042C1F88C021920EC
:101C50009A6300F0A9F8184A4FF08040154C002113
:101C600090630A20164B11604FF42072C4F8A8014B
:101C7000184600F089F84FF4800203464FF48100C3
:101C800040F243111860C4F858311A640D4B0E4AE3
:101C9000C4F84811C3F804224FF0E0224FF4003199
:101CA0000123C2F80C11C4F8403110BD00800D4072
:101CB00000C00F4000002E4000900D40001C1E0090
:101CC00000000020003800200516010008B50E4B6A
:101CD0001B6E9B0700D4FBBE72B60C4B00200C4A57
:101CE000C3F8400103F160430A49A3F55F2311647F
:101CF0009D46BFF34F8F4FF400130748074ADB6937
:101D000002609B68984700BF00441F4000002E40BF
:101D100000C00A400300200000802020000012EBD9
:101D2000104BA020104AD96E41F4403110B4D9664E
:101D300040F23764D96E41F44071D96654649064BE
:101D4000936C1B06FCD4094A40F23761A02351640E
:101D50009364936C13F08003FBD1054A13705DF814
:101D6000044B704700C00F4000400C4000800C4006
:101D7000514E0020F8B500BFF8BC08BC9E46704725
:101D80005FF800F0ED0E01005FF800F0AD7A0100A1
:101D90005FF800F0191101005FF800F0190A010066
:101DA0005FF800F02D7D01005FF800F0090D0100E3
:101DB0005FF800F0750801005FF800F0751D010084
:101DC0005FF800F0690201005FF800F031100100D7
:101DD00045000000BD6A0000A96B0000716C0000A6
:101DE000857100009D710000B5710000CD7100008B
:101DF000E5710000FD710000157200002D720000F9
:101E0000457200005D7200007572000019770000D5
:101E10003177000049770000617700007977000092
:101E200091770000A9770000C1770000F5770000E6
:101E3000257800003D780000557800006D7800009E
:0C1E400085780000398B00007909010052
:101E4C0080C00F40000000031900000010000000CB
:101E5C00E8841F4001000000FF000000FF000000AC
:101E6C00000000000000000018000000100000003E
:101E7C00E4841F4001000000FF000000FF00000090
:101E8C0000000000000000001F000000E90101003C
:101E9C0070C00F40000C0000110000001100000089
:101EAC00E0841F400200000024000000120000002B
:101EBC00E0841F4001000000100000001100000031
:101ECC00DC841F400200000025000000120000000E
:101EDC00DC841F40010000001E000000DD01010039
:101EEC0070C00F40C0000000120000001300000082
:101EFC00D0841F4001000000FF000000FF00000024
:101F0C00000000000000000013000000130000009F
:101F1C00CC841F4001000000FF000000FF00000007
:101F2C0000000000000000001C000000D1010100B6
:101F3C001603550053004200200053006500720048
:101F4C00690061006C000000180354006500650016
:101F5C006E00730079006400750069006E006F00FC
:101F6C000403090409026200030100C032080B00DB
:101F7C000202020100090400000102020100052412
:101F8C0000100105240101010424020605240600A9
:101F9C00010705820310001009040100020A000069
:101FAC0000070503024000000705840240000009F9
:101FBC0004020002FF6AFF000705810240000107CE
:101FCC00050102400001000009026200030100C08B
:101FDC0032080B0002020201000904000001020297
:101FEC00010005240010010524010101042402064E
:101FFC0005240600010705820310000509040100F1
:10200C00020A000000070503020002000705840213
:10201C000002000904020002FF6AC70007058102E2
:10202C000002010705010200020100000A0600027D
:08203C00EF0201400100000069
:10204400000000000000000000000000000000008C
:10205400000000000000000000000000000000007C
:102064000548064B1B1AD90F01EBA301491002D0F6
:10207400034B03B118477047C03A0020C03A002010
:102084000000000008B5054B1BB105490548AFF336
:102094000080BDE80840FFF7E3BF00BF0000000078
:1020A4006C4D002000F401604069704790ED020B14
:1020B400704700BF0069704707EE901A9FED065BFA
:1020C400B8EE677B90ED026B27EE057B87EE060B7F
:1020D400B7EEC00B704700BF0000000000408F4007
:1020E40081657047806D704701657047006D70476A
:1020F40041657047406D704708B50368D3F88C306C
:10210400984700B1006808BD08B50368D3F88C305F
:10211400984700B1406808BD0023BFF35B8F80F887
:102124008430704700000000B0B582B004460D460C
:10213400002100AF84B06A4610467A6005F006FFBD
:1021440023687A682946DB6C20469FED030B984789
:102154000837BD46B0BD00BF00000000000000000D
:10216400B0B582B004460D46002100AF84B06A4683
:1021740010467A6005F0E0FE23687A682946DB6C35
:1021840020469FED030B98470837BD46B0BD00BFFE
:102194000000000000000000F8B500AF8AB184B070
:1021A40004460D4600216E46304605F0DBFE2368EA
:1021B40032462946DB6C20469FED050B9847BD4609
:1021C400F8BD054B5321054A054815F005FA00BF33
:1021D400000000000000000000100020101000208B
:1021E400581000204FF001028430D0E84F3FC0E87F
:1021F400412F0029F9D1DBB2BFF35B8F002BF4D15F
:10220400704700BF4FF001028430D0E84F3FC0E870
:10221400412F0029F9D1D8B2BFF35B8F80F00100C0
:10222400704700BF183006F0C7B900BF036810B587
:10223400D3F88C301446984718B1214606F088FB31
:10224400012010BD00000000DFED0B7A90ED025B71
:1022540087FE800AB7EEC00A9FED056B20EE050BE2
:1022640080EE067BFCEEC77B17EE900A704700BF3A
:102274000000000000408F4000000000F8B5DE8838
:1022840000F170051C46174604362846314605F011
:10229400A7FD60B10146E288204641F8047B05F0C1
:1022A40087FE31462846BDE8F84005F0C7BD034B1C
:1022B4001E21034A034815F08FF900BF8007002050
:1022C4004C0800205810002010B50C1E82B00ADD06
:1022D4005C30019005F076FDA102019802B0BDE8E2
:1022E400104005F04BBD034BB921034A034815F0D8
:1022F40073F900BF881300209813002058100020A1
:1023040010B50C1E82B00ADD7030019005F05AFD44
:10231400A102019802B0BDE8104005F02FBD034BA7
:10232400BF21034A034815F057F900BFD413002016
:10233400E41300205810002008B5034AE221034B9F
:10234400034815F049F900BF440700203407002072
:102354005810002008B5034AEE21034B034815F03A
:102364003BF900BFA40800203407002058100020C7
:102374002DE9F04390461F46026D0E46294B00217D
:1023840083B09A42316046D1814600F1850C4FF00A
:10239400010EDCE84F4FCCE845EF002DF9D1E4B253
:1023A400BFF35B8F002CF4D109F17005284605F0CA
:1023B4000DFDA8B101A92846019405F061FDC0B145
:1023C400019A132A1BD997421FD301464046012480
:1023D40051F8043B336010F0B1FD284605F056FD7A
:1023E40000232046BFF35B8F89F8853003B0BDE836
:1023F400F0830D4BCF210D4A0D4815F0EDF80D4B30
:10240400D0210A4A0A4815F0E7F80B4BD121074AB4
:10241400074815F0E1F8094BC721044A044815F0B0
:10242400DBF800BF3D020000140F0020C40E0020A2
:1024340058100020580F0020800F00201C0E002090
:102444002DE9F84F2DED028B9FED338BB4EEC80BC5
:10245400F1EE10FA5ADB9046002A51D00368054683
:10246400314A0F469B6988FE008B046993423FD131
:1024740090ED020B9FED2A6B05F184034FF0010CE4
:1024840080EE067B27EE087BFCEEC77B17EE906A96
:102494002644D3E84F4FC3E84ECFBEF1000FF8D126
:1024A400E4B2BFF35B8F002CF3D1B8F806A005F1BA
:1024B4005C0B0AF1040A5846514605F091FC81462A
:1024C400C0B10146B8F80620404641F8047B05F047
:1024D4006FFD58465146C9F8046005F0AFFCBFF3E0
:1024E4005B8F85F884400120BDEC028BBDE8F88F3A
:1024F4009847BFE70D4B83210D4A0E4815F06CF841
:102504000D4B74210A4A0B4815F066F80B4B7321E6
:10251400074A084815F060F80000000000000000B9
:102524000000000000408F406D00000004110020F6
:10253400A410002058100020F41000209410002053
:102544002DE9F04F2DED068B9FED759B43EC182B79
:1025540085B0B4EEC98B00AFF1EE10FA3E6DC0F257
:10256400D680002E00F0CD8007F154028346304619
:102574000AEE101AFA6017F003FE8246002800F0F3
:10258400BA80C000DBF8102089FE089B0830ADEB50
:10259400000DDBF800008469E8466548844240F099
:1025A40087809BED020B29EE009B00245146404698
:1025B400013E4546A1469FED5C6B89EE067BBCEE71
:1025C400C77B17EE103A13441A4605F0ABFC16F815
:1025D400013F623B112B12D8DFE803F009111111FE
:1025E4005211411111111111111111111125B8F8C4
:1025F4000430A34267DD85F80890C5F80C900134D7
:102604000835A245E3DCDBF80040B0EE480B424657
:102614001AEE101A5846E36C98471437BD46BDECC1
:10262400068BBDE8F08FFB68B8F80420191D186804
:10263400A242F96041DD002857D04FF00203E86060
:10264400013408352B7017F09BFDB8F80630A2450D
:1026540003F101031844A8F80600B8DCD3E7FB68CB
:10266400B8F80420191D1B68A242F96037DD013453
:10267400EB604FF003030835A2452B70A7DCC2E7DB
:10268400FB68073323F0070393ED007B0833FB60FB
:10269400B7EEC77BB8F80430A3421ADD01344FF01B
:1026A400010385ED037A0835A2452B708FDCAAE778
:1026B4007A605846A0477A6875E71E4B94211E4AF3
:1026C4001E4814F089FF1B4B69211D4A1B4814F056
:1026D40083FF184B73211B4A184814F07DFF154BD8
:1026E4008221194A154814F077FF184B9521124A94
:1026F400124814F071FF164B3A21164A0F4814F091
:102704006BFF154B5C21154A154814F065FF154BFA
:102714005B21124A124814F05FFF00BFAFF3008040
:1027240000000000000000000000000000408F4096
:102734006D000000AC120020481300207412002029
:10274400CC120020F01200201C1300207C13002067
:10275400441200205412002030120020D81100200E
:102764005810002094100020B5EEC00B70B5F1EEA7
:1027740010FA1D46294B80ED020B036036DD00295B
:1027840046DD002A16463DDD002D35DB4FF0000303
:1027940004460361C0E915330CBF2B46204B1830A7
:1027A40083630023BFF35B8F80F86C30BFF35B8FD0
:1027B40080F86D30882340F8043C05F023FE6369FB
:1027C400B102034404F15C00636105F0D7FA636964
:1027D4000246A90204F170001344636105F0CEFAC5
:1027E4006369024620461344636170BD0D4B272183
:1027F4000D4A0E4814F0F0FE0D4B2A210A4A0B48EC
:1028040014F0EAFE0B4B2921074A084814F0E4FEB1
:10281400094B2821044A054814F0DEFE3416002032
:102824003D02000020140020341400205810002021
:10283400741400208813002068140020084B10B57D
:10284400044640F8183B05F0F5FD04F15C0005F082
:10285400B9FA04F1700005F0B5FA204610BD00BFC6
:102864003416002018B10368D3F88C30184710B51B
:10287400FFF762FD28B1944618301A46634605F006
:1028840039BE10B5FFF766FD00487047180C0020EC
:102894000020704702207047064B994207D0064B30
:1028A400994202D100F5447070470020704700F54A
:1028B4005D707047BDEFCD7C5791847F42B100239A
:1028C40000210448516011721060D3601361536198
:1028D40000207047340B0020704700BFB0B511468C
:1028E40000AF82B0056801EB83046A462D6CC2E92F
:1028F40000140021A847BD46B0BD00BF2DE9F84330
:1029040000AF2BB316466A4600211D46A2EBC30254
:102914004FEA850995460268E846546C4246A0474A
:10292400002308EB85041A46002D09DD08EB83011A
:1029340006EB820C51F804EBA1424CF808EBF9D1F8
:102944002B444C440AB90122EEE7BD46BDE8F883A6
:10295400034B40F6F711034A034814F03DFE00BF51
:102964004C0B0020580B0020A00B002010B5184B76
:10297400044600F50D70236004F040FE04F5217058
:1029840004F03CFE04F5227004F038FE04F54470B3
:1029940005F0DAFF04F55D7005F0D6FF04F234406B
:1029A40004F02CFE04F59F6004F028FE04F5B060EA
:1029B40004F024FE04F2CC5004F020FE04F26C6017
:1029C40004F01CFE2046FFF739FF204610BD00BF6F
:1029D4006815002010B50446FFF7C8FF4FF4D16115
:1029E400204610F047FB204610BD00BF10B511462D
:1029F40082B00023054CB0EE080A0222CDE900148F
:102A0400194604F047FC02B010BD00BFF1130000EA
:102A140010B5114682B00023054CB0EE000A022224
:102A2400CDE90014194604F035FC02B010BD00BF16
:102A3400FD13000010B5114682B00023054C9FED34
:102A4400060A0222CDE90014194604F023FC02B060
:102A540010BD00BF091400000000704210B51146FB
:102A640082B00023054C9FED060A0322CDE9001431
:102A7400194604F00FFC02B010BD00BF851400001D
:102A840000007A4410B5114682B00023054C9FED36
:102A9400060A0322CDE90014194604F0FBFB02B038
:102AA40010BD00BFC914000000007A4410B51146DF
:102AB40082B00023054C9FED060A0322CDE90014E1
:102AC400194604F0E7FB02B010BD00BF950A0000F0
:102AD40000007A4410B5114682B00023054C9FEDE6
:102AE400060A0222CDE90014194604F0D3FB02B011
:102AF40010BD00BF093800000000484210B511465F
:102B040082B00023054C9FED060A0322CDE9001490
:102B1400194604F0BFFB02B010BD00BFE50A000077
:102B240000007A4410B5114682B00023054C9FED95
:102B3400060A0222CDE90014194604F0ABFB02B0E8
:102B440010BD00BFE13900000000484210B5114635
:102B540082B00023054C9FED060A1422CDE900142F
:102B6400194604F097FB02B010BD00BF953B00006E
:102B74000000000010B5114682B00023054C9FED03
:102B8400060A1422CDE90014194604F083FB02B0AE
:102B940010BD00BF3D3B00000000000010B5114611
:102BA40082B00023054C9FED060A1422CDE90014DF
:102BB400194604F06FFB02B010BD00BFF511000010
:102BC4000000000010B5114682B00023054C9FEDB3
:102BD400060A0322CDE90014194604F05BFB02B097
:102BE40010BD00BF9515000000007A4410B51146D1
:102BF40082B00023054CB7EE000A1422CDE900147C
:102C0400194604F047FB02B010BD00BFED180000E8
:102C140010B5114682B00023054C9FED060A03222D
:102C2400CDE90014194604F035FB02B010BD00BF15
:102C3400D515000000007A4410B5114682B0002377
:102C4400054CB7EE000A1422CDE90014194604F02D
:102C540021FB02B010BD00BF0919000030B50023EC
:102C640083B014460B491A469FED0B0A019119468D
:102C74000094054604F00EFB0023084903229FED4F
:102C8400080A2846CDE90041194604F003FB03B0C5
:102C940030BD00BF1D11000000007042551100003E
:102CA4000000C84210B5114682B00023054C9FEDC8
:102CB400060A0222CDE90014194604F0EBFA02B028
:102CC40010BD00BF151400000000C84210B5114625
:102CD40082B00023054CB2EE000A0222CDE90014B2
:102CE400194604F0D7FA02B010BD00BF2114000049
:102CF40010B5114682B00023054CB2EE080A032237
:102D0400CDE90014194604F0C5FA02B010BD00BFA5
:102D1400F945000010B5114682B00023054C9FED23
:102D2400060A0222CDE90014194604F0B3FA02B0EF
:102D340010BD00BF051500000000DC4310B51146AE
:102D440082B00023054CBAEE040A1422CDE9001423
:102D5400194604F09FFA02B010BD00BF0D15000023
:102D640010B5114682B00023054CBAEE040A1422B1
:102D7400CDE90014194604F08DFA02B010BD00BF6D
:102D8400154A000010B5114682B00023054CB2EE7E
:102D9400040A1522CDE90014194604F07BFA02B0A6
:102DA40010BD00BFFD0C000010B5114682B0002319
:102DB400054CB2EE040A1522CDE90014194604F0BC
:102DC40069FA02B010BD00BF210D000010B5114614
:102DD40082B00023054C9FED060A0122CDE90014C0
:102DE400194604F057FA02B010BD00BFB10C000040
:102DF40000008A4210B5114682B00023054C9FEDB5
:102E0400060A1522CDE90014194604F043FA02B06B
:102E140010BD00BF5D0B000000007A4410B51146E0
:102E240082B00023054C9FED060A1522CDE900145B
:102E3400194604F02FFA02B010BD00BF0D0B0000BC
:102E440077BE7F3F10B5114682B00023054CB2EE29
:102E5400080A0322CDE90014194604F01BFA02B053
:102E640010BD00BF054B000010B5114682B0002311
:102E7400054C9FED060A0222CDE90014194604F020
:102E840009FA02B010BD00BF151500000000DC43B4
:102E940010B5114682B00023054CBAEE040A142280
:102EA400CDE90014194604F0F5F902B010BD00BFD5
:102EB4001D15000010B5114682B00023054CBAEE72
:102EC400040A1422CDE90014194604F0E3F902B00F
:102ED40010BD00BF2515000010B5114682B00023B7
:102EE400054CB2EE040A1522CDE90014194604F08B
:102EF400D1F902B010BD00BF510E000010B511464B
:102F040082B00023054CB2EE040A1522CDE9001468
:102F1400194604F0BFF902B010BD00BF750E0000E1
:102F240010B5114682B00023054CB2EE040A1522F6
:102F3400CDE90014194604F0ADF902B010BD00BF8C
:102F4400050F000010B5114682B00023054C9FED1B
:102F5400060A1422CDE90014194604F09BF902B0C4
:102F640010BD00BF2D1500000000000010B5114673
:102F740082B00023054C9FED060A0122CDE900141E
:102F8400194604F087F902B010BD00BF050E000019
:102F940000008A4210B5054C82B0134600F500715A
:102FA4000122009404F008FE02B010BDB53E0000FA
:102FB40010B5054C82B0134600F5FC710022009454
:102FC40004F0FAFD02B010BD0945000010B5054C2F
:102FD40082B0134600F284410022009404F0ECFD18
:102FE40002B010BD191E000030B50C4B83B014465E
:102FF40000F50371009300222346054604F0DCFD2E
:103004000023074903229FED070A2846CDE9004122
:10301400194604F03FF903B030BD00BF8D11000024
:10302400391100000000C84210B5054C82B01346A7
:1030340000F28C410022009404F0BEFD02B010BDE9
:10304400D11D000010B5054C82B0134600F2AC410E
:103054000022009404F0B0FD02B010BD2D13000056
:1030640010B5054C82B0134600F2A441002200942E
:1030740004F0A2FD02B010BD911D000010B5054C76
:1030840082B0134600F29C410022009404F094FDA7
:1030940002B010BDB11D000010B5054C82B013463E
:1030A40000F294410022009404F086FD02B010BDA9
:1030B4003516000010B5054C82B0134600F2FC41F1
:1030C4000022009404F078FD02B010BD71170000D6
:1030D40010B5054C82B0134600F20451002200944E
:1030E40004F06AFD02B010BD8D17000010B5054C48
:1030F40082B0134600F59E610022009404F05CFD4A
:1031040002B010BD5517000010B5054C82B013462F
:1031140000F5BC610022009404F04EFD02B010BD25
:10312400E117000010B5054C82B0134600F5BB61F1
:103134000022009404F040FD02B010BDC517000049
:1031440010B5054C82B0134600F5BA610022009414
:1031540004F032FD02B010BDA917000010B5054CF3
:1031640082B0134600F56B710022009404F024FD34
:1031740002B010BD2912000010B5054C82B01346F0
:1031840000F5B1610022009404F016FD02B010BDF8
:10319400B50D000010B5054C82B0134600F5B261C0
:1031A4000022009404F008FD02B010BDDD0D000003
:1031B40010B5054C82B0134600F5BA6101220094A3
:1031C40004F0FAFC02B010BDA917000030B5134694
:1031D40085B0002208490446084D00911146039326
:1031E40004F082F8039B002201212046009504F09C
:1031F4007BF805B030BD00BF611300008D0D0000E9
:1032040010B5134684B00022084904460393009184
:10321400114604F069F8002205492046039B0091F9
:10322400114604F061F804B010BD00BF9908000015
:103234002533000030B50A4985B013460446009191
:1032440000220121074D039304F04EF8039B002252
:1032540001212046009504F047F805B030BD00BFB9
:10326400E51600000117000030B5134685B00022B2
:1032740008490446084D00911146039304F034F8BC
:10328400039B002201212046009504F02DF805B08F
:1032940030BD00BFA91300002D0F000010B5134668
:1032A40084B000220849044603930091114604F0B7
:1032B4001BF8002205492046039B0091114604F0A7
:1032C40013F804B010BD00BF111D000051400000F0
:1032D40010B5134684B000220849044603930091B4
:1032E400114604F001F8002205492046039B009191
:1032F400114603F0F9FF04B010BD00BF59100000DF
:10330400591D000010B5134684B000220849044634
:1033140003930091114603F0E7FF0022054920467C
:10332400039B0091114603F0DFFF04B010BD00BF02
:103334003D100000751D000010B5134684B0002236
:103344000849044603930091114603F0CDFF00227F
:1033540005492046039B0091114603F0C5FF04B0C4
:1033640010BD00BF211000000510000030B50A494F
:1033740085B013460446009100220121074D0393B2
:1033840003F0B2FF039B002201212046009503F0C5
:10339400ABFF05B030BD00BFA945000055160000C5
:1033A40010B5134684B000220C49044603930091DF
:1033B400114603F099FF002209492046039B00911E
:1033C400114603F091FF002206492046039B009119
:1033D400114603F089FF04B010BD00BF7510000052
:1033E40091100000AD10000010B5134684B0002207
:1033F4000C49044603930091114603F075FF002223
:1034040009492046039B0091114603F06DFF0022F9
:1034140006492046039B0091114603F065FF04B062
:1034240010BD00BF01110000E5100000C91000002C
:10343400014B132104F0E4BA710F0000014B132176
:1034440004F0DEBA8D0F0000014B132104F0D8BA4A
:10345400A90F0000014B132104F0D2BA1D0C000087
:10346400014B132104F0CCBAE90F000001B17047FD
:1034740000F5187105F040BA01B1704700F51C71F0
:1034840005F03ABA01B1704700F51B7105F034BA82
:1034940030B5002383B0154609490446B7EE000A47
:1034A400019101221946009503F0F4FE2A4604F521
:1034B4002771204603B0BDE8304005F01DBA00BFB7
:1034C4008D14000000F5287105F016BA00F5297175
:1034D40005F012BA30B5002383B0154609490446F5
:1034E400B7EE000A019101221946009503F0D2FEBD
:1034F4002A4604F52E71204603B0BDE8304005F09D
:10350400FBB900BFD114000000F52F7105F0F4B928
:1035140000F5307105F0F0B901B1704700F58C6128
:1035240005F0EAB901B1704700F58E6105F0E4B920
:1035340001B1704700F26C4105F0DEB900F5976106
:1035440005F0DAB900F2CC4105F0D6B900F28451A5
:1035540005F0D2B900F5B56105F0CEB900F5CF613B
:1035640005F0CAB900F5CE6105F0C6B900F2746180
:1035740005F0C2B910B5064C82B0002300F51971EC
:10358400CDE90024022203F04DFE02B010BD00BFBD
:103594009116000010B5064C82B0012300F5197194
:1035A400CDE90024022203F03DFE02B010BD00BFAD
:1035B4009116000010B5064C82B0002300F57A7114
:1035C400CDE90024022203F02DFE02B010BD00BF9D
:1035D400AD0B000010B5064C82B0012300F57A71E2
:1035E400CDE90024022203F01DFE02B010BD00BF8D
:1035F400AD0B000010B5064C82B0002300F58461C9
:10360400CDE90024022203F00DFE02B010BD00BF7C
:10361400F90B000010B5064C82B0012300F584615B
:10362400CDE90024022203F0FDFD02B010BD00BF6D
:10363400F90B000010B5064C82B0002300F264417F
:10364400CDE90024022203F0EDFD02B010BD00BF5D
:103654003917000010B5064C82B0012300F2644112
:10366400CDE90024022203F0DDFD02B010BD00BF4D
:103674003917000010B5064C82B0012300F2B441A2
:10368400CDE90024032203F0CDFD02B010BD00BF3C
:10369400FD14000010B5064C82B0002300F2B441C2
:1036A400CDE90024032203F0BDFD02B010BD00BF2C
:1036B400FD14000010B5054C82B0134600F50D71E1
:1036C4000022009403F09EFF02B010BD15340000E8
:1036D40010B5054C82B0134600F50D71012200941B
:1036E40003F090FF02B010BD1534000010B5054C76
:1036F40082B0134600F522710022009403F082FF89
:1037040002B010BD1518000010B5054C82B0134668
:1037140000F521710022009403F074FF02B010BD83
:10372400FD17000010B5054C82B0134600F5227158
:103734000122009403F066FF02B010BD15180000CA
:1037440010B5054C82B0134600F521710122009496
:1037540003F058FF02B010BDFD17000010B5054C72
:1037640082B0134600F234410022009403F04AFF71
:1037740002B010BD4141000010B5054C82B01346A3
:1037840000F234410122009403F03CFF02B010BD6A
:103794004141000010B5054C82B0134600F59F610D
:1037A4000022009403F02EFF02B010BDB54A0000C1
:1037B40010B5054C82B0134600F59F6102220094B7
:1037C40003F020FF02B010BDB54A000010B5054C4F
:1037D40082B0134600F59F610122009403F012FFAA
:1037E40002B010BDB54A000010B5054C82B01346B6
:1037F40000F2CC510222009403F004FF02B010BD89
:10380400694F000010B5054C82B0134600F2CC514C
:103814000122009403F0F6FE02B010BD694F0000CF
:1038240010B5054C82B0134600F2CC51002200942E
:1038340003F0E8FE02B010BD694F000000B5134666
:1038440083B0002200F5A871009204F007FF03B0D2
:103854005DF804FB00B5134683B0002200F5CA717D
:10386400009204F0FBFE03B05DF804FB00B51346C0
:1038740083B0002200F1B001009204F0EFFE03B027
:103884005DF804FB00B5134683B0002200F5867191
:10389400009204F0E3FE03B05DF804FB30B5044687
:1038A40085B0114600F5AA60064D039203F01AFE96
:1038B400039B012204F5B0612046009503F0A2FEAB
:1038C40005B030BD2D18000030B5044685B0114652
:1038D40000F23C60064D039203F004FE039B0122B8
:1038E40004F26C612046009503F08CFE05B030BDF7
:1038F4004518000010B5054C82B0134600F531712F
:103904000022009403F062FD02B010BD951900007E
:1039140010B5054C82B0134600F54A71002200949C
:1039240003F054FD02B010BDE919000010B5054CB8
:1039340082B0134600F56D710222009403F046FD37
:1039440002B010BDF143000010B5054C82B013461F
:1039540000F57B710222009403F038FD02B010BD23
:10396400613F000010B5054C82B0134600F22C51A3
:103974000022009403F02AFD02B010BD9947000014
:1039840010B5054C82B0134600F5AA6100220094DC
:1039940003F01CFD02B010BD5D18000010B5054C0D
:1039A40082B0134600F5C3610022009403F00EFDBB
:1039B40002B010BDA54C000010B5054C82B01346F2
:1039C40000F23C610022009403F000FD02B010BD3F
:1039D4008918000030B500F5317585B004461146EC
:1039E4002846039203F07EFD0D4A039B04F53A71C9
:1039F40020460092002203F0E9FC0A4A039B294670
:103A0400204600920025002203F0E0FC039B0122E3
:103A140004F5EC712046009504F008FF05B030BDB4
:103A2400713800009519000030B500F54A7585B06D
:103A3400044611462846039203F054FD0D4A039BA5
:103A440004F5537120460092002203F0BFFC0A4A99
:103A5400039B2946204600920025002203F0B6FC71
:103A6400039B012204F5F0712046009504F0DEFE6C
:103A740005B030BD493A0000E919000010B5054C05
:103A840082B0134600F274510022009403F042FD08
:103A940002B010BD8D1C000010B5054C82B0134659
:103AA40000F5CC610022009403F034FD02B010BD97
:103AB400ED1C000008B5034A7321034B034813F0BF
:103AC4008BFD00BFF0120020AC1200207412002005
:103AD40001B17047F0B50A4B83B00C460646154653
:103AE4000093084F13460A46012103F0FDFB2B46C1
:103AF400224621463046009703F0F6FB03B0F0BDA2
:103B04004119000011480000012914D813460A493C
:103B1400002210B584B0044600911146039303F0CB
:103B2400E3FB00220549039B20460091114603F064
:103B3400DBFB04B010BD7047BD49000059490000CB
:103B440001B17047F0B50A4B83B00C4606461546E2
:103B54000093084F13460A46012103F0C5FB2B4688
:103B6400224621463046009703F0BEFB03B0F0BD69
:103B7400791900001D4D0000012914D813460A4983
:103B8400002210B584B0044600911146039303F05B
:103B9400ABFB00220549039B20460091114603F02C
:103BA400A3FB04B010BD7047C94E0000654E000071
:103BB40001B1704710B5054C82B0134600F506718B
:103BC4000122009403F0BCFD02B010BDAD09000059
:103BD40001B1704710B5054C82B0134600F50A7167
:103BE4000122009403F0ACFD02B010BDD109000025
:103BF40001B1704710B5054C82B0134600F51E7133
:103C04000122009403F09CFD02B010BDF5090000F0
:103C140001B1704710B5054C82B0134600F58561BB
:103C24000122009403F08CFD02B010BD650C00006D
:103C340001B1704710B5054C82B0134600F58F6191
:103C44000122009403F07CFD02B010BD8D0C000035
:103C540001B1704713460A4600F5947104F07CBD27
:103C640001B1704713460A4600F58E7104F074BD25
:103C740001B1704713460A4600F1CC0104F06CBD53
:103C840001B1704713460A4600F1C00104F064BD57
:103C940001B1704770B5154682B00A4A04462B46F6
:103CA40000F22C5100920122074E03F08FFB2B46A9
:103CB400012204F5AA612046009603F087FB02B0B6
:103CC40070BD00BF994700005D180000012900D0B5
:103CD400704710B5054C82B0134600F5AA61002266
:103CE400009403F073FB02B010BD00BF5D18000028
:103CF40001B1704770B5154682B00A4A04462B4696
:103D040000F5C36100920122074E03F05FFB2B46CE
:103D1400012204F23C612046009603F057FB02B0F6
:103D240070BD00BFA54C000089180000012900D017
:103D3400704710B5054C82B0134600F23C61002276
:103D4400009403F043FB02B010BD00BF89180000CB
:103D5400704700BF0B46114610B40B4CA34205D06C
:103D64000A4A934209D05DF8044B7047084B00227D
:103D740018305DF8044B04F0BDBB064B002218302C
:103D84005DF8044B04F0B6BB5BC65CCEBA77ABF708
:103D9400254200007111000010B5054C82B0134695
:103DA40000F2AC410022009403F006FF02B010BD03
:103DB4002D13000010B5054C82B0134600F2AC413F
:103DC4000022009403F0F8FE02B010BD2D13000091
:103DD40010B5064C82B0012300F2B441CDE90024B1
:103DE400032203F01FFA02B010BD00BFFD1400004F
:103DF40010B5064C82B0012300F2B441CDE9002491
:103E0400032203F00FFA02B010BD00BFFD1400003E
:103E140070B5002182B005461046144604F040F9FE
:103E24000B4B01462046C91AB1FA81F1490904F045
:103E340037F9B0F17E5F01D002B070BD0022054EAB
:103E4400234628461146009603F04EFA02B070BD90
:103E54006E0ED6065D12000070B5002182B00546D4
:103E64001046144604F01CF90B4B01462046C91AAF
:103E7400B1FA81F1490904F013F9B0F17E5F01D080
:103E840002B070BD0022054E234628461146009616
:103E940003F02AFA02B070BD6E0ED606C1110000FE
:103EA4002DE9F04F2DED0A8B8BB0DFF87C800446B2
:103EB4001746DFF878A000F15C06DFF874900793EA
:103EC4000AE0484505D1164B2A4604F1180004F0CF
:103ED40011FB304603F0DAFF304603F077FF48B3B6
:103EE400002509A93046099503F0CAFF099B01463C
:103EF400132B40F22284236851F8040BD3F890303A
:103F0400434508D15045DCD1064B2A4604F118003C
:103F140004F0F0FADDE70A46014620469847D8E760
:103F24007111000025420000151D00005BC65CCE27
:103F3400BA77ABF723680546224920469B6D98471C
:103F4400079B2669002B40F3F0833344A069B7EE46
:103F5400008A9FED1DAA009304F2CC43FFEE00AA51
:103F6400DFED1A9A039304F58E63F5EE008A9FED54
:103F7400189A069304F58C6304F2845B04F26C4A89
:103F8400059304F5B56304F5CF698046049304F5FD
:103F9400CE63019304F27463029340460136F0B198
:103FA40004F11808826813689E4217D9D0E90331D6
:103FB40020469847404604F0E7FAA0690028F1D16A
:103FC4000CE000BFEBC021DDDB0FC940ABAA2ABE69
:103FD4006257003C9A99193F3333333F8046039B21
:103FE400F0EE005AD4F8881093ED007ADBED007AF5
:103FF4004B0AD4ED246A67EE277A43F07E53D4F853
:10400400942067EEA67A06EE903A002A36EEC86A45
:10401400F0EE6A6AFDEEE77AE6EE256A17EE903A6C
:104024000B44C4F88830F0EEE66A66EE876AC0F2A4
:104034006383D4ED267AB0EE674AD4F8C0C0A6EE06
:10404400A77AD4ED2E4AB6EE005AD4ED2D7A4FEA73
:104054005C23D4ED276A013A77EEA47A43F07E53C9
:1040640076EE846A94ED2B6AD4F8CC10F1EE005A03
:10407400C4ED2D7A07EE903AC4ED266A27EE066A5F
:1040840077EEC87A4B0AC4F8942043F07E53D4F8F0
:10409400A42077EEC57AF0EEE77A77EEE87A67EE59
:1040A4008A7A67EEA76A26EEA77AE7EE297A27EEE0
:1040B400267AE7EE097A07EE103A530A37EE487A81
:1040C40043F07E5337EE457AB0EEC77A37EE687A1E
:1040D40027EE0A7A27EE075A65EE076AA6EEA97A52
:1040E40066EE856AA6EE897A37EE271A27EE277AD6
:1040F40007EE903A77EEC87A78EE676AC7FEE67AFA
:10410400F0EE6A6AE7EEA56AFDEEC67A17EE903A1B
:104114001344D4F8B020C6FEC86AC6FEAA6AC4F81E
:10412400A430013AD4F8C43066EEA86AC4F8B020CA
:104134006344C4F8C030D4F8D0300B44C4F8CC3055
:10414400D4F8D830002BC0F2D28294ED374AF0EE86
:1041540044BA029AF0EE487A9AED006A013BD2ED35
:10416400003AF6EE001A019AE6EE447A99ED005A06
:10417400B1EE003A92ED002A24EE044A069A94ED38
:10418400446A92ED00BA059A67EE877A94ED457A0F
:10419400D2ED004A049A36EE077AE1EE087AD4F8B2
:1041A4001CC1D2ED005AC4F8D830D4F8E83025EE5A
:1041B400855A84ED447A5A0AD4F82811E7EE8B4ADA
:1041C40094ED3C0A42F07E52D4F8F4E094ED3FCAF8
:1041D40006EE102A4FEA5C2225EE0C5AD4ED422A50
:1041E40036EE486A42F07E5264EE804AD4ED380AD4
:1041F40036EE616AFDEEE44A70EEAB0AB0EEC66AD2
:1042040014EE900AC4ED370A36EE686A18444FEA91
:104214005E23C4F8E80026EE0A6A43F07E5326EED5
:10422400067A67EE067AA7EEA96A67EE877AA7EEA2
:10423400896A07EE902A4A0A77EEC87A42F07E52DB
:1042440077EEE17AF0EEE77A77EEE87A67EE8A7A4B
:1042540027EEA71A21EE277AE7EE297A27EE017ACC
:10426400E7EE097A07EE102AD4F8002137EE487AEF
:1042740037EE617AB0EEC77A37EE687A27EE0A7ABB
:1042840027EE071A61EE071AA1EEA97A61EE811AE8
:10429400A1EE897A77EE271A27EE277A07EE903A6D
:1042A400530A77EEC87A43F07E53D2EE273A07EEEC
:1042B400903A77EEC87A78EE674AF0EEE33AC7FEB2
:1042C400E47AF0EE6A4AE3EEE55AE7EE834AFDEE5D
:1042D400C57A65EEA25A17EE903A7344C4FEC84AF2
:1042E400FDEEE57AC4FEAA4AC4F8F43064EEA84AA6
:1042F40017EE903AE4EE064A1344D4F80C21C4F8BD
:104304000031013AD4F82031C4F80C216344C4F8D4
:104314001C31D4F82C310B44C4F82831D4F834318E
:10432400002BC0F2DF81D4ED4E5AB0EE654AF0EEB8
:10433400487A94ED9B5AD4F84411013B94ED9C2A9D
:10434400B6EE003AE5EE657AC4F834314B0A94EDE2
:10435400986A25EEA55AD4ED4F5A43F07E53D4ED16
:10436400532A75EE845A5FEDE53AD4F8502167EE8E
:10437400877A1FEDE74AC4ED4E5A002AE1EE887AA7
:10438400A7EE826A07EE903A77EEC87A77EEC37AA0
:1043940026EE226AF0EEE77A77EEE87A67EE8A7A1A
:1043A40027EEA77A67EE275AE5EEA97A65EE875AD3
:1043B400E5EE897A25EE277AFDEEC67A27EE237A92
:1043C40017EE903A77EE244A0B44C4F84431E6EEF3
:1043D400844AC0F28281D4ED557AF0EE673AD4ED86
:1043E400565A013A94EDA86AD4F8603127EE866AE9
:1043F40094EDA95A75EEA37A9FEDD64AD4EDA75A47
:1044040086FE456A86FE046AC4ED557AD3ED047AC5
:10441400C4F85021F8EE677A77EEC87A77EEC67A58
:10442400BBFE675AB4EEC45AF1EE10FA40F14F8164
:10443400F4EE445AF1EE10FA00F0498175EE255A73
:10444400D4F864C1DCF80010BDEEE56A16EE103A4B
:104454005A1C00F16C81DCF80CC0944540F2678171
:1044640001EB8201002B4FEA820CD4F87421D1EDC8
:10447400005A1168C0F25B81D2689A4240F25781B7
:104484006144D4F8843177EEC57A11ED016A002BCA
:1044940075EEC65AA5EEA76AC0F23381D4ED625A0E
:1044A400B0EE655A013BD4ED637AF0EE643AC4F899
:1044B400843177EE857AD4F89431E6EE253A002BF0
:1044C400C4ED627AC0F22281D4ED667AB0EE673A26
:1044D40094ED675A013B94EDAF6AC4F8943127EE2A
:1044E400866AD4F8A43175EE037AD4EDB05A9FED00
:1044F400994A86FE656AD4EDAE5AC4ED667A86FEA4
:10450400046AD3ED047AF8EE677A77EEC87A77EE28
:10451400C67ABBFE675AB4EEC45AF1EE10FA40F103
:10452400D980F4EE445AF1EE10FA00F0D38075EE1F
:10453400255AD4F8A8C1DCF80010BDEEE56A16EEE1
:10454400103A5A1C00F1F380DCF80CC0944540F298
:10455400EE8001EB8201002B4FEA820CD4F8B821E3
:1045640091ED004A1168C0F2E280D2689A4240F2AA
:10457400DE806144D4F8C83177EEC57A11ED016A62
:10458400002B34EE464AA4EE276AC0F2C48094EDB0
:10459400735AF0EE455A013BD4ED747AC4F8C8312D
:1045A40077EEA57AF0EE635AD4E97632E5EE465A10
:1045B400C4ED737A511C9868814200F2C580186872
:1045C40000EB8202C2ED004AC4F8DC111961D4E99F
:1045D4007832511C9868814200F2B680186800EB6A
:1045E4008202C2ED005AC4F8E4111961D4F8E8312A
:1045F400002BC0F2958094ED7B3AB0EE431AD4EDD3
:104604007C7A013BF6EE003A9FED536A77EE817AAD
:10461400C4F8E83104F59763DFED500ADFED501A72
:10462400C4ED7B7AD3ED007A9FED4E2A63EE277AB0
:10463400DFED4D2A9FED475A9FED4C4A67EEA77A6E
:10464400DFED4B4A3B6867EE837A2B44BBFE671A67
:1046540077EEC17A77EEE37AF0EEE77A77EEE87AEE
:1046640067EE867A27EEA71A21EE276AE6EE607ACD
:1046740026EE016AE6EE217A67EE837AB0EE676A87
:1046840077EE877AA5EE826AE6EEA27A36EE077AAC
:10469400E5EEA37AA6EE847AF0EE456AE7EEA46A24
:1046A400F0EE457AE7EE247AC3ED006A7B682B448A
:1046B4000435C3ED007A009B9E427FF46EAC009BF0
:1046C400079823610BB0BDEC0A8BBDE8F08FF0EEC8
:1046D400445AB3E6F0EE445A29E7D4ED577AD4EDC0
:1046E400553A7CE6D4ED505A94ED4E4A1FE694EDCB
:1046F400394AD4ED37BA2CE5D4ED287A94ED264A1C
:104704009BE4D4ED645A94ED625ACBE6D4ED687A16
:1047140094ED663ADCE694ED755AD4ED735A3AE7B3
:1047240094ED7D3A94ED7B1A69E70096C7E7114B47
:104734004B21114A114812F04FFF114B40F6A201D0
:10474400104A114812F048FF104B2821104A114812
:1047540012F042FF00000000E40FC940C1AA2A3E43
:104764008380003C9A99193F3333333FCDCCCC3E00
:10477400CDCCCC3D580C0020980C0020CC0C002053
:10478400580F0020200C0020A00B0020080D002052
:10479400340D0020640D00202DE9F0432DED048B31
:1047A40085B00446B0EE409B9FEDCF8A04AFFDF781
:1047B400DBFF2046CD4BB0EE490B04F5447604F5FF
:1047C4005D7540F8883B4FF0000803F099FF63697A
:1047D400024604F194004FF000091344636103F0AE
:1047E40033FF6369B0EE490B034404F1A400636131
:1047F40003F086FF6369034404F1B000636103F0CE
:1048040023FF63690246B0EE480AB0EE491B04F187
:10481400C0001344636103F087FF6369B0EE491B72
:104824000344B0EE480A04F1CC00636103F07CFF5A
:104834006369034404F1D800636103F005FF63690D
:104844000246B0EE490B04F1E8001344636103F03F
:1048540057FF6369B0EE490B034404F1F40063614C
:1048640003F04EFF6369B0EE490B034404F5807016
:10487400636103F045FF6369034404F58670636173
:1048840003F0E2FE63690246B0EE480AB0EE491B4B
:1048940004F58E701344636103F046FF6369B0EE60
:1048A400491B0344B0EE480A04F59470636103F0B5
:1048B4003BFF6369034404F59A70636103F0C4FE2B
:1048C40063690246B0EE490B04F5A27013446361B8
:1048D40003F016FF6369024604F5A870134463618C
:1048E40003F0B2FE636931461844606104F5B070A8
:1048F40003F092FF6369314600221844606104F5B5
:10490400B27003F07DFF6369314600221844606190
:1049140004F5BA7003F074FF6369024604F5C270CB
:104924001344636103F090FE6369034404F5CA70A1
:10493400636103F089FE636929461844606104F5E4
:10494400D27003F069FF636929460022184460614C
:1049540004F5D47003F054FF636900222946184417
:10496400606104F5DC7003F04BFF6369034404F5F4
:10497400E470636103F068FE636931461844606162
:1049840004F5EC7003F04CFF636929461844606138
:1049940004F5F07003F044FF6369034404F5F47014
:1049A400636103F051FE63690246B0EE480A04F500
:1049B400FC701344636103F0EBF86369B7EE000A1B
:1049C400034404F50070636103F0E2F86369B0EE38
:1049D400480A034404F50370636103F0D9F863697A
:1049E40043491844606104F5067002F0A1FE63694E
:1049F400012218441146606104F5077002F0DCFEE0
:104A040063693C491844606104F50A7002F090FE41
:104A14006369012218441146606104F50B7002F0C9
:104A2400CBFE63694246022118444B46606104F59B
:104A34000D70CDE9008902F08DFD63690122042126
:104A44001844606104F50E7002F0B6FE6369012239
:104A540003211844606104F5107002F0ADFE63692F
:104A6400012202211844606104F5127002F0A4FED0
:104A74006369012218441146606104F5147002F060
:104A84009BFE6369012200211844606104F51670DD
:104A940002F092FE6369F0EE480A00211844B0EE79
:104AA400480A606104F5187003F020FF6369B0EEF2
:104AB400480A1844606104F5197002F0ADFB63699B
:104AC400F0EE480A00211844B0EE480A606104F58B
:104AD4001B7003F00BFF6369F0EE480A00211844D1
:104AE400B0EE480A08E000BF00000000681500208E
:104AF400F58F3097AD590C9D606104F51C7003F07F
:104B0400F5FE6369CF491844606104F51E7002F034
:104B14000FFE6369012218441146606104F51F7099
:104B240002F04AFE42460221CDE900896369184435
:104B34004B46606104F5217002F00CFD42460221EF
:104B4400CDE90089636918444B46606104F522701D
:104B540002F000FD6369BC491844606104F52370E8
:104B640003F01EF86369F0EE480A00211844B0EE21
:104B7400480A606104F5277003F0B8FE6369F0EE3B
:104B8400480A00211844B0EE480A606104F5287010
:104B940003F0ACFE6369F0EE480A00211844B0EE5D
:104BA400480A606104F5297003F0A0FE6369A7490F
:104BB4001844606104F52A7002F0F2FF6369F0EEB4
:104BC400480A00211844B0EE480A606104F52E70CA
:104BD40003F08CFE6369F0EE480A00211844B0EE3D
:104BE400480A606104F52F7003F080FE6369F0EEFB
:104BF400480A00211844B0EE480A606104F5307098
:104C040003F074FE6369B0EE480A04F53171184488
:104C14006061204602F0CCFB6369B0EE480A04F5FB
:104C24003A7118446061204602F0C2FB636902468F
:104C34004FF4807130461344636103F067FE636987
:104C4400B0EE480A04F54A7118446061204602F047
:104C5400AFFB6369B0EE480A04F553711844606110
:104C6400204602F0A5FB636902464FF48071284692
:104C74001344636103F04AFE6369B0EE480A0344D7
:104C840004F56B70636102F083FF636904F56D7171
:104C9400B0EE480A18446061204602F089FB63695B
:104CA4009FED6B0A034404F57670636102F070FFB4
:104CB4006369B0EE480A034404F57A70636102F054
:104CC400ABFA636904F57B71B0EE480A184460617D
:104CD400204602F06DFB63699FED5E0A034404F510
:104CE4008260636102F054FF6369B0EE480A0344D2
:104CF40004F58460636102F08FFA636956491844CD
:104D0400606104F5856002F013FD636901221844B3
:104D14001146606104F22C4002F04EFD6369424684
:104D2400022118444B46CDE90089606104F2344005
:104D340002F010FC6369012204211844606104F547
:104D4400876002F039FD6369012203211844606120
:104D540004F5886002F030FD6369012202211844E1
:104D6400606104F5896002F027FD6369012218443B
:104D74001146606104F58A6002F01EFD6369012238
:104D840000211844606104F58B6002F015FD63692D
:104D9400F0EE480A00211844B0EE480A606104F5B8
:104DA4008C6003F0A3FD6369B0EE480A034404F287
:104DB4006440636102F030FA6369F0EE480A00214E
:104DC4001844B0EE480A606104F26C4003F08EFDB2
:104DD4006369F0EE480A00211844B0EE480A6061A5
:104DE40004F58E6003F082FD63691C491844606118
:104DF40004F58F6002F09CFC63690122184411469B
:104E0400606104F27C4002F0D7FC6369B0EE480AAA
:104E1400034404F28440636102F0BAFE6369B0EEB5
:104E2400480A034404F28C40636102F0B1FE6369F2
:104E3400B3EE090A034404F29440636102F0A8FE4D
:104E44001CE000BFB7FA4D38A40D0020B80D0020B7
:104E5400000070430000F0435EA75FBBD0462EC93C
:104E640000000042000070420000164300005C4352
:104E7400000048420000FA430000DC4263691FED71
:104E8400080A034404F29C40636102F081FE6369F2
:104E9400B3EE020A034404F2A440636102F078FE14
:104EA40063691FED0B0A034404F2AC40636102F032
:104EB4006FFE6369B3EE0D0A034404F2B440636108
:104EC40002F0AAF96369F0EE480A00211844B0EE32
:104ED400480A606104F5976003F008FD6369B7EE62
:104EE400000A034404F59960636102F095F963696B
:104EF400F0EE480A00211844B0EE480A606104F25A
:104F0400CC4003F0F3FC6369B1EE000A034404F5FA
:104F14009C60636102F03CFE63691FED2E0A03444A
:104F240004F59D60636102F033FE63691FED320A8C
:104F3400034404F59E60636102F02AFE63694246FD
:104F4400032118444B46CDE90289CDE9008960610B
:104F540004F59F6002F0FEFA63691FED3A0A034408
:104F640004F2FC40636102F013FE6369B1EE080AC7
:104F7400034404F20450636102F00AFE63690122EF
:104F840002211844606104F20C5002F015FC6369BC
:104F9400012218441146606104F2145002F00CFC22
:104FA4006369012200211844606104F21C5002F07C
:104FB40003FC63694FF0FF3201211844606104F27D
:104FC400245002F0F9FB6369B0EE480A04F22C5154
:104FD40018446061204602F0EBF96369B0EE480AB8
:104FE40004F5AA6118446061204602F0E1F963699E
:104FF40000211844606104F2745002F087FA636976
:105004004FF0FF3201211844606104F5AF6002F0F3
:10501400D3FB63694246022118444B46CDE900891B
:10502400606104F5B06002F095FA6369F0EE480A35
:1050340000211844B7EE000A606104F2845003F0C2
:1050440055FC6369B0EE480A034404F5B16063613A
:1050540002F09EFD6369B0EE480A034404F5B260B1
:10506400636102F095FD6369B7EE000A034404F23C
:10507400A450636102F0D0F86369F0EE480A00219D
:105084001844B0EE480A606104F5B56003F02EFCE4
:1050940063691FED8A0A034404F2BC50636102F0A1
:1050A40077FD6369B1EE080A034404F2C4506361F6
:1050B40002F06EFD63694246032118444B46CDE974
:1050C4000289CDE90089606104F2CC5002F042FA11
:1050D4006369B3EE0E0A034404F5BA60636102F037
:1050E40057FD63691FED9E0A034404F5BB606361C9
:1050F40002F04EFD63691FEDA10A034404F5BC6090
:10510400636102F045FD63691FEDA50A034404F5DC
:10511400BD60636102F03CFD636901220221184411
:10512400606104F5BF6002F047FB63690122184423
:105134001146606104F5C06002F03EFB6369012220
:1051440000211844606104F5C16002F035FB636915
:105154004FF0FF3201211844606104F5C26002F08F
:105164002BFB6369B0EE480A04F5C361184460611F
:10517400204602F01DF96369B0EE480A04F23C616E
:1051840018446061204602F013F963690021184451
:10519400606104F5CC6002F0B9F963694FF0FF3245
:1051A40001211844606104F2646002F005FB616946
:1051B40042464B4608440221CDE90089606104F26D
:1051C4006C6002F0C7F96369F0EE480A00210344F9
:1051D400B0EE000A04F5CE60636103F087FB6369F7
:1051E400F0EE480A00210344B7EE000A04F27460AA
:1051F400636103F07BFB6369B7EE000A002103449B
:10520400F0EE480A04F5CF60636103F06FFB636955
:1052140084B00021034404A8636102F097FE074BA5
:105224000146002204F1180003F064F92046043713
:10523400BD46BDEC048BBDE8F08300BF25420000F1
:1052440070B50021054618461C4602F029FF114B93
:1052540001462046C91AB1FA81F1490902F020FF3A
:105264000D4B98420AD00D4E234605F5067128468B
:1052740004960022BDE8704002F062BA084E23464C
:1052840005F50771284604960022BDE8704002F037
:1052940099BA00BF6E0ED60601BD647EAD0900004A
:1052A400711B000070B50021054618461C4602F02B
:1052B400F7FE114B01462046C91AB1FA81F149099A
:1052C40002F0EEFE0D4B98420AD00D4E234605F532
:1052D4000A71284604960022BDE8704002F030BAF4
:1052E400084E234605F50B71284604960022BDE8B6
:1052F400704002F067BA00BF6E0ED60601BD647E30
:10530400D1090000911B0000F0B583B001210546CE
:1053140002AF84B0126802AC204602F003FEA388F8
:10532400CBB101264FF07E510C4A2346E16028465A
:10533400314626720092002201F0D6FFDFF820C029
:105344002346002231462846CDF800C001F0CCFFA8
:105354000437BD46F0BDFEF7ADFB00BF35150000B8
:10536400751600000021FFF7CFBF00BFF0B583B072
:105374000121054602AF84B0126802AC204602F057
:10538400D1FDA3888BB100230121094A2846094E87
:1053940021721946E26002229FED070ACDE9004618
:1053A40001F078FF0437BD46F0BDFEF783FB00BF74
:1053B400CDCCCC3D55150000000016442DE9F04F2E
:1053C40083B002211446064602AF86B0126802ADCD
:1053D400284602F0A7FD002322462846194602F07B
:1053E400ADFEAB88012B33D94FF000084FF0010913
:1053F4004FF0000B06F59A7A2B4685F81090C5F805
:1054040014B04246CDF800805146304603F026F9E8
:1054140086B02268022102AD284602F083FDBDF861
:105424000C30ABB122464B4649462846CDF814B061
:105434008DF8109002F082FE2B46424651463046CB
:10544400CDF8008003F00AF90437BD46BDE8F08FBB
:10545400FEF730FB0021FFF7B1BF00BFF0B583B00A
:105464000521054602AF8CB0126802AC204602F05A
:1054740059FDA388002B49D0012225499342227269
:10548400E16043D02349022B227461613ED022495A
:10549400032B2276E16139D02049042B84F82020A3
:1054A400616233D01E4923461E4884F82820002216
:1054B400E16205F50E710090284602F083F91A485E
:1054C400234605F51071009000222846174E02F07D
:1054D40079F91748234605F51271009000222846F1
:1054E40002F070F91348234605F514710090002268
:1054F400284602F067F92346002205F5167128466E
:10550400009602F05FF90437BD46F0BDFEF7D2FA0B
:10551400FC013B44AEE77F44AE62313E0010F644EA
:105524005CAF10462D14000039140000211C00004B
:1055340045140000111C000070B5002105461846F2
:105544001C4602F0ADFD114B01462046C91AB1FAC2
:1055540081F1490902F0A4FD0D4B98420AD00D4E89
:10556400234605F51E71284604960022BDE87040C6
:1055740002F0E6B8084E234605F51F712846049646
:105584000022BDE8704002F01DB900BF6E0ED606C1
:1055940001BD647EF5090000B11B0000B0B582B006
:1055A4000121054602AF84B0126802AC204602F025
:1055B400B9FCA38883B1E38802200A4A0A490B3361
:1055C400E260002220722846E380234600911146BF
:1055D40002F074F9BD46B0BD044B9421044A054859
:1055E40011F0FAFFDC0B00201D0A0000AC120020B1
:1055F40048130020741200202DE9F04182B00321E9
:105604001546064602AF88B0126802AC204602F086
:1056140089FCA3881BB3E3884FF0020813492A4688
:1056240006332046E1600121E380002384F80880EA
:1056340002F084FDA388434511D9E38830460C4A1F
:105644000C490533E2610022E380234684F8188084
:105654000091114602F032F9BD46BDE8F081064BD7
:105664009421064A064811F0B7FF00BF080C002039
:10567400100C002051140000AC120020481300202C
:10568400741200200021FFF7B7BF00BFB0B582B08D
:105694000121054602AF84B0126802AC204602F034
:1056A40041FCA38883B1E38802200A4A0A490B33E8
:1056B400E260002220722846E380234600911146CE
:1056C40002F0FCF8BD46B0BD044B9421044A0548E1
:1056D40011F082FFDC0B0020450A0000AC12002010
:1056E40048130020741200202DE9F04182B00321F8
:1056F4001546064602AF88B0126802AC204602F096
:1057040011FCA3881BB3E3884FF0020813492A460F
:1057140006332046E1600121E380002384F80880F9
:1057240002F00CFDA388434511D9E38830460C4AA6
:105734000C490533E2610022E380234684F8188093
:105744000091114602F0BAF8BD46BDE8F081064B5F
:105754009421064A064811F03FFF00BF080C0020C0
:10576400100C002095140000AC12002048130020F7
:10577400741200200021FFF7B7BF00BFB0B582B09C
:105784000121054602AF84B0126802AC204602F043
:10579400C9FBA38883B1E38802200A4A0A490B3370
:1057A400E260002220722846E380234600911146DD
:1057B40002F084F8BD46B0BD044B9421044A054868
:1057C40011F00AFFDC0B00206D0A0000AC1200206F
:1057D4004813002074120020F0B583B0022115464E
:1057E400064602AF86B0126802AC204602F09AFB6D
:1057F400A388C3B1E08802210E4B2A4607300E4D20
:1058040021720121E3600023E080204602F096FC2F
:105814002346002206F544713046009503F0CEF885
:105824000437BD46F0BD054B9421054A054811F0E7
:10583400D3FE00BFE80B0020D9380000AC120020D2
:1058440048130020741200200021FFF7C5BF00BFD9
:10585400F0B583B00121054602AF84B0126802ACF2
:10586400204602F05FFBA38893B1E38802210B4A30
:1058740028460B4E0733217205F54471E26000227D
:10588400E3802346009603F099F80437BD46F0BD43
:10589400044B9421044A054811F09EFE000C00209C
:1058A400D9380000AC1200204813002074120020E4
:1058B40010B5044682B0114600F53A70019201F029
:1058C40011FE019A0021204602B0BDE81040FFF706
:1058D400BFBF00BFF0B583B00121054602AF84B05D
:1058E400126802AC204602F01DFBA38883B14FF07E
:1058F4007E520121074E234621722846E26005F5B7
:105904003A710222009601F061FD0437BD46F0BDF4
:10591400FEF7D0F87138000010B584B000210446B9
:105924000392FFF7D7FF09492046039B0222009107
:1059340004F5317101F04AFD002205492046039B1C
:105944000091114601F0D0FC04B010BD951900007F
:10595400B5180000B0B582B00121054602AF84B08D
:10596400126802AC204602F0DDFAA38883B1E38812
:1059740002200A4A0A490B33E260002220722846B8
:10598400E38023460091114601F098FFBD46B0BD67
:10599400044B9421044A054811F01EFEDC0B002040
:1059A400BD0A0000AC12002048130020741200202D
:1059B400F0B583B002211546064602AF86B01268E0
:1059C40002AC204602F0AEFAA388C3B1E0880221FB
:1059D4000E4B2A4607300E4D21720121E36000234D
:1059E400E080204602F0AAFB2346002206F55D7102
:1059F4003046009502F0E2FF0437BD46F0BD054B8A
:105A04009421054A054811F0E7FD00BFE80B00208A
:105A1400B13A0000AC120020481300207412002098
:105A24000021FFF7C5BF00BFF0B583B001210546D3
:105A340002AF84B0126802AC204602F073FAA38865
:105A440093B1E38802210B4A28460B4E0733217297
:105A540005F55D71E2600022E3802346009602F0C2
:105A6400ADFF0437BD46F0BD044B9421044A0548FC
:105A740011F0B2FD000C0020B13A0000AC1200207D
:105A8400481300207412002010B5044682B0114659
:105A940000F55370019201F025FD019A0021204682
:105AA40002B0BDE81040FFF7BFBF00BFF0B583B040
:105AB4000121054602AF84B0126802AC204602F010
:105AC40031FAA38883B14FF07E520121074E234659
:105AD40021722846E26005F553710222009601F016
:105AE40075FC0437BD46F0BDFDF7E4FF493A0000FC
:105AF40010B584B0002104460392FFF7D7FF09498B
:105B04002046039B0222009104F54A7101F05EFCD9
:105B1400002205492046039B0091114601F0E4FB55
:105B240004B010BDE9190000D1180000F0B583B02D
:105B340002211546064602AF86B0126802AC204622
:105B440002F0F0F900232A462046194602F0F6FA3C
:105B5400A388012B0ED90022074901202346616145
:105B640006F5E47120743046009202F077FD0437A4
:105B7400BD46F0BDFDF79EFF000020410021FFF768
:105B8400D5BF00BFF0B583B002211546064602AF6B
:105B940086B0126802AC204602F0C4F900232A46FB
:105BA4002046194602F0CAFAA388012B0ED9002216
:105BB400074901202346616106F5C271207430460D
:105BC400009202F04BFD0437BD46F0BDFDF772FFB5
:105BD400000020410021FFF7D5BF00BFF0B583B01E
:105BE4000121054602AF84B0126802AC204602F0DF
:105BF40099F9A3888BB10023094A0121094EE26077
:105C04002846217215229FED080A1946CDE900465F
:105C140001F040FB0437BD46F0BDFDF74BFF00BF6C
:105C24000000C841C916000000004842F0B583B026
:105C34000121054602AF84B0126802AC204602F08E
:105C440071F9A3888BB10023094A0121094EE2604E
:105C54002846217215229FED080A1946CDE900460F
:105C640001F018FB0437BD46F0BDFDF723FF00BF6C
:105C74000000C841AD16000000004842F0B583B0F2
:105C84000121054602AF84B0126802AC204602F03E
:105C940049F9A3888BB100230121094A2846094EFA
:105CA40021721946E26015229FED070ACDE90046EC
:105CB40001F0F0FA0437BD46F0BDFDF7FBFE00BF6E
:105CC4003333733F350B000077BE7F3FB0B582B0EE
:105CD4000121054602AF84B0126802AC204602F0EE
:105CE40021F9A38883B1E38802200A4A0A490B33C5
:105CF400E260002220722846E38023460091114688
:105D040001F0DCFDBD46B0BD044B9421044A0548B6
:105D140011F062FCDC0B0020850B0000AC120020AB
:105D24004813002074120020F0B583B00121054609
:105D340002AF84B0126802AC204602F0F3F8A388E4
:105D440093B1E38802210B4A28460B4E0633217295
:105D540005F56D71E2600022E3802346009601F0B0
:105D640035FB0437BD46F0BD044B9421044A054875
:105D740011F032FCF80B0020F1430000AC120020BB
:105D8400481300207412002070B5002105461846FF
:105D94001C4602F085F90F4B01462046C91AB1FA98
:105DA40081F1490902F07CF960B10B4B984209D0AA
:105DB4000A4E00222346284604961146BDE8704048
:105DC40001F092BA224628460021BDE87040FFF750
:105DD400ABBF00BF6E0ED6062D035B7A49440000AC
:105DE400B0B582B00121054602AF84B0126802AC9E
:105DF400204602F097F8A38883B1E38802200A4A78
:105E04000A490B33E260002220722846E3802346CD
:105E14000091114601F052FDBD46B0BD044B9421E2
:105E2400044A054811F0D8FBDC0B0020D10B00001C
:105E3400AC1200204813002074120020F0B583B087
:105E44000121054602AF84B0126802AC204602F07C
:105E540069F8A38893B1E38802210B4A28460B4EC4
:105E64000633217205F57B71E2600022E38023464C
:105E7400009601F0ABFA0437BD46F0BD044B942103
:105E8400044A054811F0A8FBF80B0020613F00000C
:105E9400AC120020481300207412002070B50021B9
:105EA400054618461C4602F0FBF80F4B01462046F7
:105EB400C91AB1FA81F1490902F0F2F860B10B4B49
:105EC400984209D00A4E00222346284604961146D9
:105ED400BDE8704001F008BA224628460021BDE81A
:105EE4007040FFF7ABBF00BF6E0ED6062D035B7A82
:105EF400AD3F000000230F499FED0F0A70B5154612
:105F040082B01C46064601910C221946009501F008
:105F1400C1F92B462246214630460094FFF734FF50
:105F24002B462246214630460094FFF7B7FF02B0C5
:105F340070BD00BF550F00000000000070B50021C7
:105F4400054618461C4602F0ABF8114B01462046A4
:105F5400C91AB1FA81F1490902F0A2F80D4B98422D
:105F64000AD00D4E234605F5856128460496002285
:105F7400BDE8704001F0E4BB084E234605F22C4115
:105F8400284604960022BDE8704001F01BBC00BF07
:105F94006E0ED60601BD647E650C0000D11B0000A8
:105FA40030B500F57B7585B004461146284603924A
:105FB40001F098FA29460C4A0025039B20460092DA
:105FC4002A4601F003FA039B2A46294620460095F7
:105FD400FFF736F9039B2A46294620460095FFF72A
:105FE400ADFF05B030BD00BF613F000030B585B0E6
:105FF400002104460392FFF721FF00220C49039B72
:1060040020461546009104F57B7101F0DFF9039BEE
:106014002A46294620460095FFF712F9039B2A4693
:10602400294620460095FFF789FF05B030BD00BF23
:10603400613F0000F0B583B00121054602AF84B092
:10604400126802AC204601F06DFFA388CBB1012693
:106054004FF07E510C4A2346E160284631462672B1
:106064000092002201F040F9DFF820C0234600220C
:1060740031462846CDF800C001F036F90437BD4654
:10608400F0BDFDF717FD00BFF51500001D1700005A
:106094000021FFF7CFBF00BFF0B583B00121054653
:1060A40002AF84B0126802AC204601F03BFFA38823
:1060B4008BB100230121094A2846094E2172194651
:1060C400E26002229FED070ACDE9004601F0E2F802
:1060D4000437BD46F0BDFDF7EDFC00BFCDCCCC3D93
:1060E40015160000000016442DE9F04F83B002217C
:1060F4001446064602AF86B0126802AD284601F087
:1061040011FF002322462846194602F017F8AB88EF
:10611400012B33D94FF000084FF001094FF0000B69
:1061240006F1D80A2B4685F81090C5F814B04246FB
:10613400CDF800805146304602F090FA86B02268CD
:10614400022102AD284601F0EDFEBDF80C30ABB1E2
:1061540022464B4649462846CDF814B08DF8109097
:1061640001F0ECFF2B46424651463046CDF8008004
:1061740002F074FA0437BD46BDE8F08FFDF79AFCCF
:106184000021FFF7B1BF00BFF0B583B0052105467C
:1061940002AF8CB0126802AC204601F0C3FEA388A3
:1061A400002B49D00122254993422272E16043D059
:1061B4002349022B227461613ED02249032B2276AB
:1061C400E16139D02049042B84F82020616233D066
:1061D4001E4923461E4884F828200022E16205F562
:1061E40087610090284601F0EDFA1A48234605F528
:1061F4008861009000222846174E01F0E3FA174800
:10620400234605F5896100900022284601F0DAFA58
:106214001348234605F58A6100900022284601F0C0
:10622400D1FA2346002205F58B612846009601F039
:10623400C9FA0437BD46F0BDFDF73CFCFC013B4404
:10624400AEE77F44AE62313E0010F6445CAF1046C8
:10625400D9140000E5140000411C0000F1140000F2
:10626400311C000030B50446154683B00021FFF709
:1062740085FA2A4620460021FFF76CFB2A46204671
:106284000021FFF773F82A4620460021FFF7E6F8BD
:106294002A4620460021FFF7A1FC2A462046002179
:1062A400FFF7C4FC2A4620460021FFF7E7FC2A46F4
:1062B40020460021FFF70AFD3A492B46204600916B
:1062C400002204F5767101F077FC2A46204600216D
:1062D400FFF786FD34492B4620460091002204F541
:1062E400826101F069FC2A4620460021FFF7D4FEB2
:1062F4002A4620460021FFF747FF2C492B4620461B
:106304000091002204F59C6101F056FC28492B46BB
:1063140020460091002204F59D6101F04DFC2549C1
:106324002B4620460091002204F2BC5101F044FCAB
:1063340021492B4620460091002204F2C45101F069
:106344003BFC1E492B4620460091002204F5BD610A
:1063540001F032FC1A492B4620460091002204F534
:10636400007101F029FC17492B46204600910022B8
:1063740004F5237101F020FC2A4620460021FFF792
:106384000DF9114A04F52A71204600922B46002289
:1063940001F012FC2A460021204603B0BDE830403B
:1063A400FFF774B975150000B5150000450D000020
:1063B400690D0000990E0000BD0E0000E10E000002
:1063C400B53E0000453600003537000070B50021A9
:1063D400054618461C4601F063FE114B0146204653
:1063E400C91AB1FA81F1490901F05AFE0D4B9842DC
:1063F4000AD00D4E234605F58F61284604960022E7
:10640400BDE8704001F09CB9084E234605F27C417A
:10641400284604960022BDE8704001F0D3B900BFBD
:106424006E0ED60601BD647E8D0C0000F11B0000CB
:1064340070B500F56D7482B00546114620461646C7
:1064440001F050F821460F4A0024334628460092B2
:10645400224600F0BBFF33462246214628460094DC
:10646400FEF720FF33462246214628460094FFF7D4
:1064740063F833462246214628460094FFF7A6FFD8
:1064840002B070BDF143000070B5002182B0054632
:106494001646FFF749FC00220F49334614462846A6
:1064A400009105F56D7100F091FF334622462146B7
:1064B40028460094FEF7F6FE334622462146284637
:1064C4000094FFF739F833462246214628460094C3
:1064D400FFF77CFF02B070BDF143000070B50021EE
:1064E400054618461C4601F0DBFD134B01462046C9
:1064F400C91AB1FA81F1490901F0D2FDB0F17E5F08
:1065040004D0B0F1804F15D050B170BD0B4E0022B5
:106514002346284604961146BDE8704000F0E4BEC8
:10652400074E23460246014604962846BDE87040BD
:1065340000F0DABE034EEAE76E0ED606C51200007E
:1065440091120000F91200000021134600B583B037
:106554000A460091FFF7C2FF03B05DF804FB00BFD9
:106564002DE9F04782B001211546064602AF84B0FA
:10657400126802AC204601F0D5FCA3888BB34FF01F
:106584007E534FF000084FF0010906F5F47AE360FA
:106594004246234684F808905146CDF800803046A0
:1065A40002F05CF886B02A68022102AC204601F0B1
:1065B400B9FCBDF80C30A3B100232A464946204655
:1065C400059343468DF8109001F0B8FD23464246EA
:1065D40051463046CDF8008002F040F8BD46BDE893
:1065E400F087FDF767FA00BF0021FFF7B9BF00BFCE
:1065F400F0B583B00121054602AF84B0126802AC45
:10660400204601F08FFCA3888BB14FF0804201211A
:10661400084E002321722846E26005F5996116228E
:10662400CDE9004600F0FEFD0437BD46F0BDFDF7A0
:1066340041FA00BFD50C000030B50A4983B00446C6
:1066440015460123CDE9002100F59961162200F0D9
:10665400E9FD2A460021204603B0BDE83040FFF79B
:10666400C7BF00BFD50C000070B5002182B004463E
:1066740018461D4601F014FD1B4A01462846891A96
:10668400B1FA81F1490901F00BFD184A904225D075
:10669400002217492B4620460091114600F024FEA3
:1066A40014492B4600222046009104F20C51124E4C
:1066B40001F088F811492B4600220091204604F28B
:1066C400145101F07FF82B46002204F21C5120469D
:1066D400069602B0BDE8704001F074B8084E2B462F
:1066E400002204F22451F2E76E0ED6062D035B7AE3
:1066F400F9480000511C000041470000911A0000B5
:10670400C91A000070B5002182B0054618461C461F
:1067140001F0C6FC154B01462046C91AB1FA81F1B5
:10672400490901F0BDFC124B984212D0114923468D
:10673400284600220091012100F0D6FD0E4E23468A
:10674400002201212846069602B0BDE8704000F000
:10675400CBBD0A4E2346002205F5AF6128460696B6
:1067640002B0BDE8704001F02DB800BF6E0ED60631
:106774005483BE473D1A00002519000091480000CB
:1067840001B1704710B582B013460A460091FFF775
:10679400B9FF02B010BD00BFB0B582B001210546FB
:1067A40002AF84B0126802AC204601F0BBFBA388A0
:1067B40073B101224FF07E5006492346E06028461B
:1067C4002272009105F2745100F0A4FEBD46B0BDE2
:1067D400FDF770F98D1C000030B5114683B00446F6
:1067E40000F22C50154600F07DFE084A04F5B06115
:1067F40020462B460092002200F004FF2A46002186
:10680400204603B0BDE83040FFF7C6BF2D18000096
:10681400B0B582B00121054602AF84B0126802AC63
:10682400204601F07FFBA3886BB1012200200749B9
:106834002346E06028462272009105F2745100F06C
:1068440069FEBD46B0BDFDF735F900BF8D1C0000E3
:106854000021FFF7DDBF00BFF0B583B0012105467D
:1068640002AF84B0126802AC204601F05BFBA3883F
:10687400DBB1E3880221104A10480633104E21721E
:1068840005F5AA61E2600022E380234600902846D1
:1068940000F09CFD2346002205F22C512846009668
:1068A40000F094FD0437BD46F0BD064B9421064A22
:1068B400064810F091FE00BFF80B00205D180000A0
:1068C40099470000AC1200204813002074120020E5
:1068D400012902D80021FFF7BFBF7047F0B583B08C
:1068E4000121044602AF84B0126802AD284601F0CB
:1068F40019FBAB88D3B1012600210D4A2B46E96070
:10690400204604F22C512E720092324600F05EFDB5
:10691400DFF820C02B46324604F5AA612046CDF8A4
:1069240000C000F053FD0437BD46F0BDFDF7C2F8CA
:10693400994700005D1800000021FFF7CFBF00BF9A
:10694400B0B582B00121054602AF84B0126802AC32
:10695400204601F0E7FAA38883B1E38802200A49BC
:10696400002205332072E1602846E38005F1B0017E
:106974002346009201F072FEBD46B0BD034B942144
:10698400034A044810F028FEF00B0020AC1200204B
:1069940048130020741200200021FFF7D1BF00BF6C
:1069A400B0B582B00121054602AF84B0126802ACD2
:1069B400204601F0B7FAA3888BB1E38800220B4983
:1069C4004FF0020C06332846E1601146E38023466B
:1069D40084F808C00092FFF795FEBD46B0BD044B95
:1069E4009421044A044810F0F7FD00BFF80B00207E
:1069F400AC12002048130020741200200021FFF77D
:106A0400CFBF00BFF0B583B002211546064602AFE2
:106A140086B0126802AC204601F084FA00232A46AC
:106A24002046194601F08AFBA388012B0ED90022C7
:106A340001200749234620743046616106F1940120
:106A4400009201F00BFE0437BD46F0BDFDF732F8AD
:106A5400000048420021FFF7D5BF00BF2DE9F043F5
:106A640083B002211446804602AF86B0126802AD9C
:106A7400284601F057FAAB88002B39D000234FF099
:106A840001094FF07E5228461E464946EA602246D6
:106A940085F8089001F052FB00962B4632463146A9
:106AA4004046FFF7E1FD88B02268032102AD284685
:106AB40001F038FABDF80C30D3B100234946224620
:106AC400284605934B468DF8109001F037FB0223BE
:106AD40022462846194601F031FB2B463246314600
:106AE40040460096FFF7C0FD0437BD46BDE8F0837D
:106AF400FCF7E0FF0021FFF7B1BF00BFF0B583B0A2
:106B04000121054602AF84B0126802AC204601F0B0
:106B140009FAA3888BB14FF080420121084E00236B
:106B240021722846E26005F2A4511622CDE90046FE
:106B340000F078FB0437BD46F0BDFCF7BBFF00BF97
:106B4400290E000030B50A4983B0044615460123D6
:106B5400CDE9002100F2A451162200F063FB2A467D
:106B64000021204603B0BDE83040FFF7C7BF00BF97
:106B7400290E000070B5002182B0044618461D4657
:106B840001F08EFA1B4A01462846891AB1FA81F1AE
:106B9400490901F085FA184A904225D00022174984
:106BA4002B4620460091114600F09EFB14492B46CB
:106BB40000222046009104F5BF61124E00F002FE4F
:106BC40011492B4600220091204604F5C06100F0D3
:106BD400F9FD2B46002204F5C1612046069602B059
:106BE400BDE8704000F0EEBD084E2B46002204F5CF
:106BF400C261F2E76E0ED6062D035B7A054E0000E5
:106C0400B11C00004D4C0000011B0000391B0000AA
:106C140070B5002182B0054618461C4601F040FAC2
:106C2400154B01462046C91AB1FA81F1490901F010
:106C340037FA124B984212D01149234628460022B3
