:0200000460009A
:100000004643464200000156000000000103030081
:1000100000000000000000000000000000000000E0
:1000200000000000000000000000000000000000D0
:1000300000000000000000000000000000000000C0
:1000400000000000010408000000000000000000A3
:100050000000200000000000000000000000000080
:100060000000000000000000000000000000000090
:100070000000000000000000000000000000000080
:10008000EB04180A063204260000000000000000FD
:10009000050404240000000000000000000000002F
:1000A0000000000000000000000000000000000050
:1000B0000604000000000000000000000000000036
:1000C0000000000000000000000000000000000030
:1000D00020041808000000000000000000000000DC
:1000E0000000000000000000000000000000000010
:1000F0000000000000000000000000000000000000
:10010000D8041808000000000000000000000000F3
:100110000204180804200000000000000000000095
:1001200000000000000000000000000000000000CF
:10013000600400000000000000000000000000005B
:1001400000000000000000000000000000000000AF
:10015000000000000000000000000000000000009F
:10016000000000000000000000000000000000008F
:10017000000000000000000000000000000000007F
:10018000000000000000000000000000000000006F
:10019000000000000000000000000000000000005F
:1001A000000000000000000000000000000000004F
:1001B000000000000000000000000000000000003F
:1001C000000100000010000001000000000000001D
:1001D000000001000000000000000000000000001E
:1001E000000000000000000000000000000000000F
:1001F00000000000000000000000000000000000FF
:10020000FFFFFFFFFFFFFFFFFFFFFFFFFFFFFFFFFE
:10021000FFFFFFFFFFFFFFFFFFFFFFFFFFFFFFFFEE
:10100000D1002043491600600000000000000000ED
:10101000201000600010006000000260000000006E
:1010200000000060000C020000000000FFFFFFFF56
:10103000FFFFFFFFFFFFFFFFFFFFFFFFFFFFFFFFC0
:10104000FFFFFFFFFFFFFFFFFFFFFFFFFFFFFFFFB0
:10105000FFFFFFFFFFFFFFFFFFFFFFFFFFFFFFFFA0
:10106000FFFFFFFFFFFFFFFFFFFFFFFFFFFFFFFF90
:10140000814205D051F8043B40F8043B8242F9D8B0
:10141000704700BF044A05494FF0000342F8043BFF
:101420009142FBD8704700BFC0420020C056002048
:101430002DE98848BFF34F8F00BF00BF00BF00BF3A
:1014400000F07AFA674B0822C3F8542100BF00BFAE
:1014500000BF00BF00BF00BF00BF00BF00BF00BF94
:1014600000BF00BF00BF00BF00BF00BF5E4A5F49B2
:101470005F48FFF7C5FF5F4A5F496048FFF7C0FF5D
:101480005F4CFFF7C7FF4FF470004FF0E0210023DF
:101490005C4AC1F8880D44F823200133B02BFAD1FF
:1014A000594B8021594A03F8011B9342FBD14FF05D
:1014B000E0254C4E4FF08039DFF880B1DFF880A195
:1014C0004FF0FF31C5F8084D0027C6F80491C6F863
:1014D00000B1C6F8F490C6F8F0A0D5F8243DDFF8C6
:1014E000648143F4E0234A4AC5F8243DD8F81C300F
:1014F00023F07F0343F04003C8F81C30D8F82430B1
:1015000023F07F0343F04003C8F824309166D1668E
:101510001167516700F018FA3E4B3F49A3633F4BF8
:10152000E36363236B610323AF612B613C4BC5F81D
:10153000203DD5F8FC3D43F08073C5F8FC3D394BA8
:101540001A6842F001021A605B680B6000F084FACE
:10155000C6F804913448C6F800B1C6F8F490C6F84D
:10156000F0A000F02DFCD8F86C10304B304A41F45C
:101570004051C8F86C101F60C3F80871C3F81871A7
:10158000C3F82871C3F83871936BDB0708D442F6AF
:101590001563284951651365936B43F00103936309
:1015A000234A254C936843F00113936000F0B8FB85
:1015B00000F002FC00F07EFA00F0C0F92368132B63
:1015C000FCD900F00FFB2368B3F5967FFBD300F046
:1015D000B9F900F0B5F900F0DBFB00F0D5FB30BF46
:1015E000FDE700BF00800D40F89B01004420006033
:1015F00000000000C042002040BC0160000000204C
:10160000004000203124010000E400E0A0E400E0FC
:1016100000C00A409D19010038560020A1190100A0
:1016200000002020001000E00046C32300400840D6
:1016300000400D400000C0563C5600201B101820F2
:101640000C0D111300C00F40054B4FF42A01054A41
:1016500005485A641864054A99639546FFF7E8FE01
:1016600000C00A40FFAAAAAA070020000000062026
:101670001BB9124B1B6F9B041ED400F03F000F4B95
:1016800022F0604221F0604140F489101867C3F8ED
:101690008010C3F890201A6F22F480521A671A6FD4
:1016A000002AFCDAD3F87011054A0A40C3F8702109
:1016B0001A6F22F480321A67704700BF00800D4015
:1016C000FF7F7FFF43690A4A03EB011010B4037ADE
:1016D000084C02EB0313D3E901321460C2681A60AC
:1016E00003690BB142691A605DF8044B704700BF93
:1016F000C01E002061F801004369027E03EB021264
:1017000092F808C08C451CD01A7AFF2A19D0914251
:1017100010B5044616D01A7EFF2A06D00121D3E95F
:10172000002312681A4201D1217610BD064B052212
:10173000204603EB0C135B681A60FFF7C3FF2176AA
:10174000F3E770470021EAE7C01E002043690A4A18
:1017500003EB011010B490F82830084C02EB03138F
:10176000D3E901321460C26A1A60036B0BB1426B99
:101770001A605DF8044B7047C01E002061F801003C
:101780004369427E03EB021292F828C08C451ED0BA
:1017900093F82820FF2A1AD0914210B5044617D09A
:1017A00093F83820FF2A06D00121D3E900231268DC
:1017B0001A4201D1617610BD064B0522204603EB8B
:1017C0000C135B681A60FFF7C1FF6176F3E770479F
:1017D0000021EAE7C01E0020164942698B6B23F402
:1017E0007C0343F4802370B58B630446124DD2E929
:1017F00000130A681A4303690A60022200211A6171
:101800000E4A19619A6401225A629D624FF4303582
:10181000DD624FF001159E6C1E6519629D651A61AF
:10182000017EFFF74FFF617E2046BDE87040FFF765
:101830008DBF00BF00C00F40B80B05053B3728190E
:10184000B1F5607FF0B50E468DB028BF4FF46076DD
:101850000F46054672B62E4B0024702218602146B2
:101860002C4B2D481C8000F097FACFB121462A4816
:101870004FF0010C4A0901F01F03013150F82240DA
:101880000CFA03F38E4243EA040340F82230F1D805
:10189000284600234380013300F582709E42F9D828
:1018A0001E4C257815B162B60DB0F0BD082000F0D1
:1018B00067FA1B4B80220646009302A90693194B38
:1018C0000271056008A8029300F06AFA06A9164A98
:1018D000304600F069FA069B08A8DB689847009B31
:1018E00002A8DB6898472378002BDCD10F4B104A05
:1018F000C3F858210F49D0204FF0E023402281F84F
:101900004600C3F808210123237062B60DB0F0BD74
:10191000A850002060560020B050002073560020D0
:1019200078190020F51301001B1001000040002071
:101930000114010000E400E0704700BF704700BFE1
:10194000704700BF00BF704710B44FF0E023002184
:1019500010243148C3F8941DC3F89C4D1124C3F8DA
:10196000A00D2E48C3F89C4D1224C3F8A00D2C489E
:10197000C3F89C4D2B4AC3F8A00D2B4C42F0150226
:101980002A48C3F89C4DC3F8A00D294C2948C3F838
:101990009C4DC3F8A00D284CC3F89C2D2748284A1D
:1019A000C3F8A04DC3F89C0DC3F8A02D02F5A022EA
:1019B000244C0C322448C3F89C4DC3F8A02D234A74
:1019C000C3F89C0D224CC3F8A02D02F14062C3F86D
:1019D0009C4D2048C3F8A02D0C32C3F89C0DC3F8D1
:1019E000A02D00BF00BF00BF00BF00BF0122C3F891
:1019F000942DBFF34F8FBFF36F8FC3F8501FBFF30A
:101A00004F8FBFF36F8FD3F8142D5DF8044B42F462
:101A10004032C3F8142D70473F000010250008071E
:101A200009001000C056002013002000210002070A
:101A300014000020250008130900001016002020C3
:101A400027000B1317000040180000602F000B0741
:101A5000190000701A000080F0B4154A40274FF4B6
:101A600080314FF480564FF400554FF4404443F218
:101A70004200136913F0020F0ED113F4005F0FD070
:101A800013F4805F0ED0002BF3DA13F4803F0BD1F8
:101A90005B060BD5F0BC7047946151619061E8E73B
:101AA0005561E6E75661E4E79161E2E75761E0E7F7
:101AB00000800D403F4A03203F49F3EE095AD2F817
:101AC00080304FF0000C9FED3D6A23F001039FED45
:101AD0003C5A30B4C2F88030C2F89000D1F8E0101F
:101AE000384DCBB2384C39482B6007EE903A0B0D8D
:101AF000C1F30B21F8EEE77A06EE903A07EE101AE2
:101B0000334BB8EEC77A2160F8EEE66A314937EE1A
:101B1000C66A37EEC55A76EEC76A77EEE57A26EEE4
:101B2000266AC3ED006A25EE265AD2F8803067EEA9
:101B3000A64AC0ED007AC6EE275A274885EE276AE6
:101B4000C4EEA76A75EE875AFCEEE55A36EE076AD0
:101B500015EE904ABCEEC66A43EA045376EE877AE5
:101B6000C2F8803016EE103AD2F89041FCEEE77AD7
:101B700001EA0341214317EE903AC2F89011C3F3F2
:101B80000B03D2F890110B431449C2F89031D2F8EC
:101B9000803043F00203C2F88030114B80F840C01F
:101BA000C1F840314FF0E023012230BCC3F80821D6
:101BB000704700BF00810D4000441F400000AA4252
:101BC0000000B44228560020245600202C56002045
:101BD000305600200000FF0F00E400E0004000202D
:101BE0001D260100314B40F6617210B5C3F820216B
:101BF00040F2044400F0E8F82D4A2E49D2F8803033
:101C00002D4843F00303C2F880302C4BC1F86041EB
:101C100002681A4203D1D1F8A8319A071BD0254A8D
:101C20004FF00041244B5963D2F8403143F0020396
:101C3000C2F84031D2F840319B07FBD44FF400305A
:101C40004FF0E0211C4B4FF00042C1F88C021920EC
:101C50009A6300F0ADF8184A4FF08040154C00210F
:101C600090630A20164B11604FF42072C4F8A8014B
:101C7000184600F091F84FF4800203464FF48100BB
:101C800040F243111860C4F858311A640D4B0E4AE3
:101C9000C4F84811C3F804224FF0E0224FF4003199
:101CA0000123C2F80C11C4F8403110BD00800D4072
:101CB00000C00F4000002E4000900D40001C1E0090
:101CC00000000020004000200528010008B50E4B50
:101CD0001B6E9B0700D4FBBE72B60C4B00200C4A57
:101CE000C3F8400103F160430A49A3F55F2311647F
:101CF0009D46BFF34F8F4FF400130748074ADB6937
:101D000002609B68984700BF00441F4000002E40BF
:101D100000C00A400300200000802020000012EBD9
:101D2000104BA020104AD96E41F4403110B4D9664E
:101D300040F23764D96E41F44071D96654649064BE
:101D4000936C1B06FCD4094A40F23761A02351640E
:101D50009364936C13F08003FBD1054A13705DF814
:101D6000044B704700C00F4000400C4000800C4006
:101D700079560020F8B500BFF8BC08BC9E467047F5
:101D80005FF800F0312201005FF800F0ED20010063
:101D90005FF800F02D8F01005FF800F0AD8C0100BE
:101DA0005FF800F0691401005FF800F0751A010097
:101DB0005FF800F0091F01005FF800F0192301002F
:101DC0005FF800F0191C01005FF800F0752F0100AA
:101DD00045000000B97C0000A97D0000717E000074
:101DE000858300009D830000B5830000CD83000043
:101DF000E5830000FD830000158400002D840000B1
:101E0000458400005D84000075840000198900008D
:101E1000318900004989000061890000798900004A
:101E200091890000A9890000C1890000F58900009E
:101E3000258A00003D8A0000558A00006D8A000056
:0C1E4000858A0000399D0000791B01001C
:101E4C0080C00F40000000031900000010000000CB
:101E5C00E8841F4001000000FF000000FF000000AC
:101E6C00000000000000000018000000100000003E
:101E7C00E4841F4001000000FF000000FF00000090
:101E8C0000000000000000001F000000E91301002A
:101E9C0070C00F40000C0000110000001100000089
:101EAC00E0841F400200000024000000120000002B
:101EBC00E0841F4001000000100000001100000031
:101ECC00DC841F400200000025000000120000000E
:101EDC00DC841F40010000001E000000DD13010027
:101EEC0070C00F40C0000000120000001300000082
:101EFC00D0841F4001000000FF000000FF00000024
:101F0C00000000000000000013000000130000009F
:101F1C00CC841F4001000000FF000000FF00000007
:101F2C0000000000000000001C000000D1130100A4
:101F3C001603550053004200200053006500720048
:101F4C00690061006C000000180354006500650016
:101F5C006E00730079006400750069006E006F00FC
:101F6C000403090409026200030100C032080B00DB
:101F7C000202020100090400000102020100052412
:101F8C0000100105240101010424020605240600A9
:101F9C00010705820310001009040100020A000069
:101FAC0000070503024000000705840240000009F9
:101FBC0004020002FF6AFF000705810240000107CE
:101FCC00050102400001000009026200030100C08B
:101FDC0032080B0002020201000904000001020297
:101FEC00010005240010010524010101042402064E
:101FFC0005240600010705820310000509040100F1
:10200C00020A000000070503020002000705840213
:10201C000002000904020002FF6AC70007058102E2
:10202C000002010705010200020100000A0600027D
:08203C00EF0201400100000069
:10204400000000000000000000000000000000008C
:10205400000000000000000000000000000000007C
:102064000548064B1B1AD90F01EBA301491002D0F6
:10207400034B03B118477047C0420020C042002000
:102084000000000008B5054B1BB105490548AFF336
:102094000080BDE80840FFF7E3BF00BF0000000078
:1020A40094550020000C02604069704790ED020BCB
:1020B400704700BF0069704707EE901A9FED065BFA
:1020C400B8EE677B90ED026B27EE057B87EE060B7F
:1020D400B7EEC00B704700BF0000000000408F4007
:1020E40081657047806D704701657047006D70476A
:1020F40041657047406D704708B50368D3F88C306C
:10210400984700B1006808BD08B50368D3F88C305F
:10211400984700B1406808BD0023BFF35B8F80F887
:102124008430704700000000B0B582B004460D460C
:10213400002100AF84B06A4610467A6006F03AFF88
:1021440023687A682946DB6C20469FED030B984789
:102154000837BD46B0BD00BF00000000000000000D
:10216400B0B582B004460D46002100AF84B06A4683
:1021740010467A6006F014FF23687A682946DB6CFF
:1021840020469FED030B98470837BD46B0BD00BFFE
:102194000000000000000000F8B500AF8AB184B070
:1021A40004460D4600216E46304606F00FFF2368B4
:1021B40032462946DB6C20469FED050B9847BD4609
:1021C400F8BD054B5321054A054816F005FB00BF31
:1021D40000000000000000005010002060100020EB
:1021E400A81000204FF001028430D0E84F3FC0E82F
:1021F400412F0029F9D1DBB2BFF35B8F002BF4D15F
:10220400704700BF4FF001028430D0E84F3FC0E870
:10221400412F0029F9D1D8B2BFF35B8F80F00100C0
:10222400704700BF183007F0FBB900BF036810B552
:10223400D3F88C301446984718B1214607F086FC31
:10224400012010BD00000000DFED0B7A90ED025B71
:1022540087FE800AB7EEC00A9FED056B20EE050BE2
:1022640080EE067BFCEEC77B17EE900A704700BF3A
:102274000000000000408F4000000000F8B5DE8838
:1022840000F170051C46174604362846314606F010
:10229400DBFD60B10146E288204641F8047B06F08C
:1022A400BBFE31462846BDE8F84006F0FBBD034BB3
:1022B4001E21034A034816F08FFA00BF800700204E
:1022C4004C080020A810002010B50C1E82B00ADDB6
:1022D4005C30019006F0AAFDA102019802B0BDE8AD
:1022E400104006F07FBD034BB921034A034816F0A2
:1022F40073FA00BFD8130020E8130020A8100020B0
:1023040010B50C1E82B00ADD7030019006F08EFD0F
:10231400A102019802B0BDE8104006F063BD034B72
:10232400BF21034A034816F057FA00BF24140020C3
:1023340034140020A810002008B5034AE221034BFE
:10234400034816F049FA00BF440700203407002070
:10235400A810002008B5034AEE21034B034816F0E9
:102364003BFA00BFA408002034070020A810002076
:102374002DE9F04390461F46026D0E46294B00217D
:1023840083B09A42316046D1814600F1850C4FF00A
:10239400010EDCE84F4FCCE845EF002DF9D1E4B253
:1023A400BFF35B8F002CF4D109F17005284606F0C9
:1023B40041FDA8B101A92846019406F095FDC0B1DC
:1023C400019A132A1BD997421FD301464046012480
:1023D40051F8043B336011F0B1FE284606F08AFD43
:1023E40000232046BFF35B8F89F8853003B0BDE836
:1023F400F0830D4BCF210D4A0D4816F0EDF90D4B2E
:10240400D0210A4A0A4816F0E7F90B4BD121074AB2
:10241400074816F0E1F9094BC721044A044816F0AD
:10242400DBF900BF3D020000640F0020140F002000
:10243400A8100020A80F0020D00F00206C0E002050
:102444002DE9F84F2DED028B9FED338BB4EEC80BC5
:10245400F1EE10FA5ADB9046002A51D00368054683
:10246400314A0F469B6988FE008B046993423FD131
:1024740090ED020B9FED2A6B05F184034FF0010CE4
:1024840080EE067B27EE087BFCEEC77B17EE906A96
:102494002644D3E84F4FC3E84ECFBEF1000FF8D126
:1024A400E4B2BFF35B8F002CF3D1B8F806A005F1BA
:1024B4005C0B0AF1040A5846514606F0C5FC8146F5
:1024C400C0B10146B8F80620404641F8047B06F046
:1024D400A3FD58465146C9F8046006F0E3FCBFF377
:1024E4005B8F85F884400120BDEC028BBDE8F88F3A
:1024F4009847BFE70D4B83210D4A0E4816F06CF93F
:102504000D4B74210A4A0B4816F066F90B4B7321E4
:10251400074A084816F060F90000000000000000B7
:102524000000000000408F406D00000054110020A6
:10253400F4100020A810002044110020E410002012
:102544002DE9F04F2DED068B9FED759B43EC182B79
:1025540085B0B4EEC98B00AFF1EE10FA3E6DC0F257
:10256400D680002E00F0CD8007F154028346304619
:102574000AEE101AFA6018F003FF8246002800F0F1
:10258400BA80C000DBF8102089FE089B0830ADEB50
:10259400000DDBF800008469E8466548844240F099
:1025A40087809BED020B29EE009B00245146404698
:1025B400013E4546A1469FED5C6B89EE067BBCEE71
:1025C400C77B17EE103A13441A4606F0DFFC16F8E0
:1025D400013F623B112B12D8DFE803F009111111FE
:1025E4005211411111111111111111111125B8F8C4
:1025F4000430A34267DD85F80890C5F80C900134D7
:102604000835A245E3DCDBF80040B0EE480B424657
:102614001AEE101A5846E36C98471437BD46BDECC1
:10262400068BBDE8F08FFB68B8F80420191D186804
:10263400A242F96041DD002857D04FF00203E86060
:10264400013408352B7018F09BFEB8F80630A2450B
:1026540003F101031844A8F80600B8DCD3E7FB68CB
:10266400B8F80420191D1B68A242F96037DD013453
:10267400EB604FF003030835A2452B70A7DCC2E7DB
:10268400FB68073323F0070393ED007B0833FB60FB
:10269400B7EEC77BB8F80430A3421ADD01344FF01B
:1026A400010385ED037A0835A2452B708FDCAAE778
:1026B4007A605846A0477A6875E71E4B94211E4AF3
:1026C4001E4816F089F81B4B69211D4A1B4816F059
:1026D40083F8184B73211B4A184816F07DF8154BE4
:1026E4008221194A154816F077F8184B9521124A99
:1026F400124816F071F8164B3A21164A0F4816F094
:102704006BF8154B5C21154A154816F065F8154B06
:102714005B21124A124816F05FF800BFAFF3008045
:1027240000000000000000000000000000408F4096
:102734006D000000FC12002098130020C412002039
:102744001C130020401300206C130020CC13002025
:1027540094120020A41200208012002028120020CD
:10276400A8100020E4100020B5EEC00B70B5F1EE07
:1027740010FA1D46294B80ED020B036036DD00295B
:1027840046DD002A16463DDD002D35DB4FF0000303
:1027940004460361C0E915330CBF2B46204B1830A7
:1027A40083630023BFF35B8F80F86C30BFF35B8FD0
:1027B40080F86D30882340F8043C06F057FE6369C6
:1027C400B102034404F15C00636106F00BFB63692E
:1027D4000246A90204F170001344636106F002FB8F
:1027E4006369024620461344636170BD0D4B272183
:1027F4000D4A0E4815F0F0FF0D4B2A210A4A0B48EA
:1028040015F0EAFF0B4B2921074A084815F0E4FFAD
:10281400094B2821044A054815F0DEFF84160020E0
:102824003D0200007014002084140020A810002031
:10283400C4140020D8130020B8140020084B10B58D
:10284400044640F8183B06F029FE04F15C0006F04B
:10285400EDFA04F1700006F0E9FA204610BD00BF5D
:102864008416002018B10368D3F88C30184710B5CB
:10287400FFF762FD28B1944618301A46634606F005
:102884006DBE10B5FFF766FD00487047100C0020C0
:102894000020704702207047094B994207D0094B2A
:1028A40099420AD0084B994204D00020704700F5A1
:1028B4004D70704700F58A60704700F2CC40704755
:1028C400CA828375F00FB9847DFB043C42B10023B6
:1028D40000210448516011721060D3601361536188
:1028E40000207047340B0020704700BFB0B511467C
:1028F40000AF82B0056801EB83046A462D6CC2E91F
:1029040000140021A847BD46B0BD00BF2DE9F8431F
:1029140000AF2BB316466A4600211D46A2EBC30244
:102924004FEA850995460268E846546C4246A0473A
:10293400002308EB85041A46002D09DD08EB83010A
:1029440006EB820C51F804EBA1424CF808EBF9D1E8
:102954002B444C440AB90122EEE7BD46BDE8F88396
:10296400034B40F63F41034A034815F035FF00BFCF
:102974004C0B0020580B0020A00B002010B50C4B72
:10298400044600F5CC70236005F026FE04F54D7076
:1029940007F0D8F804F58A6007F0D4F804F2CC40C4
:1029A40007F0D0F82046FFF749FF204610BD00BFCE
:1029B400B815002030B5002383B014460B499FEDB1
:1029C4000C0A0322019119460094054605F050FCB7
:1029D40000230849B2EE000A01222846CDE900414D
:1029E400194605F045FC03B030BD00BF6943000043
:1029F4000000C842D116000010B5114682B0002371
:102A0400054C9FED060A0322CDE90014194605F092
:102A14002FFC02B010BD00BFDD17000000007A4497
:102A240010B5114682B00023054CB7EE000A1422FB
:102A3400CDE90014194605F01BFC02B010BD00BF1F
:102A4400311F000010B5114682B00023054C9FEDE4
:102A5400060A0322CDE90014194605F009FC02B068
:102A640010BD00BF514A00000000C84210B5114615
:102A740082B00023054C9FED060A0322CDE9001421
:102A8400194605F0F5FB02B010BD00BF991800000F
:102A940000007A4410B5114682B00023054CB7EE0D
:102AA400000A1422CDE90014194605F0E1FB02B036
:102AB40010BD00BF911F000010B5114682B0002365
:102AC400054C9FED060A0322CDE90014194605F0D2
:102AD400CFFB02B010BD00BF7D10000000007A449F
:102AE40010B5114682B00023054C9FED060A03225F
:102AF400CDE90014194605F0BBFB02B010BD00BFC0
:102B04006919000000007A4410B5114682B0002310
:102B1400054C9FED060A0222CDE90014194605F082
:102B2400A7FB02B010BD00BF4111000000803B456F
:102B340010B5114682B00023054CB7EE000A1522E9
:102B4400CDE90014194605F093FB02B010BD00BF97
:102B5400150B000010B5114682B00023054C9FED03
:102B6400060A1422CDE90014194605F081FB02B0CF
:102B740010BD00BFF11300000000000010B51146A5
:102B840082B00023054CB7EE000A0122CDE90014FF
:102B9400194605F06DFB02B010BD00BF2D140000F6
:102BA40010B5114682B00023054C9FED060A03229E
:102BB400CDE90014194605F05BFB02B010BD00BF5F
:102BC4004D1B000000007A4410B5114682B000236A
:102BD400054CB7EE000A1422CDE90014194605F09D
:102BE40047FB02B010BD00BFF11F000010B5114635
:102BF40082B00023054C9FED060A0322CDE90014A0
:102C0400194605F035FB02B010BD00BF7911000074
:102C140000007A4410B5114682B00023054C9FEDA4
:102C2400060A0322CDE90014194605F021FB02B07F
:102C340010BD00BF1D1C000000007A4410B51146F1
:102C440082B00023054C9FED060A0222CDE9001450
:102C5400194605F00DFB02B010BD00BF3D12000087
:102C640000803B4510B5114682B00023054CB7EEF9
:102C7400000A1522CDE90014194605F0F9FA02B04C
:102C840010BD00BF490C000010B5114682B00023EE
:102C9400054C9FED060A1422CDE90014194605F0EF
:102CA400E7FA02B010BD00BF3514000000000000B8
:102CB40010B5114682B00023054CB7EE000A01227C
:102CC400CDE90014194605F0D3FA02B010BD00BFD7
:102CD4007114000010B5114682B00023054C9FED1D
:102CE400060A0322CDE90014194605F0C1FA02B020
:102CF40010BD00BFBD0C000000007A4410B51146A1
:102D040082B00023054C9FED060A0222CDE900148F
:102D1400194605F0ADFA02B010BD00BF094F00001E
:102D240000007A4410B5114682B00023054C9FED93
:102D3400060A0322CDE90014194605F099FA02B0F7
:102D440010BD00BFE51D000000007A4410B5114617
:102D540082B00023054CBFEE000A0222CDE9001424
:102D6400194605F085FA02B010BD00BF7D200000B1
:102D740010B5114682B00023054C9FED060A0322CC
:102D8400CDE90014194605F073FA02B010BD00BF76
:102D9400211000000000484310B5114682B0002302
:102DA400054C9FED060A0222CDE90014194605F0F0
:102DB4005FFA02B010BD00BFF51E00000000C8425B
:102DC40010B5114682B00023054C9FED060A02227D
:102DD400CDE90014194605F04BFA02B010BD00BF4E
:102DE400011F00000000C84210B5114682B0002344
:102DF400054C9FED060A0222CDE90014194605F0A0
:102E040037FA02B010BD00BF0D1F00000000C84219
:102E140010B5114682B00023054C9FED060A02222C
:102E2400CDE90014194605F023FA02B010BD00BF25
:102E3400191F00000000C84210B5114682B00023DB
:102E4400054CB2EE080A0322CDE90014194605F038
:102E54000FFA02B010BD00BF8559000010B511462D
:102E640082B00023054C9FED060A0222CDE900142E
:102E7400194605F0FDF902B010BD00BF8914000029
:102E84000000DC4310B5114682B00023054CBAEEB5
:102E9400040A1422CDE90014194605F0E9F902B038
:102EA40010BD00BF9114000010B5114682B000237C
:102EB400054CBAEE040A1422CDE90014194605F0B3
:102EC400D7F902B010BD00BF055A000010B5114675
:102ED40082B00023054CB2EE040A1522CDE9001499
:102EE400194605F0C5F902B010BD00BF450E00003B
:102EF40010B5114682B00023054CB2EE040A152227
:102F0400CDE90014194605F0B3F902B010BD00BFB5
:102F1400690E000010B5114682B00023054C9FEDE8
:102F2400060A0122CDE90014194605F0A1F902B000
:102F340010BD00BFF90D000000008A4210B5114613
:102F440082B00023054C9FED060A0222CDE900144D
:102F5400194605F08DF902B010BD00BF251F000011
:102F64000200004B10B5114682B00023054C9FEDC2
:102F7400060A1422CDE90014194605F079F902B0C5
:102F840010BD00BF4D0F00000000000030B500234D
:102F940083B014460B491A46B7EE000A019119464C
:102FA4000094054605F064F900230749BFEE000AC2
:102FB40002222846CDE90041194605F059F903B02B
:102FC40030BD00BFB10F0000A114000010B51146C0
:102FD40082B00023054CB7EE000A1422CDE9001498
:102FE400194605F045F902B010BD00BFF90F000005
:102FF40010B5114682B00023054CB6EE000A022239
:10300400CDE90014194605F033F902B010BD00BF34
:103014009914000010B5114682B00023054CB7EE98
:10302400000A1522CDE90014194605F021F902B071
:1030340010BD00BF250F000010B5114682B000235B
:10304400054C9FED060A0222CDE90014194605F04D
:103054000FF902B010BD00BFBD1E0000E40FC9404F
:1030640010B5002382B014460549B6EE000A1A468C
:10307400CDE90041194605F0FBF802B010BD00BFD0
:10308400B113000010B5054C82B0134600F5C671AB
:103094000122009405F0C2FD02B010BD095F0000DA
:1030A40010B5054C82B0134600F52E710022009431
:1030B40005F0B4FD02B010BD1919000010B5054C9F
:1030C40082B0134600F520710122009405F0A6FD9C
:1030D40002B010BDB918000010B5054C82B01346FB
:1030E40000F52E710122009405F098FD02B010BD88
:1030F4001919000010B5054C82B0134600F52C7167
:103104000122009405F08AFD02B010BD8D27000055
:1031140010B5054C82B0134600F52C7100220094C2
:1031240005F07CFD02B010BD8D27000010B5054CE4
:1031340082B0134600F52A710022009405F06EFD5A
:1031440002B010BDF918000010B5054C82B013464A
:1031540000F526710022009405F060FD02B010BD58
:103164001115000010B5054C82B0134600F54371EB
:103174000022009405F052FD02B010BDB11A000007
:1031840010B5054C82B0134600F54171002200943D
:1031940005F044FD02B010BD2511000010B5054C2A
:1031A40082B0134600F575710022009405F036FDD7
:1031B40002B010BDCD1B000010B5054C82B0134603
:1031C40000F567710122009405F028FD02B010BDDE
:1031D4006D1B000010B5054C82B0134600F57571E7
:1031E4000122009405F01AFD02B010BDCD1B0000B1
:1031F40010B5054C82B0134600F57371012200949A
:1032040005F00CFD02B010BD7127000010B5054C8F
:1032140082B0134600F573710022009405F0FEFCA1
:1032240002B010BD7127000010B5054C82B01346E2
:1032340000F571710022009405F0F0FC02B010BD9D
:10324400AD1B000010B5054C82B0134600F56D713E
:103254000022009405F0E2FC02B010BD79150000D4
:1032640010B5054C82B0134600F585610022009428
:1032740005F0D4FC02B010BD651D000010B5054C6E
:1032840082B0134600F584610022009405F0C6FC68
:1032940002B010BD2112000010B5054C82B01346D7
:1032A40000F5AA610022009405F0B8FC02B010BD3C
:1032B4007914000010B5054C82B0134600F2945105
:1032C4000022009405F0AAFC02B010BD49160000CB
:1032D40010B5054C82B0134600F28C5100220094C4
:1032E40005F09CFC02B010BD3928000010B5054C57
:1032F40082B0134600F284510022009405F08EFC43
:1033040002B010BD1928000010B5054C82B0134658
:1033140000F27C510022009405F080FC02B010BD44
:103324005D1E000030B5174B83B0144600F2A45163
:10333400009301222346054605F070FC0023124841
:10334400B7EE000A19460122CDE90040284604F0F0
:103354008FFF00230D48022219469FED0D0ACDE987
:103364000040284604F084FF00230A4902229FED0E
:103374000A0A2846CDE90041194604F079FF03B052
:1033840030BD00BFF95400005D1300007913000044
:1033940000004842951300000000204210B5054C7F
:1033A40082B0134600F5EC710022009405F036FC5F
:1033B40002B010BDED53000010B5054C82B01346A9
:1033C40000F5F0710022009405F028FC02B010BD55
:1033D4007D17000010B5054C82B0134600F50C7142
:1033E4000022009405F01AFC02B010BDFD17000085
:1033F40010B5054C82B0134600F2745100220094BB
:1034040005F00CFC02B010BD5912000001B1704768
:1034140000F5E27106F038BB01B1704700F5EA71BE
:1034240006F032BB01B1704700F5E87106F02CBB21
:1034340030B5002383B0154609490446B7EE000AA7
:10344400019101221946009504F012FF2A4604F561
:103454004B71204603B0BDE8304006F015BB00BFF9
:103464002514000000F5477106F00EBB00F55771F6
:1034740006F00ABB30B5002383B01546094904465B
:10348400B7EE000A019101221946009504F0F0FEFE
:103494002A4604F58961204603B0BDE8304006F0B1
:1034A400F3BA00BF6914000000F5876106F0ECBAB6
:1034B40000F58F6106F0E8BA00F5AC6106F0E4BAF5
:1034C40000F5B46106F0E0BA00F2246106F0DCBA5B
:1034D40000F5C96106F0D8BA00F5D26106F0D4BA95
:1034E40000F5CD6106F0D0BA10B5134684B00022C1
:1034F4000849044603930091114604F0E3FE0022B8
:1035040005492046039B0091114604F0DBFE04B0FC
:1035140010BD00BFA9080000BD3C000010B5134653
:1035240084B000220849044603930091114604F034
:10353400C9FE002205492046039B0091114604F070
:10354400C1FE04B010BD00BFDD440000D110000076
:1035540030B50A4985B01346044600910022012182
:10356400074D039304F0AEFE039B00220121204685
:10357400009504F0A7FE05B030BD00BF051A000099
:10358400E519000010B5134684B00022084904462A
:1035940003930091114604F095FE0022054920464C
:1035A400039B0091114604F08DFE04B010BD00BFD2
:1035B400C54B0000CD11000030B50A4985B0134653
:1035C4000446009100220121074D039304F07AFE82
:1035D400039B002201212046009504F073FE05B0F0
:1035E40030BD00BF991C0000B91C000010B5134683
:1035F40084B000220849044603930091114604F064
:1036040061FE002205492046039B0091114604F007
:1036140059FE04B010BD00BFC9120000E12700002C
:1036240010B5134684B00022084904460393009160
:10363400114604F047FE002205492046039B0091F1
:10364400114604F03FFE04B010BD00BFAD120000EF
:10365400C527000010B5134684B00022084904466B
:1036640003930091114604F02DFE002205492046E3
:10367400039B0091114604F025FE04B010BD00BF69
:10368400911200007512000030B50A4985B0134646
:103694000446009100220121074D039304F012FE19
:1036A400039B002201212046009504F00BFE05B087
:1036B40030BD00BF8D5400007D1E000000B51346D0
:1036C40083B0002203490091114604F0FBFD03B0CE
:1036D4005DF804FB7555000000B5134683B0002265
:1036E40003490091114604F0EDFD03B05DF804FBBD
:1036F400F155000000B5134683B000220349009140
:10370400114604F0DFFD03B05DF804FB6D560000C4
:1037140030B5134685B0002208490446084D00918F
:103724001146039304F0CEFD039B002201212046A1
:10373400009504F0C7FD05B030BD00BF512700005F
:10374400D50E000010B5054C82B0134600F5CC71BF
:103754000022009404F044FF02B010BDAD3D00000F
:1037640010B5054C82B0134600F5CC7101220094CB
:1037740004F036FF02B010BDAD3D000010B5064C9C
:1037840082B0002300F5E471CDE90024022204F0A4
:1037940037FD02B010BD00BF2117000010B5064C64
:1037A40082B0012300F5E471CDE90024022204F083
:1037B40027FD02B010BD00BF2117000010B5064C54
:1037C40082B0012300F5F471CDE90024022204F053
:1037D40017FD02B010BD00BFDD1E000010B5064C81
:1037E40082B0002300F5F471CDE90024022204F034
:1037F40007FD02B010BD00BFDD1E000010B5064C71
:1038040082B0002300F50B71CDE90024022204F0FC
:10381400F7FC02B010BD00BFE109000010B5064C72
:1038240082B0012300F50B71CDE90024022204F0DB
:10383400E7FC02B010BD00BFE109000010B5064C62
:1038440082B0012300F50E71CDE90024022204F0B8
:10385400D7FC02B010BD00BFE91E000010B5064C35
:1038640082B0002300F50E71CDE90024022204F099
:10387400C7FC02B010BD00BFE91E000030B50C4902
:1038840083B0154601230446CDE9002100F53671C5
:10389400022204F0B5FC0749012302222046CDE9A7
:1038A400005104F5357104F0ABFC03B030BD00BF2A
:1038B400A10A0000790A000010B5064C82B000236A
:1038C40000F51F71CDE90024022204F099FC02B036
:1038D40010BD00BF550A000010B5064C82B001238C
:1038E40000F51F71CDE90024022204F089FC02B026
:1038F40010BD00BF550A000030B50C4983B0144612
:1039040000230546CDE9002100F53871012204F0B9
:1039140077FC0023064911229FED060A2846CDE9CB
:103924000041194604F0A4FC03B030BDA9270000EF
:103934007D4200000000000010B5012382B0054C58
:1039440000F53E71CDE900241A4604F059FC02B09A
:1039540010BD00BF911A000070B5002382B0154657
:103964000E491A460446019100F53A71009504F097
:1039740047FC00230A4804F53D711A46094ECDE977
:103984000050204604F03CFC2B46002204F53F7115
:103994002046009605F042F902B070BD991000006F
:1039A400ED100000C90A000010B5012382B0054CD7
:1039B40000F53871CDE900241A4604F021FC02B068
:1039C40010BD00BFA927000010B5064C82B001232A
:1039D40000F53C71CDE90024032204F011FC02B08F
:1039E40010BD00BFA919000030B50C4983B01546BD
:1039F40001230446CDE9002100F53D71002204F0C5
:103A0400FFFB0749012300222046CDE9005104F5BC
:103A14003A7104F0F5FB03B030BD00BFED100000B7
:103A24009910000010B5064C82B0002300F53B71DC
:103A3400CDE90024032204F0E3FB02B010BD00BF73
:103A44008919000010B5064C82B0002300F53571C9
:103A5400CDE90024022204F0D3FB02B010BD00BF64
:103A6400790A000010B5064C82B0002300F53E71BF
:103A7400CDE90024012204F0C3FB02B010BD00BF55
:103A8400911A000070B50F4B82B0154600220093C6
:103A940004462B46114604F015FC00230A4804F59D
:103AA4003D711A46094ECDE90050204604F0A8FBAA
:103AB4002B46012204F52E712046009605F0AEF83F
:103AC40002B070BDE5440000ED10000019190000BB
:103AD40010B5064C82B0002300F53C71CDE90024FA
:103AE400032204F08DFB02B010BD00BFA919000031
:103AF40010B5064C82B0002300F54571CDE90024D1
:103B0400022204F07DFB02B010BD00BFF10A0000E8
:103B140010B5064C82B0012300F54571CDE90024AF
:103B2400022204F06DFB02B010BD00BFF10A0000D8
:103B340030B50C4983B0154601230446CDE9002174
:103B440000F57D71022204F05BFB07490123022288
:103B54002046CDE9005104F57C7104F051FB03B01B
:103B640030BD00BFD50B0000AD0B000010B5064CF6
:103B740082B0002300F56671CDE90024022204F02E
:103B84003FFB02B010BD00BF890B000010B5064C0E
:103B940082B0012300F56671CDE90024022204F00D
:103BA4002FFB02B010BD00BF890B000030B50C49DB
:103BB40083B0144600230546CDE9002100F57F714A
:103BC400012204F01DFB0023064911229FED060A81
:103BD4002846CDE90041194604F04AFB03B030BD44
:103BE40055270000654900000000000010B50123BE
:103BF40082B0054C00F21441CDE900241A4604F0C9
:103C0400FFFA02B010BD00BF451D000070B50023CF
:103C140082B015460E491A460446019100F2044149
:103C2400009504F0EDFA00230A4804F582611A466F
:103C3400094ECDE90050204604F0E2FA2B4600225A
:103C440004F583612046009604F0E8FF02B070BDDD
:103C540095110000E9110000FD0B000010B50123CF
:103C640082B0054C00F57F71CDE900241A4604F0BA
:103C7400C7FA02B010BD00BF5527000010B5064CAE
:103C840082B0012300F20C41CDE90024032204F0A8
:103C9400B7FA02B010BD00BF5D1C000030B50C497E
:103CA40083B0154601230446CDE9002100F5826165
:103CB400002204F0A5FA0749012300222046CDE999
:103CC400005104F2044104F09BFA03B030BD00BF7C
:103CD400E91100009511000010B5064C82B00023D4
:103CE40000F57C71CDE90024022204F089FA02B0C7
:103CF40010BD00BFAD0B000010B5064C82B0002310
:103D040000F58161CDE90024032204F079FA02B0C0
:103D140010BD00BF3D1C000010B5064C82B000234E
:103D240000F21441CDE90024012204F069FA02B042
:103D340010BD00BF451D000070B50F4B82B0154685
:103D44000022009304462B46114604F0BBFA0023DC
:103D54000A4804F582611A46094ECDE9005020460E
:103D640004F04EFA2B46012204F5757120460096A4
:103D740004F054FF02B070BDCD4B0000E911000007
:103D8400CD1B000010B5064C82B0002300F20C419C
:103D9400CDE90024032204F033FA02B010BD00BFC1
:103DA4005D1C000010B5064C82B0002300F586614E
:103DB400CDE90024022204F023FA02B010BD00BFB2
:103DC400250C000010B5064C82B0012300F5866175
:103DD400CDE90024022204F013FA02B010BD00BFA2
:103DE400250C000010B5064C82B0002300F5A86134
:103DF400CDE90024012204F003FA02B010BD00BF93
:103E0400C151000010B5064C82B0002300F24451A9
:103E1400CDE90024142204F0F3F902B010BD00BF70
:103E2400051E000010B5064C82B0002300F5A76102
:103E3400CDE90024022204F0E3F902B010BD00BF72
:103E4400C51D000010B5012382B0054C00F5A86122
:103E5400CDE900241A4604F0D3F902B010BD00BF26
:103E6400C151000030B50B4983B015460123044607
:103E7400CDE9002100F5A761022204F0C1F9002276
:103E840005492B4620460091114604F01BFA03B065
:103E940030BD00BFC51D00007150000010B5064CB8
:103EA40082B0012300F29C51CDE90024032204F0E6
:103EB400A7F902B010BD00BF8114000010B5064C74
:103EC40082B0002300F29C51CDE90024032204F0C7
:103ED40097F902B010BD00BF8114000010B5064C64
:103EE40082B0012300F28C61CDE90024032204F0A6
:103EF40087F902B010BD00BF255E000010B5064C66
:103F040082B0002300F28C61CDE90024032204F086
:103F140077F902B010BD00BF255E0000014B1321EC
:103F240004F0A0BD75090000014B132104F09ABDF3
:103F3400050A0000014B132104F094BD310D00006B
:103F4400014B132104F08EBD75210000014B132198
:103F540004F088BDE9210000014B132104F082BD67
:103F64005D220000014B132104F07CBD515B000075
:103F740010B5054C82B0134600F5FC710222009482
:103F840004F012FA02B010BDA552000030B500F5DD
:103F9400127585B0044611462846039204F090FA3F
:103FA400094A039B294620460092084D002204F04A
:103FB400FBF9039B002204F520712046009504F0D0
:103FC4002DFE05B030BD00BF4D1F0000B918000024
:103FD40010B5054C82B0134600F51271022200940C
:103FE40004F0E2F902B010BD4D1F000030B500F539
:103FF400597585B0044611462846039204F060FAC8
:10400400094A039B294620460092084D002204F0E9
:10401400CBF9039B002204F567712046009504F058
:10402400FDFD05B030BD00BFAD1F00006D1B0000DD
:1040340010B5054C82B0134600F559710222009464
:1040440004F0B2F902B010BDAD1F000010B5054C6C
:1040540082B0134600F590610022009404F0A4F9A4
:1040640002B010BD2121000070B5012382B01546B5
:10407400094904461A46019100F24C51074E009535
:1040840004F0BEF82B46022204F214512046009696
:1040940004F08AF902B070BD0D0D0000DD200000AF
:1040A40010B5054C82B0134600F59E6100220094C1
:1040B40004F07AF902B010BD9920000010B5054C47
:1040C40082B0134600F59E610222009404F06CF95C
:1040D40002B010BD9920000030B585B004461146E9
:1040E40000F59E60039204F0EBF90A492046039B15
:1040F4000022009104F21451074D04F055F9039B7A
:10410400002204F59C712046009505F0D5FB05B00E
:1041140030BD00BFDD2000004125000070B500F275
:10412400145584B0044611462846039204F0C8F995
:10413400094A039B04F59C7120460092074E002215
:1041440005F0BAFB039B002229462046009604F0A2
:104154002BF904B070BD00BF41250000DD20000034
:1041640030B500F5906585B00446114628460392A3
:1041740004F0A6F90D4A039B04F2A44120460092E0
:10418400002204F011F90A4A039B294620460092B2
:104194000025002204F008F9039B012204F5A47110
:1041A4002046009505F00AFC05B030BD714F0000B3
:1041B4002121000070B5002382B015460A49044647
:1041C400B3EE0E0A019113221946084E009504F02D
:1041D4004FF82B46002204F2BC512046009604F00E
:1041E40087F902B070BD00BFB1210000492600006C
:1041F40010B5054C82B0134600F2BC510122009464
:1042040004F076F902B010BD4926000010B5054C43
:1042140082B0134600F2C4510122009404F068F9FC
:1042240002B010BDA524000070B5002382B015466D
:104234000A490446B2EE040A019113221946084EB3
:10424400009504F015F82B46002204F2DC512046B8
:10425400009604F04DF902B070BD00BF25220000A5
:10426400A126000010B5054C82B0134600F2DC51C3
:104274000122009404F03CF902B010BDA126000014
:1042840010B5054C82B0134600F2E45101220094AB
:1042940004F02EF902B010BDD924000070B500233B
:1042A40082B015460A4904469FED0A0A0191132279
:1042B4001946094E009503F0DBFF2B46002204F259
:1042C400FC512046009604F013F902B070BD00BF03
:1042D4009D22000000008C42F926000010B5054C18
:1042E40082B0134600F2FC510122009404F000F95C
:1042F40002B010BDF926000010B5054C82B013467B
:1043040000F204610122009404F0F2F802B010BD3E
:104314000D25000008B5034A7321034B034814F02C
:104324005BFA00BF40130020FC120020C4120020DE
:104334000B46114610B40B4CA34205D00A4A9342D3
:1043440009D05DF8044B7047084B002218305DF823
:10435400044B05F003B9064B002218305DF8044BFA
:1043640005F0FCB8749EB1105BC65CCEFD2700005E
:10437400B55B000001B1704713460A4600F1940191
:1043840005F026BA01B1704713460A4600F18801C8
:1043940005F01EBA012914D813460A49002230B583
:1043A40085B00446084D00911146039303F08AFF3B
:1043B400039B002201212046009503F083FF05B0F2
:1043C40030BD704731450000451A000001B1704707
:1043D400F0B50A4B83B006460C4615460093084FC9
:1043E40013460A46012103F06DFF2B4622460121A4
:1043F4003046009703F066FF03B0F0BD051A0000D5
:10440400E519000001B17047F0B50A4B83B00646C8
:104414000C4615460093084F13460A46012103F043
:1044240051FF2B46224601213046009703F04AFFF4
:1044340003B0F0BDB5100000251A0000012914D8FE
:1044440013460A49002230B585B00446084D009150
:104454001146039303F036FF039B002201212046FB
:10446400009503F02FFF05B030BD7047194C0000D4
:10447400F91C000001B17047F0B50A4B83B0064641
:104484000C4615460093084F13460A46012103F0D3
:1044940019FF2B46224601213046009703F012FFF4
:1044A40003B0F0BD991C0000B91C000001B17047B5
:1044B400F0B50A4B83B006460C4615460093084FE8
:1044C40013460A46012103F0FDFE2B462246012134
:1044D4003046009703F0F6FE03B0F0BDB1110000C2
:1044E400D91C000010B5134682B049B1012905D189
:1044F400074C00220094114603F0E4FE02B010BD04
:10450400044C0A46009403F0DDFE02B010BD00BF67
:10451400D95700007957000010B5134682B049B14D
:10452400012905D1074C00220094114603F0CAFE6C
:1045340002B010BD044C0A46009403F0C3FE02B05E
:1045440010BD00BFE15700008157000010B51346AD
:1045540082B049B1012905D1074C002200941146CB
:1045640003F0B0FE02B010BD044C0A46009403F000
:10457400A9FE02B010BD00BFE95700008957000032
:10458400012900D0704730B5144683B0054D0A4662
:10459400002300F24C510094019503F031FE03B066
:1045A40030BD00BF0D0D000001B1704710B5054CC2
:1045B40082B0134600F5F6710122009404F0AEF8BF
:1045C40002B010BD9D17000001B1704710B5054C35
:1045D40082B0134600F50F710122009404F09EF896
:1045E40002B010BD1D18000001B1704710B5054C94
:1045F40082B0134600F5AD610122009404F08EF8F8
:1046040002B010BD590D000001B1704710B5054C42
:1046140082B0134600F5B6610122009404F07EF8DE
:1046240002B010BD810D000001B1704710B5054CFA
:1046340082B0134600F5BA610122009404F06EF8CA
:1046440002B010BDA90D000001B1704710B5054CB2
:1046540082B0134600F5BE610122009404F05EF8B6
:1046640002B010BDD10D000001B1704710B5054C6A
:1046740082B0134600F5CA610122009404F04EF89A
:1046840002B010BDFD0E000070B5144682B00A469B
:10469400B9B1012913D100230D4A05460D4E19461F
:1046A4009FED0D0ACDE90042132203F0E1FD2346FC
:1046B400002205F2C4512846009603F019FF02B007
:1046C40070BD064D2346009503F0FCFD02B070BD9D
:1046D400CD210000A5240000000070422D570000E9
:1046E40070B5144682B00A46B9B1012913D100232A
:1046F4000D4A05460D4E19469FED0D0ACDE90042BF
:10470400132203F0B5FD2346002205F2E4512846A6
:10471400009603F0EDFE02B070BD064D23460095F1
:1047240003F0D0FD02B070BD41220000D924000086
:10473400000070429958000070B5144682B00A46D1
:10474400B9B1012913D100230D4A05460D4E19466E
:104754009FED0D0ACDE90042132203F089FD2346A3
:10476400002205F204612846009603F0C1FE02B05F
:1047740070BD064D2346009503F0A4FD02B070BD44
:10478400B92200000D2500000000A04235590000A8
:10479400704700BF10B5054C82B0134600F5677131
:1047A4000122009404F03AFA02B010BD6D1B00001F
:1047B40010B5054C82B0134600F5757100220094C3
:1047C40004F02CFA02B010BDCD1B000010B5054C4E
:1047D40082B0134600F52E710022009404F01EFAF4
:1047E40002B010BD1919000010B5054C82B0134673
:1047F40000F520710122009404F010FA02B010BDFB
:10480400B918000010B5054C82B0134600F294515B
:104814000022009404F002FA02B010BD4916000010
:1048240010B5054C82B0134600F294510022009456
:1048340004F0F4F902B010BD4916000010B5054C9F
:1048440082B0134600F20C610022009404F0E6F9F1
:1048540002B010BDE512000010B5064C82B0012371
:1048640000F29C51CDE90024032203F0C9FC02B0FC
:1048740010BD00BF8114000010B5064C82B00123A6
:1048840000F29C51CDE90024032203F0B9FC02B0EC
:1048940010BD00BF811400002DE9F04F2DED068BF3
:1048A40087B0DFF87C8004461746DFF878A000F173
:1048B4005C06DFF8749003930AE0484505D1164B73
:1048C4002A4604F1180004F049FE304604F012FBB5
:1048D400304604F0AFFA48B3002505A930460595E3
:1048E40004F002FB059B0146132B40F26983236805
:1048F40051F8040BD3F89030434508D15045DCD12E
:10490400064B2A4604F1180004F028FEDDE70A46A7
:10491400014620469847D8E7B55B0000FD27000014
:10492400F1220000749EB1105BC65CCE236805467C
:10493400F14920469B6D9847039B2669002B40F361
:10494400378304F2246203EB0608A369B7EE008AF6
:10495400B6EE009A0292F5EE008A04F58F62DFED5E
:10496400E7AA04F5B46B9FEDE6AA04F5C96ADFED86
:10497400E59A9E4601920136BEF1000F11D004F172
:10498400180973469A6811688E4209D92046D3E9FA
:1049940003319847484604F02BFEA369002BF1D15C
:1049A4009E46D4F88820D4F88C10D4F8940011448E
:1049B400520A42F07E52C4F8881007EE902A420A46
:1049C40077EEC87A42F07E53D4F8982077EEC97A0D
:1049D4000244C4F89420F0EEE77AD4F8A020002A28
:1049E40077EEE87A67EEAA7A67EEA76A26EEA77AE8
:1049F400E7EE0A7A27EE267AE7EE297A07EE103AEE
:104A040037EE487A37EE497AB0EEC77A37EE687AED
:104A140027EE2A7A27EE076A66EE076AA6EE8A7AF6
:104A240066EE866AA6EEA97A37EE274A27EE277A3B
:104A3400C0F2AF82D4ED296AF0EE663AB0EE486A6D
:104A4400D4ED745AD4ED754A013AD4ED717AA5EED9
:104A5400E66AD4F8B010C4F8A02066EEA66A4A0A42
:104A640094ED2E5AD4ED2A5A42F07E5375EEA35A91
:104A740026EE076AC4ED295AA4EE086AE6EE247A03
:104A840027EE857A07EE903A77EEC87A77EEC97A00
:104A9400F0EEE77A77EEE87A67EEAA7A67EEA75A3D
:104AA40025EEA76AE6EE0A7A26EE256AE6EE297A6C
:104AB40066EEA76AFDEEC77A17EE902A0A44C4F898
:104AC400B020D4F8BC20002AC0F25E82D4ED304A73
:104AD400B0EE642ADBED007A013A94ED315AB0EE7F
:104AE400004A64EEA77ADFED8A3A35EE025A02995B
:104AF400DAED005ABFEE006A67EEA77A91ED007A0C
:104B040084ED305ADFED832A67EE255A67EEA47AE6
:104B1400D4F8CC10C4F8BC204A0AD4ED351ABBFE34
:104B2400672A77EEC27A42F07E529FED7B3A65EEB9
:104B3400A15A77EEC97AFDEEE55AF0EEE77A77EE00
:104B4400E87A67EEA37A67EEA73A23EEA75AE5EE72
:104B5400627A25EE235AE5EE037A05EE102A15EE65
:104B6400902A35EE485A0A44A5EE046AC4F8CC20CB
:104B7400D4F8D82067EEA47A002AB0EEC66A26EEEE
:104B8400076AC0F2FC81D4ED374AB0EE645AA6EE4F
:104B9400247AD4F8E8000199013AD4ED3C5ABFEEE6
:104BA400004A91ED003AB1EE002AC4F8D820420A36
:104BB40094ED386A42F07E53D4F8F41036EE056A68
:104BC400DFED572A27EE255A05EE903A4A0ADFED23
:104BD400553A75EEC85A84ED376A42F07E53B0EE0A
:104BE400446ABDEEC55A38EE657A15EE102AC5FE44
:104BF400C75A07EE103AA5EE826A024437EE487AA5
:104C0400D4F80001C4F8E820D4F8F82037EE497A43
:104C1400D0F80CC00A44016826EE246AB0EEC77AC4
:104C2400C4F8F42086FE486A86FE046A37EE687A81
:104C340026EE286A27EE2A7A76EE275A27EE074AC6
:104C440065EEA25A64EE074AC5FEC35AC5FEA35ACE
:104C5400FDEEE55AA4EE8A7A64EE844A15EE902AB3
:104C64009445A4EEA97A40F2A58101EB8202D4ED29
:104C7400444A9FED2A5A04F58961D2ED005A04F59D
:104C8400876227EE257AD2ED005AD4F8142165EE16
:104C9400E45A27EE057A91ED005A002AE5EE075A08
:104CA40075EEA64AC4ED445AC0F27881D4ED462A82
:104CB400B0EE624AD4F82411013A94ED477A44F2F2
:104CC400A710C4F814214A0A37EE047A9FED0E5A4D
:104CD40042F07E53D4F85C2626EE054AD4ED4C1AF5
:104CE40084ED467A07EE103A00FB02F29FED071AB4
:104CF40037EE487A1CE000BFEBC021DDDB0FC94072
:104D0400ABAA2ABE6257003C9A99193FF6FFFF2FBF
:104D1400E40FC940C1AA2A3E8380003CCDCC4C3F5D
:104D24000000804300000000CDCCCC3DCDCCCC3E77
:104D34001FED033AC4F85C26F0EE003AD4ED4D5A68
:104D440037EE497AB0EEC77A37EE687A27EE2A7AD8
:104D540027EE072A22EE075AA5EE0A7A25EE025A12
:104D6400A5EE297A05EE102A04F5CD62B8EEC52A1F
:104D740092ED005A04F5D26222EE012A25EE615A20
:104D8400A2EE035A75EE655A84ED4C5A84ED4D5AE1
:104D940092ED005AD4F8282165EE855A0A44B0EE03
:104DA400445AE7EE035AC4F82421D4E94E20411CA6
:104DB400D36825EEA27A9942A7EE235A00F207811E
:104DC400126802EB8002D2ED005A04F5AC62C4F81A
:104DD4003C1192ED004AD4F84C11D4F8482165EE08
:104DE400845A01F1010C906835EE855A844500F22D
:104DF400F480136875EEA44AD4F8500103EB8101E2
:104E04001FED3D4A74EE874A1FED3E3A81ED005A8C
:104E1400C4F84CC1C2F810C0420A5FED413A42F0F6
:104E24007E53D4F8542107EE103A024437EE487A00
:104E3400C4F85021D4F85C21BBFE475A37EE457ABA
:104E4400002A37EE497AB0EEC77A37EE687A27EE51
:104E5400047A27EE074A24EE075AA5EE437A25EE94
:104E6400045AA5EE237AC0F29E8094ED585AF0EECF
:104E7400453AD4F86C01013A25EE075A94ED597A73
:104E8400C4F85C21420A37EE237A5FED5C2A42F0D3
:104E94007E53F1EE081AA7EEA26A1FED5F3A84ED85
:104EA400587A07EE103A25EE215A1FED624A37EE82
:104EB400487A94EDD72A5FED643A75EE244AD4F823
:104EC400702137EE497AD4F8781126EE036A024449
:104ED400B0EE443AC868B0EEC77AC4F86C2186FED6
:104EE400426A86FE046AA4EEA33A096837EE687A39
:104EF400BDEEC66A27EE2A7A16EE102A27EE072A96
:104F0400904262EE074AA4EE8A7A64EE824AA4EEE4
:104F1400A97A4FD901EB820294ED621A94EDC76A23
:104F24004645D2ED001A26EE416A94EDCB2A27EECF
:104F3400217A5FED824A3A6827EE227A2A44A2EE69
:104F4400076A76EE266A84ED626A76EEA56A76EEE4
:104F5400856AE7EEA46AA6EEA34A82ED004A7A685F
:104F64002A4405F1040582ED003A7FF404AD039868
:104F7400C4F8108007B0BDEC068BBDE8F08FD4ED0B
:104F8400394A94ED375A02E6D4ED324A94ED302A88
:104F9400A0E5D4ED2B6AD4ED293A4FE5D4ED482AA7
:104FA40094ED464A86E694ED5A5AD4ED583A60E7B1
:104FB400B046DCE70C4B4B210C4A0D4813F00CFCBB
:104FC4000C4B40F602310C4A0C4813F005FC0C4B18
:104FD40059210C4A064813F0FFFB0B4B28210B4ABE
:104FE4000B4813F0F9FB00BF500C0020900C00207C
:104FF400C40C0020A80F0020180C0020A00B0020D7
:10500400000D0020300D00205C0D0020880D0020D4
:10501400B80D002010B50E4B044600F5CC7023608B
:1050240003F0DAFA04F54D7004F08CFD04F58A609F
:1050340004F088FD04F2CC4004F084FD2046FDF722
:10504400FDFB20464FF4D6610FF014F9204610BD45
:10505400B81500202DE9F0412DED048B82B00446F3
:10506400B0EE409B9FEDD08A02AFFDF77DFB20465A
:10507400CE4BB0EE491BB0EE480A04F58A6640F800
:10508400883B04F2CC4504F08BFB6369B0EE491B0A
:1050940004F54D780344B0EE480A04F194006361CA
:1050A40004F07EFB6369034404F1A000636104F02F
:1050B40005FB63690246B0EE490B04F1B0001344EA
:1050C400636104F059FB6369034404F1BC00636148
:1050D40004F0F4FA63690246B0EE490B04F1CC0023
:1050E4001344636104F048FB6369034404F1D8008A
:1050F400636104F0E3FA63690246B0EE490B04F11C
:10510400E8001344636104F037FB6369B0EE491BA4
:105114000344B0EE480A04F1F400636104F040FB78
:105124006369314600221844606104F5807004F01C
:10513400B7FB63691844606104F5887004F09CFB54
:1051440063691844606104F58A7004F0B7FA63690E
:10515400B0EE491B9FED960A1844606104F5927005
:1051640004F01EFB63691844606104F5987004F050
:1051740083FB63691844606104F59A7004F08AFA49
:105184006369012229461844606104F59C7004F0A7
:1051940087FB636929461844606104F5A47004F030
:1051A40007FC6369B0EE491B9FED820A18446061F5
:1051B40004F5A87004F0F4FA63691844606104F516
:1051C400AE7004F07BFA63690246B0EE491BB0EEA0
:1051D400480A04F5B67013449FED779A636104F0AE
:1051E400DFFA6369414600221844606104F5BC702B
:1051F40004F056FB63691844606104F5C47004F05C
:105204003BFB6369B7EE000A1844606104F5C6709D
:1052140003F0F0FC6369002202211844002360615A
:1052240004F5CC70CDE9002303F082F9636901220F
:1052340004211844606104F5CE7003F0ABFA63698D
:10524400012203211844606104F5D27003F0A2FA2C
:105254006369012202211844606104F5D67003F0E9
:1052640099FA6369012218441146606104F5DA7001
:1052740003F090FA6369012200211844606104F587
:10528400DE7003F087FA6369F0EE480A00211844DF
:10529400B0EE480A606104F5E27004F0EFFB636964
:1052A400B0EE480A1844606104F5E47002F0A2FF0D
:1052B4006369F0EE480A00211844B0EE480A6061C0
:1052C40004F5E87004F0DAFB6369F0EE480A0021A3
:1052D4001844B0EE480A606104F5EA7004F0CEFBAD
:1052E4006369B0EE480A1844606104F5EC7003F099
:1052F40081FC6369B0EE480A1844606104F5F070FB
:1053040003F078FC6369B0EE000A1844606104F5A8
:10531400F47002F06FFF636928491844606104F572
:10532400F67003F0F3F963690122184411466061D1
:1053340004F5F87003F02EFA636904F5FC71B0EE1D
:10534400480A18446061204603F020F863699FED21
:105354001C0A1844606104F5077003F04BFC636990
:10536400B0EE480A1844606104F50B7002F042FF85
:105374006369B0EE480A1844606104F50C7003F0E8
:1053840039FC6369B0EE000A1844606104F50E70DC
:1053940002F030FF63690B491844606104F50F7033
:1053A40003F0B4F910E000BF00000000B8150020BD
:1053B4000000664300002F440044AC46781A872658
:1053C400000070431991BFF063690122184411462B
:1053D400606104F5107003F0DDF9636904F512717E
:1053E400B0EE480A18446061204602F0CFFF6369BA
:1053F400B3EE040A1844606104F51B7003F0FAFB71
:105404006369B0EE480A1844606104F51F7002F045
:10541400F1FE6369B0EE480A1844606104F5207037
:1054240003F0E8FB63694FF0FF3201211844606127
:1054340004F5227003F0AEF963694FF0FF320121E5
:105444001844606104F5247003F0A4F96369B0EEB4
:10545400480A1844606104F5267003F0CBFB6369C5
:10546400B7EE000A1844606104F5287003F0C2FB2B
:105474006369B0EE480A1844606104F52A7003F0C9
:10548400B9FB6369B0EE480A1844606104F52C70F6
:1054940003F0B0FB6369B0EE480A1844606104F598
:1054A4002E7003F0A7FB6369012218441146606162
:1054B40004F5307003F06EF9636901220021184489
:1054C400606104F5327003F065F96369B0EE480A6F
:1054D4001844606104F5357002F08CFE6369B0EE27
:1054E400480A1844606104F5367002F083FE63696B
:1054F400B0EE480A1844606104F5387002F07AFE90
:105504006369B0EE480A1844606104F53A7002F029
:1055140071FE6369B3EE040A1844606104F53B70DC
:1055240002F068FE6369B0EE480A1844606104F54D
:105534003C7002F05FFE6369B0EE480A1844606193
:1055440004F53D7002F056FE6369B0EE480A184453
:10555400606104F53E7002F04DFE6369B0EE480AE6
:105564001844606104F53F7003F044FB6369B0EED6
:10557400480A1844606104F5417003F03BFB636919
:10558400B0EE490A1844606104F5437003F032FB3D
:105594006369B0EE480A1844606104F5457002F08E
:1055A40029FE6369F0EE480A00211844B0EE480A67
:1055B400606104F5477004F061FA6369F0EE480A2B
:1055C40000211844B0EE480A606104F54B7004F001
:1055D40055FA636902464FF4807140461344D04A39
:1055E400636104F08BFA6369CE491844606104F581
:1055F400527003F007FB636901221844114660618D
:1056040004F5547003F0C6F86369F0EE480A00210B
:105614001844B0EE480A606104F5577004F02EFA9D
:10562400636904F55971B0EE480A18446061204674
:1056340002F0ACFE6369B3EE040A1844606104F539
:10564400627003F0D7FA6369B0EE480A18446061E7
:1056540004F5667002F0CEFD6369B0EE480A1844A2
:10566400606104F5677003F0C5FA63694FF0FF32B7
:1056740001211844606104F5697003F08BF86369D3
:105684004FF0FF3201211844606104F56B7003F0A0
:1056940081F86369B0EE480A1844606104F56D70DE
:1056A40003F0A8FA6369B7EE000A1844606104F5D0
:1056B4006F7003F09FFA6369B0EE480A18446061A2
:1056C40004F5717003F096FA6369B0EE480A184461
:1056D400606104F5737003F08DFA6369B0EE480AF3
:1056E4001844606104F5757003F084FA636901225B
:1056F40018441146606104F5777003F04BF8636950
:10570400002101221844606104F5797003F042F825
:105714006369B0EE480A1844606104F57C7002F0D5
:1057240069FD6369B0EE480A1844606104F57D7050
:1057340002F060FD6369B0EE480A1844606104F544
:105744007F7002F057FD6369B0EE480A1844606147
:1057540004F2044002F04EFD6369B3EE040A1844F7
:10576400606104F5816002F045FD6369B0EE480AAA
:105774001844606104F20C4002F03CFD6369B0EE31
:10578400480A1844606104F5826002F033FD6369DD
:10579400B0EE480A1844606104F2144002F02AFD95
:1057A4006369B0EE480A1844606104F5836003F04D
:1057B40021FA6369B0EE480A1844606104F5846014
:1057C40003F018FA63690246B0EE490A04F58560ED
:1057D4001344636103F00EFA6369B0EE480A0344AC
:1057E40004F58660636102F005FD6369F0EE480A22
:1057F40000211844B0EE480A606104F5876004F0A3
:105804003DF96369F0EE480A00211844B0EE480AF5
:10581400606104F5896004F031F9636902464FF46C
:10582400807130461344404A636104F067F9636948
:105834003E491844606104F2644003F0E3F963698B
:10584400012218441146606104F26C4002F0A2FF88
:105854006369F0EE480A00210344B0EE480A04F5F7
:105864008F60636104F00AF96369B0EE480A04F5D5
:10587400906118446061204602F088FD6369B0EECF
:10588400480A04F2A44118446061204602F07EFDF7
:1058940063694FF4807118446061284604F010F97C
:1058A40063690246294604F2E4401344636103F049
:1058B40095F8636902461E4904F59D6013446361CB
:1058C40003F0A0F96369024604F59E61B2EE040A8E
:1058D40020461344636102F059FD6369024604F2F1
:1058E4001451B0EE480A20461344636102F04EFDA1
:1058F40063690246B2EE040A04F5A76013446361C7
:1059040002F078FC63690246B0EE480A04F5A86028
:105914001344636102F06EFC636902460AE000BF4F
:10592400E0390020F80D0020E0350020040E0020AE
:10593400100E0020B0EE480A04F244501344636190
:1059440002F058FC63690246B0EE480A04F24C5077
:105954001344636102F04EFC63690246B0EE480AE8
:1059640004F5AA601344636103F044F963690246D1
:10597400B0EE480A04F5AB601344636103F03AF9EE
:105984006369F0EE480A00210344B0EE480A04F5C6
:10599400AC60636104F072F863690246B54904F5CA
:1059A400AD601344636102F0B1FE636901220344F4
:1059B40004F26C501146636102F0ECFE6369024626
:1059C400B0EE480A04F274501344636103F012F910
:1059D40063690246B3EE090A04F27C50134463611E
:1059E40003F008F9636902469FEDA30A04F28450A8
:1059F4001344636103F0FEF863690246B3EE040ADC
:105A040004F28C501344636103F0F4F863690246B2
:105A14009FED9A0A04F294501344636103F0EAF888
:105A240063690246B3EE0D0A04F29C5013446361A9
:105A340002F0E0FB6369F0EE480A00210344B0EE93
:105A4400480A04F5B460636104F018F86369024617
:105A5400B7EE000A04F2A4501344636103F0CAF8D9
:105A640063690246864904F5B6601344636102F033
:105A74004DFE63690122034404F2B450114663618C
:105A840002F088FE63690246002104F2BC5013440C
:105A9400636102F029FD63690246002104F2C450E7
:105AA4001344636102F020FD63690246754904F5FD
:105AB400BA601344636102F029FE6369012203445E
:105AC40004F2D4501146636102F064FE6369024635
:105AD400002104F2DC501344636102F005FD6369A4
:105AE4000246002104F2E4501344636102F0FCFC1A
:105AF40063690246644904F5BE601344636102F0BD
:105B040005FE63690122034404F2F4501146636103
:105B140002F040FE63690246002104F2FC50134483
:105B2400636102F0E1FC63690246002104F204604F
:105B34001344636102F0D8FC63690246B0EE480A7C
:105B440004F20C601344636103F054F86369024681
:105B5400B7EE000A04F5C4601344636102F04AFB23
:105B64006369F0EE480A00210344B0EE480A04F2E7
:105B74002460636103F082FF636902469FED430A78
:105B840004F5C7601344636103F034F863690246A3
:105B94009FED3F0A04F5C8601344636103F02AF8DB
:105BA4006369F0EE480A00210344B7EE000A04F5E5
:105BB400C960636103F062FF63690246354904F515
:105BC400CA601344636102F0A1FD636901220344C6
:105BD40004F254601146636102F0DCFD6269002343
:105BE400104419461A46606104F25C6003F056FFE3
:105BF4006369F0EE480A00210344B0EE480A04F554
:105C0400CD60636103F03AFF636902469FED220AA7
:105C140004F26C601344636102F0ECFF63690246B2
:105C2400B0EE480A04F28C601344636102F0E2FAB5
:105C34006369F0EE480A00210344B0EE480A04F513
:105C4400D260636103F01AFF636984B000210344E6
:105C540002A8636103F0AEF9104B0146002204F17F
:105C6400180003F07BFC2046BD46BDEC048BBDE868
:105C7400F08100BF4B13541F00000C420000DC42B3
:105C84002DCB58743DDCE78AFF9AB37F000048426D
:105C940000005C4343ABCA5F00002F44B55B0000C7
:105CA400F0B583B00121054602AF84B0126802AC9E
:105CB400204603F06BF9A388CBB101264FF07E5147
:105CC4000C4A2346E160284631462672009200229F
:105CD40002F0F8FADFF820C02346002231462846B5
:105CE400CDF800C002F0EEFA0437BD46F0BDFEF771
:105CF40011FB00BF3D170000051700000021FFF74E
:105D0400CFBF00BFF0B583B00121054602AF84B018
:105D1400126802AC204603F039F9A3888BB1002342
:105D24000121094A2846094E21721946E2600222DD
:105D34009FED070ACDE9004602F09AFA0437BD4602
:105D4400F0BDFEF7E7FA00BFCDCCCC3D5D170000F7
:105D5400000016442DE9F04F83B002211446064694
:105D640002AF86B0126802AD284603F00FF9002393
:105D740022462846194603F015FAAB88012B33D97D
:105D84004FF000084FF001094FF0000B06F1A00A94
:105D94002B4685F81090C5F814B04246CDF8008023
:105DA4005146304603F094FC86B02268022102ADCD
:105DB400284603F0EBF8BDF80C30ABB122464B4655
:105DC40049462846CDF814B08DF8109003F0EAF94E
:105DD4002B46424651463046CDF8008003F078FC0D
:105DE4000437BD46BDE8F08FFEF794FA0021FFF7B3
:105DF400B1BF00BFF0B583B00521054602AF8CB03A
:105E0400126802AC204603F0C1F8A388002B49D0E5
:105E14000122254993422272E16043D02349022B97
:105E2400227461613ED02249032B2276E16139D08C
:105E34002049042B84F82020616233D01E49234674
:105E44001E4884F828200022E16205F5CE710090F6
:105E5400284602F0A5FC1A48234605F5D2710090A5
:105E640000222846174E02F09BFC1748234605F5EE
:105E7400D67100900022284602F092FC1348234673
:105E840005F5DA7100900022284602F089FC2346C9
:105E9400002205F5DE712846009602F081FC0437E5
:105EA400BD46F0BDFEF736FAFC013B44AEE77F4445
:105EB400AE62313E0010F6445CAF1046CD130000D4
:105EC400D913000045230000E5130000352300002A
:105ED40070B50021054618461C4603F015F9114B10
:105EE40001462046C91AB1FA81F1490903F00CF9B7
:105EF4000D4B98420AD00D4E234605F5F6712846FF
:105F040004960022BDE8704002F008BC084E234607
:105F140005F5F871284604960022BDE8704002F0A9
:105F24003FBC00BF6E0ED60601BD647E9D17000007
:105F340069250000B0B582B00121054602AF84B0E6
:105F4400126802AC204603F021F8A38883B1E388E9
:105F540002200A4A0A490B33E260002220722846D2
:105F6400E38023460091114602F096FCBD46B0BD85
:105F7400044B9421044A054812F02EFCDC0B00204B
:105F8400B9090000FC12002098130020C41200205C
:105F9400F0B583B00121054602AF84B0126802ACAB
:105FA400204602F0F3FFA38893B1E38802210B4A51
:105FB40028460B4E0633217205F5FC71E26000227F
:105FC400E3802346009602F0EFF90437BD46F0BDA6
:105FD400044B9421044A054812F0FEFBE80B002010
:105FE400A5520000FC12002098130020C4120020C7
:105FF40070B50021054618461C4603F085F80F4B82
:1060040001462046C91AB1FA81F1490903F07CF826
:1060140060B10B4B984209D00A4E00222346284611
:1060240004961146BDE8704002F04CB92246284659
:106034000021BDE87040FFF7ABBF00BF6E0ED6066F
:106044002D035B7A1553000070B5002105461846F0
:106054001C4603F059F8114B01462046C91AB1FAFF
:1060640081F1490903F050F80D4B98420AD00D4EC6
:10607400234605F50F71284604960022BDE87040BA
:1060840002F04CBB084E234605F5107128460496D1
:106094000022BDE8704002F083BB00BF6E0ED6063E
:1060A40001BD647E1D18000089250000B0B582B0D2
:1060B4000121054602AF84B0126802AC204602F00A
:1060C40065FFA38883B1E38802200A4A0A490B3397
:1060D400E260002220722846E380234600911146A4
:1060E40002F0DAFBBD46B0BD044B9421044A0548D6
:1060F40012F072FBDC0B00203D180000FC120020A3
:1061040098130020C4120020B0B582B001210546C6
:1061140002AF84B0126802AC204602F037FFA388B5
:1061240083B1E38802200A4A0A490B33E260002261
:1061340020722846E38023460091114602F0ACFB0E
:10614400BD46B0BD044B9421044A054812F044FBFB
:10615400DC0B00202D0A0000FC1200209813002004
:10616400C4120020F0B583B00121054602AF84B00B
:10617400126802AC204602F009FFA38893B1E388B9
:1061840002210B4A28460B4E0633217205F5127183
:10619400E2600022E3802346009602F005F904370A
:1061A400BD46F0BD044B9421044A054812F014FB8B
:1061B400E80B00204D1F0000FC1200209813002063
:1061C400C412002070B50021054618461C4602F092
:1061D4009BFF0F4B01462046C91AB1FA81F14909C8
:1061E40002F092FF60B10B4B984209D00A4E002294
:1061F4002346284604961146BDE8704002F062B872
:10620400224628460021BDE87040FFF7ABBF00BF1F
:106214006E0ED6062D035B7ADD41000030B585B0E5
:10622400002104460B4D0392FFF79CFF0A492046C8
:10623400039B0022009104F5127102F0B5F8039B50
:10624400002204F520712046009502F0E7FC05B019
:1062540030BD00BFB91800004D1F000070B500210B
:10626400054618461C4602F04FFF114B01462046D6
:10627400C91AB1FA81F1490902F046FF18B1B0F127
:106284007E5F0AD070BD0B4E23460246014604963B
:106294002846BDE8704002F015B8074E0022234698
:1062A400284604961146BDE8704002F00BB800BFC2
:1062B4006E0ED60661100000DD14000000211346A6
:1062C40000B583B00A460091FFF7C8FF03B05DF83C
:1062D40004FB00BF70B5002182B0054618461C4679
:1062E40002F012FF264B01462046C91AB1FA81F189
:1062F400490902F009FF234B98420ED0224B9842E1
:1063040011D1224E2346002205F522712846069615
:1063140002B0BDE8704002F043BA1D4E234600228D
:1063240005F52471F2E700221A4923462846009114
:10633400114601F0C7FF1849234628460091002260
:1063440005F5307102F02CFA1449234628460091D1
:10635400002205F5327102F023FA00221049234687
:1063640028460091114601F0ADFF0E490022234654
:1063740006912846114602B0BDE8704001F0A2BF64
:106384006E0ED606AB4D003E2D035B7A254500000C
:1063940055230000091100008D230000C5230000CF
:1063A40069440000794500000021134600B583B01C
:1063B4000A460091FFF78EFF03B05DF804FB00BFAF
:1063C40070B5002182B0054618461C4602F09CFEBA
:1063D4001A4B01462046C91AB1FA81F1490902F063
:1063E40093FE50B9164E02460146234628460696A9
:1063F40002B0BDE8704001F065BF12492846002391
:106404000222114ECDE9004105F5367101F0F8FE86
:106414000E49284601230322CDE9004105F53B71CD
:1064240001F0EEFE2346002205F51B712846069670
:1064340002B0BDE8704002F0F1BB00BF6E0ED6069C
:10644400F9450000A10A000079180000891900002C
:106454000021134600B583B00A460091FFF7B0FF50
:1064640003B05DF804FB00BFB0B582B0012105465E
:1064740002AF84B0126802AC204602F087FDA38804
:106484007BB100224FF07E514FF0010C2346E160B6
:106494002846114684F808C00092FFF793FEBD46D3
:1064A400B0BDFDF737FF00BF0021FFF7DDBF00BF20
:1064B400F0B583B00121054602AF84B0126802AC86
:1064C400204602F063FDA38813B3002201260021B5
:1064D400234628462672E16011460092FFF772FEB9
:1064E4000C49334628460022CDE9004105F53D71AB
:1064F40001F086FEDFF820C03346002205F53A712C
:106504002846CDE9004C01F07BFE0437BD46F0BDC2
:10651400FDF700FFED100000991000000021FFF7C7
:10652400C7BF00BF0021FFF7C3BF00BFB0B582B033
:106534000121054602AF84B0126802AC204602F085
:1065440025FDA38863B10022012000212346207287
:106554002846E16011460092FFF734FEBD46B0BD07
:10656400FDF7D8FE012902D80021FFF7DFBF7047ED
:106574000021FFF7DBBF00BFB0B582B001210546A3
:1065840002AF84B0126802AC204602F0FFFCA3887C
:106594006BB10122002007492346E060284622729D
:1065A400009105F5267102F039FBBD46B0BDFDF73B
:1065B400B1FE00BF111500000021FFF7DDBF00BFD1
:1065C400F0B583B00121044602AF84B0126802AE74
:1065D400304602F0DBFCB3881BB301251249134A91
:1065E400204635720023F16004F5367101920222CF
:1065F400009601F005FE0E482B460E4D04F53B7146
:106604000322CDE90060204601F0FAFD3346002262
:1066140004F51B712046009502F000FB0437BD46CB
:10662400F0BDFDF777FE00BF0000A041A10A000005
:1066340089190000791800000021FFF7C1BF00BFCD
:10664400B0B582B00121054602AF84B0126802AC35
:10665400204602F09BFCA38883B1E38802200A4A07
:106664000A490B33E260002220722846E380234665
:106674000091114602F010F9BD46B0BD044B9421BF
:10668400044A054812F0A8F8DC0B0020B9460000C3
:10669400FC12002098130020C4120020F0B583B02F
:1066A40002211546064602AF86B0126802AC2046A7
:1066B40002F06CFCA388B3B10C4801212A460023E4
:1066C400E0602046217202F06DFD094D00239FED2C
:1066D400090A032230461946CDE9004501F0C8FDF8
:1066E4000437BD46F0BDFDF715FE00BFE40FC940F9
:1066F400D11A0000000000000021FFF7CFBF00BF47
:106704002DE9F04182B003211546064602AF88B058
:10671400126802AC204602F039FCA3881BB3E3885C
:106724004FF0020813492A4606332046E16001214E
:10673400E380002384F8088002F034FDA3884345F5
:1067440011D9E38830460C4A0C490533E261002232
:10675400E380234684F818800091114602F09CF8E7
:10676400BD46BDE8F081064B9421064A064812F066
:1067740033F800BFF80B0020000C00203D0B000094
:10678400FC12002098130020C41200200021FFF7FF
:10679400B7BF00BFB0B582B00121054602AF84B0D7
:1067A400126802AC204602F0F1FBA38883B1E388AF
:1067B40002200A4A0A490B33E2600022207228466A
:1067C400E38023460091114602F066F8BD46B0BD51
:1067D400044B9421044A054811F0FEFFDC0B002011
:1067E400F11A0000FC12002098130020C4120020AB
:1067F400B0B582B00121054602AF84B0126802AC84
:10680400204602F0C3FBA38883B1E38802200A4A2E
:106814000A490B33E260002220722846E3802346B3
:106824000091114602F038F8BD46B0BD044B9421E6
:10683400044A054811F0D0FFDC0B0020610B000076
:10684400FC12002098130020C4120020F0B583B07D
:106854000121054602AF84B0126802AC204602F062
:1068640095FBA38893B1E38802210B4A28460B4E7B
:106874000633217205F55971E2600022E380234654
:10688400009601F091FD0437BD46F0BD044B942100
:10689400044A054811F0A0FFE80B0020AD1F0000DA
:1068A400FC12002098130020C412002070B50021AF
:1068B400054618461C4602F027FC0F4B01462046AD
:1068C400C91AB1FA81F1490902F01EFC60B10B4BFF
:1068D400984209D00A4E00222346284604961146BF
:1068E400BDE8704001F0EEBC224628460021BDE818
:1068F4007040FFF7ABBF00BF6E0ED6062D035B7A68
:10690400C548000030B585B0002104460B4D039204
:10691400FFF79CFF0A492046039B0022009104F5DF
:10692400597101F041FD039B002204F56771204673
:10693400009502F073F905B030BD00BF6D1B000077
:10694400AD1F000070B50021054618461C4602F034
:10695400DBFB114B01462046C91AB1FA81F1490902
:1069640002F0D2FB18B1B0F17E5F0AD070BD0B4EBD
:1069740023460246014604962846BDE8704001F0CD
:10698400A1BC074E00222346284604961146BDE8C2
:10699400704001F097BC00BF6E0ED6065D1100007A
:1069A400451500000021134600B583B00A46009146
:1069B400FFF7C8FF03B05DF804FB00BF70B500210A
:1069C40082B0054618461C4602F09EFB264B014643
:1069D4002046C91AB1FA81F1490902F095FB234B0B
:1069E40098420ED0224B984211D1224E23460022C7
:1069F40005F569712846069602B0BDE8704001F0BD
:106A0400CFBE1D4E2346002205F56B71F2E700222E
:106A14001A49234628460091114601F053FC1849AF
:106A2400234628460091002205F5777101F0B8FE4F
:106A34001449234628460091002205F5797101F096
:106A4400AFFE00221049234628460091114601F06A
:106A540039FC0E490022234606912846114602B00D
:106A6400BDE8704001F02EBC6E0ED606AB4D003E64
:106A74002D035B7A0D4C0000FD230000051200007D
:106A8400352400006D240000514B0000614C0000CF
:106A94000021134600B583B00A460091FFF78EFF2C
:106AA40003B05DF804FB00BF70B5002182B0054659
:106AB40018461C4602F028FB1A4B01462046C91A08
:106AC400B1FA81F1490902F01FFB50B9164E024692
:106AD400014623462846069602B0BDE8704001F000
:106AE400F1BB1249284600230222114ECDE9004190
:106AF40005F57D7101F084FB0E492846012303222C
:106B0400CDE9004105F5816101F07AFB23460022BD
:106B140005F562712846069602B0BDE8704002F0A1
:106B24007DB800BF6E0ED606E14C0000D50B000008
:106B34002D1B00003D1C00000021134600B583B04E
:106B44000A460091FFF7B0FF03B05DF804FB00BFF5
:106B5400B0B582B00121054602AF84B0126802AC20
:106B6400204602F013FAA3887BB100224FF07E5135
:106B74004FF0010C2346E1602846114684F808C012
:106B84000092FFF793FEBD46B0BDFDF7C3FB00BF07
:106B94000021FFF7DDBF00BFF0B583B0012105463A
:106BA40002AF84B0126802AC204602F0EFF9A38869
:106BB40013B3002201260021234628462672E160F1
:106BC40011460092FFF772FE0C4933462846002214
:106BD400CDE9004105F5826101F012FBDFF820C028
:106BE4003346002205F204412846CDE9004C01F069
:106BF40007FB0437BD46F0BDFDF78CFBE91100002F
:106C0400951100000021FFF7C7BF00BF0021FFF767
:106C1400C3BF00BFB0B582B00121054602AF84B046
:106C2400126802AC204602F0B1F9A38863B10022D5
:106C340001200021234620722846E160114600927B
