:0200000460009A
:100000004643464200000156000000000103030081
:1000100000000000000000000000000000000000E0
:1000200000000000000000000000000000000000D0
:1000300000000000000000000000000000000000C0
:1000400000000000010408000000000000000000A3
:100050000000200000000000000000000000000080
:100060000000000000000000000000000000000090
:100070000000000000000000000000000000000080
:10008000EB04180A063204260000000000000000FD
:10009000050404240000000000000000000000002F
:1000A0000000000000000000000000000000000050
:1000B0000604000000000000000000000000000036
:1000C0000000000000000000000000000000000030
:1000D00020041808000000000000000000000000DC
:1000E0000000000000000000000000000000000010
:1000F0000000000000000000000000000000000000
:10010000D8041808000000000000000000000000F3
:100110000204180804200000000000000000000095
:1001200000000000000000000000000000000000CF
:10013000600400000000000000000000000000005B
:1001400000000000000000000000000000000000AF
:10015000000000000000000000000000000000009F
:10016000000000000000000000000000000000008F
:10017000000000000000000000000000000000007F
:10018000000000000000000000000000000000006F
:10019000000000000000000000000000000000005F
:1001A000000000000000000000000000000000004F
:1001B000000000000000000000000000000000003F
:1001C000000100000010000001000000000000001D
:1001D000000001000000000000000000000000001E
:1001E000000000000000000000000000000000000F
:1001F00000000000000000000000000000000000FF
:10020000FFFFFFFFFFFFFFFFFFFFFFFFFFFFFFFFFE
:10021000FFFFFFFFFFFFFFFFFFFFFFFFFFFFFFFFEE
:10100000D1002043491600600000000000000000ED
:10101000201000600010006000DC01600000000093
:101020000000006000E8010000000000FFFFFFFF7B
:10103000FFFFFFFFFFFFFFFFFFFFFFFFFFFFFFFFC0
:10104000FFFFFFFFFFFFFFFFFFFFFFFFFFFFFFFFB0
:10105000FFFFFFFFFFFFFFFFFFFFFFFFFFFFFFFFA0
:10106000FFFFFFFFFFFFFFFFFFFFFFFFFFFFFFFF90
:10140000814205D051F8043B40F8043B8242F9D8B0
:10141000704700BF044A05494FF0000342F8043BFF
:101420009142FBD8704700BFC0420020805400208A
:101430002DE98848BFF34F8F00BF00BF00BF00BF3A
:1014400000F07AFA674B0822C3F8542100BF00BFAE
:1014500000BF00BF00BF00BF00BF00BF00BF00BF94
:1014600000BF00BF00BF00BF00BF00BF5E4A5F49B2
:101470005F48FFF7C5FF5F4A5F496048FFF7C0FF5D
:101480005F4CFFF7C7FF4FF470004FF0E0210023DF
:101490005C4AC1F8880D44F823200133B02BFAD1FF
:1014A000594B8021594A03F8011B9342FBD14FF05D
:1014B000E0254C4E4FF08039DFF880B1DFF880A195
:1014C0004FF0FF31C5F8084D0027C6F80491C6F863
:1014D00000B1C6F8F490C6F8F0A0D5F8243DDFF8C6
:1014E000648143F4E0234A4AC5F8243DD8F81C300F
:1014F00023F07F0343F04003C8F81C30D8F82430B1
:1015000023F07F0343F04003C8F824309166D1668E
:101510001167516700F018FA3E4B3F49A3633F4BF8
:10152000E36363236B610323AF612B613C4BC5F81D
:10153000203DD5F8FC3D43F08073C5F8FC3D394BA8
:101540001A6842F001021A605B680B6000F084FACE
:10155000C6F804913448C6F800B1C6F8F490C6F84D
:10156000F0A000F021FCD8F86C10304B304A41F468
:101570004051C8F86C101F60C3F80871C3F81871A7
:10158000C3F82871C3F83871936BDB0708D442F6AF
:101590001563284951651365936B43F00103936309
:1015A000234A254C936843F00113936000F0B8FB85
:1015B00000F002FC00F07EFA00F0C0F92368132B63
:1015C000FCD900F00FFB2368B3F5967FFBD300F046
:1015D000B9F900F0B5F900F0EBFB00F0D1FB30BF3A
:1015E000FDE700BF00800D40387501004420006019
:1015F00000000000C0420020809501600000002033
:101600000040002099FD000000E400E0A0E400E0BC
:1016100000C00A4005F300000054002009F3000058
:1016200000002020001000E00046C32300400840D6
:1016300000400D400000C056045400201B1018202C
:101640000C0D111300C00F40054B4FF42A01054A41
:1016500005485A641864054A99639546FFF7E8FE01
:1016600000C00A40BFAAAAAA0700200000800620E6
:101670001BB9124B1B6F9B041ED400F03F000F4B95
:1016800022F0604221F0604140F489101867C3F8ED
:101690008010C3F890201A6F22F480521A671A6FD4
:1016A000002AFCDAD3F87011054A0A40C3F8702109
:1016B0001A6F22F480321A67704700BF00800D4015
:1016C000FF7F7FFF43690A4A03EB011010B4037ADE
:1016D000084C02EB0313D3E901321460C2681A60AC
:1016E00003690BB142691A605DF8044B704700BF93
:1016F000B41C002061F801004369027E03EB021272
:1017000092F808C08C451CD01A7AFF2A19D0914251
:1017100010B5044616D01A7EFF2A06D00121D3E95F
:10172000002312681A4201D1217610BD064B052212
:10173000204603EB0C135B681A60FFF7C3FF2176AA
:10174000F3E770470021EAE7B41C002043690A4A26
:1017500003EB011010B490F82830084C02EB03138F
:10176000D3E901321460C26A1A60036B0BB1426B99
:101770001A605DF8044B7047B41C002061F801004A
:101780004369427E03EB021292F828C08C451ED0BA
:1017900093F82820FF2A1AD0914210B5044617D09A
:1017A00093F83820FF2A06D00121D3E900231268DC
:1017B0001A4201D1617610BD064B0522204603EB8B
:1017C0000C135B681A60FFF7C1FF6176F3E770479F
:1017D0000021EAE7B41C0020164942698B6B23F410
:1017E0007C0343F4802370B58B630446124DD2E929
:1017F00000130A681A4303690A60022200211A6171
:101800000E4A19619A6401225A629D624FF4303582
:10181000DD624FF001159E6C1E6519629D651A61AF
:10182000017EFFF74FFF617E2046BDE87040FFF765
:101830008DBF00BF00C00F40B80B05053B3728190E
:10184000B1F5607FF0B50E468DB028BF4FF46076DD
:101850000F46054672B62E4B0024702218602146B2
:101860002C4B2D481C8000F08FFACFB121462A481E
:101870004FF0010C4A0901F01F03013150F82240DA
:101880000CFA03F38E4243EA040340F82230F1D805
:10189000284600234380013300F582709E42F9D828
:1018A0001E4C257815B162B60DB0F0BD082000F0D1
:1018B0008BFA1B4B80220646009302A90693194B14
:1018C0000271056008A8029300F07AFA06A9164A88
:1018D000304600F05DFA069B08A8DB689847009B3D
:1018E00002A8DB6898472378002BDCD10F4B104A05
:1018F000C3F858210F49D0204FF0E023402281F84F
:101900004600C3F808210123237062B60DB0F0BD74
:10191000704E002028540020784E00203B540020B8
:10192000481800205DED00001B1001000040002061
:1019300069ED000000E400E0704700BF704700BFA1
:10194000704700BF00BF704710B44FF0E023002184
:1019500010243148C3F8941DC3F89C4D1124C3F8DA
:10196000A00D2E48C3F89C4D1224C3F8A00D2C489E
:10197000C3F89C4D2B4AC3F8A00D2B4C42F0150226
:101980002A48C3F89C4DC3F8A00D294C2948C3F838
:101990009C4DC3F8A00D284CC3F89C2D2748284A1D
:1019A000C3F8A04DC3F89C0DC3F8A02D02F5A022EA
:1019B000244C0C322448C3F89C4DC3F8A02D234A74
:1019C000C3F89C0D224CC3F8A02D02F14062C3F86D
:1019D0009C4D2048C3F8A02D0C32C3F89C0DC3F8D1
:1019E000A02D00BF00BF00BF00BF00BF0122C3F891
:1019F000942DBFF34F8FBFF36F8FC3F8501FBFF30A
:101A00004F8FBFF36F8FD3F8142D5DF8044B42F462
:101A10004032C3F8142D70473F000010250008071E
:101A2000090010008054002013002000210002074C
:101A300014000020250008130900001016002020C3
:101A400027000B1317000040180000602F000B0741
:101A5000190000701A000080F0B4154A40274FF4B6
:101A600080314FF480564FF400554FF4404443F218
:101A70004200136913F0020F0ED113F4005F0FD070
:101A800013F4805F0ED0002BF3DA13F4803F0BD1F8
:101A90005B060BD5F0BC7047946151619061E8E73B
:101AA0005561E6E75661E4E79161E2E75761E0E7F7
:101AB00000800D403F4A03203F49F3EE095AD2F817
:101AC00080304FF0000C9FED3D6A23F001039FED45
:101AD0003C5A30B4C2F88030C2F89000D1F8E0101F
:101AE000384DCBB2384C39482B6007EE903A0B0D8D
:101AF000C1F30B21F8EEE77A06EE903A07EE101AE2
:101B0000334BB8EEC77A2160F8EEE66A314937EE1A
:101B1000C66A37EEC55A76EEC76A77EEE57A26EEE4
:101B2000266AC3ED006A25EE265AD2F8803067EEA9
:101B3000A64AC0ED007AC6EE275A274885EE276AE6
:101B4000C4EEA76A75EE875AFCEEE55A36EE076AD0
:101B500015EE904ABCEEC66A43EA045376EE877AE5
:101B6000C2F8803016EE103AD2F89041FCEEE77AD7
:101B700001EA0341214317EE903AC2F89011C3F3F2
:101B80000B03D2F890110B431449C2F89031D2F8EC
:101B9000803043F00203C2F88030114B80F840C01F
:101BA000C1F840314FF0E023012230BCC3F80821D6
:101BB000704700BF00810D4000441F400000AA4252
:101BC0000000B442F0530020EC530020F4530020F6
:101BD000F85300200000FF0F00E400E00040002068
:101BE00085FF0000314B40F6617210B5C3F820212B
:101BF00040F2044400F0D4F82D4A2E49D2F8803047
:101C00002D4843F00303C2F880302C4BC1F86041EB
:101C100002681A4203D1D1F8A8319A071BD0254A8D
:101C20004FF00041244B5963D2F8403143F0020396
:101C3000C2F84031D2F840319B07FBD44FF400305A
:101C40004FF0E0211C4B4FF00042C1F88C021920EC
:101C50009A6300F0A1F8184A4FF08040154C00211B
:101C600090630A20164B11604FF42072C4F8A8014B
:101C7000184600F089F84FF4800203464FF48100C3
:101C800040F243111860C4F858311A640D4B0E4AE3
:101C9000C4F84811C3F804224FF0E0224FF4003199
:101CA0000123C2F80C11C4F8403110BD00800D4072
:101CB00000C00F4000002E4000900D40001C1E0090
:101CC00000000020004000206D01010008B50E4B0F
:101CD0001B6E9B0700D4FBBE72B60C4B00200C4A57
:101CE000C3F8400103F160430A49A3F55F2311647F
:101CF0009D46BFF34F8F4FF400130748074ADB6937
:101D000002609B68984700BF00441F4000002E40BF
:101D100000C00A400300200000802020000012EBD9
:101D2000104BA020104AD96E41F4403110B4D9664E
:101D300040F23764D96E41F44071D96654649064BE
:101D4000936C1B06FCD4094A40F23761A02351640E
:101D50009364936C13F08003FBD1054A13705DF814
:101D6000044B704700C00F4000400C4000800C4006
:101D700041540020F8B500BFF8BC08BC9E4670472F
:101D80005FF800F055FA00005FF800F015660100FA
:101D90005FF800F0DDF300005FF800F071F800007C
:101DA0005FF800F0DD0801005FF800F081F5000049
:101DB0005FF800F0956801005FF800F081FC00001A
:101DC0005FF800F0D1ED00005FF800F099FB000033
:101DD000450000002156000011570000D9570000AF
:101DE000ED5C0000055D00001D5D0000355D00003C
:101DF0004D5D0000655D00007D5D0000955D0000AB
:101E0000AD5D0000C55D0000DD5D00008162000089
:101E100099620000B1620000C9620000E162000046
:101E2000F962000011630000296300005D63000097
:101E30008D630000A5630000BD630000D563000052
:0C1E4000ED630000A1760000E1F400005A
:101E4C0080C00F40000000031900000010000000CB
:101E5C00E8841F4001000000FF000000FF000000AC
:101E6C00000000000000000018000000100000003E
:101E7C00E4841F4001000000FF000000FF00000090
:101E8C0000000000000000001F00000051ED0000E9
:101E9C0070C00F40000C0000110000001100000089
:101EAC00E0841F400200000024000000120000002B
:101EBC00E0841F4001000000100000001100000031
:101ECC00DC841F400200000025000000120000000E
:101EDC00DC841F40010000001E00000045ED0000E6
:101EEC0070C00F40C0000000120000001300000082
:101EFC00D0841F4001000000FF000000FF00000024
:101F0C00000000000000000013000000130000009F
:101F1C00CC841F4001000000FF000000FF00000007
:101F2C0000000000000000001C00000039ED000063
:101F3C001603550053004200200053006500720048
:101F4C00690061006C000000180354006500650016
:101F5C006E00730079006400750069006E006F00FC
:101F6C000403090409026200030100C032080B00DB
:101F7C000202020100090400000102020100052412
:101F8C0000100105240101010424020605240600A9
:101F9C00010705820310001009040100020A000069
:101FAC0000070503024000000705840240000009F9
:101FBC0004020002FF6AFF000705810240000107CE
:101FCC00050102400001000009026200030100C08B
:101FDC0032080B0002020201000904000001020297
:101FEC00010005240010010524010101042402064E
:101FFC0005240600010705820310000509040100F1
:10200C00020A000000070503020002000705840213
:10201C000002000904020002FF6AC70007058102E2
:10202C000002010705010200020100000A0600027D
:08203C00EF0201400100000069
:10204400000000000000000000000000000000008C
:10205400000000000000000000000000000000007C
:102064000548064B1B1AD90F01EBA301491002D0F6
:10207400034B03B118477047C0420020C042002000
:102084000000000008B5054B1BB105490548AFF336
:102094000080BDE80840FFF7E3BF00BF0000000078
:1020A4005C53002000E801604069704790ED020B2A
:1020B400704700BF0069704707EE901A9FED065BFA
:1020C400B8EE677B90ED026B27EE057B87EE060B7F
:1020D400B7EEC00B704700BF0000000000408F4007
:1020E40081657047806D704701657047006D70476A
:1020F40041657047406D704708B50368D3F88C306C
:10210400984700B1006808BD08B50368D3F88C305F
:10211400984700B1406808BD0023BFF35B8F80F887
:102124008430704700000000B0B582B004460D460C
:10213400002100AF84B06A4610467A6004F0AAFD1C
:1021440023687A682946DB6C20469FED030B984789
:102154000837BD46B0BD00BF00000000000000000D
:10216400B0B582B004460D46002100AF84B06A4683
:1021740010467A6004F084FD23687A682946DB6C93
:1021840020469FED030B98470837BD46B0BD00BFFE
:102194000000000000000000F8B500AF8AB184B070
:1021A40004460D4600216E46304604F07FFD236848
:1021B40032462946DB6C20469FED050B9847BD4609
:1021C400F8BD054B5321054A054813F0B9FF00BF7C
:1021D4000000000000000000280F0020380F00203D
:1021E400800F00204FF001028430D0E84F3FC0E858
:1021F400412F0029F9D1DBB2BFF35B8F002BF4D15F
:10220400704700BF4FF001028430D0E84F3FC0E870
:10221400412F0029F9D1D8B2BFF35B8F80F00100C0
:10222400704700BF183005F06BB800BF036810B5E5
:10223400D3F88C301446984718B1214605F082F93A
:10224400012010BD00000000DFED0B7A90ED025B71
:1022540087FE800AB7EEC00A9FED056B20EE050BE2
:1022640080EE067BFCEEC77B17EE900A704700BF3A
:102274000000000000408F4000000000F8B5DE8838
:1022840000F170051C46174604362846314604F012
:102294004BFC60B10146E288204641F8047B04F01F
:1022A4002BFD31462846BDE8F84004F06BBC034BD7
:1022B4001E21034A034813F043FF00BF8007002098
:1022C4004C080020800F002010B50C1E82B00ADDDF
:1022D4005C30019004F01AFCA102019802B0BDE840
:1022E400104004F0EFBB034BB921034A034813F039
:1022F40027FF00BFA8120020B8120020800F002082
:1023040010B50C1E82B00ADD7030019004F0FEFBA3
:10231400A102019802B0BDE8104004F0D3BB034B06
:10232400BF21034A034813F00BFF00BFF41200203F
:1023340004130020800F002008B5034AE221034B58
:10234400034813F0FDFE00BF4407002034070020BB
:10235400800F002008B5034AEE21034B034813F015
:10236400EFFE00BFA408002034070020800F0020E7
:102374002DE9F04390461F46026D0E46294B00217D
:1023840083B09A42316046D1814600F1850C4FF00A
:10239400010EDCE84F4FCCE845EF002DF9D1E4B253
:1023A400BFF35B8F002CF4D109F17005284604F0CB
:1023B400B1FBA8B101A92846019404F005FCC0B101
:1023C400019A132A1BD997421FD301464046012480
:1023D40051F8043B33600FF065FB284604F0FAFB28
:1023E40000232046BFF35B8F89F8853003B0BDE836
:1023F400F0830D4BCF210D4A0D4813F0A1FE0D4B78
:10240400D0210A4A0A4813F09BFE0B4BD121074AFC
:10241400074813F095FE094BC721044A044813F0FA
:102424008FFE00BF3D0200003C0E0020EC0D00209A
:10243400800F0020800E0020A80E0020440D0020F4
:102444002DE9F84F2DED028B9FED338BB4EEC80BC5
:10245400F1EE10FA5ADB9046002A51D00368054683
:10246400314A0F469B6988FE008B046993423FD131
:1024740090ED020B9FED2A6B05F184034FF0010CE4
:1024840080EE067B27EE087BFCEEC77B17EE906A96
:102494002644D3E84F4FC3E84ECFBEF1000FF8D126
:1024A400E4B2BFF35B8F002CF3D1B8F806A005F1BA
:1024B4005C0B0AF1040A5846514604F035FB814688
:1024C400C0B10146B8F80620404641F8047B04F048
:1024D40013FC58465146C9F8046004F053FBBFF39B
:1024E4005B8F85F884400120BDEC028BBDE8F88F3A
:1024F4009847BFE70D4B83210D4A0E4813F020FE89
:102504000D4B74210A4A0B4813F01AFE0B4B73212E
:10251400074A084813F014FE000000000000000001
:102524000000000000408F406D00000028100020D3
:10253400C80F0020800F002018100020B80F0020C2
:102544002DE9F04F2DED068B9FED759B43EC182B79
:1025540085B0B4EEC98B00AFF1EE10FA3E6DC0F257
:10256400D680002E00F0CD8007F154028346304619
:102574000AEE101AFA6016F0A3FB8246002800F057
:10258400BA80C000DBF8102089FE089B0830ADEB50
:10259400000DDBF800008469E8466548844240F099
:1025A40087809BED020B29EE009B00245146404698
:1025B400013E4546A1469FED5C6B89EE067BBCEE71
:1025C400C77B17EE103A13441A4604F04FFB16F873
:1025D400013F623B112B12D8DFE803F009111111FE
:1025E4005211411111111111111111111125B8F8C4
:1025F4000430A34267DD85F80890C5F80C900134D7
:102604000835A245E3DCDBF80040B0EE480B424657
:102614001AEE101A5846E36C98471437BD46BDECC1
:10262400068BBDE8F08FFB68B8F80420191D186804
:10263400A242F96041DD002857D04FF00203E86060
:10264400013408352B7016F03BFBB8F80630A24570
:1026540003F101031844A8F80600B8DCD3E7FB68CB
:10266400B8F80420191D1B68A242F96037DD013453
:10267400EB604FF003030835A2452B70A7DCC2E7DB
:10268400FB68073323F0070393ED007B0833FB60FB
:10269400B7EEC77BB8F80430A3421ADD01344FF01B
:1026A400010385ED037A0835A2452B708FDCAAE778
:1026B4007A605846A0477A6875E71E4B94211E4AF3
:1026C4001E4813F03DFD1B4B69211D4A1B4813F0A6
:1026D40037FD184B73211B4A184813F031FD154B75
:1026E4008221194A154813F02BFD184B9521124AE3
:1026F400124813F025FD164B3A21164A0F4813F0E1
:102704001FFD154B5C21154A154813F019FD154B97
:102714005B21124A124813F013FD00BFAFF300808F
:1027240000000000000000000000000000408F4096
:102734006D000000CC1100206812002098110020C8
:10274400EC110020101200203C1200209C120020EA
:10275400681100207811002054110020FC10002082
:10276400800F0020B80F0020B5EEC00B70B5F1EE5D
:1027740010FA1D46294B80ED020B036036DD00295B
:1027840046DD002A16463DDD002D35DB4FF0000303
:1027940004460361C0E915330CBF2B46204B1830A7
:1027A40083630023BFF35B8F80F86C30BFF35B8FD0
:1027B40080F86D30882340F8043C04F0C7FC63695A
:1027C400B102034404F15C00636104F07BF96369C2
:1027D4000246A90204F170001344636104F072F923
:1027E4006369024620461344636170BD0D4B272183
:1027F4000D4A0E4813F0A4FC0D4B2A210A4A0B483B
:1028040013F09EFC0B4B2921074A084813F098FC4F
:10281400094B2821044A054813F092FC5415002062
:102824003D0200004013002054130020800F0020BC
:1028340094130020A812002088130020084B10B520
:10284400044640F8183B04F099FC04F15C0004F0E1
:102854005DF904F1700004F059F9204610BD00BF81
:102864005415002018B10368D3F88C30184710B5FC
:10287400FFF762FD28B1944618301A46634604F007
:10288400DDBC10B5FFF766FD00487047FC0B002067
:102894000020704702207047064B994207D0064B30
:1028A400994202D100F5C67070470020704700F5C8
:1028B400A6707047216D70691DF86E7242B10023D5
:1028C40000210448516011721060D3601361536198
:1028D40000207047340B0020B0B5114600AF82B021
:1028E400056801EB83046A462D6CC2E900140021DB
:1028F400A847BD46B0BD00BF2DE9F84300AF2BB3D8
:1029040016466A4600211D46A2EBC3024FEA85091A
:1029140095460268E846546C4246A047002308EBFB
:1029240085041A46002D09DD08EB830106EB820CB1
:1029340051F804EBA1424CF808EBF9D12B444C4478
:102944000AB90122EEE7BD46BDE8F883034B40F225
:10295400F171034A034813F0F3FB00BF4C0B002052
:10296400580B0020A00B002010B5084B044600F5BE
:10297400A670236004F0E2FD04F5C67004F0DEFDE9
:102984002046FFF75BFF204610BD00BF88140020DF
:10299400014B132103F0D8BE352A0000014B13214B
:1029A40003F0D2BE250F0000014B132103F0CCBE6F
:1029B400410F0000014B132103F0C6BE5D0F000060
:1029C40010B5114682B00023054C9FED060A022281
:1029D400CDE90014194603F013FC02B010BD00BF8A
:1029E400510900000200004B10B5114682B00023CB
:1029F400054CB7EE000A0122CDE90014194603F094
:102A0400FFFB02B010BD00BF790F000010B51146E6
:102A140082B00023054CB7EE000A0122CDE9001470
:102A2400194603F0EDFB02B010BD00BF810F00009A
:102A340010B5114682B00023054CB7EE000A0122FE
:102A4400CDE90014194603F0DBFB02B010BD00BF52
:102A5400DD0F000010B5114682B00023054C9FED38
:102A6400060A0322CDE90014194603F0C9FB02B09B
:102A740010BD00BF3511000000007A4410B51146A6
:102A840082B00023054CB7EE000A1422CDE90014ED
:102A9400194603F0B5FB02B010BD00BF9517000046
:102AA40010B5114682B00023054C9FED060A03229F
:102AB400CDE90014194603F0A3FB02B010BD00BF1A
:102AC400490D000000007A4410B5114682B000237D
:102AD400054C9FED060A0322CDE90014194603F0C4
:102AE4008FFB02B010BD00BF0512000000007A4445
:102AF40010B5114682B00023054C9FED060A022250
:102B0400CDE90014194603F07BFB02B010BD00BFF1
:102B14000D0E000000803B4510B5114682B0002325
:102B2400054CB7EE000A1522CDE90014194603F04E
:102B340067FB02B010BD00BFFD0A000010B51146CE
:102B440082B00023054C9FED060A1422CDE900143F
:102B5400194603F055FB02B010BD00BFE50F00009D
:102B64000000000010B5114682B00023054CB7EEFA
:102B7400000A0122CDE90014194603F041FB02B01A
:102B840010BD00BF2110000010B5114682B0002313
:102B9400054C9FED060A0322CDE90014194603F003
:102BA4002FFB02B010BD00BF9D13000000007A444B
:102BB40010B5114682B00023054CB7EE000A14226A
:102BC400CDE90014194603F01BFB02B010BD00BF91
:102BD400F517000010B5114682B00023054C9FED97
:102BE400060A0322CDE90014194603F009FB02B0DA
:102BF40010BD00BF450E000000007A4410B5114618
:102C040082B00023054C9FED060A0322CDE900148F
:102C1400194603F0F5FA02B010BD00BF6D140000B0
:102C240000007A4410B5114682B00023054C9FED94
:102C3400060A0222CDE90014194603F0E1FA02B0B3
:102C440010BD00BF090F000000803B4510B51146C0
:102C540082B00023054CB7EE000A1522CDE900141A
:102C6400194603F0CDFA02B010BD00BF310C0000CC
:102C740010B5114682B00023054C9FED060A1422BC
:102C8400CDE90014194603F0BBFA02B010BD00BF31
:102C9400291000000000000010B5114682B0002386
:102CA400054C9FED060A0322CDE90014194603F0F2
:102CB400A7FA02B010BD00BFC915000000007A4495
:102CC40010B5114682B00023054CB7EE000A142259
:102CD400CDE90014194603F093FA02B010BD00BF09
:102CE4001118000010B5114682B00023054CB2EE55
:102CF400000A0222CDE90014194603F081FA02B059
:102D040010BD00BF5D09000010B5114682B000235C
:102D1400054CB3EE000A0222CDE90014194603F073
:102D24006FFA02B010BD00BF6909000010B511466A
:102D340082B00023054CB3EE080A0222CDE9001448
:102D4400194603F05DFA02B010BD00BF750900001A
:102D540010B5054C82B0134600F5DC7101220094D5
:102D640003F0CEFD02B010BDCD3C000010B5054C03
:102D740082B0134600F519710022009403F0C0FDDF
:102D840002B010BDB511000010B5054C82B0134659
:102D940000F50B710122009403F0B2FD02B010BDE6
:102DA4005511000010B5054C82B0134600F5197199
:102DB4000122009403F0A4FD02B010BDB51100007F
:102DC40010B5054C82B0134600F51771012200942A
:102DD40003F096FD02B010BD711A000010B5054C49
:102DE40082B0134600F517710022009403F088FDA9
:102DF40002B010BD711A000010B5054C82B0134624
:102E040000F515710022009403F07AFD02B010BDA4
:102E14009511000010B5054C82B0134600F51171F0
:102E24000022009403F06CFD02B010BD1D160000DA
:102E340010B5054C82B0134600F52E7100220094A3
:102E440003F05EFD02B010BD0113000010B5054C87
:102E540082B0134600F52C710022009403F050FD5B
:102E640002B010BDF10D000010B5054C82B0134640
:102E740000F55A710022009403F042FD02B010BD27
:102E84001D14000010B5054C82B0134600F54C71BA
:102E94000122009403F034FD02B010BDBD13000004
:102EA40010B5054C82B0134600F55A710122009406
:102EB40003F026FD02B010BD1D14000010B5054C32
:102EC40082B0134600F558710122009403F018FDF6
:102ED40002B010BD551A000010B5054C82B013465F
:102EE40000F558710022009403F00AFD02B010BDF1
:102EF400551A000010B5054C82B0134600F5567102
:102F04000022009403F0FCFC02B010BDFD1300008D
:102F140010B5054C82B0134600F55271002200949E
:102F240003F0EEFC02B010BDD116000010B5054C44
:102F340082B0134600F56F710022009403F0E0FCA8
:102F440002B010BD6915000010B5054C82B01346DF
:102F540000F56D710022009403F0D2FC02B010BDA4
:102F6400ED0E000010B5054C82B0134600F5E27179
:102F74000022009403F0C4FC02B010BD85320000AE
:102F840010B5054C82B0134600F5EA710022009496
:102F940003F0B6FC02B010BD890F000010B5054C5B
:102FA40082B0134600F5E6710022009403F0A8FCF9
:102FB40002B010BDF139000000F5C47104F07EBA0E
:102FC40000F5DA7104F07ABA30B5002383B01546FF
:102FD4000E499FED0F0A02220191194600950446FD
:102FE40003F00EF900230B48022219469FED0A0A4A
:102FF400CDE90050204603F003F92A4604F579711F
:10300400204603B0BDE8304004F058BAC1100000B7
:1030140000004842851000000000F04200F5F871FD
:1030240004F04CBA30B5002383B015460949044670
:10303400B7EE000A019101221946009503F0E0F869
:103044002A4604F53671204603B0BDE8304004F04A
:1030540035BA00BF1910000000F5327104F02EBA21
:1030640000F53D7104F02ABA30B5002383B015464B
:1030740009490446B7EE000A019101221946009558
:1030840003F0BEF82A4604F57771204603B0BDE884
:10309400304004F013BA00BF5D10000000F57371F6
:1030A40004F00CBA38B50446154600F2644104F045
:1030B40005FA2A4604F26C412046BDE8384004F083
:1030C400FDB900BF30B50D4B83B01546044600F57D
:1030D4008261009300222B4603F012FC2A4604F579
:1030E4008D61204604F0EAF92A4604F58E612046F3
:1030F40003B0BDE8304004F0E1B900BFA9150000F9
:10310400134600F58271002204F066B9134600F1FB
:103114008801002204F060B930B50C4983B015462B
:1031240001230446CDE9002100F52171022203F0B8
:103134002FF80749012302222046CDE9005104F566
:10314400207103F025F803B030BD00BF890A0000E8
:10315400610A000010B5064C82B0002300F50A7124
:10316400CDE90024022203F013F802B010BD00BF21
:103174003D0A000010B5064C82B0012300F50A7127
:10318400CDE90024022203F003F802B010BD00BF11
:103194003D0A000030B50C4983B0144600230546AF
:1031A400CDE9002100F52371012202F0F1FF002393
:1031B400064911229FED060A2846CDE90041194629
:1031C40003F01EF803B030BD8D1A0000092E000074
:1031D4000000000010B5012382B0054C00F52971F0
:1031E400CDE900241A4602F0D3FF02B010BD00BF9F
:1031F400E112000070B5002382B015460E491A464C
:103204000446019100F52571009502F0C1FF0023E9
:103214000A4804F528711A46094ECDE900502046A3
:1032240002F0B6FF2B46002204F52A7120460096D0
:1032340003F066FB02B070BD650D0000B90D00001F
:10324400B10A000010B5012382B0054C00F52371CA
:10325400CDE900241A4602F09BFF02B010BD00BF66
:103264008D1A000010B5064C82B0012300F52771B9
:10327400CDE90024032202F08BFF02B010BD00BF91
:103284004512000030B50C4983B0154601230446AD
:10329400CDE9002100F52871002202F079FF0749E9
:1032A400012300222046CDE9005104F5257102F0E6
:1032B4006FFF03B030BD00BFB90D0000650D000005
:1032C40010B5064C82B0002300F52071CDE900242E
:1032D400022202F05DFF02B010BD00BF610A0000CF
:1032E40010B5064C82B0002300F52671CDE9002408
:1032F400032202F04DFF02B010BD00BF25120000F2
:1033040010B5064C82B0002300F52971CDE90024E4
:10331400012202F03DFF02B010BD00BFE112000027
:1033240010B5064C82B0002300F52771CDE90024C6
:10333400032202F02DFF02B010BD00BF45120000B1
:1033440010B5064C82B0002300F53071CDE900249D
:10335400022202F01DFF02B010BD00BFD90A000016
:1033640010B5064C82B0012300F53071CDE900247C
:10337400022202F00DFF02B010BD00BFD90A000006
:1033840030B50C4983B0154601230446CDE900212C
:1033940000F56271022202F0FBFE074901230222BA
:1033A4002046CDE9005104F5617102F0F1FE03B04D
:1033B40030BD00BFBD0B0000950B000010B5064CDE
:1033C40082B0002300F54B71CDE90024022202F003
:1033D400DFFE02B010BD00BF710B000010B5064C3B
:1033E40082B0012300F54B71CDE90024022202F0E2
:1033F400CFFE02B010BD00BF710B000030B50C4908
:1034040083B0144600230546CDE9002100F564711C
:10341400012202F0BDFE0023064911229FED060A97
:103424002846CDE90041194602F0EAFE03B030BD5A
:10343400391A0000753500000000000010B50123A2
:1034440082B0054C00F56A71CDE900241A4602F0F9
:103454009FFE02B010BD00BF4915000070B50023E7
:1034640082B015460E491A460446019100F566716C
:10347400009502F08DFE00230A4804F569711A468E
:10348400094ECDE90050204602F082FE2B46002270
:1034940004F56B712046009603F032FA02B070BD59
:1034A400610E0000B50E0000E50B000010B501230D
:1034B40082B0054C00F56471CDE900241A4602F08F
:1034C40067FE02B010BD00BF391A000010B5064CEB
:1034D40082B0012300F56871CDE90024032202F0D3
:1034E40057FE02B010BD00BFAD14000030B50C494A
:1034F40083B0154601230446CDE9002100F5697126
:10350400002202F045FE0749012300222046CDE9AE
:10351400005104F5667102F03BFE03B030BD00BFFC
:10352400B50E0000610E000010B5064C82B00023F9
:1035340000F56771CDE90024032202F029FE02B0F0
:1035440010BD00BF8D14000010B5064C82B00023DE
:1035540000F56171CDE90024022202F019FE02B0E7
:1035640010BD00BF950B000010B5064C82B00023BF
:1035740000F56A71CDE90024012202F009FE02B0CF
:1035840010BD00BF4915000010B5064C82B00023E1
:1035940000F56871CDE90024032202F0F9FD02B0C0
:1035A40010BD00BFAD14000010B5064C82B000235E
:1035B40000F57171CDE90024022202F0E9FD02B0A8
:1035C40010BD00BF0D0C000010B5064C82B00123E5
:1035D40000F57171CDE90024022202F0D9FD02B098
:1035E40010BD00BF0D0C000010B5064C82B00023C6
:1035F40000F58461CDE90024022202F0C9FD02B085
:1036040010BD00BF810C000010B5064C82B0012330
:1036140000F58461CDE90024022202F0B9FD02B074
:1036240010BD00BF810C000010B5134684B0002209
:103634000849044603930091114602F00BFE002250
:1036440005492046039B0091114602F003FE04B095
:1036540010BD00BF513000009D0D000030B50A4977
:1036640085B013460446009100220121074D0393BF
:1036740002F0F0FD039B002201212046009502F098
:10368400E9FD05B030BD00BF81120000A1120000A9
:1036940070B50F4B82B015460022009304462B46AA
:1036A400114602F0D7FD00230A4804F528711A4692
:1036B400094ECDE90050204602F06AFD2B46012256
:1036C40004F519712046009603F01AF902B070BD92
:1036D40059300000B90D0000B511000010B51346B3
:1036E40084B000220849044603930091114602F075
:1036F400B1FD002205492046039B0091114602F0CA
:10370400A9FD04B010BD00BFBD370000990E000034
:1037140030B50A4985B013460446009100220121C0
:10372400074D039302F096FD039B002201212046DE
:10373400009502F08FFD05B030BD00BF09150000F3
:10374400E914000070B50F4B82B0154600220093B7
:1037540004462B46114602F07DFD00230A4804F579
:1037640069711A46094ECDE90050204602F010FD59
:103774002B46012204F55A712046009603F0C0F846
:1037840002B070BDC5370000B50E00001D14000066
:1037940030B500F5FA7585B0044611462846039203
:1037A40002F056FE094A039B294620460092084D22
:1037B400002202F0C1FD039B002204F50B71204698
:1037C400009503F09DF805B030BD00BF511700000F
:1037D4005511000010B5054C82B0134600F5FA717E
:1037E4000222009402F0A8FD02B010BD511700009F
:1037F40030B500F53E7585B004461146284603925F
:1038040002F026FE094A039B294620460092084DF1
:10381400002202F091FD039B002204F54C71204626
:10382400009503F06DF805B030BD00BFB11700007E
:10383400BD13000010B5054C82B0134600F53E716F
:103844000222009402F078FD02B010BDB11700000E
:1038540010B5054C82B0134600F57B71022200942A
:1038640002F06AFD02B010BD313E000008B5034A03
:103874007321034B034812F063FC00BF10120020B5
:10388400CC1100209811002001B1704710B5054CEF
:1038940082B0134600F5B2710122009402F0F4FDE7
:1038A40002B010BD8109000001B1704710B5054C8C
:1038B40082B0134600F585610122009402F0E4FD14
:1038C40002B010BDA50C000001B1704710B5054C45
:1038D40082B0134600F587610122009402F0D4FD02
:1038E40002B010BDC90C000001B1704710B5054C01
:1038F40082B0134600F589610122009402F0C4FDF0
:1039040002B010BDED0C0000012914D813460A4979
:10391400002230B585B00446084D0091114603934A
:1039240002F098FC039B002201212046009502F03E
:1039340091FC05B030BD7047A53000005116000061
:1039440001B17047F0B50A4B83B006460C461546E4
:103954000093084F13460A46012102F07BFC2B46D4
:10396400224601213046009702F074FC03B0F0BDFA
:1039740081120000A112000001B17047F0B50A4B9A
:1039840083B006460C4615460093084F13460A4674
:10399400012102F05FFC2B462246012130460097AC
:1039A40002F058FC03B0F0BD810D0000C11200000C
:1039B400012914D813460A49002230B585B00446BB
:1039C400084D00911146039302F044FC039B00222E
:1039D40001212046009502F03DFC05B030BD704742
:1039E400113800000517000001B17047F0B50A4B0B
:1039F40083B006460C4615460093084F13460A4604
:103A0400012102F027FC2B46224601213046009773
:103A140002F020FC03B0F0BD09150000E914000019
:103A240001B17047F0B50A4B83B006460C46154603
:103A34000093084F13460A46012102F00BFC2B4663
:103A4400224601213046009702F004FC03B0F0BD89
:103A54007D0E000029150000054B9446994200D0C4
:103A64007047044B00226146183003F0E7BB00BFE7
:103A74005BC65CCE813A000010B5054C82B013469B
:103A840000F54C710122009402F03AFF02B010BD1F
:103A9400BD13000010B5054C82B0134600F55A71F1
:103AA4000022009402F02CFF02B010BD1D1400008F
:103AB40010B5054C82B0134600F51971002200942C
:103AC40002F01EFF02B010BDB511000010B5054C88
:103AD40082B0134600F50B710122009402F010FF2E
:103AE40002B010BD5511000010B50A4B044600F594
:103AF400A670236003F022FD04F5C67003F01EFDDA
:103B04002046FEF79BFE20464FF48F610EF066F8C8
:103B1400204610BD881400202DE9F04FDFF868908E
:103B2400044617469846DFF864A000F15C06DFF807
:103B340060B02DED0A8B83B004E051451CD03046B3
:103B440003F048F8304602F0E5FF054610B30025BF
:103B540001A93046019503F037F8019B132B40F27D
:103B6400B682236850F8041BD3F890304B45E4D058
:103B7400024620469847E2E701465B462A4604F19E
:103B8400180003F05BFBDAE7191A00005BC65CCE91
:103B9400813A000023682046F2499B6D9847B8F1AA
:103BA400000F266940F38B829FEDEF9A08EB06091C
:103BB400DFEDEE8A9FEDEE8A9FEDEEAADFEDEE9A41
:103BC400DFEDEEAAA069013678B104F1180A826823
:103BD40013689E4209D9D0E90331204698475046DC
:103BE40003F076FBA0690028F1D1D4F88810B7EE71
:103BF400006AD4F894C0F6EE005A4A0AF5EE006A58
:103C04004FEA5C2394ED7C4A42F07E5243F07E53AB
:103C140007EE102AD4F8A02007EE903AD4F88C309E
:103C240037EE467A77EEC67A0B44D16837EE657A7A
:103C3400C4F8883077EEE57AD4F898301268B0EE9C
:103C4400C77A6344F0EEE77AC4F8943037EE667AC4
:103C540077EEE67A27EE097A67EE897A67EE074A05
:103C640027EEA75A64EE875A65EE276AA5EEA87A6E
:103C740065EEA45AE6EEA87A66EE856AA5EE887A21
:103C8400E6EE887A67EE0A6AC6FEC46AC6FEA96AC8
:103C9400FDEEE66A16EE903A994240F2128202EB89
:103CA4008302D4F8B410D4F87031D2ED006A44F22F
:103CB400A712D4ED2C5A02FB03F34A0A67EEA67A44
:103CC40094EDB22A42F07E5206EE903A22EE652A34
:103CD400D4EDB65A00EE902A67EEAA7AF8EEE62AF8
:103CE400D4ED306A70EEC60A9FEDA55AA5EEA72A58
:103CF400D4F8B82062EE852AC4F87031F4EEE06A94
:103D04001144C4ED300AB0EEE25AC4F8B410F1EE36
:103D140010FA84ED2C2A00F3CD8194ED313AF6EEBD
:103D2400005A04F26443D4ED327AD3ED006A70EEA3
:103D3400A55A23EE263AFBFE656A75EEE65AF4EEC2
:103D4400E57AC4ED325AF1EE10FA00F3AE8194ED47
:103D5400331AD4F8D0C0F7EE003A04F26C4EB6EE43
:103D6400004A4FEA5C2304F58E61DEED007AF5EE3D
:103D7400004A43F07E53D1ED001A21EE271AD4F8FD
:103D8400DC2006EE903A60EE8A0A94ED360A530A75
:103D940076EEE36A04F58D6EE1EE071A94ED6D7A22
:103DA40043F07E53DEED007A76EEC46AC0FEC70AA5
:103DB400C0FEA90A06EE103AD4F8E830F0EEE66A3E
:103DC40094ED391A21EE807AD3F80CE0FDEEE01A76
:103DD400196876EEE46ABDEEC77A11EE90AA36EE63
:103DE400636A66EE896A17EE103AD64536EE446A7F
:103DF40066EEA61A6344B0EEC66AC4F8D03021EE6B
:103E0400A67A36EE646AE7EE286A67EE211A26EE91
:103E1400096A66EE060AE1EE886A20EE867AA7EE63
:103E2400286AE3EE267A27EE207AA7EE086A67EE80
:103E3400817AFDEEE77A17EE903A1344C4F8DC3049
:103E440040F23F81D4F8F8C001EB8A01D4F804E1D0
:103E54004FEA5C23D1ED001A4FEA5E21D4EDFA7AE1
:103E640043F07E5394EDF91A41F07E51D4F81021B9
:103E740007EE103A85FE411A81FE271A07EE901AC2
:103E840037EE637A530A77EEE37A94ED400A43F00F
:103E94007E5336EEC15A37EE447A9FED3A3A77EEC6
:103EA400C47A00EE903A31EE451AD4F80831B0EEF7
:103EB400C77AD4F81CA1F0EEE77A734470EEE30AF3
:103EC40037EE647AC4F8043177EEE47AD4F8143126
:103ED40070EEC40A27EE097A134467EE897ADAF899
:103EE4000C20F0EEE00AC4F8103127EE07CADAF825
:103EF400003067EEA7BA70EEE40A2CEE07BA66EE5D
:103F0400211A60EE890AABEE287A2BEE0CCA2BEE4E
:103F1400A7BA21EE033A21EE001A9FED1B0AEBEE3D
:103F2400287AACEE087A6BEE2BBA60EEA0CABDEE2E
:103F3400C11A62EE802A94EDBD0AEBEE887A37EE60
:103F4400267A11EE101A2CEEA0BA9FED101A6144D5
:103F5400A2EE217AEBEE280AC4F8F81067EE8A7A0A
:103F640016E000BFEBC021DDDB0FC940ABAA2ABEBF
:103F74006257003C00008043000000009A99993E7B
:103F8400F6FFFF2FCDCC4C3ECDCCCC3DCDCC4C3D23
:103F94002BEE2CBAC7FEC07AC7FEA97AFDEEE77AEB
:103FA40033EE077AEBEE080A17EE901A77EE227AD0
:103FB400B0EE697A8A42A7EE817A40F2828003EBFE
:103FC4008103D4ED4B1AD4EDF37A65EE8A5A93ED5E
:103FD400000A67EEE17AD4ED621A60EE800A94ED8D
:103FE400F72AC5FEE15AC5FEA95AFDEEE55AD4F8F2
:103FF400302160EEAA0AD16815EE903A1268E2EE1A
:10400400207A9942F0EE675AC4ED4B7A59D9D4F824
:1040140040C102EB8303D4ED527A4E454FEA5C2152
:104024003A6825EE275A93ED002A41F07E512A443E
:104034007B6866EE826A07EE901ABDEEC55A2B4481
:1040440005F1040577EEE37A15EE101A77EEC47ADB
:104054006144C4F84011F0EEE77A82ED007A77EE1D
:10406400E47A67EE897A27EEA75A25EE277AE7EEF7
:10407400287A27EE057AE7EE087AB0EE697A77EEC9
:10408400867AE5EEA67A77EE837A77EEA27AA7EEC1
:10409400817A83ED007A7FF496AD4046C4F810909F
:1040A40003B0BDEC0A8BBDE8F08FB0EE451A84ED89
:1040B400335A4EE6B0EE453A84ED315A2FE6B14616
:1040C400EBE7064B4B21064A064812F039F8064B3B
:1040D40040F2D661054A064812F032F83C0C002042
:1040E4007C0C0020B00C0020800E0020040C00206A
:1040F400A00B0020F8B504462DED048BB0EE409BD8
:1041040000AFFEF731FB2046D04B04F5A675B0EEA8
:10411400491B9FEDCF0A40F8883B04F5C67603F0AF
:1041240043F963699FEDCB8AB0EE491B034404F164
:104134009400B0EE480A636103F036F963692946D6
:1041440000221844606104F1A00003F0A5F963693A
:104154001844606104F1B00003F092F96369B0EEB1
:10416400491B1844B0EE480A606104F1B40003F03E
:104174001BF963691844606104F1C00003F0FAF8A4
:1041840063691844606104F1C40003F07FF9636952
:104194001844606104F1C80003F0ECF86369184442
:1041A400606104F1CC0003F071F96369B0EE490B6E
:1041B4001844606104F1D00003F0E2F86369B0EEE2
:1041C400490B1844606104F1DC0003F0D9F8636919
:1041D400314600221844606104F1E80003F05CF900
:1041E4006369B0EE490B1844606104F1F80003F010
:1041F400C7F86369B0EE491B9FED970A18446061E4
:1042040004F5827003F0D0F86369B0EE491B1844DA
:10421400B0EE480A606104F5887003F0C5F863697C
:10422400294600221844606104F58E7003F034F9C5
:1042340063691844606104F5967003F021F96369B9
:10424400294600221844606104F5987003F024F9AB
:1042540063690246B0EE490B04F5A0709FED7F9AA6
:104264001344636103F08CF8636902464FF4807170
:1042740028467B4D13447B4A636103F03BF9636931
:1042840079491844606104F5B27002F0F5F8636985
:10429400012218441146606104F5B47002F030F94B
:1042A40062690023104419461A46606104F5B87027
:1042B40003F00EF9636929461844606104F5BA7085
:1042C40002F012FB6369012218441146606104F58F
:1042D400BE7002F015F96369F0EE480A0021184433
:1042E400B0EE480A606104F5C47003F0E1F8636954
:1042F40002464FF48071304613445C4A636103F014
:10430400F9F863695A491844606104F5D07002F001
:10431400EBFA6369012218441146606104F5D47014
:1043240002F0EEF86369F0EE480A00210344B0EEAF
:10433400480A04F5DA70636103F0BAF86369024667
:10434400B7EE000A04F5DC701344636102F0C4FAAA
:1043540063690246B0EE480A04F5E27013446361EF
:1043640002F0BAFA63690246B0EE480A04F5E67050
:104374001344636102F0B0FA63690246B0EE480A7E
:1043840004F5EA701344636102F0A6FA63692946EE
:104394001844606104F5EE7002F0A6FA6369012224
:1043A40018441146606104F5F27002F0A9F86369DB
:1043B400F0EE480A00210344B0EE480A04F5F87010
:1043C400636103F075F8636904F5FA71B0EE480AA5
:1043D40003442046636101F0A1FF63690246B3EE22
:1043E400040A04F506701344636102F075FA636904
:1043F4000246B0EE480A04F50A701344636101F002
:10440400C1FE63690246B0EE480A04F50B7013441A
:10441400636102F061FA63694FF0FF3201211844CD
:10442400606104F50D7002F06BF8636901214FF0CF
:10443400FF321844606104F50F7002F061F863699B
:104444000246B0EE480A04F5117013E08814002007
:104454000000DC420000000000005C430044AC4665
:10446400E80C0020B83700202C321D6EB833002031
:10447400F00C00201344636102F02EFA63690246D3
:10448400B7EE000A04F513701344636102F024FAD2
:1044940063690246B0EE480A04F51570134463617B
:1044A40002F01AFA63690246B0EE480A04F517707E
:1044B4001344636102F010FA63690246B0EE480ADD
:1044C40004F519701344636102F006FA636901226A
:1044D40018441146606104F51B7002F011F8636919
:1044E400002101221844606104F51D7002F008F8EF
:1044F40063690246B0EE480A04F520701344636110
:1045040001F040FE6369B0EE480A034404F52170EB
:10451400636101F037FE6369B0EE480A034404F5B1
:104524002370636101F02EFE6369B0EE480A034410
:1045340004F52570636101F025FE6369B3EE040A96
:10454400034404F52670636101F01CFE6369B0EE58
:10455400480A034404F52770636101F013FE63699C
:10456400B0EE480A034404F52870636101F00AFEC2
:104574006369B0EE480A034404F52970636101F0ED
:1045840001FE6369B0EE480A034404F52A706361CE
:1045940002F0A2F96369B0EE480A034404F52C70F2
:1045A400636102F099F96369B0EE490A034404F5C2
:1045B4002E70636102F090F96369B0EE480A034417
:1045C40004F53070636101F0DDFD6369F0EE480AC3
:1045D40000211844B0EE480A606104F5327002F01C
:1045E40067FF6369F0EE480A00211844B0EE480AF8
:1045F400606104F5367002F05BFF63692946034489
:1046040004F53870636102F06FF96369012218449C
:104614001146606104F53A7001F072FF6369F0EECF
:10462400480A00210344B0EE480A04F53D70636172
:1046340002F03EFF636904F53E71B0EE480A03449C
:104644002046636101F06AFE63690246B3EE040A20
:1046540004F547701344636102F03EF9636902464E
:10466400B0EE480A04F54B701344636101F08AFD0F
:1046740063690246B0EE480A04F54C701344636162
:1046840002F02AF963694FF0FF3201211844606196
:1046940004F54E7001F034FF636901214FF0FF32DD
:1046A4001844606104F5507001F02AFF6369024602
:1046B400B0EE480A04F552701344636102F00CF939
:1046C40063690246B7EE000A04F55470134463614B
:1046D40002F002F963690246B0EE480A04F5567026
:1046E4001344636102F0F8F863690246B0EE480AC5
:1046F40004F558701344636102F0EEF863690246EE
:10470400B0EE480A04F55A701344636102F0E4F809
:104714006369012218441146606104F55C7001F07C
:10472400EFFE6369002101221844606104F55E70A4
:1047340001F0E6FE63690246B0EE480A04F56170D2
:104744001344636101F01EFD63690246B0EE480A3A
:1047540004F562701344636101F014FD6369024659
:10476400B0EE480A04F564701344636101F00AFD75
:1047740063690246B0EE480A04F566701344636147
:1047840001F000FD63690246B3EE040A04F56770A4
:104794001344636101F0F6FC63690246B0EE480A13
:1047A40004F568701344636101F0ECFC636902462C
:1047B400B0EE480A04F569701344636101F0E2FC49
:1047C40063690246B0EE480A04F56A7013446361F3
:1047D40001F0D8FC63690246B0EE480A04F56B7038
:1047E4001344636102F078F863690246B0EE480A44
:1047F40004F56D701344636102F06EF86369024658
:10480400B0EE490A04F56F701344636102F064F872
:1048140063690246B0EE480A04F57170134463619B
:1048240001F0B0FC6369F0EE480A00210344B0EEE5
:10483400480A04F57370636102F03AFE6369F0EEAE
:10484400480A00210344B0EE480A04F57770636116
:1048540002F02EFE6369F0EE480A00210344B0EE34
:10486400480A04F57970636102F022FE6369F0EE90
:10487400480A00210344B0EE480A04F57A706361E3
:1048840002F016FE6369024604F57B71B0EE480A35
:1048940020461344636101F041FD63690246B3EEAF
:1048A4000E0A04F582601344636102F015F863692B
:1048B4000246B0EE480A04F584601344636101F0D3
:1048C40061FC636902463C4904F5856013446361F5
:1048D40001F0D2FD63690122034404F22C40114625
:1048E400636101F00DFE63690246344904F5876093
:1048F4001344636101F0C0FD63690122034404F2BF
:104904003C401146636101F0FBFD636902462C499A
:1049140004F589601344636101F0AEFD636901220B
:10492400034404F24C401146636101F0E9FD6369FC
:10493400F0EE480A00210344B0EE480A04F2644051
:10494400636102F0B5FD6369F0EE480A0021034497
:10495400B0EE480A04F58D60636102F0A9FD636955
:10496400F0EE480A00210344B0EE480A04F26C4019
:10497400636102F09DFD6369F0EE480A002103447F
:10498400B0EE480A04F58E60636102F091FD63693C
:1049940084B0002103446846636102F07BF9094B4B
:1049A4000146002204F1180002F048FC2046BD46EE
:1049B400BDEC048BF8BD00BF3DAF351945202D2B50
:1049C4007982BEA7813A000070B5002105461846D9
:1049D4001C4602F009FA114B01462046C91AB1FAE5
:1049E40081F1490902F000FA0D4B98420AD00D4EAC
:1049F400234605F5B271284604960022BDE87040AE
:104A040001F042BD084E234605F5B47128460496CC
:104A14000022BDE8704001F079BD00BF6E0ED606DD
:104A240001BD647E8109000049180000F8B500AF9B
:104A340086B0022115466C4612680646204602F0EE
:104A440015F900232A462046194602F01BFAA388CA
:104A5400012B0CD94FF07E530125224606F5B8717F
:104A640030462574636102F037FDBD46F8BDFEF79C
:104A7400FDFE00BF0021FFF7D9BF00BF2DE9F041C3
:104A840082B003211546064602AF88B0126802AC14
:104A9400204602F0EBF8A3881BB3E3884FF002082A
:104AA40013492A4606332046E1600121E3800023AE
:104AB40084F8088002F0E6F9A388434511D9E38815
:104AC40030460C4A0C490533E2610022E380234658
:104AD40084F818800091114601F094FDBD46BDE8AC
:104AE400F081064B9421064A064811F029FB00BFC9
:104AF400D80B0020E00B0020A9090000CC110020F5
:104B040068120020981100200021FFF7B7BF00BFF2
:104B14002DE9F04182B003211546064602AF88B064
:104B2400126802AC204602F0A1F8A3881BB3E38804
:104B34004FF0020813492A4606332046E16001215A
:104B4400E380002384F8088002F09CF9A38843459D
:104B540011D9E38830460C4A0C490533E26100223E
:104B6400E380234684F818800091114601F04AFD41
:104B7400BD46BDE8F081064B9421064A064811F073
:104B8400DFFA00BFD80B0020E00B0020CD090000A5
:104B9400CC11002068120020981100200021FFF79A
:104BA400B7BF00BF2DE9F04182B003211546064688
:104BB40002AF88B0126802AC204602F057F8A3880E
:104BC4001BB3E3884FF0020813492A4606332046F4
:104BD400E1600121E380002384F8088002F052F9A7
:104BE400A388434511D9E38830460C4A0C49053360
:104BF400E2610022E380234684F818800091114684
:104C040001F000FDBD46BDE8F081064B9421064A43
:104C1400064811F095FA00BFD80B0020E00B0020E5
:104C2400F1090000CC110020681200209811002026
:104C34000021FFF7B7BF00BFB0B582B00121054620
:104C440002AF84B0126802AC204602F00FF8A388C9
:104C540083B1E38802200A4A0A490B33E260002246
:104C640020722846E38023460091114601F0CAFCD5
:104C7400BD46B0BD044B9421044A054811F060FAC6
:104C8400F00B0020D9100000CC1100206812002085
:104C940098110020B0B582B00121054602AF84B05E
:104CA400126802AC204601F0E1FFA38883B1E388D7
:104CB40002200A4A0A490B33E26000222072284685
:104CC400E38023460091114601F09CFCBD46B0BD33
:104CD400044B9421044A054811F032FAF00B0020E9
:104CE400150A0000CC110020681200209811002041
:104CF400F0B583B00121054602AF84B0126802AC5E
:104D0400204601F0B3FFA38893B1E38802210B4A44
:104D140028460B4E0633217205F5FA71E260002233
:104D2400E3802346009601F007FB0437BD46F0BD3F
:104D3400044B9421044A054811F002FAE80B0020C0
:104D440051170000CC110020681200209811002097
:104D540070B50021054618461C4602F045F80F4B75
:104D640001462046C91AB1FA81F1490902F03CF81A
:104D740060B10B4B984209D00A4E002223462846C4
:104D840004961146BDE8704001F064BA22462846F4
:104D94000021BDE87040FFF7ABBF00BF6E0ED60622
:104DA4002D035B7A692D000030B585B000210446DF
:104DB4000B4D0392FFF79CFF0A492046039B0022F8
:104DC400009104F5FA7101F0B7FA039B002204F58F
:104DD4000B712046009501F093FD05B030BD00BF76
:104DE400551100005117000070B500210546184602
:104DF4001C4601F0F9FF114B01462046C91AB1FACD
:104E040081F1490901F0F0FF18B1B0F17E5F0AD0D9
:104E140070BD0B4E23460246014604962846BDE863
:104E2400704001F017BA074E002223462846049624
:104E34001146BDE8704001F00DBA00BF6E0ED606F3
:104E44002D0D0000E91500000021134600B583B0C4
:104E54000A460091FFF7C8FF03B05DF804FB00BFEA
:104E640070B5002182B0054618461C4601F0BCFF0F
:104E7400264B01462046C91AB1FA81F1490901F0CD
:104E8400B3FF234B98420ED0224B984211D1224EAD
:104E94002346002205F50D712846069602B0BDE8AA
:104EA400704001F033BB1D4E2346002205F50F71FF
:104EB400F2E700221A49234628460091114601F0E0
:104EC400C9F91849234628460091002205F51B71AB
:104ED40001F01CFB1449234628460091002205F5E5
:104EE4001D7101F013FB002210492346284600914E
:104EF400114601F0AFF90E490022234606912846D7
:104F0400114602B0BDE8704001F0A4B96E0ED60699
:104F1400AB4D003E2D035B7A99300000C9180000A8
:104F2400D50D00000119000039190000DD2F000023
:104F3400ED30000070B5002182B0054618461C46CD
:104F440001F052FF1A4B01462046C91AB1FA81F109
:104F5400490901F049FF50B9164E0246014623465D
:104F64002846069602B0BDE8704001F073B91249B4
:104F7400284600230222114ECDE9004105F5217196
:104F840001F006F90E49284601230322CDE9004128
:104F940005F5267101F0FCF82346002205F506719B
:104FA4002846069602B0BDE8704001F0A9BC00BFD7
:104FB4006E0ED6066D310000890A0000151100003E
:104FC400251200000021134600B583B00A46009163
:104FD400FFF7B0FF03B05DF804FB00BFB0B582B0CB
:104FE4000121054602AF84B0126802AC204601F0EC
:104FF4003DFEA3887BB100224FF07E514FF0010C9F
:105004002346E1602846114684F808C00092FFF761
:105014009FFEBD46B0BDFEF729FC00BF0021FFF78F
:10502400DDBF00BFF0B583B00121054602AF84B0F7
:10503400126802AC204601F019FEA38813B30022C3
:1050440001260021234628462672E160114600927B
:10505400FFF77EFE0C49334628460022CDE9004185
:1050640005F5287101F094F8DFF820C033460022DA
:1050740005F525712846CDE9004C01F089F804377F
:10508400BD46F0BDFEF7F2FBB90D0000650D000052
:105094000021FFF7C7BF00BF0021FFF7C3BF00BF58
:1050A400B0B582B00121054602AF84B0126802ACEB
:1050B400204601F0DBFDA38863B10022012000211A
:1050C400234620722846E16011460092FFF740FE15
:1050D400BD46B0BDFEF7CAFB012902D80021FFF787
:1050E400DFBF70470021FFF7DBBF00BFB0B582B060
:1050F4000121054602AF84B0126802AC204601F0DB
:10510400B5FDA3886BB10122002007492346E06066
:1051140028462272009105F5117101F0F1FBBD469C
:10512400B0BDFEF7A3FB00BF1D1600000021FFF772
:10513400DDBF00BFF0B583B00121044602AF84B0E7
:10514400126802AE304601F091FDB3881BB301250D
:105154001249134A204635720023F16004F5217187
:1051640001920222009601F013F80E482B460E4DD0
:1051740004F526710322CDE90060204601F008F809
:105184003346002204F506712046009501F0B8FB71
:105194000437BD46F0BDFEF769FB00BF0000A04127
:1051A400890A000025120000151100000021FFF7F4
:1051B400C1BF00BFB0B582B00121054602AF84B0C3
:1051C400126802AC204601F051FDA38883B1E38844
:1051D40002200A4A0A490B33E26000222072284660
:1051E400E38023460091114601F00CFABD46B0BDA0
:1051F400044B9421044A054810F0A2FFF00B002050
:105204002D320000CC1100206812002098110020DB
:10521400F0B583B002211546064602AF86B0126887
:1052240002AC204601F022FDA388B3B10C48012151
:105234002A460023E0602046217201F023FE094D36
:1052440000239FED090A032230461946CDE90045A3
:1052540000F0D6FF0437BD46F0BDFEF707FB00BFE4
:10526400E40FC94021130000000000000021FFF7F3
:10527400CFBF00BFF0B583B002211546064602AF8A
:1052840086B0126802AC204601F0F0FC00232A46E6
:105294002046194601F0F6FDA388012B0DD9002202
:1052A400012007492346207430466161114600926B
:1052B400FFF7D6FD0437BD46F0BDFEF7D7FA00BFB1
:1052C40000007A4430B51546044683B000F1B401B9
:1052D4002B46002202F080F82A4620460021FFF7E0
:1052E400C9FF00230948B3EE040A19460222CDE996
:1052F4000050204600F084FF2A4604F57A712046C7
:1053040003B0BDE8304002F0D9B800BFCD100000B2
:105314002DE9F04182B003211546064602AF88B05C
:10532400126802AC204601F0A1FCA3881BB3E388F9
:105334004FF0020813492A4606332046E160012152
:10534400E380002384F8088001F09CFDA388434592
:1053540011D9E38830460C4A0C490533E261002236
:10536400E380234684F818800091114601F04AF93D
:10537400BD46BDE8F081064B9421064A064810F06C
:10538400DFFE00BFD80B0020E00B0020250B00003F
:10539400CC11002068120020981100200021FFF792
:1053A400B7BF00BFB0B582B00121054602AF84B0DB
:1053B400126802AC204601F059FCA38883B1E3884B
:1053C40002200A4A0A490B33E2600022207228466E
:1053D400E38023460091114601F014F9BD46B0BDA7
:1053E400044B9421044A054810F0AAFEF00B002057
:1053F40041130000CC1100206812002098110020F5
:10540400B0B582B00121054602AF84B0126802AC87
:10541400204601F02BFCA38883B1E38802200A4ACA
:105424000A490B33E260002220722846E3802346B7
:105434000091114601F0E6F8BD46B0BD044B94213D
:10544400044A054810F07CFEF00B0020490B0000D4
:10545400CC1100206812002098110020F0B583B010
:105464000121054602AF84B0126802AC204601F067
:10547400FDFBA38893B1E38802210B4A28460B4E17
:105484000633217205F53E71E2600022E380234673
:10549400009600F051FF0437BD46F0BD044B942143
:1054A400044A054810F04CFEE80B0020B117000038
:1054B400CC110020681200209811002070B5002142
:1054C400054618461C4601F08FFC0F4B014620464A
:1054D400C91AB1FA81F1490901F086FC60B10B4B9C
:1054E400984209D00A4E00222346284604961146C3
:1054F400BDE8704000F0AEBE224628460021BDE85B
:105504007040FFF7ABBF00BF6E0ED6062D035B7A6B
:10551400D534000030B585B0002104460B4D03920C
:10552400FFF79CFF0A492046039B0022009104F5E3
:105534003E7100F001FF039B002204F54C712046EC
:10554400009501F0DDF905B030BD00BFBD130000CA
:10555400B117000070B50021054618461C4601F03D
:1055640043FC114B01462046C91AB1FA81F149099D
:1055740001F03AFC18B1B0F17E5F0AD070BD0B4E59
:1055840023460246014604962846BDE8704000F0D2
:1055940061BE074E00222346284604961146BDE804
:1055A400704000F057BE00BF6E0ED606290E0000F4
:1055B4009D1600000021134600B583B00A460091F1
:1055C400FFF7C8FF03B05DF804FB00BF70B500210E
:1055D40082B0054618461C4601F006FC264B0146DF
:1055E4002046C91AB1FA81F1490901F0FDFB234BA8
:1055F40098420ED0224B984211D1224E23460022CB
:1056040005F54E712846069602B0BDE8704000F0DC
:105614007DBF1D4E2346002205F55071F2E700229E
:105624001A49234628460091114600F013FE1849F2
:10563400234628460091002205F55C7100F066FFC0
:105644001449234628460091002205F55E7100F0B6
:105654005DFF00221049234628460091114600F0C0
:10566400F9FD0E490022234606912846114602B050
:10567400BDE8704000F0EEBD6E0ED606AB4D003EA8
:105684002D035B7A0538000071190000D10E00006B
:10569400A9190000E1190000493700005938000039
:1056A40070B5002182B0054618461C4601F09CFBEB
:1056B4001A4B01462046C91AB1FA81F1490901F091
:1056C40093FB50B9164E02460146234628460696D9
:1056D40002B0BDE8704000F0BDBD12492846002369
:1056E4000222114ECDE9004105F5627100F050FD32
:1056F4000E49284601230322CDE9004105F56771CF
:1057040000F046FD2346002205F54771284606961B
:1057140002B0BDE8704001F0F3B800BF6E0ED606CB
:10572400D9380000BD0B00007D1300008D1400006B
:105734000021134600B583B00A460091FFF7B0FF7D
:1057440003B05DF804FB00BFB0B582B0012105468B
:1057540002AF84B0126802AC204601F087FAA38835
:105764007BB100224FF07E514FF0010C2346E160E3
:105774002846114684F808C00092FFF79FFEBD46F4
:10578400B0BDFEF773F800BF0021FFF7DDBF00BF17
:10579400F0B583B00121054602AF84B0126802ACB3
:1057A400204601F063FAA38813B3002201260021E6
:1057B400234628462672E16011460092FFF77EFEDA
:1057C4000C49334628460022CDE9004105F56971AC
:1057D40000F0DEFCDFF820C03346002205F56671D8
:1057E4002846CDE9004C00F0D3FC0437BD46F0BD9B
:1057F400FEF73CF8B50E0000610E00000021FFF733
:10580400C7BF00BF0021FFF7C3BF00BFB0B582B060
:105814000121054602AF84B0126802AC204601F0B3
:1058240025FAA38863B100220120002123462072B7
:105834002846E16011460092FFF740FEBD46B0BD28
:10584400FEF714F8012902D80021FFF7DFBF7047E3
:105854000021FFF7DBBF00BFB0B582B001210546D0
:1058640002AF84B0126802AC204601F0FFF9A388AD
:105874006BB10122002007492346E06028462272CA
:10588400009105F5527101F03BF8BD46B0BDFDF73E
:10589400EDFF00BFD11600000021FFF7DDBF00BF00
:1058A400F0B583B00121044602AF84B0126802AEA1
:1058B400304601F0DBF9B3881BB301251249134AC2
:1058C400204635720023F16004F5627101920222D0
:1058D400009600F05DFC0E482B460E4D04F56771F2
:1058E4000322CDE90060204600F052FC334600223A
:1058F40004F547712046009501F002F80437BD46CF
:10590400F0BDFDF7B3FF00BF0000A041BD0B0000D8
:105914008D1400007D1300000021FFF7C1BF00BFFC
:10592400B0B582B00121054602AF84B0126802AC62
:10593400204601F09BF9A38883B1E38802200A4A38
:105944000A490B33E260002220722846E380234692
:105954000091114600F056FEBD46B0BD044B9421A3
:10596400044A054810F0ECFBF00B002099390000C4
:10597400CC1100206812002098110020F0B583B0EB
:1059840002211546064602AF86B0126802AC2046D4
:1059940001F06CF9A388B3B10C4801212A46002315
:1059A400E0602046217201F06DFA094D00239FED5D
:1059B400090A032230461946CDE9004500F020FCCF
:1059C4000437BD46F0BDFDF751FF00BFE40FC940E9
:1059D40089150000000000000021FFF7CFBF00BFC1
:1059E400F0B583B002211546064602AF86B01268B0
:1059F40002AC204601F03AF900232A462046194613
:105A040001F040FAA388012B0DD900220120074997
:105A1400234620743046616111460092FFF7D6FD9B
:105A24000437BD46F0BDFDF721FF00BF00007A44F6
:105A340030B5002383B01446084905469FED080A93
:105A4400019102221946009400F0DAFB224600215B
:105A5400284603B0BDE83040FFF7C2BF6510000020
:105A640000007A44B0B582B00121054602AF84B08B
:105A7400126802AC204601F0F9F8A38883B1E388E8
:105A840002200A4A0A490B33E260002220722846A7
:105A9400E38023460091114600F0B4FDBD46B0BD3D
:105AA400044B9421044A054810F04AFBF00B0020F3
:105AB400590C0000CC11002068120020981100201D
:105AC400F0B5002183B004461546FFF7E3F85349C7
:105AD4002B4620460091002204F50671504F00F039
:105AE4000FFF2A4620460021FFF764FB4D492B4651
:105AF40020460091002204F52E7100F001FF2A4691
:105B040020460021FFF77CFC47492B4620460091A4
:105B1400002204F5477100F0F3FE2A4620460021D6
:105B2400FFF7FEFE41492B4620460091002204F572
:105B34006F7100F0E5FE2A4620460021FFF77CF84D
:105B44003B492B4620460091002204F5157100F0D4
:105B5400D7FE38492B4620460091002204F51371E4
:105B640000F0CEFE2A4620460021FFF71BFC3249F6
:105B74002B4620460091002204F5567100F0C0FE29
:105B840000222E492B4616462046009104F55471F6
:105B940000F0B6FE2B463246314620460096FEF70C
:105BA40013FF2A4631462046FFF75CFF244A2B4662
:105BB40004F5826120460092324600F0A1FE214A9B
:105BC4002B4604F5DC7120460092324600F098FE24
:105BD4001D4A2B4604F5BA7120460092324600F065
:105BE4008FFE1A4A2B4604F5D071204600923246A5
:105BF40000F086FE164A2B4604F5EE71204600920C
:105C0400324600F07DFE2B46324604F538712046BC
:105C1400009700F075FE03B0F0BD00BF1511000041
:105C24005D330000011300007D13000069150000BE
:105C340095110000852F0000FD130000F1360000CF
:105C4400A9150000CD3C0000C92A00005D2B00000E
:105C5400F12B0000F0B583B00121054602AF84B0FA
:105C6400126802AC204601F001F8A38893B1E388DE
:105C740002210B4A28460B4E0633217205F57B712F
:105C8400E2600022E3802346009600F055FB0437CF
:105C9400BD46F0BD044B9421044A054810F050FA67
:105CA400E80B0020313E0000CC11002068120020D7
:105CB4009811002070B50021054618461C4601F0D5
:105CC40093F80F4B01462046C91AB1FA81F14909EC
:105CD40001F08AF860B10B4B984209D00A4E0022B9
:105CE4002346284604961146BDE8704000F0B2BA37
:105CF400224628460021BDE87040FFF7ABBF00BF35
:105D04006E0ED6062D035B7A893E000030B5002363
:105D140083B0144609499FED0A0A0C2201911946E1
:105D24000094054600F06CFA0022234628461146EA
:105D34000092FFF7BFFF03B030BD00BF110D00009C
:105D44000000000070B50021054618461C4601F00D
:105D54004BF8114B01462046C91AB1FA81F14909A1
:105D640001F042F80D4B98420AD00D4E234605F53A
:105D74008561284604960022BDE8704000F084BB8B
:105D8400084E234605F22C41284604960022BDE81D
:105D9400704000F0BBBB00BF6E0ED60601BD647E32
:105DA400A50C00006918000070B5002105461846CE
:105DB4001C4601F019F8114B01462046C91AB1FAE4
:105DC40081F1490901F010F80D4B98420AD00D4EAB
:105DD400234605F58761284604960022BDE87040F5
:105DE40000F052BB084E234605F23C412846049677
:105DF4000022BDE8704000F089BB00BF6E0ED606DD
:105E040001BD647EC90C00008918000070B5002132
:105E1400054618461C4600F0E7FF114B0146204694
:105E2400C91AB1FA81F1490900F0DEFF0D4B98421D
:105E34000AD00D4E234605F58961284604960022B2
:105E4400BDE8704000F020BB084E234605F24C41EB
:105E5400284604960022BDE8704000F057BB00BFFE
:105E64006E0ED60601BD647EED0C0000A91800007C
:105E740070B500F57B7482B005461146204616467F
:105E840000F0E6FA21460F4A0024334628460092E1
:105E9400224600F051FA3346224621462846009411
:105EA400FFF750FF33462246214628460094FFF769
:105EB4007BFF33462246214628460094FFF7A6FF7F
:105EC40002B070BD313E000070B5002182B00546BD
:105ED4001646FFF7BFFE00220F49334614462846F4
:105EE400009105F57B7100F027FA334622462146DE
:105EF40028460094FFF726FF3346224621462846CB
:105F04000094FFF751FF3346224621462846009469
:105F1400FFF77CFF02B070BD313E0000F0EE407A26
:105F240017281ED8DFE810F02801250122011901E5
:105F34000701F300D200C400B600A8009A008C0048
:105F440081007600180069005D00510046003B00A6
:105F5400380035002E002000B5EE400AF1EE10FAAC
:105F640050D19FED870A7047B5EE400AF1EE10FA62
:105F740004D1F5EE400AF1EE10FAF2D0B0EE670A61
:105F84000DF09AB9B5EEC00AF1EE10FAE9DD0DF0A4
:105F9400DFBF80FE600A704780FE200A7047B4EEBF
:105FA400E00ADFED777AB7EE000AF1EE10FA20FE90
:105FB400270A7047B4EEE00ADFED717AB7EE000A03
:105FC400F1EE10FA30FE270A7047B4EEE00ADFED76
:105FD4006C7AB7EE000AF1EE10FA88BFB0EE670AE9
:105FE4007047B4EEE00ADFED667AB7EE000AF1EE30
:105FF40010FA58BFB0EE670A7047B5EE400AF1EEEA
:1060040010FA04D1F5EE400AF1EE10FAA9D0B7EE79
:10601400000A7047B4EE600A9FED590AF7EE007A61
:10602400F1EE10FA00FE270A7047B4EE600A9FED05
:10603400540AF7EE007AF1EE10FA07FE800A704770
:10604400BDEEC00AFDEEE00A10EE103A10EE902A02
:10605400134300EE103AB8EEC00A7047BDEEC00A12
:10606400FDEEE00A10EE103A10EE902A534000EED6
:10607400103AB8EEC00A7047BDEEC00AFDEEE00A61
:1060840010EE103A10EE902A134000EE103AB8EEDB
:10609400C00A7047BDEEC00AFDEEE00A10EE103AE9
:1060A40010EE902A134100EE103AB8EEC00A704781
:1060B400BDEEC00AFDEEE00A10EE103A10EE902A92
:1060C400934000EE103AB8EEC00A7047F5EE400A6D
:1060D400F1EE10FA3FF445AFFDEEC07A17EE903AB8
:1060E400FDEEE07A17EE902A93FBF2F102FB1133F6
:1060F40007EE903AB8EEE70AB5EEC00AF1EE10FAF0
:106104007FF531AFF0EEE00A30EE200A7047BDEEC5
:10611400E07A17EE102A002A3FF423AFFDEEC07A8E
:1061240017EE903A93FBF2F102FB113307EE903A2B
:10613400B8EEE70A7047BDEEE07A17EE103A002B8E
:106144003FF40FAFBDEEC00A10EE102A92FBF3F33A
:1061540000EE103AB8EEC00A7047F5EE400AF1EED0
:1061640010FA3FF4FEAE87EEA00A704720EE200A34
:10617400704730EE600A704730EE200A704700BF67
:10618400000000000346002083ED000A704700BFB2
:10619400F8B500AFBC692BB1012B01D1A388F3B9C9
:1061A400BD46F8BDA388002BFAD005461046227AD6
:1061B400012AF5D1012B19D184B0D1ED000A6E4624
:1061C40094ED030AFFF7AAFE2168304600F058FD5B
:1061D400324600212846FB699847BD46F8BD237A1C
:1061E400012BDDD1E3680B60BD46F8BD237C012B98
:1061F400E2D1D4ED050A84B0C1ED000A6E46DFE7B2
:10620400F8B500AFBD69AB880BB9BD46F8BD04460F
:1062140010462A7A012AF8D1012B12D184B06E4695
:10622400F0EE400A95ED030AFFF778FE2968304640
:1062340000F026FD324600212046FB699847BD4602
:10624400F8BD2B7C012BE9D184B095ED050A6E468F
:10625400E6E700BFF0B5012983B0054600AF05D0DD
:10626400022922D091B10C37BD46F0BD9A88002A8C
:10627400F9D01A7A012AF6D184B0196893ED030A89
:106284006A4610467A6000F0FBFC06E084B01968A8
:106294006A4610467A6000F0FDFC7A6800213B6A89
:1062A400284698470C37BD46F0BD9A882AB31C7A15
:1062B400012C15D0022C0ED0002CD4D184B0196836
:1062C400114A6E46304600F0F1FC3246214628461B
:1062D4003B6A9847C7E71A4600213B6A9847C2E7DA
:1062E40084B01968094A6C46204600F0DFFC224657
:1062F400002128463B6A9847B5E7054B6421054AC7
:1063040005480FF01DFF00BFB41B0020BC1B00207C
:10631400CC110020E01800209811002010B50C4684
:1063240000F09EFB2022002144F8040B204612F0CA
:1063340091F9002010BD00BF012A2DE9F047DDF8D6
:10634400209088461E4605D0022A144632D07AB1DF
:10635400BDE8F0879B88002BFAD0337A012BF7D164
:1063640096ED030A00F07CFBC8F80000BDE8F08756
:106374000746314A2146184600F05EFD60B34546A3
:1063840008F1200A55F8044F54B13368224600211D
:1063940038462360C8474A462146384600F04EFB3B
:1063A4005545EFD108F1040020220021BDE8F04753
:1063B40012F050B99B88002BCAD0337A012BC7D175
:1063C40096ED037ADFED1D7AC7FE877AFCEEE77A55
:1063D400C1ED007ABDE8F0870146194A304600F065
:1063E4002BFD60B1444608F1200554F8041F19B18F
:1063F4004A46384600F022FBA542F6D1D2E735687A
:106404004246D8F800302B44336052F8043F43B17D
:106414000134082CF9D10B4B3D210B4A0B480FF0EA
:106424008FFE08EB84044A4638463146FCF722FACC
:10643400606035608CE700BFC41B002000000000D2
:10644400E80B0020CC1B002058190020381C002029
:106454000023024610B452F8044F8C4205D0013395
:10646400082BF8D15DF8044B704700EB8300002340
:106474005DF8044B43607047002903464FF0000069
:1064840008BF0121196070472DE9F8430E4600AF9B
:106494009946144632B1012A01D19B880BBBBD46F3
:1064A400BDE8F88305460968144884B06FF0040217
:1064B4000023A1FB0001E8460FF0C4FCD9F800104A
:1064C400530A3260404600EE103ABAEEE40A00F095
:1064D400D7FB4246214628463B6A9847BD46BDE85D
:1064E400F88399F80830012BD9D1D9ED037AFCEE61
:1064F400E77AC1ED007ABD46BDE8F883C160A81013
:1065040003460020C3E90012704700BF2DE9F043A1
:10651400012A83B00C4600AF06D0022A49D0DAB172
:106524000C37BD46BDE8F0839A88002AF8D0197A62
:106534000129F5D1D3ED037A012AFDEEE77AC4ED02
:10654400007AEDD01A7C012AEAD1D3ED057AFDEE6A
:10655400E77AC4ED017AE3E70A68054699888A4236
:1065640037DA6068891A002802DD8142A8BF014633
:1065740000293BD04A1C99466B46D600A3EBC203C4
:1065840059F8082B9D46E846404600F06FFB216809
:10659400A6F1080208F1080009EBC1010BF082FA28
:1065A400BB6A42460021284698470C37BD46BDE8E1
:1065B400F0839A88002AB3D01A7A012AB0D1D3ED95
:1065C400037A0C37FDEEE77AC1ED017ABD46BDE8EA
:1065D400F08384B019686A4610467A6000F05AFB6A
:1065E4007A6801212846BB6A984799E7024B3A2109
:1065F400024A03480FF0A4FD681100206C19002022
:10660400981100202DE9F04182B00546464A002148
:1066140000AF84B018461C466E4600F00DFC98B1DD
:1066240021682846796000F0CBF97968B7EEC00B91
:10663400304600F025FB3246002128463B6A984745
:106644000837BD46BDE8F0810146384A204600F0CF
:10665400F3FB68B121682846796000F0CBF900EEBD
:10666400100A79683046B8EEC00A00F009FBE2E788
:1066740001462F4A204600F0DFFB70B901462D4A3F
:10668400204600F0D9FB70B12168304607EE901A1D
:10669400B8EE670A00F0F4FACDE72168284679607D
:1066A40000F0BAF9DBE70146234A204600F0C4FBB8
:1066B4000028C5D00121204600F096FB014628465B
:1066C400FCF7D0F880460028BAD01C4A02212046A4
:1066D40000F0B2FB40B198ED010A30462168B8EEF3
:1066E400400A00F0CDFAA6E7154A0221204600F040
:1066F400A3FB40B198ED020A30462168B8EE400A87
:1067040000F0BEFA97E70F4A0221204600F094FBFE
:10671400002895D098ED040A30462168B8EE400A66
:1067240000F0AEFA87E700BFF00B0020701C0020D9
:10673400841C0020981C0020D80B0020A41C0020DE
:10674400E00B0020AC1C0020F0B583B01D469388FC
:1067540000AF13B90C37BD46F0BD137A1446012BB4
:10676400F8D10646D2ED037A1429F3D8DFE801F014
:106774001B20252A2F34393E43484D52575C5F670E
:10678400717F8D900B00B8FE670A84B021686A4659
:1067940010467A6000F074FA7A6800213046A847FF
:1067A4000C37BD46F0BDB0EE670A0CF059FDECE7BE
:1067B400B0EE670A0CF036FEE7E7B0EE670A0CF0BD
:1067C400FFFCE2E7B0EE670A0CF026FDDDE7B0EE71
:1067D400670A0CF08FFED8E7B0EE670A0CF06EFD86
:1067E400D3E7B0EE670A0DF043FDCEE7B0EE670ADB
:1067F4000CF0C8FDC9E7B0EE670A0DF03DFEC4E732
:10680400B0EE670A0CF090FDBFE7B0EE670A0CF03B
:106814004FFFBAE7B0EE670A0CF074FFB5E7B0EECD
:10682400670A0DF0BDFAB0E7B0EEE70AADE7F5EEA2
:10683400C07AF1EE10FA2EDC9FED1D0AA5E7F5EE05
:10684400C07AF1EE10FAF7DDB0EE670A0DF01AFB2C
:106854009BE7F5EEC07AF1EE10FAEDDDB0EE670AD3
:106864000DF010FBDFED137A20EE270A8DE7F5EE2D
:10687400C07AF1EE10FADFDDB0EE670A0DF002FB2C
:10688400DFED0D7A20EE270A7FE7BAFE670A7CE780
:10689400BBFE670A79E7F5EE407AF1EE10FA02D40E
:1068A400B1EEE70A71E7B0EE670A0CF099FD6CE708
:1068B400000000003BAAB83FD95BDE3E08B5034A9E
:1068C4006421034B03480FF03BFC00BFEC1800208D
:1068D400CC110020981100200346012200201A70D8
:1068E40083ED010A704700BF10B503230446084630
:1068F400237000F05DFE03460020636010BD00BFFE
:10690400F0B583B00D46144600AFA2B1012A0FD1F1
:106914009A88002A4BD01A7A012A3AD0023A012ADC
:1069240006D80322002118462A7000F05DFA686038
:106934000C37BD46F0BD9A88002A38D01A7A012A4D
:106944002DD0064611D80A7884B0012A6C4630D07E
:10695400032AEDD14A682046196800F0C1F922469D
:10696400002130463B6A9847E2E7023A012ADFD821
:106974000322214618467B602A7000F035FA7B68B2
:10698400844621461A4630463B6AC5F804C09847F7
:10699400CEE70A700C37DB684B60BD46F0BD0A7069
:1069A4001A46DE6821463B6A6E609847C0E7FFF7E7
:1069B40085FF91ED010A2046196800F061F9CEE7E0
:1069C40040B10268074992698A4202D190ED020BF4
:1069D40070471047044B8821044A054810B50FF04E
:1069E400AFFB00BF6D000000340700202021002011
:1069F400D821002010B10368DB681847034B8D21B0
:106A0400034A044810B50FF09BFB00BF3407002075
:106A1400B8200020D821002010B103681B69184752
:106A2400034B9221034A044810B50FF089FB00BFC1
:106A340034070020EC200020D821002010B1036886
:106A44001B6E1847034BF521034A044810B50FF099
:106A540077FB00BF3407002044200020D821002009
:106A6400C0B102681249526A8A4212D19FED117A6A
:106A740090ED026B87FE000AB7EEC07A9FED0A5BC9
:106A840027EE067B87EE056BFCEEC67B17EE900ABD
:106A940070471047084B4FF48C71084A084810B5EA
:106AA4000FF04EFBAFF300800000000000408F4069
:106AB40009020000000000003407002050210020DB
:106AC400D821002038B505460C46084631B929605E
:106AD400C5E90100C5E90344204638BD0FF098FB21
:106AE400286038B10023C5E9010003602046C5E9E8
:106AF400034438BD024B3121024A03480FF020FB06
:106B04005C1F00207C190020781F002000680FF013
:106B140087BB00BF83681B685A1C02D102681368D4
:106B240082601846704700BF01F10802036993426E
:106B340070B4D0E9014508D3043121448D4201D811
:106B4400A5421AD8201D70BC7047C168914214D365
:106B5400A54294BF002301237BB9066832449542C1
:106B64000ED3466001613360BFF35E8F00684FF05F
:106B7400FF330430236070BC7047002070BC704742
:106B84001846F8E701F1080208B5036993420FD3E8
:106B94005B1A426801F1040C043B036102EB0C0331
:106BA4004360002342F80C30BFF35E8F116008BDD0
:106BB400024B6B21024A03480FF0C2FAAC1F0020BB
:106BC400F8180020781F0020806850F8043B0B6000
:106BD400704700BF08B583681A681AB104321344B9
:106BE400836008BD024B7F21024A03480FF0A8FAD4
:106BF400341F0020A8180020781F002008B5034A7D
:106C04003A21034B03480FF09BFA00BF48190020B8
:106C1400681100209811002008B5034A6921034B2C
:106C240003480FF08DFA00BF2C190020CC1100206E
:106C34009811002008B5034A6421034B03480FF060
