:0200000460009A
:100000004643464200000156000000000103030081
:1000100000000000000000000000000000000000E0
:1000200000000000000000000000000000000000D0
:1000300000000000000000000000000000000000C0
:1000400000000000010408000000000000000000A3
:100050000000200000000000000000000000000080
:100060000000000000000000000000000000000090
:100070000000000000000000000000000000000080
:10008000EB04180A063204260000000000000000FD
:10009000050404240000000000000000000000002F
:1000A0000000000000000000000000000000000050
:1000B0000604000000000000000000000000000036
:1000C0000000000000000000000000000000000030
:1000D00020041808000000000000000000000000DC
:1000E0000000000000000000000000000000000010
:1000F0000000000000000000000000000000000000
:10010000D8041808000000000000000000000000F3
:100110000204180804200000000000000000000095
:1001200000000000000000000000000000000000CF
:10013000600400000000000000000000000000005B
:1001400000000000000000000000000000000000AF
:10015000000000000000000000000000000000009F
:10016000000000000000000000000000000000008F
:10017000000000000000000000000000000000007F
:10018000000000000000000000000000000000006F
:10019000000000000000000000000000000000005F
:1001A000000000000000000000000000000000004F
:1001B000000000000000000000000000000000003F
:1001C000000100000010000001000000000000001D
:1001D000000001000000000000000000000000001E
:1001E000000000000000000000000000000000000F
:1001F00000000000000000000000000000000000FF
:10020000FFFFFFFFFFFFFFFFFFFFFFFFFFFFFFFFFE
:10021000FFFFFFFFFFFFFFFFFFFFFFFFFFFFFFFFEE
:10100000D1002043491600600000000000000000ED
:10101000201000600010006000F00160000000007F
:101020000000006000FC010000000000FFFFFFFF67
:10103000FFFFFFFFFFFFFFFFFFFFFFFFFFFFFFFFC0
:10104000FFFFFFFFFFFFFFFFFFFFFFFFFFFFFFFFB0
:10105000FFFFFFFFFFFFFFFFFFFFFFFFFFFFFFFFA0
:10106000FFFFFFFFFFFFFFFFFFFFFFFFFFFFFFFF90
:10140000814205D051F8043B40F8043B8242F9D8B0
:10141000704700BF044A05494FF0000342F8043BFF
:101420009142FBD8704700BFC03E002020530020EF
:101430002DE98848BFF34F8F00BF00BF00BF00BF3A
:1014400000F07AFA674B0822C3F8542100BF00BFAE
:1014500000BF00BF00BF00BF00BF00BF00BF00BF94
:1014600000BF00BF00BF00BF00BF00BF5E4A5F49B2
:101470005F48FFF7C5FF5F4A5F496048FFF7C0FF5D
:101480005F4CFFF7C7FF4FF470004FF0E0210023DF
:101490005C4AC1F8880D44F823200133B02BFAD1FF
:1014A000594B8021594A03F8011B9342FBD14FF05D
:1014B000E0254C4E4FF08039DFF880B1DFF880A195
:1014C0004FF0FF31C5F8084D0027C6F80491C6F863
:1014D00000B1C6F8F490C6F8F0A0D5F8243DDFF8C6
:1014E000648143F4E0234A4AC5F8243DD8F81C300F
:1014F00023F07F0343F04003C8F81C30D8F82430B1
:1015000023F07F0343F04003C8F824309166D1668E
:101510001167516700F018FA3E4B3F49A3633F4BF8
:10152000E36363236B610323AF612B613C4BC5F81D
:10153000203DD5F8FC3D43F08073C5F8FC3D394BA8
:101540001A6842F001021A605B680B6000F084FACE
:10155000C6F804913448C6F800B1C6F8F490C6F84D
:10156000F0A000F015FCD8F86C10304B304A41F474
:101570004051C8F86C101F60C3F80871C3F81871A7
:10158000C3F82871C3F83871936BDB0708D442F6AF
:101590001563284951651365936B43F00103936309
:1015A000234A254C936843F00113936000F0B8FB85
:1015B00000F0FEFB00F07EFA00F0C0F92368132B68
:1015C000FCD900F00FFB2368B3F5967FFBD300F046
:1015D000B9F900F0B5F900F0F7FB00F0D1FB30BF2E
:1015E000FDE700BF00800D40788F010044200060BF
:1015F00000000000C03E0020C0AF016000000020DD
:10160000003C0020B917010000E400E0A0E400E085
:1016100000C00A40250D0100B0520020290D010034
:1016200000002020001000E00046C32300400840D6
:1016300000400D400000C056B45200201B1018207E
:101640000C0D111300C00F40054B4FF42A01054A41
:1016500005485A641864054A99639546FFF7E8FE01
:1016600000C00A40FFAAAAAA070020000000062026
:101670001BB9124B1B6F9B041ED400F03F000F4B95
:1016800022F0604221F0604140F489101867C3F8ED
:101690008010C3F890201A6F22F480521A671A6FD4
:1016A000002AFCDAD3F87011054A0A40C3F8702109
:1016B0001A6F22F480321A67704700BF00800D4015
:1016C000FF7F7FFF43690A4A03EB011010B4037ADE
:1016D000084C02EB0313D3E901321460C2681A60AC
:1016E00003690BB142691A605DF8044B704700BF93
:1016F000DC1E002061F801004369027E03EB021248
:1017000092F808C08C451CD01A7AFF2A19D0914251
:1017100010B5044616D01A7EFF2A06D00121D3E95F
:10172000002312681A4201D1217610BD064B052212
:10173000204603EB0C135B681A60FFF7C3FF2176AA
:10174000F3E770470021EAE7DC1E002043690A4AFC
:1017500003EB011010B490F82830084C02EB03138F
:10176000D3E901321460C26A1A60036B0BB1426B99
:101770001A605DF8044B7047DC1E002061F8010020
:101780004369427E03EB021292F828C08C451ED0BA
:1017900093F82820FF2A1AD0914210B5044617D09A
:1017A00093F83820FF2A06D00121D3E900231268DC
:1017B0001A4201D1617610BD064B0522204603EB8B
:1017C0000C135B681A60FFF7C1FF6176F3E770479F
:1017D0000021EAE7DC1E0020164942698B6B23F4E6
:1017E0007C0343F4802370B58B630446124DD2E929
:1017F00000130A681A4303690A60022200211A6171
:101800000E4A19619A6401225A629D624FF4303582
:10181000DD624FF001159E6C1E6519629D651A61AF
:10182000017EFFF74FFF617E2046BDE87040FFF765
:101830008DBF00BF00C00F40B80B05053B3728190E
:10184000B1F5607FF0B50E468DB028BF4FF46076DD
:101850000F46054672B62E4B0024702218602146B2
:101860002C4B2D481C8000F097FACFB121462A4816
:101870004FF0010C4A0901F01F03013150F82240DA
:101880000CFA03F38E4243EA040340F82230F1D805
:10189000284600234380013300F582709E42F9D828
:1018A0001E4C257815B162B60DB0F0BD082000F0D1
:1018B00077FA1B4B80220646009302A90693194B28
:1018C0000271056008A8029300F076FA06A9164A8C
:1018D000304600F069FA069B08A8DB689847009B31
:1018E00002A8DB6898472378002BDCD10F4B104A05
:1018F000C3F858210F49D0204FF0E023402281F84F
:101900004600C3F808210123237062B60DB0F0BD74
:10191000204D0020D8520020284D0020EB520020FE
:10192000981900207D0701001B100100003C0020D9
:101930008907010000E400E0704700BF704700BF66
:10194000704700BF00BF704710B44FF0E023002184
:1019500010243148C3F8941DC3F89C4D1124C3F8DA
:10196000A00D2E48C3F89C4D1224C3F8A00D2C489E
:10197000C3F89C4D2B4AC3F8A00D2B4C42F0150226
:101980002A48C3F89C4DC3F8A00D294C2948C3F838
:101990009C4DC3F8A00D284CC3F89C2D2748284A1D
:1019A000C3F8A04DC3F89C0DC3F8A02D02F5A022EA
:1019B000244C0C322448C3F89C4DC3F8A02D234A74
:1019C000C3F89C0D224CC3F8A02D02F14062C3F86D
:1019D0009C4D2048C3F8A02D0C32C3F89C0DC3F8D1
:1019E000A02D00BF00BF00BF00BF00BF0122C3F891
:1019F000942DBFF34F8FBFF36F8FC3F8501FBFF30A
:101A00004F8FBFF36F8FD3F8142D5DF8044B42F462
:101A10004032C3F8142D70473F000010250008071E
:101A200009001000205300201300200021000207AD
:101A300014000020250008130900001016002020C3
:101A400027000B1317000040180000602F000B0741
:101A5000190000701A000080F0B4154A40274FF4B6
:101A600080314FF480564FF400554FF4404443F218
:101A70004200136913F0020F0ED113F4005F0FD070
:101A800013F4805F0ED0002BF3DA13F4803F0BD1F8
:101A90005B060BD5F0BC7047946151619061E8E73B
:101AA0005561E6E75661E4E79161E2E75761E0E7F7
:101AB00000800D403F4A03203F49F3EE095AD2F817
:101AC00080304FF0000C9FED3D6A23F001039FED45
:101AD0003C5A30B4C2F88030C2F89000D1F8E0101F
:101AE000384DCBB2384C39482B6007EE903A0B0D8D
:101AF000C1F30B21F8EEE77A06EE903A07EE101AE2
:101B0000334BB8EEC77A2160F8EEE66A314937EE1A
:101B1000C66A37EEC55A76EEC76A77EEE57A26EEE4
:101B2000266AC3ED006A25EE265AD2F8803067EEA9
:101B3000A64AC0ED007AC6EE275A274885EE276AE6
:101B4000C4EEA76A75EE875AFCEEE55A36EE076AD0
:101B500015EE904ABCEEC66A43EA045376EE877AE5
:101B6000C2F8803016EE103AD2F89041FCEEE77AD7
:101B700001EA0341214317EE903AC2F89011C3F3F2
:101B80000B03D2F890110B431449C2F89031D2F8EC
:101B9000803043F00203C2F88030114B80F840C01F
:101BA000C1F840314FF0E023012230BCC3F80821D6
:101BB000704700BF00810D4000441F400000AA4252
:101BC0000000B442A05200209C520020A4520020E9
:101BD000A85200200000FF0F00E400E0003C0020BD
:101BE000A5190100314B40F6617210B5C3F82021F0
:101BF00040F2044400F0C8F82D4A2E49D2F8803053
:101C00002D4843F00303C2F880302C4BC1F86041EB
:101C100002681A4203D1D1F8A8319A071BD0254A8D
:101C20004FF00041244B5963D2F8403143F0020396
:101C3000C2F84031D2F840319B07FBD44FF400305A
:101C40004FF0E0211C4B4FF00042C1F88C021920EC
:101C50009A6300F0B5F8184A4FF08040154C002107
:101C600090630A20164B11604FF42072C4F8A8014B
:101C7000184600F091F84FF4800203464FF48100BB
:101C800040F243111860C4F858311A640D4B0E4AE3
:101C9000C4F84811C3F804224FF0E0224FF4003199
:101CA0000123C2F80C11C4F8403110BD00800D4072
:101CB00000C00F4000002E4000900D40001C1E0090
:101CC00000000020003C00208D1B010008B50E4BD9
:101CD0001B6E9B0700D4FBBE72B60C4B00200C4A57
:101CE000C3F8400103F160430A49A3F55F2311647F
:101CF0009D46BFF34F8F4FF400130748074ADB6937
:101D000002609B68984700BF00441F4000002E40BF
:101D100000C00A400300200000802020000012EBD9
:101D2000104BA020104AD96E41F4403110B4D9664E
:101D300040F23764D96E41F44071D96654649064BE
:101D4000936C1B06FCD4094A40F23761A02351640E
:101D50009364936C13F08003FBD1054A13705DF814
:101D6000044B704700C00F4000400C4000800C4006
:101D7000F1520020F8B500BFF8BC08BC9E46704781
:101D80005FF800F0751401005FF800F0FD2201001B
:101D90005FF800F0A10F01005FF800F0358001004E
:101DA0005FF800F0B91501005FF800F0FD0D0100CB
:101DB0005FF800F0A11601005FF800F0F1070100E4
:101DC0005FF800F0911201005FF800F0B5820100A9
:101DD000450000004170000031710000F971000001
:101DE0000D770000257700003D7700005577000053
:101DF0006D770000857700009D770000B5770000C3
:101E0000CD770000E5770000FD770000A17C0000A1
:101E1000B97C0000D17C0000E97C0000017D00005D
:101E2000197D0000317D0000497D00007D7D0000AE
:101E3000AD7D0000C57D0000DD7D0000F57D00006A
:0C1E40000D7E0000C1900000010F0100A9
:101E4C0080C00F40000000031900000010000000CB
:101E5C00E8841F4001000000FF000000FF000000AC
:101E6C00000000000000000018000000100000003E
:101E7C00E4841F4001000000FF000000FF00000090
:101E8C0000000000000000001F00000071070100AE
:101E9C0070C00F40000C0000110000001100000089
:101EAC00E0841F400200000024000000120000002B
:101EBC00E0841F4001000000100000001100000031
:101ECC00DC841F400200000025000000120000000E
:101EDC00DC841F40010000001E00000065070100AB
:101EEC0070C00F40C0000000120000001300000082
:101EFC00D0841F4001000000FF000000FF00000024
:101F0C00000000000000000013000000130000009F
:101F1C00CC841F4001000000FF000000FF00000007
:101F2C0000000000000000001C0000005907010028
:101F3C001603550053004200200053006500720048
:101F4C00690061006C000000180354006500650016
:101F5C006E00730079006400750069006E006F00FC
:101F6C000403090409026200030100C032080B00DB
:101F7C000202020100090400000102020100052412
:101F8C0000100105240101010424020605240600A9
:101F9C00010705820310001009040100020A000069
:101FAC0000070503024000000705840240000009F9
:101FBC0004020002FF6AFF000705810240000107CE
:101FCC00050102400001000009026200030100C08B
:101FDC0032080B0002020201000904000001020297
:101FEC00010005240010010524010101042402064E
:101FFC0005240600010705820310000509040100F1
:10200C00020A000000070503020002000705840213
:10201C000002000904020002FF6AC70007058102E2
:10202C000002010705010200020100000A0600027D
:08203C00EF0201400100000069
:10204400000000000000000000000000000000008C
:10205400000000000000000000000000000000007C
:102064000548064B1B1AD90F01EBA301491002D0F6
:10207400034B03B118477047C03E0020C03E002008
:102084000000000008B5054B1BB105490548AFF336
:102094000080BDE80840FFF7E3BF00BF0000000078
:1020A4000C52002000FC01604069704790ED020B67
:1020B400704700BF0069704707EE901A9FED065BFA
:1020C400B8EE677B90ED026B27EE057B87EE060B7F
:1020D400B7EEC00B704700BF0000000000408F4007
:1020E40081657047806D704701657047006D70476A
:1020F40041657047406D704708B50368D3F88C306C
:10210400984700B1006808BD08B50368D3F88C305F
:10211400984700B1406808BD0023BFF35B8F80F887
:102124008430704700000000B0B582B004460D460C
:10213400002100AF84B06A4610467A6006F09AF82F
:1021440023687A682946DB6C20469FED030B984789
:102154000837BD46B0BD00BF00000000000000000D
:10216400B0B582B004460D46002100AF84B06A4683
:1021740010467A6006F074F823687A682946DB6CA6
:1021840020469FED030B98470837BD46B0BD00BFFE
:102194000000000000000000F8B500AF8AB184B070
:1021A40004460D4600216E46304606F06FF823685B
:1021B40032462946DB6C20469FED050B9847BD4609
:1021C400F8BD054B5321054A054815F0C9FC00BF6D
:1021D40000000000000000007410002084100020A3
:1021E400CC1000204FF001028430D0E84F3FC0E80B
:1021F400412F0029F9D1DBB2BFF35B8F002BF4D15F
:10220400704700BF4FF001028430D0E84F3FC0E870
:10221400412F0029F9D1D8B2BFF35B8F80F00100C0
:10222400704700BF183006F05BBB00BF036810B5F1
:10223400D3F88C301446984718B1214606F04AFE6C
:10224400012010BD00000000DFED0B7A90ED025B71
:1022540087FE800AB7EEC00A9FED056B20EE050BE2
:1022640080EE067BFCEEC77B17EE900A704700BF3A
:102274000000000000408F4000000000F8B5DE8838
:1022840000F170051C46174604362846314605F011
:102294003BFF60B10146E288204641F8047B06F02A
:1022A4001BF831462846BDE8F84005F05BBF034BF8
:1022B4001E21034A034815F053FC00BF8007002089
:1022C4004C080020CC10002010B50C1E82B00ADD92
:1022D4005C30019005F00AFFA102019802B0BDE84C
:1022E400104005F0DFBE034BB921034A034815F043
:1022F40037FC00BFF813002008140020CC10002085
:1023040010B50C1E82B00ADD7030019005F0EEFEAF
:10231400A102019802B0BDE8104005F0C3BE034B12
:10232400BF21034A034815F01BFC00BF44140020DE
:1023340054140020CC10002008B5034AE221034BBA
:10234400034815F00DFC00BF4407002034070020AB
:10235400CC10002008B5034AEE21034B034815F0C6
:10236400FFFB00BFA408002034070020CC1000208D
:102374002DE9F04390461F46026D0E46294B00217D
:1023840083B09A42316046D1814600F1850C4FF00A
:10239400010EDCE84F4FCCE845EF002DF9D1E4B253
:1023A400BFF35B8F002CF4D109F17005284605F0CA
:1023B400A1FEA8B101A92846019405F0F5FEC0B11B
:1023C400019A132A1BD997421FD301464046012480
:1023D40051F8043B336011F075F8284605F0EAFE25
:1023E40000232046BFF35B8F89F8853003B0BDE836
:1023F400F0830D4BCF210D4A0D4815F0B1FB0D4B69
:10240400D0210A4A0A4815F0ABFB0B4BD121074AED
:10241400074815F0A5FB094BC721044A044815F0E9
:102424009FFB00BF3D020000880F0020380F0020F2
:10243400CC100020CC0F0020F40F0020900E0020C0
:102444002DE9F84F2DED028B9FED338BB4EEC80BC5
:10245400F1EE10FA5ADB9046002A51D00368054683
:10246400314A0F469B6988FE008B046993423FD131
:1024740090ED020B9FED2A6B05F184034FF0010CE4
:1024840080EE067B27EE087BFCEEC77B17EE906A96
:102494002644D3E84F4FC3E84ECFBEF1000FF8D126
:1024A400E4B2BFF35B8F002CF3D1B8F806A005F1BA
:1024B4005C0B0AF1040A5846514605F025FE814694
:1024C400C0B10146B8F80620404641F8047B05F047
:1024D40003FF58465146C9F8046005F043FEBFF3B4
:1024E4005B8F85F884400120BDEC028BBDE8F88F3A
:1024F4009847BFE70D4B83210D4A0E4815F030FB7A
:102504000D4B74210A4A0B4815F02AFB0B4B73211F
:10251400074A084815F024FB0000000000000000F2
:102524000000000000408F406D0000007811002082
:1025340018110020CC100020681100200811002080
:102544002DE9F04F2DED068B9FED759B43EC182B79
:1025540085B0B4EEC98B00AFF1EE10FA3E6DC0F257
:10256400D680002E00F0CD8007F154028346304619
:102574000AEE101AFA6018F0C3F88246002800F038
:10258400BA80C000DBF8102089FE089B0830ADEB50
:10259400000DDBF800008469E8466548844240F099
:1025A40087809BED020B29EE009B00245146404698
:1025B400013E4546A1469FED5C6B89EE067BBCEE71
:1025C400C77B17EE103A13441A4605F03FFE16F87F
:1025D400013F623B112B12D8DFE803F009111111FE
:1025E4005211411111111111111111111125B8F8C4
:1025F4000430A34267DD85F80890C5F80C900134D7
:102604000835A245E3DCDBF80040B0EE480B424657
:102614001AEE101A5846E36C98471437BD46BDECC1
:10262400068BBDE8F08FFB68B8F80420191D186804
:10263400A242F96041DD002857D04FF00203E86060
:10264400013408352B7018F05BF8B8F80630A24551
:1026540003F101031844A8F80600B8DCD3E7FB68CB
:10266400B8F80420191D1B68A242F96037DD013453
:10267400EB604FF003030835A2452B70A7DCC2E7DB
:10268400FB68073323F0070393ED007B0833FB60FB
:10269400B7EEC77BB8F80430A3421ADD01344FF01B
:1026A400010385ED037A0835A2452B708FDCAAE778
:1026B4007A605846A0477A6875E71E4B94211E4AF3
:1026C4001E4815F04DFA1B4B69211D4A1B4815F095
:1026D40047FA184B73211B4A184815F041FA154B59
:1026E4008221194A154815F03BFA184B9521124AD4
:1026F400124815F035FA164B3A21164A0F4815F0D0
:102704002FFA154B5C21154A154815F029FA154B7B
:102714005B21124A124815F023FA00BFAFF3008080
:1027240000000000000000000000000000408F4096
:102734006D0000001C130020B8130020E8120020D4
:102744003C130020601300208C130020EC130020A5
:10275400B8120020C8120020A41200204C1200203D
:10276400CC10002008110020B5EEC00B70B5F1EEBE
:1027740010FA1D46294B80ED020B036036DD00295B
:1027840046DD002A16463DDD002D35DB4FF0000303
:1027940004460361C0E915330CBF2B46204B1830A7
:1027A40083630023BFF35B8F80F86C30BFF35B8FD0
:1027B40080F86D30882340F8043C05F0B7FF636966
:1027C400B102034404F15C00636105F06BFC6369CE
:1027D4000246A90204F170001344636105F062FC2F
:1027E4006369024620461344636170BD0D4B272183
:1027F4000D4A0E4815F0B4F90D4B2A210A4A0B482C
:1028040015F0AEF90B4B2921074A084815F0A8F931
:10281400094B2821044A054815F0A2F9A416002002
:102824003D02000090140020A4140020CC100020CD
:10283400E4140020F8130020D8140020084B10B52D
:10284400044640F8183B05F089FF04F15C0005F0EC
:102854004DFC04F1700005F049FC204610BD00BF9A
:10286400A416002018B10368D3F88C30184710B5AB
:10287400FFF762FD28B1944618301A46634605F006
:10288400CDBF10B5FFF766FD004870470C0C002063
:102894000020704702207047124B994216D00CD981
:1028A400114B994215D003F1766303F509431D33A7
:1028B400994214D100F2444070470C4B99420BD01A
:1028C4000B4B99420BD100F59560704700F2B46050
:1028D400704700F54670704700F2046070470020AE
:1028E400704700BFECC163B00CDEE4D8E7F88D603C
:1028F400C20E1BA342B1002300210448516011728F
:102904001060D3601361536100207047340B0020C2
:10291400704700BFB0B5114600AF82B0056801EB47
:1029240083046A462D6CC2E900140021A847BD4601
:10293400B0BD00BF2DE9F84300AF2BB316466A467D
:1029440000211D46A2EBC3024FEA850995460268A1
:10295400E846546C4246A047002308EB85041A4617
:10296400002D09DD08EB830106EB820C51F804EB22
:10297400A1424CF808EBF9D12B444C440AB901228A
:10298400EEE7BD46BDE8F883034B40F64311034A26
:10299400034815F0E5F800BF4C0B0020580B00204D
:1029A400A00B002010B5144B044600F546702360BC
:1029B40006F08CFA04F5587004F06EFF04F56870A4
:1029C40004F06AFF04F5697004F066FF04F2444001
:1029D40006F07CFA04F5956006F078FA04F20460D7
:1029E40006F074FA04F2B46006F070FA2046FFF7B9
:1029F40025FF204610BD00BFD815002010B50446A1
:102A0400FFF7D0FF4FF4E561204610F0F7FD2046B4
:102A140010BD00BF10B50A4984B0134600220091CE
:102A240001210446039304F0D1FD00220549204608
:102A3400039B0091114604F0C9FD04B010BD00BF12
:102A440095130000093C000010B5134684B0002221
:102A54000849044603930091114604F0B7FD00228F
:102A640005492046039B0091114604F0AFFD04B0D4
:102A740010BD00BFD1080000813C000030B50A49F8
:102A840085B013460446009100220121074D0393AB
:102A940004F09CFD039B002201212046009504F0D4
:102AA40095FD05B030BD00BF0D200000F11F0000F2
:102AB40010B50A4984B0134600220091012104464E
:102AC400039304F083FD002205492046039B0091F3
:102AD400114604F07BFD04B010BD00BF2D150000AD
:102AE400494E000010B5134684B000221049044634
:102AF40003930091114604F069FD00220D4920461C
:102B0400039B0091114604F061FD00220A4920460E
:102B1400039B0091114604F059FD00220749204609
:102B2400039B0091114604F051FD04B010BD00BF99
:102B340001460000A5460000BD4500001D1B000025
:102B440010B5114682B00023054CB2EE080A0322E8
:102B5400CDE90014194604F00FFD02B010BD00BF0A
:102B64008D35000010B5114682B00023054C9FED51
:102B7400060A0222CDE90014194604F0FDFC02B055
:102B840010BD00BFD50900000000DC4310B511469C
:102B940082B00023054C9FED060A0222CDE9001401
:102BA400194604F0E9FC02B010BD00BF191700007B
:102BB4000200004B10B5114682B00023054C9FED76
:102BC400060A0322CDE90014194604F0D5FC02B02C
:102BD40010BD00BFDD12000000007A4410B511469C
:102BE40082B00023054CBFEE000A0222CDE9001496
:102BF400194604F0C1FC02B010BD00BF6918000002
:102C040010B5114682B00023054C9FED060A03223D
:102C1400CDE90014194604F0AFFC02B010BD00BFAA
:102C2400E90B000000007A4410B5114682B000237D
:102C3400054C9FED060A0222CDE90014194604F062
:102C44009BFC02B010BD00BF693900000000C842FF
:102C540010B5114682B00023054CB7EE000A1522C8
:102C6400CDE90014194604F087FC02B010BD00BF82
:102C7400350C000010B5114682B00023054C9FEDC1
:102C8400060A1422CDE90014194604F075FC02B0BA
:102C940010BD00BF951D00000000000030B50023EA
:102CA40083B014460B499FED0C0A01220191194689
:102CB4000094054604F060FC0023084902229FEDBD
:102CC400080A2846CDE90041194604F055FC03B032
:102CD40030BD00BF010B000000008A42F11E00005D
:102CE4000000484210B5114682B00023054C9FED08
:102CF400060A0322CDE90014194604F03DFC02B093
:102D040010BD00BF291E000000007A4410B5114612
:102D140082B00023054C9FED060A0322CDE900147E
:102D2400194604F029FC02B010BD00BF6D1E00005E
:102D340000007A4410B5114682B00023054C9FED83
:102D4400060A1422CDE90014194604F015FC02B059
:102D540010BD00BF8D4400000000000010B51146F6
:102D640082B00023054C9FED060A1422CDE900141D
:102D7400194604F001FC02B010BD00BF3544000048
:102D84000000000010B5114682B00023054C9FEDF1
:102D9400060A1422CDE90014194604F0EDFB02B032
:102DA40010BD00BF3D0A00000000000010B5114630
:102DB40082B00023054C9FED060A0322CDE90014DE
:102DC400194604F0D9FB02B010BD00BF950D0000F8
:102DD40000007A4410B5114682B00023054C9FEDE3
:102DE400060A0222CDE90014194604F0C5FB02B01C
:102DF40010BD00BF014100000000FA4310B51146A8
:102E040082B00023054C9FED060A0322CDE900148D
:102E1400194604F0B1FB02B010BD00BFE50D00007F
:102E240000007A4410B5114682B00023054C9FED92
:102E3400060A0222CDE90014194604F09DFB02B0F3
:102E440010BD00BFD94200000000FA4310B50023B2
:102E540082B0144605499FED060A1A46CDE90041A1
:102E6400194604F089FB02B010BD00BF55460000AE
:102E74000000204210B5002382B014460549B3EE89
:102E8400040A1A46CDE90041194604F075FB02B064
:102E940010BD00BF391B000010B5114682B00023DD
:102EA400054CB0EE080A0222CDE90014194604F0DC
:102EB40063FB02B010BD00BF2517000010B511461A
:102EC40082B00023054CBFEE000A0222CDE90014B3
:102ED400194604F051FB02B010BD00BFC90E00003A
:102EE40010B5114682B00023054C9FED060A02225C
:102EF400CDE90014194604F03FFB02B010BD00BF39
:102F040015140000CDCC7C4010B5002382B01446CB
:102F14000549B7EE000A1A46CDE90041194604F006
:102F24002BFB02B010BD00BFF513000010B5114615
:102F340082B00023054CB2EE080A0322CDE9001446
:102F4400194604F019FB02B010BD00BFCD470000C4
:102F540010B5114682B00023054C9FED060A0222EB
:102F6400CDE90014194604F007FB02B010BD00BF00
:102F7400710A00000000DC4310B5114682B0002342
:102F8400054C9FED060A0222CDE90014194604F00F
:102F9400F3FA02B010BD00BF311700000200004B6D
:102FA40010B5114682B00023054C9FED060A03229A
:102FB400CDE90014194604F0DFFA02B010BD00BFD9
:102FC4007514000000007A4410B5114682B0002345
:102FD400054CBFEE000A0222CDE90014194604F0A4
:102FE400CBFA02B010BD00BF2D19000010B5114678
:102FF40082B00023054C9FED060A0322CDE900149C
:10300400194604F0B9FA02B010BD00BFD50F000094
:1030140000007A4410B5114682B00023054C9FEDA0
:10302400060A0222CDE90014194604F0A5FA02B0FA
:1030340010BD00BFA94B00000000C84210B51146E6
:1030440082B00023054CB7EE000A1522CDE9001426
:10305400194604F091FA02B010BD00BF211000001F
:1030640010B5114682B00023054C9FED060A1422C8
:10307400CDE90014194604F07FFA02B010BD00BF78
:103084007D1E00000000000030B5002383B014460C
:103094000B499FED0C0A0122019119460094054643
:1030A40004F06AFA0023084902229FED080A284620
:1030B400CDE90041194604F05FFA03B030BD00BF0A
:1030C400ED0E000000008A42211F00000000C842EB
:1030D40010B5114682B00023054C9FED060A02226A
:1030E400CDE90014194604F047FA02B010BD00BF40
:1030F4003D1700000200004B10B5114682B00023BA
:10310400054C9FED060A0222CDE90014194604F08D
:1031140033FA02B010BD00BF6D150000E40FC940C2
:1031240010B5114682B00023054C9FED060A142207
:10313400CDE90014194604F01FFA02B010BD00BF17
:10314400611600006F12833A10B5114682B0002355
:10315400054CB0EE000A0222CDE90014194604F031
:103164000BFA02B010BD00BFE115000010B5114606
:1031740082B00023054CB7EE000A1522CDE90014F5
:10318400194604F0F9F902B010BD00BF8116000021
:1031940010B5002382B014460549B7EE000A1A465A
:1031A400CDE90041194604F0E7F902B010BD00BFB3
:1031B4008D15000010B5114682B00023054CBFEEFA
:1031C400000A0222CDE90014194604F0D5F902B030
:1031D40010BD00BF6D20000010B5114682B0002361
:1031E400054CBFEE000A0222CDE90014194604F092
:1031F400C3F902B010BD00BF6120000010B5114634
:1032040082B00023054CBFEE000A0222CDE900146F
:10321400194604F0B1F902B010BD00BF99110000C5
:1032240010B5114682B00023054CB7EE000A012206
:10323400CDE90014194604F09FF902B010BD00BF97
:10324400B91E000010B5114682B00023054C9FED55
:10325400060A0222CDE90014194604F08DF902B0E1
:1032640010BD00BFF91600003333734010B511468A
:1032740082B00023054CBFEE000A0222CDE90014FF
:10328400194604F079F902B010BD00BF51120000D4
:1032940010B5002382B014460549B7EE000A1A4659
:1032A400CDE90041194604F067F902B010BD00BF32
:1032B400D916000010B5114682B00023054C9FEDCD
:1032C400060A0222CDE90014194604F055F902B0A9
:1032D40010BD00BF350E00000000C84210B5064CFA
:1032E40082B0002300F52F71CDE90024012204F0FF
:1032F4000BF902B010BD00BF1D38000010B5064C1C
:1033040082B0002300F53071CDE90024142204F0CA
:10331400FBF802B010BD00BFFD12000010B5064C52
:1033240082B0002300F52D71CDE90024022204F0BF
:10333400EBF802B010BD00BFBD12000010B50123B0
:1033440082B0054C00F52F71CDE900241A4604F033
:10335400DBF802B010BD00BF1D38000010B5064CEC
:1033640082B0002300F54E71CDE90024022204F05E
:10337400CBF802B010BD00BF110C000010B5064C14
:1033840082B0012300F54E71CDE90024022204F03D
:10339400BBF802B010BD00BF110C000030B50B49E2
:1033A40083B0154601230446CDE9002100F52D71B3
:1033B400022204F0A9F8002205492B462046009178
:1033C400114604F003F903B030BD00BFBD12000084
:1033D400CD36000010B5064C82B0012300F55571BE
:1033E400CDE90024032204F08FF802B010BD00BF21
:1033F4005D13000010B5064C82B0002300F5647123
:10340400CDE90024022204F07FF802B010BD00BF11
:10341400D51F000010B5064C82B0012300F564717D
:10342400CDE90024022204F06FF802B010BD00BF01
:10343400D51F000010B5064C82B0002300F5A4612E
:10344400CDE90024022204F05FF802B010BD00BFF1
:10345400F11B000010B5064C82B0012300F5A461F5
:10346400CDE90024022204F04FF802B010BD00BFE1
:10347400F11B000010B5064C82B0002300F5B561C5
:10348400CDE90024012204F03FF802B010BD00BFD2
:103494005D4A000010B5064C82B0002300F2AC5126
:1034A400CDE90024142204F02FF802B010BD00BFAF
:1034B4009514000010B5064C82B0002300F5B461E9
:1034C400CDE90024022204F01FF802B010BD00BFB1
:1034D4005514000010B5012382B0054C00F5B56108
:1034E400CDE900241A4604F00FF802B010BD00BF65
:1034F4005D4A000010B5064C82B0002300F224613E
:10350400CDE90024022203F0FFFF02B010BD00BF8A
:10351400FD0F000010B5064C82B0012300F22461B7
:10352400CDE90024022203F0EFFF02B010BD00BF7A
:10353400FD0F000030B50B4983B015460123044646
:10354400CDE9002100F5B461022203F0DDFF002281
:1035540005492B4620460091114604F037F803B084
:1035640030BD00BF551400000D49000010B5064CD5
:1035740082B0012300F5C861CDE90024032203F0E1
:10358400C3FF02B010BD00BFF514000010B5064C17
:1035940082B0012300F5CE61CDE90024032203F0BB
:1035A400B3FF02B010BD00BF4917000010B5064CB0
:1035B40082B0002300F5CE61CDE90024032203F09C
:1035C400A3FF02B010BD00BF4917000030B50023AF
:1035D40083B015460F49B0EE000A16220191194630
:1035E4000095044603F0C8FF0B492046002302223D
:1035F400CDE9005104F5D16103F086FF07490023AA
:1036040002222046CDE9005104F29C6103F07CFFC4
:1036140003B030BDBD11000075110000211600007B
:1036240010B5064C82B0012300F5D161CDE9002428
:10363400022203F069FF02B010BD00BF7511000043
:1036440010B5064C82B0002300F5D561CDE9002405
:10365400022203F059FF02B010BD00BF7920000020
:1036640010B5064C82B0012300F2A461CDE9002418
:10367400002203F049FF02B010BD00BF4116000054
:1036840010B5064C82B0012300F5D561CDE90024C4
:10369400022203F039FF02B010BD00BF7920000000
:1036A40010B5064C82B0012300F5CF61CDE90024AA
:1036B400032203F029FF02B010BD00BF2D1100004A
:1036C40030B5002383B014461049BFEE000A02222D
:1036D400019119460094054603F04EFF00230C485F
:1036E40005F2A4611A46CDE90040284603F00CFF18
:1036F40000230849B0EE000A02222846CDE9004121
:10370400194603F039FF03B030BD00BF511100006A
:10371400411600000116000010B5064C82B00023CB
:1037240000F21471CDE90024022203F0EDFE02B090
:1037340010BD00BF291C000010B5064C82B0012347
:1037440000F21471CDE90024022203F0DDFE02B080
:1037540010BD00BF291C0000014B132104F0E2BA84
:1037640069360000014B132104F0DCBAB1210000DA
:10377400014B132104F0D6BAA9480000014B1321D0
:1037840004F0D0BA114F000030B50F4983B004469D
:1037940015460123CDE9002100F29C61022203F0C9
:1037A400B3FE2A462046094B082104F0BBFA084917
:1037B400002303222046CDE9005104F5CF6103F034
:1037C400A3FE03B030BD00BF2116000009110000A4
:1037D4002D11000030B585B00446114600F2F440C6
:1037E400039203F0F1FF09492046039B0022009154
:1037F4000121074D03F0EAFE039B0022012120462C
:10380400009503F0E3FE05B030BD00BFA10E00003B
:103814007D0E000030B585B00446114600F5DD602C
:10382400039203F0D1FF09492046039B0022009133
:103834000121074D03F0CAFE039B0022012120460B
:10384400009503F0C3FE05B030BD00BF05120000B3
:103854002D12000070B5012382B0154609490446B3
:103864001A46019100F53271074E009503F04CFEA3
:103874002B46022204F524712046009603F018FF1B
:1038840002B070BD9D0B0000511A000010B5054C2C
:1038940082B0134600F51B710022009403F008FF68
:1038A40002B010BD0D1A000010B5054C82B01346CD
:1038B40000F51B710222009403F0FAFE02B010BD61
:1038C4000D1A000010B5054C82B0134600F5337193
:1038D4000022009403F0ECFE02B010BD451C000071
:1038E40010B5054C82B0134600F57E710022009499
:1038F40003F0DEFE02B010BD991C000010B5054CAB
:1039040082B0134600F25C410022009403F0D0FE22
:1039140002B010BDED1C000070B5012382B0154645
:10392400094904461A46019100F2B451074E009524
:1039340003F0EAFD2B46022204F27C512046009655
:1039440003F0B6FE02B070BD890F0000D91A000062
:1039540010B5054C82B0134600F5AB61002200940B
:1039640003F0A6FE02B010BD951A000010B5054C78
:1039740082B0134600F5AB610222009403F098FE76
:1039840002B010BD951A000010B5054C82B0134664
:1039940000F5B7610022009403F08AFE02B010BD66
:1039A400411D000070B5002382B015461E499FEDED
:1039B4001F0A0222019119460095044603F0DCFD1A
:1039C40000221B492B4620461A4E0091114603F053
:1039D400FDFD00231848152219469FED180ACDE96C
:1039E4000050204603F0C8FD00231548B2EE000A3B
:1039F40019460222CDE90050204603F0BDFD002304
:103A0400104920469FED100A0222CDE900511946C3
:103A140003F0B2FD2B46002204F5DD61204600963A
:103A240003F046FE02B070BD5D0C00000000484289
:103A340011470000D5170000F50C000077BE7F3F4A
:103A440075120000891F00000000FA4330B585B0EC
:103A54000446114600F51B70039203F0B5FE0A49B3
:103A64002046039B0022009104F52471074D03F0C6
:103A74001FFE039B002204F501712046009505F00A
:103A8400DBF805B030BD00BF511A0000A1200000D2
:103A940070B500F5247584B0044611462846039297
:103AA40003F092FE094A039B04F50171204600923B
:103AB400074E002205F0C0F8039B00222946204649
:103AC400009603F0F5FD04B070BD00BFA120000016
:103AD400511A000030B585B00446114600F5AB60BC
:103AE400039203F071FE0A492046039B00220091D1
:103AF40004F27C51074D03F0DBFD039B002204F527
:103B040082712046009505F097F805B030BD00BFDE
:103B1400D91A0000C920000070B500F27C5584B0A9
:103B2400044611462846039203F04EFE094A039BBD
:103B340004F5827120460092074E002205F07CF8BD
:103B4400039B002229462046009603F0B1FD04B0F1
:103B540070BD00BFC9200000D91A000010B5054C83
:103B640082B0134600F599610022009404F0B6F97E
:103B740002B010BD0D0E000010B5054C82B0134606
:103B840000F599610122009404F0A8F902B010BD77
:103B94000D0E000070B51E4B82B015460022009336
:103BA40004462B46114603F011FD00231948022256
:103BB40019469FED190A194ECDE90050204603F02D
:103BC400DBFC0023164802229FED160A1946CDE9B4
:103BD4000050204603F0D0FC13492B4620460091A8
:103BE400002204F5CD6104F079F900220F492B4637
:103BF40020460091114603F0E9FC2B46002204F212
:103C0400F4412046009603F053FD02B070BD00BF9E
:103C1400A50A0000511F00000000FA439517000098
:103C24004910000000004842E11000000D1C000093
:103C340010B5054C82B0134600F2EC41002200940A
:103C440004F04CF902B010BD551B000010B5054C32
:103C540082B0134600F5CC610022009404F03EF9D2
:103C640002B010BDB910000010B5054C82B0134667
:103C740000F5DC610022009404F030F902B010BDBC
:103C84006519000030B500F5337585B0044611465A
:103C94002846039203F098FD0D4A039B04F53C71FA
:103CA40020460092002203F003FD0A4A039B2946A2
:103CB400204600920025002203F0FAFC039B012217
:103CC40004F50D712046009505F03CF805B030BDB3
:103CD400D1390000451C000030B500F57E7585B073
:103CE400044611462846039203F06EFD0D4A039BD9
:103CF40004F21C4120460092002203F0D9FC0A4A37
:103D0400039B2946204600920025002203F0D0FCA4
:103D1400039B012204F5F4712046009505F012F886
:103D240005B030BD69410000991C000030B500F2B7
:103D34005C4585B0044611462846039203F044FDD1
:103D44000D4A039B04F5906120460092002203F083
:103D5400AFFC0A4A039B2946204600920025002214
:103D640003F0A6FC039B012204F5F871204600959C
:103D740004F0E8FF05B030BD41430000ED1C000035
:103D840030B500F5B76585B0044611462846039260
:103D940003F01AFD0D4A039B04F2DC512046009205
:103DA400002203F085FC0A4A039B29462046009220
:103DB4000025002203F07CFC039B012204F59A7188
:103DC4002046009504F0BEFF05B030BD114C000044
:103DD400411D000030B5002383B01546094904464F
:103DE400B7EE000A019101221946009503F0C4FBC5
:103DF4002A4604F55471204603B0BDE8304005F06E
:103E040007B800BFC91D000000F5507105F000B8E7
:103E140001B1704700F5637104F0FABF01B1704756
:103E240000F5677104F0F4BF01B1704700F56671E5
:103E340004F0EEBF30B5002383B0154609490446AB
:103E4400B7EE000A019101221946009503F094FB94
:103E54002A4604F56E71204603B0BDE8304004F0F4
:103E6400D7BF00BF311E000000F56F7104F0D0BF52
:103E740000F5707104F0CCBF30B5002383B0154653
:103E840009490446B7EE000A01910122194600953A
:103E940003F072FB2A4604F57571204603B0BDE8B1
:103EA400304004F0B5BF00BF751E000000F5767108
:103EB40004F0AEBF00F5777104F0AABF30B500235B
:103EC40083B0154609490446B7EE000A0191012260
:103ED4001946009503F050FB2A4604F23C61204643
:103EE40003B0BDE8304004F093BF00BFB11E000032
:103EF40000F22C6104F08CBF00F2DC6104F088BF96
:103F040000B5134683B0002200F5B071009204F0AE
:103F140069FD03B05DF804FB00B5134683B00022CD
:103F240000F5D271009204F05DFD03B05DF804FB6E
:103F340030B5134685B0044600F505710022074DDF
:103F4400039304F005FE039B002204F54C71204604
:103F5400009503F0C3FF05B030BD00BF1D13000082
:103F640030B5134685B0044600F58A710022074D2A
:103F7400039304F0EDFD039B002204F21C61204630
:103F8400009503F0ABFF05B030BD00BFB5140000D1
:103F940030B5002383B01546094904469FED090A4C
:103FA400019115221946009503F0E6FA2B460022EA
:103FB40004F5FC71204603B0BDE8304004F0C8BDF0
:103FC400450D000000007A4410B50A4984B0134638
:103FD40004460091002200F5CC61039303F07EFFB8
:103FE400039B002204F18801204604B0BDE8104080
:103FF40004F0AEBDB910000010B5054C82B01346F4
:1040040000F558710022009403F04AFC02B010BD80
:10401400713D000010B5054C82B0134600F558718F
:104024000122009403F03CFC02B010BD713D00007D
:1040340010B5054C82B0134600F568710122009456
:1040440003F02EFC02B010BDC11E000010B5054CDB
:1040540082B0134600F569710122009403F020FC3C
:1040640002B010BDD91E000010B5054C82B0134635
:1040740000F568710022009403F012FC02B010BD38
:10408400C11E000010B5054C82B0134600F56971DD
:104094000022009403F004FC02B010BDD91E0000FD
:1040A400052100F59E7004F067BC00BF042100F5F3
:1040B4009E7004F061BC00BF012100F59E7004F005
:1040C4005BBC00BF08B5034A7321034B034813F0DC
:1040D40047FD00BF601300201C130020E8120020DD
:1040E400012900D0704730B5144683B0054D0A4607
:1040F400002300F532710094019503F005FA03B032
:1041040030BD00BF9D0B0000012900D0704730B5C1
:10411400144683B0054D0A46002300F2B4510094BE
:10412400019503F0F1F903B030BD00BF890F000021
:1041340001B1704710B5054C82B0134600F51471F7
:104144000122009403F04AFC02B010BD4D0B0000A4
:1041540001B1704710B5054C82B0134600F59C615F
:104164000122009403F03AFC02B010BD590E000085
:1041740001B1704710B5054C82B0134600F23C51B2
:104184000122009403F02AFC02B010BD390F000094
:1041940001B1704710B5054C82B0134600F5CA61F1
:1041A4000122009403F01AFC02B010BD911000002B
:1041B40001B1704713460A4600F1DC0104F0C8BCA3
:1041C40001B1704713460A4600F1D00104F0C0BCA7
:1041D400054B9446994200D07047044B0022614637
:1041E400183004F01BBB00BF5BC65CCE65500000FA
:1041F40070B5002182B005461046144604F0E4F878
:104204000B4B01462046C91AB1FA81F1490904F061
:10421400DBF8B0F17E5F01D002B070BD0022054E24
:10422400234628461146009603F0D0F902B070BD2B
:104234006E0ED606090A00002DE9F04FDFF86880FB
:10424400044617469946DFF864A000F15C06DFF8DF
:1042540060B02DED088B83B004E051451CD030468E
:1042640003F0A8FF304603F045FF054610B30025D0
:1042740001A93046019503F097FF019B132B40F2EF
:104284006F84236850F8041BD3F890304345E4D07E
:10429400024620469847E2E701465B462A4604F177
:1042A400180004F0BBFADAE7912100005BC65CCE8B
:1042B4006550000023682046F0499B6D9847B9F18A
:1042C400000F266940F33E849FEDED9A09EB060842
:1042D400DFEDEC8A04F2DC6A9FEDEB8ADFEDEBAAFA
:1042E400DFEDEB9A9FEDEBAAA36901367BB104F1F4
:1042F400180B9A6811688E4209D92046D3E9033114
:104304009847584604F0D4FAA369002BF1D1D4F8A5
:104314008800B7EE006AB6EE007AD4F88C10420A30
:10432400F5EE007AD4F894C0014442F07E52BCF118
:10433400000FC4F8881006EE902A76EEC66A76EE70
:10434400C76AF0EEE66A76EEE76A66EE896A26EEFA
:10435400A67A67EE267AE7EEA86A67EE877AE7EE32
:10436400886AC0F2C78394ED267AB0EE474AD4F83F
:10437400A400F7EE004AB6EE005AD4ED2B3A420AF6
:10438400F5EE005A94ED276A27EE237A42F07E5226
:104394000CF1FF3136EE046A07EE902ABDEEC77ABF
:1043A400C4F8941077EEE47A84ED266A17EE102AA6
:1043B400D4F8B01077EEC57A02440029C4F8A420DA
:1043C400F0EEE77A77EEE57A67EE897A27EEA76A68
:1043D40026EE277AE7EE287A27EE067AE7EE087AC1
:1043E400C0F2838394ED2D6AB0EE465A26EE276A16
:1043F400DAED005AD4F8C020013994ED2E7A66EE35
:104404002A7AD068D2F800E037EE057AC4F8B01002
:10441400C7FEE57AC7FEA97AFDEEE77A84ED2D7A28
:1044240017EE902A904240F28F83D4F8D0100EEB0E
:104434008202D4F8D400B7EE004AD4F8DCC0F6EE19
:10444400004A0844490AD2ED005AB5EE005A41F038
:104454007E524FEA5C21C4F8D00041F07E5107EE51
:10446400902AD4F8E02007EE101A77EEC47AD4F834
:10447400E810624437EE447A77EEE47A0029C4F80F
:10448400DC2037EE647AF0EEE77AB0EEC77A77EEA6
:10449400C57A37EE457A67EE897A27EE097A67EEB0
:1044A400A73A27EE074A63EEA74A24EE075AE4EE3A
:1044B400A87A64EEA34AA5EE287A25EE045AE4EE1F
:1044C400887AA5EE087A77EE270A27EE277AC0F2D3
:1044D400168394ED3B4AB0EE440AF7EE002AD4F872
:1044E400F800D4EDE67AB6EE003A420AF5EE003A68
:1044F400F0EE624A94EDE71A42F07E5294EDE35AEC
:10450400D4ED401A0139E7EEC44A07EE902A24EEAE
:10451400044A94ED3C2A77EEE27AC4F8E81032EECD
:10452400002A77EEC37A64EE874A84ED3B2AF0EEE4
:10453400E77AE0EEA24A77EEE37AD4E941BE67EE89
:10454400897AA4EE815A0EF1010C27EEA77A67EE60
:10455400274A25EE215AE4EEA87A64EE874AE4EE6F
:10456400887A24EE277AFDEEC57A77EE064A17EEAE
:10457400902A0244C4F8F820DBF80C20944500F299
:10458400F682DBF80020D4F8140102EB8E02D4F892
:10459400481544F2A71E92ED004A420A0EFB01F1AF
:1045A40042F07E52C4F808C105EE101AC4F848154A
:1045B40007EE902AD4F81811D4F8202177EEE27A85
:1045C4000144F8EEC52A002AC4F8141177EEC37A20
:1045D400F0EEE77A77EEE37A67EE897A67EEA73A48
:1045E40023EEA75AE5EE287A25EE235AE5EE087A5B
:1045F400E2EE8A7AC0F28882D4ED492AF0EE621A99
:1046040004F22C6094ED4C1A04F23C61013A90EDF2
:10461400005A91ED002A25EE415AD4F83801D4F815
:10462400341194ED4A3A00F1010EA2EE045ADFED82
:104634001A3AC4F8202133EE213A8A68964584ED6B
:10464400493A65EE233A84ED4C5AE7EEA23A00F279
:1046540081820A6874EE844ADFED102A02EB80023C
:10466400D4F85C06C2ED003A44F2A71294ED4F3A36
:1046740002FB00F0D4ED547A18E000BFEBC021DD5A
:10468400DB0FC940ABAA2ABE6257003C000080433E
:1046940000000000F6FFFF2F6666663F9A99193FF7
:1046A400CDCCCC3ECDCCCC3DCDCC4C3F94ED53BA0F
:1046B40005EE100A63EE277AD4ED500AB8EEC55A17
:1046C40094ED550AD4ED513A94ED561A25EE0A5A52
:1046D40094ED522AD4ED571AD4F86021E5EE0B7A02
:1046E400C4F838E1002AC1F810E0C4F85C0684ED8F
:1046F400503A84ED4F5AC4ED523AE0EE207AE1EE9E
:10470400637AE1EEC27AA7EEA24AC4ED517AC0F20E
:10471400008294ED595AF0EE453AD4F87011F7EE50
:10472400002AD4EDEF1A013AD1ED047A25EE215A8C
:1047340094EDF02AF8EE677A94ED5A3AC4F86021C1
:1047440085FE425A85FE295A77EEE27A33EE233A01
:10475400D4EDEE3A77EEC57A84ED593ABBFE675A4A
:10476400B5EEC05AF1EE10FA40F1B981F5EE403AD7
:10477400F1EE10FA00F0B38175EE233AD4F874C167
:10478400DCF80000FDEEE33A13EE902A511C00F130
:10479400DB81DCF80CC08C4540F2D68100EB810053
:1047A400D4F884C1002A4FEA8101D0ED003ADCF844
:1047B4000000C0F2C981DCF80CC0944540F2C48109
:1047C400014477EEC57AD4F8942111ED015A002AF8
:1047D40073EEC53AA3EEA75AC0F2A581D4ED663AAA
:1047E400F0EE632AD4ED677A511ED4F8A421B0EE1A
:1047F400443A77EEA27AC4F89411002AA5EE233A3B
:10480400C4ED667AC0F28A8194ED6A5AB0EE451A14
:10481400D4F8B411B7EE002AD4EDF63A013AD1ED4A
:10482400047A25EE235AD4EDF71AF8EE677AD4ED1C
:104834006B2AD4EDF53A85FE615A85FE295A77EE46
:10484400C27AC4F8A42172EE812A77EEC57AC4ED47
:104854006A2ABBFE675AB5EEC05AF1EE10FA40F16F
:104864004181F5EE403AF1EE10FA00F03B8175EE2D
:10487400233AD4F8B8C1DCF80000FDEEE33A13EEB5
:10488400902A511C00F16081DCF80CC08C4540F288
:104894005B8100EB8100D4F8C8C1002A4FEA810192
:1048A400D0ED003ADCF80000C0F24E81DCF80CC018
:1048B400944540F24981014477EEC57AD4F8D82171
:1048C40011ED015A002A73EEC53AA3EEA75AC0F2BD
:1048D4002F81D4ED772AF0EE627A013AD4ED783A5A
:1048E400D4E97A10C4F8D82173EEA73A8A6800F1A3
:1048F400010EF0EE437A9645C4ED773AE2EEC57ABE
:1049040000F228810A68D4F8F4B102EB8002D4F8EA
:10491400F0010BF1010C82ED004AC4F8ECE1C1F89E
:1049240010E081688C4500F215810268F7EE001AE8
:10493400D4F8F811B6EE002A02EB8B021FEDA84A58
:104944004FEA512EB5EE003AC2ED007A27EE844AC2
:10495400D4F8FC21F0EE693A1FEDAE5A11444EF042
:104964007E5274EE244AD4F808E207EE902AD4F872
:104974000422C4F8F4C177EEE17AC0F810C0E6EE80
:10498400A54A0EF10100C4F8F81177EEC27AD16895
:104994008842F0EEE77AE4EE853A77EEC37A67EE82
:1049A400897A27EEA75A65EE276AE6EEA87A26EEFC
:1049B400855AE5EE087AF0EE676A00F2D88012684C
:1049C400D4F814C202EB8E02D4F85C1244F2A71E8F
:1049D400D2ED002A4FEA5C220EFB01F142F07E5236
:1049E400C4F8080205EE101AC4F85C1207EE902A07
:1049F400D4F81812D4F8202277EEE17A6144F8EE64
:104A0400C51A002AC4F8141277EEC27AF0EEE77AD7
:104A140077EEC37A67EE897A67EEA74A24EEA75A3F
:104A2400E5EE287A25EE245AE5EE087AE1EE8A7A54
:104A3400C0F2838094ED892AB0EE421AD4ED8C4AF8
:104A4400013A94EDD05AD4EDD41A25EE645A5FEDB0
:104A5400EA4A94ED8A3AC4F82022A1EEA25A33EE2F
:104A6400013AD4E98D0184ED893A826801F1010E9D
:104A740065EE244A84ED8C5A9645B0EE645AA7EE4E
:104A8400825A67D837EE227A3A68F0EE697ADFED17
:104A94003B4A02EB050B026837EE067A464502EB09
:104AA40081017A6837EE047A2A4481ED005A05F1CF
:104AB4000405C4F838E2A6EEA57AC0F810E0CBED00
:104AC400003AE7EE247AC2ED007A7FF40EAC484651
:104AD400C4F8108003B0BDEC088BBDE8F08FF0EE95
:104AE400693A49E6F0EE693AC1E694ED2F6A94ED2D
:104AF4002D5A7BE494ED287A94ED264A37E494ED1C
:104B04003D4A94ED3B0AE8E4D4ED4B2AD4ED491A2E
:104B140076E594ED5B5AD4ED593AFEE594ED6C5A82
:104B240094ED6A1A74E6D4ED683AD4ED662A59E62F
:104B3400D4ED792AD4ED777ACFE694ED8B2A94EDEF
:104B4400891A7BE7B046C2E70D4B4B210D4A0E484C
:104B540013F006F80D4B28210D4A0E4813F000F807
:104B64000D4B40F2FB710D4A0D4812F0F9FF0D4B4D
:104B740059210D4A044812F0F3FF00BFCDCCCC3DBF
:104B84004C0C00208C0C0020C00C0020580D002080
:104B9400840D0020B40D0020CC0F0020140C002044
:104BA400A00B0020FC0C00202C0D00202DE9F04F60
:104BB4002DED048B83B00446B0EE409B9FEDD08A6C
:104BC40002AFFDF7D1FD2046CE4BB0EE491BB0EE4F
:104BD400480A04F2B46B40F8883B04F2046A03F018
:104BE4009FFF636904F2444604F59565034404F1A8
:104BF400940004F546784FF00009636103F0E8FE81
:104C040063690246B0EE490B04F1A40013446361E6
:104C140003F03AFF6369034404F1B000636103F0F5
:104C2400D7FE6369594600221844606104F1C0004C
:104C340003F0F6FF6369B0EE491B1844B0EE480A6E
:104C4400606104F1D00003F06BFF6369B0EE491BAF
:104C54001844B0EE480A606104F1DC0003F060FF20
:104C640063691844606104F1E80003F0B1FE63690C
:104C7400B0EE490B1844606104F1F80003F004FF3E
:104C84006369012251461844606104F5827003F09F
:104C9400C7FF6369B0EE491B1844B0EE480A60616F
:104CA40004F58A7003F03CFF63691844606104F5FD
:104CB400907003F08DFE63691844606104F5987088
:104CC40003F09AFF636951461844606104F59A70D1
:104CD40004F032F86369B0EE482A1844F0EE480A4A
:104CE400F0EE481AB0EE481A6061B7EE000A04F517
:104CF4009E7003F02FFE63691844606104F5B07080
:104D040003F066FE636931461844606104F5B870C7
:104D140004F00EF86369314600221844606104F51A
:104D2400BA7003F07DFF6369002231461844606164
:104D340004F5C27003F074FF63691844606104F5FC
:104D4400CA7003F045FE63691844606104F5D270CB
:104D540003F03EFE636929461844606104F5DA7085
:104D640003F0E6FF6369294600221844606104F5F4
:104D7400DC7003F055FF6369002229461844606122
:104D840004F5E47003F04CFF63691844606104F5B2
:104D9400EC7003F01DFE636931461844606104F54C
:104DA400F47003F0C9FF636929461844606104F58F
:104DB400F87003F0C1FF6369B0EE491B1844B0EE0C
:104DC400480A606104F5FC7003F0AAFE63690122DD
:104DD40041461844606104F5017003F021FF6369E2
:104DE400B0EE491B9FED489A1844B0EE480ADFED37
:104DF400479A606104F5057003F092FE63691844F4
:104E0400606104F5087003F0E3FD636918446061B0
:104E140004F50C7003F0F0FE6369414618446061C8
:104E240004F50D7003F088FF6369B7EE000A1844B7
:104E3400606104F5127002F061FB6369344918443F
:104E4400606104F5147002F0C1FD63690122184425
:104E54001146606104F5157002F0FCFD63691844A5
:104E6400002360611A46194604F5177003F0DAFF4F
:104E7400636941461844606104F5187002F00EFF3E
:104E8400636924491844606104F5197003F01AF841
:104E94006369B0EE490A04F51B7118446061204649
:104EA40002F0F8FB636904F52471B0EE480A184473
:104EB4006061204602F0EEFB6369B0EE490A1844D3
:104EC400606104F52D7002F019FB6369B0EE480AC5
:104ED4001844606104F52F7002F010FB6369B0EEB2
:104EE400480A1844606104F5307002F007FB6369F6
:104EF400B0EE480A1844606104F532700CE000BF5B
:104F040000000000D81500200000C8420044AC4650
:104F1400E25C342FF00D002002F0F0FA6369B0EE89
:104F2400480A04F5337118446061204602F0B2FB6C
:104F34006369B0EE480A04F53C7118446061204688
:104F440002F0A8FB636902464FF4807140464FF0BB
:104F540000081344636103F077FF6369B0EE690AE4
:104F64001844606104F54C7002F0A4FF6369B0EE6C
:104F7400480A1844606104F54E7002F0BFFA636990
:104F8400F0EE480A00211844B0EE480A606104F5C6
:104F9400507003F037FF6369F0EE480A00211844AB
:104FA400B0EE480A606104F5547003F02BFF6369A6
:104FB400B0EE480A1844606104F5557002F09EFA98
:104FC40063694246022118444B46606104F55870F7
:104FD400CDE9008902F00CFC636901220421184424
:104FE400606104F5597002F035FD63690122032103
:104FF4001844606104F55B7002F02CFD63690122C2
:1050040002211844606104F55D7002F023FD6369B8
:10501400012218441146606104F55F7002F01AFD24
:105024006369012200211844606104F5617002F093
:1050340011FD6369F0EE480A00211844B0EE480AF5
:10504400606104F5637003F0DDFE6369B0EE480A45
:105054001844606104F5647002F050FA6369F0EE7C
:10506400480A00211844B0EE480A606104F56670ED
:1050740003F0C8FE6369F0EE480A00211844B0EE5C
:10508400480A606104F5677003F0BCFE42460221E1
:10509400CDE90089636918444B46606104F5687082
:1050A40002F0A6FB42464B46CDE9008961690844FB
:1050B4000221606104F5697002F09AFB6369D049CA
:1050C4001844606104F56A7002F0FCFE6369F0EE56
:1050D400480A00211844B0EE480A606104F56E7075
:1050E40003F090FE6369F0EE480A00211844B0EE24
:1050F400480A606104F56F7003F084FE6369F0EEA2
:10510400480A00211844B0EE480A606104F5707042
:1051140003F078FE6369BB491844606104F571705B
:1051240002F0D0FE6369F0EE480A00211844B0EEA4
:10513400480A606104F5757003F064FE6369F0EE7B
:10514400480A00211844B0EE480A606104F57670FC
:1051540003F058FE6369F0EE480A00211844B0EEEB
:10516400480A606104F5777003F04CFE6369B0EEA1
:10517400480A04F57E7118446061204602F08AFAF8
:105184006369B0EE480A04F21C4118446061204689
:1051940002F080FA636902464FF48071304613448A
:1051A400636103F051FE6369B0EE480A04F25C41A6
:1051B40018446061204602F06DFA6369B0EE480A53
:1051C40004F5906118446061204602F063FA636953
:1051D40002464FF4807128461344636103F034FEA1
:1051E4006369B0EE480A1844606104F5996002F0FE
:1051F40061FE636984491844606104F59C6002F0AF
:10520400E5FB6369012218441146606104F2E4403D
:1052140002F020FC6369B0EE480A1844606104F2AD
:10522400EC4002F047FE636904F2F4419FED770A13
:1052340018446061204602F02DFA6369B0EE480A12
:105244001844606104F5A46002F058F96369B7EE8C
:10525400000A1844606104F2345002F04FF96369A3
:105264006B491844606104F23C5002F0AFFB63697F
:10527400012218441146606104F5A86002F0EAFBBB
:1052840063691844002360611A46194604F5A9604D
:1052940003F0C8FD636951461844606104F24C5040
:1052A40002F0FCFC63695B491844606104F5AA6080
:1052B40002F008FE6369B0EE490A04F5AB611844D4
:1052C4006061204602F0E6F9636904F27C51B0EEB5
:1052D400480A18446061204602F0DCF96369B0EEC4
:1052E400490A1844606104F5B46002F007F963697F
:1052F400B0EE480A1844606104F5B56002F0FEF8A7
:105304006369B0EE480A1844606104F2AC5002F0DC
:10531400F5F86369B0EE480A1844606104F2B450C9
:1053240002F0ECF86369B0EE480A04F5B76118447A
:105334006061204602F0AEF96369B0EE480A04F2F7
:10534400DC5118446061204602F0A4F96369024606
:105354004FF4807150461344636103F075FD636933
:10536400B0EE690A034404F21C60636102F0A2FD1A
:105374006369B0EE480A034404F22460636102F0F6
:10538400BDF86369F0EE480A00211844B0EE480AFB
:10539400606104F22C6003F035FD6369F0EE480AA5
:1053A40000211844B0EE480A606104F23C6003F046
:1053B40029FD6369B0EE480A034404F5C8606361DB
:1053C40002F09CF8636914491844606104F5CA60EA
:1053D40002F0FCFA6369012218441146606104F288
:1053E400546002F037FB6369184400236061194676
:1053F4001A4604F25C6003F015FD636902460DE091
:10540400000E0020140E0020164051140000164413
:10541400CC39F1A52C0E0020106DABA7B0EE690AB3
:1054240004F5CC601344636102F044FD63690246F1
:10543400B7EE000A04F5CD601344636102F03AFD4F
:1054440063690246B0EE480A04F5CE601344636112
:1054540002F054F863690246B0EE480A04F5CF60DE
:105464001344636102F04AF863690246B0EE480AE5
:1054740004F5D1601344636102F040F863690246A5
:10548400B0EE480A04F29C601344636102F036F8FB
:1054940063690246B0EE480A04F2A46013446361EF
:1054A40002F02CF863690246B0EE480A04F5D560B0
:1054B4001344636102F022F8636901462D4A584699
:1054C4000B444FF48071636103F0DCFC63690246B2
:1054D400294904F5D9601344636102F0F3FC63695C
:1054E4000122034404F5DA601146636102F0B2FA62
:1054F4006369F0EE480A00210344B0EE480A04F25E
:10550400DC60636103F07EFC63690246B0EE480A26
:1055140004F5DC601344636102F0CCFC6369024669
:1055240004F5DD619FED150A20461344636102F022
:10553400B1F863690246B0EE480A04F214701344E9
:10554400636101F0DBFF636984B00021034402A8B6
:10555400636102F08FFE0A4B0146002204F1180039
:1055640003F05CF920460437BD46BDEC048BBDE86E
:10557400F08F00BFF03500203C0E002000004843AF
:1055840065500000F0B583B00121054602AF84B038
:10559400126802AC204602F059FEA3888BB14FF08A
:1055A40080420121084E002321722846E26005F55D
:1055B40012711622CDE9004601F0A6FF0437BD465C
:1055C400F0BDFEF77FFD00BF250B000030B50A4992
:1055D40083B0044615460123CDE9002100F512717C
:1055E400162201F091FF2A460021204603B0BDE8AF
:1055F4003040FFF7C7BF00BF250B000070B5002186
:10560400054618461C4602F0DFFE114B01462046B3
:10561400C91AB1FA81F1490902F0D6FE0D4B98423C
:105624000AD00D4E234605F514712846049600222F
:10563400BDE8704002F0D2B9084E234605F5157155
:10564400284604960022BDE8704002F009BA00BF63
:105654006E0ED60601BD647E4D0B0000F1200000E5
:10566400F8B500AF86B0022115466C4612680646AE
:10567400204602F0EBFD00232A462046194602F09C
:10568400F1FEA388012B0CD94FF07E53012522464D
:1056940006F5177130462574636103F0C7FBBD46F8
:1056A400F8BDFEF70FFD00BF0021FFF7D9BF00BF13
:1056B400B0B582B00121054602AF84B0126802ACD5
:1056C400204602F0C3FDA38883B1E38802200A4A7E
:1056D4000A490B33E260002220722846E380234605
:1056E4000091114602F038FABD46B0BD044B942136
:1056F400044A054812F034FAF80B0020750B000038
:105704001C130020B8130020E812002030B50E4905
:1057140085B013460022009100F5197104460393E5
:1057240002F0DCFB039B204600211A46074DFFF7DD
:10573400BFFF039B002204F518712046009502F078
:10574400B1FA05B030BD00BF9D3700009D120000C6
:105754002DE9F04182B003211546064602AF88B018
:10576400126802AC204602F071FDA3881BB3E388E3
:105774004FF0020813492A4606332046E16001210E
:10578400E380002384F8088002F06CFEA38843457C
:1057940011D9E38830460C4A0C490533E2610022F2
:1057A400E380234684F818800091114602F0D4F96E
:1057B400BD46BDE8F081064B9421064A064812F026
:1057C400CFF900BFE80B0020F00B002015180000F3
:1057D4001C130020B8130020E81200200021FFF75A
:1057E400B7BF00BFF0B583B00121054602AF84B056
:1057F400126802AC204602F029FDA388DBB1E388DD
:105804000221104A10480633104E217205F51B710F
:10581400E2600022E38023460090284601F048FF1E
:105824002346002205F524712846009601F040FF26
:105834000437BD46F0BD064B9421064A064812F0D3
:105844008FF900BF040C00200D1A0000511A00004B
:105854001C130020B8130020E812002010B584B0F7
:10586400002104460392FFF7BDFF09492046039B2C
:105874000022009104F5017103F0DEF900220549CC
:105884002046039B0091114601F0A0FE04B010BD18
:10589400A12000004D180000B0B582B001210546DA
:1058A40002AF84B0126802AC204602F0CFFCA38899
:1058B4007BB101234FF07E5007491422E060284653
:1058C4002372019105F53071009401F01DFEBD466F
:1058D400B0BDFEF7F7FB00BFFD120000B0B582B00B
:1058E4000121054602AF84B0126802AC204602F0E2
:1058F400ADFCA38883B1E38802200A4A0A490B332A
:10590400E260002220722846E3802346009111467B
:1059140002F022F9BD46B0BD044B9421044A054867
:1059240012F01EF9F80B0020C10B00001C1300201C
:10593400B8130020E8120020F0B583B00221154608
:10594400064602AF86B0126802AC204602F07EFC26
:10595400A388C3B1E08802210E4B2A4607300E4DBE
:1059640021720121E3600023E080204602F07AFDE9
:105974002346002206F546713046009503F0E0FA0E
:105984000437BD46F0BD054B9421054A054812F085
:10599400E7F800BFD80B0020393A00001C130020A0
:1059A400B8130020E81200200021FFF7C5BF00BF94
:1059B400F0B583B00121054602AF84B0126802AC91
:1059C400204602F043FCA38893B1E38802210B4AEA
:1059D40028460B4E0733217205F54671E26000221A
:1059E400E3802346009603F0ABFA0437BD46F0BDCE
:1059F400044B9421044A054812F0B2F8E00B00204D
:105A0400393A00001C130020B8130020E8120020CB
:105A140010B5044682B0114600F53C70019201F0C5
:105A2400D3FE019A0021204602B0BDE81040FFF7E2
:105A3400BFBF00BFF0B583B00121054602AF84B0FB
:105A4400126802AC204602F001FCA38883B14FF037
:105A54007E520121074E234621722846E26005F555
:105A64003C710222009601F023FE0437BD46F0BDCE
:105A7400FEF728FBD139000010B584B0002104469C
:105A84000392FFF7D7FF09492046039B02220091A6
:105A940004F5337101F00CFE002205492046039BF6
:105AA4000091114601F092FD04B010BD451C0000A8
:105AB40085180000B0B582B00121054602AF84B05C
:105AC400126802AC204602F0C1FBA38883B1E388CC
:105AD40002200A4A0A490B33E26000222072284657
:105AE400E38023460091114602F036F8BD46B0BD6E
:105AF400044B9421044A054812F032F8F80B0020B4
:105B04002D3B00001C130020B8130020E8120020D5
:105B1400F0B583B002211546064602AF86B012687E
:105B240002AC204602F092FBA388B3B10C480121D9
:105B34002A460023E0602046217202F093FC094DBE
:105B440000239FED090A032230461946CDE900459A
:105B540001F012FD0437BD46F0BDFEF7B3FA00BFF5
:105B6400E40FC9403D130000000000000021FFF7CE
:105B7400CFBF00BF2DE9F04782B00121164605468C
:105B840002AF84B0126802AC204602F05FFBA38827
:105B940083B3194B4FF000084FF0010905F5087A5B
:105BA400E3604246234684F808905146CDF80080CD
:105BB400284602F017FF86B03268022102AC204664
:105BC40002F044FBBDF80C30A3B100224B458DF824
:105BD400109005920ED0094B514628464246079331
:105BE4002346CDF800808DF8189002F0FBFEBD46E8
:105BF400BDE8F087FEF766FA00004040000020414F
:105C0400F0B583B00121054602AF84B0126802AC3E
:105C1400204602F01BFBA38883B10121084A094EE8
:105C2400002321722846E26005F555710322CDE96F
:105C3400004601F069FC0437BD46F0BDFEF742FAA8
:105C44000000C8425D13000038B504461546002123
:105C5400FFF7D6FF2A4620460021BDE83840FFF76B
:105C640089BF00BFF0B583B00121054602AF84B0FF
:105C7400126802AC204602F0E9FAA388CBB10126EF
:105C84004FF07E510C4A2346E16028463146267285
:105C94000092002201F09AFCDFF820C02346002283
:105CA40031462846CDF800C001F090FC0437BD46CB
:105CB400F0BDFEF707FA00BFB5130000B91F0000DE
:105CC4000021FFF7CFBF00BFF0B583B00121054627
:105CD40002AF84B0126802AC204602F0B7FAA3887F
:105CE4008BB100230121094A2846094E2172194625
:105CF400E26002229FED070ACDE9004601F03CFC78
:105D04000437BD46F0BDFEF7DDF900BFCDCCCC3D78
:105D1400D5130000000016442DE9F04F83B0022192
:105D24001446064602AF86B0126802AD284602F059
:105D34008DFA002322462846194602F093FBAB88CD
:105D4400012B33D94FF000084FF001094FF0000B3D
:105D540006F1E80A2B4685F81090C5F814B04246BF
:105D6400CDF800805146304602F03CFE86B02268F1
:105D7400022102AD284602F069FABDF80C30ABB13D
:105D840022464B4649462846CDF814B08DF810906B
:105D940002F068FB2B46424651463046CDF800805F
:105DA40002F020FE0437BD46BDE8F08FFEF78AF905
:105DB4000021FFF7B1BF00BFF0B583B00521054650
:105DC40002AF8CB0126802AC204602F03FFAA388FE
:105DD400002B49D00122254993422272E16043D02D
:105DE4002349022B227461613ED02249032B22767F
:105DF400E16139D02049042B84F82020616233D03A
:105E04001E4923461E4884F828200022E16205F535
:105E140059710090284601F023FE1A48234605F5DF
:105E24005B71009000222846174E01F019FE1748B6
:105E3400234605F55D7100900022284601F010FE0E
:105E44001348234605F55F7100900022284601F0AF
:105E540007FE2346002205F561712846009601F0ED
:105E6400FFFD0437BD46F0BDFEF72CF9FC013B44B1
:105E7400AEE77F44AE62313E0010F6445CAF10469C
:105E8400D11D0000DD1D000081210000E91D00007E
:105E940071210000B0B582B00121054602AF84B083
:105EA400126802AC204602F0D1F9A38883B1E388DA
:105EB40002200A4A0A490B33E26000222072284673
:105EC400E38023460091114601F046FEBD46B0BD75
:105ED400044B9421044A054811F042FEF80B0020BB
:105EE400A50C00001C130020B8130020E8120020A9
:105EF4002DE9F04182B003211546064602AF88B071
:105F0400126802AC204602F0A1F9A3881BB3E3880F
:105F14004FF0020813492A4606332046E160012166
:105F2400E380002384F8088002F09CFAA3884345A8
:105F340011D9E38830460C4A0C490533E26100224A
:105F4400E380234684F818800091114601F004FE92
:105F5400BD46BDE8F081064B9421064A064811F07F
:105F6400FFFD00BFE80B0020F00B0020F51D000032
:105F74001C130020B8130020E81200200021FFF7B2
:105F8400B7BF00BFB0B582B00121054602AF84B0EF
:105F9400126802AC204602F059F9A38883B1E38861
:105FA40002200A4A0A490B33E26000222072284682
:105FB400E38023460091114601F0CEFDBD46B0BDFD
:105FC400044B9421044A054811F0CAFDF80B002043
:105FD400CD0C00001C130020B8130020E812002090
:105FE4002DE9F04182B003211546064602AF88B080
:105FF400126802AC204602F029F9A3881BB3E38897
:106004004FF0020813492A4606332046E160012175
:10601400E380002384F8088002F024FAA38843452F
:1060240011D9E38830460C4A0C490533E261002259
:10603400E380234684F818800091114601F08CFD1A
:10604400BD46BDE8F081064B9421064A064811F08E
:1060540087FD00BFE80B0020F00B0020391E000074
:106064001C130020B8130020E81200200021FFF7C1
:10607400B7BF00BFB0B582B00121054602AF84B0FE
:10608400126802AC204602F0E1F8A38883B1E388E9
:1060940002200A4A0A490B33E26000222072284691
:1060A400E38023460091114601F056FDBD46B0BD84
:1060B400044B9421044A054811F052FDF80B0020CA
:1060C4006D0D00001C130020B8130020E8120020FE
:1060D400F0B583B002211546064602AF86B01268B9
:1060E40002AC204602F0B2F8A388C3B1E0880221D2
:1060F4000E4B2A4607300E4D21720121E360002326
:10610400E080204602F0AEF92346002206F2444124
:106114003046009502F014FF0437BD46F0BD054B30
:106124009421054A054811F01BFD00BFD80B00203F
:10613400D14100001C130020B8130020E8120020F5
:106144000021FFF7C5BF00BFF0B583B001210546AC
:1061540002AF84B0126802AC204602F077F8A3883C
:1061640093B1E38802210B4A28460B4E0733217270
:1061740005F24441E2600022E3802346009602F0E7
:10618400DFFE0437BD46F0BD044B9421044A0548A4
:1061940011F0E6FCE00B0020D14100001C130020AC
:1061A400B8130020E812002010B5044682B011464E
:1061B40000F21C40019201F007FB019A00212046E5
:1061C40002B0BDE81040FFF7BFBF00BFF0B583B019
:1061D4000121054602AF84B0126802AC204602F0E9
:1061E40035F8A38883B14FF07E520121074E234630
:1061F40021722846E26005F21C410222009601F059
:1062040057FA0437BD46F0BDFDF75CFF6941000055
:1062140010B584B0002104460392FFF7D7FF094963
:106224002046039B0222009104F57E7101F040FA9E
:10623400002205492046039B0091114601F0C6F94E
:1062440004B010BD991C0000A1180000B0B582B0C4
:106254000121054602AF84B0126802AC204601F069
:10626400F5FFA38883B1E38802200A4A0A490B3365
:10627400E260002220722846E38023460091114602
:1062840001F06AFCBD46B0BD044B9421044A0548A4
:1062940011F066FCF80B0020BD0D00001C1300205B
:1062A400B8130020E8120020F0B583B0022115468F
:1062B400064602AF86B0126802AC204601F0C6FF63
:1062C400A388C3B1E08802210E4B2A4607300E4D45
:1062D40021720121E3600023E080204602F0C2F82D
:1062E4002346002206F595613046009502F028FE0B
:1062F4000437BD46F0BD054B9421054A054811F00D
:106304002FFC00BFD80B0020A94300001C13002061
:10631400B8130020E81200200021FFF7C5BF00BF1A
:10632400F0B583B00121054602AF84B0126802AC17
:10633400204601F08BFFA38893B1E38802210B4A26
:1063440028460B4E0733217205F59561E260002261
:10635400E3802346009602F0F3FD0437BD46F0BD0A
:10636400044B9421044A054811F0FAFBE00B002089
:10637400A94300001C130020B8130020E8120020D9
:1063840010B5044682B0114600F59060019201F008
:106394001BFA019A0021204602B0BDE81040FFF725
:1063A400BFBF00BFF0B583B00121054602AF84B082
:1063B400126802AC204601F049FFA38883B14FF074
:1063C4007E520121074E234621722846E26005F5DC
:1063D40090610222009601F06BF90437BD46F0BDCE
:1063E400FDF770FE4143000010B584B0002104465F
:1063F4000392FFF7D7FF09492046039B022200912D
:1064040004F25C4101F054F9002205492046039B43
:106414000091114601F0DAF804B010BDED1C000043
:10642400BD180000F0B583B002211546064602AF40
:1064340086B0126802AC204601F008FF00232A4609
:106444002046194602F00EF8A388012B0ED900222B
:10645400074901202346616106F5EC71207430463A
:10646400009202F0BFFA0437BD46F0BDFDF72AFEE4
:10647400000020410021FFF7D5BF00BFF0B583B075
:1064840002211546064602AF86B0126802AC2046C9
:1064940001F0DCFE00232A462046194601F0E2FF03
:1064A400A388012B0ED900220749012023466161EC
:1064B40006F5CA7120743046009202F093FA04374C
:1064C400BD46F0BDFDF7FEFD000020410021FFF7B1
:1064D400D5BF00BFF0B583B00121054602AF84B03B
:1064E400126802AC204601F0B1FEA3888BB10023F0
:1064F4000121094A2846094E21721946E2601522F3
:106504009FED070ACDE9004601F036F80437BD4691
:10651400F0BDFDF7D7FD00BF00007A43292000003D
:106524000000FA43F0B583B00121054602AF84B000
:10653400126802AC204601F089FEA3888BB10023C7
:106544000121094A2846094E21721946E2601522A2
:106554009FED070ACDE9004601F00EF80437BD4669
:10656400F0BDFDF7AFFD00BFCDCC4C3F1D0D0000CD
:1065740077BE7F3FF0B583B00121054602AF84B0FA
:10658400126802AC204601F061FEA3888BB100239F
:106594000121094A2846094E21721946E260152252
:1065A4009FED070ACDE9004600F0E6FF0437BD463B
:1065B400F0BDFDF787FD00BF0000C8424520000084
:1065C40000007A44B0B500AF84B0012112686C4673
:1065D4000546204601F03AFEA38863B14FF07C5192
:1065E400012223462846E16005F1A401227202F04B
:1065F4005FFABD46B0BDFDF765FD00BF0021FFF7A2
:10660400E1BF00BFB0B582B00121054602AF84B03E
:10661400126802AC204601F019FEA38873B14FF052
:106624007E5101200022234620722846E16005F1B4
:10663400B001009202F0D6F9BD46B0BDFDF742FDAF
:106644000021FFF7DFBF00BFF0B583B0022115467C
:10665400064602AF86B0126802AC204601F0F6FD91
:1066640000232A462046194601F0FCFEA388012B8C
:106674000ED9002201200021234620743046616196
:1066840006F19401009202F0ADF90437BD46F0BD65
:10669400FDF718FD0021FFF7D7BF00BFB0B582B0EA
:1066A4000221054602AF86B0126802AC204601F012
:1066B400CDFDA38893B1012100228B422172E260B7
:1066C4000CD00748002221742346606105F1B00113
:1066D4002846009202F086F9BD46B0BDFDF7F2FCF3
:1066E400000048430021FFF7D9BF00BF70B5002167
:1066F400054618461C4601F067FE114B014620462C
:10670400C91AB1FA81F1490901F05EFE0D4B9842B4
:106714000AD00D4E234605F59C61284604960022B6
:10672400BDE8704001F05AB9084E234605F2E44131
:10673400284604960022BDE8704001F091B900BFDC
:106744006E0ED60601BD647E590E000011210000B4
:106754000021134600B583B00A460091FFF7C6FF37
:1067640003B05DF804FB00BFF0B583B0012105461A
:1067740002AF84B0126802AC204601F067FDA38822
:10678400C3B101260C490D4A2346E160284631462F
:1067940026720092002200F019FFDFF824C023467D
:1067A400002231462846CDF800C000F00FFF043720
:1067B400BD46F0BDFDF786FCCDCCCC3DA10E00005E
:1067C4007D0E0000F0B583B00121054602AF84B010
:1067D400126802AC204601F039FDA3888BB14FF05A
:1067E40080420121084E002321722846E26005F20E
:1067F40034511622CDE9004600F086FE0437BD462A
:10680400F0BDFDF75FFC00BF110F000030B50A4971
:1068140083B0044615460123CDE9002100F234512A
:10682400162200F071FE2A460021204603B0BDE87E
:106834003040FFF7C7BF00BF110F000070B5002143
:10684400054618461C4601F0BFFD114B0146204683
:10685400C91AB1FA81F1490901F0B6FD0D4B98420C
:106864000AD00D4E234605F23C51284604960022D8
:10687400BDE8704001F0B2B8084E234605F5A861A2
:10688400284604960022BDE8704001F0E9B800BF34
:106894006E0ED60601BD647E390F00003121000062
:1068A400F8B500AF86B0022115466C46126806465C
:1068B400204601F0CBFC00232A462046194601F06D
:1068C400D1FDA388012B0CD94FF07E53012522461C
:1068D40006F5A96130462574636102F0A7FABD4646
:1068E400F8BDFDF7EFFB00BF0021FFF7D9BF00BFE4
:1068F400B0B582B00121054602AF84B0126802AC83
:10690400204601F0A3FCA38883B1E38802200A4A4D
:106914000A490B33E260002220722846E3802346B2
:106924000091114601F018F9BD46B0BD044B942105
:10693400044A054811F014F9F80B0020610F000017
:106944001C130020B8130020E812002030B50E49B3
:1069540085B013460022009100F5AA610446039312
:1069640001F0BCFA039B204600211A46074DFFF7AD
:10697400BFFF039B002204F24C512046009501F016
:1069840091F905B030BD00BFDD49000035140000A9
:106994002DE9F04182B003211546064602AF88B0C6
:1069A400126802AC204601F051FCA3881BB3E388B3
:1069B4004FF0020813492A4606332046E1600121BC
:1069C400E380002384F8088001F04CFDA38843454C
:1069D40011D9E38830460C4A0C490533E2610022A0
:1069E400E380234684F818800091114601F0B4F83E
:1069F400BD46BDE8F081064B9421064A064811F0D5
:106A0400AFF800BFE80B0020F00B0020D9180000FD
:106A14001C130020B8130020E81200200021FFF707
:106A2400B7BF00BFF0B583B00121054602AF84B003
:106A3400126802AC204601F009FCA388DBB1E388AC
:106A44000221104A10480633104E217205F5AB613D
:106A5400E2600022E38023460090284600F028FEEE
:106A64002346002205F27C512846009600F020FEC1
:106A74000437BD46F0BD064B9421064A064811F082
:106A84006FF800BF040C0020951A0000D91A00000A
:106A94001C130020B8130020E812002010B584B0A5
:106AA400002104460392FFF7BDFF09492046039BDA
:106AB4000022009104F5827102F0BEF8002205491B
:106AC4002046039B0091114600F080FD04B010BDE8
:106AD400C920000011190000B0B582B0012105469B
:106AE40002AF84B0126802AC204601F0AFFBA38869
:106AF4007BB101234FF07E5007491422E060284601
:106B04002372019105F2AC51009400F0FDFCBD46E6
:106B1400B0BDFDF7D7FA00BF95140000B0B582B040
:106B24000121054602AF84B0126802AC204601F090
:106B34008DFBA38883B1E38802200A4A0A490B33F8
:106B4400E260002220722846E38023460091114629
:106B540001F002F8BD46B0BD044B9421044A054837
:106B640010F0FEFFF80B0020AD0F00001C130020F6
:106B7400B8130020E8120020F0B583B002211546B6
:106B8400064602AF86B0126802AC204601F05EFBF6
:106B9400A388C3B1E08802210E4B2A4607300E4D6C
:106BA40021720121E3600023E080204601F05AFCB9
:106BB4002346002206F204613046009502F0C0F933
:106BC4000437BD46F0BD054B9421054A054810F035
:106BD400C7FF00BFD80B0020794C00001C13002015
:106BE400B8130020E81200200021FFF7C5BF00BF42
:106BF400F0B583B00121054602AF84B0126802AC3F
:106C0400204601F023FBA38893B1E38802210B4AB9
:106C140028460B4E0733217205F20461E26000221C
:106C2400E3802346009602F08BF90437BD46F0BD9D
:106C3400044B9421044A054810F092FFE00B002015
