:0200000460009A
:100000004643464200000156000000000103030081
:1000100000000000000000000000000000000000E0
:1000200000000000000000000000000000000000D0
:1000300000000000000000000000000000000000C0
:1000400000000000010408000000000000000000A3
:100050000000200000000000000000000000000080
:100060000000000000000000000000000000000090
:100070000000000000000000000000000000000080
:10008000EB04180A063204260000000000000000FD
:10009000050404240000000000000000000000002F
:1000A0000000000000000000000000000000000050
:1000B0000604000000000000000000000000000036
:1000C0000000000000000000000000000000000030
:1000D00020041808000000000000000000000000DC
:1000E0000000000000000000000000000000000010
:1000F0000000000000000000000000000000000000
:10010000D8041808000000000000000000000000F3
:100110000204180804200000000000000000000095
:1001200000000000000000000000000000000000CF
:10013000600400000000000000000000000000005B
:1001400000000000000000000000000000000000AF
:10015000000000000000000000000000000000009F
:10016000000000000000000000000000000000008F
:10017000000000000000000000000000000000007F
:10018000000000000000000000000000000000006F
:10019000000000000000000000000000000000005F
:1001A000000000000000000000000000000000004F
:1001B000000000000000000000000000000000003F
:1001C000000100000010000001000000000000001D
:1001D000000001000000000000000000000000001E
:1001E000000000000000000000000000000000000F
:1001F00000000000000000000000000000000000FF
:10020000FFFFFFFFFFFFFFFFFFFFFFFFFFFFFFFFFE
:10021000FFFFFFFFFFFFFFFFFFFFFFFFFFFFFFFFEE
:10100000D1002043491600600000000000000000ED
:10101000201000600010006000EC01600000000083
:101020000000006000F8010000000000FFFFFFFF6B
:10103000FFFFFFFFFFFFFFFFFFFFFFFFFFFFFFFFC0
:10104000FFFFFFFFFFFFFFFFFFFFFFFFFFFFFFFFB0
:10105000FFFFFFFFFFFFFFFFFFFFFFFFFFFFFFFFA0
:10106000FFFFFFFFFFFFFFFFFFFFFFFFFFFFFFFF90
:10140000814205D051F8043B40F8043B8242F9D8B0
:10141000704700BF044A05494FF0000342F8043BFF
:101420009142FBD8704700BFC0420020E055002029
:101430002DE98848BFF34F8F00BF00BF00BF00BF3A
:1014400000F07AFA674B0822C3F8542100BF00BFAE
:1014500000BF00BF00BF00BF00BF00BF00BF00BF94
:1014600000BF00BF00BF00BF00BF00BF5E4A5F49B2
:101470005F48FFF7C5FF5F4A5F496048FFF7C0FF5D
:101480005F4CFFF7C7FF4FF470004FF0E0210023DF
:101490005C4AC1F8880D44F823200133B02BFAD1FF
:1014A000594B8021594A03F8011B9342FBD14FF05D
:1014B000E0254C4E4FF08039DFF880B1DFF880A195
:1014C0004FF0FF31C5F8084D0027C6F80491C6F863
:1014D00000B1C6F8F490C6F8F0A0D5F8243DDFF8C6
:1014E000648143F4E0234A4AC5F8243DD8F81C300F
:1014F00023F07F0343F04003C8F81C30D8F82430B1
:1015000023F07F0343F04003C8F824309166D1668E
:101510001167516700F018FA3E4B3F49A3633F4BF8
:10152000E36363236B610323AF612B613C4BC5F81D
:10153000203DD5F8FC3D43F08073C5F8FC3D394BA8
:101540001A6842F001021A605B680B6000F084FACE
:10155000C6F804913448C6F800B1C6F8F490C6F84D
:10156000F0A000F021FCD8F86C10304B304A41F468
:101570004051C8F86C101F60C3F80871C3F81871A7
:10158000C3F82871C3F83871936BDB0708D442F6AF
:101590001563284951651365936B43F00103936309
:1015A000234A254C936843F00113936000F0B8FB85
:1015B00000F0EEFB00F07EFA00F0C0F92368132B78
:1015C000FCD900F00FFB2368B3F5967FFBD300F046
:1015D000B9F900F0B5F900F0D7FB00F0E9FB30BF36
:1015E000FDE700BF00800D40B88801004420006086
:1015F00000000000C042002000A90160000000209F
:10160000004000202111010000E400E0A0E400E01F
:1016100000C00A408D0601006855002091060100B7
:1016200000002020001000E00046C32300400840D6
:1016300000400D400000C0566C5500201B101820C3
:101640000C0D111300C00F40054B4FF42A01054A41
:1016500005485A641864054A99639546FFF7E8FE01
:1016600000C00A40FFAAAAAA070020000000062026
:101670001BB9124B1B6F9B041ED400F03F000F4B95
:1016800022F0604221F0604140F489101867C3F8ED
:101690008010C3F890201A6F22F480521A671A6FD4
:1016A000002AFCDAD3F87011054A0A40C3F8702109
:1016B0001A6F22F480321A67704700BF00800D4015
:1016C000FF7F7FFF43690A4A03EB011010B4037ADE
:1016D000084C02EB0313D3E901321460C2681A60AC
:1016E00003690BB142691A605DF8044B704700BF93
:1016F000F01C002061F801004369027E03EB021236
:1017000092F808C08C451CD01A7AFF2A19D0914251
:1017100010B5044616D01A7EFF2A06D00121D3E95F
:10172000002312681A4201D1217610BD064B052212
:10173000204603EB0C135B681A60FFF7C3FF2176AA
:10174000F3E770470021EAE7F01C002043690A4AEA
:1017500003EB011010B490F82830084C02EB03138F
:10176000D3E901321460C26A1A60036B0BB1426B99
:101770001A605DF8044B7047F01C002061F801000E
:101780004369427E03EB021292F828C08C451ED0BA
:1017900093F82820FF2A1AD0914210B5044617D09A
:1017A00093F83820FF2A06D00121D3E900231268DC
:1017B0001A4201D1617610BD064B0522204603EB8B
:1017C0000C135B681A60FFF7C1FF6176F3E770479F
:1017D0000021EAE7F01C0020164942698B6B23F4D4
:1017E0007C0343F4802370B58B630446124DD2E929
:1017F00000130A681A4303690A60022200211A6171
:101800000E4A19619A6401225A629D624FF4303582
:10181000DD624FF001159E6C1E6519629D651A61AF
:10182000017EFFF74FFF617E2046BDE87040FFF765
:101830008DBF00BF00C00F40B80B05053B3728190E
:10184000B1F5607FF0B50E468DB028BF4FF46076DD
:101850000F46054672B62E4B0024702218602146B2
:101860002C4B2D481C8000F0A7FACFB121462A4806
:101870004FF0010C4A0901F01F03013150F82240DA
:101880000CFA03F38E4243EA040340F82230F1D805
:10189000284600234380013300F582709E42F9D828
:1018A0001E4C257815B162B60DB0F0BD082000F0D1
:1018B00077FA1B4B80220646009302A90693194B28
:1018C0000271056008A8029300F07EFA06A9164A84
:1018D000304600F055FA069B08A8DB689847009B45
:1018E00002A8DB6898472378002BDCD10F4B104A05
:1018F000C3F858210F49D0204FF0E023402281F84F
:101900004600C3F808210123237062B60DB0F0BD74
:10191000D84F002090550020E04F0020A355002014
:1019200074180020E50001001B1001000040002099
:10193000F100010000E400E0704700BF704700BF05
:10194000704700BF00BF704710B44FF0E023002184
:1019500010243148C3F8941DC3F89C4D1124C3F8DA
:10196000A00D2E48C3F89C4D1224C3F8A00D2C489E
:10197000C3F89C4D2B4AC3F8A00D2B4C42F0150226
:101980002A48C3F89C4DC3F8A00D294C2948C3F838
:101990009C4DC3F8A00D284CC3F89C2D2748284A1D
:1019A000C3F8A04DC3F89C0DC3F8A02D02F5A022EA
:1019B000244C0C322448C3F89C4DC3F8A02D234A74
:1019C000C3F89C0D224CC3F8A02D02F14062C3F86D
:1019D0009C4D2048C3F8A02D0C32C3F89C0DC3F8D1
:1019E000A02D00BF00BF00BF00BF00BF0122C3F891
:1019F000942DBFF34F8FBFF36F8FC3F8501FBFF30A
:101A00004F8FBFF36F8FD3F8142D5DF8044B42F462
:101A10004032C3F8142D70473F000010250008071E
:101A200009001000E05500201300200021000207EB
:101A300014000020250008130900001016002020C3
:101A400027000B1317000040180000602F000B0741
:101A5000190000701A000080F0B4154A40274FF4B6
:101A600080314FF480564FF400554FF4404443F218
:101A70004200136913F0020F0ED113F4005F0FD070
:101A800013F4805F0ED0002BF3DA13F4803F0BD1F8
:101A90005B060BD5F0BC7047946151619061E8E73B
:101AA0005561E6E75661E4E79161E2E75761E0E7F7
:101AB00000800D403F4A03203F49F3EE095AD2F817
:101AC00080304FF0000C9FED3D6A23F001039FED45
:101AD0003C5A30B4C2F88030C2F89000D1F8E0101F
:101AE000384DCBB2384C39482B6007EE903A0B0D8D
:101AF000C1F30B21F8EEE77A06EE903A07EE101AE2
:101B0000334BB8EEC77A2160F8EEE66A314937EE1A
:101B1000C66A37EEC55A76EEC76A77EEE57A26EEE4
:101B2000266AC3ED006A25EE265AD2F8803067EEA9
:101B3000A64AC0ED007AC6EE275A274885EE276AE6
:101B4000C4EEA76A75EE875AFCEEE55A36EE076AD0
:101B500015EE904ABCEEC66A43EA045376EE877AE5
:101B6000C2F8803016EE103AD2F89041FCEEE77AD7
:101B700001EA0341214317EE903AC2F89011C3F3F2
:101B80000B03D2F890110B431449C2F89031D2F8EC
:101B9000803043F00203C2F88030114B80F840C01F
:101BA000C1F840314FF0E023012230BCC3F80821D6
:101BB000704700BF00810D4000441F400000AA4252
:101BC0000000B44258550020545500205C550020B8
:101BD000605500200000FF0F00E400E000400020FE
:101BE0000D130100314B40F6617210B5C3F820218E
:101BF00040F2044400F0D0F82D4A2E49D2F880304B
:101C00002D4843F00303C2F880302C4BC1F86041EB
:101C100002681A4203D1D1F8A8319A071BD0254A8D
:101C20004FF00041244B5963D2F8403143F0020396
:101C3000C2F84031D2F840319B07FBD44FF400305A
:101C40004FF0E0211C4B4FF00042C1F88C021920EC
:101C50009A6300F0B5F8184A4FF08040154C002107
:101C600090630A20164B11604FF42072C4F8A8014B
:101C7000184600F0A1F84FF4800203464FF48100AB
:101C800040F243111860C4F858311A640D4B0E4AE3
:101C9000C4F84811C3F804224FF0E0224FF4003199
:101CA0000123C2F80C11C4F8403110BD00800D4072
:101CB00000C00F4000002E4000900D40001C1E0090
:101CC0000000002000400020F514010008B50E4B74
:101CD0001B6E9B0700D4FBBE72B60C4B00200C4A57
:101CE000C3F8400103F160430A49A3F55F2311647F
:101CF0009D46BFF34F8F4FF400130748074ADB6937
:101D000002609B68984700BF00441F4000002E40BF
:101D100000C00A400300200000802020000012EBD9
:101D2000104BA020104AD96E41F4403110B4D9664E
:101D300040F23764D96E41F44071D96654649064BE
:101D4000936C1B06FCD4094A40F23761A02351640E
:101D50009364936C13F08003FBD1054A13705DF814
:101D6000044B704700C00F4000400C4000800C4006
:101D7000A9550020F8B500BFF8BC08BC9E467047C6
:101D80005FF800F0650701005FF800F01D7C0100BE
:101D90005FF800F0091001005FF800F0651C010019
:101DA0005FF800F0210F01005FF800F00909010061
:101DB0005FF800F0DD0D01005FF800F09D79010093
:101DC0005FF800F0F90B01005FF800F05901010025
:101DD00045000000A9690000996A0000616B0000DD
:101DE000757000008D700000A5700000BD700000CF
:101DF000D5700000ED700000057100001D7100003D
:101E0000357100004D710000657100000976000019
:101E100021760000397600005176000069760000D6
:101E20008176000099760000B1760000E57600002A
:101E3000157700002D770000457700005D770000E2
:0C1E400075770000298A00006908010085
:101E4C0080C00F40000000031900000010000000CB
:101E5C00E8841F4001000000FF000000FF000000AC
:101E6C00000000000000000018000000100000003E
:101E7C00E4841F4001000000FF000000FF00000090
:101E8C0000000000000000001F000000D90001004D
:101E9C0070C00F40000C0000110000001100000089
:101EAC00E0841F400200000024000000120000002B
:101EBC00E0841F4001000000100000001100000031
:101ECC00DC841F400200000025000000120000000E
:101EDC00DC841F40010000001E000000CD0001004A
:101EEC0070C00F40C0000000120000001300000082
:101EFC00D0841F4001000000FF000000FF00000024
:101F0C00000000000000000013000000130000009F
:101F1C00CC841F4001000000FF000000FF00000007
:101F2C0000000000000000001C000000C1000100C7
:101F3C001603550053004200200053006500720048
:101F4C00690061006C000000180354006500650016
:101F5C006E00730079006400750069006E006F00FC
:101F6C000403090409026200030100C032080B00DB
:101F7C000202020100090400000102020100052412
:101F8C0000100105240101010424020605240600A9
:101F9C00010705820310001009040100020A000069
:101FAC0000070503024000000705840240000009F9
:101FBC0004020002FF6AFF000705810240000107CE
:101FCC00050102400001000009026200030100C08B
:101FDC0032080B0002020201000904000001020297
:101FEC00010005240010010524010101042402064E
:101FFC0005240600010705820310000509040100F1
:10200C00020A000000070503020002000705840213
:10201C000002000904020002FF6AC70007058102E2
:10202C000002010705010200020100000A0600027D
:08203C00EF0201400100000069
:10204400000000000000000000000000000000008C
:10205400000000000000000000000000000000007C
:102064000548064B1B1AD90F01EBA301491002D0F6
:10207400034B03B118477047C0420020C042002000
:102084000000000008B5054B1BB105490548AFF336
:102094000080BDE80840FFF7E3BF00BF0000000078
:1020A400C454002000F801604069704790ED020BB1
:1020B400704700BF0069704707EE901A9FED065BFA
:1020C400B8EE677B90ED026B27EE057B87EE060B7F
:1020D400B7EEC00B704700BF0000000000408F4007
:1020E40081657047806D704701657047006D70476A
:1020F40041657047406D704708B50368D3F88C306C
:10210400984700B1006808BD08B50368D3F88C305F
:10211400984700B1406808BD0023BFF35B8F80F887
:102124008430704700000000B0B582B004460D460C
:10213400002100AF84B06A4610467A6005F0EAFEDA
:1021440023687A682946DB6C20469FED030B984789
:102154000837BD46B0BD00BF00000000000000000D
:10216400B0B582B004460D46002100AF84B06A4683
:1021740010467A6005F0C4FE23687A682946DB6C51
:1021840020469FED030B98470837BD46B0BD00BFFE
:102194000000000000000000F8B500AF8AB184B070
:1021A40004460D4600216E46304605F0BFFE236806
:1021B40032462946DB6C20469FED050B9847BD4609
:1021C400F8BD054B5321054A054815F07DF900BFBC
:1021D40000000000000000004C0F00205C0F0020F5
:1021E400A40F00204FF001028430D0E84F3FC0E834
:1021F400412F0029F9D1DBB2BFF35B8F002BF4D15F
:10220400704700BF4FF001028430D0E84F3FC0E870
:10221400412F0029F9D1D8B2BFF35B8F80F00100C0
:10222400704700BF183006F0ABB900BF036810B5A3
:10223400D3F88C301446984718B1214606F046FB73
:10224400012010BD00000000DFED0B7A90ED025B71
:1022540087FE800AB7EEC00A9FED056B20EE050BE2
:1022640080EE067BFCEEC77B17EE900A704700BF3A
:102274000000000000408F4000000000F8B5DE8838
:1022840000F170051C46174604362846314605F011
:102294008BFD60B10146E288204641F8047B05F0DD
:1022A4006BFE31462846BDE8F84005F0ABBD034B54
:1022B4001E21034A034815F007F900BF80070020D8
:1022C4004C080020A40F002010B50C1E82B00ADDBB
:1022D4005C30019005F05AFDA102019802B0BDE8FE
:1022E400104005F02FBD034BB921034A034815F0F4
:1022F400EBF800BFD4120020E4120020A40F002049
:1023040010B50C1E82B00ADD7030019005F03EFD60
:10231400A102019802B0BDE8104005F013BD034BC3
:10232400BF21034A034815F0CFF800BF2013002053
:1023340030130020A40F002008B5034AE221034B08
:10234400034815F0C1F800BF4407002034070020FB
:10235400A40F002008B5034AEE21034B034815F0EF
:10236400B3F800BFA408002034070020A40F002005
:102374002DE9F04390461F46026D0E46294B00217D
:1023840083B09A42316046D1814600F1850C4FF00A
:10239400010EDCE84F4FCCE845EF002DF9D1E4B253
:1023A400BFF35B8F002CF4D109F17005284605F0CA
:1023B400F1FCA8B101A92846019405F045FDC0B17E
:1023C400019A132A1BD997421FD301464046012480
:1023D40051F8043B336010F029FD284605F03AFD1E
:1023E40000232046BFF35B8F89F8853003B0BDE836
:1023F400F0830D4BCF210D4A0D4815F065F80D4BB8
:10240400D0210A4A0A4815F05FF80B4BD121074A3C
:10241400074815F059F8094BC721044A044815F038
:1024240053F800BF3D020000600E0020100E002093
:10243400A40F0020A40E0020CC0E0020680D002064
:102444002DE9F84F2DED028B9FED338BB4EEC80BC5
:10245400F1EE10FA5ADB9046002A51D00368054683
:10246400314A0F469B6988FE008B046993423FD131
:1024740090ED020B9FED2A6B05F184034FF0010CE4
:1024840080EE067B27EE087BFCEEC77B17EE906A96
:102494002644D3E84F4FC3E84ECFBEF1000FF8D126
:1024A400E4B2BFF35B8F002CF3D1B8F806A005F1BA
:1024B4005C0B0AF1040A5846514605F075FC814646
:1024C400C0B10146B8F80620404641F8047B05F047
:1024D40053FD58465146C9F8046005F093FCBFF318
:1024E4005B8F85F884400120BDEC028BBDE8F88F3A
:1024F4009847BFE70D4B83210D4A0E4814F0E4FFC3
:102504000D4B74210A4A0B4814F0DEFF0B4B732168
:10251400074A084814F0D8FF00000000000000003B
:102524000000000000408F406D00000050100020AB
:10253400F00F0020A40F002040100020E00F002026
:102544002DE9F04F2DED068B9FED759B43EC182B79
:1025540085B0B4EEC98B00AFF1EE10FA3E6DC0F257
:10256400D680002E00F0CD8007F154028346304619
:102574000AEE101AFA6017F063FD8246002800F094
:10258400BA80C000DBF8102089FE089B0830ADEB50
:10259400000DDBF800008469E8466548844240F099
:1025A40087809BED020B29EE009B00245146404698
:1025B400013E4546A1469FED5C6B89EE067BBCEE71
:1025C400C77B17EE103A13441A4605F08FFC16F831
:1025D400013F623B112B12D8DFE803F009111111FE
:1025E4005211411111111111111111111125B8F8C4
:1025F4000430A34267DD85F80890C5F80C900134D7
:102604000835A245E3DCDBF80040B0EE480B424657
:102614001AEE101A5846E36C98471437BD46BDECC1
:10262400068BBDE8F08FFB68B8F80420191D186804
:10263400A242F96041DD002857D04FF00203E86060
:10264400013408352B7017F0FBFCB8F80630A245AE
:1026540003F101031844A8F80600B8DCD3E7FB68CB
:10266400B8F80420191D1B68A242F96037DD013453
:10267400EB604FF003030835A2452B70A7DCC2E7DB
:10268400FB68073323F0070393ED007B0833FB60FB
:10269400B7EEC77BB8F80430A3421ADD01344FF01B
:1026A400010385ED037A0835A2452B708FDCAAE778
:1026B4007A605846A0477A6875E71E4B94211E4AF3
:1026C4001E4814F001FF1B4B69211D4A1B4814F0DE
:1026D400FBFE184B73211B4A184814F0F5FE154BEA
:1026E4008221194A154814F0EFFE184B9521124A1D
:1026F400124814F0E9FE164B3A21164A0F4814F01A
:10270400E3FE154B5C21154A154814F0DDFE154B0C
:102714005B21124A124814F0D7FE00BFAFF30080C9
:1027240000000000000000000000000000408F4096
:102734006D000000F811002094120020C011002048
:10274400181200203C12002068120020C812002039
:1027540090110020A01100207C11002024110020E1
:10276400A40F0020E00F0020B5EEC00B70B5F1EE11
:1027740010FA1D46294B80ED020B036036DD00295B
:1027840046DD002A16463DDD002D35DB4FF0000303
:1027940004460361C0E915330CBF2B46204B1830A7
:1027A40083630023BFF35B8F80F86C30BFF35B8FD0
:1027B40080F86D30882340F8043C05F007FE636917
:1027C400B102034404F15C00636105F0BBFA636980
:1027D4000246A90204F170001344636105F0B2FAE1
:1027E4006369024620461344636170BD0D4B272183
:1027F4000D4A0E4814F068FE0D4B2A210A4A0B4874
:1028040014F062FE0B4B2921074A084814F05CFEC1
:10281400094B2821044A054814F056FE801500206F
:102824003D0200006C13002080130020A40F002040
:10283400C0130020D4120020B4130020084B10B59C
:10284400044640F8183B05F0D9FD04F15C0005F09E
:102854009DFA04F1700005F099FA204610BD00BFFE
:102864008015002018B10368D3F88C30184710B5D0
:10287400FFF762FD28B1944618301A46634605F006
:102884001DBE10B5FFF766FD00487047100C002010
:1028940000207047022070470B4B99420BD003F184
:1028A400A24303F57C531B3399420AD0074B994248
:1028B40004D00020704700F54F70704700F2C450F8
:1028C400704700F5D4707047062E701899A830012F
:1028D40042B1002300210448516011721060D3609A
:1028E4001361536100207047340B0020B0B51146CA
:1028F40000AF82B0056801EB83046A462D6CC2E91F
:1029040000140021A847BD46B0BD00BF2DE9F8431F
:1029140000AF2BB316466A4600211D46A2EBC30244
:102924004FEA850995460268E846546C4246A0473A
:10293400002308EB85041A46002D09DD08EB83010A
:1029440006EB820C51F804EBA1424CF808EBF9D1E8
:102954002B444C440AB90122EEE7BD46BDE8F88396
:10296400034B40F68821034A034814F0ADFD00BF31
:102974004C0B0020580B0020A00B002010B50A4B74
:10298400044600F5D470236005F09CFF04F54F70F5
:1029940005F098FF04F2C45005F094FF2046FFF7B9
:1029A4004DFF204610BD00BFB41400200B46114655
:1029B40010B4164CA34217D00CD8154A93421DD01C
:1029C400144A934217D1144B002218305DF8044B7B
:1029D40005F074BD114A93420DD1114B00221830F9
:1029E4005DF8044B05F06ABD0E4B002218305DF80B
:1029F400044B05F063BD5DF8044B70470A4B00229D
:102A040018305DF8044B05F059BD00BF5009BEB342
:102A14006AFFD224B6498E5CB91900005BC65CCE4D
:102A2400054D0000911A0000491A000030B50C4908
:102A340083B0154601230446CDE9002100F5137146
:102A4400022204F0BFFC0749012302222046CDE9FB
:102A5400005104F5127104F0B5FC03B030BD00BFA1
:102A64004D1500002515000010B5064C82B000235A
:102A740000F5F871CDE90024022204F0A3FC02B0B1
:102A840010BD00BFC114000010B5064C82B0012374
:102A940000F5F871CDE90024022204F093FC02B0A1
:102AA40010BD00BFC114000010B5012382B0054C55
:102AB40000F51B71CDE900241A4604F083FC02B032
:102AC40010BD00BF650B000010B5012382B0054C9A
:102AD40000F51571CDE900241A4604F073FC02B028
:102AE40010BD00BF0D20000010B5064C82B00123BC
:102AF40000F51971CDE90024032204F063FC02B04F
:102B040010BD00BFC90A000030B50C4983B015469A
:102B140001230446CDE9002100F51A71002204F0D6
:102B240051FC0749012300222046CDE9005104F558
:102B3400177104F047FC03B030BD00BF91110000D1
:102B44003D11000010B5064C82B0002300F512714F
:102B5400CDE90024022204F035FC02B010BD00BF10
:102B64002515000010B5064C82B0002300F518713D
:102B7400CDE90024032204F025FC02B010BD00BFFF
:102B8400A90A000010B5064C82B0002300F51B71A1
:102B9400CDE90024012204F015FC02B010BD00BFF1
:102BA400650B000010B5064C82B0002300F51971C6
:102BB400CDE90024032204F005FC02B010BD00BFDF
:102BC400C90A000010B5064C82B0002300F522713A
:102BD400CDE90024022204F0F5FB02B010BD00BFD1
:102BE4009D15000010B5064C82B0012300F522713A
:102BF400CDE90024022204F0E5FB02B010BD00BFC1
:102C04009D15000010B5064C82B0012300F53C71FF
:102C1400CDE90024132204F0D5FB02B010BD00BF9F
:102C2400451C000010B5064C82B0002300F54E711F
:102C3400CDE90024022204F0C5FB02B010BD00BFA0
:102C44003516000010B5064C82B0012300F54E7114
:102C5400CDE90024022204F0B5FB02B010BD00BF90
:102C64003516000010B5012382B0054C00F55471EF
:102C7400CDE900241A4604F0A5FB02B010BD00BF44
:102C8400450C000010B5064C82B0002300F55571C8
:102C9400CDE90024032204F095FB02B010BD00BF6F
:102CA4006120000010B5064C82B0002300F5547179
:102CB400CDE90024012204F085FB02B010BD00BF61
:102CC400450C000010B5064C82B0012300F5557187
:102CD400CDE90024032204F075FB02B010BD00BF4F
:102CE4006120000030B50C4983B015460123044629
:102CF400CDE9002100F57B71022204F063FB074952
:102D0400012302222046CDE9005104F57A7104F032
:102D140059FB03B030BD00BF351700000D1700008C
:102D240010B5064C82B0002300F56471CDE900248F
:102D3400022204F047FB02B010BD00BFA916000038
:102D440010B5064C82B0012300F56471CDE900246E
:102D5400022204F037FB02B010BD00BFA916000028
:102D640010B5012382B0054C00F20C41CDE90024DA
:102D74001A4604F027FB02B010BD00BF1D0E000070
:102D840010B5012382B0054C00F57D71CDE9002416
:102D94001A4604F017FB02B010BD00BFB91F0000B3
:102DA40010B5064C82B0012300F20441CDE90024A1
:102DB400032204F007FB02B010BD00BF810D000028
:102DC40030B50C4983B0154601230446CDE90021F2
:102DD40000F58161002204F0F5FA0749012300227D
:102DE4002046CDE9005104F57F7104F0EBFA03B0FD
:102DF40030BD00BFC11300006D13000010B5064CB8
:102E040082B0002300F57A71CDE90024022204F097
:102E1400D9FA02B010BD00BF0D17000010B5064C62
:102E240082B0002300F58061CDE90024032204F080
:102E3400C9FA02B010BD00BF610D000010B5064C08
:102E440082B0002300F20C41CDE90024012204F0F9
:102E5400B9FA02B010BD00BF1D0E000010B5064C3B
:102E640082B0002300F20441CDE90024032204F0DF
:102E7400A9FA02B010BD00BF810D000010B5064CC8
:102E840082B0012300F29C41CDE90024032204F026
:102E940099FA02B010BD00BF6D48000010B50123BF
:102EA40082B0054C00F59461CDE900241A4604F083
:102EB40089FA02B010BD00BFF517000010B5064C2A
:102EC40082B0002300F29C41CDE90024032204F0E7
:102ED40079FA02B010BD00BF6D48000010B5064C71
:102EE40082B0012300F5B761CDE90024032204F088
:102EF40069FA02B010BD00BFE91C000010B513460A
:102F040084B000220849044603930091114604F05A
:102F1400BBFA002205492046039B0091114604F0A8
:102F2400B3FA04B010BD00BFD13800007511000021
:102F340030B50A4985B013460446009100220121A8
:102F4400074D039304F0A0FA039B002201212046BD
:102F5400009504F099FA05B030BD00BF050B0000E0
:102F6400250B000010B5134684B000220C4904461A
:102F740003930091114604F087FA00220949204680
:102F8400039B0091114604F07FFA00220649204673
:102F9400039B0091114604F077FA04B010BD00BF02
:102FA400B11F000099490000D53D000010B513463B
:102FB40084B000220C49044603930091114604F0A6
:102FC40063FA002209492046039B0091114604F04C
:102FD4005BFA002206492046039B0091114604F047
:102FE40053FA04B010BD00BFB9500000953E000074
:102FF400B51F000010B5134684B0002208490446EA
:1030040003930091114604F03FFA0022054920463B
:10301400039B0091114604F037FA04B010BD00BFC1
:1030240009430000A513000030B50A4985B01346D2
:103034000446009100220121074D039304F024FA71
:10304400039B002201212046009504F01DFA05B0DF
:1030540030BD00BFBD0D0000DD0D000010B5054CF6
:1030640082B0134600F5DE710222009404F07EFA69
:1030740002B010BD7110000010B5054C82B01346AB
:1030840000F541710222009404F070FA02B010BD00
:103094002145000010B5054C82B0134600F5577168
:1030A4000222009404F062FA02B010BDA1120000E2
:1030B40030B500F5DE7585B0044611462846039206
:1030C40004F0E0FA094A039B294620460092084D81
:1030D400002204F04BFA039B002204F5FA71204607
:1030E400009504F04BFD05B030BD00BF7110000029
:1030F400E514000010B5054C82B0134600F50B71C1
:103104000022009404F03AFD02B010BDD11000007A
:1031140070B5002382B015460E491A460446019143
:1031240000F51771009504F04DF900230A4804F5E1
:103134001A711A46094ECDE90050204604F042F9AE
:103144002B46002204F51C712046009604F016FD5F
:1031540002B070BD3D110000911100007515000012
:1031640010B5054C82B0134600F5FA7101220094A3
:1031740004F004FD02B010BDE514000010B5054CC8
:1031840082B0134600F50B710122009404F0F6FCA2
:1031940002B010BDD110000010B5054C82B013462A
:1031A40000F509710122009404F0E8FC02B010BD9E
:1031B400F11F000010B5054C82B0134600F50971EB
:1031C4000022009404F0DAFC02B010BDF11F0000EC
:1031D40010B5054C82B0134600F507710022009427
:1031E40004F0CCFC02B010BD690A000070B50F4BAE
:1031F40082B015460022009304462B46114604F083
:1032040043F900230A4804F51A711A46094ECDE918
:103214000050204604F0D6F82B46012204F50B7129
:103224002046009604F0AAFC02B070BDD938000014
:1032340091110000D110000010B5054C82B0134666
:1032440000F503710022009404F098FC02B010BD54
:10325400F10E000010B5054C82B0134600F5207144
:103264000022009404F08AFC02B010BD850B00001B
:1032740010B5054C82B0134600F51E71002200946F
:1032840004F07CFC02B010BD1512000010B5054C12
:1032940082B0134600F530710122009404F06EFCF4
:1032A40002B010BD993B000010B5054C82B0134626
:1032B40000F533710122009404F060FC02B010BDEB
:1032C4007D44000010B5054C82B0134600F53871FA
:1032D4000122009404F052FC02B010BDE13C000055
:1032E40030B500F5577585B004461146284603925B
:1032F40004F0C8F9094A039B294620460092084D68
:10330400002204F033F9039B002204F56571204682
:10331400009504F033FC05B030BD00BFA1120000DD
:10332400CD16000010B5054C82B0134600F573713C
:103334000022009404F022FC02B010BD011300002E
:1033440070B5002382B015460E491A460446019111
:1033540000F57F71009504F035F800230A4804F560
:1033640081611A46094ECDE90050204604F02AF83E
:103374002B46002204F582612046009604F0FEFBF1
:1033840002B070BD6D130000C11300001D1B0000CE
:1033940010B5054C82B0134600F565710122009406
:1033A40004F0ECFB02B010BDCD16000010B5054CC6
:1033B40082B0134600F573710122009404F0DEFB21
:1033C40002B010BD0113000010B5054C82B01346C5
:1033D40000F571710122009404F0D0FB02B010BD1D
:1033E400D51F000010B5054C82B0134600F571716D
:1033F4000022009404F0C2FB02B010BDD51F0000EF
:1034040010B5054C82B0134600F56F71002200948C
:1034140004F0B4FB02B010BD210D000070B50F4BD9
:1034240082B015460022009304462B46114604F050
:103434002BF800230A4804F581611A46094ECDE9A8
:103444000050204603F0BEFF2B46012204F57371A1
:103454002046009604F092FB02B070BD11430000B8
:10346400C11300000113000010B5054C82B01346CF
:1034740000F56B710022009404F080FB02B010BDD3
:10348400E90F000010B5054C82B0134600F58361C6
:103494000022009404F072FB02B010BDC51C0000B1
:1034A40010B5054C82B0134600F5986100220094D3
:1034B40004F064FB02B010BDD11C000010B5054C33
:1034C40082B0134600F5A7610022009404F056FB75
:1034D40002B010BDDD1C000010B5114682B00023FF
:1034E400054C9FED060A0322CDE90014194603F0AA
:1034F400A1FF02B010BD00BF490A000000007A44D9
:1035040010B5114682B00023054CB7EE000A142210
:10351400CDE90014194603F08DFF02B010BD00BFC1
:103524001D10000030B50C4983B014460023054635
:10353400CDE9002100F51571012203F043FF0023BA
:10354400064911229FED060A2846CDE90041194695
:1035540003F070FF03B030BD0D2000008936000079
:103564000000000010B5114682B00023054C9FED09
:10357400060A0322CDE90014194603F05BFF02B0EA
:1035840010BD00BF2111000000007A4410B511469F
:1035940082B00023054C9FED060A0322CDE90014F6
:1035A400194603F047FF02B010BD00BF890A0000AE
:1035B40000007A4410B5114682B00023054C9FEDFB
:1035C400060A0222CDE90014194603F033FF02B0C3
:1035D40010BD00BF3112000000803B4510B51146FC
:1035E40082B00023054CB7EE000A1522CDE9001481
:1035F400194603F01FFF02B010BD00BFC115000043
:1036040010B5114682B00023054C9FED060A142222
:10361400CDE90014194603F00DFF02B010BD00BF40
:10362400D91A00000000000010B5114682B0002332
:10363400054CB7EE000A0122CDE90014194603F047
:10364400F9FE02B010BD00BF151B000010B51146F5
:1036540082B00023054C9FED060A0322CDE9001435
:10366400194603F0E7FE02B010BD00BF050C0000D0
:1036740000007A4410B5114682B00023054CB7EE21
:10368400000A1422CDE90014194603F0D3FE02B057
:1036940010BD00BF3910000010B5114682B00023E0
:1036A400054C9FED060A0322CDE90014194603F0E8
:1036B400C1FE02B010BD00BF850C000000007A44BA
:1036C40010B5114682B00023054C9FED060A032273
:1036D400CDE90014194603F0ADFE02B010BD00BFE1
:1036E400010D000000007A4410B5114682B0002399
:1036F400054CB7EE000A1422CDE90014194603F074
:1037040099FE02B010BD00BF5510000030B50C4941
:1037140083B0144600230546CDE9002100F57D71F0
:10372400012203F04FFE0023064911229FED060AF1
:103734002846CDE90041194603F07CFE03B030BDB4
:10374400B91F0000C14000000000000010B5114680
:1037540082B00023054C9FED060A0322CDE9001434
:10376400194603F067FE02B010BD00BF51130000FC
:1037740000007A4410B5114682B00023054C9FED39
:10378400060A0322CDE90014194603F053FE02B0E1
:1037940010BD00BF410D000000007A4410B50023A5
:1037A40082B014460549B2EE040A1A46CDE9004136
:1037B400194603F03FFE02B010BD00BF45140000DF
:1037C40010B5114682B00023054C9FED060A022273
:1037D400CDE90014194603F02DFE02B010BD00BF60
:1037E400F51C00000000C84210B5114682B0002349
:1037F400054CB1EE080A0222CDE90014194603F083
:1038040019FE02B010BD00BF011D000010B5114625
:1038140082B00023054C9FED060A0222CDE9001474
:10382400194603F007FE02B010BD00BF0D1D0000D5
:103834000000584210B5114682B00023054CBFEE7B
:10384400000A0222CDE90014194603F0F3FD02B088
:1038540010BD00BF7D0E000010B5114682B00023DC
:10386400054C9FED060A0322CDE90014194603F026
:10387400E1FD02B010BD00BF3D0E000000007A441F
:1038840010B5114682B00023054CB0EE000A0122A7
:10389400CDE90014194603F0CDFD02B010BD00BF00
:1038A400251B000010B5114682B00023054C9FED86
:1038B400060A0222CDE90014194603F0BBFD02B04A
:1038C40010BD00BF191D00000200004B10B51146C9
:1038D40082B00023054CB7EE000A0122CDE90014A2
:1038E400194603F0A7FD02B010BD00BF2D1B000058
:1038F40010B5114682B00023054CB7EE000A012230
:10390400CDE90014194603F095FD02B010BD00BFC7
:10391400351B000010B5114682B00023054C9FED05
:10392400060A0222CDE90014194603F083FD02B011
:1039340010BD00BF251D00000200004B10B511464C
:1039440082B00023054CB7EE000A0122CDE9001431
:10395400194603F06FFD02B010BD00BFB51B000097
:1039640010B5114682B00023054CB7EE000A0122BF
:10397400CDE90014194603F05DFD02B010BD00BF8F
:10398400BD1B000010B5002382B014460549B2EEF9
:10399400040A1A46CDE90041194603F04BFD02B072
:1039A40010BD00BF011C000010B5114682B00023F9
:1039B400054C9FED060A0122CDE90014194603F0D7
:1039C40039FD02B010BD00BFC51B00000000C84295
:1039D40010B5114682B00023054C9FED060A022261
:1039E400CDE90014194603F025FD02B010BD00BF57
:1039F4003D1C00000000404230B5002383B0144653
:103A040010499FED110A02220191194600940546BE
:103A140003F010FD00230D48022219469FED0C0A05
:103A2400CDE90040284603F005FD002309490222A0
:103A34009FED090A2846CDE90041194603F0FAFC36
:103A440003B030BD5D1700000000C84361140000DE
:103A5400000048427D1400000000C84230B5094B04
:103A640083B01546044600F53F71009300222B46AF
:103A740004F084F82A460021204603B0BDE8304013
:103A8400FFF7BABF9D1F000030B5002383B0144672
:103A94000B499FED0C0A0222019119460094054638
:103AA40003F0C8FC0023084902229FED080A2846B7
:103AB400CDE90041194603F0BDFC03B030BD00BFA1
:103AC4003D1B000000004842451900000000484327
:103AD40030B5002385B00D4914469FED0D0A054607
:103AE40001911946009202228DED030A03F0A2FC13
:103AF400002308499DED030A02222846CDE900412E
:103B0400194603F097FC05B030BD00BF791B0000D7
:103B1400000048436919000030B5002383B01546FE
:103B240009490446B7EE000A01910122194600959D
:103B340003F080FC2A4604F52871204603B0BDE852
:103B4400304004F061BE00BF0D1B000000F524717D
:103B540004F05ABE00F52F7104F056BE00F58561DD
:103B640004F052BE00F2BC4104F04EBE00F59E616A
:103B740004F04ABE00F5A36104F046BE30B50D4B17
:103B840083B01546044600F2F441009300222B460C
:103B940003F0F4FF2A4604F5A561204604F034FE40
:103BA4002A4604F5A661204603B0BDE8304004F07F
:103BB4002BBE00BFA11F000030B50D4B83B01546CE
:103BC400044600F2FC41009300222B4603F0D6FF8A
:103BD4002A4604F22C51204604F016FE2A4604F22A
:103BE4003451204603B0BDE8304004F00DBE00BFA0
:103BF400A51F000000F5AD6104F006BE00F5B2613A
:103C040004F002BE30B50D4B83B01546044600F2F5
:103C14006C51009300222B4603F0B0FF2A4604F2B5
:103C2400AC51204604F0F0FD2A4604F2B45120467B
:103C340003B0BDE8304004F0E7BD00BFA91F000099
:103C440030B50D4B83B01546044600F27451009311
:103C540000222B4603F092FF2A4604F5B561204664
:103C640004F0D2FD2A4604F5B661204603B0BDE84F
:103C7400304004F0C9BD00BFAD1F000000F5BB61BA
:103C840004F0C2BD10B5054C82B0134600F53B717B
:103C94000122009403F00EFD02B010BDF51D0000DA
:103CA40030B5144B83B0154600F5367100930022ED
:103CB4002B46044603F062FF0F49204600231322DB
:103CC400CDE9005104F53C7103F07CFB0B492B4614
:103CD40020460091002204F53B7103F0EBFC002226
:103CE40007492B4620460091114603F0CDFB03B053
:103CF40030BD00BF951F0000451C0000F51D0000ED
:103D0400A1460000134600F5CE71002204F0A4BCC5
:103D1400134600F19401002204F09EBC134600F502
:103D2400A471002204F098BC134600F1F0010022B3
:103D340004F092BC014B132103F044BE611C00004B
:103D4400014B132103F03EBE1D1A0000014B132149
:103D540003F038BEA1280000014B132103F032BE4A
:103D6400714B0000014B132103F02CBE254F0000C2
:103D740008B5034A7321034B034813F0A5FB00BFA6
:103D84003C120020F8110020C0110020012914D891
:103D940013460A49002230B585B00446084D009107
:103DA4001146039303F070FB039B0022012120467C
:103DB400009503F069FB05B030BD7047253900005C
:103DC400AD11000001B17047F0B50A4B83B006464F
:103DD4000C4615460093084F13460A46012103F08A
:103DE40053FB2B46224601213046009703F04CFB3F
:103DF40003B0F0BD050B0000250B000001B17047B6
:103E0400F0B50A4B83B006460C4615460093084F9E
:103E140013460A46012103F037FB2B4622460121B3
:103E24003046009703F030FB03B0F0BD5911000099
:103E3400450B000001B1704710B5044C82B0134625
:103E44000A46009403F020FB02B010BDF9450000BF
:103E5400012914D813460A49002230B585B0044616
:103E6400084D00911146039303F00EFB039B0022BF
:103E740001212046009503F007FB05B030BD7047D3
:103E84005D430000DD13000001B17047F0B50A4B3B
:103E940083B006460C4615460093084F13460A465F
:103EA400012103F0F1FA2B46224601213046009706
:103EB40003F0EAFA03B0F0BDBD0D0000DD0D000013
:103EC40001B17047F0B50A4B83B006460C4615465F
:103ED4000093084F13460A46012103F0D5FA2B46F6
:103EE400224601213046009703F0CEFA03B0F0BD1C
:103EF40089130000FD0D000001B1704710B5054C99
:103F040082B0134600F586610122009403F0FAFBA7
:103F140002B010BD8117000001B1704710B5054C07
:103F240082B0134600F588610122009403F0EAFB95
:103F340002B010BDA917000001B1704710B5054CBF
:103F440082B0134600F58A610122009403F0DAFB83
:103F540002B010BDCD17000001B1704710B5054C7B
:103F640082B0134600F2CC410122009403F0CAFB54
:103F740002B010BD6518000001B1704710B5054CC2
:103F840082B0134600F244510122009403F0BAFBBC
:103F940002B010BDD518000001B17047F0B583B070
:103FA40005460C46164613460091022200F1E8012C
:103FB400064F04F0C3FB3346224605F590612846BC
:103FC400009703F0DBFD03B0F0BD00BF054800001F
:103FD400704700BF704700BF704700BF704700BF05
:103FE400704700BF704700BF704700BF704700BFF5
:103FF400704700BF704700BF10B5054C82B0134630
:1040040000F565710122009403F0B8FD02B010BD03
:10401400CD16000010B5054C82B0134600F573713F
:104024000022009403F0AAFD02B010BD01130000A9
:1040340010B5054C82B0134600F50B7100220094B4
:1040440003F09CFD02B010BDD110000010B5054C6A
:1040540082B0134600F5FA710122009403F08EFD3C
:1040640002B010BDE514000010B50C4B044600F579
:10407400D470236004F026FC04F54F7004F022FC95
:1040840004F2C45004F01EFC2046FEF7D7FB204681
:104094004FF4BC610EF066FF204610BDB41400203E
:1040A40030B5002183B005461046144603F0DCFF0A
:1040B4001B4B01462046C91AB1FA81F1490903F0A4
:1040C400D3FF184B984221D0174923462846002293
:1040D4000091012103F0D8F91449234628460091A0
:1040E4000022012103F0D0F911492346284600910A
:1040F4000022012103F0C8F900220E492346284674
:104104000091114603F0C0F903B030BD0A49002202
:10411400234628460091114603F0B6F9D4E700BFC0
:104124006E0ED60600603B45911F000091190000F9
:104134009D0E000009510000B15000002DE9F04F20
:104144002DED068B85B04FF000080446174600F1AC
:104154005C06019314E003A93046CDF80C8003F00B
:1041640073FE039B0246132B40F278832368204698
:1041740052F8041BD3F890309847304603F06AFE97
:10418400304603F007FE0028E5D123680546E449DC
:1041940020469B6D9847019B2669002B40F356836C
:1041A40033449FEDE09ADFEDE08A04F5A56B9FEDC3
:1041B400DF8A04F22C5A9FEDDEAA04F59E69DFED36
:1041C400DDAADFEDDD9AA0690093013678B104F130
:1041D4001808826813689E4209D9D0E90331204641
:1041E4009847404604F0B4F9A0690028F1D1D4F806
:1041F400D82444F2A713B7EE006AD4ED284A03FB8F
:1042040002F2D4F88830F6EE005A07EE902AC4F889
:10421400D824D4F88C20B5EE007AF8EEE76A1A4474
:104224005B0A43F07E53C4F88820D4F8942066EEE9
:104234008A6A07EE903A530A77EEC67A43F07E53C1
:1042440077EEE57AF0EEE77A77EEC77A67EE897A69
:1042540067EEA75A25EEA77AE7EE287A27EE257AA5
:1042640005EE903AD4F8983035EEC65A1344E7EE8A
:10427400087A84ED285AF4EEC54AC4F89430F1EE75
:1042840010FAE6EEAA7AF0EEE77A40F3CD82B0EEC9
:10429400673AC4ED297ADBED003AB7EE004ADAED6D
:1042A400005AB6EE007AD4F8A810F5EE004AE3EE10
:1042B400235AD4ED2C6A4B0A25EE296A99ED003A6B
:1042C40043F07E53DFEDA03A86FE436AD4F8B4206F
:1042D40086FE236ABDEEC66A65EEA65A06EE903ADD
:1042E40076EEC46AFDEEE55A76EEC76A15EE903AAC
:1042F400F0EEE66A0B44D168C4F8A83016EE103A22
:1043040076EEE46A1268994266EE896A26EEA64A57
:1043140064EE264AE4EEA86A64EE844AE4EE886A0F
:1043240040F2968235EE077A94ED316A02EB83030C
:10433400FBFE475A37EE657A93ED005AB4EEC76A2E
:1043440084ED317AF1EE10FA00F37182D4ED325A31
:10435400D4F8CC1004F23453B7EE003A04F5A66254
:1043640093ED006A4B0A67EE297A92ED002A43F036
:104374007E53F6EE004AB5EE004AD4ED352A07EE38
:10438400103AA5EE826A04F5A363DFED6F3A37EEC7
:10439400437AD4F8D82037EE647A26EE226AB0EE57
:1043A400C77ABDEEC66A37EE447A27EE097A27EE5D
:1043B400074A64EE075AA5EEA87A65EE845AA5EE7C
:1043C400887AD3ED005A16EE103AC7FEE57AC7FE96
:1043D400A37AFDEEE77A0B44D168C4F8CC3017EE2B
:1043E400903A1268994240F2338202EB8302D4F885
:1043F400EC30D2ED007A5A1C27EE277AA6EE857AA5
:1044040027EE247A0DD0D4F8E820DFED4C7A126838
:1044140067EE277A02EB83020133C2ED007AC4F817
:10442400EC30D4F8F030B7EE005AD4F8F42004F5A8
:10443400BB61DFED455A1A445B0A91ED006A43F013
:104444007E53C4F8F02004F2BC4207EE903AD4F84C
:10445400FC30D2ED006A77EEC57AD3F80CC01A6846
:1044640067EE867AC7FEE67AC7FEA57ABBFE674A80
:10447400FDEEC46A16EE901A4B1C9C4540F2E8818E
:1044840002EB83029B00D2ED006AD4F80C21D2F82F
:104494000CC012688C4540F2DB811A44D4F81C31FC
:1044A40077EEC47A94EDAF4A12ED016AF6EE003A63
:1044B400D4F82021F5EE004A76EEC66AD4F8281125
:1044C4001A445B0A43F07E53A6EEA76AC4F81C2183
:1044D40007EE903A0A68C96877EEC57A36EE076A3D
:1044E40077EEE37A66EE296AF0EEE77AC6FEC46AEE
:1044F400C6FEA56A77EEE47AFDEEE66A67EE897A8F
:1045040016EE903A27EEA74A994264EE275AE5EE52
:10451400A87A65EE845AE5EE887A40F2998117E02C
:10452400EBC021DDDB0FC940ABAA2ABE6257003CB9
:10453400F6FFFF2FCDCC4C3D000080433333333F97
:104544009A99993ECDCC4C3E00000000CDCCCC3D98
:1045540002EB8303D4F8502594ED4E3AD3ED002AB0
:1045640044F2A713D4EDA45A03FB02F267EEA27A35
:10457400D4F83C3165EEC35AC4F8502503EE102A32
:10458400D4F840211FED124AB8EEC33A1A445B0A2C
:1045940067EE847AD4EDA86A43F07E53D4F84811C8
:1045A40023EE0A3A94ED552AE6EEA75A07EE903A1E
:1045B4004B0A5FED1A2A77EEC57AC4F83C2143F022
:1045C4007E5377EEE37A06EE903AD4F84C3136EE29
:1045D400C54AC4ED4E5AF0EEE77A0B44B4EEC42A51
:1045E40084ED554A77EEE47AC4F84831F1EE10FAD6
:1045F40067EE897A27EEA75A65EE276AE6EEA87A6F
:1046040066EE856AE6EE887AE3EE227AF0EEE77AE1
:1046140000F31481D4ED566A04F5B56204F2AC5388
:10462400D4F85C1164EE294A92ED001AF7EE002AE0
:10463400D3ED003A04F5B263B6EE003A94ED592A8C
:10464400E6EE813AD3ED006A4B0AB5EE005AC4FE99
:10465400E64A5FED431A43F07E53D4F86821C4FE62
:10466400A14A06EE903A63EE823A76EEE26A76EE7C
:10467400C36AF0EEE66A76EEC56A66EE896A26EEED
:10468400A63A23EE265AE5EE286A25EE033AE3EE2F
:10469400086AB0EE665AFDEEE36A16EE903AFDEE55
:1046A400E46A0B44D1681268C4F85C3116EE903A9F
:1046B400994240F2CD805FED5D6A02EB8302D4ED56
:1046C4005E4A74EE266A92ED003ABBFE664A76EEC6
:1046D400C46AF4EEE64AC4ED5E6AF1EE10FA00F341
:1046E400B280D4ED5F7AD4F8801104F2B45304F5A7
:1046F400B662F7EE002A93ED002A4B0A92ED001AF7
:10470400F6EE004A43F07E53F5EE003AA7EE812A16
:10471400D4ED621A07EE903A04F5AD6366EEA96A29
:104724001FED774A77EEE27AD4F88C2177EEE47ABB
:1047340022EE212AF0EEE77ABDEEC22A77EEE37A82
:1047440067EE897A27EEA71A61EE271AE1EEA87AB6
:1047540061EE811AE1EE887AD3ED001A12EE103A76
:10476400C6FEE16AC6FE846AFDEEE66A0B44D168C1
:10477400C4F8803116EE903A1268994268D902EB77
:104784008302D4F89C311FED8F2AD2ED006AD4F84D
:10479400A02167EEA66A1A445B0A43F07E53E5EE55
:1047A400036AC4F89C2104F5856207EE903A92ED01
:1047B400003A77EEE27AA6EEA46A77EEE47AD7E9D5
:1047C4000023F0EEE77A2B442A44043577EEE37AAB
:1047D40067EE897A67EEA73A23EEA75AE5EE287AC0
:1047E40025EE235AE5EE087A67EE867AE3EE275A39
:1047F400F0EE657A75EE875AB0EE447AE6EEA47A66
:10480400A5EE827AA7EE824A82ED007A83ED004A11
:10481400009B9E427FF4D9AC009B0198236105B0B4
:10482400BDEC068BBDE8F08F94ED293A33E5F2EE4A
:10483400045A67EEA55AC4ED325A89E5F0EE676A68
:10484400C4ED567AE8E6C4ED5F7A4CE70096E3E7F8
:10485400064B4B21064A074812F036FE064B40F63B
:104864003E11064A064812F02FFE00BF500C0020ED
:10487400900C0020C40C0020A40E0020180C002072
:10488400A00B002030B5124B85B0144600F54A71D8
:10489400009300222346054603F070F900230D4AD5
:1048A40028469FED0D0A1946CDE9004202228DEDFE
:1048B400030A02F0BFFD0023084902229DED030A0A
:1048C4002846CDE90041194602F0B4FD05B030BDDB
:1048D400E50B0000791B0000000048436919000043
:1048E40030B5174B83B0144600F53D710093002298
:1048F4002346054603F042F90023124802221946D2
:104904009FED110ACDE90040284602F093FD0023F3
:104914000E48022219469FED0E0ACDE900402846B2
:1049240002F088FD00230B49B2EE080A0222284651
:10493400CDE90041194602F07DFD03B030BD00BF52
:10494400C50B00003D1B0000000048424519000053
:1049540000004843452800002DE9F0470446DFF8ED
:1049640078A3DFF8789304F5D47804F54F7604F24D
:10497400C4552DED048BB0EE409B00AFFDF7F4FE63
:104984002046D04BB0EE491B9FEDCF0A40F8883B40
:1049940003F04AFE63699FEDCD8AB0EE491B0344E0
:1049A40004F19400B0EE480A636103F03DFE6369CC
:1049B400034404F1A000636103F01CFE6369034433
:1049C40004F1A400636103F0A1FE63690246B0EE42
:1049D400490B04F1A8001344636103F011FE6369F9
:1049E400414600221844606104F1B40003F094FECF
:1049F40063691844606104F1C40003F0FBFD63695A
:104A04001844606104F1C80003F080FE6369B0EEED
:104A1400490B1844606104F1CC0003F0F1FD6369B3
:104A2400002231461844606104F1D80003F074FE9A
:104A3400636929461844606104F1E80003F078FED4
:104A44006369B0EE480A1844B0EE491B606104F192
:104A5400F00003F0E9FD636929460022184460610F
:104A640004F1FC0003F058FE63692946002218444F
:104A7400606104F5867003F04FFE6369B0EE480A86
:104A84001844B0EE491B606104F58E7003F0CCFD50
:104A94006369314600221844606104F5947003F0A0
:104AA4003BFE63691844606104F59C7003F028FEC2
:104AB4006369B0EE491B9FED860A1844606104F5F2
:104AC4009E7003F0B1FD6369B0EE491B1844B0EE6B
:104AD400480A606104F5A47003F0A6FD63691844F4
:104AE400606104F5AA7003F085FD63691844606190
:104AF40004F5AC7003F00AFE6369B0EE490B184488
:104B0400606104F5AE7003F07BFD636931460022F9
:104B14001844606104F5B47003F0FEFD6369184441
:104B2400606104F5BC7003F065FD6369184460615D
:104B340004F5BE7003F0EAFD6369B0EE490B184456
:104B4400606104F5C07003F05BFD636941460022B7
:104B54001844606104F5C67003F0DEFD6369B0EECD
:104B6400491B1844B7EE000A606104F5CE7003F0E7
:104B74005BFD636902464FF480714046DFF8608153
:104B84001344544A636103F079FE636904F5DE71EA
:104B9400B0EE480A18446061204602F0D9FC63690B
:104BA400B3EE040A1844606104F5F07002F0D2FF19
:104BB4006369B0EE480A1844606104F5F87002F0C5
:104BC400FBFB6369B0EE480A1844606104F5FA70AF
:104BD40002F0C0FF63694FF0FF32012118446061A5
:104BE40004F5FE7002F0CAFD63694FF0FF32012143
:104BF4001844606104F5017002F0C0FD6369B0EE11
:104C0400480A1844606104F5037002F0A3FF636965
:104C1400B7EE000A1844606104F5057002F09AFFCB
:104C24006369B0EE480A1844606104F5077002F045
:104C340091FF6369B0EE480A1844606104F5097095
:104C440002F088FF6369B0EE480A1844606104F515
:104C54000B7002F07FFF6369012218441146606102
:104C640004F50D7002F08AFD6369012200211844E5
:104C7400606104F50F7002F081FD6369B0EE480ACB
:104C84001844606104F5127002F096FB6369B0EE9B
:104C9400480A1844606104F5137002F08DFB6369DF
:104CA400B0EE480A1844606104F5157002F084FB04
:104CB4006369B0EE480A1844606104F5177002F0A5
:104CC4007BFB11E0B41400200000DC420000000073
:104CD4000000484208380020080D0020140D002070
:104CE400000D00200044AC466369B3EE040A184486
:104CF400606104F5187002F05FFB6369B0EE480A66
:104D04001844606104F5197002F056FB6369B0EE53
:104D1400480A1844606104F51A7002F04DFB636997
:104D2400B0EE480A1844606104F51B7002F044FBBD
:104D34006369B0EE480A1844606104F51C7002F01F
:104D440009FF6369B0EE480A1844606104F51E70F7
:104D540002F000FF63691FED1D0A1844606104F549
:104D6400207002F0F7FE6369B0EE480A18446061EF
:104D740004F5227002F020FB6369F0EE480A00217A
:104D84001844B0EE480A606104F5247003F036FD5F
:104D94006369F0EE480A00211844B0EE480A6061E5
:104DA40004F5287003F02AFD6369CE491844606154
:104DB40004F52A7002F0D6FE6369012218441146F4
:104DC400606104F52C7002F0D9FC6369F0EE480AC6
:104DD40000211844B0EE480A606104F52F7003F016
:104DE4000DFD6369B7EE000A1844606104F5307084
:104DF40002F0B0FE6369B7EE000A1844606104F57E
:104E0400337002F0A7FE6369B0EE480A184460618B
:104E140004F5367002F09EFE6369B7EE000A18448A
:104E2400606104F5387002F095FE6369002118444E
:104E3400606104F53B7002F039FC6369B0EE480A26
:104E44001844606104F53C7002F0B6FA6369B0EE90
:104E5400480A1844606104F53D7002F07BFE636902
:104E6400B0EE480A1844606104F53F7002F072FE27
:104E7400636904F54171B0EE480A18446061204644
:104E840002F066FB63699FED980A1844606104F5BB
:104E94004A7002F05FFE6369B0EE480A184460612C
:104EA40004F54E7002F088FA636902464FF480718B
:104EB400304613448D4A636103F0E0FC6369B0EE4D
:104EC400480A1844606104F5547002F075FA636985
:104ED400B0EE480A1844606104F5557002F06CFAAB
:104EE400636904F55771B0EE480A184460612046BE
:104EF40002F02EFB6369B3EE040A1844606104F502
:104F0400607002F027FE6369B0EE480A18446061DD
:104F140004F5647002F050FA6369B0EE480A18446C
:104F2400606104F5657002F015FE63694FF0FF32AD
:104F340001211844606104F5677002F01FFC636985
:104F44004FF0FF3201211844606104F5697002F0EA
:104F540015FC6369B0EE480A1844606104F56B708F
:104F640002F0F8FD6369B7EE000A1844606104F5C5
:104F74006D7002F0EFFD6369B0EE480A1844606199
:104F840004F56F7002F0E6FD6369B0EE480A184458
:104F9400606104F5717002F0DDFD6369B0EE480AEA
:104FA4001844606104F5737002F0D4FD6369012252
:104FB40018441146606104F5757002F0DFFB636903
:104FC400012200211844606104F5777002F0D6FBD9
:104FD4006369B0EE480A1844606104F57A7002F01F
:104FE400EBF96369B0EE480A1844606104F57B701C
:104FF40002F0E2F96369B0EE480A1844606104F50E
:105004007D7002F0D9F96369B0EE480A1844606112
:1050140004F57F7002F0D0F96369B3EE040A184412
:10502400606104F5806002F0C7F96369B0EE480A74
:105034001844606104F2044002F0BEF96369B0EE02
:10504400480A1844606104F5816002F0B5F96369A7
:10505400B0EE480A1844606104F20C4002F0ACF966
:105064006369B0EE480A1844606104F5826002F096
:1050740071FD6369B0EE480A1844606104F5836009
:1050840002F068FD6369F0EE480A00211844B0EEAE
:10509400480A606104F5856003F0B0FB6369144954
:1050A4001844606104F5866002F024FB6369012200
:1050B40018441146606104F2344002F05FFB6369F6
:1050C4000C491844606104F5886002F013FB6369BD
:1050D400012218441146606104F2444002F04EFB80
:1050E400636909E0000D00200000C8420834002074
:1050F400B508BE10E0A074B8D1491844606104F545
:105104008A6002F0F7FA636901221844114660616B
:1051140004F2544002F032FB6369B0EE480A04F230
:105124005C4118446061204602F012FA63695146FA
:105134001844606104F5906002F014FD6369012273
:1051440018441146606104F5916002F017FB63692D
:10515400012218441146606104F5926002F00EFBCE
:105164006369B0EE480A1844606104F29C4002F09E
:1051740023F96369B0EE480A1844606104F5946049
:1051840002F01AF9636951461844606104F59560A8
:1051940002F0E8FC6369012218441146606104F2DC
:1051A400B44002F0EBFA6369F0EE480A00211844B7
:1051B400B0EE480A606104F2BC4003F01FFB63696F
:1051C400B0EE480A1844606104F5986002F0C2FC2D
:1051D40063699C491844606104F2CC4002F08AFA85
:1051E4006369012218441146606104F59A6002F073
:1051F400C5FA63691844002360611A46194604F528
:105204009B6003F00BFB636949461844606104F238
:10521400DC4002F0A7FC6369012218441146606176
:1052240004F2E44002F0AAFA6369F0EE480A0021AD
:105234001844B0EE480A606104F59E6003F0DEFA9B
:105244006369B0EE480A1844606104F2F44002F065
:1052540081FC6369B0EE480A1844606104F2FC40C2
:1052640002F078FC636941461844606104F204501A
:1052740002F078FC6369012218441146606104F26B
:105284000C5002F07BFA6369F0EE480A00211844DE
:10529400B0EE480A606104F5A36003F0AFFA6369F5
:1052A400F0EE480A00211844B0EE480A606104F5A3
:1052B400A56003F0A3FA6369F0EE480A00211844DC
:1052C400B0EE480A606104F22C5003F097FA636967
:1052D400F0EE480A00211844B0EE480A606104F573
:1052E400A66003F08BFA6369F0EE480A00211844C3
:1052F400B0EE480A606104F2345003F07FFA636947
:10530400B0EE480A1844606104F5A76002F022FC7C
:1053140063694D491844606104F2445002F0EAF9AB
:105324006369012218441146606104F5A96002F022
:1053340025FA63691844002360611A46194604F586
:10534400AA6003F06BFA636949461844606104F289
:10535400545002F007FC636901221844114660614D
:1053640004F25C5002F00AFA6369F0EE480A002184
:105374001844B0EE480A606104F5AD6003F03EFAEB
:105384006369B0EE480A034404F26C50636102F0AE
:10539400E1FB6369B0EE480A034404F274506361AC
:1053A40002F0D8FB63694146034404F27C50636114
:1053B40002F0D8FB6369012218441146606104F2CB
:1053C400845002F0DBF96369F0EE480A00210344DB
:1053D400B0EE480A04F5B260636103F00FFA636942
:1053E400F0EE480A00210344B0EE480A04F5B56023
:1053F400636103F003FA6369F0EE480A0021034491
:10540400B0EE480A04F2AC50636103F0F7F9636943
:10541400F0EE480A00210344B0EE480A04F5B660F1
:10542400636103F0EBF96369F0EE480A0021034479
:10543400B0EE480A04F2B450636103F0DFF905E00A
:105444006D63785368E7A675722EA54163690246B9
:10545400B0EE480A04F5B7601344636101F0ACFF91
:105464006369024642F2107128461344636103F0F3
:10547400E7F96369F0EE480A00210344B0EE480AF4
:1054840004F5BB60636103F0B9F9636984B000217A
:1054940003446846636102F03DFD064B0146002269
:1054A40004F1180003F00AF82046BD46BDEC048B55
:1054B400BDE8F087054D0000B0B582B00121054676
:1054C40002AF84B0126802AC204602F00FFDA3883C
:1054D40083B1E38802200A4A0A490B33E2600022BE
:1054E40020722846E38023460091114602F0C8F951
:1054F400BD46B0BD044B9421044A054811F0E4FFB5
:10550400E00B0020ED090000F811002094120020A7
:10551400C0110020B0B582B00121054602AF84B0AD
:10552400126802AC204602F0E1FCA38883B1E38850
:1055340002200A4A0A490B33E260002220722846FC
:10554400E38023460091114602F09AF9BD46B0BDAE
:10555400044B9421044A054811F0B6FFE00B0020E7
:1055640099140000F811002094120020C0110020AA
:10557400F0B583B00121054602AF84B0126802ACD5
:10558400204602F0B3FCA38893B1E38802210B4ABE
:1055940028460B4E0633217205F5DE71E2600022C7
:1055A400E3802346009601F0E1FF0437BD46F0BDD9
:1055B400044B9421044A054811F086FFD80B0020BF
:1055C40071100000F811002094120020C011002076
:1055D40070B50021054618461C4602F045FD0F4BE8
:1055E40001462046C91AB1FA81F1490902F03CFD8D
:1055F40060B10B4B984209D00A4E0022234628463C
:1056040004961146BDE8704001F03EBF224628468C
:105614000021BDE87040FFF7ABBF00BF6E0ED60699
:105624002D035B7AE935000030B585B000210446CE
:105634000B4D0392FFF79CFF0A492046039B00226F
:10564400009104F5DE7101F091FF039B002204F543
:10565400FA712046009502F091FA05B030BD00BF02
:10566400E51400007110000070B5002105461846CD
:105674001C4602F0F9FC114B01462046C91AB1FA46
:1056840081F1490902F0F0FC18B1B0F17E5F0AD053
:1056940070BD0B4E23460246014604962846BDE8DB
:1056A400704001F0F1BE074E0022234628460496BE
:1056B4001146BDE8704001F0E7BE00BF6E0ED6068D
:1056C400B5100000BD0E00000021134600B583B0E4
:1056D4000A460091FFF7C8FF03B05DF804FB00BF62
:1056E40070B5002182B0054618461C4602F0BCFC89
:1056F400264B01462046C91AB1FA81F1490902F044
:10570400B3FC234B98420ED0224B984211D1224E27
:105714002346002205F5FE712846069602B0BDE830
:10572400704002F031B81D4E2346002205F5017188
:10573400F2E700221A49234628460091114601F057
:10574400A3FE1849234628460091002205F50D7151
:1057540002F01AF81449234628460091002205F560
:105764000F7102F011F800221049234628460091D7
:10577400114601F089FE0E4900222346069128466F
:10578400114602B0BDE8704001F07EBE6E0ED60632
:10579400AB4D003E2D035B7A193900004D1D00000E
:1057A400F9110000851D0000BD1D00005D380000DA
:1057B4006D39000070B5002182B0054618461C46BC
:1057C40002F052FC1A4B01462046C91AB1FA81F183
:1057D400490902F049FC50B9164E024601462346D7
:1057E4002846069602B0BDE8704001F04DBE12494D
:1057F400284600230222114ECDE9004105F513711C
:1058040001F0E0FD0E49284601230322CDE90041C1
:1058140005F5187101F0D6FD2346002205F5F07157
:105824002846069602B0BDE8704002F0A7B900BF52
:105834006E0ED606ED3900004D150000290A000051
:10584400A90A00000021134600B583B00A4600915E
:10585400FFF7B0FF03B05DF804FB00BFB0B582B042
:105864000121054602AF84B0126802AC204602F062
:105874003DFBA3887BB100224FF07E514FF0010C19
:105884002346E1602846114684F808C00092FFF7D9
:105894009FFEBD46B0BDFEF76BFA00BF0021FFF7C7
:1058A400DDBF00BFF0B583B00121054602AF84B06F
:1058B400126802AC204602F019FBA38813B300223D
:1058C40001260021234628462672E16011460092F3
:1058D400FFF77EFE0C49334628460022CDE90041FD
:1058E40005F51A7101F06EFDDFF820C03346002281
:1058F40005F517712846CDE9004C01F063FD043726
:10590400BD46F0BDFEF734FA911100003D110000D0
:105914000021FFF7C7BF00BF0021FFF7C3BF00BFCF
:10592400B0B582B00121054602AF84B0126802AC62
:10593400204602F0DBFAA38863B100220120002193
:10594400234620722846E16011460092FFF740FE8C
:10595400BD46B0BDFEF70CFA012902D80021FFF7BD
:10596400DFBF70470021FFF7DBBF00BFB0B582B0D7
:105974000121054602AF84B0126802AC204602F051
:10598400B5FAA3886BB10122002007492346E060E1
:1059940028462272009105F5037102F0EFF8BD4626
:1059A400B0BDFEF7E5F900BFF10E00000021FFF7DE
:1059B400DDBF00BFF0B583B00121044602AF84B05F
:1059C400126802AE304602F091FAB3881BB3012587
:1059D4001249134A204635720023F16004F513710D
:1059E40001920222009601F0EDFC0E482B460E4D6A
:1059F40004F518710322CDE90060204601F0E2FCB1
:105A04003346002204F5F0712046009502F0B6F802
:105A14000437BD46F0BDFEF7ABF900BF0000A0415E
:105A24004D150000A90A0000290A00000021FFF713
:105A3400C1BF00BFB0B582B00121054602AF84B03A
:105A4400126802AC204602F051FAA38883B1E388BD
:105A540002200A4A0A490B33E260002220722846D7
:105A6400E38023460091114601F00AFFBD46B0BD14
:105A7400044B9421044A054811F026FDE00B002054
:105A8400AD3A0000F811002094120020C01100204B
:105A9400F0B583B002211546064602AF86B01268FF
:105AA40002AC204602F022FAA388B3B10C480121CB
:105AB4002A460023E0602046217202F023FB094DB0
:105AC40000239FED090A032230461946CDE900451B
:105AD40001F0B0FC0437BD46F0BDFEF749F900BF44
:105AE400E40FC940A50B0000000000000021FFF7EF
:105AF400CFBF00BF2DE9F04182B003211546064611
:105B040002AF88B0126802AC204602F0EFF9A38815
:105B14001BB3E3884FF0020813492A460633204694
:105B2400E1600121E380002384F8088002F0EAFAAE
:105B3400A388434511D9E38830460C4A0C49053300
:105B4400E2610022E380234684F818800091114624
:105B540001F096FEBD46BDE8F081064B9421064A4D
:105B6400064811F0B1FC00BFF80B0020000C002027
:105B7400E9150000F811002094120020C011002043
:105B84000021FFF7B7BF00BFF0B583B0022115466F
:105B9400064602AF86B0126802AC204602F0A6F9AF
:105BA40000232A462046194602F0ACFAA388012BAA
:105BB4000DD9002201200749234620743046616133
:105BC40011460092FFF78CFD0437BD46F0BDFEF789
:105BD400CFF800BF00007A4430B5002383B01446E8
:105BE400084905469FED080A01910C2219460094C4
:105BF40001F020FC22460021284603B0BDE83040D5
:105C0400FFF7C2BF4D12000000000000B0B582B023
:105C14000121054602AF84B0126802AC204602F0AE
:105C240065F9A38883B1E38802200A4A0A490B3341
:105C3400E260002220722846E38023460091114648
:105C440001F01EFEBD46B0BD044B9421044A054834
:105C540011F03AFCE00B00200D160000F8110020B2
:105C640094120020C0110020F0B583B00121054634
:105C740002AF84B0126802AC204602F037F9A38860
:105C840093B1E38802210B4A28460B4E0633217256
:105C940005F54171E2600022E3802346009601F09D
:105CA40065FC0437BD46F0BD044B9421044A054805
:105CB40011F00AFCD80B002021450000F811002047
:105CC40094120020C011002070B50021054618462A
:105CD4001C4602F0C9F90F4B01462046C91AB1FA15
:105CE40081F1490902F0C0F960B10B4B984209D027
:105CF4000A4E00222346284604961146BDE8704009
:105D040001F0C2BB224628460021BDE87040FFF7DF
:105D1400ABBF00BF6E0ED6062D035B7A5D45000057
:105D240030B5002383B0144609499FED0A0A0C22BA
:105D3400019119460094054601F07CFB002223469C
:105D4400284611460092FFF7BFFF03B030BD00BFE5
:105D5400851200000000000070B5002105461846B9
:105D64001C4602F081F9114B01462046C91AB1FACA
:105D740081F1490902F078F960B1B0F17E5F13D185
:105D84000B4E00222346284604961146BDE8704077
:105D940001F07ABB074E2346024601460496284684
:105DA400BDE8704001F070BB70BD00BF6E0ED6063A
:105DB400250F00006D0F0000B0B582B0012105462B
:105DC40002AF84B0126802AC204602F08FF8A388B8
:105DD40083B1E38802200A4A0A490C33E2600022B4
:105DE40020722846E38023460091114601F048FDC5
:105DF400BD46B0BD044B9421044A054811F064FB30
:105E0400EC0B0020250C0000F81100209412002057
:105E1400C01100200021FFF7CFBF00BFB0B582B092
:105E24000121054602AF84B0126802AC204602F09C
:105E34005DF8A38883B1E38802200A4A0A490C3337
:105E4400E260002220722846E38023460091114636
:105E540001F016FDBD46B0BD044B9421044A05482B
:105E640011F032FBEC0B0020650C0000F81100204F
:105E740094120020C0110020B0B582B00121054663
:105E840002AF84B0126802AC204602F02FF8A38857
:105E940083B1E38802200A4A0A490B33E2600022F4
:105EA40020722846E38023460091114601F0E8FC65
:105EB400BD46B0BD044B9421044A054811F004FBCF
:105EC400E00B002059160000F81100209412002065
:105ED400C011002038B5044615460021FFF7CCFF59
:105EE4002A4620460021BDE83840FFF797BF00BF8F
:105EF400B0B582B00121054602AF84B0126802AC8D
:105F0400204601F0F3FFA38883B1E38802200A4A04
:105F14000A490B33E260002220722846E3802346BC
:105F24000091114601F0ACFCBD46B0BD044B942178
:105F3400044A054811F0C8FAE00B0020A50C000043
:105F4400F811002094120020C0110020B0B582B0D6
:105F54000121054602AF84B0126802AC204601F06C
:105F6400C5FFA38883B1E38802200A4A0A490B3398
:105F7400E260002220722846E38023460091114605
:105F840001F07EFCBD46B0BD044B9421044A054893
:105F940011F09AFAE00B002081160000F81100209D
:105FA40094120020C0110020F0B583B001210546F1
:105FB40002AF84B0126802AC204601F097FFA388B8
:105FC40093B1E38802210B4A28460B4E0633217213
:105FD40005F55771E2600022E3802346009601F044
:105FE400C5FA0437BD46F0BD044B9421044A054864
:105FF40011F06AFAD80B0020A1120000F811002059
:1060040094120020C011002070B5002105461846E6
:106014001C4602F029F80F4B01462046C91AB1FA72
:1060240081F1490902F020F860B10B4B984209D084
:106034000A4E00222346284604961146BDE87040C5
:1060440001F022BA224628460021BDE87040FFF73D
:10605400ABBF00BF6E0ED6062D035B7A2140000055
:1060640030B585B0002104460B4D0392FFF79CFF29
:106074000A492046039B0022009104F5577101F060
:1060840075FA039B002204F565712046009501F022
:1060940075FD05B030BD00BFCD160000A112000093
:1060A40070B50021054618461C4601F0DDFF114B72
:1060B40001462046C91AB1FA81F1490901F0D4FF19
:1060C40018B1B0F17E5F0AD070BD0B4E2346024674
:1060D400014604962846BDE8704001F0D5B9074E44
:1060E40000222346284604961146BDE8704001F07C
:1060F400CBB900BF6E0ED606E5120000B50F000046
:106104000021134600B583B00A460091FFF7C8FF8B
:1061140003B05DF804FB00BF70B5002182B00546F2
:1061240018461C4601F0A0FF264B01462046C91A1A
:10613400B1FA81F1490901F097FF234B98420ED03F
:10614400224B984211D1224E2346002205F5677155
:106154002846069602B0BDE8704001F015BB1D4EFE
:106164002346002205F56971F2E700221A49234605
:1061740028460091114601F087F91849234628461C
:106184000091002205F5757101F0FEFA14492346C9
:1061940028460091002205F5777101F0F5FA0022F6
:1061A4001049234628460091114601F06DF90E4925
:1061B4000022234606912846114602B0BDE87040ED
:1061C40001F062B96E0ED606AB4D003E2D035B7A2C
:1061D40051430000111E000029140000491E000054
:1061E400811E000095420000A543000070B5002107
:1061F40082B0054618461C4601F036FF1A4B01468C
:106204002046C91AB1FA81F1490901F02DFF50B9AC
:10621400164E0246014623462846069602B0BDE8BD
:10622400704001F031B91249284600230222114E70
:10623400CDE9004105F57B7101F0C4F80E4928460B
:1062440001230322CDE9004105F5806101F0BAF88C
:106254002346002205F560712846069602B0BDE883
:10626400704001F08BBC00BF6E0ED60625440000C2
:1062740035170000E10C0000610D000000211346F9
:1062840000B583B00A460091FFF7B0FF03B05DF894
:1062940004FB00BFB0B582B00121054602AF84B053
:1062A400126802AC204601F021FEA3887BB10022D3
:1062B4004FF07E514FF0010C2346E1602846114611
:1062C40084F808C00092FFF79FFEBD46B0BDFDF7FD
:1062D4004FFD00BF0021FFF7DDBF00BFF0B583B065
:1062E4000121054602AF84B0126802AC204601F0D9
:1062F400FDFDA38813B3002201260021234628466E
:106304002672E16011460092FFF77EFE0C49334687
:1063140028460022CDE9004105F5816101F052F8DB
:10632400DFF820C03346002205F57F712846CDE909
:10633400004C01F047F80437BD46F0BDFDF718FDE9
:10634400C11300006D1300000021FFF7C7BF00BF99
:106354000021FFF7C3BF00BFB0B582B001210546DD
:1063640002AF84B0126802AC204601F0BFFDA388DE
:1063740063B1002201200021234620722846E160F7
:1063840011460092FFF740FEBD46B0BDFDF7F0FC9C
:10639400012902D80021FFF7DFBF70470021FFF772
:1063A400DBBF00BFB0B582B00121054602AF84B0A7
:1063B400126802AC204601F099FDA3886BB101225A
:1063C400002007492346E06028462272009105F523
:1063D4006B7101F0D3FBBD46B0BDFDF7C9FC00BF36
:1063E400E90F00000021FFF7DDBF00BFF0B583B067
:1063F4000121044602AF84B0126802AE304601F0B7
:1064040075FDB3881BB301251249134A2046357222
:106414000023F16004F57B7101920222009600F0E2
:10642400D1FF0E482B460E4D04F580610322CDE9C1
:106434000060204600F0C6FF3346002204F5607178
:106444002046009501F09AFB0437BD46F0BDFDF7E8
:106454008FFC00BF0000A04135170000610D000053
:10646400E10C00000021FFF7C1BF00BFF0B583B00D
:1064740002211546064602AF86B0126802AC2046D9
:1064840001F034FD00232A462046194601F03AFE65
:10649400A388012B0DD9002201200749234620742B
:1064A4003046616111460092FFF736FE0437BD465F
:1064B400F0BDFDF75DFC00BF00007A4430B5002359
:1064C40083B014460B4905469FED0B0A01910C223B
:1064D4001946009400F0AEFF224628460021FFF73B
:1064E400C5FF00222346284611460092FFF734FCDC
:1064F40003B030BD691200000000000070B5002137
:10650400054618461C4601F0AFFD114B01462046D6
:10651400C91AB1FA81F1490901F0A6FD0D4B98425F
:106524000AD00D4E234605F58661284604960022BE
:10653400BDE8704001F0E6B8084E234605F2344148
:10654400284604960022BDE8704001F01DB900BF42
:106554006E0ED60601BD647E81170000B91E0000D0
:1065640030B500F5417585B00446114628460392BE
:1065740001F088F8084A039B29462046009200222D
:1065840000F0F4FF0022039B204611460092FFF71F
:10659400B5FF05B030BD00BF2145000010B584B083
:1065A400002104460392FFF75FFB09492046039B41
:1065B4000022009104F5417100F0D8FF0022039BF2
:1065C400204611460092FFF799FF04B010BD00BFAA
:1065D4002145000070B50021054618461C4601F00F
:1065E40043FD114B01462046C91AB1FA81F149090C
:1065F40001F03AFD0D4B98420AD00D4E234605F5A5
:106604008861284604960022BDE8704001F07AB8FB
:10661400084E234605F24441284604960022BDE86C
:10662400704001F0B1B800BF6E0ED60601BD647EA5
:10663400A9170000D91E000010B5134684B000222B
:106644000C49044603930091114600F01DFF0A49CA
:10665400039B20460091002204F5337101F08EFA69
:106664000022039B204611460092FFF7B3FF04B0BB
:1066740010BD00BF991F00007D44000070B50021CB
:10668400054618461C4601F0EFFC114B0146204616
:10669400C91AB1FA81F1490901F0E6FC0D4B98429F
:1066A4000AD00D4E234605F58A6128460496002239
:1066B400BDE8704001F026B8084E234605F2544167
:1066C400284604960022BDE8704001F05DB800BF82
:1066D4006E0ED60601BD647ECD170000F91E0000C3
:1066E40070B5002584B00446134629460392074E2C
:1066F4002A460095FFF7C2FF039B2A4604F5307132
:106704002046009601F03AFA04B070BD993B0000AF
:106714002DE9F04182B00121054602AF84B0126830
:1067240002AC204601F0E2FBA388E3B101264FF05E
:1067340000080022234605F1E8012846E2603246BB
:106744002672CDF8008001F0F9FFDFF820C043463F
:10675400324605F594612846CDE9004C00F032FE3E
:10676400BD46BDE8F081FDF703FB00BFF51700004F
:1067740070B50C4682B039B1012918D1002102B09C
:10678400BDE87040FFF7C4BF1346164600910122CE
:1067940000F1E801054601F0D1FF06492346012234
:1067A4002846CDE9006105F5946100F00BFE02B0C6
:1067B40070BD00BFF51700002DE9F04182B0032140
:1067C4001546064602AF88B0126802AC204601F0B6
:1067D4008DFBA3881BB3E3884FF0020813492A46B4
:1067E40006332046E1600121E380002384F8088019
:1067F40001F088FCA388434511D9E38830460C4A4C
:106804000C490533E2610022E380234684F81880B2
:106814000091114601F034F8BD46BDE8F081064B05
:106824009421064A064810F04FFE00BFF80B0020E2
:10683400000C00205D0E0000F811002094120020CE
:10684400C01100200021FFF7B7BF00BFF0B583B02F
:106854000121054602AF84B0126802AC204601F063
:1068640045FBA38893B1E38802210B4A28460B4ECB
:106874000633217205F25C41E2600022E380234684
:10688400009600F073FE0437BD46F0BD044B94211E
:10689400044A054810F018FED80B0020B149000046
:1068A400F811002094120020C011002030B50446D5
:1068B40085B00C4D00210292FFF7C8FF029B04F241
:1068C4005C412046012200950393029100F04EFEA4
:1068D400039B002202992046009500F047FE05B074
:1068E40030BD00BFB1490000F0B583B001210546B9
:1068F40002AF84B0126802AC204601F0F7FAA38814
:1069040093B1E38802210B4A002605332172E26029
:1069140005F1E801E380012223462846009601F0B0
:106924000DFF0437BD46F0BD034B9421034A0448D0
:1069340010F0CAFD080C0020F81100209412002069
:10694400C011002070B50021054618461C4601F010
:106954008BFB1B4B01462046C91AB1FA81F1490948
:1069640001F082FB174B98420CD0174B98421FD072
:10697400164B984211D0224628460021BDE87040AB
:10698400FFF7C6BE124E234605F5926128460496CB
:106994000022BDE8704000F0F7BE0E4E234605F518
:1069A4009161284604960022BDE8704000F0ECBED8
:1069B400224628460021BDE87040FFF795BF00BF7E
:1069C4006E0ED606B47CF56F2D035B7AAB4D003E9C
:1069D40031470000591F00000021134600B583B061
:1069E4000A460091FFF7AEFF03B05DF804FB00BF59
:1069F40010B5044682B0114600F25C40019200F0EA
:106A040041FE019A0021204602B0BDE81040FFF784
:106A14006BBF00BFB0B582B00121054602AF84B0A0
:106A2400126802AC204601F061FAA38883B1E388BE
:106A340002200A4A0A490B33E260002220722846E7
:106A4400E38023460091114600F01AFFBD46B0BD15
:106A5400044B9421044A054810F036FDE00B002055
:106A640019180000F811002094120020C011002011
:106A74002DE9F04182B003211546064602AF88B0E5
:106A8400126802AC204601F031FAA3881BB3E388F4
:106A94004FF0020813492A4606332046E1600121DB
:106AA400E380002384F8088001F02CFBA38843458D
:106AB40011D9E38830460C4A0C490533E2610022BF
:106AC400E380234684F818800091114600F0D8FE34
:106AD400BD46BDE8F081064B9421064A064810F0F5
:106AE400F3FC00BFF80B0020000C0020411800004C
:106AF400F811002094120020C01100200021FFF79B
:106B0400B7BF00BF70B50021054618461C4601F00A
:106B1400ABFA114B01462046C91AB1FA81F1490971
:106B240001F0A2FA0D4B98420AD00D4E234605F20D
:106B3400CC41284604960022BDE8704000F0E2BD36
:106B4400084E234605F59A61284604960022BDE8BE
:106B5400704000F019BE00BF6E0ED60601BD647E03
:106B640065180000191F0000F8B500AF86B00221B7
:106B740015466C4612680646204601F0B7F9002314
:106B84002A462046194601F0BDFAA388012B0CD9E8
:106B94004FF07E530125224606F59B61304625744D
:106BA400636101F03FFEBD46F8BDFDF7E1F800BFAB
:106BB4000021FFF7D9BF00BF2DE9F04182B00321C6
:106BC4001546064602AF88B0126802AC204601F0B2
:106BD4008DF9A3881BB3E3884FF0020813492A46B2
:106BE40006332046E1600121E380002384F8088015
:106BF40001F088FAA388434511D9E38830460C4A4A
:106C04000C490533E2610022E380234684F81880AE
:106C14000091114600F034FEBD46BDE8F081064BFC
:106C24009421064A064810F04FFC00BFF80B0020E0
:106C3400000C00208D180000F81100209412002090
