:0200000460009A
:100000004643464200000156000000000103030081
:1000100000000000000000000000000000000000E0
:1000200000000000000000000000000000000000D0
:1000300000000000000000000000000000000000C0
:1000400000000000010408000000000000000000A3
:100050000000200000000000000000000000000080
:100060000000000000000000000000000000000090
:100070000000000000000000000000000000000080
:10008000EB04180A063204260000000000000000FD
:10009000050404240000000000000000000000002F
:1000A0000000000000000000000000000000000050
:1000B0000604000000000000000000000000000036
:1000C0000000000000000000000000000000000030
:1000D00020041808000000000000000000000000DC
:1000E0000000000000000000000000000000000010
:1000F0000000000000000000000000000000000000
:10010000D8041808000000000000000000000000F3
:100110000204180804200000000000000000000095
:1001200000000000000000000000000000000000CF
:10013000600400000000000000000000000000005B
:1001400000000000000000000000000000000000AF
:10015000000000000000000000000000000000009F
:10016000000000000000000000000000000000008F
:10017000000000000000000000000000000000007F
:10018000000000000000000000000000000000006F
:10019000000000000000000000000000000000005F
:1001A000000000000000000000000000000000004F
:1001B000000000000000000000000000000000003F
:1001C000000100000010000001000000000000001D
:1001D000000001000000000000000000000000001E
:1001E000000000000000000000000000000000000F
:1001F00000000000000000000000000000000000FF
:10020000FFFFFFFFFFFFFFFFFFFFFFFFFFFFFFFFFE
:10021000FFFFFFFFFFFFFFFFFFFFFFFFFFFFFFFFEE
:10100000D1002043491600600000000000000000ED
:10101000201000600010006000F801600000000077
:10102000000000600004020000000000FFFFFFFF5E
:10103000FFFFFFFFFFFFFFFFFFFFFFFFFFFFFFFFC0
:10104000FFFFFFFFFFFFFFFFFFFFFFFFFFFFFFFFB0
:10105000FFFFFFFFFFFFFFFFFFFFFFFFFFFFFFFFA0
:10106000FFFFFFFFFFFFFFFFFFFFFFFFFFFFFFFF90
:10140000814205D051F8043B40F8043B8242F9D8B0
:10141000704700BF044A05494FF0000342F8043BFF
:101420009142FBD8704700BFC04200200056002008
:101430002DE98848BFF34F8F00BF00BF00BF00BF3A
:1014400000F07AFA674B0822C3F8542100BF00BFAE
:1014500000BF00BF00BF00BF00BF00BF00BF00BF94
:1014600000BF00BF00BF00BF00BF00BF5E4A5F49B2
:101470005F48FFF7C5FF5F4A5F496048FFF7C0FF5D
:101480005F4CFFF7C7FF4FF470004FF0E0210023DF
:101490005C4AC1F8880D44F823200133B02BFAD1FF
:1014A000594B8021594A03F8011B9342FBD14FF05D
:1014B000E0254C4E4FF08039DFF880B1DFF880A195
:1014C0004FF0FF31C5F8084D0027C6F80491C6F863
:1014D00000B1C6F8F490C6F8F0A0D5F8243DDFF8C6
:1014E000648143F4E0234A4AC5F8243DD8F81C300F
:1014F00023F07F0343F04003C8F81C30D8F82430B1
:1015000023F07F0343F04003C8F824309166D1668E
:101510001167516700F018FA3E4B3F49A3633F4BF8
:10152000E36363236B610323AF612B613C4BC5F81D
:10153000203DD5F8FC3D43F08073C5F8FC3D394BA8
:101540001A6842F001021A605B680B6000F084FACE
:10155000C6F804913448C6F800B1C6F8F490C6F84D
:10156000F0A000F00DFCD8F86C10304B304A41F47C
:101570004051C8F86C101F60C3F80871C3F81871A7
:10158000C3F82871C3F83871936BDB0708D442F6AF
:101590001563284951651365936B43F00103936309
:1015A000234A254C936843F00113936000F0B8FB85
:1015B00000F0FEFB00F07EFA00F0C0F92368132B68
:1015C000FCD900F00FFB2368B3F5967FFBD300F046
:1015D000B9F900F0B5F900F0F7FB00F0D5FB30BF2A
:1015E000FDE700BF00800D40B8940100442000607A
:1015F00000000000C042002000B501600000002093
:1016000000400020191D010000E400E0A0E400E01B
:1016100000C00A4085120100905500208912010087
:1016200000002020001000E00046C32300400840D6
:1016300000400D400000C056945500201B1018209B
:101640000C0D111300C00F40054B4FF42A01054A41
:1016500005485A641864054A99639546FFF7E8FE01
:1016600000C00A40FFAAAAAA070020000000062026
:101670001BB9124B1B6F9B041ED400F03F000F4B95
:1016800022F0604221F0604140F489101867C3F8ED
:101690008010C3F890201A6F22F480521A671A6FD4
:1016A000002AFCDAD3F87011054A0A40C3F8702109
:1016B0001A6F22F480321A67704700BF00800D4015
:1016C000FF7F7FFF43690A4A03EB011010B4037ADE
:1016D000084C02EB0313D3E901321460C2681A60AC
:1016E00003690BB142691A605DF8044B704700BF93
:1016F000A41D002061F801004369027E03EB021281
:1017000092F808C08C451CD01A7AFF2A19D0914251
:1017100010B5044616D01A7EFF2A06D00121D3E95F
:10172000002312681A4201D1217610BD064B052212
:10173000204603EB0C135B681A60FFF7C3FF2176AA
:10174000F3E770470021EAE7A41D002043690A4A35
:1017500003EB011010B490F82830084C02EB03138F
:10176000D3E901321460C26A1A60036B0BB1426B99
:101770001A605DF8044B7047A41D002061F8010059
:101780004369427E03EB021292F828C08C451ED0BA
:1017900093F82820FF2A1AD0914210B5044617D09A
:1017A00093F83820FF2A06D00121D3E900231268DC
:1017B0001A4201D1617610BD064B0522204603EB8B
:1017C0000C135B681A60FFF7C1FF6176F3E770479F
:1017D0000021EAE7A41D0020164942698B6B23F41F
:1017E0007C0343F4802370B58B630446124DD2E929
:1017F00000130A681A4303690A60022200211A6171
:101800000E4A19619A6401225A629D624FF4303582
:10181000DD624FF001159E6C1E6519629D651A61AF
:10182000017EFFF74FFF617E2046BDE87040FFF765
:101830008DBF00BF00C00F40B80B05053B3728190E
:10184000B1F5607FF0B50E468DB028BF4FF46076DD
:101850000F46054672B62E4B0024702218602146B2
:101860002C4B2D481C8000F093FACFB121462A481A
:101870004FF0010C4A0901F01F03013150F82240DA
:101880000CFA03F38E4243EA040340F82230F1D805
:10189000284600234380013300F582709E42F9D828
:1018A0001E4C257815B162B60DB0F0BD082000F0D1
:1018B00083FA1B4B80220646009302A90693194B1C
:1018C0000271056008A8029300F06AFA06A9164A98
:1018D000304600F061FA069B08A8DB689847009B39
:1018E00002A8DB6898472378002BDCD10F4B104A05
:1018F000C3F858210F49D0204FF0E023402281F84F
:101900004600C3F808210123237062B60DB0F0BD74
:1019100000500020B855002008500020CB55002072
:101920000C190020DD0C01001B10010000400020FC
:10193000E90C010000E400E0704700BF704700BF01
:10194000704700BF00BF704710B44FF0E023002184
:1019500010243148C3F8941DC3F89C4D1124C3F8DA
:10196000A00D2E48C3F89C4D1224C3F8A00D2C489E
:10197000C3F89C4D2B4AC3F8A00D2B4C42F0150226
:101980002A48C3F89C4DC3F8A00D294C2948C3F838
:101990009C4DC3F8A00D284CC3F89C2D2748284A1D
:1019A000C3F8A04DC3F89C0DC3F8A02D02F5A022EA
:1019B000244C0C322448C3F89C4DC3F8A02D234A74
:1019C000C3F89C0D224CC3F8A02D02F14062C3F86D
:1019D0009C4D2048C3F8A02D0C32C3F89C0DC3F8D1
:1019E000A02D00BF00BF00BF00BF00BF0122C3F891
:1019F000942DBFF34F8FBFF36F8FC3F8501FBFF30A
:101A00004F8FBFF36F8FD3F8142D5DF8044B42F462
:101A10004032C3F8142D70473F000010250008071E
:101A200009001000005600201300200021000207CA
:101A300014000020250008130900001016002020C3
:101A400027000B1317000040180000602F000B0741
:101A5000190000701A000080F0B4154A40274FF4B6
:101A600080314FF480564FF400554FF4404443F218
:101A70004200136913F0020F0ED113F4005F0FD070
:101A800013F4805F0ED0002BF3DA13F4803F0BD1F8
:101A90005B060BD5F0BC7047946151619061E8E73B
:101AA0005561E6E75661E4E79161E2E75761E0E7F7
:101AB00000800D403F4A03203F49F3EE095AD2F817
:101AC00080304FF0000C9FED3D6A23F001039FED45
:101AD0003C5A30B4C2F88030C2F89000D1F8E0101F
:101AE000384DCBB2384C39482B6007EE903A0B0D8D
:101AF000C1F30B21F8EEE77A06EE903A07EE101AE2
:101B0000334BB8EEC77A2160F8EEE66A314937EE1A
:101B1000C66A37EEC55A76EEC76A77EEE57A26EEE4
:101B2000266AC3ED006A25EE265AD2F8803067EEA9
:101B3000A64AC0ED007AC6EE275A274885EE276AE6
:101B4000C4EEA76A75EE875AFCEEE55A36EE076AD0
:101B500015EE904ABCEEC66A43EA045376EE877AE5
:101B6000C2F8803016EE103AD2F89041FCEEE77AD7
:101B700001EA0341214317EE903AC2F89011C3F3F2
:101B80000B03D2F890110B431449C2F89031D2F8EC
:101B9000803043F00203C2F88030114B80F840C01F
:101BA000C1F840314FF0E023012230BCC3F80821D6
:101BB000704700BF00810D4000441F400000AA4252
:101BC0000000B442805500207C5500208455002040
:101BD000885500200000FF0F00E400E000400020D6
:101BE000051F0100314B40F6617210B5C3F820218A
:101BF00040F2044400F0E4F82D4A2E49D2F8803037
:101C00002D4843F00303C2F880302C4BC1F86041EB
:101C100002681A4203D1D1F8A8319A071BD0254A8D
:101C20004FF00041244B5963D2F8403143F0020396
:101C3000C2F84031D2F840319B07FBD44FF400305A
:101C40004FF0E0211C4B4FF00042C1F88C021920EC
:101C50009A6300F0A9F8184A4FF08040154C002113
:101C600090630A20164B11604FF42072C4F8A8014B
:101C7000184600F08DF84FF4800203464FF48100BF
:101C800040F243111860C4F858311A640D4B0E4AE3
:101C9000C4F84811C3F804224FF0E0224FF4003199
:101CA0000123C2F80C11C4F8403110BD00800D4072
:101CB00000C00F4000002E4000900D40001C1E0090
:101CC0000000002000400020ED20010008B50E4B70
:101CD0001B6E9B0700D4FBBE72B60C4B00200C4A57
:101CE000C3F8400103F160430A49A3F55F2311647F
:101CF0009D46BFF34F8F4FF400130748074ADB6937
:101D000002609B68984700BF00441F4000002E40BF
:101D100000C00A400300200000802020000012EBD9
:101D2000104BA020104AD96E41F4403110B4D9664E
:101D300040F23764D96E41F44071D96654649064BE
:101D4000936C1B06FCD4094A40F23761A02351640E
:101D50009364936C13F08003FBD1054A13705DF814
:101D6000044B704700C00F4000400C4000800C4006
:101D7000D1550020F8B500BFF8BC08BC9E4670479E
:101D80005FF800F0011501005FF800F0D5190100BF
:101D90005FF800F0958501005FF800F05D13010029
:101DA0005FF800F0510D01005FF800F0F11701003D
:101DB0005FF800F0011C01005FF800F0191B010042
:101DC0005FF800F05D2801005FF800F01588010061
:101DD00045000000A17500009176000059770000D1
:101DE0006D7C0000857C00009D7C0000B57C0000BF
:101DF000CD7C0000E57C0000FD7C0000157D00002E
:101E00002D7D0000457D00005D7D00000182000009
:101E100019820000318200004982000061820000C6
:101E20007982000091820000A9820000DD8200001A
:101E30000D830000258300003D83000055830000D2
:0C1E40006D830000219600006114010079
:101E4C0080C00F40000000031900000010000000CB
:101E5C00E8841F4001000000FF000000FF000000AC
:101E6C00000000000000000018000000100000003E
:101E7C00E4841F4001000000FF000000FF00000090
:101E8C0000000000000000001F000000D10C010049
:101E9C0070C00F40000C0000110000001100000089
:101EAC00E0841F400200000024000000120000002B
:101EBC00E0841F4001000000100000001100000031
:101ECC00DC841F400200000025000000120000000E
:101EDC00DC841F40010000001E000000C50C010046
:101EEC0070C00F40C0000000120000001300000082
:101EFC00D0841F4001000000FF000000FF00000024
:101F0C00000000000000000013000000130000009F
:101F1C00CC841F4001000000FF000000FF00000007
:101F2C0000000000000000001C000000B90C0100C3
:101F3C001603550053004200200053006500720048
:101F4C00690061006C000000180354006500650016
:101F5C006E00730079006400750069006E006F00FC
:101F6C000403090409026200030100C032080B00DB
:101F7C000202020100090400000102020100052412
:101F8C0000100105240101010424020605240600A9
:101F9C00010705820310001009040100020A000069
:101FAC0000070503024000000705840240000009F9
:101FBC0004020002FF6AFF000705810240000107CE
:101FCC00050102400001000009026200030100C08B
:101FDC0032080B0002020201000904000001020297
:101FEC00010005240010010524010101042402064E
:101FFC0005240600010705820310000509040100F1
:10200C00020A000000070503020002000705840213
:10201C000002000904020002FF6AC70007058102E2
:10202C000002010705010200020100000A0600027D
:08203C00EF0201400100000069
:10204400000000000000000000000000000000008C
:10205400000000000000000000000000000000007C
:102064000548064B1B1AD90F01EBA301491002D0F6
:10207400034B03B118477047C0420020C042002000
:102084000000000008B5054B1BB105490548AFF336
:102094000080BDE80840FFF7E3BF00BF0000000078
:1020A400EC540020000402604069704790ED020B7C
:1020B400704700BF0069704707EE901A9FED065BFA
:1020C400B8EE677B90ED026B27EE057B87EE060B7F
:1020D400B7EEC00B704700BF0000000000408F4007
:1020E40081657047806D704701657047006D70476A
:1020F40041657047406D704708B50368D3F88C306C
:10210400984700B1006808BD08B50368D3F88C305F
:10211400984700B1406808BD0023BFF35B8F80F887
:102124008430704700000000B0B582B004460D460C
:10213400002100AF84B06A4610467A6006F02EFC97
:1021440023687A682946DB6C20469FED030B984789
:102154000837BD46B0BD00BF00000000000000000D
:10216400B0B582B004460D46002100AF84B06A4683
:1021740010467A6006F008FC23687A682946DB6C0E
:1021840020469FED030B98470837BD46B0BD00BFFE
:102194000000000000000000F8B500AF8AB184B070
:1021A40004460D4600216E46304606F003FC2368C3
:1021B40032462946DB6C20469FED050B9847BD4609
:1021C400F8BD054B5321054A054815F079FF00BFBA
:1021D4000000000000000000E40F0020F40F0020C5
:1021E4003C1000204FF001028430D0E84F3FC0E89B
:1021F400412F0029F9D1DBB2BFF35B8F002BF4D15F
:10220400704700BF4FF001028430D0E84F3FC0E870
:10221400412F0029F9D1D8B2BFF35B8F80F00100C0
:10222400704700BF183006F0EFBE00BF036810B55A
:10223400D3F88C301446984718B1214607F0FAF8C1
:10224400012010BD00000000DFED0B7A90ED025B71
:1022540087FE800AB7EEC00A9FED056B20EE050BE2
:1022640080EE067BFCEEC77B17EE900A704700BF3A
:102274000000000000408F4000000000F8B5DE8838
:1022840000F170051C46174604362846314606F010
:10229400CFFA60B10146E288204641F8047B06F09B
:1022A400AFFB31462846BDE8F84006F0EFBA034BD1
:1022B4001E21034A034815F003FF00BF80070020D6
:1022C4004C0800203C10002010B50C1E82B00ADD22
:1022D4005C30019006F09EFAA102019802B0BDE8BC
:1022E400104006F073BA034BB921034A034815F0B2
:1022F400E7FE00BF6C1300207C1300203C1000207C
:1023040010B50C1E82B00ADD7030019006F082FA1E
:10231400A102019802B0BDE8104006F057BA034B81
:10232400BF21034A034815F0CBFE00BFB8130020B9
:10233400C81300203C10002008B5034AE221034BD7
:10234400034815F0BDFE00BF4407002034070020F9
:102354003C10002008B5034AEE21034B034815F056
:10236400AFFE00BFA4080020340700203C1000206A
:102374002DE9F04390461F46026D0E46294B00217D
:1023840083B09A42316046D1814600F1850C4FF00A
:10239400010EDCE84F4FCCE845EF002DF9D1E4B253
:1023A400BFF35B8F002CF4D109F17005284606F0C9
:1023B40035FAA8B101A92846019406F089FAC0B1FA
:1023C400019A132A1BD997421FD301464046012480
:1023D40051F8043B336011F025FB284606F07EFAE1
:1023E40000232046BFF35B8F89F8853003B0BDE836
:1023F400F0830D4BCF210D4A0D4815F061FE0D4BB6
:10240400D0210A4A0A4815F05BFE0B4BD121074A3A
:10241400074815F055FE094BC721044A044815F036
:102424004FFE00BF3D020000F80E0020A80E002061
:102434003C1000203C0F0020640F0020000E002000
:102444002DE9F84F2DED028B9FED338BB4EEC80BC5
:10245400F1EE10FA5ADB9046002A51D00368054683
:10246400314A0F469B6988FE008B046993423FD131
:1024740090ED020B9FED2A6B05F184034FF0010CE4
:1024840080EE067B27EE087BFCEEC77B17EE906A96
:102494002644D3E84F4FC3E84ECFBEF1000FF8D126
:1024A400E4B2BFF35B8F002CF3D1B8F806A005F1BA
:1024B4005C0B0AF1040A5846514606F0B9F9814604
:1024C400C0B10146B8F80620404641F8047B06F046
:1024D40097FA58465146C9F8046006F0D7F9BFF395
:1024E4005B8F85F884400120BDEC028BBDE8F88F3A
:1024F4009847BFE70D4B83210D4A0E4815F0E0FDC8
:102504000D4B74210A4A0B4815F0DAFD0B4B73216D
:10251400074A084815F0D4FD000000000000000040
:102524000000000000408F406D000000E810002013
:10253400881000203C100020D810002078100020C3
:102544002DE9F04F2DED068B9FED759B43EC182B79
:1025540085B0B4EEC98B00AFF1EE10FA3E6DC0F257
:10256400D680002E00F0CD8007F154028346304619
:102574000AEE101AFA6018F063FB8246002800F095
:10258400BA80C000DBF8102089FE089B0830ADEB50
:10259400000DDBF800008469E8466548844240F099
:1025A40087809BED020B29EE009B00245146404698
:1025B400013E4546A1469FED5C6B89EE067BBCEE71
:1025C400C77B17EE103A13441A4606F0D3F916F8EF
:1025D400013F623B112B12D8DFE803F009111111FE
:1025E4005211411111111111111111111125B8F8C4
:1025F4000430A34267DD85F80890C5F80C900134D7
:102604000835A245E3DCDBF80040B0EE480B424657
:102614001AEE101A5846E36C98471437BD46BDECC1
:10262400068BBDE8F08FFB68B8F80420191D186804
:10263400A242F96041DD002857D04FF00203E86060
:10264400013408352B7018F0FBFAB8F80630A245AF
:1026540003F101031844A8F80600B8DCD3E7FB68CB
:10266400B8F80420191D1B68A242F96037DD013453
:10267400EB604FF003030835A2452B70A7DCC2E7DB
:10268400FB68073323F0070393ED007B0833FB60FB
:10269400B7EEC77BB8F80430A3421ADD01344FF01B
:1026A400010385ED037A0835A2452B708FDCAAE778
:1026B4007A605846A0477A6875E71E4B94211E4AF3
:1026C4001E4815F0FDFC1B4B69211D4A1B4815F0E3
:1026D400F7FC184B73211B4A184815F0F1FC154BF5
:1026E4008221194A154815F0EBFC184B9521124A22
:1026F400124815F0E5FC164B3A21164A0F4815F01E
:10270400DFFC154B5C21154A154815F0D9FC154B17
:102714005B21124A124815F0D3FC00BFAFF30080CE
:1027240000000000000000000000000000408F4096
:102734006D000000901200202C130020581200207D
:10274400B0120020D41200200013002060130020D7
:10275400281200203812002014120020BC1100207E
:102764003C10002078100020B5EEC00B70B5F1EEDF
:1027740010FA1D46294B80ED020B036036DD00295B
:1027840046DD002A16463DDD002D35DB4FF0000303
:1027940004460361C0E915330CBF2B46204B1830A7
:1027A40083630023BFF35B8F80F86C30BFF35B8FD0
:1027B40080F86D30882340F8043C06F04BFB6369D5
:1027C400B102034404F15C00636105F0FFFF636937
:1027D4000246A90204F170001344636105F0F6FF98
:1027E4006369024620461344636170BD0D4B272183
:1027F4000D4A0E4815F064FC0D4B2A210A4A0B4879
:1028040015F05EFC0B4B2921074A084815F058FCCB
:10281400094B2821044A054815F052FC18160020DB
:102824003D02000004140020181400203C10002075
:10283400581400206C1300204C140020084B10B5D1
:10284400044640F8183B06F01DFB04F15C0005F05B
:10285400E1FF04F1700005F0DDFF204610BD00BF6C
:102864001816002018B10368D3F88C30184710B537
:10287400FFF762FD28B1944618301A46634606F005
:1028840061BB10B5FFF766FD00487047100C0020CF
:102894000020704702207047094B994207D0094B2A
:1028A40099420AD0084B994204D00020704700F5A1
:1028B400DC70704700F5BC70704700F2CC50704774
:1028C4001DF86E726887AC7B216D706942B100237C
:1028D40000210448516011721060D3601361536188
:1028E40000207047340B0020B0B5114600AF82B011
:1028F400056801EB83046A462D6CC2E900140021CB
:10290400A847BD46B0BD00BF2DE9F84300AF2BB3C7
:1029140016466A4600211D46A2EBC3024FEA85090A
:1029240095460268E846546C4246A047002308EBEB
:1029340085041A46002D09DD08EB830106EB820CA1
:1029440051F804EBA1424CF808EBF9D12B444C4468
:102954000AB90122EEE7BD46BDE8F883034B40F611
:10296400A831034A034815F0ABFB00BF4C0B002011
:10297400580B0020A00B002010B50A4B044600F5AC
:10298400BC70236006F052FD04F5DC7006F04EFDC9
:1029940004F2CC5006F04AFD2046FFF74FFF2046D4
:1029A40010BD00BF4C150020014B132105F050BD94
:1029B40039380000014B132105F04ABD5D1F0000AA
:1029C400014B132105F044BDDD100000014B132120
:1029D40005F03EBDF910000010B5114682B0002389
:1029E400054C9FED060A0222CDE90014194605F0B4
:1029F40067FA02B010BD00BF690900000200004B75
:102A040010B5114682B00023054CB7EE000A01222E
:102A1400CDE90014194605F053FA02B010BD00BF09
:102A24001112000010B5114682B00023054CB7EE18
:102A3400000A0122CDE90014194605F041FA02B05A
:102A440010BD00BF1912000010B5114682B000235A
:102A5400054C9FED060A0222CDE90014194605F043
:102A64002FFA02B010BD00BFFD1200000000DC43CD
:102A740010B5114682B00023054CB3EE080A0222B9
:102A8400CDE90014194605F01BFA02B010BD00BFD1
:102A94007509000010B5114682B00023054C9FED66
:102AA400060A0322CDE90014194605F009FA02B01A
:102AB40010BD00BF6117000000007A4410B5114634
:102AC40082B00023054CB7EE000A1422CDE90014AD
:102AD400194605F0F5F902B010BD00BFDD1F000076
:102AE40010B5114682B00023054CB7EE000A01224E
:102AF400CDE90014194605F0E3F902B010BD00BF9A
:102B04003112000010B5114682B00023054C9FED30
:102B1400060A0322CDE90014194605F0D1F902B0E2
:102B240010BD00BFDD17000000007A4410B5114647
:102B340082B00023054CB7EE000A1422CDE900143C
:102B4400194605F0BDF902B010BD00BF3D200000DC
:102B540010B5114682B00023054C9FED060A0322EE
:102B6400CDE90014194605F0ABF902B010BD00BF61
:102B7400010F000000007A4410B5114682B0002312
:102B8400054C9FED060A0322CDE90014194605F011
:102B940097F902B010BD00BFAD18000000007A44E0
:102BA40010B5114682B00023054C9FED060A02229F
:102BB400CDE90014194605F083F902B010BD00BF39
:102BC400C50F000000803B4510B5114682B00023BC
:102BD400054CB7EE000A1522CDE90014194605F09C
:102BE4006FF902B010BD00BFAD0B000010B5114667
:102BF40082B00023054C9FED060A1422CDE900148F
:102C0400194605F05DF902B010BD00BF391200008D
:102C14000000000010B5114682B00023054CB7EE49
:102C2400000A0122CDE90014194605F049F902B061
:102C340010BD00BF7512000010B5114682B000230C
:102C4400054C9FED060A0322CDE90014194605F050
:102C540037F902B010BD00BF911A000000007A4499
:102C640010B5114682B00023054CB7EE000A1422B9
:102C7400CDE90014194605F023F902B010BD00BFD8
:102C84009D20000010B5114682B00023054C9FED35
:102C9400060A0322CDE90014194605F011F902B021
:102CA40010BD00BFFD0F000000007A4410B51146AE
:102CB40082B00023054C9FED060A0322CDE90014DF
:102CC400194605F0FDF802B010BD00BF611B0000FD
:102CD40000007A4410B5114682B00023054C9FEDE4
:102CE400060A0222CDE90014194605F0E9F802B0FB
:102CF40010BD00BFC110000000803B4510B5114657
:102D040082B00023054CB7EE000A1522CDE9001469
:102D1400194605F0D5F802B010BD00BFE10C000063
:102D240010B5114682B00023054C9FED060A14220B
:102D3400CDE90014194605F0C3F802B010BD00BF78
:102D44007D1200000000000010B5114682B000237F
:102D5400054CB3EE000A0222CDE90014194605F031
:102D6400AFF802B010BD00BF8109000010B51146D4
:102D740082B00023054C9FED060A0222CDE900141F
:102D8400194605F09DF802B010BD00BF8D09000082
:102D94000000004210B5114682B00023054C9FED9F
:102DA400060A0322CDE90014194605F089F802B099
:102DB40010BD00BFED12000000007A4410B51146AA
:102DC40082B00023054C9FED060A0322CDE90014CE
:102DD400194605F075F802B010BD00BF451D00008E
:102DE40000007A4410B5114682B00023054CB7EEBA
:102DF400000A1422CDE90014194605F061F802B066
:102E040010BD00BFFD20000010B5114682B00023A4
:102E1400054C9FED060A0322CDE90014194605F07E
:102E24004FF802B010BD00BF3111000000007A4419
:102E340010B5114682B00023054C9FED060A03220B
:102E4400CDE90014194605F03BF802B010BD00BFEF
:102E5400151E000000007A4410B5114682B000230C
:102E6400054C9FED060A0222CDE90014194605F02F
:102E740027F802B010BD00BF055B00000000FA4354
:102E840010B5114682B00023054C9FED060A0322BB
:102E9400CDE90014194605F013F802B010BD00BFC7
:102EA400690E000000007A4410B5114682B0002378
:102EB400054C9FED060A0222CDE90014194604F0E0
:102EC400FFFF02B010BD00BF155900000000FA4317
:102ED40010B5054C82B0134600F5F271012200943E
:102EE40005F092FB02B010BDA93F000010B5054CDF
:102EF40082B0134600F518710122009405F084FB9A
:102F040002B010BD5D5B000010B5054C82B01346E5
:102F140000F51B710122009405F076FB02B010BD90
:102F24000147000010B5054C82B0134600F540710E
:102F34000022009405F068FB02B010BD5D1800008B
:102F440010B5054C82B0134600F53271012200948D
:102F540005F05AFB02B010BDFD17000010B5054C7A
:102F640082B0134600F540710122009405F04CFB39
:102F740002B010BD5D18000010B5054C82B01346B8
:102F840000F53E710122009405F03EFB02B010BD35
:102F94005524000010B5054C82B0134600F53E716F
:102FA4000022009405F030FB02B010BD552400004F
:102FB40010B5054C82B0134600F53C710022009414
:102FC40005F022FB02B010BD3D18000010B5054C01
:102FD40082B0134600F538710022009405F014FB0A
:102FE40002B010BD9D15000010B5054C82B013460B
:102FF40000F555710022009405F006FB02B010BDE7
:10300400F519000010B5054C82B0134600F5537154
:103014000022009405F0F8FA02B010BDA90F0000D8
:1030240010B5054C82B0134600F20441002200940E
:1030340005F0EAFA02B010BD111B000010B5054CF2
:1030440082B0134600F573710122009405F0DCFA96
:1030540002B010BDB11A000010B5054C82B0134681
:1030640000F204410122009405F0CEFA02B010BD32
:10307400111B000010B5054C82B0134600F57F719A
:103084000122009405F0C0FA02B010BDA92400008A
:1030940010B5054C82B0134600F57F7100220094F0
:1030A40005F0B2FA02B010BDA924000010B5054C19
:1030B40082B0134600F57D710022009405F0A4FA55
:1030C40002B010BDF11A000010B5054C82B01346D1
:1030D40000F579710022009405F096FA02B010BD53
:1030E4000516000010B5054C82B0134600F58B613F
:1030F4000022009405F088FA02B010BDA91C00005B
:1031040010B5054C82B0134600F58A610022009484
:1031140005F07AFA02B010BDA510000010B5054CF8
:1031240082B0134600F5F8710022009405F06CFAA1
:1031340002B010BD7113000010B5054C82B01346E7
:1031440000F500710022009405F05EFA02B010BD93
:10315400A116000010B5054C82B0134600F234519C
:103164000022009405F050FA02B010BDC51D000005
:1031740010B5054C82B0134600F2FC4101220094C4
:1031840005F042FA02B010BD651D000010B5054CF3
:1031940082B0134600F234510122009405F034FA4F
:1031A40002B010BDC51D000010B5054C82B0134619
:1031B40000F22C510122009405F026FA02B010BD51
:1031C400C524000010B5054C82B0134600F22C5102
:1031D4000022009405F018FA02B010BDC5240000C6
:1031E40010B5054C82B0134600F22451002200941D
:1031F40005F00AFA02B010BDA51D000010B5054C7B
:1032040082B0134600F214510022009405F0FCF938
:1032140002B010BD6D16000010B5054C82B0134607
:1032240000F518710022009405F0EEF902B010BD0B
:103234005D5B000010B5054C82B0134600F51B71B0
:103244000022009405F0E0F902B010BD014700002F
:1032540000F5DA7106F08CB800F5F07106F088B864
:1032640000F5077106F084B800F5097106F080B81E
:1032740000F5237106F07CB830B5002383B0154601
:1032840009490446B7EE000A019101221946009546
:1032940004F016FE2A4604F55D71204603B0BDE82D
:1032A400304006F065B800BF6D12000000F559719A
:1032B40006F05EB800F5647106F05AB830B5002324
:1032C40083B0154609490446B7EE000A019101226C
:1032D4001946009504F0F4FD2A4604F58F61204652
:1032E40003B0BDE8304006F043B800BFB11200009F
:1032F40000F58D6106F03CB830B5002383B0154667
:1033040009490446B7EE000A0191012219460095C5
:1033140004F0D6FD2A4604F59761204603B0BDE8C3
:10332400304006F025B800BFF512000000F2BC41A1
:1033340006F01EB800F5986106F01AB838B50446D0
:10334400154600F5BF6106F013F82A4604F5C0617E
:103354002046BDE8384006F00BB800BF30B50D4B31
:1033640083B01546044600F51371009300222B46E2
:1033740005F04AF92A4604F2FC51204605F0F8FF0C
:103384002A4604F20461204603B0BDE8304005F04B
:10339400EFBF00BF41170000134600F5A4710022DF
:1033A40005F00ABF134600F1D001002205F004BF66
:1033B40030B5154683B000F1BC0100222B4604460B
:1033C40005F0FAFE00230A49B3EE040A204602225D
:1033D400CDE90051194604F073FD002205492B463E
:1033E40020460091114604F095FD03B030BD00BFA6
:1033F40065130000F511000010B5134684B00022D7
:103404000C49044603930091114604F083FD002205
:1034140009492046039B0091114604F07BFD0022DC
:1034240006492046039B0091114604F073FD04B045
:1034340010BD00BF2D240000693B0000293C0000A2
:1034440010B5134684B000220C490446039300913E
:10345400114604F05FFD002209492046039B0091B8
:10346400114604F057FD002206492046039B0091B3
:10347400114604F04FFD04B010BD00BF2924000024
:103484007D3A0000213C000010B5134684B00022B0
:103494000C49044603930091114604F03BFD0022BD
:1034A40009492046039B0091114604F033FD002294
:1034B40006492046039B0091114604F02BFD04B0FD
:1034C40010BD00BF25240000B53B0000193C0000DE
:1034D40010B5134684B000220C49044603930091AE
:1034E400114604F017FD002209492046039B009170
:1034F400114604F00FFD002206492046039B00916B
:10350400114604F007FD04B010BD00BF21240000E3
:10351400CD3D00008D3E000010B5134684B000225E
:103524000C49044603930091114604F0F3FC002275
:1035340009492046039B0091114604F0EBFC00224C
:1035440006492046039B0091114604F0E3FC04B0B5
:1035540010BD00BF1D240000193E0000853E000080
:1035640010B5134684B000220C490446039300911D
:10357400114604F0CFFC002209492046039B009128
:10358400114604F0C7FC002206492046039B009123
:10359400114604F0BFFC04B010BD00BF312400008C
:1035A400813D00007D3E000010B5134684B000222A
:1035B4000849044603930091114604F0ABFC002231
:1035C40005492046039B0091114604F0A3FC04B076
:1035D40010BD00BFCD440000550F000030B50A49AE
:1035E40085B013460446009100220121074D039340
:1035F40004F090FC039B002201212046009504F076
:1036040089FC05B030BD00BF29190000491900002C
:1036140010B5134684B00022084904460393009170
:10362400114604F077FC002205492046039B0091D3
:10363400114604F06FFC04B010BD00BF214C000023
:103644005110000030B50A4985B013460446009174
:1036540000220121074D039304F05CFC039B00222C
:1036640001212046009504F055FC05B030BD00BF93
:10367400FD1B0000DD1B000010B5134684B00022C2
:103684000849044603930091114604F043FC0022C8
:1036940005492046039B0091114604F03BFC04B00D
:1036A40010BD00BF115500008511000030B50A4956
:1036B40085B013460446009100220121074D03936F
:1036C40004F028FC039B002201212046009504F00D
:1036D40021FC05B030BD00BF911E0000B11E0000EA
:1036E40030B5002383B0144610499FED110A02221D
:1036F400019119460094054604F0E2FB0D49284661
:1037040001231322CDE9004105F2A44104F0A0FBFA
:103714000023094902229FED090A2846CDE9004108
:10372400194604F0CDFB03B030BD00BF59130000AF
:1037340000004842C11F00001D1300000000704239
:1037440010B5064C82B0002300F50671CDE90024C3
:10375400032204F07DFB02B010BD00BF2112000063
:1037640010B5064C82B0002300F50871CDE90024A1
:10377400032204F06DFB02B010BD00BF291200004B
:1037840010B5064C82B0002300F51771CDE9002472
:10379400022204F05DFB02B010BD00BF7D0A0000F0
:1037A40010B5064C82B0012300F51771CDE9002451
:1037B400022204F04DFB02B010BD00BF7D0A0000E0
:1037C40030B50C4983B0154601230446CDE90021E8
:1037D40000F54871022204F03BFB07490123022251
:1037E4002046CDE9005104F5477104F031FB03B0E4
:1037F40030BD00BF390B0000110B000010B5064CA2
:1038040082B0002300F53171CDE90024022204F0D6
:103814001FFB02B010BD00BFED0A000010B5064C3E
:1038240082B0012300F53171CDE90024022204F0B5
:103834000FFB02B010BD00BFED0A000030B50C490B
:1038440083B0144600230546CDE9002100F54A71F2
:10385400012204F0FDFA0023064911229FED060A15
:103864002846CDE90041194604F02AFB03B030BDD7
:1038740071240000854200000000000010B50123FF
:1038840082B0054C00F55071CDE900241A4604F0CD
:10389400DFFA02B010BD00BFD519000070B50023D7
:1038A40082B015460E491A460446019100F54C7142
:1038B400009504F0CDFA00230A4804F54F711A4626
:1038C400094ECDE90050204604F0C2FA2B460022EE
:1038D40004F551712046009604F096FE02B070BDC6
:1038E4001D0F0000710F0000610B000010B50123D3
:1038F40082B0054C00F54A71CDE900241A4604F063
:10390400A7FA02B010BD00BF7124000010B5064C28
:1039140082B0012300F54E71CDE90024032204F0A6
:1039240097FA02B010BD00BFED18000030B50C4985
:1039340083B0154601230446CDE9002100F54F71FB
:10394400002204F085FA0749012300222046CDE92C
:10395400005104F54C7104F07BFA03B030BD00BF94
:10396400710F00001D0F000010B5064C82B000233B
:1039740000F54771CDE90024022204F069FA02B08F
:1039840010BD00BF110B000010B5064C82B000231F
:1039940000F54D71CDE90024032204F059FA02B078
:1039A40010BD00BFCD18000010B5064C82B0002336
:1039B40000F55071CDE90024012204F049FA02B067
:1039C40010BD00BFD519000070B50F4B82B015466D
:1039D4000022009304462B46114604F09BFA002370
:1039E4000A4804F54F711A46094ECDE900502046A5
:1039F40004F02EFA2B46012204F54071204600966D
:103A040004F002FE02B070BDD5440000710F000046
:103A14005D18000010B5064C82B0002300F54E710D
:103A2400CDE90024032204F013FA02B010BD00BF54
:103A3400ED18000010B5064C82B0002300F5577154
:103A4400CDE90024022204F003FA02B010BD00BF45
:103A5400890B000010B5064C82B0012300F55771A4
:103A6400CDE90024022204F0F3F902B010BD00BF36
:103A7400890B000030B50C4983B015460123044678
:103A8400CDE9002100F22441022204F0E1F90749C2
:103A9400012302222046CDE9005104F5846104F09B
:103AA400D7F903B030BD00BF6D0C0000450C000019
:103AB40010B5064C82B0002300F57271CDE90024E4
:103AC400022204F0C5F902B010BD00BF210C0000B1
:103AD40010B5064C82B0012300F57271CDE90024C3
:103AE400022204F0B5F902B010BD00BF210C0000A1
:103AF40030B50C4983B0144600230546CDE90021B6
:103B040000F22C41012204F0A3F9002306491122FA
:103B14009FED060A2846CDE90041194604F0D0F984
:103B240003B030BD8D240000D9490000000000001E
:103B340010B5012382B0054C00F24441CDE90024C4
:103B44001A4604F085F902B010BD00BF891C0000BC
:103B540070B5002382B015460E491A4604460191F9
:103B640000F23441009504F073F900230A4804F587
:103B740088611A46094ECDE90050204604F068F9E0
:103B84002B46002204F589612046009604F03CFD92
:103B940002B070BD191000006D100000950C0000FB
:103BA40010B5012382B0054C00F22C41CDE900246C
:103BB4001A4604F04DF902B010BD00BF8D24000078
:103BC40010B5064C82B0012300F23C41CDE900243B
:103BD400032204F03DF902B010BD00BFA11B000098
:103BE40030B50C4983B0154601230446CDE90021C4
:103BF40000F58861002204F02BF907490123002213
:103C04002046CDE9005104F2344104F021F903B017
:103C140030BD00BF6D1000001910000010B5064C37
:103C240082B0002300F58761CDE90024032204F06B
:103C34000FF902B010BD00BF811B000010B5064C87
:103C440082B0002300F58461CDE90024022204F04F
:103C5400FFF802B010BD00BF450C000010B5064CC3
:103C640082B0002300F24441CDE90024012204F093
:103C7400EFF802B010BD00BF891C000070B50F4BF7
:103C840082B015460022009304462B46114604F0E8
:103C940041F900230A4804F588611A46094ECDE922
:103CA4000050204604F0D4F82B46012204F20441CB
:103CB4002046009604F0A8FC02B070BD294C000018
:103CC4006D100000111B000010B5064C82B00023DB
:103CD40000F23C41CDE90024032204F0B9F802B01B
:103CE40010BD00BFA11B000010B5064C82B000231C
:103CF40000F58C61CDE90024022204F0A9F802B099
:103D040010BD00BFBD0C000010B5064C82B00123ED
:103D140000F58C61CDE90024022204F099F802B088
:103D240010BD00BFBD0C000030B50C4983B0154672
:103D340001230446CDE9002100F25451022204F08B
:103D440087F80749012302222046CDE9005104F5F2
:103D5400AA6104F07DF803B030BD00BFF10D00008E
:103D6400C90D000010B5064C82B0002300F59F6118
:103D7400CDE90024022204F06BF802B010BD00BFAC
:103D8400A50D000010B5064C82B0012300F59F611B
:103D9400CDE90024022204F05BF802B010BD00BF9C
:103DA400A50D000030B50C4983B014460023054628
:103DB400CDE9002100F25C51012204F049F800230E
:103DC400064911229FED060A2846CDE9004119460D
:103DD40004F076F803B030BDE1240000C9520000BD
:103DE4000000000010B5012382B0054C00F27451AC
:103DF400CDE900241A4604F02BF802B010BD00BF30
:103E04003D1F000070B5002382B015460E491A46C6
:103E14000446019100F26451009504F019F800235E
:103E24000A4804F5AE611A46094ECDE90050204611
:103E340004F00EF82B46002204F5AF6120460096EC
:103E440004F0E2FB02B070BD4D110000A1110000AE
:103E5400190E000010B5012382B0054C00F25C512C
:103E6400CDE900241A4603F0F3FF02B010BD00BFF1
:103E7400E124000010B5064C82B0012300F26C511D
:103E8400CDE90024032203F0E3FF02B010BD00BF1C
:103E9400551E000030B50C4983B015460123044675
:103EA400CDE9002100F5AE61002203F0D1FF0749FE
:103EB400012300222046CDE9005104F2645103F0AD
:103EC400C7FF03B030BD00BFA11100004D110000B9
:103ED40010B5064C82B0002300F5AA61CDE9002498
:103EE400022203F0B5FF02B010BD00BFC90D0000EF
:103EF40010B5064C82B0002300F5AD61CDE9002475
:103F0400032203F0A5FF02B010BD00BF351E000060
:103F140010B5064C82B0002300F27451CDE90024A0
:103F2400012203F095FF02B010BD00BF3D1F000049
:103F340070B50F4B82B015460022009304462B4601
:103F4400114603F0E7FF00230A4804F5AE611A4660
:103F5400094ECDE90050204603F07AFF2B4601229A
:103F640004F234512046009604F04EFB02B070BDBA
:103F740019550000A1110000C51D000010B5064C24
:103F840082B0002300F26C51CDE90024032203F037
:103F94005FFF02B010BD00BF551E000070B5144B8A
:103FA40082B0154600F5FC71009300222B460446AE
:103FB40004F02AFB00220F492B4620460E4E0091A6
:103FC400114603F0A7FF0D49204600231322CDE933
:103FD400005104F2A44103F03BFF2B46002204F5F8
:103FE40094612046009604F0ABF802B070BD00BFA7
:103FF400090A0000D9110000A15A0000C11F0000E5
:1040040010B5054C82B0134600F59461012200946A
:1040140004F096F802B010BDA15A000010B5054C8A
:1040240082B0134600F50A710222009403F0E4FF03
:1040340002B010BD1D4F000030B500F5247585B0E9
:10404400044611462846039204F062F8094A039B89
:10405400294620460092084D002203F0CDFF039B21
:10406400002204F532712046009504F0CDFA05B023
:1040740030BD00BFF91F0000FD17000010B5054C4E
:1040840082B0134600F524710222009403F0B4FFB9
:1040940002B010BDF91F000030B500F5657585B09C
:1040A400044611462846039204F032F8094A039B59
:1040B400294620460092084D002203F09DFF039BF1
:1040C400002204F573712046009504F09DFA05B0B2
:1040D40030BD00BF59200000B11A000010B5054CD6
:1040E40082B0134600F565710222009403F084FF48
:1040F40002B010BD5920000030B500F2C44585B0AF
:10410400044611462846039204F002F8094A039B28
:10411400294620460092084D002203F06DFF039BC0
:10412400002204F2FC412046009504F06DFA05B02B
:1041340030BD00BFB9200000651D000010B5054C5E
:1041440082B0134600F2C4410222009403F054FFEB
:1041540002B010BDB920000010B5054C82B0134662
:1041640000F5B0610022009403F046FF02B010BDD8
:104174003521000030B500F5B06585B00446114620
:104184002846039203F0C4FF0D4A039B04F2A45192
:1041940020460092002203F02FFF0A4A039B29467F
:1041A400204600920025002203F026FF039B0122F3
:1041B40004F5A0712046009505F074F805B030BDF3
:1041C4007D5900003521000008B5034A7321034BD3
:1041D400034813F075FF00BFD41200209012002092
:1041E4005812002001B1704710B5054C82B0134637
:1041F40000F5C8710122009403F0CAFF02B010BD9B
:104204009909000001B1704710B5054C82B01346FE
:1042140000F503710122009403F0BAFF02B010BD4F
:10422400310A000001B1704710B5054C82B0134645
:1042340000F284410122009403F0AAFF02B010BDF1
:10424400090D000001B1704710B5054C82B013464A
:1042540000F294410122009403F09AFF02B010BDD1
:104264002D0D0000012914D813460A49002230B547
:1042740085B00446084D00911146039303F04AFEAD
:10428400039B002201212046009503F043FE05B064
:1042940030BD7047214500008919000001B1704705
:1042A400F0B50A4B83B006460C4615460093084FFA
:1042B40013460A46012103F02DFE2B462246012116
:1042C4003046009703F026FE03B0F0BD2919000024
:1042D4004919000001B17047F0B50A4B83B0064696
:1042E4000C4615460093084F13460A46012103F075
:1042F40011FE2B46224601213046009703F00AFEA8
:1043040003B0F0BD390F000069190000012914D869
:1043140013460A49002230B585B00446084D009181
:104324001146039303F0F6FD039B0022012120466E
:10433400009503F0EFFD05B030BD7047754C0000EB
:104344003D1C000001B17047F0B50A4B83B006462E
:104354000C4615460093084F13460A46012103F004
:10436400D9FD2B46224601213046009703F0D2FDA9
:1043740003B0F0BDFD1B0000DD1B000001B1704760
:10438400F0B50A4B83B006460C4615460093084F19
:1043940013460A46012103F0BDFD2B4622460121A6
:1043A4003046009703F0B6FD03B0F0BD35100000B1
:1043B4001D1C0000012914D813460A49002230B5F7
:1043C40085B00446084D00911146039303F0A2FD05
:1043D400039B002201212046009503F09BFD05B0BC
:1043E40030BD704765550000F11E000001B17047F3
:1043F400F0B50A4B83B006460C4615460093084FA9
:1044040013460A46012103F085FD2B46224601216D
:104414003046009703F07EFD03B0F0BD911E00000E
:10442400B11E000001B17047F0B50A4B83B00646D7
:104434000C4615460093084F13460A46012103F023
:1044440069FD2B46224601213046009703F062FDA8
:1044540003B0F0BD69110000D11E0000704700BF19
:10446400704700BF704700BF704700BF704700BF70
:10447400704700BF054B9446994200D07047044BE7
:1044840000226146183004F05DBD00BF5BC65CCEFF
:104494009156000010B5054C82B0134600F54071EA
:1044A4000022009404F0B0F802B010BD5D180000C2
:1044B40010B5054C82B0134600F532710122009408
:1044C40004F0A2F802B010BDFD17000010B5054CB1
:1044D40082B0134600F573710122009404F094F83D
:1044E40002B010BDB11A000010B5054C82B01346DD
:1044F40000F204410022009404F086F802B010BDDA
:10450400111B000010B5054C82B0134600F2345163
:104514000022009404F078F802B010BDC51D00001C
:1045240010B5054C82B0134600F2FC410122009400
:1045340004F06AF802B010BD651D000010B50C4B04
:10454400044600F5BC70236004F070FF04F5DC70D1
:1045540004F06CFF04F2CC5004F068FF2046FEF730
:104564006DF920464FF4C1610FF0F8FA204610BDF2
:104574004C1500202DE9F04F2DED0C8B85B0DFF8A4
:10458400648004461746DFF8609000F15C06DFF8AB
:104594005CA0019304E049451BD0304604F09EF929
:1045A400304604F03BF918B3002503A930460395BF
:1045B40004F08EF9039B132B40F23B83236850F8DD
:1045C400041BD3F890304345E5D002462046984773
:1045D400E3E7014653462A4604F1180004F0B2FC0E
:1045E400DBE700BF352400005BC65CCE91560000BB
:1045F40023680546ED4920469B6D9847019B266933
:10460400002B40F30E8303EB0608A36904F59762BD
:104614009FEDE78ADFEDE7AA04F2BC4BDFEDE69AF3
:1046240004F5986A9FEDE59A9E46DFEDE58A9FEDD5
:10463400E5AA00920136BEF1000F11D004F1180969
:1046440073469A6811688E4209D92046D3E903312A
:104654009847484604F0C0FCA369002BF1D19E465C
:10466400D4F88820002AC0F2CD8294ED237AF0EEAB
:10467400476AD4F89810B7EE005ADBED004A013AC5
:10468400D1ED047A27EE247ADAED005AF8EE677A4F
:1046940094ED246A009936EE266A87FE657A77EEF1
:1046A400C57A87FE087AD1ED006A84ED236A77EE35
:1046B400C77AC4F88820BBFE676AB5EEC06AF1EE1B
:1046C40010FA40F19482F5EE406AF1EE10FA00F02F
:1046D4008E8276EE266AD4F89CC0DCF80000BDEE2B
:1046E400E67A17EE102A511C00F19D82DCF80CC00A
:1046F4008C4540F2988200EB8100D4F8ACC0002ACB
:104704004FEA810190ED007ADCF80000C0F28B8260
:10471400DCF80CC0944540F286820144D4F89C2114
:1047240077EEC67AD4ED326A51ED014A44F2A7110C
:10473400F7EE005A37EE647A01FB02F2D4F8BC10AB
:10474400B6EE005AC4F89C21E7EE274A07EE902AF9
:104754004A0AF8EEE73A42F07E5207EE902AD4F87D
:10476400C02063EEAA3A37EEE57A0A44B0EEE34A93
:10477400C4F8BC2037EE055AFBFE457A35EE675A7D
:10478400F4EEC56A84ED325AF1EE10FA00F3328287
:1047940094ED332AD4F8D020B7EE003AD4F8D410EC
:1047A400B6EE006AF5EE006AD4EDA35A1144520A3B
:1047B400D4F8DC0042F07E52C4F8D010016807EE51
:1047C400902AC06877EEC37A77EEC67AF0EEE77A7D
:1047D40077EEE67A67EEA97A27EEA76A66EE276A8D
:1047E400E6EE897A66EE866AE6EEA87A67EE8A6A6B
:1047F400C6FEE56AC6FE886AFDEEE66A16EE902AF3
:10480400904240F2108201EB8201F0EE042A94ED12
:104814003B6AD1ED006A94EDD93A66EEA26AD4ED12
:10482400DD5A23EE463A94ED3C6A84ED3C7AB4EECC
:10483400C76AA5EEA63AF1EE10FA84ED3B3A00F30E
:10484400DE8194ED3D4A04F5BF6194ED400AD4F84D
:10485400F820F7EE001AD1ED005A04F5C061F6EE27
:10486400002A94ED431AD1ED000A04F20461F5EE36
:10487400006A62EE200A91ED006A64EE255AA0EE09
:10488400A76A66EE007AFDEEE77A17EE901A1144F5
:10489400520A42F07E52C4F8F81004F2FC5107EEBA
:1048A400902AD4F8042137EEE16AD1ED007A36EE8D
:1048B400626AB0EEC66A36EE666A26EE296A26EEAB
:1048C400060A60EE060AA0EE896A60EE800AA0EE8F
:1048D400A86AE5EE867A67EE817AFDEEE77A17EE4E
:1048E400901A1144520A42F07E52C4F8041107EEA1
:1048F400902AD4F8102177EEE15A002A75EEE25A94
:10490400F0EEE55A75EEE65A65EEA95A65EEA56A2B
:1049140066EEA57AE7EE895A67EEA67AE7EEA85A1C
:10492400C0F27581D4ED452AF0EE62CAD4ED897ADD
:10493400F6EE00BAD4ED466AB5EE00BA62EEA77A96
:104944009FED210A76EEAC6ADFED200A9FED201A76
:1049540027EE0A7A67EEA77A94ED78CAC4ED456A21
:10496400013A87FE4C7A87FE087A67EEA27AD4F879
:104974002001F0EE081AC4F810210168FBFE676AF2
:1049840077EEE66AC06876EEEB6AF0EEE66A76EEFB
:10499400CB6A66EE806A26EEA60A60EE267AE7EE19
:1049A400E06A67EE807AE7EE816A17E0EBC021DD0A
:1049B40000000000F6FFFF2FDB0FC940ABAA2ABEA0
:1049C4006257003C00008043E40FC940C1AA2A3E5C
:1049D4008380003C0AD7233D0AD7A33CFDEEC77A67
:1049E40017EE902A66EEA26A904266EEA16A36EE4F
:1049F400A51A40F2188101EB8201D4F83021D1EDDF
:104A0400007A002A21EE271AC0F2068194ED4D7A2D
:104A1400F0EE47CAD4ED877AF6EE001A94ED4ECA4A
:104A2400F5EE002A67EE277A5FED19BA3CEE2CCA40
:104A34001FED1ABA1FED1A0AF0EE080A67EEA77AFC
:104A44001FED1CDA84ED4DCA013A63EE8D3AD4F8B9
:104A5400441167EE877AC4F83021D4F8402101F17B
:104A6400010CBBFE67CA77EECC7A906877EEE17AE8
:104A74008445F0EEE77A77EEE27A67EEAB7A27EEDA
:104A8400A7CA6CEE27BAEBEECB7A6BEE8CBAEBEEE0
:104A9400807A27EE877A27EE207A77EE067AE3EE9D
:104AA400017A33EEA73A33EE023AF0EE437AE4EEBB
:104AB400A17A00F2C5801368B7EE002AD4F8480141
:104AC40003EB8101C1ED007AC4F844C194EDE41A0A
:104AD400C2F810C0D4F84C210244400A40F07E5081
:104AE400C4F84821D4F8542107EE900A116877EEEF
:104AF400C27AD06877EEE17AF0EEE77A77EEE27A7E
:104B040067EEA97A27EEA72A62EE272AE2EE897ACF
:104B140062EE822AE2EEA87A67EE8A7AC7FEC17A4A
:104B2400C7FE887AFDEEE77A17EE902A90427AD98A
:104B340001EB820104F58D62B0EE041AD4ED591A2A
:104B4400D2ED007A25EE0A5AD4F8682176EE866A08
:104B5400D1ED002A67EEE17AD06894ED6D2A62EE19
:104B6400812A116804F58F6285FE425A85FE085A2F
:104B740092ED002AE2EE227AB0EE676AC4ED597A29
:104B8400FDEEC57A17EE902A90424CD901EB8202D1
:104B940077EE257A33EE243A1FED717AD2ED005A7E
:104BA400464566EEA56AF0EE485AE6EE267AF0EE41
:104BB400486AE3EE075AD7E9001277EEA37A29444C
:104BC4002A4405F10405C1ED005A77EE847A77EEA4
:104BD400A47AE7EE876AC2ED006A7FF42BAD0198F0
:104BE400C4F8108005B0BDEC0C8BBDE8F08FF0EE7E
:104BF400486A6EE5B0EE442A84ED334ACAE584ED92
:104C04003D4A20E694ED257AD4ED236A31E5D4EDCE
:104C1400472AD4ED45CA89E694ED4F7AD4ED4DCABE
:104C2400F8E6B046DBE7094B4B21094A094813F083
:104C340047FA094B40F68121084A094813F040FA23
:104C4400084B2821084A094813F03AFA500C00206E
:104C5400900C0020C40C00203C0F0020180C0020F5
:104C6400A00B0020000D00202C0D00205C0D002066
:104C74002DE9F04104462DED048B00AFB0EE409BCE
:104C8400FDF772FD2046CE4B04F2CC559FEDCD8A44
:104C940004F5BC7640F8883B04F5DC7804F002FAAD
:104CA400636929461844606104F1980004F0F0FA3D
:104CB4006369294600221844606104F19C0004F0F1
:104CC400DBFA6369294600221844606104F1AC00F0
:104CD40004F0D2FA6369B0EE491B1844B0EE480AF6
:104CE400606104F1BC0004F04FFA63691844606128
:104CF40004F1C80004F0C2F963691844606104F166
:104D0400CC0004F0B3FA6369B0EE491B1844B2EE68
:104D1400040A606104F1D00004F036FA6369314694
:104D240000221844606104F1DC0004F0A5FA636910
:104D34001844606104F1EC0004F092FA63691844C9
:104D4400606104F1F00004F099F96369184460614A
:104D540004F1F40004F08AFA6369B0EE490B1844D4
:104D6400606104F1F80004F0FBF96369B0EE490BEB
:104D74001844606104F5827004F0F2F96369184420
:104D8400606104F5887004F08DF96369002241467E
:104D94001844606104F5907004F06EFA6369184475
:104DA400606104F5987004F07DF96369294618443C
:104DB400606104F5A07004F06FFA6369B0EE491BFA
:104DC4009FED819A1844B2EE040A606104F5A47060
:104DD40004F0DAF96369314600221844606104F58D
:104DE400AA7004F049FA63691844606104F5B2706A
:104DF40004F036FA6369314600221844606104F510
:104E0400B47004F039FA636902464FF48071304695
:104E14006E4E13446E4A636104F0E4FA63696D49AB
:104E24001844606104F5C87003F0AAF963690122AB
:104E340018441146606104F5CA7003F0E5F963692A
:104E44001844002360611A46194604F5CE7004F034
:104E540099FA636931461844606104F5D07003F02F
:104E6400C7FB6369012218441146606104F5D470DC
:104E740003F0CAF96369F0EE480A00211844B0EE61
:104E8400480A606104F5DA7004F06CFA636902465A
:104E94004FF48071404613444F4A636104F0A2FA10
:104EA40063694E491844606104F5E67003F0A0FBA1
:104EB4006369012218441146606104F5EA7003F045
:104EC400A3F96369F0EE480A00211844B0EE480AD9
:104ED400606104F5F07004F045FA6369B7EE000A06
:104EE4001844606104F5F27003F07AFB6369B0EE74
:104EF400480A1844606104F5F87003F071FB6369B3
:104F0400B0EE480A1844606104F5FC7003F068FBD5
:104F14006369B0EE480A1844606104F5007003F058
:104F24005FFB63692E491844606104F5037003F064
:104F340027F96369012218441146606104F504707D
:104F440003F062F96369B3EE0D0A1844606104F575
:104F5400067002F077FF6369F0EE480A00211844F6
:104F6400B0EE480A606104F5077004F0FBF9636968
:104F7400B3EE0D0A1844606104F5087002F062FF94
:104F84006369F0EE480A00211844B0EE480A6061F3
:104F940004F5097004F0E6F9636904F50A71B0EEEA
:104FA400480A18446061204603F018F86369B3EEB8
:104FB4000E0A1844606104F5137003F011FB11E04C
:104FC4004C150020000000000044AC469C0D00205D
:104FD400C8340020A8F38490C8380020A40D002011
:104FE400813515496369B0EE480A1844606104F5D7
:104FF400177002F027FF6369B7EE000A1844606176
:1050040004F5187003F0ECFA6369B7EE000A18446B
:10501400606104F51B7003F0E3FA636931461844D8
:10502400606104F51E7003F0E3FA63690122184419
:105034001146606104F5207003F0E6F86369F0EE50
:10504400480A00211844B0EE480A606104F5237050
:1050540004F088F9636904F52471B0EE480A184431
:105064006061204602F0BAFF6369B3EE040A184493
:10507400606104F52D7003F0B3FA6369B0EE480A79
:105084001844606104F5317002F0DCFE6369B0EE2F
:10509400480A1844606104F5327003F0A1FA6369A8
:1050A4004FF0FF3201211844606104F5347003F0BD
:1050B400ABF863694FF0FF3201211844606104F5D5
:1050C400367003F0A1F86369B0EE480A18446061D1
:1050D40004F5387003F084FA6369B7EE000A1844E3
:1050E400606104F53A7003F07BFA6369B0EE480A34
:1050F4001844606104F53C7003F072FA6369B0EE21
:10510400480A1844606104F53E7003F069FA636963
:10511400B0EE480A1844606104F5407003F060FA88
:105124006369012218441146606104F5427003F07A
:105134006BF86369012200211844606104F544702E
:1051440003F062F86369B0EE480A1844606104F53C
:10515400477002F077FE6369B0EE480A1844606154
:1051640004F5487002F06EFE6369B0EE480A184414
:10517400606104F54A7002F065FE6369B0EE480AA6
:105184001844606104F54C7002F05CFE6369B3EE90
:10519400040A1844606104F54D7002F053FE63691B
:1051A400B0EE480A1844606104F54E7002F04AFEFD
:1051B4006369B0EE480A1844606104F54F7002F068
:1051C40041FE6369B0EE480A1844606104F550700A
:1051D40002F038FE6369B0EE480A1844606104F5D1
:1051E400517003F0FDF96369B0EE480A1844606138
:1051F40004F5537003F0F4F96369B0EE490A1844F6
:10520400606104F5557003F0EBF96369B0EE480A88
:105214001844606104F5577002F014FE6369F0EEFF
:10522400480A00211844B0EE480A606104F5597038
:1052340004F098F86369F0EE480A00211844B0EECF
:10524400480A606104F55D7004F08CF863693146C6
:105254001844606104F55F7003F0CAF963690122C0
:1052640018441146606104F5617002F0CDFF636972
:10527400F0EE480A00211844B0EE480A606104F5D3
:10528400647004F06FF8636904F56571B0EE480A60
:1052940018446061204602F0A1FE6369B3EE040A7B
:1052A400034404F56E70636103F09AF96369B0EE28
:1052B400480A034404F57270636102F0C3FD636934
:1052C400B0EE480A034404F57370636103F088F98F
:1052D40063694FF0FF3201211844606104F5757071
:1052E40002F092FF63694FF0FF32012118446061BC
:1052F40004F5777002F088FF6369B0EE480A03444E
:1053040004F57970636103F06BF96369B7EE000A21
:10531400034404F57B70636103F062F96369B0EEE2
:10532400480A034404F57D70636103F059F9636925
:10533400B0EE480A034404F57F70636103F050F94A
:105344006369B0EE480A034404F20440636103F065
:1053540047F96369012218441146606104F20C4064
:1053640002F052FF6369002101221844606104F2D3
:10537400144002F049FF6369B0EE480A034404F59F
:105384008460636102F05EFD6369B0EE480A034421
:1053940004F22440636102F055FD6369B0EE480AEB
:1053A400034404F22C40636102F04CFD6369B0EEE7
:1053B400480A034404F23440636102F043FD636924
:1053C400B3EE040A034404F58760636102F03AFD16
:1053D4006369B0EE480A034404F23C40636102F09E
:1053E40031FD6369B0EE480A034404F588606361E3
:1053F40002F028FD6369B0EE480A034404F2444015
:10540400636102F01FFD6369B0EE480A034404F5CA
:105414008960636103F0E4F86369B0EE480A034409
:1054240004F58A60636103F0DBF863690246B0EE59
:10543400490A04F58B601344636103F0D1F863698E
:105444000246B0EE480A04F58C601344636102F02E
:10545400F9FC6369F0EE480A00210344B0EE480AFF
:1054640004F58D60636103F07DFF6369F0EE480A23
:1054740000210344B0EE480A04F58F60636103F031
:1054840071FF6369CD491844606104F2844002F0FD
:1054940077FE6369012218441146606104F5916046
:1054A40002F0B2FE6369C6491844606104F2944094
:1054B40002F066FE6369012218441146606104F536
:1054C400936002F0A1FE636900211844606104F551
:1054D400946002F031FE63690246B2EE080A04F2F7
:1054E400A4401344636102F0ADFC6369B5491844F8
:1054F400606104F5956003F07BF86369F0EE480A97
:1055040000210344B0EE480A04F59760636103F098
:1055140029FF6369F0EE480A00210344B0EE480A0B
:1055240004F2BC40636103F01DFF6369F0EE480AB6
:1055340000210344B0EE480A04F59860636103F067
:1055440011FF636904F2C441B0EE480A03442046E3
:10555400636102F043FD63690246B3EE040A04F595
:105564009D601344636103F03BF863690246B0EE47
:10557400480A04F59F601344636102F063FC6369A5
:105584000246B0EE480A04F2FC401344636103F09F
:1055940027F863694FF0FF3201211844606104F277
:1055A400045002F031FE636901214FF0FF321844C8
:1055B400606104F20C5002F027FE63690246B0EE0B
:1055C400480A04F214501344636103F009F8636950
:1055D4000246B7EE000A04F21C501344636102F061
:1055E400FFFF63690246B0EE480A04F224501344F4
:1055F400636102F0F5FF63690246B0EE480A04F203
:105604002C501344636102F0EBFF63690246B0EE71
:10561400480A04F234501344636102F0E1FF636901
:10562400012218441146606104F23C5002F0ECFD82
:105634006369002101221844606104F2445002F0BD
:10564400E3FD63690246B0EE480A04F5AA60134418
:10565400636102F0F7FB63690246B0EE480A04F2A4
:1056640054501344636102F0EDFB63690246B0EEEB
:10567400480A04F25C501344636102F0E3FB63697B
:105684000246B0EE480A04F264501344636102F027
:10569400D9FB63690246B3EE040A04F5AD60134412
:1056A400636102F0CFFB63690246B0EE480A04F27C
:1056B4006C501344636102F0C5FB63690246B0EEAB
:1056C400480A04F5AE601344636102F0BBFB6369EE
:1056D4000246B0EE480A04F274501344636102F0C7
:1056E400B1FB63690246B0EE480A04F5AF601344A7
:1056F400636102F075FF6369B0EE480A04F5B061B6
:1057040018446061204602F069FC6369B0EE480AFF
:1057140004F2A45118446061204602F05FFC6369FE
:1057240002464FF4807128461344636103F03CFE43
:105734006369F0EE480A00210344B0EE480A04F518
:10574400BF60636103F00EFE6369F0EE480A002156
:105754000344B0EE480A04F2FC50636103F002FE15
:105764006369F0EE480A00210344B0EE480A04F5E8
:10577400C060636103F0F6FD6369F0EE480A00213E
:105784000344B0EE480A04F20460636103F0EAFDE6
:10579400636984B0002103446846636103F0FEF842
:1057A400094B0146002204F1180003F0CBFB20460C
:1057B400BD46BDEC048BBDE8F08100BFDCDFB9E77A
:1057C400DCB21786AC0D00209156000070B50021A4
:1057D400054618461C4603F08BF9114B014620463A
:1057E400C91AB1FA81F1490903F082F90D4B9842C3
:1057F4000AD00D4E234605F5C871284604960022AA
:10580400BDE8704002F0C4BC084E234605F5CA71D9
:10581400284604960022BDE8704002F0FBBC00BF9D
:105824006E0ED60601BD647E99090000A521000014
:10583400F8B500AF86B0022115466C4612680646DC
:10584400204603F097F800232A462046194603F021
:105854009DF9A388012B0CD94FF07E5301252246D4
:1058640006F5CE7130462574636103F08FFDBD46A5
:10587400F8BDFEF7A9FC00BF0021FFF7D9BF00BFA8
:105884002DE9F04182B003211546064602AF88B0E7
:10589400126802AC204603F06DF8A3881BB3E388BA
:1058A4004FF0020813492A4606332046E1600121DD
:1058B400E380002384F8088003F068F9A388434553
:1058C40011D9E38830460C4A0C490533E2610022C1
:1058D400E380234684F818800091114602F016FDF7
:1058E400BD46BDE8F081064B9421064A064812F0F5
:1058F400E7FB00BFDC0B0020E40B0020C109000023
:10590400901200202C130020581200200021FFF7D1
:10591400B7BF00BF2DE9F04182B00321154606460A
:1059240002AF88B0126802AC204603F023F8A388C3
:105934001BB3E3884FF0020813492A460633204676
:10594400E1600121E380002384F8088003F01EF95C
:10595400A388434511D9E38830460C4A0C490533E2
:10596400E2610022E380234684F818800091114606
:1059740002F0CCFCBD46BDE8F081064B9421064AFA
:10598400064812F09DFB00BFDC0B0020E40B002056
:10599400E5090000901200202C130020581200206A
:1059A4000021FFF7B7BF00BF70B5002105461846B8
:1059B4001C4603F09DF8114B01462046C91AB1FA62
:1059C40081F1490903F094F80D4B98420AD00D4E29
:1059D400234605F50371284604960022BDE870406D
:1059E40002F0D6BB084E234605F5047128460496FA
:1059F4000022BDE8704002F00DBC00BF6E0ED6065A
:105A040001BD647E310A0000C521000070B500218B
:105A1400054618461C4603F06BF8134B0146204616
:105A2400C91AB1FA81F1490903F062F8B0F17E5F55
:105A340004D0B0F1804F15D050B170BD0B4E002290
:105A44002346284604961146BDE8704002F062BA27
:105A5400074E23460246014604962846BDE8704098
:105A640002F058BA034EEAE76E0ED606011400009F
:105A7400B913000049140000B0B582B001210546F5
:105A840002AF84B0126802AC204602F073FFA38810
:105A940073B10123074808490322E06028462372B2
:105AA400019105F50671009402F0D2F9BD46B0BD2E
:105AB400FEF78AFB9A990742211200000021FFF7A2
:105AC400DBBF00BF2DE9F04F83B002211546064627
:105AD40002AF86B0126802AC204602F04BFFA388E6
:105AE400D3B34FF001094FF07E524B4584F8089030
:105AF400E26031D04FF000084FF0000B06F5987AC1
:105B0400234684F810904246C4F814B05146CDF8A8
:105B14000080304603F0D0FA86B02A68022102AC35
:105B2400204602F027FFBDF80C30ABB12A464946A7
:105B340043462046CDF814B08DF8109003F026F8B3
:105B44002346424651463046CDF8008003F0B4FA6D
:105B54000437BD46BDE8F08FFEF736FB0021FFF7A2
:105B6400B1BF00BFB0B582B00121054602AF84B019
:105B7400126802AC204602F0FDFEA38873B1012333
:105B8400074808490322E06028462372019105F57D
:105B94000671009402F05CF9BD46B0BDFEF714FB3B
:105BA4000000F441211200000021FFF7DBBF00BF19
:105BB400B0B582B00121054602AF84B0126802ACD0
:105BC400204602F0D7FEA38873B101230748084991
:105BD4000322E06028462372019105F506710094C2
:105BE40002F036F9BD46B0BDFEF7EEFA6666104225
:105BF400211200000021FFF7DBBF00BFF0B583B026
:105C04000121054602AF84B0126802AC204602F0BE
:105C1400B1FEA388C3B101260C490D4A2346E160B5
:105C24002846314626720092002202F073F9DFF80A
:105C340024C02346002231462846CDF800C002F095
:105C440069F90437BD46F0BDFEF7BEFA0000DC4238
:105C54001D3B0000011700000021FFF7CFBF00BF6C
:105C64000021FFF7CBBF00BF0021FFF7C7BF00BF74
:105C740070B50021054618461C4602F039FF134B47
:105C840001462046C91AB1FA81F1490902F030FFF0
:105C9400B0F17E5F04D0B0F1804F15D050B170BD2B
:105CA4000B4E00222346284604961146BDE8704058
:105CB40002F030B9074E23460246014604962846B0
:105CC400BDE8704002F026B9034EEAE76E0ED60630
:105CD400D914000091140000211500002DE9F04FA3
:105CE40083B002211546064602AF86B0126802ACA4
:105CF400204602F03FFEA388D3B34FF001094FF0D2
:105D04007E524B4584F80890E26031D04FF0000891
:105D14004FF0000B06F5887A234684F8109042462B
:105D2400C4F814B05146CDF80080304603F0C4F9ED
:105D340086B02A68022102AC204602F01BFEBDF8A0
:105D44000C30ABB12A46494643462046CDF814B040
:105D54008DF8109002F01AFF234642465146304611
:105D6400CDF8008003F0A8F90437BD46BDE8F08FF4
:105D7400FEF72AFA0021FFF7B1BF00BFB0B582B029
:105D84000121054602AF84B0126802AC204602F03D
:105D9400F1FDA38873B10123074808490322E06099
:105DA40028462372019105F50871009402F050F819
:105DB400BD46B0BDFEF708FACDCCF0412912000073
:105DC4000021FFF7DBBF00BFB0B582B0012105465B
:105DD40002AF84B0126802AC204602F0CBFDA38867
:105DE40073B10123074808490322E060284623725F
:105DF400019105F50871009402F02AF8BD46B0BD82
:105E0400FEF7E2F90000F441291200000021FFF737
:105E1400DBBF00BFB0B582B00121054602AF84B03C
:105E2400126802AC204602F0A5FDA38873B10123D9
:105E3400074808490322E06028462372019105F5CA
:105E44000871009402F004F8BD46B0BDFEF7BCF939
:105E54009A994B42291200000021FFF7DBBF00BFD3
:105E6400F0B583B00121054602AF84B0126802ACDC
:105E7400204602F07FFDA388C3B101260C490D4AD8
:105E84002346E1602846314626720092002202F041
:105E940041F8DFF824C02346002231462846CDF8D5
:105EA40000C002F037F80437BD46F0BDFEF78CF9A8
:105EB4000000DC43353D0000211700000021FFF7FE
:105EC400CFBF00BF0021FFF7CBBF00BF0021FFF70A
:105ED400C7BF00BFB0B582B00121054602AF84B090
:105EE400126802AC204602F045FDA38883B1E38822
:105EF40002200A4A0A490B33E26000222072284633
:105F0400E38023460091114602F000FABD46B0BD7D
:105F1400044B9421044A054812F0D2F8EC0B0020FB
:105F2400550A0000901200202C1300205812002063
:105F3400F0B583B00121054602AF84B0126802AC0B
:105F4400204602F017FDA38893B1E38802210B4A8F
:105F540028460B4E0633217205F50A71E2600022D1
:105F6400E3802346009602F047F80437BD46F0BDAF
:105F7400044B9421044A054812F0A2F8000C0020B6
:105F84001D4F0000901200202C13002058120020F6
:105F940070B50021054618461C4602F0A9FD0F4BBA
:105FA40001462046C91AB1FA81F1490902F0A0FD5F
:105FB40060B10B4B984209D00A4E00222346284672
:105FC40004961146BDE8704001F0A4BF224628465D
:105FD4000021BDE87040FFF7ABBF00BF6E0ED606D0
:105FE4002D035B7A754F000030B5002383B014464F
:105FF40009499FED0A0A0C220191194600940546AD
:1060040001F05EFF00222346284611460092FFF766
:10601400BFFF03B030BD00BF910E000000000000C0
:106024002DE9F04182B003211546064602AF88B03F
:10603400126802AC204602F09DFCA3881BB3E388DF
:106044004FF0020813492A4606332046E160012135
:10605400E380002384F8088002F098FDA388434578
:1060640011D9E38830460C4A0C490533E261002219
:10607400E380234684F818800091114602F046F923
:10608400BD46BDE8F081064B9421064A064812F04D
:1060940017F800BFDC0B0020E40B0020A10A00006D
:1060A400901200202C130020581200200021FFF72A
:1060B400B7BF00BFB0B582B00121054602AF84B0BE
:1060C400126802AC204602F055FCA38883B1E38831
:1060D40002200A4A0A490B33E26000222072284651
:1060E400E38023460091114602F010F9BD46B0BD8D
:1060F400044B9421044A054811F0E2FFEC0B002004
:1061040081170000901200202C1300205812002048
:10611400B0B582B00121054602AF84B0126802AC6A
:10612400204602F027FCA38883B1E38802200A4AB0
:106134000A490B33E260002220722846E38023469A
:106144000091114602F0E2F8BD46B0BD044B942123
:10615400044A054811F0B4FFEC0B0020C50A000006
:10616400901200202C13002058120020F0B583B0A8
:106174000121054602AF84B0126802AC204602F049
:10618400F9FBA38893B1E38802210B4A28460B4EFE
:106194000633217205F52471E2600022E380234670
:1061A400009601F029FF0437BD46F0BD044B94214D
:1061B400044A054811F084FF000C0020F91F000078
:1061C400901200202C1300205812002070B50021DA
:1061D400054618461C4602F08BFC0F4B0146204630
:1061E400C91AB1FA81F1490902F082FC60B10B4B82
:1061F400984209D00A4E00222346284604961146A6
:10620400BDE8704001F086BE224628460021BDE864
:106214007040FFF7ABBF00BF6E0ED6062D035B7A4E
:10622400E541000030B585B0002104460B4D0392D2
:10623400FFF79CFF0A492046039B0022009104F5C6
:10624400247101F0D9FE039B002204F5327120462B
:10625400009502F0D9F905B030BD00BFFD1700006C
:10626400F91F000070B50021054618461C4602F0CF
:106274003FFC114B01462046C91AB1FA81F1490984
:1062840002F036FC18B1B0F17E5F0AD070BD0B4E3F
:1062940023460246014604962846BDE8704001F0B4
:1062A40039BE074E00222346284604961146BDE80F
:1062B400704001F02FBE00BF6E0ED606E50E000042
:1062C400691500000021134600B583B00A46009109
:1062D400FFF7C8FF03B05DF804FB00BF70B50021F1
:1062E40082B0054618461C4602F002FC264B0146C5
:1062F4002046C91AB1FA81F1490902F0F9FB234B8E
:1063040098420ED0224B984211D1224E23460022AD
:1063140005F534712846069602B0BDE8704001F0D8
:1063240079BF1D4E2346002205F53671F2E700229F
:106334001A49234628460091114601F0EBFD1849FD
:10634400234628460091002205F5427101F062FFC0
:106354001449234628460091002205F5447101F0B2
:1063640059FF00221049234628460091114601F0A6
:10637400D1FD0E490022234606912846114602B05B
:10638400BDE8704001F0C6BD6E0ED606AB4D003EB2
:106394002D035B7A15450000252200008D0F0000B7
:1063A4005D22000095220000594400006945000068
:1063B40070B5002182B0054618461C4602F098FBD1
:1063C4001A4B01462046C91AB1FA81F1490902F073
:1063D4008FFB50B9164E02460146234628460696C0
:1063E40002B0BDE8704001F095BD12492846002373
:1063F4000222114ECDE9004105F5487101F028FD56
:106404000E49284601230322CDE9004105F54D71CB
:1064140001F01EFD2346002205F52D71284606963F
:1064240002B0BDE8704002F0EFB800BF6E0ED606B1
:10643400E9450000390B0000BD170000CD1800002D
:106444000021134600B583B00A460091FFF7B0FF60
:1064540003B05DF804FB00BFB0B582B0012105466E
:1064640002AF84B0126802AC204602F083FAA3881B
:106474007BB100224FF07E514FF0010C2346E160C6
:106484002846114684F808C00092FFF79FFEBD46D7
:10649400B0BDFDF799FE00BF0021FFF7DDBF00BFCF
:1064A400F0B583B00121054602AF84B0126802AC96
:1064B400204602F05FFAA38813B3002201260021CC
:1064C400234628462672E16011460092FFF77EFEBD
:1064D4000C49334628460022CDE9004105F54F71A9
:1064E40001F0B6FCDFF820C03346002205F54C71FC
:1064F4002846CDE9004C01F0ABFC0437BD46F0BDA5
:10650400FDF762FE710F00001D0F00000021FFF770
:10651400C7BF00BF0021FFF7C3BF00BFB0B582B043
:106524000121054602AF84B0126802AC204602F095
:1065340021FAA38863B1002201200021234620729E
:106544002846E16011460092FFF740FEBD46B0BD0B
:10655400FDF73AFE012902D80021FFF7DFBF70479B
:106564000021FFF7DBBF00BFB0B582B001210546B3
:1065740002AF84B0126802AC204602F0FBF9A38893
:106584006BB10122002007492346E06028462272AD
:10659400009105F5387102F037F8BD46B0BDFDF73E
:1065A40013FE00BF9D1500000021FFF7DDBF00BFF3
:1065B400F0B583B00121044602AF84B0126802AE84
:1065C400304602F0D7F9B3881BB301251249134AA8
:1065D400204635720023F16004F5487101920222CD
:1065E400009601F035FC0E482B460E4D04F54D7116
:1065F4000322CDE90060204601F02AFC3346002244
:1066040004F52D712046009501F0FEFF0437BD46C8
:10661400F0BDFDF7D9FD00BF0000A041390B00001B
:10662400CD180000BD1700000021FFF7C1BF00BF57
:10663400B0B582B00121054602AF84B0126802AC45
:10664400204602F097F9A38883B1E38802200A4A1E
:106654000A490B33E260002220722846E380234675
:106664000091114601F052FEBD46B0BD044B942189
:10667400044A054811F024FDEC0B0020A946000053
:10668400901200202C13002058120020F0B583B083
:1066940002211546064602AF86B0126802AC2046B7
:1066A40002F068F9A388B3B10C4801212A460023FB
:1066B400E0602046217202F069FA094D00239FED43
:1066C400090A032230461946CDE9004501F0F8FBDA
:1066D4000437BD46F0BDFDF777FD00BFE40FC940A8
:1066E400151A0000000000000021FFF7CFBF00BF13
:1066F400F0B583B002211546064602AF86B0126893
:1067040002AC204602F036F900232A4620461946F8
:1067140002F03CFAA388012B0DD90022012007497D
:10672400234620743046616111460092FFF7D6FD7E
:106734000437BD46F0BDFDF747FD00BF00007A44B5
:1067440030B5002383B01446084905469FED080A76
:1067540001910C221946009401F0B2FB224600215B
:10676400284603B0BDE83040FFF7C2BFC90E0000A1
:10677400000000002DE9F04182B0032115460646D1
:1067840002AF88B0126802AC204602F0F3F8A38886
:106794001BB3E3884FF0020813492A460633204608
:1067A400E1600121E380002384F8088002F0EEF91F
:1067B400A388434511D9E38830460C4A0C49053374
:1067C400E2610022E380234684F818800091114698
:1067D40001F09CFDBD46BDE8F081064B9421064ABC
:1067E400064811F06DFC00BFDC0B0020E40B002018
:1067F400D50B0000901200202C130020581200200A
:106804000021FFF7B7BF00BFB0B582B00121054634
:1068140002AF84B0126802AC204602F0ABF8A38841
:1068240083B1E38802200A4A0A490B33E26000225A
:1068340020722846E38023460091114601F066FD4C
:10684400BD46B0BD044B9421044A054811F038FC00
:10685400EC0B0020351A0000901200202C130020AD
:1068640058120020B0B582B00121054602AF84B0B1
:10687400126802AC204602F07DF8A38883B1E38855
:1068840002200A4A0A490B33E26000222072284699
:10689400E38023460091114601F038FDBD46B0BDAA
:1068A400044B9421044A054811F00AFCEC0B002027
:1068B400F90B0000901200202C1300205812002025
:1068C400F0B583B00121054602AF84B0126802AC72
:1068D400204602F04FF8A38893B1E38802210B4AC3
:1068E40028460B4E0633217205F56571E2600022DD
:1068F400E3802346009601F07FFB0437BD46F0BDDC
:10690400044B9421044A054811F0DAFB000C0020E2
:1069140059200000901200202C130020581200204F
:1069240070B50021054618461C4602F0E1F80F4BED
:1069340001462046C91AB1FA81F1490902F0D8F892
:1069440060B10B4B984209D00A4E002223462846D8
:1069540004961146BDE8704001F0DCBA2246284690
:106964000021BDE87040FFF7ABBF00BF6E0ED60636
:106974002D035B7A3949000030B585B00021044607
:106984000B4D0392FFF79CFF0A492046039B00220C
:10699400009104F5657101F02FFB039B002204F5BF
:1069A40073712046009501F02FFE05B030BD00BF85
:1069B400B11A00005920000070B5002105461846A0
:1069C4001C4602F095F8114B01462046C91AB1FA4B
:1069D40081F1490902F08CF818B1B0F17E5F0AD058
:1069E40070BD0B4E23460246014604962846BDE878
:1069F400704001F08FBA074E0022234628460496C1
:106A04001146BDE8704001F085BA00BF6E0ED6068F
:106A1400E10F0000D11500000021134600B583B03A
:106A24000A460091FFF7C8FF03B05DF804FB00BFFE
:106A340070B5002182B0054618461C4602F058F88D
:106A4400264B01462046C91AB1FA81F1490902F0E0
:106A54004FF8234B98420ED0224B984211D1224E2C
:106A64002346002205F575712846069602B0BDE856
:106A7400704001F0CFBB1D4E2346002205F577710F
:106A8400F2E700221A49234628460091114601F0F4
:106A940041FA1849234628460091002205F20C4188
:106AA40001F0B8FB1449234628460091002205F260
:106AB400144101F0AFFB00221049234628460091FF
:106AC400114601F027FA0E49002223460691284672
:106AD400114602B0BDE8704001F01CBA6E0ED60635
:106AE400AB4D003E2D035B7A694C0000CD220000C3
:106AF40089100000052300003D230000AD4B000079
:106B0400BD4C000070B5002182B0054618461C46F5
:106B140001F0EEFF1A4B01462046C91AB1FA81F181
:106B2400490901F0E5FF50B9164E024601462346D5
:106B34002846069602B0BDE8704001F0EBB9124950
:106B4400284600230222114ECDE9004105F22441DA
:106B540001F07EF90E49284601230322CDE90041C4
:106B640005F5876101F074F92346002205F56E717D
:106B74002846069602B0BDE8704001F045BD00BF4E
:106B84006E0ED6063D4D00006D0C0000711A00001B
:106B9400811B00000021134600B583B00A46009112
:106BA400FFF7B0FF03B05DF804FB00BFB0B582B0DF
:106BB4000121054602AF84B0126802AC204601F000
:106BC400D9FEA3887BB100224FF07E514FF0010C17
:106BD4002346E1602846114684F808C00092FFF776
:106BE4009FFEBD46B0BDFDF7EFFA00BF0021FFF7E1
:106BF400DDBF00BFF0B583B00121054602AF84B00C
:106C0400126802AC204601F0B5FEA38813B300223B
:106C140001260021234628462672E160114600928F
:106C2400FFF77EFE0C49334628460022CDE9004199
:106C340005F5886101F00CF9DFF820C03346002225
