:0200000460009A
:100000004643464200000156000000000103030081
:1000100000000000000000000000000000000000E0
:1000200000000000000000000000000000000000D0
:1000300000000000000000000000000000000000C0
:1000400000000000010408000000000000000000A3
:100050000000200000000000000000000000000080
:100060000000000000000000000000000000000090
:100070000000000000000000000000000000000080
:10008000EB04180A063204260000000000000000FD
:10009000050404240000000000000000000000002F
:1000A0000000000000000000000000000000000050
:1000B0000604000000000000000000000000000036
:1000C0000000000000000000000000000000000030
:1000D00020041808000000000000000000000000DC
:1000E0000000000000000000000000000000000010
:1000F0000000000000000000000000000000000000
:10010000D8041808000000000000000000000000F3
:100110000204180804200000000000000000000095
:1001200000000000000000000000000000000000CF
:10013000600400000000000000000000000000005B
:1001400000000000000000000000000000000000AF
:10015000000000000000000000000000000000009F
:10016000000000000000000000000000000000008F
:10017000000000000000000000000000000000007F
:10018000000000000000000000000000000000006F
:10019000000000000000000000000000000000005F
:1001A000000000000000000000000000000000004F
:1001B000000000000000000000000000000000003F
:1001C000000100000010000001000000000000001D
:1001D000000001000000000000000000000000001E
:1001E000000000000000000000000000000000000F
:1001F00000000000000000000000000000000000FF
:10020000FFFFFFFFFFFFFFFFFFFFFFFFFFFFFFFFFE
:10021000FFFFFFFFFFFFFFFFFFFFFFFFFFFFFFFFEE
:10100000D1002043491600600000000000000000ED
:10101000201000600010006000C8016000000000A7
:101020000000006000D4010000000000FFFFFFFF8F
:10103000FFFFFFFFFFFFFFFFFFFFFFFFFFFFFFFFC0
:10104000FFFFFFFFFFFFFFFFFFFFFFFFFFFFFFFFB0
:10105000FFFFFFFFFFFFFFFFFFFFFFFFFFFFFFFFA0
:10106000FFFFFFFFFFFFFFFFFFFFFFFFFFFFFFFF90
:10140000814205D051F8043B40F8043B8242F9D8B0
:10141000704700BF044A05494FF0000342F8043BFF
:101420009142FBD8704700BFC03A0020204B0020FB
:101430002DE98848BFF34F8F00BF00BF00BF00BF3A
:1014400000F07AFA674B0822C3F8542100BF00BFAE
:1014500000BF00BF00BF00BF00BF00BF00BF00BF94
:1014600000BF00BF00BF00BF00BF00BF5E4A5F49B2
:101470005F48FFF7C5FF5F4A5F496048FFF7C0FF5D
:101480005F4CFFF7C7FF4FF470004FF0E0210023DF
:101490005C4AC1F8880D44F823200133B02BFAD1FF
:1014A000594B8021594A03F8011B9342FBD14FF05D
:1014B000E0254C4E4FF08039DFF880B1DFF880A195
:1014C0004FF0FF31C5F8084D0027C6F80491C6F863
:1014D00000B1C6F8F490C6F8F0A0D5F8243DDFF8C6
:1014E000648143F4E0234A4AC5F8243DD8F81C300F
:1014F00023F07F0343F04003C8F81C30D8F82430B1
:1015000023F07F0343F04003C8F824309166D1668E
:101510001167516700F018FA3E4B3F49A3633F4BF8
:10152000E36363236B610323AF612B613C4BC5F81D
:10153000203DD5F8FC3D43F08073C5F8FC3D394BA8
:101540001A6842F001021A605B680B6000F084FACE
:10155000C6F804913448C6F800B1C6F8F490C6F84D
:10156000F0A000F029FCD8F86C10304B304A41F460
:101570004051C8F86C101F60C3F80871C3F81871A7
:10158000C3F82871C3F83871936BDB0708D442F6AF
:101590001563284951651365936B43F00103936309
:1015A000234A254C936843F00113936000F0B8FB85
:1015B00000F0EEFB00F07EFA00F0C0F92368132B78
:1015C000FCD900F00FFB2368B3F5967FFBD300F046
:1015D000B9F900F0B5F900F0E7FB00F0D5FB30BF3A
:1015E000FDE700BF00800D40386A01004420006024
:1015F00000000000C03A0020808A01600000002046
:101600000038002099F2000000E400E0A0E400E0CF
:1016100000C00A4005E80000A84A002009E80000D0
:1016200000002020001000E00046C32300400840D6
:1016300000400D400000C056AC4A00201B1018208E
:101640000C0D111300C00F40054B4FF42A01054A41
:1016500005485A641864054A99639546FFF7E8FE01
:1016600000C00A40BFAAAAAA0700200000800620E6
:101670001BB9124B1B6F9B041ED400F03F000F4B95
:1016800022F0604221F0604140F489101867C3F8ED
:101690008010C3F890201A6F22F480521A671A6FD4
:1016A000002AFCDAD3F87011054A0A40C3F8702109
:1016B0001A6F22F480321A67704700BF00800D4015
:1016C000FF7F7FFF43690A4A03EB011010B4037ADE
:1016D000084C02EB0313D3E901321460C2681A60AC
:1016E00003690BB142691A605DF8044B704700BF93
:1016F0007C1D002061F801004369027E03EB0212A9
:1017000092F808C08C451CD01A7AFF2A19D0914251
:1017100010B5044616D01A7EFF2A06D00121D3E95F
:10172000002312681A4201D1217610BD064B052212
:10173000204603EB0C135B681A60FFF7C3FF2176AA
:10174000F3E770470021EAE77C1D002043690A4A5D
:1017500003EB011010B490F82830084C02EB03138F
:10176000D3E901321460C26A1A60036B0BB1426B99
:101770001A605DF8044B70477C1D002061F8010081
:101780004369427E03EB021292F828C08C451ED0BA
:1017900093F82820FF2A1AD0914210B5044617D09A
:1017A00093F83820FF2A06D00121D3E900231268DC
:1017B0001A4201D1617610BD064B0522204603EB8B
:1017C0000C135B681A60FFF7C1FF6176F3E770479F
:1017D0000021EAE77C1D0020164942698B6B23F447
:1017E0007C0343F4802370B58B630446124DD2E929
:1017F00000130A681A4303690A60022200211A6171
:101800000E4A19619A6401225A629D624FF4303582
:10181000DD624FF001159E6C1E6519629D651A61AF
:10182000017EFFF74FFF617E2046BDE87040FFF765
:101830008DBF00BF00C00F40B80B05053B3728190E
:10184000B1F5607FF0B50E468DB028BF4FF46076DD
:101850000F46054672B62E4B0024702218602146B2
:101860002C4B2D481C8000F097FACFB121462A4816
:101870004FF0010C4A0901F01F03013150F82240DA
:101880000CFA03F38E4243EA040340F82230F1D805
:10189000284600234380013300F582709E42F9D828
:1018A0001E4C257815B162B60DB0F0BD082000F0D1
:1018B0008BFA1B4B80220646009302A90693194B14
:1018C0000271056008A8029300F07AFA06A9164A88
:1018D000304600F065FA069B08A8DB689847009B35
:1018E00002A8DB6898472378002BDCD10F4B104A05
:1018F000C3F858210F49D0204FF0E023402281F84F
:101900004600C3F808210123237062B60DB0F0BD74
:1019100018450020D04A002020450020E34A00203E
:101920006C1800205DE200001B1001000038002050
:1019300069E2000000E400E0704700BF704700BFAC
:10194000704700BF00BF704710B44FF0E023002184
:1019500010243148C3F8941DC3F89C4D1124C3F8DA
:10196000A00D2E48C3F89C4D1224C3F8A00D2C489E
:10197000C3F89C4D2B4AC3F8A00D2B4C42F0150226
:101980002A48C3F89C4DC3F8A00D294C2948C3F838
:101990009C4DC3F8A00D284CC3F89C2D2748284A1D
:1019A000C3F8A04DC3F89C0DC3F8A02D02F5A022EA
:1019B000244C0C322448C3F89C4DC3F8A02D234A74
:1019C000C3F89C0D224CC3F8A02D02F14062C3F86D
:1019D0009C4D2048C3F8A02D0C32C3F89C0DC3F8D1
:1019E000A02D00BF00BF00BF00BF00BF0122C3F891
:1019F000942DBFF34F8FBFF36F8FC3F8501FBFF30A
:101A00004F8FBFF36F8FD3F8142D5DF8044B42F462
:101A10004032C3F8142D70473F000010250008071E
:101A200009001000204B00201300200021000207B5
:101A300014000020250008130900001016002020C3
:101A400027000B1317000040180000602F000B0741
:101A5000190000701A000080F0B4154A40274FF4B6
:101A600080314FF480564FF400554FF4404443F218
:101A70004200136913F0020F0ED113F4005F0FD070
:101A800013F4805F0ED0002BF3DA13F4803F0BD1F8
:101A90005B060BD5F0BC7047946151619061E8E73B
:101AA0005561E6E75661E4E79161E2E75761E0E7F7
:101AB00000800D403F4A03203F49F3EE095AD2F817
:101AC00080304FF0000C9FED3D6A23F001039FED45
:101AD0003C5A30B4C2F88030C2F89000D1F8E0101F
:101AE000384DCBB2384C39482B6007EE903A0B0D8D
:101AF000C1F30B21F8EEE77A06EE903A07EE101AE2
:101B0000334BB8EEC77A2160F8EEE66A314937EE1A
:101B1000C66A37EEC55A76EEC76A77EEE57A26EEE4
:101B2000266AC3ED006A25EE265AD2F8803067EEA9
:101B3000A64AC0ED007AC6EE275A274885EE276AE6
:101B4000C4EEA76A75EE875AFCEEE55A36EE076AD0
:101B500015EE904ABCEEC66A43EA045376EE877AE5
:101B6000C2F8803016EE103AD2F89041FCEEE77AD7
:101B700001EA0341214317EE903AC2F89011C3F3F2
:101B80000B03D2F890110B431449C2F89031D2F8EC
:101B9000803043F00203C2F88030114B80F840C01F
:101BA000C1F840314FF0E023012230BCC3F80821D6
:101BB000704700BF00810D4000441F400000AA4252
:101BC0000000B442984A0020944A00209C4A002019
:101BD000A04A00200000FF0F00E400E000380020D1
:101BE00085F40000314B40F6617210B5C3F8202136
:101BF00040F2044400F0C4F82D4A2E49D2F8803057
:101C00002D4843F00303C2F880302C4BC1F86041EB
:101C100002681A4203D1D1F8A8319A071BD0254A8D
:101C20004FF00041244B5963D2F8403143F0020396
:101C3000C2F84031D2F840319B07FBD44FF400305A
:101C40004FF0E0211C4B4FF00042C1F88C021920EC
:101C50009A6300F0ADF8184A4FF08040154C00210F
:101C600090630A20164B11604FF42072C4F8A8014B
:101C7000184600F091F84FF4800203464FF48100BB
:101C800040F243111860C4F858311A640D4B0E4AE3
:101C9000C4F84811C3F804224FF0E0224FF4003199
:101CA0000123C2F80C11C4F8403110BD00800D4072
:101CB00000C00F4000002E4000900D40001C1E0090
:101CC00000000020003800206DF6000008B50E4B23
:101CD0001B6E9B0700D4FBBE72B60C4B00200C4A57
:101CE000C3F8400103F160430A49A3F55F2311647F
:101CF0009D46BFF34F8F4FF400130748074ADB6937
:101D000002609B68984700BF00441F4000002E40BF
:101D100000C00A400300200000802020000012EBD9
:101D2000104BA020104AD96E41F4403110B4D9664E
:101D300040F23764D96E41F44071D96654649064BE
:101D4000936C1B06FCD4094A40F23761A02351640E
:101D50009364936C13F08003FBD1054A13705DF814
:101D6000044B704700C00F4000400C4000800C4006
:101D7000E94A0020F8B500BFF8BC08BC9E46704791
:101D80005FF800F0DDFD00005FF800F055EF0000A7
:101D90005FF800F081F100005FF800F0155B0100D2
:101DA0005FF800F0DDE800005FF800F0955D0100ED
:101DB0005FF800F071ED00005FF800F081EA0000CC
:101DC0005FF800F0D1E200005FF800F099F0000049
:101DD00045000000254B0000114C0000D94C0000CC
:101DE000ED510000055200001D5200003552000068
:101DF0004D520000655200007D52000095520000D7
:101E0000AD520000C5520000DD52000081570000B5
:101E100099570000B1570000C9570000E157000072
:101E2000F957000011580000295800005D580000C3
:101E30008D580000A5580000BD580000D55800007E
:0C1E4000ED580000A16B0000E1E900007B
:101E4C0080C00F40000000031900000010000000CB
:101E5C00E8841F4001000000FF000000FF000000AC
:101E6C00000000000000000018000000100000003E
:101E7C00E4841F4001000000FF000000FF00000090
:101E8C0000000000000000001F00000051E20000F4
:101E9C0070C00F40000C0000110000001100000089
:101EAC00E0841F400200000024000000120000002B
:101EBC00E0841F4001000000100000001100000031
:101ECC00DC841F400200000025000000120000000E
:101EDC00DC841F40010000001E00000045E20000F1
:101EEC0070C00F40C0000000120000001300000082
:101EFC00D0841F4001000000FF000000FF00000024
:101F0C00000000000000000013000000130000009F
:101F1C00CC841F4001000000FF000000FF00000007
:101F2C0000000000000000001C00000039E200006E
:101F3C001603550053004200200053006500720048
:101F4C00690061006C000000180354006500650016
:101F5C006E00730079006400750069006E006F00FC
:101F6C000403090409026200030100C032080B00DB
:101F7C000202020100090400000102020100052412
:101F8C0000100105240101010424020605240600A9
:101F9C00010705820310001009040100020A000069
:101FAC0000070503024000000705840240000009F9
:101FBC0004020002FF6AFF000705810240000107CE
:101FCC00050102400001000009026200030100C08B
:101FDC0032080B0002020201000904000001020297
:101FEC00010005240010010524010101042402064E
:101FFC0005240600010705820310000509040100F1
:10200C00020A000000070503020002000705840213
:10201C000002000904020002FF6AC70007058102E2
:10202C000002010705010200020100000A0600027D
:08203C00EF0201400100000069
:10204400000000000000000000000000000000008C
:10205400000000000000000000000000000000007C
:102064000548064B1B1AD90F01EBA301491002D0F6
:10207400034B03B118477047C03A0020C03A002010
:102084000000000008B5054B1BB105490548AFF336
:102094000080BDE80840FFF7E3BF00BF0000000078
:1020A400044A002000D401604069704790ED020B9F
:1020B400704700BF0069704707EE901A9FED065BFA
:1020C400B8EE677B90ED026B27EE057B87EE060B7F
:1020D400B7EEC00B704700BF0000000000408F4007
:1020E40081657047806D704701657047006D70476A
:1020F40041657047406D704708B50368D3F88C306C
:10210400984700B1006808BD08B50368D3F88C305F
:10211400984700B1406808BD0023BFF35B8F80F887
:102124008430704700000000B0B582B004460D460C
:10213400002100AF84B06A4610467A6003F066FF5F
:1021440023687A682946DB6C20469FED030B984789
:102154000837BD46B0BD00BF00000000000000000D
:10216400B0B582B004460D46002100AF84B06A4683
:1021740010467A6003F040FF23687A682946DB6CD6
:1021840020469FED030B98470837BD46B0BD00BFFE
:102194000000000000000000F8B500AF8AB184B070
:1021A40004460D4600216E46304603F03BFF23688B
:1021B40032462946DB6C20469FED050B9847BD4609
:1021C400F8BD054B5321054A054813F039FA00BF01
:1021D4000000000000000000440F0020540F002005
:1021E4009C0F00204FF001028430D0E84F3FC0E83C
:1021F400412F0029F9D1DBB2BFF35B8F002BF4D15F
:10220400704700BF4FF001028430D0E84F3FC0E870
:10221400412F0029F9D1D8B2BFF35B8F80F00100C0
:10222400704700BF183004F027BA00BF036810B528
:10223400D3F88C301446984718B1214604F004FCB6
:10224400012010BD00000000DFED0B7A90ED025B71
:1022540087FE800AB7EEC00A9FED056B20EE050BE2
:1022640080EE067BFCEEC77B17EE900A704700BF3A
:102274000000000000408F4000000000F8B5DE8838
:1022840000F170051C46174604362846314603F013
:1022940007FE60B10146E288204641F8047B03F062
:1022A400E7FE31462846BDE8F84003F027BE034B5D
:1022B4001E21034A034813F0C3F900BF800700201E
:1022C4004C0800209C0F002010B50C1E82B00ADDC3
:1022D4005C30019003F0D6FDA102019802B0BDE884
:1022E400104003F0ABBD034BB921034A034813F07C
:1022F400A7F900BFCC120020DC1200209C0F0020A4
:1023040010B50C1E82B00ADD7030019003F0BAFDE6
:10231400A102019802B0BDE8104003F08FBD034B49
:10232400BF21034A034813F08BF900BF18130020A0
:10233400281300209C0F002008B5034AE221034B18
:10234400034813F07DF900BF440700203407002040
:102354009C0F002008B5034AEE21034B034813F0F9
:102364006FF900BFA4080020340700209C0F002050
:102374002DE9F04390461F46026D0E46294B00217D
:1023840083B09A42316046D1814600F1850C4FF00A
:10239400010EDCE84F4FCCE845EF002DF9D1E4B253
:1023A400BFF35B8F002CF4D109F17005284603F0CC
:1023B4006DFDA8B101A92846019403F0C1FDC0B187
:1023C400019A132A1BD997421FD301464046012480
:1023D40051F8043B33600EF0E5FD284603F0B6FDEA
:1023E40000232046BFF35B8F89F8853003B0BDE836
:1023F400F0830D4BCF210D4A0D4813F021F90D4BFD
:10240400D0210A4A0A4813F01BF90B4BD121074A81
:10241400074813F015F9094BC721044A044813F07F
:102424000FF900BF3D020000580E0020080E0020E6
:102434009C0F00209C0E0020C40E0020600D002084
:102444002DE9F84F2DED028B9FED338BB4EEC80BC5
:10245400F1EE10FA5ADB9046002A51D00368054683
:10246400314A0F469B6988FE008B046993423FD131
:1024740090ED020B9FED2A6B05F184034FF0010CE4
:1024840080EE067B27EE087BFCEEC77B17EE906A96
:102494002644D3E84F4FC3E84ECFBEF1000FF8D126
:1024A400E4B2BFF35B8F002CF3D1B8F806A005F1BA
:1024B4005C0B0AF1040A5846514603F0F1FC8146CC
:1024C400C0B10146B8F80620404641F8047B03F049
:1024D400CFFD58465146C9F8046003F00FFDBFF321
:1024E4005B8F85F884400120BDEC028BBDE8F88F3A
:1024F4009847BFE70D4B83210D4A0E4813F0A0F80F
:102504000D4B74210A4A0B4813F09AF80B4B7321B4
:10251400074A084813F094F8000000000000000087
:102524000000000000408F406D00000048100020B3
:10253400E80F00209C0F002038100020D80F002046
:102544002DE9F04F2DED068B9FED759B43EC182B79
:1025540085B0B4EEC98B00AFF1EE10FA3E6DC0F257
:10256400D680002E00F0CD8007F154028346304619
:102574000AEE101AFA6015F023FE8246002800F0D5
:10258400BA80C000DBF8102089FE089B0830ADEB50
:10259400000DDBF800008469E8466548844240F099
:1025A40087809BED020B29EE009B00245146404698
:1025B400013E4546A1469FED5C6B89EE067BBCEE71
:1025C400C77B17EE103A13441A4603F00BFD16F8B6
:1025D400013F623B112B12D8DFE803F009111111FE
:1025E4005211411111111111111111111125B8F8C4
:1025F4000430A34267DD85F80890C5F80C900134D7
:102604000835A245E3DCDBF80040B0EE480B424657
:102614001AEE101A5846E36C98471437BD46BDECC1
:10262400068BBDE8F08FFB68B8F80420191D186804
:10263400A242F96041DD002857D04FF00203E86060
:10264400013408352B7015F0BBFDB8F80630A245EF
:1026540003F101031844A8F80600B8DCD3E7FB68CB
:10266400B8F80420191D1B68A242F96037DD013453
:10267400EB604FF003030835A2452B70A7DCC2E7DB
:10268400FB68073323F0070393ED007B0833FB60FB
:10269400B7EEC77BB8F80430A3421ADD01344FF01B
:1026A400010385ED037A0835A2452B708FDCAAE778
:1026B4007A605846A0477A6875E71E4B94211E4AF3
:1026C4001E4812F0BDFF1B4B69211D4A1B4812F026
:1026D400B7FF184B73211B4A184812F0B1FF154B72
:1026E4008221194A154812F0ABFF184B9521124A62
:1026F400124812F0A5FF164B3A21164A0F4812F061
:102704009FFF154B5C21154A154812F099FF154B94
:102714005B21124A124812F093FF00BFAFF300800E
:1027240000000000000000000000000000408F4096
:102734006D000000F01100208C120020B811002060
:10274400101200203412002060120020C012002059
:102754008811002098110020741100201C11002001
:102764009C0F0020D80F0020B5EEC00B70B5F1EE21
:1027740010FA1D46294B80ED020B036036DD00295B
:1027840046DD002A16463DDD002D35DB4FF0000303
:1027940004460361C0E915330CBF2B46204B1830A7
:1027A40083630023BFF35B8F80F86C30BFF35B8FD0
:1027B40080F86D30882340F8043C03F083FE63699D
:1027C400B102034404F15C00636103F037FB636905
:1027D4000246A90204F170001344636103F02EFB66
:1027E4006369024620461344636170BD0D4B272183
:1027F4000D4A0E4812F024FF0D4B2A210A4A0B48B9
:1028040012F01EFF0B4B2921074A084812F018FF4B
:10281400094B2821044A054812F012FF78150020BC
:102824003D02000064130020781300209C0F002058
:10283400B8130020CC120020AC130020084B10B5B4
:10284400044640F8183B03F055FE04F15C0003F025
:1028540019FB04F1700003F015FB204610BD00BF06
:102864007815002018B10368D3F88C30184710B5D8
:10287400FFF762FD28B1944618301A46634603F008
:1028840099BE10B5FFF766FD00487047140C002090
:102894000020704702207047034B99420CBF00F59B
:1028A4003C700020704700BF99A8300142B100235A
:1028B40000210448516011721060D36013615361A8
:1028C40000207047340B0020704700BFB0B511469C
:1028D40000AF82B0056801EB83046A462D6CC2E93F
:1028E40000140021A847BD46B0BD00BF2DE9F84340
:1028F40000AF2BB316466A4600211D46A2EBC30265
:102904004FEA850995460268E846546C4246A0475A
:10291400002308EB85041A46002D09DD08EB83012A
:1029240006EB820C51F804EBA1424CF808EBF9D108
:102934002B444C440AB90122EEE7BD46BDE8F883B6
:10294400034B40F22D61034A034812F079FE00BFA5
:102954004C0B0020580B0020A00B002010B5084B96
:10296400044600F51E70236002F0A6FE04F53C70D8
:1029740004F066F82046FFF761FF204610BD00BF53
:10298400AC140020014B132103F098B8551F00002C
:10299400014B132103F092B8AD0B0000014B13213E
:1029A40003F08CB8E50B0000014B132103F086B84B
:1029B400390C0000014B132103F080B8550C0000C2
:1029C40010B5114682B00023054C9FED060A022281
:1029D400CDE90014194602F0DFFC02B010BD00BFBF
:1029E400450900000200004B10B5114682B00023D7
:1029F400054CB0EE080A0222CDE90014194602F093
:102A0400CBFC02B010BD00BF5109000010B5114647
:102A140082B00023054CB2EE000A0222CDE9001474
:102A2400194602F0B9FC02B010BD00BF5D090000F8
:102A340010B5114682B00023054C9FED060A03220F
:102A4400CDE90014194602F0A7FC02B010BD00BF86
:102A5400310D000000007A4410B5114682B0002305
:102A6400054CBFEE000A0222CDE90014194602F01B
:102A740093FC02B010BD00BF910D000010B51146CB
:102A840082B00023054C9FED060A0322CDE9001411
:102A9400194602F081FC02B010BD00BF510D0000C8
:102AA40000007A4410B5114682B00023054CB0EE04
:102AB400000A0122CDE90014194602F06DFC02B0AF
:102AC40010BD00BF050F000010B5114682B00023F1
:102AD400054C9FED060A0322CDE90014194602F0C5
:102AE4005BFC02B010BD00BFD10D000000007A44B1
:102AF40010B5114682B00023054CB7EE000A14222B
:102B0400CDE90014194602F047FC02B010BD00BF25
:102B1400FD10000010B5114682B00023054C9FED56
:102B2400060A0322CDE90014194602F035FC02B06E
:102B340010BD00BF110E000000007A4410B511460C
:102B440082B00023054CB7EE000A1422CDE900142C
:102B5400194602F021FC02B010BD00BF191100009B
:102B640010B5114682B00023054CB0EE000A0222D3
:102B7400CDE90014194602F00FFC02B010BD00BFED
:102B84006909000010B5114682B00023054C9FED81
:102B9400060A0222CDE90014194602F0FDFB02B038
:102BA40010BD00BF750900000000A04210B5114619
:102BB40082B00023054CB3EE060A0222CDE90014CC
:102BC400194602F0E9FB02B010BD00BF590F000026
:102BD40010B5054C82B0134600F5A0710122009493
:102BE40003F048F802B010BD212B000030B50B49AA
:102BF40085B0134604460091002200F5A671084DE5
:102C0400039303F037F8039B002204F5FE7120467A
:102C1400009503F02FF805B030BD00BFC91F0000B8
:102C24004D23000010B5054C82B0134600F5AE717B
:102C34000022009403F01EF802B010BDBD0E000087
:102C440010B5054C82B0134600F5FE7101220094C4
:102C540003F010F802B010BD4D23000010B5054C70
:102C640082B0134600F52E710122009403F002F89D
:102C740002B010BD2518000010B5054C82B01346F3
:102C840000F52E710022009402F0F4FF02B010BD92
:102C94002518000010B5054C82B0134600F5AA7142
:102CA4000022009402F0E6FF02B010BD710C000097
:102CB40030B5002383B015460A499FED0B0A022262
:102CC400019119460095044602F066FB0749012369
:102CD40002222046CDE9005104F5427102F024FBA2
:102CE40003B030BD390F000000000042910E000017
:102CF40010B5064C82B0002300F5B271CDE9002472
:102D0400032202F011FB02B010BD00BFFD0E000053
:102D140010B5012382B0054C00F5C671CDE900243D
:102D24001A4602F001FB02B010BD00BFF10C000016
:102D340010B5064C82B0002300F5C871CDE900241B
:102D4400032202F0F1FA02B010BD00BF891800009E
:102D540010B5064C82B0002300F5C671CDE90024FD
:102D6400012202F0E1FA02B010BD00BFF10C000034
:102D740010B5064C82B0012300F5C871CDE90024DA
:102D8400032202F0D1FA02B010BD00BF891800007E
:102D940010B5064C82B0012300F5EC71CDE9002496
:102DA400032202F0C1FA02B010BD00BF5926000090
:102DB40010B5012382B0054C00F5EE71CDE9002475
:102DC4001A4602F0B1FA02B010BD00BF190A0000A1
:102DD40010B5064C82B0002300F5EC71CDE9002457
:102DE400032202F0A1FA02B010BD00BF5926000070
:102DF40010B5064C82B0002300F50F71CDE9002414
:102E0400022202F091FA02B010BD00BFB10A000024
:102E140010B5064C82B0012300F50F71CDE90024F2
:102E2400022202F081FA02B010BD00BFB10A000014
:102E340010B5064C82B0002300F51D71CDE90024C5
:102E4400022202F071FA02B010BD00BFFD0A0000B8
:102E540010B5064C82B0012300F51D71CDE90024A4
:102E6400022202F061FA02B010BD00BFFD0A0000A8
:102E740010B5064C82B0002300F52A71CDE9002478
:102E8400022202F051FA02B010BD00BF511100003D
:102E940010B5064C82B0012300F52A71CDE9002457
:102EA400022202F041FA02B010BD00BF511100002D
:102EB40010B5064C82B0012300F53B71CDE9002426
:102EC400032202F031FA02B010BD00BFB10E0000BF
:102ED40010B5064C82B0002300F53B71CDE9002407
:102EE400032202F021FA02B010BD00BFB10E0000AF
:102EF400134600F1CC01002203F096BC30B5154610
:102F040083B000F1880100222B46044603F08CFCB8
:102F140000230948B2EE040A19460322CDE9005001
:102F2400204602F039FA2A4604F54571204603B0DA
:102F3400BDE8304003F04ABD310F000000F5B47124
:102F440003F044BD00F5FC7103F040BD01B17047CE
:102F540000F5297103F03ABD01B1704700F52D71F8
:102F640003F034BD01B1704700F52C7103F02EBDA0
:102F740000F53A7103F02ABD38B50446154600F54C
:102F8400447103F023FD2A4604F545712046BDE84B
:102F9400384003F01BBD00BF00F5467103F016BDB9
:102FA40010B5134684B000220C49044603930091E3
:102FB400114602F01BFA002209492046039B0091A6
:102FC400114602F013FA002206492046039B0091A1
:102FD400114602F00BFA04B010BD00BF89120000C4
:102FE400C52000003121000010B5134684B0002232
:102FF4000C49044603930091114602F0F7F90022AC
:1030040009492046039B0091114602F0EFF9002282
:1030140006492046039B0091114602F0E7F904B0EB
:1030240010BD00BF85120000852100003921000079
:1030340010B5134684B000220C4904460393009152
:10304400114602F0D3F9002209492046039B00915E
:10305400114602F0CBF9002206492046039B009159
:10306400114602F0C3F904B010BD00BF8908000086
:10307400D12100002921000010B5134684B000229C
:103084000C49044603930091114602F0AFF9002263
:1030940009492046039B0091114602F0A7F900223A
:1030A40006492046039B0091114602F09FF904B0A3
:1030B40010BD00BF9112000085270000E12300002D
:1030C40010B5134684B000220C49044603930091C2
:1030D400114602F08BF9002209492046039B009116
:1030E400114602F083F9002206492046039B009111
:1030F400114602F07BF904B010BD00BF1D30000082
:10310400A12400009512000010B5134684B00022DB
:103114000849044603930091114602F067F900221E
:1031240005492046039B0091114602F05FF904B063
:1031340010BD00BF8D120000C52B000010B5054C5A
:1031440082B0134600F502710222009402F0C0F925
:1031540002B010BDA122000010B5054C82B0134688
:1031640000F510710222009402F0B2F902B010BD11
:10317400252F000010B5054C82B0134600F51E71D2
:103184000022009402F09CFA02B010BDB52C00009D
:1031940010B5054C82B0134600F51E71012200944F
:1031A40002F08EFA02B010BDB52C000008B5034A37
:1031B4007321034B034812F043FA00BF341200207A
:1031C400F0110020B811002001B1704710B5054C72
:1031D40082B0134600F598710122009402F00EFBB0
:1031E40002B010BD8109000001B1704710B5054C53
:1031F40082B0134600F5B8710122009402F0FEFA81
:1032040002B010BDA909000001B1704710B5054C0A
:1032140082B0134600F5C0710122009402F0EEFA68
:1032240002B010BDCD09000001B1704710B5054CC6
:1032340082B0134600F532710122009402F0DEFAE6
:1032440002B010BD210B000001B1704710B5054C50
:1032540082B0134600F536710122009402F0CEFAD2
:1032640002B010BD450B000001B1704713460A4679
:1032740000F5827103F0D8BA01B1704713460A46CB
:1032840000F1F80103F0D0BA01B17047F0B583B092
:1032940005460C46164613460091022200F1C4016D
:1032A400064F03F02DFB3346224605F5DE71284612
:1032B400009702F0DFFC03B0F0BD00BFF125000071
:1032C400704700BF704700BF704700BF704700BF22
:1032D400704700BF704700BF054B9446994200D029
:1032E4007047044B00226146183003F063B900BFF5
:1032F4005BC65CCE992D000010B50A4B044600F560
:103304001E70236002F0D8F904F53C7003F098FBBA
:103314002046FFF793FA20464FF448710DF0DEFE85
:10332400204610BDAC1400202DE9F04FDFF8689062
:10333400044617469846DFF864A000F15C06DFF8FF
:1033440060B02DED088B83B004E051451CD03046AD
:1033540002F0FCFD304602F099FD054610B300254D
:1033640001A93046019502F0EBFD019B132B40F2BD
:103374006682236850F8041BD3F890304B45E4D0A0
:10338400024620469847E2E701465B462A4604F196
:10339400180003F00FF9DAE7991200005BC65CCE5F
:1033A400992D000023682046F0499B6D9847B8F199
:1033B400000F266940F33B82B7EE008ADFEDECAAEA
:1033C400DFEDEC9A08EB06099FEDEB9ADFEDEB8A53
:1033D4009FEDEBAAA36901367BB104F1180A9A6840
:1033E40011688E4209D92046D3E9033198475046E3
:1033F40003F02AF9A369002BF1D1D4F8881044F220
:10340400A712D4F83C014FEA512C94ED257A02FB23
:1034140000F0D4F88C2007EE900A11444CF07E5250
:10342400C4F83C01B8EEE76AC4F8881007EE902AA5
:1034340077EEC87A26EE2A6AB4EEE77AC4ED257AE6
:10344400B0EEC66AF1EE10FA40F3E481B0EE467ACB
:1034540084ED266AD4F89CC0B6EE003AD4F8A800ED
:10346400F5EE003A4FEA5C21D4EDC45A420AD4ED99
:10347400292A41F07E5167EE254A42F07E5294EDAE
:10348400C57A06EE901A67EE8A7A05EE902A24EE43
:10349400877A76EEC86A94ED2C4A75EEC85AD4F849
:1034A400B41027EE227A94EDBA5A76EEC36A002954
:1034B40075EEC35ABDEEC77AF0EEE66AF0EEE55A51
:1034C40017EE102A76EEE36A75EEE35A624466EE6E
:1034D400A96AC4F89C2065EEA95A66EEA62A25EED0
:1034E400A53A62EEA63A23EE257AE3EE896A63EE04
:1034F400A23AE7EE095A27EE037AE3EEA86AE7EE6A
:10350400285A36EEA47A67EE877A67EE847AFDEE5F
:10351400E77A17EE902A0244C4F8A820C0F27D810D
:10352400D4ED2E4AB0EE641A94ED5A7AB6EE004AFF
:10353400D4ED2F7AF5EE001A24EE877ADFED913A76
:1035440077EE817A9FED902ADFED902A013927EEFC
:10355400077AD4F8C820C4ED2E7AB0EE083AC4F83D
:10356400B410511C27EE247AFBFE477A77EE677A73
:1035740077EEC47AF0EEE77A77EEE17A67EEA37A33
:1035840067EEA73A23EEA77AE7EE427A27EE237A8C
:10359400E7EE227A67EEA47A67EE837A13D0B0EE70
:1035A400677AD4F8C410501C0968A6EE057A01EBBA
:1035B4008202A5EE847A37EE077A27EE047A82ED4A
:1035C400007AC4F8C800D4F8CC10D4EDC64A4A0A2C
:1035D40094ED7E5A9FED6E6A42F07E52D4F8D80084
:1035E40007EE102AD4F8D020D0F80CC037EE487A71
:1035F40011440268C4F8CC1027EE247A87FE457A79
:1036040087FE067ABBFE476ABDEEC65A15EE100A5F
:10361400411C8C4540F20D81D4F8E8C002EB8102D4
:103624008900DCF80CE092ED004A8645DCF80020C5
:1036340040F2FF80D4F804010A44D4F8F8E037EEED
:10364400465A410AB6EE003A4FEA5E2CF5EE003ACD
:1036540041F07E5152ED014A4CF07E5CD4F8FC20DE
:1036640007EE101A34EE644A06EE10CAD4F80811B4
:1036740037EE487ADFED472A36EE486A0144E4EE35
:10368400054AD4F8100137EE437A724436EE436AA1
:103694000028C4F8F820B0EEC77AC4F80411B0EEDC
:1036A400C66A74EEA66A37EE637A36EE636AE7EEAC
:1036B400A26A27EE297A26EE296A67EE073A26EEF1
:1036C400063A23EE875A23EE064AA5EE097AA4EEBB
:1036D400096A25EE235A24EE034AA5EE287AA4EEBD
:1036E400286A77EE061A27EE067AC0F29B8094EDDC
:1036F400454AB0EE44BAD4F820C1B0EE485A94ED2D
:10370400AC6AB6EE000A4FEA5C22F5EE000AA6EEB9
:10371400445A94EDAD1A42F07E5277EEA57AD4ED78
:10372400A95A64EE043A06EE102A94ED4A2AB0EE41
:10373400084A9FED193A36EE486AD4ED462A25EE3A
:10374400075A013877EEA47ADFED114A36EE406A63
:103754004E45A1EE885A72EE8B2AB0EEC67AB0EED0
:10376400656A37EE607AA5EE016A17E0EBC021DDE9
:10377400F6FFFF2FDB0FC940ABAA2ABE6257003CFD
:1037840000008043E40FC940C1AA2A3E8380003C64
:10379400000000003333333FCDCCCC3D27EE297AF3
:1037A400D7E9001227EE075AC4F8100126EE026A80
:1037B40002EB050E2944C4ED452A65EE075A05F1CE
:1037C4000405BDEEC66AA5EE897A65EE855A16EE45
:1037D400102A6244C4F82021A5EEA87A23EE876A51
:1037E400B0EE647AE6EE046AE6EE047AB0EE646A59
:1037F400A6EE836AA7EE837A81ED007A8EED006AE5
:103804007FF4E9AD4046C4F8109003B0BDEC088BDA
:10381400BDE8F08F94ED267A1CE6D4ED304A94EDA1
:103824002E1A81E694ED474A94ED45BA63E7B14612
:10383400E8E7064B4B21064A064811F001FF064B08
:1038440040F23F51054A064811F0FAFE540C00209C
:10385400940C0020C80C00209C0E00201C0C00209E
:10386400A00B002070B5002382B0144612499FEDCE
:10387400130A0C22019119460094054601F08CFDAF
:103884000021204602F06CFC0D4B01462046C91A6B
:10389400B1FA81F1490902F063FCB0F17E5F01D015
:1038A40002B070BD0022074E2346284611460096FA
:1038B40001F09CFD02B070BD1D0C00000000000072
:1038C4006E0ED606C910000070B51F4B82B01446A8
:1038D4000121002200932346054601F087FD1B4980
:1038E4002346002228460091012101F07FFD18495A
:1038F4002346002228460091012101F077FD002291
:103904001449234628460091114601F06FFD002119
:10391400204602F025FC104B01462046C91AB1FA94
:1039240081F1490902F01CFC0C4B984201D002B011
:1039340070BD00220A4E234628461146009601F027
:1039440055FD02B070BD00BF811200006D0B000078
:10395400710E00006D3000006E0ED60600409C45CE
:1039640015300000F0B52DED048B83B00446B0EEA5
:10397400409B9FEDD08A02AFFEF7F6FE2046CE4B69
:10398400B0EE491BB0EE480A04F53C7540F8883B9C
:1039940002F032FF6369C94E034404F19400636189
:1039A40002F0A4FE6369034404F19800636102F029
:1039B4008FFF63690246B0EE490B04F19C00134487
:1039C400636102F005FF6369B0EE490B034404F13F
:1039D400A800636102F0FCFE6369034404F1B400CF
:1039E400636102F097FE636929461844606104F13B
:1039F400C40002F07FFF6369B0EE480A1844B0EED9
:103A0400491B606104F1CC0002F0F6FE63692946AB
:103A140000221844606104F1D80002F05FFF63697A
:103A2400294600221844606104F1E80002F056FFC0
:103A34006369B0EE480A1844B0EE491B606104F1B2
:103A4400F80002F0D9FE6369B0EE491B1844B0EEE9
:103A5400480A606104F5827002F0CEFE636918447E
:103A6400606104F5887002F055FE63690246B0EEA9
:103A7400490B04F590701344636102F0A9FE636975
:103A84008F491844606104F5987001F0AFFE6369D2
:103A9400012218441146606104F59A7001F0EAFEAF
:103AA40062690023104419461A46606104F59E7049
:103AB40002F096FF63690246B7EE000A04F5A070AF
:103AC4001344636102F0C2F863690246B0EE480A27
:103AD40004F5A6701344636102F0B8F86369024602
:103AE400B0EE480A04F5AA701344636102F0AEF81C
:103AF40063690246B0EE480A04F5AE70134463618C
:103B040002F0A4F863690246B3EE0D0A04F5B2703C
:103B14001344636101F002FC6369F0EE480A00217A
:103B24000344B0EE480A04F5B470636102F048FF40
:103B3400636964491844606104F5B87001F056FE85
:103B44006369012218441146606104F5BA7001F0FA
:103B540091FE63695C491844606104F5C07001F02A
:103B640045FE6369012218441146606104F5C27080
:103B740001F080FE63690246B0EE480A04F5C6709F
:103B84001344636101F0CAFB6369B0EE480A03445D
:103B940004F5C870636101F0C1FB6369B0EE480AC3
:103BA40004F5CC7118446061204601F083FC63691C
:103BB40031461844606104F5DE7002F04FF8636921
:103BC400012218441146606104F5E27001F052FECE
:103BD4006369012218441146606104F5E67001F03E
:103BE40049FE6369B0EE480A034404F5EC7063616E
:103BF40001F094FB6369B0EE480A034404F5EE70E7
:103C0400636101F08BFB63693146034404F5F27090
:103C1400636102F023F8636901221844114660616C
:103C240004F5F87001F026FE6369F0EE480A0021FD
:103C34000344B0EE480A04F5FC70636102F0C0FE70
:103C440063690246B7EE000A04F5FE70134463612B
:103C540001F0FCFF636904F50271B0EE480A034405
:103C64002046636101F026FC636902469FED170A52
:103C740004F50B701344636101F0E8FF63690246C5
:103C8400B0EE480A04F50F701344636101F046FB7B
:103C9400636904F51071B0EE480A03442046636179
:103CA40001F008FC636902469FED090A04F51970E6
:103CB40013440FE000000000AC140020080D0020A5
:103CC40049AD8CFA928209958D9A13C90000F0438C
:103CD40000007043636101F0B9FF63690246B0EE0E
:103CE400480A04F51D701344636101F017FB63690E
:103CF4000022022118440023606104F51E70CDE9FE
:103D0400002301F085FC63690122042118446061E9
:103D140004F51F7001F0AEFD63690122032118440C
:103D2400606104F5217001F0A5FD6369012202219F
:103D34001844606104F5237001F09CFD636901225D
:103D440018441146606104F5257001F093FD636920
:103D5400012200211844606104F5277001F08AFDF6
:103D64006369F0EE480A00210344B0EE480A04F502
:103D74002970636102F024FE63690246B0EE480ACA
:103D840004F52A701344636101F0C8FA6369F0EE24
:103D9400480A00210344B0EE480A04F52C7063611C
:103DA40002F00EFE6369F0EE480A00210344B0EE0F
:103DB400480A04F52D70636102F002FE636902464D
:103DC400B7EE000A04F52E701344636101F03EFF60
:103DD400636941491844606104F5327001F006FDDD
:103DE4006369012218441146606104F5337001F0DF
:103DF40041FD636939491844606104F5367001F086
:103E0400F5FC6369012218441146606104F53770BA
:103E140001F030FD6369F0EE480A002103449FED90
:103E2400300A04F53A70636102F0CAFD6369024620
:103E3400B0EE480A04F53B701344636101F06EFA76
:103E44006369024642F2107128461344636102F02A
:103E5400D9FD63690246B0EE480A04F54270134482
:103E6400636101F05BFA6369F0EE480A00210344E0
:103E7400B0EE480A04F54470636102F0A1FD636981
:103E8400F0EE480A00210344B0EE480A04F54570F8
:103E9400636102F095FD6369F0EE480A0021034472
:103EA400B0EE480A04F54670636102F089FD636967
:103EB40084B00021034402A8636102F0A7F8094B0F
:103EC4000146002204F1180002F074FB2046043776
:103ED400BD46BDEC048BF0BD7A651B197E070A3B19
:103EE4009A99993E992D000070B50021054618460F
:103EF4001C4602F035F9114B01462046C91AB1FAA5
:103F040081F1490902F02CF90D4B98420AD00D4E6B
:103F1400234605F59871284604960022BDE87040B2
:103F240001F06CBC084E234605F59A7128460496A8
:103F34000022BDE8704001F0A3BC00BF6E0ED6069F
:103F440001BD647E8109000089110000F8B500AF4D
:103F540086B0022115466C4612680646204602F0D9
:103F640041F800232A462046194602F047F9A3885F
:103F7400012B0CD94FF07E530125224606F59E7184
:103F840030462574636102F02FFDBD46F8BDFFF78E
:103F94000DF900BF0021FFF7D9BF00BF70B50021A4
:103FA400054618461C4602F0DBF8134B0146204632
:103FB400C91AB1FA81F1490902F0D2F8B0F17E5F71
:103FC40004D0B0F1804F15D050B170BD0B4E00221B
:103FD4002346284604961146BDE8704001F006BA0F
:103FE400074E23460246014604962846BDE8704023
:103FF40001F0FCB9034EEAE76E0ED606A90F0000E5
:10400400610F0000F10F00000021134600B583B0DA
:104014000A460091FFF7C2FF03B05DF804FB00BF3E
:104024002DE9F04F83B002211546064602AF86B053
:10403400126802AC204601F0D5FFA388D3B34FF039
:1040440001094FF07E524B4584F80890E26031D06C
:104054004FF000084FF0000B06F1B40A234684F831
:1040640010904246C4F814B05146CDF80080304652
:1040740002F05AFB86B02A68022102AC204601F005
:10408400B1FFBDF80C30ABB12A4649464346204641
:10409400CDF814B08DF8109002F0B0F823464246E3
:1040A40051463046CDF8008002F03EFB0437BD4651
:1040B400BDE8F08FFFF77AF80021FFF7B1BF00BF2A
:1040C400B0B582B00121054602AF84B0126802ACDB
:1040D400204601F087FFA38873B1012307480849EC
:1040E4000322E06028462372019105F5B271009421
:1040F40001F01AF9BD46B0BDFFF758F80000CC41F5
:10410400FD0E00000021FFF7DBBF00BFF0B583B058
:104114000121054602AF84B0126802AC204601F0CA
:1041240061FFA388C3B101260C490D4A2346E1600F
:104134002846314626720092002201F057F9DFF832
:1041440024C02346002231462846CDF800C001F0A1
:104154004DF90437BD46F0BDFFF728F80000DC42F6
:1041640079200000B10C00000021FFF7CFBF00BF91
:104174000021FFF7CBBF00BF0021FFF7C7BF00BF7F
:10418400B0B582B00121054602AF84B0126802AC1A
:10419400204601F027FFA38873B10123074808498B
:1041A4000322E06028462372019105F5B271009460
:1041B40001F0BAF8BD46B0BDFEF7F8FF66667E4171
:1041C400FD0E00000021FFF7DBBF00BFB0B582B0D9
:1041D4000121054602AF84B0126802AC204601F00A
:1041E40001FFA38873B10123074808490322E06053
:1041F40028462372019105F5B271009401F094F8F8
:10420400BD46B0BDFEF7D2FF9A992141FD0E0000D4
:104214000021FFF7DBBF00BF70B50021054618463B
:104224001C4601F09DFF114B01462046C91AB1FA04
:1042340081F1490901F094FF0D4B98420AD00D4ECB
:10424400234605F5B871284604960022BDE870405F
:1042540001F0D4BA084E234605F5BA7128460496EF
:104264000022BDE8704001F00BBB00BF6E0ED60605
:1042740001BD647EA9090000A911000070B50021E8
:10428400054618461C4601F06BFF114B01462046BB
:10429400C91AB1FA81F1490901F062FF0D4B984244
:1042A4000AD00D4E234605F5C07128460496002217
:1042B400BDE8704001F0A2BA084E234605F5C2716C
:1042C400284604960022BDE8704001F0D9BA00BF28
:1042D4006E0ED60601BD647ECD090000C911000032
:1042E40030B500F5027585B00446114628460392A0
:1042F40001F07AF929460C4A0025039B20460092D6
:104304002A4601F0E5F8039B2A46294620460095F3
:10431400FFF782FF039B2A46294620460095FFF7B4
:10432400ADFF05B030BD00BFA122000070B5002173
:10433400054618461C4601F013FF114B0146204662
:10434400C91AB1FA81F1490901F00AFF60B1B0F16B
:104354007E5F13D10B4E0022234628460496114655
:10436400BDE8704001F042B8074E234602460146BC
:1043740004962846BDE8704001F038B870BD00BF0F
:104384006E0ED606391000008110000030B50023EF
:1043940083B0144609499FED0A0A0C22019119467B
:1043A4000094054600F0F8FF0022234628461146F3
:1043B4000092FFF7BBFF03B030BD00BF010C00004B
:1043C40000000000B0B582B00121054602AF84B000
:1043D400126802AC204601F005FEA38883B1E3888D
:1043E40002200A4A0A490C33E2600022207228465D
:1043F400E38023460091114601F0BEFABD46B0BDEC
:10440400044B9421044A054811F01AF9F80B0020D2
:10441400D10C0000F01100208C120020B8110020F3
:104424000021FFF7CFBF00BFB0B582B00121054620
:1044340002AF84B0126802AC204601F0D3FDA38819
:1044440083B1E38802200A4A0A490C33E26000225D
:1044540020722846E38023460091114601F08CFA2D
:10446400BD46B0BD044B9421044A054811F0E8F858
:10447400F80B0020110D0000F01100208C12002018
:10448400B8110020B0B582B00121054602AF84B056
:10449400126802AC204601F0A5FDA38883B1E3882D
:1044A40002200A4A0A490B33E2600022207228469D
:1044B400E38023460091114601F05EFABD46B0BD8B
:1044C400044B9421044A054811F0BAF8DC0B00208F
:1044D400F1090000F01100208C120020B811002016
:1044E40038B5044615460021FFF7CCFF2A4620467E
:1044F4000021BDE83840FFF797BF00BF2DE9F04128
:1045040082B00121054602AF84B0126802AC204695
:1045140001F068FDA388E3B101264FF000080022F2
:10452400234605F1C4012846E26032462672CDF8DE
:10453400008002F0E5F9DFF820C04346324605F575
:10454400EE712846CDE9004C00F0EEFEBD46BDE814
:10455400F081FEF72BFE00BF190A000070B50C466F
:1045640082B039B1012918D1002102B0BDE87040F0
:10457400FFF7C4BF134616460091012200F1C4019F
:10458400054602F0BDF90649234601222846CDE935
:10459400006105F5EE7100F0C7FE02B070BD00BF0A
:1045A400190A00002DE9F04182B0032115460646A0
:1045B40002AF88B0126802AC204601F013FDA38854
:1045C4001BB3E3884FF0020813492A4606332046FA
:1045D400E1600121E380002384F8088001F00EFEED
:1045E400A388434511D9E38830460C4A0C49053366
:1045F400E2610022E380234684F81880009111468A
:1046040001F0BAF9BD46BDE8F081064B9421064A93
:10461400064811F015F800BF040C00200C0C002013
:10462400710D0000F01100208C120020B811002040
:104634000021FFF7B7BF00BFF0B583B001210546E5
:1046440002AF84B0126802AC204601F0CBFCA38810
:1046540093B1E38802210B4A28460B4E063321729C
:1046640005F5CC71E2600022E3802346009600F059
:104674002FFF0437BD46F0BD044B9421044A05487E
:1046840010F0DEFFF00B00209D270000F011002049
:104694008C120020B811002030B5044685B00C4DB2
:1046A40000210292FFF7C8FF029B04F5CC7120465B
:1046B400012200950393029100F00AFF039B00225C
:1046C40002992046009500F003FF05B030BD00BFFD
:1046D4009D270000F0B583B00121054602AF84B0E8
:1046E400126802AC204601F07DFCA38893B1E388F4
:1046F40002210B4A002605332172E26005F1C40150
:10470400E380012223462846009602F0F9F8043794
:10471400BD46F0BD034B9421034A044810F090FFBA
:10472400E80B0020F01100208C120020B8110020AA
:1047340070B50021054618461C4601F011FD1B4BBF
:1047440001462046C91AB1FA81F1490901F008FD70
:10475400174B98420CD0174B98421FD0164B9842D7
:1047640011D0224628460021BDE87040FFF7C6BE9E
:10477400124E234605F5E671284604960022BDE84C
:10478400704001F07DB80E4E234605F5E2712846CF
:1047940004960022BDE8704001F072B82246284613
:1047A4000021BDE87040FFF795BF00BF6E0ED6062E
:1047B400B47CF56F2D035B7AAB4D003E1D250000E4
:1047C400491200000021134600B583B00A46009147
:1047D400FFF7AEFF03B05DF804FB00BF10B504465D
:1047E40082B0114600F5CC70019200F0FDFE019AF2
:1047F4000021204602B0BDE81040FFF76BBF00BFA8
:10480400B0B582B00121054602AF84B0126802AC93
:10481400204601F0E7FBA38883B1E38802200A4A1B
:104824000A490B33E260002220722846E3802346C3
:104834000091114601F0A0F8BD46B0BD044B94218F
:10484400044A054810F0FCFEDC0B00203D0A000081
:10485400F01100208C120020B81100202DE9F04145
:1048640082B003211546064602AF88B0126802AC36
:10487400204601F0B7FBA3881BB3E3884FF002087E
:1048840013492A4606332046E1600121E3800023D0
:1048940084F8088001F0B2FCA388434511D9E38869
:1048A40030460C4A0C490533E2610022E38023467A
:1048B40084F818800091114601F05EF8BD46BDE809
:1048C400F081064B9421064A064810F0B9FE00BF59
:1048D400040C00200C0C0020650A0000F0110020DC
:1048E4008C120020B81100200021FFF7B7BF00BFD1
:1048F400B0B582B00121054602AF84B0126802ACA3
:10490400204601F06FFBA38883B1E38802200A4AA2
:104914000A490B33E260002220722846E3802346D2
:104924000091114601F028F8BD46B0BD044B942116
:10493400044A054810F084FEDC0B0020890A0000BC
:10494400F01100208C120020B8110020F0B583B0C3
:104954000121054602AF84B0126802AC204601F082
:1049640041FBA38893B1E38802210B4A28460B4EEE
:104974000633217205F50271E2600022E3802346CA
:10498400009600F0A5FD0437BD46F0BD044B94210C
:10499400044A054810F054FEF00B0020A122000048
:1049A400F01100208C120020B811002070B50021F5
:1049B400054618461C4601F0D3FB0F4B0146204622
:1049C400C91AB1FA81F1490901F0CAFB60B10B4B74
:1049D400984209D00A4E00222346284604961146DE
:1049E400BDE8704000F002BD224628460021BDE823
:1049F4007040FFF7ABBF00BF6E0ED6062D035B7A87
:104A0400C529000030B585B0002104460392FFF7A4
:104A14009DFF00220C49039B20461546009104F596
:104A2400027100F055FD039B2A4629462046009555
:104A3400FFF7F2FB039B2A46294620460095FFF721
:104A44001DFC05B030BD00BFA1220000B0B582B08E
:104A54000121054602AF84B0126802AC204601F081
:104A6400C1FAA38883B1E38802200A4A0A490B33B6
:104A7400E260002220722846E3802346009111461A
:104A840000F07AFFBD46B0BD044B9421044A0548AA
:104A940010F0D6FDDC0B0020D50A0000F011002038
:104AA4008C120020B8110020F0B583B00121054616
:104AB40002AF84B0126802AC204601F093FAA388D6
:104AC40093B1E38802210B4A28460B4E0633217228
:104AD40005F51071E2600022E3802346009600F0A1
:104AE400F7FC0437BD46F0BD044B9421044A054845
:104AF40010F0A6FDF00B0020252F0000F01100207F
:104B04008C120020B811002070B50021054618460B
:104B14001C4601F025FB0F4B01462046C91AB1FA89
:104B240081F1490901F01CFB60B10B4B984209D09B
:104B34000A4E00222346284604961146BDE87040DA
:104B440000F054BC224628460021BDE87040FFF71F
:104B5400ABBF00BF6E0ED6062D035B7A712F00002B
:104B640000230F499FED0F0A70B5154682B01C460D
:104B7400064601910C221946009500F00DFC2B46C7
:104B84002246214630460094FFF710FF2B4622466A
:104B9400214630460094FFF7B7FF02B070BD00BF56
:104BA400910B000000000000F0B583B00121054620
:104BB40002AF84B0126802AC204601F013FAA38855
:104BC400CBB101264FF07E510C4A2346E1602846C2
:104BD400314626720092002200F008FCDFF820C063
:104BE4002346002231462846CDF800C000F0FEFBE3
:104BF4000437BD46F0BDFEF7D9FA00BF310E000000
:104C0400351100000021FFF7CFBF00BFF0B583B01E
:104C14000121054602AF84B0126802AC204601F0BF
:104C2400E1F9A3888BB100230121094A2846094EE2
:104C340021721946E26002229FED070ACDE900467F
:104C440000F0AAFB0437BD46F0BDFEF7AFFA00BF83
:104C5400CDCCCC3D510E0000000016442DE9F04FA0
:104C640083B002211446064602AF86B0126802AD34
:104C7400284601F0B7F9002322462846194601F0D8
:104C8400BDFAAB88012B33D94FF000084FF001096E
:104C94004FF0000B06F5887A2B4685F81090C5F87E
:104CA40014B04246CDF800805146304601F03CFD38
:104CB40086B02268022102AD284601F093F9BDF8BE
:104CC4000C30ABB122464B4649462846CDF814B0C9
:104CD4008DF8109001F092FA2B4642465146304628
:104CE400CDF8008001F020FD0437BD46BDE8F08F0B
:104CF400FEF75CFA0021FFF7B1BF00BFF0B583B047
:104D04000521054602AF8CB0126802AC204601F0C2
:104D140069F9A388002B49D00122254993422272C4
:104D2400E16043D02349022B227461613ED02249C1
:104D3400032B2276E16139D02049042B84F820200A
:104D4400616233D01E4923461E4884F8282000227D
:104D5400E16205F51F710090284600F091FD1A48A4
:104D6400234605F52171009000222846174E00F0D5
:104D740087FD1748234605F5237100900022284635
:104D840000F07EFD1348234605F5257100900022AE
:104D9400284600F075FD2346002205F527712846B4
:104DA400009600F06DFD0437BD46F0BDFEF7FEF938
:104DB400FC013B44AEE77F44AE62313E0010F64452
:104DC4005CAF10460D0F0000190F000039120000EF
:104DD400250F000029120000F0B5002583B0164607
:104DE400134629462A4600950446FFF77DF8264ACD
:104DF400334604F5DE71204600922A46234F00F024
:104E040039FF324629462046FFF7FAFC3246294646
:104E14002046FFF75FFC324629462046FFF768FD2F
:104E24001B4A334604F50B71204600922A4600F0D3
:104E340021FF324629462046FFF708FE154A33462D
:104E440004F51971204600922A4600F013FF3246F9
:104E540029462046FFF7DAFE324629462046FFF768
:104E64004DFF0D4A334604F5A071204600922A46B0
:104E740000F000FF33462A4604F5F27120460097FD
:104E840000F0F8FE03B0F0BDF1250000A9280000F1
:104E9400B10D0000F10D0000212B000070B50021C0
:104EA400054618461C4601F05BF9114B01462046A5
:104EB400C91AB1FA81F1490901F052F90D4B98422E
:104EC4000AD00D4E234605F5327128460496002279
:104ED400BDE8704000F092BC084E234605F53371DE
:104EE400284604960022BDE8704000F0C9BC00BF0B
:104EF4006E0ED60601BD647E210B0000E911000090
:104F040070B50021054618461C4601F029F9114BDD
:104F140001462046C91AB1FA81F1490901F020F984
:104F24000D4B98420AD00D4E234605F5367128469E
:104F340004960022BDE8704000F060BC084E234691
:104F440005F53771284604960022BDE8704000F04C
:104F540097BC00BF6E0ED60601BD647E450B0000F3
:104F64000912000030B500F5107585B004461146ED
:104F74002846039200F038FB29460C4A0025039B7F
:104F8400204600922A4600F0A3FA039B2A462946AB
:104F940020460095FFF782FF039B2A4629462046B8
:104FA4000095FFF7ADFF05B030BD00BF252F000011
:104FB40030B585B0002104460392FFF775FD002249
:104FC4000C49039B20461546009104F5107100F02E
:104FD4007FFA039B2A46294620460095FFF75EFF89
:104FE400039B2A46294620460095FFF789FF05B012
:104FF40030BD00BF252F0000B0B582B001210546A9
:1050040002AF84B0126802AC204600F0EBFFA38824
:105014008BB1E38800220B494FF0020C053328467C
:10502400E1601146E380234684F808C00092FFF74C
:105034007FFBBD46B0BD044B9421044A044810F0E4
:10504400FFFA00BFE80B0020F01100208C120020B2
:10505400B81100200021FFF7CFBF00BF0021FFF7E8
:10506400CBBF00BFF0B583B00121054602AF84B0C9
:10507400126802AC204600F0B5FFA38883B1012179
:10508400084A094E002321722846E26005F5427160
:105094000222CDE9004600F047F90437BD46F0BDD1
:1050A400FEF784F800007A44910E00000021FFF717
:1050B400D9BF00BFF0EE407A17281ED8DFE810F001
:1050C40028012501220119010701F300D200C400BF
:1050D400B600A8009A008C008100760018006900D0
:1050E4005D00510046003B00380035002E002000D2
:1050F400B5EE400AF1EE10FA50D19FED870A7047E1
:10510400B5EE400AF1EE10FA04D1F5EE400AF1EEE4
:1051140010FAF2D0B0EE670A0DF04EBBB5EEC00A3D
:10512400F1EE10FAE9DD0EF093B980FE600A7047E3
:1051340080FE200A7047B4EEE00ADFED777AB7EE1E
:10514400000AF1EE10FA20FE270A7047B4EEE00AD6
:10515400DFED717AB7EE000AF1EE10FA30FE270A9D
:105164007047B4EEE00ADFED6C7AB7EE000AF1EEB8
:1051740010FA88BFB0EE670A7047B4EEE00ADFEDBC
:10518400667AB7EE000AF1EE10FA58BFB0EE670A7D
:105194007047B5EE400AF1EE10FA04D1F5EE400A7C
:1051A400F1EE10FAA9D0B7EE000A7047B4EE600A27
:1051B4009FED590AF7EE007AF1EE10FA00FE270A85
:1051C4007047B4EE600A9FED540AF7EE007AF1EEF0
:1051D40010FA07FE800A7047BDEEC00AFDEEE00A31
:1051E40010EE103A10EE902A134300EE103AB8EE87
:1051F400C00A7047BDEEC00AFDEEE00A10EE103A98
:1052040010EE902A534000EE103AB8EEC00A7047F0
:10521400BDEEC00AFDEEE00A10EE103A10EE902A40
:10522400134000EE103AB8EEC00A7047BDEEC00A53
:10523400FDEEE00A10EE103A10EE902A134100EE53
:10524400103AB8EEC00A7047BDEEC00AFDEEE00A9F
:1052540010EE103A10EE902A934000EE103AB8EE99
:10526400C00A7047F5EE400AF1EE10FA3FF445AF7C
:10527400FDEEC07A17EE903AFDEEE07A17EE902A32
:1052840093FBF2F102FB113307EE903AB8EEE70A12
:10529400B5EEC00AF1EE10FA7FF531AFF0EEE00A98
:1052A40030EE200A7047BDEEE07A17EE102A002A8D
:1052B4003FF423AFFDEEC07A17EE903A93FBF2F180
:1052C40002FB113307EE903AB8EEE70A7047BDEEE1
:1052D400E07A17EE103A002B3FF40FAFBDEEC00A90
:1052E40010EE102A92FBF3F300EE103AB8EEC00A67
:1052F4007047F5EE400AF1EE10FA3FF4FEAE87EE89
:10530400A00A704720EE200A704730EE600A70470A
:1053140030EE200A704700BF000000000346002062
:1053240083ED000A704700BFF8B500AFBC692BB12C
:10533400012B01D1A388F3B9BD46F8BDA388002B86
:10534400FAD005461046227A012AF5D1012B19D14B
:1053540084B0D1ED000A6E4694ED030AFFF7AAFE6D
:105364002168304600F048FE324600212846FB6999
:105374009847BD46F8BD237A012BDDD1E3680B6065
:10538400BD46F8BD237C012BE2D1D4ED050A84B0DF
:10539400C1ED000A6E46DFE7F8B500AFBD69AB8822
:1053A4000BB9BD46F8BD044610462A7A012AF8D145
:1053B400012B12D184B06E46F0EE400A95ED030A3B
:1053C400FFF778FE2968304600F016FE32460021C9
:1053D4002046FB699847BD46F8BD2B7C012BE9D1DB
:1053E40084B095ED050A6E46E6E700BFF0B50129E5
:1053F40083B0054600AF05D0022922D091B10C3705
:10540400BD46F0BD9A88002AF9D01A7A012AF6D14D
:1054140084B0196893ED030A6A4610467A6000F076
:10542400EBFD06E084B019686A4610467A6000F025
:10543400EDFD7A6800213B6A284698470C37BD4643
:10544400F0BD9A882AB31C7A012C15D0022C0ED0F8
:10545400002CD4D184B01968114A6E46304600F04D
:10546400E1FD3246214628463B6A9847C7E71A467B
:1054740000213B6A9847C2E784B01968094A6C4620
:10548400204600F0CFFD2246002128463B6A98477B
:10549400B5E7054B6421054A054810F0D1F800BF73
:1054A400301C0020381C0020F0110020201900209E
:1054B400B811002010B50C4600F08EFC202200210B
:1054C40044F8040B204612F045FB002010BD00BF39
:1054D400012A2DE9F047DDF8209088461E4605D0C4
:1054E400022A144632D07AB1BDE8F0879B88002B9B
:1054F400FAD0337A012BF7D196ED030A00F06CFC55
:10550400C8F80000BDE8F0870746314A214618462E
:1055140000F04EFE60B3454608F1200A55F8044FEA
:1055240054B133682246002138462360C8474A46AE
:105534002146384600F03CFC5545EFD108F1040003
:1055440020220021BDE8F04712F004BB9B88002B09
:10555400CAD0337A012BC7D196ED037ADFED1D7AD9
:10556400C7FE877AFCEEE77AC1ED007ABDE8F087E2
:105574000146194A304600F01BFE60B1444608F16A
:10558400200554F8041F19B14A46384600F010FCAF
:10559400A542F6D1D2E735684246D8F800302B440C
:1055A400336052F8043F43B10134082CF9D10B4B5A
:1055B4003D210B4A0B4810F043F808EB84044A469B
:1055C40038463146FDF756F9606035608CE700BF18
:1055D400401C002000000000F00B0020481C0020AC
:1055E400A4190020B41C00200023024610B452F871
:1055F400044F8C4205D00133082BF8D15DF8044BDD
:10560400704700EB830000235DF8044B4360704750
:105614000EB470B583B0079C002C37D0651C0646C9
:10562400ED00284610F074F8306048B3002221469B
:1056340000F0D8FC08AB002C019315DD32684FF064
:10564400000C012091880733614523F00703B3EC74
:10565400027BB7EEC77B0DD00CF1010C107282ED0A
:10566400037A08326445EED1284603B0BDE87040A1
:1056740003B07047084B7321084A09480FF0E0FF54
:10568400084B1621084A09480FF0DAFF084B3A2163
:10569400084A03480FF0D4FFF0110020E819002055
:1056A400B8110020F01C0020181A0020081D00204A
:1056B40088110020081A0020006810F031B800BFDB
:1056C4002DE9F04F0D6883B014469A46DDF830900A
:1056D400AA889B880190002C45D19A42A8BF1A46FB
:1056E400541EAAB30AEBC2050E464FF00308043554
:1056F40017E0023A012A0ED837682146504600F0D6
:105704002FFDBA88A2425ADD07F1080303EB0B020E
:1057140003F80B805060013C083D631C17D0BAF8B5
:105724000430A34245DD15F8042C4FEAC40B012ACA
:10573400DFD1336829689888A04246DD0833013CEC
:10574400083D03F80B205B445960631CE7D13568BE
:10575400DAF800302A46019800212B604B4603B04A
:10576400BDE8F04F184723B39AF80830012B13D043
:10577400023B012B0DD80021504600F0F1FCAB8810
:105784009C421CDA0835032205EBC40305F83420D7
:10579400586003B0BDE8F08F9442DAF80C1014DAC4
:1057A400083505EBC40205F83430516003B0BDE898
:1057B400F08F094B6421094A09480FF041FF064B59
:1057C4008221084A06480FF03BFF034B7321064A27
:1057D40003480FF035FF00BFF0110020B819002076
:1057E400B8110020CC180020E81900200029034635
:1057F4004FF0000008BF0121196070472DE9F843FC
:105804000E4600AF9946144632B1012A01D19B8855
:105814000BBBBD46BDE8F88305460968144884B04F
:105824006FF004020023A1FB0001E8460FF08AFD9B
:10583400D9F80010530A3260404600EE103ABAEE2E
:10584400E40A00F0D9FB4246214628463B6A9847C1
:10585400BD46BDE8F88399F80830012BD9D1D9EDBC
:10586400037AFCEEE77AC1ED007ABD46BDE8F88321
:10587400C160A81003460020C3E90012704700BFAE
:105884002DE9F043012A83B00C4600AF06D0022A6A
:1058940049D0DAB10C37BD46BDE8F0839A88002AB6
:1058A400F8D0197A0129F5D1D3ED037A012AFDEE56
:1058B400E77AC4ED007AEDD01A7C012AEAD1D3ED5F
:1058C400057AFDEEE77AC4ED017AE3E70A68054656
:1058D40099888A4237DA6068891A002802DD814291
:1058E400A8BF014600293BD04A1C99466B46D60006
:1058F400A3EBC20359F8082B9D46E846404600F046
:1059040071FB2168A6F1080208F1080009EBC10146
:105914000BF048FBBB6A42460021284698470C37E7
:10592400BD46BDE8F0839A88002AB3D01A7A012ACA
:10593400B0D1D3ED037A0C37FDEEE77AC1ED017AED
:10594400BD46BDE8F08384B019686A4610467A60A3
:1059540000F05CFB7A6801212846BB6A984799E706
:10596400024B3A21024A03480FF06AFE88110020D4
:10597400C4190020B81100202DE9F04182B0054679
:10598400464A002100AF84B018461C466E4600F01B
:105994000FFC98B121682846796000F0CBF979684A
:1059A400B7EEC00B304600F027FB324600212846F4
:1059B4003B6A98470837BD46BDE8F0810146384A3E
:1059C400204600F0F5FB68B121682846796000F0B4
:1059D400CBF900EE100A79683046B8EEC00A00F040
:1059E4000BFBE2E701462F4A204600F0E1FB70B9C9
:1059F40001462D4A204600F0DBFB70B12168304699
:105A040007EE901AB8EE670A00F0F6FACDE72168BF
:105A14002846796000F0BAF9DBE70146234A2046BC
:105A240000F0C6FB0028C5D00121204600F098FBF9
:105A340001462846FCF716FF80460028BAD01C4AC7
:105A44000221204600F0B4FB40B198ED010A304633
:105A54002168B8EE400A00F0CFFAA6E7154A022101
:105A6400204600F0A5FB40B198ED020A30462168BB
:105A7400B8EE400A00F0C0FA97E70F4A0221204628
:105A840000F096FB002895D098ED040A3046216872
:105A9400B8EE400A00F0B0FA87E700BFDC0B002044
:105AA400441D0020581D0020F80B0020040C002089
:105AB4006C1D00200C0C0020741D0020F0B583B078
:105AC4001D46938800AF13B90C37BD46F0BD137A59
:105AD4001446012BF8D10646D2ED037A1429F3D8E3
:105AE400DFE801F01B20252A2F34393E43484D526C
:105AF400575C5F67717F8D900B00B8FE670A84B0B6
:105B040021686A4610467A6000F076FA7A680021C5
:105B14003046A8470C37BD46F0BDB0EE670A0CF01E
:105B24001FFEECE7B0EE670A0CF0FCFEE7E7B0EE10
:105B3400670A0CF0C5FDE2E7B0EE670A0CF0ECFD75
:105B4400DDE7B0EE670A0CF055FFD8E7B0EE670A60
:105B54000CF034FED3E7B0EE670A0DF009FECEE791
:105B6400B0EE670A0CF08EFEC9E7B0EE670A0DF0DE
:105B740003FFC4E7B0EE670A0CF056FEBFE7B0EED1
:105B8400670A0DF015F8BAE7B0EE670A0DF03AF8B7
:105B9400B5E7B0EE670A0DF083FBB0E7B0EEE70AB5
:105BA400ADE7F5EEC07AF1EE10FA2EDC9FED1D0A9A
:105BB400A5E7F5EEC07AF1EE10FAF7DDB0EE670A6C
:105BC4000DF0E0FB9BE7F5EEC07AF1EE10FAEDDDA7
:105BD400B0EE670A0DF0D6FBDFED137A20EE270A4C
:105BE4008DE7F5EEC07AF1EE10FADFDDB0EE670A6C
:105BF4000DF0C8FBDFED0D7A20EE270A7FE7BAFE31
:105C0400670A7CE7BBFE670A79E7F5EE407AF1EEB6
:105C140010FA02D4B1EEE70A71E7B0EE670A0CF0AD
:105C24005FFE6CE7000000003BAAB83FD95BDE3E94
:105C340008B5034A6421034B03480FF001FD00BF7C
:105C44002C190020F0110020B81100200346012275
:105C540000201A7083ED010A704700BF10B50323BA
:105C640004460846237000F025FF034600206360C5
:105C740010BD00BFF0B583B00D46144600AFA2B10D
:105C8400012A0FD19A88002A4BD01A7A012A3AD0D5
:105C9400023A012A06D80322002118462A7000F08D
:105CA4005FFA68600C37BD46F0BD9A88002A38D088
:105CB4001A7A012A2DD0064611D80A7884B0012A0E
:105CC4006C4630D0032AEDD14A682046196800F0AA
:105CD400C3F92246002130463B6A9847E2E7023A7C
:105CE400012ADFD80322214618467B602A7000F07F
:105CF40037FA7B68844621461A4630463B6AC5F823
:105D040004C09847CEE70A700C37DB684B60BD4689
:105D1400F0BD0A701A46DE6821463B6A6E609847F9
:105D2400C0E7FFF785FF91ED010A2046196800F0EE
:105D340063F9CEE740B10268074992698A4202D109
:105D440090ED020B70471047044B8821044A054824
:105D540010B50FF075FC00BF6D0000003407002083
:105D6400F8210020B022002010B10368DB68184736
:105D7400034B8D21034A044810B50FF061FC00BFAA
:105D84003407002090210020B022002010B10368C5
:105D94001B691847034B9221034A044810B50FF0BE
:105DA4004FFC00BF34070020C4210020B022002093
:105DB40010B103681B6E1847034BF521034A0448CE
:105DC40010B50FF03DFC00BF340700201C2100205B
:105DD400B022002000000000C0B102681249526ADB
:105DE4008A4212D19FED117A90ED026B87FE000A70
:105DF400B7EEC07A9FED0A5B27EE067B87EE056B54
:105E0400FCEEC67B17EE900A70471047084B4FF420
:105E14008C71084A084810B50FF012FCAFF30080EB
:105E24000000000000408F40090200000000000054
:105E34003407002028220020B022002038B505466F
:105E44000C46084631B92960C5E90100C5E9034497
:105E5400204638BD0FF05CFC286038B10023C5E94A
:105E6400010003602046C5E9034438BD024B3121DB
:105E7400024A03480FF0E4FB24200020D419002038
:105E84004020002000680FF04BBC00BF83681B68F3
:105E94005A1C02D10268136882601846704700BF1A
:105EA40001F108020369934270B4D0E9014508D3B3
:105EB400043121448D4201D8A5421AD8201D70BC5A
:105EC4007047C168914214D3A54294BF00230123B3
:105ED4007BB90668324495420ED346600161336053
:105EE400BFF35E8F00684FF0FF330430236070BC53
:105EF4007047002070BC70471846F8E701F10802AB
:105F040008B5036993420FD35B1A426801F1040C8C
:105F1400043B036102EB0C034360002342F80C30A2
:105F2400BFF35E8F116008BD024B6B21024A034828
:105F34000FF086FB7C200020381900204020002030
:105F4400806850F8043B0B60704700BF08B5836855
:105F54001A681AB104321344836008BD024B7F21CE
:105F6400024A03480FF06CFBFC1F0020D8180020E5
:105F74004020002008B5034A3A21034B03480FF0A0
:105F84005FFB00BF9419002088110020B811002085
:105F940008B5034A6921034B03480FF051FB00BFC6
:105FA40078190020F0110020B811002008B5034A28
:105FB4006421034B03480FF043FB00BF301A002059
:105FC400F0110020B811002008B5034A9521034BB5
:105FD40003480FF035FB00BF5C1A00202025002089
:105FE400B811002008B50260818019B10131C900DF
:105FF400C18008BDFFF7BEFF034A80ED030AC0E974
:10600400001201220272704701001000002210B435
:10601400034C0272C260C0E900145DF8044B70477F
:106024000100100070B50123044601601046A380EE
:10603400164612F0C5F80546022330461035E660D0
:106044002372ADB2E58012F0BBF80346204601335B
:106054001D44E58070BD00BF10B4044CC260C0E9AB
:10606400001403215DF8044B017270470100100015
:106074002DE9F04F838883B00192002B5FD0013368
:10608400019AB2EBC30F4FEAC30952D30F468046BD
:106094004A460146384607EB090B0AF083FFB8F875
:1060A4000420AAB30C25012406E0944204F1010360
:1060B40005F108052CDA1C4618F834A0BAF1020FD1
:1060C400F3D158F805100846009112F079F8461CEF
:1060D400019BB144009999451FD83246584611F0A6
:1060E400D1FD621EB9888A421DDA584607F834A0E9
:1060F40047F805B0B34412F063F8FB88B8F80420FD
:10610400083501339442184404F10103F880D2DBCA
:10611400A7F8069003B0BDE8F08F0A4B49210A4A5C
:106124000A480FF08DFA0A4B94210A4A0A480FF0E4
:1061340087FA0A4B4021044A04480FF081FAFFF71A
:1061440019FF00BFEC2400203C1A0020B4240020D6
:10615400F01100205C1A0020B8110020A4240020B3
:1061640008B58388994214DA083010F8313000EB0E
:10617400C101032B13D8DFE803F0040207024868C7
:1061840008BD4FF0FF3008BD4868BDE8084000F086
:1061940091BC044B9221044A04480FF051FA0020A8
:1061A40008BD00BF0425002044190020B4240020A9
:1061B40038B51546828891421EDA0346083313F82F
:1061C400312003EBC103022A0ED0032A01D00020A0
:1061D40038BDFFF7C5FF0446284600F06BFC201AC3
:1061E400B0FA80F0400938BD2946586811F02CFEF9
:1061F400B0FA80F0400938BDFFF7D8FE38B50D4637
:1062040091888B4246DA02F10801044611F8330002
:1062140001EBC30103280ED8DFE800F01D02280EAD
:10622400A3884A689D423FDA0834012104EBC50380
:1062340004F835105A6038BD19461046FFF790FF30
:10624400A3889D4238DA0834032204EBC50304F81A
:106254003520586038BDA3889D422BDA08340023CA
:1062640004EBC50204F83530536038BDA388486890
:106274009D4213DA80B104F10803022103EBC50245
:1062840003F83510506011F09BFFE3880133184484
:10629400E08038BDFFF78AFEFFF796FE094B942194
:1062A400094A0A480FF0CCF9064B7321084A0748FB
:1062B4000FF0C6F9FFF76CFE024B8221054A034832
:1062C4000FF0BEF9F01100205C1A0020B811002074
:1062D40084190020501A002008B5034A3821034BC2
:1062E40003480FF0ADF900BF50190020F42200203C
:1062F4000823002038B504468D02284665600FF057
:1063040007FA206058B100232846C4E90233C4E9DF
:106314000433C4E90633C4E90833A36238BD034B2C
:106324005721034A03480FF08BF900BF24240020AF
:10633400E01900200823002070B5044600250068F9
:1063440004F120060FF0ECF9E068B8B1236901E02C
:10635400034610464268C0E90053002AF8D1E260BF
:10636400C0E9002300E0436823610FF0D9F92069F4
:106374000028F8D10834B442E6D170BD2069002861
:10638400F1D10834B442DFD1F7E700BF38B50D4688
:1063940020220021EB88013BB3FA83F3C3F11B03F2
:1063A40023EAE37300EBC3049A40284611F0D2FBBE
:1063B400206930B143682361E368C0E90053E060B9
:1063C40038BD08200FF0A4F90028F5D1FFF784FFA9
:1063D400CB88013BB3FA83F3C3F11B03032B2DE9F1
:1063E400F04F83B04BDC23EAE3724FF02008894678
:1063F400824600EBC20508FA02F8EB681E46002B41
:1064040033D1D0E9012404F5007B5A453DD35C45E2
:1064140018D2016809E05A682A6144443246A34507
:10642400C3E900761E46EB600ED92B690F19002BC9
:10643400F1D1082001910FF06BF90346E8B1EE6841
:106444000199EAE7D3E90072CAF808B04846EA605D
:1064540042462969596000212B6119603946FFF7CA
:1064640007FE384603B0BDE8F08F596842464846F7
:106474001F68E96029695960EDE7FFF72DFF064BB6
:106484007921064A06480FF0DBF8064B8421034ABB
:1064940003480FF0D5F800BF44230020E41800207F
:1064A400082300204C23002008B5034A2921034B6C
:1064B40003480FF0C5F800BFF41800204024002062
:1064C4005824002008B549B1034600220C309A60D4
:1064D400C3E90022BDE80840FFF70CBF024B1421BA
:1064E400024A03480FF0ACF8942400205819002005
:1064F40058240020F8B50468054624B300F10C07BD
:106504000026A1683846FFF741FF6368A660AA68C1
:10651400C4E903662B602BB11E60C4E90062AC6061
:106524001C46EEE76B60C4E9003200E06268204676
:10653400AA600FF0F5F8AC68002CF7D13846BDE836
:10654400F840FFF7F9BE846800F10C07002CEDD188
:106554003846BDE8F840FFF7EFBE00BFF0B58468E9
:1065640083B0054617461E46B4B16368AB6005F1B7
:106574000C00FFF72DFF00226B682761E660A06026
:10658400C4E9002223B15C6023606C6003B0F0BDF9
:106594002C606C6003B0F0BD142001910FF0B8F8CA
:1065A4000199A86018B1234644600446DEE7FFF76A
:1065B4007BFF00BF2DE9F0410568002D35D08568CB
:1065C40004460E4690461F46002D32D06B68314675
:1065D400A36004F10C00FFF7FBFE23683668A86093
:1065E4009A68C5F810801268EF60964206D20022BD
:1065F4006B601D602A602560BDE8F0816268916867
:106604000968B14206D80023C5E9002355606560D6
:10661400BDE8F08119465B689A681268B242F9D9FC
:106624004D60C5E900131D60E6E7BDE8F041FFF7E2
:1066340095BF14200FF06CF8A06018B12B4645608C
:106644000546C4E7FFF730FF38B505688DB1044649
:10665400A9680C30FFF79AFE00236A68AB60C5E9AD
:106664000333226032B11360A2680023C5E900320B
:10667400A56038BD6260F7E770B505688DB1AB6899
:10668400064699420FD06C6824B90AE06068254632
:10669400044638B1A3688B42F8D16AB1E3689342E7
:1066A4000AD0002070BD12B1EB689342F9D1304694
:1066B400FFF7CAFF012070BD06F10C00FFF766FE6C
:1066C40072680023A242A360C4E903330AD063685A
:1066D4006B6063681D60B26800230120C4E9003266
:1066E400B46070BD6B607560F5E700BF03460022BF
:1066F40000201A60704700BF08B5034A7921034B94
:1067040003480EF09DFF00BF10190020F011002077
:10671400B81100200346002200215A60084619607F
:106724009A60DA60704700BF38B51D469B880C46F6
:10673400A3B9254A00212846FFF73AFD68B1D4EDF4
:10674400017A002294ED027A0023226077EE877AA0
:10675400A360C4ED017AC4ED037A38BD2A7A012A14
:10676400E7D1012B07D1EB6800210022216063608F
:10677400A260E36038BD2B7C012BF4D195ED050AB2
:10678400FFF72AFB2368002B19DD94ED017AD4ED81
:10679400027A37EE277AAB8884ED017A20608BB1D8
:1067A400D5ED036A07EE900A36EEC77AC4ED036AA4
:1067B400F8EEE77AC7EE276AC4ED026A38BD94EDB5
:1067C400037AE8E7FFF798FFE80B002000000000D9
:1067D4009FED076B0346002286EE007B1046C3E95B
:1067E4000022B7EEC77B83ED027A7047AFF30080D7
:1067F400000000000000F0419FED096BB7EEC00AF5
:106804000246002386EE017B1846136027EE007BC8
:10681400FDEEC77B17EE903AC2E90133704700BF23
:10682400000000000000F04110B50C4699882DEDE1
:10683400028B11B9BDEC028B10BD197A0129F9D173
:1068440062B3012AF6D193ED037AB5EEC07AF1EE84
:1068540010FA08D5F7EE007A37EE277AB5EEC07A4B
:10686400F1EE10FAF8D4F7EE007AB4EEE77AF1EE2E
:1068740010FA06DD37EE677AB4EEE77AF1EE10FA35
:10688400F8DCB7EEC77A9FED106BBDEC028B27EEF8
:10689400067BBCEEC77B84ED007A10BD93ED038AC2
:1068A400FFF748FA9FED085BB7EEC88A85EE007BD8
:1068B40027EE087BBDEC028BFDEEC77B17EE903A0A
:1068C400C4E9013310BD00BF000000000000F04126
:1068D4000346002200201A60704700BF10B4002352
:1068E4008C680273437380E81A0018465DF8044B01
:1068F400704700BF002203461046C3E900127047E8
:10690400012A30B50D4683B013D0022A0FD19A88DC
:106914006AB11A7A023A012A09D8044600211846B3
:10692400FFF71EFC01462046FBF79CFF286003B0DE
:1069340030BD9A88002A33D01A7A012A13D0022A49
:1069440003D0002AF3D14A60F1E71846174A002120
:106954000193FFF72DFC019B044680B14FF0FF33F8
:106964006B6003B030BDD3ED037AF5EEC07AF1EE7F
:1069740010FAF3DBFCEEE77A17EE903AF0E7014603
:106984000B4A1846FFF714FC0028D0D02B68214688
:10699400DA681868920003B0BDE8304011F0DAB844
:1069A400044B6421044A05480EF04AFEE80B00201B
:1069B400F00B0020F01100206C190020B811002009
:1069C4000346002083ED000A704700BF938803B993
:1069D4007047137A012BFBD1D3680B60704700BF5B
:1069E4000346002019607047938803B97047137AEF
:1069F400012BFBD1D2ED037AFDEEE77AC1ED007AEB
:106A0400704700BF38B50B460121002504465A18CB
:106A140005619500C260C0E9013328460EF030FEDE
:106A2400206008B1284638BD024B1D21024A0348A4
:106A34000EF006FEB4200020241A0020D0200020EE
:106A440000680EF06DBE00BF2DE9F04185688D42EF
:106A540021D001F1010804460E4600684FEA88017E
:106A64000FF022F90746AD00C0B1A068B04209D3C7
:106A7400A8EB0505A660C4F80C80281FC4E90076BD
:106A8400BDE8F081A8EB0002002107EB8000920032
:106A940011F060F8ECE70020BDE8F081024B4621DC
:106AA400024A03480EF0CCFD08210020F81900200A
:106AB400D020002010B5044648B311F081FB032810
:106AC40035D9A0F1040C02461A492CF0030C0CF140
:106AD400040CA44454F8043B01FB02F201FB03F34D
:106AE400644583EA136301FB03F382EA0302F1D1F1
:106AF40000F0030002280FD0032809D001280FD08A
:106B040082EA52320B4802FB00F080EAD03010BD1A
:106B14009CF8023082EA03429CF8013082EA0322A4
:106B24009CF80010034B4A4003FB02F2E8E70246DC
:106B3400A446DFE795E9D15B10B5074C0C21074863
:106B440011F08EFF204600F029FA20464021BDE8CE
:106B5400104000F069BA00BFC449002000002020A2
:106B6400704700BF2E4A002370B511462D4D2E4E9E
:106B740082B0D36041F8186B11614FF40071C2E91F
:106B840006332B681181002B45D019465B69002B15
:106B9400FBD14A610024254B2148136054615460A1
:106BA400947200F09FFD22492B680E600C610C81E9
:106BB400CC60002B31D01A465B69002BFBD15161AC
:106BC40000241C4B1C484C614C608C720B6009F017
:106BD40057FC134B224616490094174809F0C4FC8D
:106BE400164A174914480EF0EBF9164809F048FC08
:106BF40001220B4B00920E49124809F0B5FC0F4AD2
:106C04000F4910480EF0DCF90F4B10490A221960A5
:106C14001A7202B070BD2A60BCE72960D0E700BFD9
:106C2400E44900201C4500206C15002014160020A7
:106C3400444A0020201600201C4A0020FC2E00207C
