:0200000460009A
:100000004643464200000156000000000103030081
:1000100000000000000000000000000000000000E0
:1000200000000000000000000000000000000000D0
:1000300000000000000000000000000000000000C0
:1000400000000000010408000000000000000000A3
:100050000000200000000000000000000000000080
:100060000000000000000000000000000000000090
:100070000000000000000000000000000000000080
:10008000EB04180A063204260000000000000000FD
:10009000050404240000000000000000000000002F
:1000A0000000000000000000000000000000000050
:1000B0000604000000000000000000000000000036
:1000C0000000000000000000000000000000000030
:1000D00020041808000000000000000000000000DC
:1000E0000000000000000000000000000000000010
:1000F0000000000000000000000000000000000000
:10010000D8041808000000000000000000000000F3
:100110000204180804200000000000000000000095
:1001200000000000000000000000000000000000CF
:10013000600400000000000000000000000000005B
:1001400000000000000000000000000000000000AF
:10015000000000000000000000000000000000009F
:10016000000000000000000000000000000000008F
:10017000000000000000000000000000000000007F
:10018000000000000000000000000000000000006F
:10019000000000000000000000000000000000005F
:1001A000000000000000000000000000000000004F
:1001B000000000000000000000000000000000003F
:1001C000000100000010000001000000000000001D
:1001D000000001000000000000000000000000001E
:1001E000000000000000000000000000000000000F
:1001F00000000000000000000000000000000000FF
:10020000FFFFFFFFFFFFFFFFFFFFFFFFFFFFFFFFFE
:10021000FFFFFFFFFFFFFFFFFFFFFFFFFFFFFFFFEE
:10100000D1002043491600600000000000000000ED
:10101000201000600010006000EC01600000000083
:101020000000006000F8010000000000FFFFFFFF6B
:10103000FFFFFFFFFFFFFFFFFFFFFFFFFFFFFFFFC0
:10104000FFFFFFFFFFFFFFFFFFFFFFFFFFFFFFFFB0
:10105000FFFFFFFFFFFFFFFFFFFFFFFFFFFFFFFFA0
:10106000FFFFFFFFFFFFFFFFFFFFFFFFFFFFFFFF90
:10140000814205D051F8043B40F8043B8242F9D8B0
:10141000704700BF044A05494FF0000342F8043BFF
:101420009142FBD8704700BFC03A0020E04E002038
:101430002DE98848BFF34F8F00BF00BF00BF00BF3A
:1014400000F07AFA674B0822C3F8542100BF00BFAE
:1014500000BF00BF00BF00BF00BF00BF00BF00BF94
:1014600000BF00BF00BF00BF00BF00BF5E4A5F49B2
:101470005F48FFF7C5FF5F4A5F496048FFF7C0FF5D
:101480005F4CFFF7C7FF4FF470004FF0E0210023DF
:101490005C4AC1F8880D44F823200133B02BFAD1FF
:1014A000594B8021594A03F8011B9342FBD14FF05D
:1014B000E0254C4E4FF08039DFF880B1DFF880A195
:1014C0004FF0FF31C5F8084D0027C6F80491C6F863
:1014D00000B1C6F8F490C6F8F0A0D5F8243DDFF8C6
:1014E000648143F4E0234A4AC5F8243DD8F81C300F
:1014F00023F07F0343F04003C8F81C30D8F82430B1
:1015000023F07F0343F04003C8F824309166D1668E
:101510001167516700F018FA3E4B3F49A3633F4BF8
:10152000E36363236B610323AF612B613C4BC5F81D
:10153000203DD5F8FC3D43F08073C5F8FC3D394BA8
:101540001A6842F001021A605B680B6000F084FACE
:10155000C6F804913448C6F800B1C6F8F490C6F84D
:10156000F0A000F029FCD8F86C10304B304A41F460
:101570004051C8F86C101F60C3F80871C3F81871A7
:10158000C3F82871C3F83871936BDB0708D442F6AF
:101590001563284951651365936B43F00103936309
:1015A000234A254C936843F00113936000F0B8FB85
:1015B00000F0F2FB00F07EFA00F0C0F92368132B74
:1015C000FCD900F00FFB2368B3F5967FFBD300F046
:1015D000B9F900F0B5F900F0D3FB00F0E9FB30BF3A
:1015E000FDE700BF00800D40788E010044200060C0
:1015F00000000000C03A0020C0AE016000000020E2
:1016000000380020E116010000E400E0A0E400E062
:1016100000C00A404D0C0100604E0020510C01003A
:1016200000002020001000E00046C32300400840D6
:1016300000400D400000C056644E00201B101820D2
:101640000C0D111300C00F40054B4FF42A01054A41
:1016500005485A641864054A99639546FFF7E8FE01
:1016600000C00A40FFAAAAAA070020000000062026
:101670001BB9124B1B6F9B041ED400F03F000F4B95
:1016800022F0604221F0604140F489101867C3F8ED
:101690008010C3F890201A6F22F480521A671A6FD4
:1016A000002AFCDAD3F87011054A0A40C3F8702109
:1016B0001A6F22F480321A67704700BF00800D4015
:1016C000FF7F7FFF43690A4A03EB011010B4037ADE
:1016D000084C02EB0313D3E901321460C2681A60AC
:1016E00003690BB142691A605DF8044B704700BF93
:1016F000441E002061F801004369027E03EB0212E0
:1017000092F808C08C451CD01A7AFF2A19D0914251
:1017100010B5044616D01A7EFF2A06D00121D3E95F
:10172000002312681A4201D1217610BD064B052212
:10173000204603EB0C135B681A60FFF7C3FF2176AA
:10174000F3E770470021EAE7441E002043690A4A94
:1017500003EB011010B490F82830084C02EB03138F
:10176000D3E901321460C26A1A60036B0BB1426B99
:101770001A605DF8044B7047441E002061F80100B8
:101780004369427E03EB021292F828C08C451ED0BA
:1017900093F82820FF2A1AD0914210B5044617D09A
:1017A00093F83820FF2A06D00121D3E900231268DC
:1017B0001A4201D1617610BD064B0522204603EB8B
:1017C0000C135B681A60FFF7C1FF6176F3E770479F
:1017D0000021EAE7441E0020164942698B6B23F47E
:1017E0007C0343F4802370B58B630446124DD2E929
:1017F00000130A681A4303690A60022200211A6171
:101800000E4A19619A6401225A629D624FF4303582
:10181000DD624FF001159E6C1E6519629D651A61AF
:10182000017EFFF74FFF617E2046BDE87040FFF765
:101830008DBF00BF00C00F40B80B05053B3728190E
:10184000B1F5607FF0B50E468DB028BF4FF46076DD
:101850000F46054672B62E4B0024702218602146B2
:101860002C4B2D481C8000F0ABFACFB121462A4802
:101870004FF0010C4A0901F01F03013150F82240DA
:101880000CFA03F38E4243EA040340F82230F1D805
:10189000284600234380013300F582709E42F9D828
:1018A0001E4C257815B162B60DB0F0BD082000F0D1
:1018B0008BFA1B4B80220646009302A90693194B14
:1018C0000271056008A8029300F05EFA06A9164AA4
:1018D000304600F05DFA069B08A8DB689847009B3D
:1018E00002A8DB6898472378002BDCD10F4B104A05
:1018F000C3F858210F49D0204FF0E023402281F84F
:101900004600C3F808210123237062B60DB0F0BD74
:10191000D0480020884E0020D84800209B4E002050
:1019200028190020A50601001B1001000038002026
:10193000B106010000E400E0704700BF704700BF3F
:10194000704700BF00BF704710B44FF0E023002184
:1019500010243148C3F8941DC3F89C4D1124C3F8DA
:10196000A00D2E48C3F89C4D1224C3F8A00D2C489E
:10197000C3F89C4D2B4AC3F8A00D2B4C42F0150226
:101980002A48C3F89C4DC3F8A00D294C2948C3F838
:101990009C4DC3F8A00D284CC3F89C2D2748284A1D
:1019A000C3F8A04DC3F89C0DC3F8A02D02F5A022EA
:1019B000244C0C322448C3F89C4DC3F8A02D234A74
:1019C000C3F89C0D224CC3F8A02D02F14062C3F86D
:1019D0009C4D2048C3F8A02D0C32C3F89C0DC3F8D1
:1019E000A02D00BF00BF00BF00BF00BF0122C3F891
:1019F000942DBFF34F8FBFF36F8FC3F8501FBFF30A
:101A00004F8FBFF36F8FD3F8142D5DF8044B42F462
:101A10004032C3F8142D70473F000010250008071E
:101A200009001000E04E00201300200021000207F2
:101A300014000020250008130900001016002020C3
:101A400027000B1317000040180000602F000B0741
:101A5000190000701A000080F0B4154A40274FF4B6
:101A600080314FF480564FF400554FF4404443F218
:101A70004200136913F0020F0ED113F4005F0FD070
:101A800013F4805F0ED0002BF3DA13F4803F0BD1F8
:101A90005B060BD5F0BC7047946151619061E8E73B
:101AA0005561E6E75661E4E79161E2E75761E0E7F7
:101AB00000800D403F4A03203F49F3EE095AD2F817
:101AC00080304FF0000C9FED3D6A23F001039FED45
:101AD0003C5A30B4C2F88030C2F89000D1F8E0101F
:101AE000384DCBB2384C39482B6007EE903A0B0D8D
:101AF000C1F30B21F8EEE77A06EE903A07EE101AE2
:101B0000334BB8EEC77A2160F8EEE66A314937EE1A
:101B1000C66A37EEC55A76EEC76A77EEE57A26EEE4
:101B2000266AC3ED006A25EE265AD2F8803067EEA9
:101B3000A64AC0ED007AC6EE275A274885EE276AE6
:101B4000C4EEA76A75EE875AFCEEE55A36EE076AD0
:101B500015EE904ABCEEC66A43EA045376EE877AE5
:101B6000C2F8803016EE103AD2F89041FCEEE77AD7
:101B700001EA0341214317EE903AC2F89011C3F3F2
:101B80000B03D2F890110B431449C2F89031D2F8EC
:101B9000803043F00203C2F88030114B80F840C01F
:101BA000C1F840314FF0E023012230BCC3F80821D6
:101BB000704700BF00810D4000441F400000AA4252
:101BC0000000B442504E00204C4E0020544E0020E5
:101BD000584E00200000FF0F00E400E00038002015
:101BE000CD180100314B40F6617210B5C3F82021C9
:101BF00040F2044400F0D4F82D4A2E49D2F8803047
:101C00002D4843F00303C2F880302C4BC1F86041EB
:101C100002681A4203D1D1F8A8319A071BD0254A8D
:101C20004FF00041244B5963D2F8403143F0020396
:101C3000C2F84031D2F840319B07FBD44FF400305A
:101C40004FF0E0211C4B4FF00042C1F88C021920EC
:101C50009A6300F0A9F8184A4FF08040154C002113
:101C600090630A20164B11604FF42072C4F8A8014B
:101C7000184600F0A5F84FF4800203464FF48100A7
:101C800040F243111860C4F858311A640D4B0E4AE3
:101C9000C4F84811C3F804224FF0E0224FF4003199
:101CA0000123C2F80C11C4F8403110BD00800D4072
:101CB00000C00F4000002E4000900D40001C1E0090
:101CC0000000002000380020B51A010008B50E4BB6
:101CD0001B6E9B0700D4FBBE72B60C4B00200C4A57
:101CE000C3F8400103F160430A49A3F55F2311647F
:101CF0009D46BFF34F8F4FF400130748074ADB6937
:101D000002609B68984700BF00441F4000002E40BF
:101D100000C00A400300200000802020000012EBD9
:101D2000104BA020104AD96E41F4403110B4D9664E
:101D300040F23764D96E41F44071D96654649064BE
:101D4000936C1B06FCD4094A40F23761A02351640E
:101D50009364936C13F08003FBD1054A13705DF814
:101D6000044B704700C00F4000400C4000800C4006
:101D7000A14E0020F8B500BFF8BC08BC9E467047D5
:101D80005FF800F0DD8101005FF800F01907010045
:101D90005FF800F0250D01005FF800F0C9150100A3
:101DA0005FF800F0252201005FF800F0B911010092
:101DB0005FF800F09D1301005FF800F0C90E01000C
:101DC0005FF800F05D7F01005FF800F0E1140100B2
:101DD00045000000696F000059700000217100008B
:101DE000357600004D760000657600007D760000B7
:101DF00095760000AD760000C5760000DD76000027
:101E0000F57600000D77000025770000C97B000003
:101E1000E17B0000F97B0000117C0000297C0000C0
:101E2000417C0000597C0000717C0000A57C000012
:101E3000D57C0000ED7C0000057D00001D7D0000CC
:0C1E4000357D0000E98F0000290E010034
:101E4C0080C00F40000000031900000010000000CB
:101E5C00E8841F4001000000FF000000FF000000AC
:101E6C00000000000000000018000000100000003E
:101E7C00E4841F4001000000FF000000FF00000090
:101E8C0000000000000000001F0000009906010087
:101E9C0070C00F40000C0000110000001100000089
:101EAC00E0841F400200000024000000120000002B
:101EBC00E0841F4001000000100000001100000031
:101ECC00DC841F400200000025000000120000000E
:101EDC00DC841F40010000001E0000008D06010084
:101EEC0070C00F40C0000000120000001300000082
:101EFC00D0841F4001000000FF000000FF00000024
:101F0C00000000000000000013000000130000009F
:101F1C00CC841F4001000000FF000000FF00000007
:101F2C0000000000000000001C0000008106010001
:101F3C001603550053004200200053006500720048
:101F4C00690061006C000000180354006500650016
:101F5C006E00730079006400750069006E006F00FC
:101F6C000403090409026200030100C032080B00DB
:101F7C000202020100090400000102020100052412
:101F8C0000100105240101010424020605240600A9
:101F9C00010705820310001009040100020A000069
:101FAC0000070503024000000705840240000009F9
:101FBC0004020002FF6AFF000705810240000107CE
:101FCC00050102400001000009026200030100C08B
:101FDC0032080B0002020201000904000001020297
:101FEC00010005240010010524010101042402064E
:101FFC0005240600010705820310000509040100F1
:10200C00020A000000070503020002000705840213
:10201C000002000904020002FF6AC70007058102E2
:10202C000002010705010200020100000A0600027D
:08203C00EF0201400100000069
:10204400000000000000000000000000000000008C
:10205400000000000000000000000000000000007C
:102064000548064B1B1AD90F01EBA301491002D0F6
:10207400034B03B118477047C03A0020C03A002010
:102084000000000008B5054B1BB105490548AFF336
:102094000080BDE80840FFF7E3BF00BF0000000078
:1020A400BC4D002000F801604069704790ED020BC0
:1020B400704700BF0069704707EE901A9FED065BFA
:1020C400B8EE677B90ED026B27EE057B87EE060B7F
:1020D400B7EEC00B704700BF0000000000408F4007
:1020E40081657047806D704701657047006D70476A
:1020F40041657047406D704708B50368D3F88C306C
:10210400984700B1006808BD08B50368D3F88C305F
:10211400984700B1406808BD0023BFF35B8F80F887
:102124008430704700000000B0B582B004460D460C
:10213400002100AF84B06A4610467A6006F036F992
:1021440023687A682946DB6C20469FED030B984789
:102154000837BD46B0BD00BF00000000000000000D
:10216400B0B582B004460D46002100AF84B06A4683
:1021740010467A6006F010F923687A682946DB6C09
:1021840020469FED030B98470837BD46B0BD00BFFE
:102194000000000000000000F8B500AF8AB184B070
:1021A40004460D4600216E46304606F00BF92368BE
:1021B40032462946DB6C20469FED050B9847BD4609
:1021C400F8BD054B5321054A054815F05DFC00BFD9
:1021D400000000000000000000100020101000208B
:1021E400581000204FF001028430D0E84F3FC0E87F
:1021F400412F0029F9D1DBB2BFF35B8F002BF4D15F
:10220400704700BF4FF001028430D0E84F3FC0E870
:10221400412F0029F9D1D8B2BFF35B8F80F00100C0
:10222400704700BF183006F0F7BB00BF036810B555
:10223400D3F88C301446984718B1214606F0DEFDD9
:10224400012010BD00000000DFED0B7A90ED025B71
:1022540087FE800AB7EEC00A9FED056B20EE050BE2
:1022640080EE067BFCEEC77B17EE900A704700BF3A
:102274000000000000408F4000000000F8B5DE8838
:1022840000F170051C46174604362846314605F011
:10229400D7FF60B10146E288204641F8047B06F08E
:1022A400B7F831462846BDE8F84005F0F7BF034BC0
:1022B4001E21034A034815F0E7FB00BF80070020F6
:1022C4004C0800205810002010B50C1E82B00ADD06
:1022D4005C30019005F0A6FFA102019802B0BDE8B0
:1022E400104005F07BBF034BB921034A034815F0A6
:1022F400CBFB00BF88130020981300205810002047
:1023040010B50C1E82B00ADD7030019005F08AFF12
:10231400A102019802B0BDE8104005F05FBF034B75
:10232400BF21034A034815F0AFFB00BFD4130020BC
:10233400E41300205810002008B5034AE221034B9F
:10234400034815F0A1FB00BF440700203407002018
:102354005810002008B5034AEE21034B034815F03A
:1023640093FB00BFA408002034070020581000206D
:102374002DE9F04390461F46026D0E46294B00217D
:1023840083B09A42316046D1814600F1850C4FF00A
:10239400010EDCE84F4FCCE845EF002DF9D1E4B253
:1023A400BFF35B8F002CF4D109F17005284605F0CA
:1023B4003DFFA8B101A92846019405F091FFC0B1E1
:1023C400019A132A1BD997421FD301464046012480
:1023D40051F8043B336011F009F8284605F086FFF4
:1023E40000232046BFF35B8F89F8853003B0BDE836
:1023F400F0830D4BCF210D4A0D4815F045FB0D4BD5
:10240400D0210A4A0A4815F03FFB0B4BD121074A59
:10241400074815F039FB094BC721044A044815F055
:1024240033FB00BF3D020000140F0020C40E002047
:1024340058100020580F0020800F00201C0E002090
:102444002DE9F84F2DED028B9FED338BB4EEC80BC5
:10245400F1EE10FA5ADB9046002A51D00368054683
:10246400314A0F469B6988FE008B046993423FD131
:1024740090ED020B9FED2A6B05F184034FF0010CE4
:1024840080EE067B27EE087BFCEEC77B17EE906A96
:102494002644D3E84F4FC3E84ECFBEF1000FF8D126
:1024A400E4B2BFF35B8F002CF3D1B8F806A005F1BA
:1024B4005C0B0AF1040A5846514605F0C1FE8146F8
:1024C400C0B10146B8F80620404641F8047B05F047
:1024D4009FFF58465146C9F8046005F0DFFEBFF37C
:1024E4005B8F85F884400120BDEC028BBDE8F88F3A
:1024F4009847BFE70D4B83210D4A0E4815F0C4FAE7
:102504000D4B74210A4A0B4815F0BEFA0B4B73218C
:10251400074A084815F0B8FA00000000000000005F
:102524000000000000408F406D00000004110020F6
:10253400A410002058100020F41000209410002053
:102544002DE9F04F2DED068B9FED759B43EC182B79
:1025540085B0B4EEC98B00AFF1EE10FA3E6DC0F257
:10256400D680002E00F0CD8007F154028346304619
:102574000AEE101AFA6018F043F88246002800F0B8
:10258400BA80C000DBF8102089FE089B0830ADEB50
:10259400000DDBF800008469E8466548844240F099
:1025A40087809BED020B29EE009B00245146404698
:1025B400013E4546A1469FED5C6B89EE067BBCEE71
:1025C400C77B17EE103A13441A4605F0DBFE16F8E3
:1025D400013F623B112B12D8DFE803F009111111FE
:1025E4005211411111111111111111111125B8F8C4
:1025F4000430A34267DD85F80890C5F80C900134D7
:102604000835A245E3DCDBF80040B0EE480B424657
:102614001AEE101A5846E36C98471437BD46BDECC1
:10262400068BBDE8F08FFB68B8F80420191D186804
:10263400A242F96041DD002857D04FF00203E86060
:10264400013408352B7017F0DBFFB8F80630A245CB
:1026540003F101031844A8F80600B8DCD3E7FB68CB
:10266400B8F80420191D1B68A242F96037DD013453
:10267400EB604FF003030835A2452B70A7DCC2E7DB
:10268400FB68073323F0070393ED007B0833FB60FB
:10269400B7EEC77BB8F80430A3421ADD01344FF01B
:1026A400010385ED037A0835A2452B708FDCAAE778
:1026B4007A605846A0477A6875E71E4B94211E4AF3
:1026C4001E4815F0E1F91B4B69211D4A1B4815F002
:1026D400DBF9184B73211B4A184815F0D5F9154B33
:1026E4008221194A154815F0CFF9184B9521124A41
:1026F400124815F0C9F9164B3A21164A0F4815F03D
:10270400C3F9154B5C21154A154815F0BDF9154B55
:102714005B21124A124815F0B7F900BFAFF30080ED
:1027240000000000000000000000000000408F4096
:102734006D000000AC120020481300207412002029
:10274400CC120020F01200201C1300207C13002067
:10275400441200205412002030120020D81100200E
:102764005810002094100020B5EEC00B70B5F1EEA7
:1027740010FA1D46294B80ED020B036036DD00295B
:1027840046DD002A16463DDD002D35DB4FF0000303
:1027940004460361C0E915330CBF2B46204B1830A7
:1027A40083630023BFF35B8F80F86C30BFF35B8FD0
:1027B40080F86D30882340F8043C06F053F86369D0
:1027C400B102034404F15C00636105F007FD636931
:1027D4000246A90204F170001344636105F0FEFC93
:1027E4006369024620461344636170BD0D4B272183
:1027F4000D4A0E4815F048F90D4B2A210A4A0B4898
:1028040015F042F90B4B2921074A084815F03CF909
:10281400094B2821044A054815F036F934160020DE
:102824003D02000020140020341400205810002021
:10283400741400208813002068140020084B10B57D
:10284400044640F8183B06F025F804F15C0005F056
:10285400E9FC04F1700005F0E5FC204610BD00BF62
:102864003416002018B10368D3F88C30184710B51B
:10287400FFF762FD28B1944618301A46634606F005
:1028840069B810B5FFF766FD00487047180C0020C2
:102894000020704702207047064B994207D0064B30
:1028A400994202D100F5AC6070470020704700F2F5
:1028B400C45070478F3E46A1805B4FBD42B1002398
:1028C40000210448516011721060D3601361536198
:1028D40000207047340B0020704700BFB0B511468C
:1028E40000AF82B0056801EB83046A462D6CC2E92F
:1028F40000140021A847BD46B0BD00BF2DE9F84330
:1029040000AF2BB316466A4600211D46A2EBC30254
:102914004FEA850995460268E846546C4246A0474A
:10292400002308EB85041A46002D09DD08EB83011A
:1029340006EB820C51F804EBA1424CF808EBF9D1F8
:102944002B444C440AB90122EEE7BD46BDE8F883A6
:10295400034B40F68521034A034815F095F800BF60
:102964004C0B0020580B0020A00B002010B5184B76
:10297400044600F50C70236005F06EF804F53E7013
:1029840005F06AF804F22C4005F066F804F2B4404D
:1029940005F062F804F2BC4005F05EF804F59860B6
:1029A40005F05AF804F5AC6006F024FA04F2C450B9
:1029B40006F020FA04F5C36005F04EF804F5D7607C
:1029C40005F04AF82046FFF739FF204610BD00BF46
:1029D4006815002010B50446FFF7C8FF4FF4DB610B
:1029E400204610F09FFD204610BD00BF10B51146D3
:1029F40082B00023054CB0EE000A0222CDE9001497
:102A0400194604F075FE02B010BD00BFB9140000F1
:102A140010B5114682B00023054C9FED060A03222F
:102A2400CDE90014194604F063FE02B010BD00BFE6
:102A3400A516000000007A4410B5114682B00023A8
:102A4400054CB7EE000A1422CDE90014194604F02F
:102A54004FFE02B010BD00BF051A000010B51146AC
:102A640082B00023054C9FED060A0322CDE9001431
:102A7400194604F03DFE02B010BD00BFE51600008B
:102A840000007A4410B5114682B00023054CB7EE1D
:102A9400000A1422CDE90014194604F029FE02B0FC
:102AA40010BD00BF211A000030B5002383B01446C6
:102AB4000B499FED0C0A0322019119460094054627
:102AC40004F016FE0023084928469FED080A1A461A
:102AD400CDE90041194604F00BFE03B030BD00BF40
:102AE400A91100000000C8421D1200000000A0420D
:102AF40010B5114682B00023054C9FED060A022250
:102B0400CDE90014194604F0F3FD02B010BD00BF76
:102B1400C51400000000C84210B5114682B000235D
:102B2400054C9FED060A1522CDE90014194604F060
:102B3400DFFD02B010BD00BFB10D000000007A44FB
:102B440010B5114682B00023054C9FED060A1522EC
:102B5400CDE90014194604F0CBFD02B010BD00BF4E
:102B6400610D000077BE7F3F10B5114682B000238F
:102B7400054C9FED060A0222CDE90014194604F023
:102B8400B7FD02B010BD00BFD11400000200004B1D
:102B940010B5114682B00023054CB7EE000A152289
:102BA400CDE90014194604F0A3FD02B010BD00BF26
:102BB400750B000010B5114682B00023054C9FED43
:102BC400060A1422CDE90014194604F091FD02B05E
:102BD40010BD00BF491500000000000010B51146EB
:102BE40082B00023054CB2EE040A0222CDE900149F
:102BF400194604F07DFD02B010BD00BFDD140000D5
:102C040010B5114682B00023054CB1EE000A022231
:102C1400CDE90014194604F06BFD02B010BD00BFED
:102C2400E914000010B5114682B00023054C9FED55
:102C3400060A0222CDE90014194604F059FD02B037
:102C440010BD00BFF51400000000A04210B51146ED
:102C540082B00023054CB2EE080A0322CDE9001429
:102C6400194604F045FD02B010BD00BF8D410000BF
:102C740010B5114682B00023054C9FED060A0222CE
:102C8400CDE90014194604F033FD02B010BD00BFB5
:102C94008D1500000000DC4310B5114682B00023FE
:102CA400054CBAEE040A1422CDE90014194604F0C6
:102CB4001FFD02B010BD00BF9515000010B51146F0
:102CC40082B00023054CBAEE040A1422CDE90014A4
:102CD400194604F00DFD02B010BD00BFA945000067
:102CE40010B5114682B00023054CB2EE040A152239
:102CF400CDE90014194604F0FBFC02B010BD00BF7E
:102D0400590C000010B5114682B00023054CB2EEF8
:102D1400040A1522CDE90014194604F0E9FC02B0B6
:102D240010BD00BF7D0C000010B5114682B0002319
:102D3400054C9FED060A0122CDE90014194604F062
:102D4400D7FC02B010BD00BF0D0C000000008A4289
:102D540010B5114682B00023054C9FED060A0322EC
:102D6400CDE90014194604F0C3FC02B010BD00BF45
:102D7400D115000000007A4410B5114682B000233A
:102D8400054C9FED060A0322CDE90014194604F010
:102D9400AFFC02B010BD00BF1516000000007A445D
:102DA40010B5114682B00023054C9FED060A14228B
:102DB400CDE90014194604F09BFC02B010BD00BF1D
:102DC400894C00000000000010B5114682B00023B9
:102DD400054C9FED060A1422CDE90014194604F0AF
:102DE40087FC02B010BD00BF314C000000000000A1
:102DF40010B5114682B00023054C9FED060A14223B
:102E0400CDE90014194604F073FC02B010BD00BFF4
:102E14003D1400000000000010B5114682B00023EC
:102E2400054C9FED060A0322CDE90014194604F06F
:102E34005FFC02B010BD00BF010E000000007A4428
:102E440010B5114682B00023054C9FED060A0222FC
:102E5400CDE90014194604F04BFC02B010BD00BFCC
:102E6400FD4800000000FA4310B5114682B000236B
:102E7400054C9FED060A0322CDE90014194604F01F
:102E840037FC02B010BD00BF510E000000007A44B0
:102E940010B5114682B00023054C9FED060A0222AC
:102EA400CDE90014194604F023FC02B010BD00BFA4
:102EB400D54A00000000FA4310B5114682B0002341
:102EC400054CB2EE080A0322CDE90014194604F0B9
:102ED4000FFC02B010BD00BF614F000010B51146D9
:102EE40082B00023054C9FED060A0222CDE90014AE
:102EF400194604F0FDFB02B010BD00BF251600000A
:102F04000000DC4310B5114682B00023054CBAEE34
:102F1400040A1422CDE90014194604F0E9FB02B0B6
:102F240010BD00BF2D16000010B5114682B000235D
:102F3400054CBAEE040A1422CDE90014194604F033
:102F4400D7FB02B010BD00BF3516000010B5114606
:102F540082B00023054CB2EE040A1522CDE9001418
:102F6400194604F0C5FB02B010BD00BFC50E000039
:102F740010B5114682B00023054CB2EE040A1522A6
:102F8400CDE90014194604F0B3FB02B010BD00BF34
:102F9400E90E000010B5114682B00023054CB2EED4
:102FA400040A1522CDE90014194604F0A1FB02B06D
:102FB40010BD00BF790F000010B5114682B0002388
:102FC400054C9FED060A1422CDE90014194604F0BD
:102FD4008FFB02B010BD00BF3D16000000000000D2
:102FE40010B5114682B00023054C9FED060A01225C
:102FF400CDE90014194604F07BFB02B010BD00BFFC
:10300400790E000000008A4210B5054C82B01346C8
:1030140000F503710122009404F0FCFF02B010BD1E
:103024007539000010B5054C82B0134600F54E7199
:103034000022009404F0EEFF02B010BD411F000016
:1030440010B5054C82B0134600F55B710022009464
:1030540004F0E0FF02B010BD4517000010B5054CA8
:1030640082B0134600F550710022009404F0D2FFA0
:1030740002B010BD891F000010B5054C82B0134684
:1030840000F501710022009404F0C4FF02B010BDE9
:103094009D40000030B50C4B83B0144600F506711A
:1030A400009300222346054604F0B4FF0023074999
:1030B400B0EE000A02222846CDE90041194604F088
:1030C40017FB03B030BD00BF55120000C51100004E
:1030D40010B5054C82B0134600F5787100220094B7
:1030E40004F098FF02B010BDC113000010B5054CE8
:1030F40082B0134600F576710022009404F08AFF32
:1031040002B010BD211F000010B5054C82B013465B
:1031140000F574710022009404F07CFF02B010BD2D
:10312400011F000010B5054C82B0134600F5727102
:103134000022009404F06EFF02B010BD8517000059
:1031440010B5054C82B0134600F587610022009447
:1031540004F060FF02B010BD6D18000010B5054CFE
:1031640082B0134600F586610022009404F052FFF9
:1031740002B010BD5118000010B5054C82B01346C2
:1031840000F224410022009404F044FF02B010BD78
:103194003518000010B5054C82B0134600F21C61CE
:1031A4000022009404F036FF02B010BDF9180000AC
:1031B40010B5054C82B0134600F22461002200943D
:1031C40004F028FF02B010BD1519000010B5054C1D
:1031D40082B0134600F22C610022009404F01AFF1E
:1031E40002B010BD3119000010B5054C82B0134671
:1031F40000F554710022009404F00CFF02B010BDDD
:10320400010B000030B50C4B83B0144600F552712D
:10321400009300222346054604F0FCFE00230749E0
:10322400B1EE080A02222846CDE90041194604F00D
:103234005FFA03B030BD00BFD90A000001120000DC
:1032440010B5054C82B0134600F564710022009459
:1032540004F0E0FE02B010BD0110000010B5054CF2
:1032640082B0134600F51C710022009404F0D2FED3
:1032740002B010BDBD12000010B5054C82B013465B
:1032840000F21C610122009404F0C4FE02B010BDDF
:10329400F918000030B5134685B0002208490446E9
:1032A400084D00911146039304F04CFA039B00224D
:1032B40001212046009504F045FA05B030BD00BF59
:1032C400F5130000E90C000010B5134684B0002289
:1032D4000849044603930091114604F033FA00228E
:1032E40005492046039B0091114604F02BFA04B0D3
:1032F40010BD00BF990800007935000030B51346B1
:1033040085B0002208490446084D009111460393F4
:1033140004F018FA039B002201212046009504F0D2
:1033240011FA05B030BD00BF71140000A10F0000F8
:1033340010B5134684B00022084904460393009153
:10334400114604F0FFF9002205492046039B009131
:10335400114604F0F7F904B010BD00BF811E00004F
:103364007D3A000010B5134684B000220849044693
:1033740003930091114604F0E5F900220549204623
:10338400039B0091114604F0DDF904B010BD00BFA9
:10339400E5100000C91E000010B5134684B00022D9
:1033A4000849044603930091114604F0CBF9002226
:1033B40005492046039B0091114604F0C3F904B06B
:1033C40010BD00BFC9100000E51E000010B5134673
:1033D40084B000220849044603930091114604F086
:1033E400B1F9002205492046039B0091114604F0DF
:1033F400A9F904B010BD00BFAD1000009110000089
:1034040030B50A4985B013460446009100220121D3
:10341400074D039304F096F9039B002201212046F3
:10342400009504F08FF905B030BD00BF3D410000A8
:10343400A517000010B5134684B000220C490446B9
:1034440003930091114604F07DF9002209492046B6
:10345400039B0091114604F075F9002206492046A9
:10346400039B0091114604F06DF904B010BD00BF38
:103474001D110000011100003911000030B50A4986
:1034840085B013460446009100220121074D0393A1
:1034940004F058F9039B002201212046009504F012
:1034A40051F905B030BD00BFA5180000891800000F
:1034B40010B5134684B000220C49044603930091CE
:1034C400114604F03FF9002209492046039B00916C
:1034D400114604F037F9002206492046039B009167
:1034E400114604F02FF904B010BD00BF55110000BF
:1034F400711100008D110000014B132104F0AEBCCA
:10350400E50F0000014B132104F0A8BC690A000078
:10351400014B132104F0A2BCFD3C0000014B13211C
:1035240004F09CBC1D100000014B132104F096BC58
:1035340039100000014B132104F090BC5510000019
:1035440001B1704700F5177105F01ABC01B170475D
:1035540000F51B7105F014BC01B1704700F51A7138
:1035640005F00EBC01B1704700F5497105F008BCC7
:1035740001B1704700F54D7105F002BC01B170470F
:1035840000F54C7105F0FCBB30B5002383B0154643
:1035940009490446B7EE000A019101221946009533
:1035A40004F0A6F82A4604F56371204603B0BDE88A
:1035B400304005F0E5BB00BF7D15000000F55F71EC
:1035C40005F0DEBB00F57B7105F0DABB00F5806128
:1035D40005F0D6BB00F5976105F0D2BB30B50023EA
:1035E40083B0154609490446B7EE000A0191012249
:1035F4001946009504F07CF82A4604F2D44120468A
:1036040003B0BDE8304005F0BBBB00BFD9150000D6
:1036140000F59B6105F0B4BB00F2DC4105F0B0BBE2
:1036240030B5002383B0154609490446B7EE000AB5
:10363400019101221946009504F05AF82A4604F52E
:103644009E61204603B0BDE8304005F099BB00BF41
:103654001D16000000F2F44105F092BB00F59F61D5
:1036640005F08EBB00F2F45105F08ABB00F2C46190
:1036740005F086BB00F2BC6105F082BB00F5D861A1
:1036840005F07EBB10B5064C82B0002300F518711E
:10369400CDE90024022203F0F3FF02B010BD00BF05
:1036A400E117000010B5064C82B0012300F5187133
:1036B400CDE90024022203F0E3FF02B010BD00BFF5
:1036C400E117000010B5064C82B0002300F52B7101
:1036D400CDE90024022203F0D3FF02B010BD00BFE5
:1036E400F909000010B5064C82B0012300F52B71D6
:1036F400CDE90024022203F0C3FF02B010BD00BFD5
:10370400F909000010B5064C82B0002300F53971A8
:10371400CDE90024022203F0B3FF02B010BD00BFC4
:10372400450A000010B5064C82B0012300F539713A
:10373400CDE90024022203F0A3FF02B010BD00BFB4
:10374400450A000010B5064C82B0002300F54A710A
:10375400CDE90024022203F093FF02B010BD00BFA4
:103764001918000010B5064C82B0012300F54A7107
:10377400CDE90024022203F083FF02B010BD00BF94
:103784001918000010B5064C82B0002300F55D71D5
:10379400CDE90024022203F073FF02B010BD00BF84
:1037A400510B000010B5064C82B0012300F55D7189
:1037B400CDE90024022203F063FF02B010BD00BF74
:1037C400510B000010B5064C82B0012300F57A714C
:1037D400CDE90024032203F053FF02B010BD00BF63
:1037E4008515000010B5064C82B0002300F57A71EF
:1037F400CDE90024032203F043FF02B010BD00BF53
:103804008515000010B5054C82B0134600F50C7107
:103814000022009404F024F902B010BD69360000BF
:1038240010B5054C82B0134600F50C7101220094CA
:1038340004F016F902B010BD6936000010B5054C4D
:1038440082B0134600F53E710022009404F008F99A
:1038540002B010BD6D3B000010B5054C82B013469C
:1038640000F53E710122009404F0FAF802B010BD94
:103874006D3B000010B5054C82B0134600F22C419C
:103884000022009404F0ECF802B010BD4946000098
:1038940010B5054C82B0134600F22C41022200946C
:1038A40004F0DEF802B010BD4946000010B5054C26
:1038B40082B0134600F22C410122009404F0D0F8A7
:1038C40002B010BD4946000010B5054C82B0134645
:1038D40000F2BC410122009404F0C2F802B010BD11
:1038E4006519000010B5054C82B0134600F59861C7
:1038F4000122009404F0B4F802B010BD7D19000058
:1039040010B5054C82B0134600F59861002200946E
:1039140004F0A6F802B010BD7D19000010B5054CE6
:1039240082B0134600F2BC410022009404F098F8DF
:1039340002B010BD6519000010B5054C82B01346E5
:1039440000F5C3610222009404F08AF802B010BDAD
:10395400C553000010B5054C82B0134600F5C36191
:103964000122009404F07CF802B010BDC55300009D
:1039740010B5054C82B0134600F5C36100220094D3
:1039840004F06EF802B010BDC553000000B5134634
:1039940083B0002200F1B001009205F095F803B065
:1039A4005DF804FB00B5134683B0002200F5A8714E
:1039B400009205F089F803B05DF804FB00B51346E6
:1039C40083B0002200F5CA71009205F07DF803B0BF
:1039D4005DF804FB00B5134683B0002200F5867140
:1039E400009205F071F803B05DF804FB30B50446AD
:1039F40085B0114600F28440064D039203F0A0FF07
:103A0400039B012204F2B4412046009504F028F8F7
:103A140005B030BD4D19000030B5044685B01146DF
:103A240000F5D160064D039203F08AFF039B012247
:103A340004F5D7612046009504F012F805B030BDB6
:103A44009519000010B5054C82B0134600F51E719F
:103A54000222009403F0E8FE02B010BD853F00008E
:103A640010B5054C82B0134600F52C710222009467
:103A740003F0DAFE02B010BD8D3E000010B5054C17
:103A840082B0134600F58C610022009403F0CCFE52
:103A940002B010BD2D43000010B5054C82B0134692
:103AA40000F284410022009403F0BEFE02B010BD77
:103AB400AD19000010B5054C82B0134600F2145144
:103AC4000022009403F0B0FE02B010BD1D1B0000E4
:103AD40010B5054C82B0134600F5AF610022009486
:103AE40003F0A2FE02B010BD711B000010B5054C1E
:103AF40082B0134600F264610022009403F094FE45
:103B040002B010BD0151000010B5054C82B013463F
:103B140000F5D1610022009403F086FE02B010BDCE
:103B2400D919000010B5054C82B0134600F5956113
:103B34000022009403F01CFF02B010BDFD1D000024
:103B440010B5054C82B0134600F2AC61002200941B
:103B540003F00EFF02B010BD5D1E000030B500F290
:103B6400145585B0044611462846039203F0E8FE36
:103B74000D4A039B04F5A76120460092002203F03E
:103B840053FE0A4A039B2946204600920025002240
:103B940003F04AFE039B012204F5EC7120460095D4
:103BA40005F088F805B030BD654900001D1B000014
:103BB40030B500F5AF6585B004461146284603923A
:103BC40003F0BEFE0D4A039B04F29C512046009272
:103BD400002203F029FE0A4A039B2946204600924C
:103BE4000025002203F020FE039B012204F5F0715E
:103BF4002046009505F05EF805B030BD3D4B000051
:103C0400711B000008B5034A7321034B034813F0EA
:103C14003BFF00BFF0120020AC1200207412002001
:103C240001B17047F0B50A4B83B00C460646154601
:103C34000093084F13460A46012103F083FD2B46E7
:103C4400224621463046009703F07CFD03B0F0BDC8
:103C5400591A0000A5430000012914D813460A4943
:103C6400002210B584B0044600911146039303F07A
:103C740069FD00220549039B20460091114603F08B
:103C840061FD04B010BD704751450000ED440000D3
:103C940001B17047F0B50A4B83B00C460646154691
:103CA4000093084F13460A46012103F04BFD2B46AF
:103CB400224621463046009703F044FD03B0F0BD90
:103CC400C91A000079510000012914D813460A4981
:103CD400002210B584B0044600911146039303F00A
:103CE40031FD00220549039B20460091114603F053
:103CF40029FD04B010BD704725530000C1520000D7
:103D040001B1704710B5054C82B0134600F5097136
:103D14000122009403F042FF02B010BDAD0900007F
:103D240001B1704710B5054C82B0134600F53B71E4
:103D34000122009403F032FF02B010BDB10A00006A
:103D440001B1704710B5054C82B0134600F55771A8
:103D54000122009403F022FF02B010BD290B0000E1
:103D640001B1704710B5054C82B0134600F5677178
:103D74000122009403F012FF02B010BD9D0B00005D
:103D840001B1704710B5054C82B0134600F56B7154
:103D94000122009403F002FF02B010BDC10B000029
:103DA40001B1704710B5054C82B0134600F56F7130
:103DB4000122009403F0F2FE02B010BDE50B0000F6
:103DC40001B1704713460A4600F5947104F0FCBE35
:103DD40001B1704713460A4600F58E7104F0F4BE33
:103DE40001B1704713460A4600F1CC0104F0ECBE61
:103DF40001B1704713460A4600F1C00104F0E4BE65
:103E040001B1704770B5154682B00A4A04462B4684
:103E140000F58C6100920122074E03F005FD2B464C
:103E2400012204F284412046009603F0FDFC02B016
:103E340070BD00BF2D430000AD190000012900D062
:103E4400704710B5054C82B0134600F2844100223D
:103E5400009403F0E9FC02B010BD00BFAD190000EE
:103E640001B1704770B5154682B00A4A04462B4624
:103E740000F2646100920122074E03F0D5FC2B4648
:103E8400012204F5D1612046009603F0CDFC02B076
:103E940070BD00BF01510000D9190000012900D0F4
:103EA400704710B5054C82B0134600F5D16100226D
:103EB400009403F0B9FC02B010BD00BFD919000092
:103EC400704700BF0B46114610B40B4CA34205D0FB
:103ED4000A4A934209D05DF8044B7047084B00220C
:103EE40018305DF8044B04F035BD064B0022183041
:103EF4005DF8044B04F02EBD5BC65CCEBA77ABF71D
:103F0400814D00003912000010B5054C82B01346F3
:103F140000F578710022009404F07CF802B010BD22
:103F2400C113000010B5054C82B0134600F578713A
:103F34000022009404F06EF802B010BDC11300001A
:103F440010B5064C82B0012300F57A71CDE9002446
:103F5400032203F095FB02B010BD00BF85150000DD
:103F640010B5064C82B0012300F57A71CDE9002426
:103F7400032203F085FB02B010BD00BF85150000CD
:103F840070B5002182B005461046144604F0B8FA14
:103F94000B4B01462046C91AB1FA81F1490904F0D4
:103FA400AFFAB0F17E5F01D002B070BD0022054EC1
:103FB400234628461146009603F0C4FB02B070BDA8
:103FC4006E0ED6068912000070B5002182B0054637
:103FD4001046144604F094FA0B4B01462046C91AC5
:103FE400B1FA81F1490904F08BFAB0F17E5F01D096
:103FF40002B070BD0022054E2346284611460096A5
:1040040003F0A0FB02B070BD6E0ED606F1120000E4
:104014002DE9F04F2DED0A8B8BB0DFF87C80044640
:104024001746DFF878A000F15C06DFF87490079378
:104034000AE0484505D1164B2A4604F1180004F05D
:1040440089FC304604F052F9304604F0EFF848B3E6
:10405400002509A93046099504F042F9099B014657
:10406400132B40F26C84236851F8040BD3F890307E
:10407400434508D15045DCD1064B2A4604F11800CB
:1040840004F068FCDDE70A46014620469847D8E775
:1040940039120000814D0000851E00005BC65CCE15
:1040A400BA77ABF723680546224920469B6D9847AB
:1040B400079B2669002B40F33A843344A069B7EE8A
:1040C400008A9FED1DAA009304F58063FFEE00AA09
:1040D400DFED1A9A019304F2F453F5EE008A9FED92
:1040E400189A049304F2BC6304F5976B04F2C46A4F
:1040F400029304F5D86304F59B698046039304F2A4
:10410400DC43069304F2D443059340460136F0B1F0
:1041140004F11808826813689E4217D9D0E9033164
:1041240020469847404604F05FFCA0690028F1D17E
:104134000CE000BFEBC021DDDB0FC940ABAA2ABEF7
:104144006257003C9A99193F3333333F8046019BB1
:10415400F0EE005AD4F8881093ED007ADBED007A83
:104164004B0AD4ED246A67EE277A43F07E53D4F8E1
:10417400942067EEA67A06EE903A002A36EEC86AD4
:10418400F0EE6A6AFDEEE77AE6EE256A17EE903AFB
:104194000B44C4F88830F0EEE66A66EE876AC0F233
:1041A4009883D4ED267AB0EE674AD4F8C0C0A6EE60
:1041B400A77AD4ED2E4AB6EE005AD4ED2D7A4FEA02
:1041C4005C23D4ED276A013A77EEA47A43F07E5358
:1041D40076EE846A94ED2B6AD4F8CC10F1EE005A92
:1041E400C4ED2D7A07EE903AC4ED266A27EE066AEE
:1041F40077EEC87A4B0AC4F8942043F07E53D4F87F
:10420400A42077EEC57AF0EEE77A77EEE87A67EEE7
:104214008A7A67EEA76A26EEA77AE7EE297A27EE6E
:10422400267AE7EE097A07EE103A530A37EE487A0F
:1042340043F07E5337EE457AB0EEC77A37EE687AAC
:1042440027EE0A7A27EE075A65EE076AA6EEA97AE0
:1042540066EE856AA6EE897A37EE271A27EE277A64
:1042640007EE903A77EEC87A78EE676AC7FEE67A88
:10427400F0EE6A6AE7EEA56AFDEEC67A17EE903AAA
:104284001344D4F8B020C6FEC86AC6FEAA6AC4F8AD
:10429400A430013AD4F8C43066EEA86AC4F8B02059
:1042A4006344C4F8C030D4F8D0300B44C4F8CC30E4
:1042B400D4F8D830002BC0F2078394ED374AF0EEDF
:1042C40044BA039AF0EE487A94EDCC6A013BD2EDFD
:1042D400003AF6EE001A029AE6EE447A9AED005A93
:1042E400B1EE003A92ED002A24EE044A049A94EDC9
:1042F400446AD2ED005AC4F8D83067EE877AD4F80D
:10430400E83025EE855A94ED457A5A0AE1EE087AAA
:1043140036EE077A94EDCDBA42F07E52D4EDC94A16
:10432400D4F81CC106EE102A84ED447A4FEA5C22CC
:10433400D4F8281136EE486A94ED3C0AE7EE8B4A2D
:1043440042F07E52D4F8F4E036EE616A94ED3FCA4E
:10435400D4ED422A25EE0C5AD4ED380AB0EEC66AE2
:1043640064EE804A70EEAB0A36EE686AFDEEE44A0B
:10437400C4ED370A26EE0A6A14EE900A26EE067A8F
:1043840018444FEA5E23C4F8E80067EE067A43F067
:104394007E53A7EEA96A67EE877AA7EE896A07EECD
:1043A400902A4A0A77EEC87A42F07E5277EEE17A92
:1043B400F0EEE77A77EEE87A67EE8A7A27EEA71AC4
:1043C40021EE277AE7EE297A27EE017AE7EE097AD9
:1043D40007EE102AD4F8002137EE487A37EE617AD6
:1043E400B0EEC77A37EE687A27EE0A7A27EE071A14
:1043F40061EE071AA1EEA97A61EE811AA1EE897A1B
:1044040077EE271A27EE277A07EE903A530A77EECB
:10441400C87A43F07E53D2EE273A07EE903A77EE0D
:10442400C87A78EE674AF0EEE33AC7FEE47AF0EE33
:104434006A4AE3EEE55AE7EE834AFDEEC57A65EE95
:10444400A25A17EE903A7344C4FEC84AFDEEE57AC8
:10445400C4FEAA4AC4F8F43064EEA84A17EE903AAF
:10446400E4EE064A1344D4F80C21C4F80031013AAE
:10447400D4F82031C4F80C216344C4F81C31D4F8B6
:104484002C310B44C4F82831D4F83431002BC0F259
:104494001682D4ED4E5AB0EE654AF0EE487A94EDA9
:1044A4009A5AD4F84411013B94ED9B2AB6EE003A93
:1044B400E5EE657AC4F834314B0A94ED976A25EE3B
:1044C400A55AD4ED4F5A43F07E53D4ED532A75EEDA
:1044D400845A5FEDE43AD4F8502167EE877A1FEDF1
:1044E400E64AC4ED4E5A002AE1EE887AA7EE826AC3
:1044F40007EE903A77EEC87A77EEC37A26EE226A10
:10450400F0EEE77A77EEE87A67EE8A7A27EEA77A12
:1045140067EE275AE5EEA97A65EE875AE5EE897AC1
:1045240025EE277AFDEEC67A27EE237A17EE903A27
:1045340037EE245A0B44C4F84431A6EE845AC0F230
:10454400B981D4ED557AB0EE673A069B013A99EDFC
:10455400006AD4ED565A93ED004A27EE866A059B0D
:1045640075EE837ADFEDE53AD3ED005A86FE446AB0
:10457400D4F8603186FE236AC4ED557AD3ED047A0B
:10458400C4F85021F8EE677A77EEC87A77EEC67AE7
:10459400BBFE674AB4EEE34AF1EE10FA40F17981CA
:1045A400F4EE635AF1EE10FA00F0738174EE255ABA
:1045B400D4F864C1DCF80010BDEEE56A16EE103ADA
:1045C4005A1C00F1B681DCF80CC0944540F2B1816C
:1045D40001EB8201002B4FEA820CD4F87421D1ED57
:1045E400005A1168C0F2A581D2689A4240F2A181B2
:1045F4006144D4F8843177EEC47A11ED016A002B5A
:1046040075EEC65AA5EEA76AC0F26D8194ED624AB2
:10461400F0EE445A013BD4ED637AC4F8843177EE6A
:10462400A57AD4F89431F0EE455A002BC4ED627AA1
:10463400E6EE045AC0F2528194ED666AB0EE464A40
:10464400D4ED677A013BDFEDAD3A77EE847AC4F8B6
:104654009431D4F8A431C4ED667AD3ED047A04F22B
:10466400F443F8EE677A93ED004A04F59F6326EE6F
:10467400046A77EEC87A93ED004A04F59E6386FED9
:10468400446A86FE236A77EEC67A93ED006ABBFE1F
:10469400674AB4EEE34AF1EE10FA40F1FD80B4EE5D
:1046A400636AF1EE10FA00F0F78034EE066AD4F88B
:1046B400A8C1DCF80010BDEEC66A16EE103A5A1C0A
:1046C40000F13781DCF80CC0944540F2328101EBF3
:1046D4008201002B4FEA820CD4F8B821D1ED003AC4
:1046E4001168C0F22681D2689A4240F22281614464
:1046F400D4F8C83177EEC47A11ED016A002B73EE59
:10470400C63AA3EEA76AC0F2F38094ED734AF0EEC2
:10471400443A013BD4ED747AE4EE465AC4F8C83105
:1047240077EEA37AD4E97632C4ED737A511C986893
:10473400814200F20B81186800EB8202C2ED005A3C
:10474400C4F8DC111961D4E97832511C98688142AB
:1047540000F2FC80186800EB820282ED005A44F2F9
:10476400A712D4ED7A7AC4F8E411F4EEE47A19616C
:10477400D4F86833C4ED7A4AF1EE10FA02FB03F37D
:10478400C4F8683300F38B80D4ED7B7A94ED7C4AD3
:1047940094EDDF6AD4EDE34A26EE446A9FED585A5D
:1047A400D4F8F431A4EEA76A002B26EE055A84ED62
:1047B4007C6A35EE252AC0F2B58094ED7E1AF0EEBF
:1047C40041BAD4EDFB7AB6EE004A94ED7F6A35EE39
:1047D400265A61EE277A9FED4BBA36EE2B6A9FED8F
:1047E4004A0ADFED4A0A013B67EEA77ADFED481A71
:1047F40084ED7E6ADFED472A67EE817A9FED3F3ACA
:10480400DFED453ADFED454AFBFE67BA77EEEB7A1A
:10481400C4F8F4313B6877EEC47A2B44F0EEE77ABF
:1048240077EEE87A67EE8B7A27EEA7BA2BEE276A43
:10483400E6EE407A26EE0B6AE6EE207A67EE817A9F
:10484400B0EE676A77EE877AA2EE216AE5EE227A05
:1048540036EE077AE5EE847AA6EEA37AF0EE436AA2
:10486400E7EEA46AF0EE437AE7EE247AC3ED006A39
:104874007B682B440435C3ED007A009B9E427FF491
:1048840044AC009B079823610BB0BDEC0A8BBDE8D8
:10489400F08FF0EE635A89E6B0EE636A05E707EE3F
:1048A400903A9FED1F6AF8EEE77A67EE867AC4EDD8
:1048B4007B7A6BE7D4ED577A94ED553A45E6D4ED1F
:1048C400505A94ED4E4AE8E594ED394AD4ED37BA9E
:1048D400F7E4D4ED287A94ED264A66E494ED686A08
:1048E40094ED664AACE694ED644AD4ED625A91E6DE
:1048F40094ED754AD4ED733A0BE700BF0000000055
:10490400CDCC4C3FE40FC940C1AA2A3E8380003C71
:104914009A99193F3333333FCDCCCC3ECDCCCC3DEB
:10492400F6FFFF2F94ED801AD4ED7EBA49E7009686
:10493400A7E7094B4B21094A094813F0A5F8094B8D
:1049440040F61D11084A094813F09EF8084B282127
:10495400084A094813F098F8580C0020980C0020D5
:10496400CC0C0020580F0020200C0020A00B0020AD
:10497400080D0020340D0020640D00202DE9F043C3
:104984002DED048B85B00446B0EE409B9FEDCF8A9D
:1049940004AFFDF7E9FE2046CD4BB0EE490B04F21F
:1049A400C45504F5AC6640F8883B4FF0000804F0A9
:1049B400DFF86369024604F194004FF000091344E0
:1049C400636104F077F86369B0EE490B034404F1C2
:1049D400A400636104F0CCF86369034404F1B000FB
:1049E400636104F067F863690246B0EE480AB0EE0A
:1049F400491B04F1C0001344636104F0CDF86369FA
:104A0400B0EE491B0344B0EE480A04F1CC006361E4
:104A140004F0C2F86369034404F1D800636104F04C
:104A240049F863690246B0EE490B04F1E800134407
:104A3400636104F09DF86369B0EE490B034404F12B
:104A4400F400636104F094F86369B0EE490B034425
:104A540004F58070636104F08BF86369034404F522
:104A64008670636104F026F863690246B0EE480A72
:104A7400B0EE491B04F58E701344636104F08CF8A6
:104A84006369B0EE491B0344B0EE480A04F5947020
:104A9400636104F081F86369034404F59A70636107
:104AA40004F008F863690246B0EE490B04F5A270FD
:104AB4001344636104F05CF86369024604F5A8706A
:104AC4001344636103F0F6FF636929461844606187
:104AD40004F5B07004F0E4F8636929460022184430
:104AE400606104F5B27004F0CFF8636929460022CE
:104AF4001844606104F5BA7004F0C6F863690246AC
:104B040004F5C2701344636103F0D4FF6369034482
:104B140004F5CA70636103F0CDFF6369314618443C
:104B2400606104F5D27004F0BBF863693146002279
:104B34001844606104F5D47004F0A6F86369002297
:104B440031461844606104F5DC7004F09DF8636933
:104B5400034404F5E470636103F0ACFF6369314618
:104B64001844606104F5EC7004F09EF8636929460A
:104B74001844606104F5F07004F096F86369034426
:104B840004F5F470636103F081FF6369034404F581
:104B9400F670636104F072F86369034404F5F87015
:104BA400636104F065F86369034404F5FA706361B2
:104BB40003F080FF63690246B0EE480A04F5017011
:104BC4001344636103F012FA6369B7EE000A034405
:104BD40004F50370636103F009FA6369B0EE480AEF
:104BE400034404F50670636103F000FA636939490C
:104BF4001844606104F5097002F0C8FF636901227A
:104C040018441146606104F50A7003F003F86369FF
:104C14004246022118444B46606104F50C70CDE90C
:104C2400008902F0C5FE6369012204211844606111
:104C340004F50D7002F0EEFF6369012203211844AC
:104C4400606104F50F7002F0E5FF6369012202213F
:104C54001844606104F5117002F0DCFF63690122FD
:104C640018441146606104F5137002F0D3FF6369C0
:104C7400012200211844606104F5157002F0CAFF96
:104C84006369F0EE480A00211844B0EE480A6061F6
:104C940004F5177004F06EF86369B0EE480A18441E
:104CA400606104F5187002F0E5FC6369F0EE480AEF
:104CB40000211844B0EE480A606104F51A7004F04B
:104CC40059F86369F0EE480A0AE000BF00000000EA
:104CD40068150020F476BF39000070430000F043EB
:104CE40000211844B0EE480A606104F51B7004F01A
:104CF40041F86369B0EE480A1844606104F51C7019
:104D040003F074F9636904F51E71B0EE480A18449F
:104D14006061204602F07AFD63691FED110A1844B0
:104D2400606104F5277003F061F96369B0EE480A25
:104D34001844606104F52B7002F09CFC636904F56F
:104D44002C71B0EE480A18446061204602F05EFD02
:104D540063691FED1E0A1844606104F5357003F0A1
:104D640045F96369B0EE480A1844606104F5397086
:104D740002F080FC6369CE491844606104F53B701D
:104D840002F004FF6369012218441146606104F5CE
:104D94003C7002F03FFF42460221CDE9008963697D
:104DA40018444B46606104F53E7002F001FE6369ED
:104DB400012204211844606104F53F7002F02AFFC7
:104DC4006369012203211844606104F5417002F013
:104DD40021FF6369012202211844606104F54370D4
:104DE40002F018FF6369012218441146606104F55A
:104DF400457002F00FFF63690122002118446061CD
:104E040004F5477002F006FF6369F0EE480A0021DA
:104E14001844B0EE480A606104F5497003F0AAFF33
:104E24006369B0EE480A1844606104F54A7002F000
:104E340021FC6369F0EE480A00211844B0EE480AE8
:104E4400606104F54C7003F095FF6369F0EE480A65
:104E540000211844B0EE480A606104F54D7003F077
:104E640089FF6369B0EE480A1844606104F54E7026
:104E740003F0BCF86369B0EE480A1844606104F5B5
:104E8400507003F0B3F86369B0EE480A18446061E7
:104E940004F5527003F0AAF86369B0EE480A1844A6
:104EA400606104F5547003F0A1F863698149184402
:104EB400606104F5577002F069FE636901221844C9
:104EC4001146606104F5587002F0A4FE6369184449
:104ED400002360611A46194604F55A7003F05AFF1C
:104EE40063699FED750A1844606104F55B7003F013
:104EF4007DF86369B0EE480A1844606104F55D709A
:104F040002F0B8FB6369F0EE480A00211844B0EEE1
:104F1400480A606104F55F7003F02CFF6369F0EEEA
:104F2400480A00211844B0EE480A606104F5637031
:104F340003F020FF6369B0EE480A1844606104F589
:104F4400647003F053F863695C491844606104F5C4
:104F5400677002F01BFE6369012218441146606108
:104F640004F5687002F056FE63695549184460619F
:104F740004F56B7002F00AFE6369012218441146BD
:104F8400606104F56C7002F045FE63694D49184494
:104F9400606104F56F7002F0F9FD63690122184441
:104FA4001146606104F5707002F034FE6369B3EE7B
:104FB4000B0A1844606104F5727003F017F8636912
:104FC4009FED410A1844606104F5747003F00EF813
:104FD4006369B2EE0E0A1844606104F5767003F05A
:104FE40005F863699FED390A1844606104F5787027
:104FF40002F0FCFF6369B3EE0D0A1844606104F526
:105004007A7002F037FB6369F0EE480A0021184415
:10501400B0EE480A606104F57B7003F0ABFE63698F
:10502400B7EE000A1844606104F57F7002F022FBB9
:105034006369F0EE480A00211844B0EE480A606142
:1050440004F5806003F096FE6369B1EE000A18442B
:10505400606104F2144002F0C9FF6369B3EE0E0A02
:105064001844606104F21C4002F0C0FF63699FEDC4
:10507400180A1844606104F2244002F0B7FF424663
:105084000321CDE90289CDE90089636918444B46BF
:10509400606104F22C4002F08BFC63699FED0D0A01
:1050A4001844606104F5866002F0A0FF16E000BFBA
:1050B40097A97EE8F333C85F0044AC464B5F490BC5
:1050C400FFC2023098B36A7E000000420000DC4256
:1050D40000007A430000FA430000704263691FED48
:1050E400020A1844606104F5876002F07FFF636977
:1050F400012202211844606104F5886002F08AFDEF
:105104006369012218441146606104F5896002F064
:1051140081FD6369012200211844606104F58A60FD
:1051240002F078FD63694FF0FF3201211844606199
:1051340004F58B6002F06EFD6369B0EE480A04F575
:105144008C6118446061204602F060FB6369B0EE34
:10515400480A04F2844118446061204602F056FB78
:10516400636900211844606104F5956002F0FCFB5A
:1051740063694FF0FF3201211844606104F2AC40CE
:1051840002F048FD42460221CDE9008963691844D2
:105194004B46606104F2B44002F00AFC6369F0EE2D
:1051A400480A00211844B7EE000A606104F59760CC
:1051B40003F0E0FD42460221CDE900896369184409
:1051C4004B46606104F2BC4002F0F2FB424602210D
:1051D400CDE90089636918444B46606104F5986021
:1051E40002F0E6FB6369BD491844606104F2C440FF
:1051F40002F004FF6369F0EE480A00211844B0EE9F
:10520400480A606104F2D44003F0B4FD6369F0EE2F
:10521400480A00211844B0EE480A606104F59B6016
:1052240003F0A8FD6369F0EE480A00211844B0EECB
:10523400480A606104F2DC4003F09CFD6369A849FC
:105244001844606104F59C6002F0D8FE6369F0EED6
:10525400480A00211844B0EE480A606104F59E60D3
:1052640003F088FD6369F0EE480A00211844B0EEAB
:10527400480A606104F2F44003F07CFD6369F0EED7
:10528400480A00211844B0EE480A606104F59F60A2
:1052940003F070FD6369B0EE480A04F21451184437
:1052A4006061204602F0B2FA6369B0EE480A04F580
:1052B400A76118446061204602F0A8FA63690246B7
:1052C4004FF4807130461344636103F075FD6369E4
:1052D400B0EE480A04F5AF6118446061204602F05C
:1052E40095FA6369B0EE480A04F29C51184460616F
:1052F400204602F08BFA636902464FF48071284617
:105304001344636103F058FD6369B7EE000A034474
:1053140004F5BE60636102F0ADF96369F0EE480A1A
:1053240000211844B0EE480A606104F2F45003F01E
:1053340021FD63699FED6B0A034404F5C160636159
:1053440002F054FE6369B2EE000A034404F5C2603D
:10535400636102F04BFE63694246032118444B46E5
:10536400CDE90289CDE90089606104F5C36002F0EA
:105374001FFB6369B3EE0E0A034404F21C6063610D
:1053840002F034FE63699FED580A034404F224607A
:10539400636102F02BFE63699FED540A034404F237
:1053A4002C60636102F022FE63699FED510A03449D
:1053B40004F23460636102F019FE63690122022180
:1053C4001844606104F2446002F024FC6369012221
:1053D40018441146606104F24C6002F01BFC6369DE
:1053E400012200211844606104F2546002F012FCAE
:1053F40063694FF0FF3201211844606104F25C607C
:1054040002F008FC6369B0EE480A04F264611844CF
:105414006061204602F0FAF96369B0EE480A04F5C7
:10542400D16118446061204602F0F0F963690021FB
:105434001844606104F2AC6002F096FA63694FF0BC
:10544400FF3201211844606104F5D66002F0E2FBEA
:10545400616942464B4608440221CDE900896061F6
:1054640004F5D76002F0A4FA6369F0EE480A00215B
:105474000344B0EE000A04F2BC60636103F07AFCFA
:105484006369F0EE480A00210344B7EE000A04F50C
:10549400D860636103F06EFC6369B7EE000A002113
:1054A4000344F0EE480A04F2C460636103F062FC52
:1054B400636984B00021034404A8636102F076FFA9
:1054C4000C4B0146002204F1180003F043FA204675
:1054D4000437BD46BDEC048BBDE8F083A40D002069
:1054E400B80D002000005C43000048420000FA436D
:1054F4000000DC43814D000070B5002105461846CC
:105504001C4602F0FDFF114B01462046C91AB1FAB0
:1055140081F1490902F0F4FF0D4B98420AD00D4E77
:10552400234605F50971284604960022BDE870401B
:1055340002F034BB084E234605F50A71284604964A
:105544000022BDE8704002F06BBB00BF6E0ED606B1
:1055540001BD647EAD090000C11C0000F0B583B03C
:105564000121054602AF84B0126802AC204602F065
:1055740009FFA388CBB101264FF07E510C4A234684
:10558400E1602846314626720092002202F0DAF8E1
:10559400DFF820C02346002231462846CDF800C05B
:1055A40002F0D0F80437BD46F0BDFEF72BFB00BF78
:1055B40045160000C51700000021FFF7CFBF00BF4C
:1055C400F0B583B00121054602AF84B0126802AC85
:1055D400204602F0D7FEA3888BB100230121094A9B
:1055E4002846094E21721946E26002229FED070AFD
:1055F400CDE9004602F07CF80437BD46F0BDFEF765
:1056040001FB00BFCDCCCC3D651600000000164464
:105614002DE9F04F83B002211446064602AF86B04E
:10562400126802AD284602F0ADFE00232246284649
:10563400194602F0B3FFAB88012B33D94FF00008B1
:105644004FF001094FF0000B06F59A7A2B4685F8C6
:105654001090C5F814B04246CDF80080514630464B
:1056640003F032FA86B02268022102AD284602F025
:1056740089FEBDF80C30ABB122464B46494628465C
:10568400CDF814B08DF8109002F088FF2B464246F6
:1056940051463046CDF8008003F016FA0437BD4673
:1056A400BDE8F08FFEF7AEFA0021FFF7B1BF00BFEF
:1056B400F0B583B00521054602AF8CB0126802AC88
:1056C400204602F05FFEA388002B49D00122254921
:1056D40093422272E16043D02349022B2274616118
:1056E4003ED02249032B2276E16139D02049042B94
:1056F40084F82020616233D01E4923461E4884F872
:1057040028200022E16205F50D710090284602F080
:1057140087FA1A48234605F50F710090002228469F
:10572400174E02F07DFA1748234605F511710090D3
:105734000022284602F074FA1348234605F5137133
:1057440000900022284602F06BFA2346002205F559
:1057540015712846009602F063FA0437BD46F0BD81
:10576400FEF750FAFC013B44AEE77F44AE62313EA3
:105774000010F6445CAF1046011500000D15000042
:10578400911D000019150000811D0000B0B582B004
:105794000121054602AF84B0126802AC204602F033
:1057A400F1FDA38883B1E38802200A4A0A490B3336
:1057B400E260002220722846E380234600911146CD
:1057C40002F0AAFABD46B0BD044B9421044A054830
:1057D40012F05AF9E40B0020D1090000AC120020A9
:1057E4004813002074120020F0B583B0012105464F
:1057F40002AF84B0126802AC204602F0C3FDA38855
:1058040093B1E38802210B4A28460B4E06332172DA
:1058140005F51E71E2600022E3802346009602F043
:1058240003F80437BD46F0BD044B9421044A0548EF
:1058340012F02AF9F00B0020853F0000AC12002082
:10584400481300207412002070B500210546184644
:105854001C4602F055FE0F4B01462046C91AB1FA08
:1058640081F1490902F04CFE60B10B4B984209D01A
:105874000A4E00222346284604961146BDE870408D
:1058840001F060BF224628460021BDE87040FFF7C2
:10589400ABBF00BF6E0ED6062D035B7ADD3F000062
:1058A400B0B582B00121054602AF84B0126802ACE3
:1058B400204602F067FDA38883B1E38802200A4AE8
:1058C4000A490B33E260002220722846E380234613
:1058D4000091114602F020FABD46B0BD044B94215C
:1058E400044A054812F0D0F8E40B00201D0A000019
:1058F400AC1200204813002074120020F0B583B0CD
:105904000121054602AF84B0126802AC204602F0C1
:1059140039FDA38893B1E38802210B4A28460B4E34
:105924000633217205F52C71E2600022E3802346E0
:10593400009601F079FF0437BD46F0BD044B942175
:10594400044A054812F0A0F8F00B00208D3E000038
:10595400AC120020481300207412002070B50021FE
:10596400054618461C4602F0CBFD0F4B0146204667
:10597400C91AB1FA81F1490902F0C2FD60B10B4BB9
:10598400984209D00A4E002223462846049611461E
:10599400BDE8704001F0D6BE224628460021BDE88D
:1059A4007040FFF7ABBF00BF6E0ED6062D035B7AC7
:1059B400D93E000000230F499FED0F0A70B515462C
:1059C40082B01C46064601910C221946009501F04E
:1059D4008FFE2B462246214630460094FFF734FFC3
:1059E4002B462246214630460094FFF7B7FF02B00B
:1059F40070BD00BFC90F00000000000070B5002199
:105A0400054618461C4602F07BFD114B0146204614
:105A1400C91AB1FA81F1490902F072FD0D4B98429D
:105A24000AD00D4E234605F53B7128460496002204
:105A3400BDE8704002F0B2B8084E234605F53C714B
:105A4400284604960022BDE8704002F0E9B800BF81
:105A54006E0ED60601BD647EB10A0000E11C000092
:105A6400F0B583B00121054602AF84B0126802ACE0
:105A7400204602F087FCA388CBB101264FF07E516B
:105A84000C4A2346E16028463146267200920022E1
:105A940001F058FEDFF820C0234600223146284694
:105AA400CDF800C001F04EFE0437BD46F0BDFEF750
:105AB400A9F800BF05170000FD1700000021FFF73B
:105AC400CFBF00BFF0B583B00121054602AF84B05B
:105AD400126802AC204602F055FCA3888BB1002367
:105AE4000121094A2846094E21721946E260022220
:105AF4009FED070ACDE9004601F0FAFD0437BD46E3
:105B0400F0BDFEF77FF800BFCDCCCC3D25170000DB
:105B1400000016442DE9F04F83B0022114460646D6
:105B240002AF86B0126802AD284602F02BFC0023B7
:105B340022462846194602F031FDAB88012B33D9A1
:105B44004FF000084FF001094FF0000B06F1D80A9E
:105B54002B4685F81090C5F814B04246CDF8008065
:105B64005146304602F0B0FF86B02268022102ADF1
:105B7400284602F007FCBDF80C30ABB122464B4678
:105B840049462846CDF814B08DF8109002F006FD71
:105B94002B46424651463046CDF8008002F094FF31
:105BA4000437BD46BDE8F08FFEF72CF80021FFF75F
:105BB400B1BF00BFF0B583B00521054602AF8CB07C
:105BC400126802AC204602F0DDFBA388002B49D00A
:105BD4000122254993422272E16043D02349022BDA
:105BE400227461613ED02249032B2276E16139D0CF
:105BF4002049042B84F82020616233D01E492346B7
:105C04001E4884F828200022E16205F53F710090C7
:105C1400284602F005F81A48234605F5417100901C
:105C240000222846174E01F0FBFF1748234605F5CE
:105C3400437100900022284601F0F2FF13482346E6
:105C440005F5457100900022284601F0E9FF23463E
:105C5400002205F547712846009601F0E1FF04375C
:105C6400BD46F0BDFDF7CEFFFC013B44AEE77F44EB
:105C7400AE62313E0010F6445CAF104625150000BC
:105C840031150000B11D00003D150000A11D0000EC
:105C940070B50021054618461C4602F031FC114B34
:105CA40001462046C91AB1FA81F1490902F028FCDB
:105CB4000D4B98420AD00D4E234605F557712846E0
:105CC40004960022BDE8704001F068BF084E2346E8
:105CD40005F55871284604960022BDE8704001F08D
:105CE4009FBF00BF6E0ED60601BD647E290B000067
:105CF400011D0000F8B500AF86B0022115466C46C0
:105D040012680646204602F03DFB00232A46204640
:105D1400194602F043FCA388012B0CD94FF07E53A3
:105D24000125224606F55A7130462574636103F055
:105D340035F8BD46F8BDFDF765FF00BF0021FFF74C
:105D4400D9BF00BFB0B582B00121054602AF84B00F
:105D5400126802AC204602F015FBA38883B1E388E5
:105D640002200A4A0A490B33E260002220722846C4
:105D7400E38023460091114601F0CEFFBD46B0BD3D
:105D8400044B9421044A054811F07EFEE40B0020E4
:105D9400BD3D0000AC120020481300207412002006
:105DA400F0B583B002211546064602AF86B01268EC
:105DB40002AC204602F0E6FAA388B3B10C480121F4
:105DC4002A460023E0602046217202F0E7FB094DD9
:105DD40000239FED090A032230461946CDE9004508
:105DE40001F086FC0437BD46F0BDFDF70BFF00BF94
:105DF400E40FC94065170000000000000021FFF710
:105E0400CFBF00BF70B50021054618461C4602F0FE
:105E140077FB114B01462046C91AB1FA81F14909B1
:105E240002F06EFB0D4B98420AD00D4E234605F549
:105E34006771284604960022BDE8704001F0AEBEAA
:105E4400084E234605F56871284604960022BDE8ED
:105E5400704001F0E5BE00BF6E0ED60601BD647E43
:105E64009D0B0000211D000070B500210546184659
:105E74001C4602F045FB114B01462046C91AB1FAF3
:105E840081F1490902F03CFB0D4B98420AD00D4EBA
:105E9400234605F56B71284604960022BDE8704040
:105EA40001F07CBE084E234605F56C712846049625
:105EB4000022BDE8704001F0B3BE00BF6E0ED606EE
:105EC40001BD647EC10B0000411D000030B500F52A
:105ED4002C7585B0044611462846039201F030FD26
:105EE40029460C4A0025039B204600922A4601F0CD
:105EF4009BFC039B2A46294620460095FFF77EFD1E
:105F0400039B2A46294620460095FFF7ADFF05B0BE
:105F140030BD00BF8D3E000030B585B00021044681
:105F24000392FFF7EBFC00220C49039B2046154625
:105F3400009104F52C7101F077FC039B2A46294655
:105F440020460095FFF75AFD039B2A462946204622
:105F54000095FFF789FF05B030BD00BF8D3E0000FE
:105F640070B50021054618461C4602F0C9FA114BCB
:105F740001462046C91AB1FA81F1490902F0C0FA72
:105F84000D4B98420AD00D4E234605F56F712846F5
:105F940004960022BDE8704001F000BE084E23467E
:105FA40005F57071284604960022BDE8704001F0A2
:105FB40037BE00BF6E0ED60601BD647EE50B000041
:105FC400611D000070B500F51E7482B005461146CF
:105FD4002046164601F0B4FC21460F4A00243346FD
:105FE40028460092224601F01FFC334622462146F1
:105FF40028460094FFF780FA334622462146284675
:106004000094FFF7FFFE33462246214628460094BB
:10601400FFF7A6FF02B070BD853F000070B50021F8
:1060240082B005461646FFF7DFFB00220F493346D0
:1060340014462846009105F51E7101F0F5FB334620
:106044002246214628460094FFF756FA3346224654
:10605400214628460094FFF7D5FE334622462146C2
:1060640028460094FFF77CFF02B070BD853F000016
:1060740070B50021054618461C4602F041FA134B40
:1060840001462046C91AB1FA81F1490902F038FAE9
:10609400B0F17E5F04D0B0F1804F15D050B170BD27
:1060A4000B4E00222346284604961146BDE8704054
:1060B40001F048BB074E2346024601460496284693
:1060C400BDE8704001F03EBB034EEAE76E0ED60613
:1060D40059130000251300008D13000000211346FE
:1060E40000B583B00A460091FFF7C2FF03B05DF824
:1060F40004FB00BF2DE9F04782B001211546064696
:1061040002AF84B0126802AC204602F03BF9A388C7
:106114008BB34FF07E534FF000084FF0010906F5A2
:10612400FA7AE3604246234684F808905146CDF853
:106134000080304602F0C8FC86B02A68022102AC16
:10614400204602F01FF9BDF80C30A3B100232A4603
:1061540049462046059343468DF8109002F01EFAF6
:106164002346424651463046CDF8008002F0ACFC4E
:10617400BD46BDE8F087FDF745FD00BF0021FFF7F0
:10618400B9BF00BFF0B583B00121054602AF84B0AA
:10619400126802AC204602F0F5F8A3888BB14FF0E8
:1061A40080420121084E002321722846E26005F551
:1061B4007F711622CDE9004601F062FA0437BD462C
:1061C400F0BDFDF71FFD00BF310C000030B50A49DA
:1061D40083B0044615460123CDE9002100F57F7103
:1061E400162201F04DFA2A460021204603B0BDE8EC
:1061F4003040FFF7C7BF00BF310C000070B500216D
:1062040082B0044618461D4602F07AF91B4A01463C
:106214002846891AB1FA81F1490902F071F9184A3C
:10622400904225D0002217492B4620460091114662
:1062340001F088FA14492B4600222046009104F507
:106244008861124E01F0ECFC11492B4600220091AA
:10625400204604F5896101F0E3FC2B46002204F595
:106264008A612046069602B0BDE8704001F0D8BCB1
:10627400084E2B46002204F58B61F2E76E0ED6061B
:106284002D035B7A8D440000C11D0000D54200003F
:10629400E11B0000191C000070B5002182B0054606
:1062A40018461C4602F02CF9154B01462046C91A23
:1062B400B1FA81F1490902F023F9124B984212D044
:1062C40011492346284600220091012101F03AFA9F
:1062D4000E4E2346002201212846069602B0BDE850
:1062E400704001F02FBA0A4E2346002205F2AC4159
:1062F4002846069602B0BDE8704001F091BC00BF8C
:106304006E0ED6065483BE47E51A00003D1A0000FF
:106314002544000001B1704710B582B013460A4607
:106324000091FFF7B9FF02B010BD00BFB0B582B055
:106334000121054602AF84B0126802AC204602F087
:1063440021F8A38873B101224FF07E5006492346F9
:10635400E06028462272009105F5956101F008FB82
:10636400BD46B0BDFDF74EFCFD1D000030B5114625
:1063740083B0044600F58C60154601F0E1FA084A42
:1063840004F2B44120462B460092002201F068FB3F
:106394002A460021204603B0BDE83040FFF7C6BFBF
:1063A4004D190000B0B582B00121054602AF84B09A
:1063B400126802AC204601F0E5FFA3886BB101220C
:1063C400002007492346E06028462272009105F523
:1063D400956101F0CDFABD46B0BDFDF713FC00BFD9
:1063E400FD1D00000021FFF7DDBF00BFF0B583B045
:1063F4000121054602AF84B0126802AC204601F0C8
:10640400C1FFA388DBB1E3880221104A1048063398
:10641400104E217205F28441E2600022E38023469B
:106424000090284601F000FA2346002205F58C610D
:106434002846009601F0F8F90437BD46F0BD064B36
:106444009421064A064811F01FFB00BFF00B002000
:10645400AD1900002D430000AC12002048130020A9
:1064640074120020012902D80021FFF7BFBF704732
:10647400F0B583B00121044602AF84B0126802ADC6
:10648400284601F07FFFAB88D3B1012600210D4AD5
:106494002B46E960204604F58C612E720092324648
:1064A40001F0C2F9DFF820C02B46324604F28441E1
:1064B4002046CDF800C001F0B7F90437BD46F0BD61
:1064C400FDF7A0FB2D430000AD1900000021FFF7EC
:1064D400CFBF00BFB0B582B00121054602AF84B082
:1064E400126802AC204601F04DFFA38883B1E38813
:1064F40002200A49002205332072E1602846E38025
:1065040005F1B0012346009202F0DEFABD46B0BDAB
:10651400034B9421034A044811F0B6FA100C0020EE
:10652400AC12002048130020741200200021FFF751
:10653400D1BF00BFB0B582B00121054602AF84B01F
:10654400126802AC204601F01DFFA3888BB1E388DA
:1065540000220B494FF0020C06332846E160114635
:10656400E380234684F808C00092FFF795FEBD46F9
:10657400B0BD044B9421044A044811F085FA00BFCD
:10658400F00B0020AC1200204813002074120020ED
:106594000021FFF7CFBF00BFF0B583B0022115463D
:1065A400064602AF86B0126802AC204601F0EAFE4D
:1065B40000232A462046194601F0F0FFA388012B48
:1065C4000ED9002201200749234620743046616118
:1065D40006F19401009202F077FA0437BD46F0BD4B
:1065E400FDF710FB000048420021FFF7D5BF00BFB4
:1065F4002DE9F04383B002211446804602AF86B0F1
:10660400126802AD284601F0BDFEAB88002B39D0DC
:1066140000234FF001094FF07E5228461E4649469A
:10662400EA60224685F8089001F0B8FF00962B46F0
:10663400324631464046FFF7E1FD88B02268032127
:1066440002AD284601F09EFEBDF80C30D3B1002304
:1066540049462246284605934B468DF8109001F092
:106664009DFF022322462846194601F097FF2B4638
:106674003246314640460096FFF7C0FD0437BD461A
:10668400BDE8F083FDF7BEFA0021FFF7B1BF00BFFC
:10669400B0B582B00121054602AF84B0126802ACE5
:1066A400204601F06FFEA38883B1E38802200A4AE2
:1066B4000A490B33E260002220722846E380234615
:1066C4000091114601F028FBBD46B0BD044B942156
:1066D400044A054811F0D8F9E40B0020110D00001C
:1066E400AC12002048130020741200202DE9F04160
:1066F40082B003211546064602AF88B0126802AC88
:10670400204601F03FFEA3881BB3E3884FF0020844
:1067140013492A4606332046E1600121E380002321
:1067240084F8088001F03AFFA388434511D9E3882F
:1067340030460C4A0C490533E2610022E3802346CB
:1067440084F818800091114601F0E6FABD46BDE8D0
:10675400F081064B9421064A064811F095F900BFD2
:10676400000C0020080C00209D150000AC12002035
:1067740048130020741200200021FFF7B7BF00BFA8
:10678400B0B582B00121054602AF84B0126802ACF4
:10679400204601F0F7FDA38883B1E38802200A4A6A
:1067A4000A490B33E260002220722846E380234624
:1067B4000091114601F0B0FABD46B0BD044B9421DE
:1067C400044A054811F060F9E40B0020390D00007B
:1067D400AC12002048130020741200202DE9F0416F
:1067E40082B003211546064602AF88B0126802AC97
:1067F400204601F0C7FDA3881BB3E3884FF00208CD
:1068040013492A4606332046E1600121E380002330
:1068140084F8088001F0C2FEA388434511D9E388B7
:1068240030460C4A0C490533E2610022E3802346DA
:1068340084F818800091114601F06EFABD46BDE857
:10684400F081064B9421064A064811F01DF900BF59
:10685400000C0020080C0020E1150000AC12002000
:1068640048130020741200200021FFF7B7BF00BFB7
:10687400B0B582B00121054602AF84B0126802AC03
:10688400204601F07FFDA38883B1E38802200A4AF1
:106894000A490B33E260002220722846E380234633
:1068A4000091114601F038FABD46B0BD044B942165
:1068B400044A054811F0E8F8E40B0020D90D000063
:1068C400AC1200204813002074120020F0B583B0ED
:1068D40002211546064602AF86B0126802AC204675
:1068E40001F050FDA388C3B1E08802210E4B2A4673
:1068F40007300E4D21720121E3600023E080204621
:1069040001F04CFE2346002206F5AC6130460095AA
:1069140002F0AAFA0437BD46F0BD054B9421054A9E
:10692400054811F0B1F800BFDC0B0020CD49000090
:10693400AC12002048130020741200200021FFF73D
:10694400C5BF00BFF0B583B00121054602AF84B0D6
:10695400126802AC204601F015FDA38893B1E388C8
:1069640002210B4A28460B4E0733217205F5AC6110
:10697400E2600022E3802346009602F075FA0437B1
:10698400BD46F0BD044B9421044A054811F07CF83F
:10699400F80B0020CD490000AC1200204813002061
:1069A4007412002010B5044682B0114600F5A760A9
:1069B400019200F0C5FF019A0021204602B0BDE813
:1069C4001040FFF7BFBF00BFF0B583B001210546FB
:1069D40002AF84B0126802AC204601F0D3FCA38855
:1069E40083B14FF07E520121074E2346217228467F
:1069F400E26005F5A7610222009600F015FF043756
:106A0400BD46F0BDFDF7FEF86549000010B584B041
:106A1400002104460392FFF7D7FF09492046039B50
:106A24000222009104F2145100F0FEFE00220549F6
:106A34002046039B0091114600F084FE04B010BD73
:106A44001D1B0000751A0000B0B582B00121054677
:106A540002AF84B0126802AC204601F093FCA38814
:106A640083B1E38802200A4A0A490B33E260002218
:106A740020722846E38023460091114601F04CF928
:106A8400BD46B0BD044B9421044A054810F0FCFFF8
:106A9400E40B0020290E0000AC1200204813002053
:106AA40074120020F0B583B002211546064602AFE9
:106AB40086B0126802AC204601F064FCA388C3B11E
:106AC400E08802210E4B2A4607300E4D2172012127
:106AD400E3600023E080204601F060FD23460022AD
:106AE40006F2C4513046009502F0BEF90437BD46A3
:106AF400F0BD054B9421054A054810F0C5FF00BFC1
:106B0400DC0B0020A54B0000AC1200204813002031
:106B1400741200200021FFF7C5BF00BFF0B583B099
:106B24000121054602AF84B0126802AC204601F090
:106B340029FCA38893B1E38802210B4A28460B4E13
:106B44000733217205F2C451E2600022E380234638
:106B5400009602F089F90437BD46F0BD044B942138
:106B6400044A054810F090FFF80B0020A54B0000E4
:106B7400AC120020481300207412002010B5044603
:106B840082B0114600F29C50019200F0D9FE019AA5
:106B94000021204602B0BDE81040FFF7BFBF00BF90
:106BA400F0B583B00121054602AF84B0126802AC8F
:106BB400204601F0E7FBA38883B14FF07E52012108
:106BC400074E234621722846E26005F29C510222B8
:106BD400009600F029FE0437BD46F0BDFDF712F81B
:106BE4003D4B000010B584B0002104460392FFF72A
:106BF400D7FF09492046039B0222009104F5AF61A7
:106C040000F012FE002205492046039B0091114624
:106C140000F098FD04B010BD711B0000911A000033
:106C2400F0B583B002211546064602AF86B012685D
:106C340002AC204601F0A6FB00232A462046194652
