:0200000460009A
:100000004643464200000156000000000103030081
:1000100000000000000000000000000000000000E0
:1000200000000000000000000000000000000000D0
:1000300000000000000000000000000000000000C0
:1000400000000000010408000000000000000000A3
:100050000000200000000000000000000000000080
:100060000000000000000000000000000000000090
:100070000000000000000000000000000000000080
:10008000EB04180A063204260000000000000000FD
:10009000050404240000000000000000000000002F
:1000A0000000000000000000000000000000000050
:1000B0000604000000000000000000000000000036
:1000C0000000000000000000000000000000000030
:1000D00020041808000000000000000000000000DC
:1000E0000000000000000000000000000000000010
:1000F0000000000000000000000000000000000000
:10010000D8041808000000000000000000000000F3
:100110000204180804200000000000000000000095
:1001200000000000000000000000000000000000CF
:10013000600400000000000000000000000000005B
:1001400000000000000000000000000000000000AF
:10015000000000000000000000000000000000009F
:10016000000000000000000000000000000000008F
:10017000000000000000000000000000000000007F
:10018000000000000000000000000000000000006F
:10019000000000000000000000000000000000005F
:1001A000000000000000000000000000000000004F
:1001B000000000000000000000000000000000003F
:1001C000000100000010000001000000000000001D
:1001D000000001000000000000000000000000001E
:1001E000000000000000000000000000000000000F
:1001F00000000000000000000000000000000000FF
:10020000FFFFFFFFFFFFFFFFFFFFFFFFFFFFFFFFFE
:10021000FFFFFFFFFFFFFFFFFFFFFFFFFFFFFFFFEE
:10100000D1002043491600600000000000000000ED
:10101000201000600010006000E801600000000087
:101020000000006000F4010000000000FFFFFFFF6F
:10103000FFFFFFFFFFFFFFFFFFFFFFFFFFFFFFFFC0
:10104000FFFFFFFFFFFFFFFFFFFFFFFFFFFFFFFFB0
:10105000FFFFFFFFFFFFFFFFFFFFFFFFFFFFFFFFA0
:10106000FFFFFFFFFFFFFFFFFFFFFFFFFFFFFFFF90
:10140000814205D051F8043B40F8043B8242F9D8B0
:10141000704700BF044A05494FF0000342F8043BFF
:101420009142FBD8704700BFC03A0020C04E002058
:101430002DE98848BFF34F8F00BF00BF00BF00BF3A
:1014400000F07AFA674B0822C3F8542100BF00BFAE
:1014500000BF00BF00BF00BF00BF00BF00BF00BF94
:1014600000BF00BF00BF00BF00BF00BF5E4A5F49B2
:101470005F48FFF7C5FF5F4A5F496048FFF7C0FF5D
:101480005F4CFFF7C7FF4FF470004FF0E0210023DF
:101490005C4AC1F8880D44F823200133B02BFAD1FF
:1014A000594B8021594A03F8011B9342FBD14FF05D
:1014B000E0254C4E4FF08039DFF880B1DFF880A195
:1014C0004FF0FF31C5F8084D0027C6F80491C6F863
:1014D00000B1C6F8F490C6F8F0A0D5F8243DDFF8C6
:1014E000648143F4E0234A4AC5F8243DD8F81C300F
:1014F00023F07F0343F04003C8F81C30D8F82430B1
:1015000023F07F0343F04003C8F824309166D1668E
:101510001167516700F018FA3E4B3F49A3633F4BF8
:10152000E36363236B610323AF612B613C4BC5F81D
:10153000203DD5F8FC3D43F08073C5F8FC3D394BA8
:101540001A6842F001021A605B680B6000F084FACE
:10155000C6F804913448C6F800B1C6F8F490C6F84D
:10156000F0A000F01DFCD8F86C10304B304A41F46C
:101570004051C8F86C101F60C3F80871C3F81871A7
:10158000C3F82871C3F83871936BDB0708D442F6AF
:101590001563284951651365936B43F00103936309
:1015A000234A254C936843F00113936000F0B8FB85
:1015B00000F002FC00F07EFA00F0C0F92368132B63
:1015C000FCD900F00FFB2368B3F5967FFBD300F046
:1015D000B9F900F0B5F900F0E7FB00F0D5FB30BF3A
:1015E000FDE700BF00800D40F88C01004420006042
:1015F00000000000C03A002040AD01600000002063
:10160000003800204115010000E400E0A0E400E003
:1016100000C00A40AD0A0100504E0020B10A01008E
:1016200000002020001000E00046C32300400840D6
:1016300000400D400000C056544E00201B101820E2
:101640000C0D111300C00F40054B4FF42A01054A41
:1016500005485A641864054A99639546FFF7E8FE01
:1016600000C00A40FFAAAAAA070020000000062026
:101670001BB9124B1B6F9B041ED400F03F000F4B95
:1016800022F0604221F0604140F489101867C3F8ED
:101690008010C3F890201A6F22F480521A671A6FD4
:1016A000002AFCDAD3F87011054A0A40C3F8702109
:1016B0001A6F22F480321A67704700BF00800D4015
:1016C000FF7F7FFF43690A4A03EB011010B4037ADE
:1016D000084C02EB0313D3E901321460C2681A60AC
:1016E00003690BB142691A605DF8044B704700BF93
:1016F0004C1E002061F801004369027E03EB0212D8
:1017000092F808C08C451CD01A7AFF2A19D0914251
:1017100010B5044616D01A7EFF2A06D00121D3E95F
:10172000002312681A4201D1217610BD064B052212
:10173000204603EB0C135B681A60FFF7C3FF2176AA
:10174000F3E770470021EAE74C1E002043690A4A8C
:1017500003EB011010B490F82830084C02EB03138F
:10176000D3E901321460C26A1A60036B0BB1426B99
:101770001A605DF8044B70474C1E002061F80100B0
:101780004369427E03EB021292F828C08C451ED0BA
:1017900093F82820FF2A1AD0914210B5044617D09A
:1017A00093F83820FF2A06D00121D3E900231268DC
:1017B0001A4201D1617610BD064B0522204603EB8B
:1017C0000C135B681A60FFF7C1FF6176F3E770479F
:1017D0000021EAE74C1E0020164942698B6B23F476
:1017E0007C0343F4802370B58B630446124DD2E929
:1017F00000130A681A4303690A60022200211A6171
:101800000E4A19619A6401225A629D624FF4303582
:10181000DD624FF001159E6C1E6519629D651A61AF
:10182000017EFFF74FFF617E2046BDE87040FFF765
:101830008DBF00BF00C00F40B80B05053B3728190E
:10184000B1F5607FF0B50E468DB028BF4FF46076DD
:101850000F46054672B62E4B0024702218602146B2
:101860002C4B2D481C8000F097FACFB121462A4816
:101870004FF0010C4A0901F01F03013150F82240DA
:101880000CFA03F38E4243EA040340F82230F1D805
:10189000284600234380013300F582709E42F9D828
:1018A0001E4C257815B162B60DB0F0BD082000F0D1
:1018B00087FA1B4B80220646009302A90693194B18
:1018C0000271056008A8029300F072FA06A9164A90
:1018D000304600F05DFA069B08A8DB689847009B3D
:1018E00002A8DB6898472378002BDCD10F4B104A05
:1018F000C3F858210F49D0204FF0E023402281F84F
:101900004600C3F808210123237062B60DB0F0BD74
:10191000C0480020784E0020C84800208B4E002090
:1019200030190020050501001B10010000380020BF
:101930001105010000E400E0704700BF704700BFE0
:10194000704700BF00BF704710B44FF0E023002184
:1019500010243148C3F8941DC3F89C4D1124C3F8DA
:10196000A00D2E48C3F89C4D1224C3F8A00D2C489E
:10197000C3F89C4D2B4AC3F8A00D2B4C42F0150226
:101980002A48C3F89C4DC3F8A00D294C2948C3F838
:101990009C4DC3F8A00D284CC3F89C2D2748284A1D
:1019A000C3F8A04DC3F89C0DC3F8A02D02F5A022EA
:1019B000244C0C322448C3F89C4DC3F8A02D234A74
:1019C000C3F89C0D224CC3F8A02D02F14062C3F86D
:1019D0009C4D2048C3F8A02D0C32C3F89C0DC3F8D1
:1019E000A02D00BF00BF00BF00BF00BF0122C3F891
:1019F000942DBFF34F8FBFF36F8FC3F8501FBFF30A
:101A00004F8FBFF36F8FD3F8142D5DF8044B42F462
:101A10004032C3F8142D70473F000010250008071E
:101A200009001000C04E0020130020002100020712
:101A300014000020250008130900001016002020C3
:101A400027000B1317000040180000602F000B0741
:101A5000190000701A000080F0B4154A40274FF4B6
:101A600080314FF480564FF400554FF4404443F218
:101A70004200136913F0020F0ED113F4005F0FD070
:101A800013F4805F0ED0002BF3DA13F4803F0BD1F8
:101A90005B060BD5F0BC7047946151619061E8E73B
:101AA0005561E6E75661E4E79161E2E75761E0E7F7
:101AB00000800D403F4A03203F49F3EE095AD2F817
:101AC00080304FF0000C9FED3D6A23F001039FED45
:101AD0003C5A30B4C2F88030C2F89000D1F8E0101F
:101AE000384DCBB2384C39482B6007EE903A0B0D8D
:101AF000C1F30B21F8EEE77A06EE903A07EE101AE2
:101B0000334BB8EEC77A2160F8EEE66A314937EE1A
:101B1000C66A37EEC55A76EEC76A77EEE57A26EEE4
:101B2000266AC3ED006A25EE265AD2F8803067EEA9
:101B3000A64AC0ED007AC6EE275A274885EE276AE6
:101B4000C4EEA76A75EE875AFCEEE55A36EE076AD0
:101B500015EE904ABCEEC66A43EA045376EE877AE5
:101B6000C2F8803016EE103AD2F89041FCEEE77AD7
:101B700001EA0341214317EE903AC2F89011C3F3F2
:101B80000B03D2F890110B431449C2F89031D2F8EC
:101B9000803043F00203C2F88030114B80F840C01F
:101BA000C1F840314FF0E023012230BCC3F80821D6
:101BB000704700BF00810D4000441F400000AA4252
:101BC0000000B442404E00203C4E0020444E002015
:101BD000484E00200000FF0F00E400E00038002025
:101BE0002D170100314B40F6617210B5C3F820216A
:101BF00040F2044400F0E8F82D4A2E49D2F8803033
:101C00002D4843F00303C2F880302C4BC1F86041EB
:101C100002681A4203D1D1F8A8319A071BD0254A8D
:101C20004FF00041244B5963D2F8403143F0020396
:101C3000C2F84031D2F840319B07FBD44FF400305A
:101C40004FF0E0211C4B4FF00042C1F88C021920EC
:101C50009A6300F095F8184A4FF08040154C002127
:101C600090630A20164B11604FF42072C4F8A8014B
:101C7000184600F091F84FF4800203464FF48100BB
:101C800040F243111860C4F858311A640D4B0E4AE3
:101C9000C4F84811C3F804224FF0E0224FF4003199
:101CA0000123C2F80C11C4F8403110BD00800D4072
:101CB00000C00F4000002E4000900D40001C1E0090
:101CC00000000020003800201519010008B50E4B57
:101CD0001B6E9B0700D4FBBE72B60C4B00200C4A57
:101CE000C3F8400103F160430A49A3F55F2311647F
:101CF0009D46BFF34F8F4FF400130748074ADB6937
:101D000002609B68984700BF00441F4000002E40BF
:101D100000C00A400300200000802020000012EBD9
:101D2000104BA020104AD96E41F4403110B4D9664E
:101D300040F23764D96E41F44071D96654649064BE
:101D4000936C1B06FCD4094A40F23761A02351640E
:101D50009364936C13F08003FBD1054A13705DF814
:101D6000044B704700C00F4000400C4000800C4006
:101D7000914E0020F8B500BFF8BC08BC9E467047E5
:101D80005FF800F0191001005FF800F0FD1101008C
:101D90005FF800F0850B01005FF800F0BD7D0100E9
:101DA0005FF800F0290D01005FF800F03D800100B0
:101DB0005FF800F0790501005FF800F029140100D8
:101DC0005FF800F0411301005FF800F0852001008A
:101DD00045000000BD6D0000A96E0000716F00009D
:101DE000857400009D740000B5740000CD7400007F
:101DF000E5740000FD740000157500002D750000ED
:101E0000457500005D75000075750000197A0000C9
:101E1000317A0000497A0000617A0000797A000086
:101E2000917A0000A97A0000C17A0000F57A0000DA
:101E3000257B00003D7B0000557B00006D7B000092
:0C1E4000857B0000498E0000890C010029
:101E4C0080C00F40000000031900000010000000CB
:101E5C00E8841F4001000000FF000000FF000000AC
:101E6C00000000000000000018000000100000003E
:101E7C00E4841F4001000000FF000000FF00000090
:101E8C0000000000000000001F000000F904010029
:101E9C0070C00F40000C0000110000001100000089
:101EAC00E0841F400200000024000000120000002B
:101EBC00E0841F4001000000100000001100000031
:101ECC00DC841F400200000025000000120000000E
:101EDC00DC841F40010000001E000000ED04010026
:101EEC0070C00F40C0000000120000001300000082
:101EFC00D0841F4001000000FF000000FF00000024
:101F0C00000000000000000013000000130000009F
:101F1C00CC841F4001000000FF000000FF00000007
:101F2C0000000000000000001C000000E1040100A3
:101F3C001603550053004200200053006500720048
:101F4C00690061006C000000180354006500650016
:101F5C006E00730079006400750069006E006F00FC
:101F6C000403090409026200030100C032080B00DB
:101F7C000202020100090400000102020100052412
:101F8C0000100105240101010424020605240600A9
:101F9C00010705820310001009040100020A000069
:101FAC0000070503024000000705840240000009F9
:101FBC0004020002FF6AFF000705810240000107CE
:101FCC00050102400001000009026200030100C08B
:101FDC0032080B0002020201000904000001020297
:101FEC00010005240010010524010101042402064E
:101FFC0005240600010705820310000509040100F1
:10200C00020A000000070503020002000705840213
:10201C000002000904020002FF6AC70007058102E2
:10202C000002010705010200020100000A0600027D
:08203C00EF0201400100000069
:10204400000000000000000000000000000000008C
:10205400000000000000000000000000000000007C
:102064000548064B1B1AD90F01EBA301491002D0F6
:10207400034B03B118477047C03A0020C03A002010
:102084000000000008B5054B1BB105490548AFF336
:102094000080BDE80840FFF7E3BF00BF0000000078
:1020A400AC4D002000F401604069704790ED020BD4
:1020B400704700BF0069704707EE901A9FED065BFA
:1020C400B8EE677B90ED026B27EE057B87EE060B7F
:1020D400B7EEC00B704700BF0000000000408F4007
:1020E40081657047806D704701657047006D70476A
:1020F40041657047406D704708B50368D3F88C306C
:10210400984700B1006808BD08B50368D3F88C305F
:10211400984700B1406808BD0023BFF35B8F80F887
:102124008430704700000000B0B582B004460D460C
:10213400002100AF84B06A4610467A6006F072F857
:1021440023687A682946DB6C20469FED030B984789
:102154000837BD46B0BD00BF00000000000000000D
:10216400B0B582B004460D46002100AF84B06A4683
:1021740010467A6006F04CF823687A682946DB6CCE
:1021840020469FED030B98470837BD46B0BD00BFFE
:102194000000000000000000F8B500AF8AB184B070
:1021A40004460D4600216E46304606F047F8236883
:1021B40032462946DB6C20469FED050B9847BD4609
:1021C400F8BD054B5321054A054815F08DFB00BFAA
:1021D400000000000000000000100020101000208B
:1021E400581000204FF001028430D0E84F3FC0E87F
:1021F400412F0029F9D1DBB2BFF35B8F002BF4D15F
:10220400704700BF4FF001028430D0E84F3FC0E870
:10221400412F0029F9D1D8B2BFF35B8F80F00100C0
:10222400704700BF183006F033BB00BF036810B519
:10223400D3F88C301446984718B1214606F008FDAF
:10224400012010BD00000000DFED0B7A90ED025B71
:1022540087FE800AB7EEC00A9FED056B20EE050BE2
:1022640080EE067BFCEEC77B17EE900A704700BF3A
:102274000000000000408F4000000000F8B5DE8838
:1022840000F170051C46174604362846314605F011
:1022940013FF60B10146E288204641F8047B05F053
:1022A400F3FF31462846BDE8F84005F033BF034B41
:1022B4001E21034A034815F017FB00BF80070020C6
:1022C4004C0800205810002010B50C1E82B00ADD06
:1022D4005C30019005F0E2FEA102019802B0BDE875
:1022E400104005F0B7BE034BB921034A034815F06B
:1022F400FBFA00BF88130020981300205810002018
:1023040010B50C1E82B00ADD7030019005F0C6FED7
:10231400A102019802B0BDE8104005F09BBE034B3A
:10232400BF21034A034815F0DFFA00BFD41300208D
:10233400E41300205810002008B5034AE221034B9F
:10234400034815F0D1FA00BF4407002034070020E9
:102354005810002008B5034AEE21034B034815F03A
:10236400C3FA00BFA408002034070020581000203E
:102374002DE9F04390461F46026D0E46294B00217D
:1023840083B09A42316046D1814600F1850C4FF00A
:10239400010EDCE84F4FCCE845EF002DF9D1E4B253
:1023A400BFF35B8F002CF4D109F17005284605F0CA
:1023B40079FEA8B101A92846019405F0CDFEC0B16B
:1023C400019A132A1BD997421FD301464046012480
:1023D40051F8043B336010F039FF284605F0C2FE83
:1023E40000232046BFF35B8F89F8853003B0BDE836
:1023F400F0830D4BCF210D4A0D4815F075FA0D4BA6
:10240400D0210A4A0A4815F06FFA0B4BD121074A2A
:10241400074815F069FA094BC721044A044815F026
:1024240063FA00BF3D020000140F0020C40E002018
:1024340058100020580F0020800F00201C0E002090
:102444002DE9F84F2DED028B9FED338BB4EEC80BC5
:10245400F1EE10FA5ADB9046002A51D00368054683
:10246400314A0F469B6988FE008B046993423FD131
:1024740090ED020B9FED2A6B05F184034FF0010CE4
:1024840080EE067B27EE087BFCEEC77B17EE906A96
:102494002644D3E84F4FC3E84ECFBEF1000FF8D126
:1024A400E4B2BFF35B8F002CF3D1B8F806A005F1BA
:1024B4005C0B0AF1040A5846514605F0FDFD8146BD
:1024C400C0B10146B8F80620404641F8047B05F047
:1024D400DBFE58465146C9F8046005F01BFEBFF305
:1024E4005B8F85F884400120BDEC028BBDE8F88F3A
:1024F4009847BFE70D4B83210D4A0E4815F0F4F9B8
:102504000D4B74210A4A0B4815F0EEF90B4B73215D
:10251400074A084815F0E8F9000000000000000030
:102524000000000000408F406D00000004110020F6
:10253400A410002058100020F41000209410002053
:102544002DE9F04F2DED068B9FED759B43EC182B79
:1025540085B0B4EEC98B00AFF1EE10FA3E6DC0F257
:10256400D680002E00F0CD8007F154028346304619
:102574000AEE101AFA6017F083FF8246002800F072
:10258400BA80C000DBF8102089FE089B0830ADEB50
:10259400000DDBF800008469E8466548844240F099
:1025A40087809BED020B29EE009B00245146404698
:1025B400013E4546A1469FED5C6B89EE067BBCEE71
:1025C400C77B17EE103A13441A4605F017FE16F8A7
:1025D400013F623B112B12D8DFE803F009111111FE
:1025E4005211411111111111111111111125B8F8C4
:1025F4000430A34267DD85F80890C5F80C900134D7
:102604000835A245E3DCDBF80040B0EE480B424657
:102614001AEE101A5846E36C98471437BD46BDECC1
:10262400068BBDE8F08FFB68B8F80420191D186804
:10263400A242F96041DD002857D04FF00203E86060
:10264400013408352B7017F01BFFB8F80630A2458B
:1026540003F101031844A8F80600B8DCD3E7FB68CB
:10266400B8F80420191D1B68A242F96037DD013453
:10267400EB604FF003030835A2452B70A7DCC2E7DB
:10268400FB68073323F0070393ED007B0833FB60FB
:10269400B7EEC77BB8F80430A3421ADD01344FF01B
:1026A400010385ED037A0835A2452B708FDCAAE778
:1026B4007A605846A0477A6875E71E4B94211E4AF3
:1026C4001E4815F011F91B4B69211D4A1B4815F0D2
:1026D4000BF9184B73211B4A184815F005F9154BD3
:1026E4008221194A154815F0FFF8184B9521124A12
:1026F400124815F0F9F8164B3A21164A0F4815F00E
:10270400F3F8154B5C21154A154815F0EDF8154BF7
:102714005B21124A124815F0E7F800BFAFF30080BE
:1027240000000000000000000000000000408F4096
:102734006D000000AC120020481300207412002029
:10274400CC120020F01200201C1300207C13002067
:10275400441200205412002030120020D81100200E
:102764005810002094100020B5EEC00B70B5F1EEA7
:1027740010FA1D46294B80ED020B036036DD00295B
:1027840046DD002A16463DDD002D35DB4FF0000303
:1027940004460361C0E915330CBF2B46204B1830A7
:1027A40083630023BFF35B8F80F86C30BFF35B8FD0
:1027B40080F86D30882340F8043C05F08FFF63698E
:1027C400B102034404F15C00636105F043FC6369F6
:1027D4000246A90204F170001344636105F03AFC57
:1027E4006369024620461344636170BD0D4B272183
:1027F4000D4A0E4815F078F80D4B2A210A4A0B4869
:1028040015F072F80B4B2921074A084815F06CF8AB
:10281400094B2821044A054815F066F834160020AF
:102824003D02000020140020341400205810002021
:10283400741400208813002068140020084B10B57D
:10284400044640F8183B05F061FF04F15C0005F014
:1028540025FC04F1700005F021FC204610BD00BFEA
:102864003416002018B10368D3F88C30184710B51B
:10287400FFF762FD28B1944618301A46634605F006
:10288400A5BF10B5FFF766FD00487047180C00207F
:102894000020704702207047064B994207D0064B30
:1028A400994202D100F2444070470020704700F57D
:1028B40078707047D95D78350263BCF342B1002368
:1028C40000210448516011721060D3601361536198
:1028D40000207047340B0020704700BFB0B511468C
:1028E40000AF82B0056801EB83046A462D6CC2E92F
:1028F40000140021A847BD46B0BD00BF2DE9F84330
:1029040000AF2BB316466A4600211D46A2EBC30254
:102914004FEA850995460268E846546C4246A0474A
:10292400002308EB85041A46002D09DD08EB83011A
:1029340006EB820C51F804EBA1424CF808EBF9D1F8
:102944002B444C440AB90122EEE7BD46BDE8F883A6
:10295400034B40F64421034A034814F0C5FF00BF6B
:102964004C0B0020580B0020A00B002010B5184B76
:10297400044600F50C70236004F0ACFF04F52C70E1
:1029840004F0A8FF04F54F7004F0A4FF04F55070A0
:1029940004F0A0FF04F5787006F056F904F2444000
:1029A40006F052F904F59D6004F094FF04F5AE605E
:1029B40004F090FF04F2AC5004F08CFF04F24C607D
:1029C40004F088FF2046FFF739FF204610BD00BF02
:1029D4006815002010B50446FFF7C8FF4FF4D9610D
:1029E400204610F0CFFC204610BD00BF10B51146A4
:1029F40082B00023054CB0EE000A0222CDE9001497
:102A0400194604F0B3FD02B010BD00BF91140000DC
:102A140010B5114682B00023054C9FED060A03222F
:102A2400CDE90014194604F0A1FD02B010BD00BFA9
:102A34007116000000007A4410B5114682B00023DC
:102A4400054CB7EE000A1422CDE90014194604F02F
:102A54008DFD02B010BD00BFD119000010B51146A4
:102A640082B00023054C9FED060A1522CDE900141F
:102A7400194604F07BFD02B010BD00BF590B0000E5
:102A840000007A4410B5114682B00023054C9FED36
:102A9400060A1522CDE90014194604F067FD02B0B8
:102AA40010BD00BF090B000077BE7F3F10B5114673
:102AB40082B00023054CB7EE000A1522CDE90014BC
:102AC400194604F053FD02B010BD00BF910A000086
:102AD40010B5114682B00023054C9FED060A14225E
:102AE400CDE90014194604F041FD02B010BD00BF49
:102AF400151500000000000010B5114682B0002337
:102B0400054C9FED060A0322CDE90014194604F092
:102B14002DFD02B010BD00BF8515000000007A44F1
:102B240010B5114682B00023054C9FED060A03221E
:102B3400CDE90014194604F019FD02B010BD00BF20
:102B4400C915000000007A4410B5114682B0002374
:102B5400054C9FED060A1422CDE90014194604F031
:102B640005FD02B010BD00BFC94000000000000018
:102B740010B5114682B00023054C9FED060A1422BD
:102B8400CDE90014194604F0F1FC02B010BD00BFF9
:102B9400714000000000000010B5114682B000230F
:102BA400054C9FED060A1422CDE90014194604F0E1
:102BB400DDFC02B010BD00BFFD12000000000000EB
:102BC40010B5114682B00023054C9FED060A03227E
:102BD400CDE90014194604F0C9FC02B010BD00BFD1
:102BE400A90B000000007A4410B5114682B00023FE
:102BF400054C9FED060A0222CDE90014194604F0A3
:102C0400B5FC02B010BD00BF3D3D00000000FA431A
:102C140010B5114682B00023054C9FED060A03222D
:102C2400CDE90014194604F0A1FC02B010BD00BFA8
:102C3400F90B000000007A4410B5114682B000235D
:102C4400054C9FED060A0222CDE90014194604F052
:102C54008DFC02B010BD00BF153F00000000FA4318
:102C640010B5114682B00023054C9FED060A0322DD
:102C7400CDE90014194604F079FC02B010BD00BF80
:102C84003117000000007A4410B5114682B00023C9
:102C9400054CB7EE000A1422CDE90014194604F0DD
:102CA40065FC02B010BD00BF251A000010B5114626
:102CB40082B00023054CB1EE040A0222CDE90014CF
:102CC400194604F053FC02B010BD00BF9D1400006F
:102CD40010B5114682B00023054CB2EE080A032257
:102CE400CDE90014194604F041FC02B010BD00BF48
:102CF4005145000010B5114682B00023054C9FEDEC
:102D0400060A0222CDE90014194604F02FFC02B091
:102D140010BD00BFD91500000000DC4310B51146FA
:102D240082B00023054CBAEE040A1422CDE9001443
:102D3400194604F01BFC02B010BD00BFE1150000F1
:102D440010B5114682B00023054CBAEE040A1422D1
:102D5400CDE90014194604F009FC02B010BD00BF0F
:102D64006D49000010B5114682B00023054CB2EE47
:102D7400040A1522CDE90014194604F0F7FB02B049
:102D840010BD00BFDD0C000010B5114682B0002359
:102D9400054CB2EE040A1522CDE90014194604F0DC
:102DA400E5FB02B010BD00BF010D000010B51146D7
:102DB40082B00023054C9FED060A0122CDE90014E0
:102DC400194604F0D3FB02B010BD00BF910C000003
:102DD40000008A4210B5114682B00023054CB2EEC1
:102DE400080A0322CDE90014194604F0BFFB02B01F
:102DF40010BD00BF5D4A000010B5114682B000232B
:102E0400054C9FED060A0222CDE90014194604F090
:102E1400ADFB02B010BD00BFE91500000000DC43AB
:102E240010B5114682B00023054CBAEE040A1422F0
:102E3400CDE90014194604F099FB02B010BD00BF9F
:102E4400F115000010B5114682B00023054CBAEE0E
:102E5400040A1422CDE90014194604F087FB02B0D9
:102E640010BD00BFF915000010B5114682B0002353
:102E7400054CB2EE040A1522CDE90014194604F0FB
:102E840075FB02B010BD00BFE10D000010B5114686
:102E940082B00023054CB2EE040A1522CDE90014D9
:102EA400194604F063FB02B010BD00BF050E00001C
:102EB40010B5114682B00023054CB2EE040A152267
:102EC400CDE90014194604F051FB02B010BD00BF57
:102ED400950E000010B5114682B00023054C9FEDFD
:102EE400060A1422CDE90014194604F03FFB02B08F
:102EF40010BD00BF011600000000000010B511460F
:102F040082B00023054C9FED060A0122CDE900148E
:102F1400194604F02BFB02B010BD00BF950D000054
:102F240000008A4230B5002383B014460B499FED5C
:102F34000C0A0322019119460094054604F016FB7D
:102F44000023084928469FED080A1A46CDE90041A6
:102F5400194604F00BFB03B030BD00BF8111000023
:102F64000000C842F51100000000204210B51146CF
:102F740082B00023054C9FED060A0222CDE900141D
:102F8400194604F0F3FA02B010BD00BFA914000002
:102F94000000C84210B5114682B00023054CB3EEC0
:102FA400000A0222CDE90014194604F0DFFA02B047
:102FB40010BD00BFB514000010B5114682B0002347
:102FC400054C9FED060A0222CDE90014194604F0CF
:102FD400CDFA02B010BD00BFC114000000002043B0
:102FE40010B5054C82B0134600F50371012200941C
:102FF40004F04EFF02B010BD5D44000010B5054C56
:1030040082B0134600F53C710022009404F040FFA6
:1030140002B010BD351F000010B5054C82B0134638
:1030240000F544710022009404F032FF02B010BD98
:10303400D116000010B5054C82B0134600F501719D
:103044000022009404F024FF02B010BD915000004F
:1030540010B5054C82B0134600F2EC4100220094F6
:1030640004F016FF02B010BD8D18000010B5054C19
:1030740082B0134600F59C610022009404F008FF1E
:1030840002B010BD7118000010B5054C82B0134693
:1030940000F2F4410022009404F0FAFE02B010BDE4
:1030A400A918000010B5054C82B0134600F5B761AD
:1030B4000022009404F0ECFE02B010BDE118000000
:1030C40010B5054C82B0134600F5B6610022009499
:1030D40004F0DEFE02B010BDC518000010B5054CAA
:1030E40082B0134600F5B8610022009404F0D0FECB
:1030F40002B010BDFD18000010B5054C82B0134697
:1031040000F53E710022009404F0C2FE02B010BD2E
:10311400ED1E000010B5054C82B0134600F28C6120
:103124000022009404F0B4FE02B010BDAD1E0000F5
:1031340010B5054C82B0134600F29461002200944D
:1031440004F0A6FE02B010BD5D14000010B5054CDD
:1031540082B0134600F284610022009404F098FEC9
:1031640002B010BDCD1E000010B5054C82B0134650
:1031740000F27C610022009404F08AFE02B010BDCB
:103184005117000030B50C4B83B0144600F506719E
:10319400009300222346054604F07AFE00230749E3
:1031A400B0EE000A02222846CDE90041194604F097
:1031B400DDF903B030BD00BF2D1200009D110000E9
:1031C40010B5054C82B0134600F5427100220094FC
:1031D40004F05EFE02B010BD450A000030B50C4B91
:1031E40083B0144600F5407100930022234605463F
:1031F40004F04EFE00230749B1EE080A02222846D5
:10320400CDE90041194604F0B1F903B030BD00BF67
:103214001D0A0000D911000010B5054C82B01346F8
:1032240000F54D710022009404F032FE02B010BD8E
:10323400D90F000010B5054C82B0134600F51C717F
:103244000022009404F024FE02B010BD9512000088
:1032540010B5054C82B0134600F5B6610122009406
:1032640004F016FE02B010BDC518000030B51346B8
:1032740085B0002208490446084D00911146039385
:1032840004F09EF9039B002201212046009504F0DE
:1032940097F905B030BD00BF311300006D0D00007B
:1032A40010B5134684B000220849044603930091E4
:1032B400114604F085F9002205492046039B00913C
:1032C400114604F07DF904B010BD00BF9908000058
:1032D400B934000030B5134685B0002208490446CD
:1032E400084D00911146039304F06AF9039B0022F0
:1032F40001212046009504F063F905B030BD00BFFC
:1033040079130000BD0E000010B5134684B00022EE
:103314000849044603930091114604F051F9002230
:1033240005492046039B0091114604F049F904B075
:1033340010BD00BF2D1E0000FD37000030B50A4946
:1033440085B013460446009100220121074D0393E2
:1033540004F036F9039B002201212046009504F075
:103364002FF905B030BD00BF1D1800000118000082
:1033740010B5134684B000220C490446039300910F
:10338400114604F01DF9002209492046039B0091CF
:10339400114604F015F9002206492046039B0091CA
:1033A400114604F00DF904B010BD00BF1110000067
:1033B400491000002D10000010B5134684B00022FF
:1033C4000C49044603930091114604F0F9F80022D5
:1033D40009492046039B0091114604F0F1F80022AC
:1033E40006492046039B0091114604F0E9F804B015
:1033F40010BD00BF81100000651000009D1000008A
:1034040010B5134684B00022084904460393009182
:10341400114604F0D5F8002205492046039B00918B
:10342400114604F0CDF804B010BD00BF291100000E
:10343400751E000010B5134684B0002208490446E6
:1034440003930091114604F0BBF80022054920467D
:10345400039B0091114604F0B3F804B010BD00BF03
:103464000D110000911E000010B5134684B0002217
:103474000849044603930091114604F0A1F8002280
:1034840005492046039B0091114604F099F804B0C5
:1034940010BD00BFD5100000F110000030B50A497E
:1034A40085B013460446009100220121074D039381
:1034B40004F086F8039B002201212046009504F0C5
:1034C4007FF805B030BD00BF315100007117000016
:1034D400014B132104F000BCBD0F0000014B13216C
:1034E40004F0FABBF50F0000014B132104F0F4BB08
:1034F400E50E0000014B132104F0EEBBB9100000EF
:10350400014B132104F0E8BB4511000001B17047E1
:1035140000F5177105F070BB01B1704700F51B7120
:1035240005F06ABB01B1704700F51A7105F064BB80
:1035340001B1704700F5377105F05EBB01B170470A
:1035440000F53B7105F058BB01B1704700F53A71C5
:1035540005F052BB30B5002383B015460949044633
:10356400B7EE000A019101221946009503F0FEFF0F
:103574002A4604F54C71204603B0BDE8304005F0FE
:103584003BBB00BF4915000000F5487105F034BB92
:1035940030B5002383B0154609490446B7EE000A46
:1035A400019101221946009503F0E0FF2A4604F533
:1035B4005571204603B0BDE8304005F01DBB00BF87
:1035C4008D15000000F5567105F016BB00F5577116
:1035D40005F012BB30B5002383B0154609490446F3
:1035E400B7EE000A019101221946009503F0BEFFCF
:1035F4002A4604F55C71204603B0BDE8304005F06E
:10360400FBBA00BFD115000000F55D7105F0F4BAF6
:1036140000F55E7105F0F0BA00F2BC4105F0ECBAB9
:1036240000F2745105F0E8BA00F5B16105F0E4BAAE
:1036340000F5CB6105F0E0BA00F5CA6105F0DCBA2B
:1036440000F2546105F0D8BA00F5D46105F0D4BA9B
:1036540010B5064C82B0002300F51871CDE90024A2
:10366400022203F04BFF02B010BD00BFAD170000F3
:1036740010B5064C82B0012300F51871CDE9002481
:10368400022203F03BFF02B010BD00BFAD170000E3
:1036940010B5064C82B0002300F52B71CDE900244F
:1036A400022203F02BFF02B010BD00BFF909000095
:1036B40010B5064C82B0012300F52B71CDE900242E
:1036C400022203F01BFF02B010BD00BFF909000085
:1036D40010B5064C82B0002300F53871CDE9002402
:1036E400022203F00BFF02B010BD00BFE51700007B
:1036F40010B5064C82B0012300F53871CDE90024E1
:10370400022203F0FBFE02B010BD00BFE51700006B
:1037140010B5064C82B0002300F54671CDE90024B3
:10372400022203F0EBFE02B010BD00BF6D0A0000E0
:1037340010B5064C82B0012300F54671CDE9002492
:10374400022203F0DBFE02B010BD00BF6D0A0000D0
:1037540010B5064C82B0002300F59361CDE9002436
:10376400022203F0CBFE02B010BD00BF490C0000E2
:1037740010B5064C82B0012300F59361CDE9002415
:10378400022203F0BBFE02B010BD00BF490C0000D2
:1037940010B5064C82B0012300F29C61CDE90024EF
:1037A400032203F0ABFE02B010BD00BF09160000F7
:1037B40010B5064C82B0002300F29C61CDE90024D0
:1037C400032203F09BFE02B010BD00BF09160000E7
:1037D40010B5054C82B0134600F50C71002200941C
:1037E40004F07CF802B010BDA935000010B5054CFA
:1037F40082B0134600F50C710122009404F06EF8B7
:1038040002B010BDA935000010B5054C82B01346B6
:1038140000F52C710022009404F060F802B010BD91
:10382400ED38000010B5054C82B0134600F52C713C
:103834000122009404F052F802B010BDED380000EB
:1038440010B5054C82B0134600F54F710122009467
:1038540004F044F802B010BD1919000010B5054C6D
:1038640082B0134600F550710122009404F036F83A
:1038740002B010BD3119000010B5054C82B01346DA
:1038840000F550710022009404F028F802B010BD35
:103894003119000010B5054C82B0134600F54F7184
:1038A4000022009404F01AF802B010BD19190000A7
:1038B40010B5054C82B0134600F59D6100220094BA
:1038C40004F00CF802B010BD0D4A000010B5054C10
:1038D40082B0134600F59D610222009403F0FEFFBE
:1038E40002B010BD0D4A000010B5054C82B013465D
:1038F40000F59D610122009403F0F0FF02B010BDB9
:103904000D4A000010B5054C82B0134600F2AC51CC
:103914000222009403F0E2FF02B010BDC14E000089
:1039240010B5054C82B0134600F2AC51012200944C
:1039340003F0D4FF02B010BDC14E000010B5054C19
:1039440082B0134600F2AC510022009403F0C6FF8B
:1039540002B010BDC14E000000B5134683B0002272
:1039640000F5B671009204F0EBFF03B05DF804FBC0
:1039740000B5134683B0002200F5D871009204F01C
:10398400DFFF03B05DF804FB00B5134683B00022EB
:1039940000F1C001009204F0D3FF03B05DF804FB12
:1039A40000B5134683B0002200F5AE71009204F016
:1039B400C7FF03B05DF804FB30B5044685B011467B
:1039C40000F5A860064D039203F0F8FE039B012264
:1039D40004F5AE612046009503F080FF05B030BDCC
:1039E4004919000030B5044685B0114600F21C6048
:1039F400064D039203F0E2FE039B012204F24C61A4
:103A04002046009503F06AFF05B030BD611900003F
:103A140010B5054C82B0134600F51E7102220094C5
:103A240003F040FE02B010BD914F000010B5054CEC
:103A340082B0134600F565710022009403F032FE53
:103A440002B010BDB11A000010B5054C82B0134687
:103A540000F57E710022009403F024FE02B010BD34
:103A6400051B000010B5054C82B0134600F26441FA
:103A74000222009403F016FE02B010BD9D51000016
:103A840010B5054C82B0134600F21C51002200947C
:103A940003F008FE02B010BDF146000010B5054C5D
:103AA40082B0134600F5A8610022009403F0FAFDE9
:103AB40002B010BD7919000010B5054C82B0134650
:103AC40000F5BF610022009403F0ECFD02B010BDCC
:103AD400FD4B000010B5054C82B0134600F21C618A
:103AE4000022009403F0DEFD02B010BDA519000011
:103AF40030B500F5657585B0044611462846039235
:103B040003F05CFE0D4A039B04F56E71204600929F
:103B1400002203F0C7FD0A4A039B2946204600926F
:103B24000025002203F0BEFD039B012204F5FA7177
:103B34002046009504F0FAFF05B030BDA53D000015
:103B4400B11A000030B500F57E7585B00446114603
:103B54002846039203F032FE0D4A039B04F21C41F3
:103B640020460092002203F09DFD0A4A039B294649
:103B7400204600920025002203F094FD039B0122BD
:103B840004F5FE712046009504F0D0FF05B030BD69
:103B94007D3F0000051B000010B5054C82B01346A4
:103BA40000F264510022009403F020FE02B010BD24
:103BB400A91D000010B5054C82B0134600F5C8617C
:103BC4000022009403F012FE02B010BD091E000092
:103BD40008B5034A7321034B034813F085FE00BF65
:103BE400F0120020AC1200207412002001B17047C2
:103BF400F0B50A4B83B00C46064615460093084FB1
:103C040013460A46012103F0DBFC2B4622462146DB
:103C14003046009703F0D4FC03B0F0BD5D1A0000F9
:103C240069470000012914D813460A49002210B537
:103C340084B0044600911146039303F0C1FC0022B2
:103C44000549039B20460091114603F0B9FC04B0DA
:103C540010BD704715490000B148000001B170471C
:103C6400F0B50A4B83B00C46064615460093084F40
:103C740013460A46012103F0A3FC2B4622462146A3
:103C84003046009703F09CFC03B0F0BD951A000089
:103C9400754C0000012914D813460A49002210B5B6
:103CA40084B0044600911146039303F089FC00227A
:103CB4000549039B20460091114603F081FC04B0A2
:103CC40010BD7047214E0000BD4D000001B170478A
:103CD40010B5054C82B0134600F509710122009419
:103CE40003F09AFE02B010BDAD09000001B17047A7
:103CF40010B5054C82B0134600F59461012200947E
:103D040003F08AFE02B010BD6D0C000001B17047D3
:103D140010B5054C82B0134600F5CC610122009425
:103D240003F07AFE02B010BD2D0F000001B1704700
:103D340010B5054C82B0134600F5CE610122009403
:103D440003F06AFE02B010BD550F000001B17047C8
:103D540010B5054C82B0134600F5D56101220094DC
:103D640003F05AFE02B010BD790F000001B1704794
:103D740013460A4600F1DC0104F062BE01B170474B
:103D840013460A4600F1D00104F05ABE01B170474F
:103D940013460A4600F58E7104F052BE01B1704715
:103DA40013460A4600F5887104F04ABE01B1704713
:103DB40070B5154682B00A4A04462B4600F21C51DF
:103DC40000920122074E03F06DFC2B46012204F5FC
:103DD400A8612046009603F065FC02B070BD00BFE8
:103DE400F146000079190000012900D0704710B590
:103DF400054C82B0134600F5A8610022009403F03C
:103E040051FC02B010BD00BF7919000001B1704728
:103E140070B5154682B00A4A04462B4600F5BF61C8
:103E240000920122074E03F03DFC2B46012204F2CE
:103E34001C612046009603F035FC02B070BD00BF43
:103E4400FD4B0000A5190000012900D0704710B5F2
:103E5400054C82B0134600F21C610022009403F06A
:103E640021FC02B010BD00BFA5190000704700BFBF
:103E74000B46114610B40B4CA34205D00A4A934298
:103E840009D05DF8044B7047084B002218305DF8E8
:103E9400044B04F09BBC064B002218305DF8044B25
:103EA40004F094BC5BC65CCEBA77ABF71D4200004D
:103EB4001112000010B5054C82B0134600F2946153
:103EC4000022009403F0E4FF02B010BD5D14000072
:103ED40010B5054C82B0134600F2946100220094A0
:103EE40003F0D6FF02B010BD5D14000010B5064CFF
:103EF40082B0012300F29C61CDE90024032203F087
:103F0400FDFA02B010BD00BF0916000010B5064C42
:103F140082B0012300F29C61CDE90024032203F066
:103F2400EDFA02B010BD00BF0916000070B5002103
:103F340082B005461046144604F01EFA0B4B0146A7
:103F44002046C91AB1FA81F1490904F015FAB0F111
:103F54007E5F01D002B070BD0022054E2346284684
:103F64001146009603F02CFB02B070BD6E0ED6060F
:103F7400C912000070B5002182B0054610461446EF
:103F840004F0FAF90B4B01462046C91AB1FA81F143
:103F9400490904F0F1F9B0F17E5F01D002B070BDBF
:103FA4000022054E234628461146009603F008FBDE
:103FB40002B070BD6E0ED606611200002DE9F04FFE
:103FC4002DED0C8B89B0DFF87C8004461746DFF8B2
:103FD40078A000F15C06DFF8749005930AE0484588
:103FE40005D1164B2A4604F1180004F0EFFB3046C5
:103FF40004F0B8F8304604F055F848B3002507A992
:104004003046079504F0A8F8079B0146132B40F2AD
:104014004A84236851F8040BD3F89030434508D1FF
:104024005045DCD1064B2A4604F1180004F0CEFBBF
:10403400DDE70A46014620469847D8E711120000FA
:104044001D420000311E00005BC65CCEBA77ABF7A0
:1040540023680546F04920469B6D9847059B2669D1
:10406400002B40F3188404F2BC423344F6EE008A79
:104074009FEDEAAA039204F5B1620093B7EE008AB9
:10408400A36904F5D46B029204F5CA62DFEDE49AE5
:1040940004F2745A049204F5CB6904F254629FED5D
:1040A400E19ADFEDE1AA9E4601920136BEF1000FCE
:1040B40011D004F1180873469A6811688E4209D920
:1040C4002046D3E903319847404604F0C9FBA3696D
:1040D400002BF1D19E46D4F88820002AC0F2BD837B
:1040E40094ED235AF0EE451A9BED007AB5EE002AC2
:1040F4000399013A25EE077A9AED006AD1ED006A38
:10410400FFEE005AD4ED287AB0EE004A27EE077A83
:10411400DFEDC62A26EE866AD4ED244A9FEDC43A22
:1041240027EE057ADFEDC33A26EE276AC4F8882025
:1041340074EEA14AD4F89820FBFE477A77EE677AAA
:10414400C4ED234A77EEE87AF0EEE77A77EEC27AA6
:1041540067EEA27A67EEA74A24EEA77AE7EE437ADF
:1041640027EE247AE7EE237ABDEEC67AB0EE656ACE
:1041740017EE101A1144520A67EE857A42F07E5205
:10418400C4F8981007EE102AD4F8A42037EE487A21
:10419400002AA7EE046AB0EEC67A27EE267AC0F2A9
:1041A400578394ED2A6AB0EE463AE7EE066AD4EDF8
:1041B4002F3A94ED317A013A94ED324ABFEE005A27
:1041C400C4F8A420F1EE004A37EE047AD4F8B420FF
:1041D40094ED2B6AF5EE005A66EEA36AD4F8D0C0CB
:1041E40084ED317A36EE036AD4F8DC00BDEEE67A6B
:1041F40084ED2A6AB0EE456A17EE101A1144520A89
:1042040042F07E52C4F8B410D4F8C01007EE102A5D
:104214004FEA5C22013937EE487A42F07E53420A73
:10422400C4F8C01078EE476A87FE667AA7EE246A5F
:1042340007EE103A42F07E53D4F8D42037EE487A91
:10424400624437EE687A86FE486A86FE056A26EE80
:10425400256AC4F8D020B0EEC77AD4F8E02002442E
:1042640037EE657AC4F8DC20D4F8E82027EE0A7A21
:10427400002A27EE075A65EE076AA6EEA97A26EE0B
:10428400855AA5EE097AF0EE476A07EE103A37EE42
:10429400487A37EE687AB0EEC77A37EE657A27EE59
:1042A4000A7A27EE075A65EE075AA5EEA97A65EE53
:1042B400855AA5EE897A37EE262A27EE267AC0F2A9
:1042C400C282D4ED3B6AB0EE664AB0EE485AD4EDF1
:1042D4009A4AD4F8F810013AD4ED9B2AF5EE003A44
:1042E400A4EEE65AC4F8E8204A0AD4ED975AD4ED6D
:1042F4003C4A66EEA66A42F07E5394ED403A74EE70
:10430400844A94ED414AC4ED41AA25EE077AC4EDEE
:104314003B4AB5EEC04AA2EE087AF1EE10FAE7EE97
:10432400225A07EE103A37EE487A37EE687A65EE8D
:10433400835AB0EEC77A37EE637A27EE0A7A67EECD
:10434400074A24EE875AA5EE297A25EE245AA5EECB
:10435400097A66EE874ABDEEE57A17EE102A0A441A
:10436400C4F8F82000F36782D4ED426A94ED433A2E
:10437400B5EE004A94EDC87A94EDCC5A27EE437A10
:10438400D4F81021D4F81411DFED2B5AA5EE267AB7
:104394001144520ADFED2A3AD4F81C0142F07E524D
:1043A400C4F8101167EE255A84ED437A07EE102AFB
:1043B400420A37EE487A42F07E5335EE865AD4F8F4
:1043C400202137EE687A0244A7EEA35AC4F81C21D0
:1043D400B0EEC77AD4F82821002A37EE447A27EEC3
:1043E4000A7A67EE073A63EE876AA6EEA97A66EE62
:1043F400A36AA6EE897A06EE903A76EEC86A76EE5D
:10440400E86AF0EEE66A76EEC46A66EE8A6A66EEFA
:10441400A63A23EEA64A17E0EBC021DDDB0FC94024
:10442400ABAA2ABE6257003C00000000E40FC9405A
:10443400C1AA2A3E8380003CCDCCCC3E3333333FEB
:104444009A99193FCDCCCC3DE4EE296A24EE234A57
:10445400E4EE096A76EE87CA66EE876AC0F20782DE
:10446400D4ED4B2AB0EE62DA0199B0EE487A94EDBD
:10447400BA4A013A91ED003AF5EE001A0499A4EE15
:10448400627AD9ED00DABFEE001A91ED00BAF1EECE
:10449400000A029962EEA22A1FED182A91ED004A41
:1044A40027EE267AD4ED536A64EE2DDAD4EDB73ACA
:1044B400C4F82821ACEE887AD4F844216DEEA66ABB
:1044C400D4F83801D4F8501194ED560AFDEEE66A9A
:1044D400D4ED58BA94ED4CCAD4ED59DA16EE90CA1C
:1044E40064EE826AD4EDBB4A7BEEADBA9444520AC0
:1044F400E7EE243A94ED507A42F07E52F0EE434ACD
:104504003CEE0DCAC4ED58BAC4F844C184ED4BCA9C
:1045140063EE873A07EE102A420A37EE487A42F0F1
:104524007E534A0ADBEE074A42F07E52B0EEE47A4A
:10453400A7EE444A07EE103A37EE487A37EE687A27
:1045440024EE004AB0EEC77A37EE617A27EE0A7A93
:1045540027EE073A63EE074AA4EEA97A64EE834A8B
:10456400A4EE897A04EE902A74EEC84A38EE643ACE
:1045740084FEC33AF0EE414AE3EE204AC4FEC84A40
:10458400C4FE814A64EEA14AE2EE874AB0EE647A40
:10459400A6EE027ABDEEE36A16EE102ABDEEC46AF8
:1045A400024436EE877AC4F8382116EE102A0A44FB
:1045B400C4F85021D4F85C21013AC4F85C21D4F841
:1045C4006C21002AC0F24E8194ED5C6AB0EE463A4A
:1045D40094ED5D4A013AD4EDD64AC4F86C2166EEF6
:1045E400244AD4F87C2134EE036AD4EDD73A94ED0E
:1045F400D54AC4FEE34AC4FEAA4A84ED5C6A92ED3D
:10460400046AB8EE466A36EE486A36EE646AFBFE21
:10461400463AF5EEC03AF1EE10FA40F10981B5EEF2
:10462400404AF1EE10FA00F0038133EE844AD4F8E4
:1046340080C1DCF80000FDEEC44A14EE902A511C3F
:1046440000F12B81DCF80CC08C4540F2268100EB94
:104654008100002A4FEA810CD4F8901190ED004AB1
:104664000868C0F21A81C968914240F21681604418
:10467400D4F8A02136EE636A50ED014A002A34EEE4
:10468400644AE4EE064AC0F2FC8094ED694AF0EE16
:10469400443A013A94ED6A6AC4F8A02136EE236ADA
:1046A400D4F8B021F0EE473A002A84ED696AE4EECA
:1046B400843AC0F2E18094ED6D6AF0EE462A94EDFE
:1046C4006E4A013AD4EDDD4AC4F8B02166EE244ABC
:1046D400D4F8C02134EE226A94EDDE3A94EDDC4A3B
:1046E400C4FEC34AC4FEAA4A84ED6D6A92ED046A0C
:1046F400B8EE466A36EE486A36EE646ABBFE463A5F
:10470400B5EEC03AF1EE10FA40F19A80B5EE404AA7
:10471400F1EE10FA00F0948033EE044AD4F8C4C1E8
:10472400DCF80000FDEEC44A14EE902A511C00F19E
:10473400B480DCF80CC08C4540F2AF8000EB810003
:10474400002A4FEA810CD4F8D41190ED004A08688D
:10475400C0F2A380C968914240F29F806044D4F8BB
:10476400E42136EE436A50ED014A002A34EE644AED
:10477400E4EE064AC0F28A8094ED7A3AB0EE436AD7
:10478400013A94ED7B4AC4F8E42134EE064AB0EED3
:10479400636AD4E97D21A3EE646A84ED7A4A481CF5
:1047A4009368984200F28680136803EB810181EDDF
:1047B400006AC4F8F8011061D4E97F21481C9368A9
:1047C400984277D85FEDE34AE6EE286A36EE256A2A
:1047D4001FEDE54A67EEA47A5FEDE65A1368E6EE4C
:1047E400047A03EB8101E5EE286A009BB0EE6A6A65
:1047F40081ED007AC4F800029E4210613A68A7EE87
:10480400A56AF0EE6A7A2A44E6EEA57AC2ED007A49
:104814007A682A4405F1040582ED006A7FF445AC08
:10482400009B0598236109B0BDEC0C8BBDE8F08FAB
:10483400B0EE6A4AF9E674EE866AC4ED426A95E51A
:10484400B0EE6A4A68E7D4ED3D6A94ED3B4A3CE534
:1048540094ED2C6A94ED2A3AA7E494ED255AD4ED0C
:10486400231A41E494ED5E6A94ED5C3AB0E6D4ED2B
:104874004D2A94ED4BDAF7E594ED6F6AD4ED6D2A89
:104884001DE794ED6B4AD4ED693A02E794ED7C3A66
:1048940094ED7A6A74E70096C2E7094B4B21094A02
:1048A400094813F021F8094B40F6E301084A094886
:1048B40013F01AF8084B2821084A094813F014F891
:1048C400580C0020980C0020CC0C0020580F00201D
:1048D400200C0020A00B0020080D0020340D002027
:1048E400640D00202DE9F0432DED048B85B00446C2
:1048F400B0EE409B9FEDCF8A04AFFDF735FF204615
:10490400CD4B04F2444504F578764FF0000840F8A6
:10491400883B4FF0000904F009F863690246B0EEE1
:10492400490B04F198001344636104F05DF8636972
:10493400034404F1A400636103F0F8FF63690246D1
:10494400B0EE490B04F1B4001344636104F04CF875
:104954006369034404F1C000636103F0E7FF636922
:104964000246B0EE491BB0EE480A04F1D0001344ED
:10497400636104F04DF86369B0EE491B0344B0EE83
:10498400480A04F1DC00636104F042F863690344FB
:1049940004F1E800636103F0C9FF63690246B0EE05
:1049A400490B04F1F8001344636104F01DF86369D2
:1049B400034404F58270636103F0A4FF6369034454
:1049C40004F58470636104F095F86369034404F5A5
:1049D4008670636104F088F863690246B0EE491B8F
:1049E400B0EE480A04F588701344636104F010F8CB
:1049F4006369B0EE491B0344B0EE480A04F58E70B7
:104A0400636104F005F86369034404F59470636119
:104A140003F08CFF63690246B0EE490B04F59C7009
:104A24001344636103F0E0FF6369B0EE490B034490
:104A340004F5A270636103F0D7FF63690246B0EE28
:104A4400490B04F5A8709FED7D9A1344636103F04C
:104A5400CBFF6369024604F5AE701344636103F04F
:104A640065FF6369024604F5B6701344636103F09D
:104A74005DFF636929461844606104F5BE7004F063
:104A84004BF86369294600221844606104F5C0703C
:104A940004F036F86369294600221844606104F57D
:104AA400C87004F02DF86369024604F5D07013440D
:104AB400636103F03BFF6369034404F5D8706361E9
:104AC40003F034FF636931461844606104F5E07013
:104AD40004F022F86369314600221844606104F549
:104AE400E27004F00DF863690022314618446061F5
:104AF40004F5EA7004F004F86369034404F5F27001
:104B0400636103F013FF636931461844606104F57F
:104B1400FA7004F005F8636929461844606104F5E5
:104B2400FE7003F0FDFF6369B0EE480A034404F528
:104B34000170636103F098F96369B7EE000A0344F6
:104B440004F50370636103F08FF96369B0EE480AFA
:104B5400034404F50670636103F086F96369384918
:104B64001844606104F5097002F04EFF6369012284
:104B740018441146606104F50A7002F089FF636904
:104B84004246022118444B46606104F50C70CDE99D
:104B9400008902F04BFE636901220421184460611C
:104BA40004F50D7002F074FF6369012203211844B7
:104BB400606104F50F7002F06BFF6369012202214A
:104BC4001844606104F5117002F062FF6369012208
:104BD40018441146606104F5137002F059FF6369CB
:104BE400012200211844606104F5157002F050FFA1
:104BF4006369F0EE480A00211844B0EE480A606187
:104C040004F5177003F0F2FF6369B0EE480A184424
:104C1400606104F5187002F06BFC6369F0EE480AF9
:104C240000211844B0EE480A606104F51A7003F0DC
:104C3400DDFF0BE000000000681500200000484282
:104C4400B28A59CF000070430044AC466369F0EE69
:104C5400480A00211844B0EE480A606104F51B704C
:104C640003F0C4FF6369B0EE480A1844606104F5B8
:104C74001C7003F0F9F8636904F51E71B0EE480A7C
:104C840018446061204602F0FFFC63691FED130ABB
:104C94001844606104F5277003F0E6F86369B0EE28
:104CA400480A1844606104F52B7002F021FC424666
:104CB4000221CDE90089636918444B46606104F51B
:104CC4002C7002F0B3FD6369012204211844606171
:104CD40004F52D7002F0DCFE6369012203211844FF
:104CE400606104F52F7002F0D3FE63690122022192
:104CF4001844606104F5317002F0CAFE6369012250
:104D040018441146606104F5337002F0C1FE636912
:104D1400012200211844606104F5357002F0B8FEE8
:104D24006369F0EE480A00211844B0EE480A606155
:104D340004F5377003F05AFF6369B0EE480A18446B
:104D4400606104F5387002F0D3FB6369F0EE480A41
:104D540000211844B0EE480A606104F53A7003F08B
:104D640045FF6369F0EE480A00211844B0EE480A92
:104D7400606104F53B7003F039FF6369B0EE480AE3
:104D84001844606104F53C7003F06EF86369B0EE9A
:104D9400480A1844606104F53E7003F065F86369DD
:104DA400B0EE480A1844606104F5407003F05CF802
:104DB4006369B0EE480A1844606104F5427003F078
:104DC40053F863691FED600A1844606104F5447088
:104DD40003F04AF86369B0EE480A1844606104F5C8
:104DE400467002F085FB6369F0EE480A002118441E
:104DF400B0EE480A606104F5487003F0F7FE636999
:104E0400F0EE480A00211844B0EE480A606104F547
:104E14004C7003F0EBFE6369B0EE480A184460611D
:104E240004F54D7003F020F842460221CDE90089D3
:104E3400636918444B46606104F54F7002F0F6FC58
:104E440042460221CDE90089636918444B466061FA
:104E540004F5507002F0EAFC6369CF4918446061BC
:104E640004F5517003F008F86369F0EE480A002174
:104E74001844B0EE480A606104F5557003F0B6FEBC
:104E84006369F0EE480A00211844B0EE480A6061F4
:104E940004F5567003F0AAFE6369F0EE480A002197
:104EA4001844B0EE480A606104F5577003F09EFEA2
:104EB4006369BA491844606104F5587002F0DCFF74
:104EC4006369F0EE480A00211844B0EE480A6061B4
:104ED40004F55C7003F08AFE6369F0EE480A002171
:104EE4001844B0EE480A606104F55D7003F07EFE7C
:104EF4006369F0EE480A00211844B0EE480A606184
:104F040004F55E7003F072FE6369B0EE480A04F5BE
:104F1400657118446061204602F0B6FB6369B0EE27
:104F2400480A04F56E7118446061204602F0ACFB37
:104F3400636902464FF4807130461344636103F0A1
:104F440065FE6369B0EE480A04F57E711844606139
:104F5400204602F099FB6369B0EE480A04F21C4152
:104F640018446061204602F08FFB636902464FF4E7
:104F7400807128461344636103F048FE636904F2B8
:104F84006441B0EE480A18446061204602F07CFB9C
:104F940063699FED830A1844606104F5916002F02F
:104FA40063FF6369B0EE480A1844606104F59360D6
:104FB40002F09EFA63697B491844606104F59460C9
:104FC40002F022FD6369012218441146606104F273
:104FD400A44002F05DFD6369B7EE000A1844606105
:104FE40004F5976002F084FA6369F0EE480A002140
:104FF4001844B0EE480A606104F2BC4003F0F6FDC8
:1050040063699FED690A1844606104F59A6002F0CF
:105014002BFF6369B3EE0E0A1844606104F59B60CC
:1050240002F022FF6369B3EE090A1844606104F5D3
:105034009C6002F019FF42460321CDE90289CDE9C3
:105044000089636918444B46606104F59D6002F071
:10505400EDFB6369B0EE490A1844606104F2EC4068
:1050640002F002FF63699FED510A1844606104F283
:10507400F44002F0F9FE63690122022118446061E0
:1050840004F2FC4002F004FD636901221844114655
:10509400606104F2045002F0FBFC63690122002108
:1050A4001844606104F20C5002F0F2FC63694FF0A2
:1050B400FF3201211844606104F2145002F0E8FC4C
:1050C4006369B0EE480A04F21C511844606120463A
:1050D40002F0DAFA6369B0EE480A04F5A8611844EC
:1050E4006061204602F0D0FA6369002118446061CF
:1050F40004F2645002F076FB63694FF0FF32012141
:105104001844606104F5AD6002F0C2FC424602211D
:10511400CDE90089636918444B46606104F5AE60CB
:1051240002F084FB6369F0EE480A00211844B7EEEC
:10513400000A606104F2745003F058FD6369B7EE2D
:10514400000A1844606104F2845002F0D1F96369E2
:10515400F0EE480A00211844B0EE480A606104F5F4
:10516400B16003F043FD63699FED110A1844606167
:1051740004F29C5002F078FE6369B2EE000A18440F
:10518400606104F2A45002F06FFE03214246CDE9AF
:105194000289CDE900890FE0A40D0020B80D00209C
:1051A4000000B44347B15113000020420000704294
:1051B4000000C8420000F042636918444B46606135
:1051C40004F2AC5002F032FB6369B3EE0E0A1844E9
:1051D400606104F5B66002F047FE6369B0EE490A07
:1051E4001844606104F5B76002F03EFE636902464C
:1051F400B0EE490A04F5B8601344636102F034FE6A
:1052040063691FED140A034404F5B960636102F095
:105214002BFE6369012202211844606104F5BB601E
:1052240002F036FC6369012218441146606104F5FA
:10523400BC6002F02DFC6369012200211844606106
:1052440004F5BD6002F024FC63694FF0FF320121D4
:105254001844606104F5BE6002F01AFC6369B0EEA4
:10526400480A04F5BF6118446061204602F00CFA54
:105274006369B0EE480A04F21C6118446061204678
:1052840002F002FA636900211844606104F5C86001
:1052940002F0A8FA63694FF0FF32012118446061FB
:1052A40004F2446002F0F4FB616942464B46084450
:1052B4000221CDE90089606104F24C6002F0B6FA83
:1052C4006369F0EE480A00210344B0EE000A04F5D5
:1052D400CA60636103F08AFC6369F0EE480A002146
:1052E4000344B7EE000A04F25460636103F07EFCE9
:1052F4006369F0EE480A00210344B7EE000A04F59E
:10530400CB60636103F072FC63690246444904F5AF
:10531400CC601344636102F077FB636901220344A8
:1053240004F264601146636102F0B2FB63690246F1
:105334003C4904F5CE601344636102F065FB636984
:105344000122034404F274601146636102F0A0FB7D
:10535400636902469FED340A04F27C60134463617E
:1053640002F082FD63690246B3EE0C0A04F2846023
:105374001344636102F078FD63690246B2EE040AE5
:1053840004F28C601344636102F06EFD63690246AB
:105394009FED260A04F294601344636102F064FDF5
:1053A40063690246B3EE0D0A04F29C601344636120
:1053B40002F09EF86369F0EE480A00210344B0EE5F
:1053C400480A04F5D460636103F010FC6369024683
:1053D400174904F5D5601344636102F015FB636952
:1053E4000146012204F2AC600B441146636102F0F1
:1053F4004FFB636984B00021034404A8636102F095
:1054040011FF0C4B0146002204F1180003F0DEF9F1
:1054140020460437BD46BDEC048BBDE8F08300BFD5
:1054240089CEAE49C90F7E0A0000144200005C43D5
:105434001808CEAA1D42000070B500210546184682
:105444001C4602F099FF114B01462046C91AB1FAD5
:1054540081F1490902F090FF0D4B98420AD00D4E9C
:10546400234605F50971284604960022BDE87040DC
:1054740002F0D2BA084E234605F50A71284604966E
:105484000022BDE8704002F009BB00BF6E0ED606D4
:1054940001BD647EAD0900008D1C0000F0B583B031
:1054A4000121054602AF84B0126802AC204602F026
:1054B400A5FEA388CBB101264FF07E510C4A2346AA
:1054C400E1602846314626720092002202F078F804
:1054D400DFF820C02346002231462846CDF800C01C
:1054E40002F06EF80437BD46F0BDFEF771FB00BF55
:1054F40011160000911700000021FFF7CFBF00BF75
:10550400F0B583B00121054602AF84B0126802AC45
:10551400204602F073FEA3888BB100230121094ABF
:105524002846094E21721946E26002229FED070ABD
:10553400CDE9004602F01AF80437BD46F0BDFEF787
:1055440047FB00BFCDCCCC3D311600000000164413
:105554002DE9F04F83B002211446064602AF86B00F
:10556400126802AD284602F049FE0023224628466E
:10557400194602F04FFFAB88012B33D94FF00008D6
:105584004FF001094FF0000B06F1E80A2B4685F8AD
:105594001090C5F814B04246CDF80080514630460C
:1055A40003F0CEF986B02268022102AD284602F04B
:1055B40025FEBDF80C30ABB122464B464946284681
:1055C400CDF814B08DF8109002F024FF2B4642461B
:1055D40051463046CDF8008003F0B2F90437BD4699
:1055E400BDE8F08FFEF7F4FA0021FFF7B1BF00BF6A
:1055F400F0B583B00521054602AF8CB0126802AC49
:10560400204602F0FBFDA388002B49D00122254946
:1056140093422272E16043D02349022B22746161D8
:105624003ED02249032B2276E16139D02049042B54
:1056340084F82020616233D01E4923461E4884F832
:1056440028200022E16205F50D710090284602F041
:1056540025FA1A48234605F50F71009000222846C2
:10566400174E02F01BFA1748234605F511710090F6
:105674000022284602F012FA1348234605F5137156
:1056840000900022284602F009FA2346002205F57C
:1056940015712846009602F001FA0437BD46F0BDA4
:1056A400FEF796FAFC013B44AEE77F44AE62313E1E
:1056B4000010F6445CAF1046CD140000D91400006D
:1056C4003D1D0000E51400002D1D0000B0B582B0A2
:1056D4000121054602AF84B0126802AC204602F0F4
:1056E4008DFDA38883B1E38802200A4A0A490B335B
:1056F400E260002220722846E3802346009111468E
:1057040002F048FABD46B0BD044B9421044A054852
:1057140012F0EAF8040C0020D1090000AC120020B9
:105724004813002074120020F0B583B0012105460F
:1057340002AF84B0126802AC204602F05FFDA38879
:1057440093B1E38802210B4A28460B4E063321729B
:1057540005F51E71E2600022E3802346009601F005
:10576400A1FF0437BD46F0BD044B9421044A05480B
:1057740012F0BAF8100C0020914F0000AC12002077
:10578400481300207412002070B500210546184605
:105794001C4602F0F1FD0F4B01462046C91AB1FA2E
:1057A40081F1490902F0E8FD60B10B4B984209D040
:1057B4000A4E00222346284604961146BDE870404E
:1057C40001F0FEBE224628460021BDE87040FFF7E6
:1057D400ABBF00BF6E0ED6062D035B7ADD4F000013
:1057E400F0B583B00121054602AF84B0126802AC63
:1057F400204602F003FDA388CBB101264FF07E5171
:105804000C4A2346E1602846314626720092002263
:1058140001F0D6FEDFF820C0234600223146284698
:10582400CDF800C001F0CCFE0437BD46F0BDFEF754
:10583400CFF900BF91160000C91700000021FFF73F
:10584400CFBF00BFF0B583B00121054602AF84B0DD
:10585400126802AC204602F0D1FCA3888BB100236D
:105864000121094A2846094E21721946E2600222A2
:105874009FED070ACDE9004601F078FE0437BD46E6
:10588400F0BDFEF7A5F900BFCDCCCC3DB1160000AC
:10589400000016442DE9F04F83B002211446064659
:1058A40002AF86B0126802AD284602F0A7FC0023BE
:1058B40022462846194602F0ADFDAB88012B33D9A8
:1058C4004FF000084FF001094FF0000B06F5947AF1
:1058D4002B4685F81090C5F814B04246CDF80080E8
:1058E4005146304603F02CF886B02268022102ADFE
:1058F400284602F083FCBDF80C30ABB122464B467F
:1059040049462846CDF814B08DF8109002F082FD77
:105914002B46424651463046CDF8008003F010F83D
:105924000437BD46BDE8F08FFEF752F90021FFF7BA
:10593400B1BF00BFF0B583B00521054602AF8CB0FE
:10594400126802AC204602F059FCA388002B49D00F
:105954000122254993422272E16043D02349022B5C
:10596400227461613ED02249032B2276E16139D051
:105974002049042B84F82020616233D01E49234639
:105984001E4884F828200022E16205F52D7100905C
:10599400284602F083F81A48234605F52F71009033
:1059A40000222846174E02F079F81748234605F5D9
:1059B400317100900022284602F070F81348234603
:1059C40005F5337100900022284602F067F823465B
:1059D400002205F535712846009602F05FF8043779
:1059E400BD46F0BDFEF7F4F8FC013B44AEE77F444E
:1059F400AE62313E0010F6445CAF1046F114000074
:105A0400FD1400005D1D0000091500004D1D00007F
:105A1400B0B582B00121054602AF84B0126802AC71
:105A2400204602F0EBFBA38883B1E38802200A4AF4
:105A34000A490B33E260002220722846E3802346A1
:105A44000091114602F0A6F8BD46B0BD044B942166
:105A5400044A054811F048FF040C0020893A00006C
:105A6400AC1200204813002074120020F0B583B05B
:105A740002211546064602AF86B0126802AC2046E3
:105A840002F0BCFBA388B3B10C4801212A460023D1
:105A9400E0602046217202F0BDFC094D00239FED19
:105AA400090A032230461946CDE9004501F05EFD9E
:105AB4000437BD46F0BDFEF78BF800BFE40FC940C4
:105AC400F1160000000000000021FFF7CFBF00BF67
:105AD400B0B582B00121054602AF84B0126802ACB1
:105AE400204602F08BFBA38883B1E38802200A4A94
:105AF4000A490B33E260002220722846E3802346E1
:105B04000091114602F046F8BD46B0BD044B942105
:105B1400044A054811F0E8FE040C0020B90A00000C
:105B2400AC12002048130020741200202DE9F0412B
:105B340082B003211546064602AF88B0126802AC53
:105B4400204602F05BFBA3881BB3E3884FF00208F6
:105B540013492A4606332046E1600121E3800023ED
:105B640084F8088002F056FCA388434511D9E388E1
:105B740030460C4A0C490533E2610022E380234697
:105B840084F818800091114602F004F8BD46BDE87F
:105B9400F081064B9421064A064811F0A5FE00BF89
:105BA400EC0B0020F40B002051150000AC12002077
:105BB40048130020741200200021FFF7B7BF00BF74
:105BC400B0B582B00121054602AF84B0126802ACC0
:105BD400204602F013FBA38883B1E38802200A4A1B
:105BE4000A490B33E260002220722846E3802346F0
:105BF4000091114601F0CEFFBD46B0BD044B942187
:105C0400044A054811F070FE040C0020E10A00006B
:105C1400AC12002048130020741200202DE9F0413A
:105C240082B003211546064602AF88B0126802AC62
:105C3400204602F0E3FAA3881BB3E3884FF002087E
:105C440013492A4606332046E1600121E3800023FC
:105C540084F8088002F0DEFBA388434511D9E38869
:105C640030460C4A0C490533E2610022E3802346A6
:105C740084F818800091114601F08CFFBD46BDE800
:105C8400F081064B9421064A064811F02DFE00BF10
:105C9400EC0B0020F40B002095150000AC12002042
:105CA40048130020741200200021FFF7B7BF00BF83
:105CB400B0B582B00121054602AF84B0126802ACCF
:105CC400204602F09BFAA38883B1E38802200A4AA3
:105CD4000A490B33E260002220722846E3802346FF
:105CE4000091114601F056FFBD46B0BD044B94210E
:105CF400044A054811F0F8FD040C0020810B000053
:105D0400AC1200204813002074120020F0B583B0B8
:105D140002211546064602AF86B0126802AC204640
:105D240002F06CFAA388C3B1E08802210E4B2A4624
:105D340007300E4D21720121E3600023E0802046EC
:105D440002F068FB2346002206F578713046009580
:105D540002F0B4FF0437BD46F0BD054B9421054A5B
:105D6400054811F0C1FD00BFDC0B00200D3E000012
:105D7400AC12002048130020741200200021FFF709
:105D8400C5BF00BFF0B583B00121054602AF84B0A2
:105D9400126802AC204602F031FAA38893B1E3887A
:105DA40002210B4A28460B4E0733217205F5787100
:105DB400E2600022E3802346009602F07FFF04376E
:105DC400BD46F0BD044B9421044A054811F08CFDF6
:105DD400FC0B00200D3E0000AC12002048130020F4
:105DE4007412002010B5044682B0114600F56E709E
:105DF400019201F0E3FC019A0021204602B0BDE8C3
:105E04001040FFF7BFBF00BFF0B583B001210546C6
:105E140002AF84B0126802AC204602F0EFF9A38806
:105E240083B14FF07E520121074E2346217228464A
:105E3400E26005F56E710222009601F033FC04372E
:105E4400BD46F0BDFDF7C4FEA53D000010B584B00D
:105E5400002104460392FFF7D7FF09492046039B1C
:105E64000222009104F5657101F01CFC0022054931
:105E74002046039B0091114601F0A2FB04B010BD23
:105E8400B11A0000ED190000B0B582B00121054639
:105E940002AF84B0126802AC204602F0AFF9A388C6
:105EA40083B1E38802200A4A0A490B33E2600022E4
:105EB40020722846E38023460091114601F06AFED1
:105EC400BD46B0BD044B9421044A054811F00CFDB5
:105ED400040C0020D10B0000AC1200204813002059
:105EE40074120020F0B583B002211546064602AFB5
:105EF40086B0126802AC204602F080F9A388C3B1D0
:105F0400E08802210E4B2A4607300E4D21720121F2
:105F1400E3600023E080204602F07CFA234600225E
:105F240006F244413046009502F0C8FE0437BD46EF
:105F3400F0BD054B9421054A054811F0D5FC00BF7E
:105F4400DC0B0020E53F0000AC12002048130020C9
:105F5400741200200021FFF7C5BF00BFF0B583B065
:105F64000121054602AF84B0126802AC204602F05B
:105F740045F9A38893B1E38802210B4A28460B4EC6
:105F84000733217205F24441E2600022E380234694
:105F9400009602F093FE0437BD46F0BD044B9421F5
:105FA400044A054811F0A0FCFC0B0020E53F00006A
:105FB400AC120020481300207412002010B50446CF
:105FC40082B0114600F21C40019201F0F7FB019AE5
:105FD4000021204602B0BDE81040FFF7BFBF00BF5C
:105FE400F0B583B00121054602AF84B0126802AC5B
:105FF400204602F003F9A38883B14FF07E520121B9
:10600400074E234621722846E26005F21C41022213
:10601400009601F047FB0437BD46F0BDFDF7D8FDFF
:106024007D3F000010B584B0002104460392FFF7C1
:10603400D7FF09492046039B0222009104F57E7193
:1060440001F030FB002205492046039B00911146D4
:1060540001F0B6FA04B010BD051B0000091A0000D7
:10606400F0B583B002211546064602AF86B0126829
:1060740002AC204602F0C2F800232A462046194604
:1060840002F0C8F9A388012B0ED900220749012088
:106094002346616106F5F27120743046009202F0E5
:1060A4004FFC0437BD46F0BDFDF792FD00002041D2
:1060B4000021FFF7D5BF00BFF0B583B0022115461C
:1060C400064602AF86B0126802AC204602F096F88B
:1060D40000232A462046194602F09CF9A388012B86
:1060E4000ED90022074901202346616106F5D071CB
:1060F40020743046009202F023FC0437BD46F0BD04
:10610400FDF766FD000020410021FFF7D5BF00BF69
:10611400F0B583B00121054602AF84B0126802AC29
:10612400204602F06BF8A3888BB100230121094AB1
:106134002846094E21721946E26015229FED070A8E
:10614400CDE9004601F012FA0437BD46F0BDFDF773
:106154003FFD00BF00007A43551800000000FA43D9
:10616400F0B583B00121054602AF84B0126802ACD9
:10617400204602F043F8A3888BB100230121094A89
:106184002846094E21721946E26015229FED070A3E
:10619400CDE9004601F0EAF90437BD46F0BDFDF74C
:1061A40017FD00BF00007A43391800000000FA43CD
:1061B400F0B583B00121054602AF84B0126802AC89
:1061C400204602F01BF8A3888BB100230121094A61
:1061D4002846094E21721946E26015229FED070AEE
:1061E400CDE9004601F0C2F90437BD46F0BDFDF724
:1061F400EFFC00BF6666663F310B000077BE7F3F51
:10620400B0B582B00121054602AF84B0126802AC79
:10621400204601F0F3FFA38883B1E38802200A4AF1
:106224000A490B33E260002220722846E3802346A9
:106234000091114601F0AEFCBD46B0BD044B942163
:10624400044A054811F050FB040C0020210C000006
:10625400AC120020481300207412002030B504460C
:10626400154683B00021FFF723FD2A46204600216E
:10627400FFF70AFE2A4620460021FFF741F92A4685
:1062840020460021FFF7B4F92A4620460021FFF7F3
:106294001DFA49492B4620460091002204F5277136
:1062A40001F0F6FD2A4620460021FFF7CBFA2A46E4
:1062B40020460021FFF73EFB2A4620460021FFF737
:1062C400A7FB3E492B4620460091002204F5447169
:1062D40001F0DEFD2A4620460021FFF719FF2A4679
:1062E40020460021FFF73CFF2A4620460021FFF705
:1062F4005FFF2A4620460021FFF782FF30492B46E4
:1063040020460091002204F5916101F0C1FD2D4960
:106314002B4620460091002204F59A6101F0B8FD55
:1063240029492B4620460091002204F59B6101F087
:10633400AFFD26492B4620460091002204F29C51D1
:1063440001F0A6FD22492B4620460091002204F2CA
:10635400A45101F09DFD1F492B46204600910022C7
:1063640004F5B96101F094FD1B492B4620460091C8
:10637400002204F5037101F08BFD18492B462046D9
:106384000091002204F5517101F082FD2A46204655
:106394000021FFF79DFB124A04F558712046009234
:1063A4002B46002201F074FD2A460021204603B04A
:1063B400BDE83040FFF704BC51160000D1160000C0
:1063C40011170000250D0000490D0000290E0000E2
:1063D4004D0E0000710E00005D440000793B00008A
:1063E400693C0000F0B583B00121054602AF84B0DA
:1063F400126802AC204601F001FFA38893B1E38840
:1064040002210B4A28460B4E0633217205F26441E1
:10641400E2600022E3802346009601F043F904374A
:10642400BD46F0BD044B9421044A054811F05CFAC2
:10643400100C00209D510000AC12002048130020D5
:106444007412002070B50021054618461C4601F060
:1064540093FF0F4B01462046C91AB1FA81F149094D
:1064640001F08AFF60B10B4B984209D00A4E00221A
:106474002346284604961146BDE8704001F0A0B8B2
:10648400224628460021BDE87040FFF7ABBF00BF9D
:106494006E0ED6062D035B7AF551000000230F49DA
:1064A4009FED0F0A70B5154682B01C460646019151
:1064B4000C221946009501F059F82B462246214634
:1064C40030460094FFF760F92B46224621463046B9
:1064D4000094FFF7B7FF02B070BD00BFA10F00002A
:1064E4000000000070B50021054618461C4601F066
:1064F40043FF114B01462046C91AB1FA81F14909FB
:1065040001F03AFF0D4B98420AD00D4E234605F593
:106514009461284604960022BDE8704001F07CBADC
:10652400084E234605F2A441284604960022BDE8FD
:10653400704001F0B3BA00BF6E0ED60601BD647E92
:106544006D0C0000AD1C0000F0B583B001210546C0
:1065540002AF84B0126802AC204601F04FFEA3885B
:106564008BB14FF080420121084E0023217228464E
:10657400E26005F597611622CDE9004600F0BEFF02
:106584000437BD46F0BDFDF723FB00BFB50C00008A
:1065940030B50A4983B0044615460123CDE90021EC
:1065A40000F59761162200F0A9FF2A460021204633
:1065B40003B0BDE83040FFF7C7BF00BFB50C000013
:1065C40070B5002182B0044618461D4601F0D4FE81
:1065D4001B4A01462846891AB1FA81F1490901F09A
:1065E400CBFE184A904225D0002217492B4620465C
:1065F4000091114600F0E4FF14492B460022204686
:10660400009104F2FC41124E01F048FA11492B4664
:1066140000220091204604F2045101F03FFA2B4677
:10662400002204F20C512046069602B0BDE87040E8
:1066340001F034BA084E2B46002204F21451F2E75A
:106644006E0ED6062D035B7A514800006D1D0000C6
:1066540099460000AD1B0000E51B000070B5002149
:1066640082B0054618461C4601F086FE154B0146CD
:106674002046C91AB1FA81F1490901F07DFE124B95
:10668400984212D011492346284600220091012144
:1066940000F096FF0E4E234600220121284606965E
:1066A40002B0BDE8704000F08BBF0A4E23460022C2
:1066B40005F5AD612846069602B0BDE8704001F0CC
:1066C400EDB900BF6E0ED6065483BE47591B0000B9
:1066D400411A0000E947000001B1704710B582B0CB
:1066E40013460A460091FFF7B9FF02B010BD00BF80
:1066F400B0B582B00121054602AF84B0126802AC85
:10670400204601F07BFDA38873B101224FF07E5037
:1067140006492346E06028462272009105F264513E
:1067240001F064F8BD46B0BDFDF752FAA91D0000A2
:1067340030B5114683B0044600F21C50154601F0F2
:106744003DF8084A04F5AE6120462B46009200222B
:1067540001F0C4F82A460021204603B0BDE83040C9
:10676400FFF7C6BF49190000B0B582B00121054644
:1067740002AF84B0126802AC204601F03FFDA3884A
:106784006BB10122002007492346E06028462272AB
:10679400009105F2645101F029F8BD46B0BDFDF742
:1067A40017FA00BFA91D00000021FFF7DDBF00BFDD
:1067B400F0B583B00121054602AF84B0126802AC83
:1067C400204601F01BFDA388DBB1E3880221104AB7
:1067D40010480633104E217205F5A861E2600022CC
:1067E400E38023460090284600F05CFF2346002205
:1067F40005F21C512846009600F054FF0437BD46AC
:10680400F0BD064B9421064A064811F06DF800BF0E
:10681400100C002079190000F1460000AC12002091
:106824004813002074120020012902D80021FFF728
:10683400BFBF7047F0B583B00121044602AF84B0F6
:10684400126802AD284601F0D9FCAB88D3B1012609
:1068540000210D4A2B46E960204604F21C512E7299
:106864000092324600F01EFFDFF820C02B4632466D
:1068740004F5A8612046CDF800C000F013FF0437EA
:10688400BD46F0BDFDF7A4F9F146000079190000FA
:106894000021FFF7CFBF00BFB0B582B0012105468C
:1068A40002AF84B0126802AC204601F0A7FCA388B2
:1068B40083B1E38802200A49002205332072E16093
:1068C4002846E38005F1C0012346009202F038F81F
:1068D400BD46B0BD034B9421034A044811F004F8AB
:1068E400E40B0020AC120020481300207412002096
:1068F4000021FFF7D1BF00BFB0B582B0012105462A
:1069040002AF84B0126802AC204601F077FCA38881
:106914008BB1E38800220B494FF0020C0633284662
:10692400E1601146E380234684F808C00092FFF733
:1069340095FEBD46B0BD044B9421044A044810F0B2
:10694400D3FF00BF100C0020AC120020481300201D
:10695400741200200021FFF7CFBF00BFF0B583B051
:1069640002211546064602AF86B0126802AC2046E4
:1069740001F044FC00232A462046194601F04AFD52
:10698400A388012B0ED90022012007492346207435
:106994003046616106F1A401009201F0D1FF043791
:1069A400BD46F0BDFDF714F9000048420021FFF791
:1069B400D5BF00BF2DE9F04383B0022114468046C1
:1069C40002AF86B0126802AD284601F017FCAB880E
:1069D400002B39D000234FF001094FF07E52284696
:1069E4001E464946EA60224685F8089001F012FDE9
:1069F40000962B46324631464046FFF7E1FD88B00B
:106A04002268032102AD284601F0F8FBBDF80C30E2
:106A1400D3B1002349462246284605934B468DF8B8
:106A2400109001F0F7FC022322462846194601F093
:106A3400F1FC2B463246314640460096FFF7C0FD36
:106A44000437BD46BDE8F083FDF7C2F80021FFF727
:106A5400B1BF00BFF0B583B00121054602AF84B0D9
:106A6400126802AC204601F0C9FBA3888BB14FF039
:106A740080420121084E002321722846E26005F27B
:106A840084511622CDE9004600F038FD0437BD4696
:106A9400F0BDFDF79DF800BFB90D000030B50A49FF
:106AA40083B0044615460123CDE9002100F2845148
:106AB400162200F023FD2A460021204603B0BDE83B
:106AC4003040FFF7C7BF00BFB90D000070B500210B
:106AD40082B0044618461D4601F04EFC1B4A01468E
:106AE4002846891AB1FA81F1490901F045FC184A8E
:106AF400904225D0002217492B462046009111468A
:106B040000F05EFD14492B4600222046009104F556
:106B1400BB61124E00F0C2FF11492B4600220091C6
:106B2400204604F5BC6100F0B9FF2B46002204F5B1
:106B3400BD612046069602B0BDE8704000F0AEBFCD
:106B4400084E2B46002204F5BE61F2E76E0ED6060F
:106B54002D035B7A5D4D0000CD1D0000A54B0000A8
:106B64001D1C0000551C000070B5002182B00546B4
:106B740018461C4601F000FC154B01462046C91A74
:106B8400B1FA81F1490901F0F7FB124B984212D096
:106B940011492346284600220091012100F010FDEE
:106BA4000E4E2346002201212846069602B0BDE877
:106BB400704000F005BD0A4E2346002205F24461F0
:106BC4002846069602B0BDE8704000F067BF00BFDB
:106BD4006E0ED6065483BE47751B0000791A00005A
:106BE400F54C000001B1704710B582B013460A4657
:106BF4000091FFF7B9FF02B010BD00BFB0B582B07D
:106C04000121054602AF84B0126802AC204601F0AF
:106C1400F5FAA38873B101224FF07E50064923464A
:106C2400E06028462272009105F5C86100F0DEFD9F
:106C3400BD46B0BDFCF7CCFF091E000030B51146BF
